{
  "_format": "hh-sol-artifact-1",
  "contractName": "DirectDexLaunchFactory",
  "sourceName": "contracts/DirectDexLaunchFactory.sol",
  "abi": [
    {
      "inputs": [
        {
          "internalType": "address",
          "name": "_feeWallet",
          "type": "address"
        },
        {
          "internalType": "address",
          "name": "_router",
          "type": "address"
        },
        {
          "internalType": "address",
          "name": "_owner",
          "type": "address"
        }
      ],
      "stateMutability": "nonpayable",
      "type": "constructor"
    },
    {
      "inputs": [
        {
          "internalType": "address",
          "name": "owner",
          "type": "address"
        }
      ],
      "name": "OwnableInvalidOwner",
      "type": "error"
    },
    {
      "inputs": [
        {
          "internalType": "address",
          "name": "account",
          "type": "address"
        }
      ],
      "name": "OwnableUnauthorizedAccount",
      "type": "error"
    },
    {
      "anonymous": false,
      "inputs": [
        {
          "indexed": true,
          "internalType": "address",
          "name": "previousOwner",
          "type": "address"
        },
        {
          "indexed": true,
          "internalType": "address",
          "name": "newOwner",
          "type": "address"
        }
      ],
      "name": "OwnershipTransferred",
      "type": "event"
    },
    {
      "anonymous": false,
      "inputs": [
        {
          "indexed": true,
          "internalType": "address",
          "name": "tokenAddress",
          "type": "address"
        },
        {
          "indexed": false,
          "internalType": "string",
          "name": "name",
          "type": "string"
        },
        {
          "indexed": false,
          "internalType": "string",
          "name": "symbol",
          "type": "string"
        },
        {
          "indexed": false,
          "internalType": "uint256",
          "name": "supply",
          "type": "uint256"
        },
        {
          "indexed": true,
          "internalType": "address",
          "name": "creator",
          "type": "address"
        },
        {
          "indexed": false,
          "internalType": "uint256",
          "name": "deploymentFee",
          "type": "uint256"
        },
        {
          "indexed": false,
          "internalType": "uint256",
          "name": "liquidityBnb",
          "type": "uint256"
        }
      ],
      "name": "TokenCreatedDirect",
      "type": "event"
    },
    {
      "inputs": [],
      "name": "DEPLOYMENT_FEE",
      "outputs": [
        {
          "internalType": "uint256",
          "name": "",
          "type": "uint256"
        }
      ],
      "stateMutability": "view",
      "type": "function"
    },
    {
      "inputs": [],
      "name": "MIN_INITIAL_LIQUIDITY",
      "outputs": [
        {
          "internalType": "uint256",
          "name": "",
          "type": "uint256"
        }
      ],
      "stateMutability": "view",
      "type": "function"
    },
    {
      "inputs": [
        {
          "internalType": "string",
          "name": "name",
          "type": "string"
        },
        {
          "internalType": "string",
          "name": "symbol",
          "type": "string"
        }
      ],
      "name": "createTokenDirect",
      "outputs": [
        {
          "internalType": "address",
          "name": "tokenAddress",
          "type": "address"
        }
      ],
      "stateMutability": "payable",
      "type": "function"
    },
    {
      "inputs": [],
      "name": "dexRouter",
      "outputs": [
        {
          "internalType": "contract IDexRouter",
          "name": "",
          "type": "address"
        }
      ],
      "stateMutability": "view",
      "type": "function"
    },
    {
      "inputs": [],
      "name": "feeWallet",
      "outputs": [
        {
          "internalType": "address",
          "name": "",
          "type": "address"
        }
      ],
      "stateMutability": "view",
      "type": "function"
    },
    {
      "inputs": [],
      "name": "owner",
      "outputs": [
        {
          "internalType": "address",
          "name": "",
          "type": "address"
        }
      ],
      "stateMutability": "view",
      "type": "function"
    },
    {
      "inputs": [],
      "name": "renounceOwnership",
      "outputs": [],
      "stateMutability": "nonpayable",
      "type": "function"
    },
    {
      "inputs": [
        {
          "internalType": "address",
          "name": "_feeWallet",
          "type": "address"
        }
      ],
      "name": "setFeeWallet",
      "outputs": [],
      "stateMutability": "nonpayable",
      "type": "function"
    },
    {
      "inputs": [
        {
          "internalType": "uint256",
          "name": "_deploymentFee",
          "type": "uint256"
        },
        {
          "internalType": "uint256",
          "name": "_minLiquidity",
          "type": "uint256"
        }
      ],
      "name": "setFees",
      "outputs": [],
      "stateMutability": "nonpayable",
      "type": "function"
    },
    {
      "inputs": [
        {
          "internalType": "address",
          "name": "newOwner",
          "type": "address"
        }
      ],
      "name": "transferOwnership",
      "outputs": [],
      "stateMutability": "nonpayable",
      "type": "function"
    },
    {
      "stateMutability": "payable",
      "type": "receive"
    }
  ],
  "bytecode": "0x60803461018057601f611ab438819003918201601f191683019291906001600160401b038411838510176101855781606092849260409687528339810103126101805761004b8161019b565b90826100596020830161019b565b916001600160a01b0391829161006f910161019b565b1691821561016857816000549460018060a01b031994808688161760005582885197167f8be0079c531659141344cd1fd0a4f28419497f9722a3daafe3b4186f6b6457e0600080a3660aa87bee538000600155662386f26fc10000600255169384156101315750169182156100fc5781600354161760035560045416176004555161190490816101b08239f35b835162461bcd60e51b815260206004820152600e60248201526d24b73b30b634b2103937baba32b960911b6044820152606490fd5b62461bcd60e51b8152602060048201526012602482015271125b9d985b1a5908199959481dd85b1b195d60721b6044820152606490fd5b8451631e4fbdf760e01b815260006004820152602490fd5b600080fd5b634e487b7160e01b600052604160045260246000fd5b51906001600160a01b03821682036101805756fe608060408181526004908136101562000024575b50505036156200002257600080fd5b005b600092833560e01c9081630758d92414620008f8575080630b78f9c014620008cf5780634e86348714620002c9578063715018a61462000268578063728780fa14620002475780638da5cb5b146200021d57806390d49b9d146200018b578063a8f32251146200016a578063f25f4b56146200013b5763f2fde38b036200001357346200013757602036600319011262000137576001600160a01b038235818116939192908490036200013357620000db62000955565b83156200011d57505082546001600160a01b0319811683178455167f8be0079c531659141344cd1fd0a4f28419497f9722a3daafe3b4186f6b6457e08380a380f35b51631e4fbdf760e01b8152908101849052602490fd5b8480fd5b8280fd5b838234620001665781600319360112620001665760035490516001600160a01b039091168152602090f35b5080fd5b83823462000166578160031936011262000166576020906001549051908152f35b50903462000137576020366003190112620001375780356001600160a01b03811692908390036200021957620001c062000955565b8215620001e45750506bffffffffffffffffffffffff60a01b600354161760035580f35b906020606492519162461bcd60e51b8352820152600f60248201526e496e76616c6964206164647265737360881b6044820152fd5b8380fd5b8382346200016657816003193601126200016657905490516001600160a01b039091168152602090f35b83823462000166578160031936011262000166576020906002549051908152f35b8334620002c65780600319360112620002c6576200028562000955565b80546001600160a01b03198116825581906001600160a01b03167f8be0079c531659141344cd1fd0a4f28419497f9722a3daafe3b4186f6b6457e08280a380f35b80fd5b5080600319360112620001375767ffffffffffffffff9082358281116200013357620002f990369085016200091f565b926024938435828111620008cb576200031690369088016200091f565b929093600154916002548301808411620008b9573410620008605783156200082e578415620007fa578980808060018060a01b039687600354165af16200035c620009bb565b5015620007c257865195610e9480880192831188841017620007b05762000a3b883960a082526200039260a083018685620009ff565b99620003a960209b8481038d8601528884620009ff565b9780633b9aca00998a8c870152606095338782015260803091015203908df08015620007a657851699818d8d8d8d519384809263313ce56760e01b82525afa908115620006c3579062000767575b60ff915016604d81116200075557600a0a808a02908a8204036200075557620004528d8f8e8e85928c895416915180968195829463095ea7b360e01b84528c840160209093929193604081019460018060a01b031681520152565b03925af180156200074957908e9162000726575b5050600154340396348811620007145783541661025842018042116200070157918f928e8a8f9460c4938b9651978896879563f305d71960e01b87528c8701528a860152806044860152606485015233608485015260a48401525af180156200068057908591620006ce575b50508c818d8d8d51928380926370a0823160e01b825230898301525afa918215620006c357916200068c575b5080620005e8575b508a9b9c9a9798999a478062000584575b505050506200056b907f05f54c7fcd7e0d07c8d765788e6ea1b851012bd80863d3c969b5233d4fbdedb296976200055d600154958c519860a08a5260a08a0191620009ff565b878103888f015291620009ff565b968885015283015260808201528033940390a351908152f35b818093949597999b96989a508091335af16200059f620009bb565b5015620005b65780808c9896949997959362000517565b895162461bcd60e51b81529182018c9052600d908201526c1499599d5b990819985a5b1959609a1b6044820152606490fd5b8c620006218f928e908e5194858094819363a9059cbb60e01b8352338b840160209093929193604081019460018060a01b031681520152565b03925af1801562000680579c809e918d9e9d9a9b9c9d6200064b575b50509c9b9a99989762000506565b816200066f92903d1062000678575b62000666818362000982565b81019062000a20565b508d386200063d565b503d6200065a565b8e8c51903d90823e3d90fd5b90508c81813d8311620006bb575b620006a6818362000982565b81010312620006b7575138620004fe565b8d80fd5b503d6200069a565b8c51903d90823e3d90fd5b813d8311620006f9575b620006e4818362000982565b81010312620006f5578338620004d2565b8c80fd5b503d620006d8565b50634e487b7160e01b8f5260118452828ffd5b634e487b7160e01b8f5260118452828ffd5b816200074092903d10620006785762000666818362000982565b508c3862000466565b8f8d51903d90823e3d90fd5b50634e487b7160e01b8d52601182528cfd5b508c81813d83116200079e575b62000780818362000982565b81010312620006b7575160ff81168103620006b75760ff90620003f7565b503d62000774565b89513d8e823e3d90fd5b634e487b7160e01b8c5260418b52898cfd5b865162461bcd60e51b81526020818b01526013818a015272119959481d1c985b9cd9995c8819985a5b1959606a1b6044820152606490fd5b865162461bcd60e51b81526020818b0152600f818a01526e14de5b589bdb081c995c5d5a5c9959608a1b6044820152606490fd5b865162461bcd60e51b81526020818b0152600d818a01526c13985b59481c995c5d5a5c9959609a1b6044820152606490fd5b865162461bcd60e51b81526020818b0152602e818a01527f496e73756666696369656e7420424e423a206e65656420666565202b20696e6960448201526d7469616c206c697175696469747960901b6064820152608490fd5b634e487b7160e01b8b5260118a52888bfd5b8780fd5b503462000137573660031901126200016657620008eb62000955565b3560015560243560025580f35b849084346200013757826003193601126200013757546001600160a01b0316815260209150f35b9181601f84011215620009505782359167ffffffffffffffff83116200095057602083818601950101116200095057565b600080fd5b6000546001600160a01b031633036200096a57565b60405163118cdaa760e01b8152336004820152602490fd5b90601f8019910116810190811067ffffffffffffffff821117620009a557604052565b634e487b7160e01b600052604160045260246000fd5b3d15620009fa573d9067ffffffffffffffff8211620009a55760405191620009ee601f8201601f19166020018462000982565b82523d6000602084013e565b606090565b908060209392818452848401376000828201840152601f01601f1916010190565b90816020910312620009505751801515810362000950579056fe60406080815234620004b45762000e94803803806200001e81620004b9565b92833981019060a081830312620004b45780516001600160401b039290838111620004b457816200005191840162000504565b906020908184015190858211620004b4576200006f91850162000504565b90858401519162000091608062000089606088016200055b565b96016200055b565b958451818111620003bf576003918254926001928385811c95168015620004a9575b878610146200049357601f9485811162000448575b508087868211600114620003e157600091620003d5575b5060001982841b1c191690841b1781555b8451918211620003bf5760049384548481811c91168015620003b4575b888210146200039f5781811162000354575b5086908311600114620002eb5782938391600094620002df575b501b92600019911b1c19161781555b6001600160a01b03968716968715620002c857600580546001600160a01b03198082168b17909255909790899083167f8be0079c531659141344cd1fd0a4f28419497f9722a3daafe3b4186f6b6457e0600080a316958615620002935786906006541617600655670de0b6b3a7640000908185029185830414851517156200027e57600254908282018092116200027e5750926200025a94928860007fddf252ad1be2c89b69c2b068fc378daa952ba7f163c4a11628f55a4df523b3ef8462000268968e7fbeb070748168c711e9d9d570ee9ce0b65d49cc7ddcc6cb9c6ce3b2570ae1eb709c9a60025585855284835280852082815401905551908152a3895195869560608752606087019062000570565b918583039086015262000570565b90878301520390a3516108fc9081620005988239f35b601190634e487b7160e01b6000525260246000fd5b885162461bcd60e51b8152808301859052600f60248201526e24b73b30b634b21031b932b0ba37b960891b6044820152606490fd5b8851631e4fbdf760e01b8152600081840152602490fd5b87015193503862000139565b90601f198316918560005283886000209360005b8a888383106200033c575050501062000321575b505050811b01815562000148565b8601519060f884600019921b161c1916905538808062000313565b858c01518855909601959384019387935001620002ff565b85600052876000208280860160051c8201928a871062000395575b0160051c019085905b828110620003885750506200011f565b6000815501859062000378565b925081926200036f565b602286634e487b7160e01b6000525260246000fd5b90607f16906200010d565b634e487b7160e01b600052604160045260246000fd5b905089015138620000df565b60008481528981208794509190601f198416908b8e5b8383106200043057505050831162000417575b5050811b018155620000f0565b8b015160001983861b60f8161c1916905538806200040a565b840151855589969094019392830192018b8e620003f7565b82600052876000208680840160051c8201928a851062000489575b0160051c019085905b8281106200047c575050620000c8565b600081550185906200046c565b9250819262000463565b634e487b7160e01b600052602260045260246000fd5b94607f1694620000b3565b600080fd5b6040519190601f01601f191682016001600160401b03811183821017620003bf57604052565b60005b838110620004f35750506000910152565b8181015183820152602001620004e2565b81601f82011215620004b45780516001600160401b038111620003bf5762000536601f8201601f1916602001620004b9565b9281845260208284010111620004b457620005589160208085019101620004df565b90565b51906001600160a01b0382168203620004b457565b906020916200058b81518092818552858086019101620004df565b601f01601f191601019056fe6080604081815260048036101561001557600080fd5b600092833560e01c90816302d05d3f1461071d5750806306fdde0314610642578063095ea7b31461059957806318160ddd1461057a57806323b872dd14610487578063313ce5671461046b57806342966c68146103ad57806370a0823114610376578063715018a6146103165780638da5cb5b146102ed57806395d89b41146101cd578063a9059cbb1461019c578063dd62ed3e1461014f5763f2fde38b146100bd57600080fd5b3461014b57602036600319011261014b576100d661078b565b906100df6107bc565b6001600160a01b03918216928315610135575050600554826bffffffffffffffffffffffff60a01b821617600555167f8be0079c531659141344cd1fd0a4f28419497f9722a3daafe3b4186f6b6457e08380a380f35b51631e4fbdf760e01b8152908101849052602490fd5b8280fd5b5050346101985780600319360112610198578060209261016d61078b565b6101756107a6565b6001600160a01b0391821683526001865283832091168252845220549051908152f35b5080fd5b5050346101985780600319360112610198576020906101c66101bc61078b565b60243590336107e8565b5160018152f35b50919034610198578160031936011261019857805190828454600181811c908083169283156102e3575b60209384841081146102d0578388529081156102b4575060011461025f575b505050829003601f01601f191682019267ffffffffffffffff84118385101761024c5750829182610248925282610742565b0390f35b634e487b7160e01b815260418552602490fd5b8787529192508591837f8a35acfbc15ff81a39ae7d344fd709f28e8600b4aa8c65c6b64bfe7fe36bd19b5b8385106102a05750505050830101388080610216565b80548886018301529301928490820161028a565b60ff1916878501525050151560051b8401019050388080610216565b634e487b7160e01b895260228a52602489fd5b91607f16916101f7565b50503461019857816003193601126101985760055490516001600160a01b039091168152602090f35b833461037357806003193601126103735761032f6107bc565b600580546001600160a01b0319811690915581906001600160a01b03167f8be0079c531659141344cd1fd0a4f28419497f9722a3daafe3b4186f6b6457e08280a380f35b80fd5b5050346101985760203660031901126101985760209181906001600160a01b0361039e61078b565b16815280845220549051908152f35b50919034610198576020366003190112610198578235906103cc6107bc565b33156104555733835282602052808320549382851061042a57508183943385528460205203818420558160025403600255519081527fddf252ad1be2c89b69c2b068fc378daa952ba7f163c4a11628f55a4df523b3ef60203392a380f35b905163391434e360e21b81523391810191825260208201859052604082018390529081906060010390fd5b51634b637e8f60e11b8152808401839052602490fd5b5050346101985781600319360112610198576020905160128152f35b508234610373576060366003190112610373576104a261078b565b6104aa6107a6565b916044359360018060a01b0383168083526001602052868320338452602052868320549160001983106104e6575b6020886101c68989896107e8565b86831061054e578115610537573315610520575082526001602090815286832033845281529186902090859003905582906101c6876104d8565b8751634a1406b160e11b8152908101849052602490fd5b875163e602df0560e01b8152908101849052602490fd5b8751637dc7a0d960e11b8152339181019182526020820193909352604081018790528291506060010390fd5b5050346101985781600319360112610198576020906002549051908152f35b503461014b578160031936011261014b576105b261078b565b60243590331561062b576001600160a01b031691821561061457508083602095338152600187528181208582528752205582519081527f8c5be1e5ebec7d5bd14f71427d1e84f3dd0314c0f7b2291e5b200ac8c7c3b925843392a35160018152f35b8351634a1406b160e11b8152908101859052602490fd5b835163e602df0560e01b8152808401869052602490fd5b5091903461019857816003193601126101985780519082600354600181811c90808316928315610713575b60209384841081146102d0578388529081156102b457506001146106bd57505050829003601f01601f191682019267ffffffffffffffff84118385101761024c5750829182610248925282610742565b600387529192508591837fc2575a0e9e593c00f959f8c92f12db2869c3395a3b0502d05e2516446f71f85b5b8385106106ff5750505050830101388080610216565b8054888601830152930192849082016106e9565b91607f169161066d565b8490346101985781600319360112610198576006546001600160a01b03168152602090f35b6020808252825181830181905290939260005b82811061077757505060409293506000838284010152601f8019910116010190565b818101860151848201604001528501610755565b600435906001600160a01b03821682036107a157565b600080fd5b602435906001600160a01b03821682036107a157565b6005546001600160a01b031633036107d057565b60405163118cdaa760e01b8152336004820152602490fd5b916001600160a01b038084169283156108ad57169283156108945760009083825281602052604082205490838210610862575091604082827fddf252ad1be2c89b69c2b068fc378daa952ba7f163c4a11628f55a4df523b3ef958760209652828652038282205586815220818154019055604051908152a3565b60405163391434e360e21b81526001600160a01b03919091166004820152602481019190915260448101839052606490fd5b60405163ec442f0560e01b815260006004820152602490fd5b604051634b637e8f60e11b815260006004820152602490fdfea2646970667358221220d1ed85bd74cfba065b7533677a81bfaf592bf66b13072c827c964af8c61856db64736f6c63430008140033a2646970667358221220d8e00c6f0a819b75771892bc175bd5178897cb4deaea1b8a4dff451feab80fe964736f6c63430008140033",
  "linkReferences": {},
  "deployedLinkReferences": {}
}