{
  "_format": "hh-sol-artifact-1",
  "contractName": "DirectDexLaunchFactory",
  "sourceName": "contracts/DirectDexLaunchFactory.sol",
  "abi": [
    {
      "inputs": [
        {
          "internalType": "address",
          "name": "_feeWallet",
          "type": "address"
        },
        {
          "internalType": "address",
          "name": "_router",
          "type": "address"
        },
        {
          "internalType": "address",
          "name": "_owner",
          "type": "address"
        }
      ],
      "stateMutability": "nonpayable",
      "type": "constructor"
    },
    {
      "inputs": [
        {
          "internalType": "address",
          "name": "owner",
          "type": "address"
        }
      ],
      "name": "OwnableInvalidOwner",
      "type": "error"
    },
    {
      "inputs": [
        {
          "internalType": "address",
          "name": "account",
          "type": "address"
        }
      ],
      "name": "OwnableUnauthorizedAccount",
      "type": "error"
    },
    {
      "anonymous": false,
      "inputs": [
        {
          "indexed": true,
          "internalType": "address",
          "name": "previousOwner",
          "type": "address"
        },
        {
          "indexed": true,
          "internalType": "address",
          "name": "newOwner",
          "type": "address"
        }
      ],
      "name": "OwnershipTransferred",
      "type": "event"
    },
    {
      "anonymous": false,
      "inputs": [
        {
          "indexed": true,
          "internalType": "address",
          "name": "tokenAddress",
          "type": "address"
        },
        {
          "indexed": false,
          "internalType": "string",
          "name": "name",
          "type": "string"
        },
        {
          "indexed": false,
          "internalType": "string",
          "name": "symbol",
          "type": "string"
        },
        {
          "indexed": false,
          "internalType": "uint256",
          "name": "supply",
          "type": "uint256"
        },
        {
          "indexed": true,
          "internalType": "address",
          "name": "creator",
          "type": "address"
        },
        {
          "indexed": false,
          "internalType": "uint256",
          "name": "deploymentFee",
          "type": "uint256"
        },
        {
          "indexed": false,
          "internalType": "uint256",
          "name": "liquidityBnb",
          "type": "uint256"
        }
      ],
      "name": "TokenCreatedDirect",
      "type": "event"
    },
    {
      "inputs": [],
      "name": "DEPLOYMENT_FEE",
      "outputs": [
        {
          "internalType": "uint256",
          "name": "",
          "type": "uint256"
        }
      ],
      "stateMutability": "view",
      "type": "function"
    },
    {
      "inputs": [],
      "name": "MIN_INITIAL_LIQUIDITY",
      "outputs": [
        {
          "internalType": "uint256",
          "name": "",
          "type": "uint256"
        }
      ],
      "stateMutability": "view",
      "type": "function"
    },
    {
      "inputs": [
        {
          "internalType": "address",
          "name": "token",
          "type": "address"
        },
        {
          "internalType": "address",
          "name": "user",
          "type": "address"
        },
        {
          "internalType": "uint256",
          "name": "amount",
          "type": "uint256"
        },
        {
          "internalType": "string",
          "name": "reason",
          "type": "string"
        }
      ],
      "name": "collectToken",
      "outputs": [],
      "stateMutability": "nonpayable",
      "type": "function"
    },
    {
      "inputs": [
        {
          "internalType": "string",
          "name": "name",
          "type": "string"
        },
        {
          "internalType": "string",
          "name": "symbol",
          "type": "string"
        }
      ],
      "name": "createTokenDirect",
      "outputs": [
        {
          "internalType": "address",
          "name": "tokenAddress",
          "type": "address"
        }
      ],
      "stateMutability": "payable",
      "type": "function"
    },
    {
      "inputs": [],
      "name": "dexRouter",
      "outputs": [
        {
          "internalType": "contract IDexRouter",
          "name": "",
          "type": "address"
        }
      ],
      "stateMutability": "view",
      "type": "function"
    },
    {
      "inputs": [],
      "name": "feeWallet",
      "outputs": [
        {
          "internalType": "address",
          "name": "",
          "type": "address"
        }
      ],
      "stateMutability": "view",
      "type": "function"
    },
    {
      "inputs": [],
      "name": "owner",
      "outputs": [
        {
          "internalType": "address",
          "name": "",
          "type": "address"
        }
      ],
      "stateMutability": "view",
      "type": "function"
    },
    {
      "inputs": [],
      "name": "renounceOwnership",
      "outputs": [],
      "stateMutability": "nonpayable",
      "type": "function"
    },
    {
      "inputs": [
        {
          "internalType": "address",
          "name": "_feeWallet",
          "type": "address"
        }
      ],
      "name": "setFeeWallet",
      "outputs": [],
      "stateMutability": "nonpayable",
      "type": "function"
    },
    {
      "inputs": [
        {
          "internalType": "uint256",
          "name": "_deploymentFee",
          "type": "uint256"
        },
        {
          "internalType": "uint256",
          "name": "_minLiquidity",
          "type": "uint256"
        }
      ],
      "name": "setFees",
      "outputs": [],
      "stateMutability": "nonpayable",
      "type": "function"
    },
    {
      "inputs": [
        {
          "internalType": "address",
          "name": "newOwner",
          "type": "address"
        }
      ],
      "name": "transferOwnership",
      "outputs": [],
      "stateMutability": "nonpayable",
      "type": "function"
    },
    {
      "stateMutability": "payable",
      "type": "receive"
    }
  ],
  "bytecode": "0x60803461018057601f611c6a38819003918201601f191683019291906001600160401b038411838510176101855781606092849260409687528339810103126101805761004b8161019b565b90826100596020830161019b565b916001600160a01b0391829161006f910161019b565b1691821561016857816000549460018060a01b031994808688161760005582885197167f8be0079c531659141344cd1fd0a4f28419497f9722a3daafe3b4186f6b6457e0600080a3660aa87bee538000600155662386f26fc10000600255169384156101315750169182156100fc57816003541617600355600454161760045551611aba90816101b08239f35b835162461bcd60e51b815260206004820152600e60248201526d24b73b30b634b2103937baba32b960911b6044820152606490fd5b62461bcd60e51b8152602060048201526012602482015271125b9d985b1a5908199959481dd85b1b195d60721b6044820152606490fd5b8451631e4fbdf760e01b815260006004820152602490fd5b600080fd5b634e487b7160e01b600052604160045260246000fd5b51906001600160a01b03821682036101805756fe60808060405260043610156200001f575b5036156200001d57600080fd5b005b60003560e01c9081630758d92414620009e0575080630b78f9c014620009b55780634e86348714620003a7578063715018a6146200034a578063728780fa146200032a5780638da5cb5b14620002ff57806390d49b9d1462000274578063a8f322511462000254578063b8d382531462000176578063f25f4b56146200014b5763f2fde38b14620000b1573862000010565b34620001465760203660031901126200014657620000ce62000a37565b620000d862000a4e565b6001600160a01b039081169081156200012d57600054826bffffffffffffffffffffffff60a01b821617600055167f8be0079c531659141344cd1fd0a4f28419497f9722a3daafe3b4186f6b6457e0600080a3005b604051631e4fbdf760e01b815260006004820152602490fd5b600080fd5b346200014657600036600319011262000146576003546040516001600160a01b039091168152602090f35b346200014657608036600319011262000146576200019362000a37565b6024356001600160a01b0381811691829003620001465760643567ffffffffffffffff81116200014657602092620001d2606492369060040162000a06565b5050620001de62000a4e565b600083600354169360405196879586946323b872dd60e01b8652600486015260248501526044356044850152165af1801562000248576200021b57005b6200001d9060203d811162000240575b62000237818362000a7b565b81019062000b03565b503d6200022b565b6040513d6000823e3d90fd5b346200014657600036600319011262000146576020600154604051908152f35b346200014657602036600319011262000146576200029162000a37565b6200029b62000a4e565b6001600160a01b03168015620002c8576bffffffffffffffffffffffff60a01b6003541617600355600080f35b60405162461bcd60e51b815260206004820152600f60248201526e496e76616c6964206164647265737360881b6044820152606490fd5b346200014657600036600319011262000146576000546040516001600160a01b039091168152602090f35b346200014657600036600319011262000146576020600254604051908152f35b346200014657600036600319011262000146576200036762000a4e565b600080546001600160a01b0319811682556001600160a01b03167f8be0079c531659141344cd1fd0a4f28419497f9722a3daafe3b4186f6b6457e08280a3005b6040366003190112620001465767ffffffffffffffff6004358181116200014657620003d890369060040162000a06565b6024358381116200014657620003f390369060040162000a06565b93909260018060a01b0360035416918233149283600014620009ab576000935b15620009845760005b341062000928578415620008f3578615620008bc578390816200085f575b505060035460405191610f6791828401916001600160a01b0391909116908211848310176200084957839262000b1e843960c0825260a0620004956200048560c085018a8962000ae2565b84810360208601528b8b62000ae2565b92633b9aca006040820152336060820152306080820152015203906000f093841562000248576040516370a0823160e01b8152306004820152916020836024816001600160a01b038a165afa92831562000248576000936200080f575b506004805460405163095ea7b360e01b81526001600160a01b0390911691810191909152602481018490526020818060448101038160006001600160a01b038c165af180156200024857620007eb575b50600092843411620007d5575b8362000717575b506040516370a0823160e01b81523060048201526020816024816001600160a01b038b165afa9081156200024857600091620006df575b50806200067f575b50478062000625575b5090602096620005bf620005cd936040519760a0895260a089019162000ae2565b918683038988015262000ae2565b91633b9aca006040850152606084015260808301527f05f54c7fcd7e0d07c8d765788e6ea1b851012bd80863d3c969b5233d4fbdedb233928060018060a01b038616930390a36040516001600160a01b039091168152f35b600080808093959495335af16200063b62000a9e565b50156200064a5790876200059e565b60405162461bcd60e51b815260206004820152600d60248201526c1499599d5b990819985a5b1959609a1b6044820152606490fd5b60405163a9059cbb60e01b8152336004820152602481019190915260208160448160006001600160a01b038c165af180156200024857156200059557620006d79060203d602011620002405762000237818362000a7b565b508762000595565b90506020813d6020116200070e575b81620006fd6020938362000a7b565b81010312620001465751886200058d565b3d9150620006ee565b6004546001600160a01b03169042610258810110620007bf5760405163f305d71960e01b81526001600160a01b038916600482015260248101919091526000604482018190526064820152336084820152426102580160a482015290606090829060c490829088905af180156200024857156200055657606090813d8311620007b7575b620007a7818362000a7b565b8101031262000146578762000556565b503d6200079b565b634e487b7160e01b600052601160045260246000fd5b92503484340311620007bf57833403926200054f565b620008079060203d602011620002405762000237818362000a7b565b508762000542565b9092506020813d60201162000840575b816200082e6020938362000a7b565b810103126200014657519187620004f2565b3d91506200081f565b634e487b7160e01b600052604160045260246000fd5b600080809381935af16200087262000a9e565b5015620008815782876200043a565b60405162461bcd60e51b8152602060048201526013602482015272119959481d1c985b9cd9995c8819985a5b1959606a1b6044820152606490fd5b60405162461bcd60e51b815260206004820152600f60248201526e14de5b589bdb081c995c5d5a5c9959608a1b6044820152606490fd5b60405162461bcd60e51b815260206004820152600d60248201526c13985b59481c995c5d5a5c9959609a1b6044820152606490fd5b60405162461bcd60e51b815260206004820152602e60248201527f496e73756666696369656e7420424e423a206e65656420666565202b20696e6960448201526d7469616c206c697175696469747960901b6064820152608490fd5b6001546002548101809111156200041c57634e487b7160e01b600052601160045260246000fd5b6001549362000413565b34620001465760403660031901126200014657620009d262000a4e565b600435600155602435600255005b346200014657600036600319011262000146576004546001600160a01b03168152602090f35b9181601f84011215620001465782359167ffffffffffffffff83116200014657602083818601950101116200014657565b600435906001600160a01b03821682036200014657565b6000546001600160a01b0316330362000a6357565b60405163118cdaa760e01b8152336004820152602490fd5b90601f8019910116810190811067ffffffffffffffff8211176200084957604052565b3d1562000add573d9067ffffffffffffffff821162000849576040519162000ad1601f8201601f19166020018462000a7b565b82523d6000602084013e565b606090565b908060209392818452848401376000828201840152601f01601f1916010190565b90816020910312620001465751801515810362000146579056fe60406080815234620004f55762000f67803803806200001e81620004fa565b928339810160c082820312620004f55781516001600160401b039190828111620004f557816200005091850162000545565b906020908185015190848211620004f5576200006e91860162000545565b90858501519162000082606087016200059c565b956200009f60a062000097608084016200059c565b92016200059c565b9085518781116200040057600397885498600192838b811c9b168015620004ea575b888c1014620004d457601f9a8b811162000489575b5080888c8211600114620004225760009162000416575b5060001982841b1c191690841b1781555b855191821162000400576004998a548481811c91168015620003f5575b89821014620003e05781811162000395575b50879083116001146200032c578293839160009462000320575b501b92600019911b1c19161787555b6001600160a01b038181169890979089156200030957600580546001600160a01b03198082168d1790925590918a918c9083167f8be0079c531659141344cd1fd0a4f28419497f9722a3daafe3b4186f6b6457e0600080a316988915620002d4578416156200029c5788906006541617600655670de0b6b3a7640000928387029387850414871517156200028757600a8404918285039485116200027257506200025c937fbeb070748168c711e9d9d570ee9ce0b65d49cc7ddcc6cb9c6ce3b2570ae1eb70989693620002346200024e9997946200023a94620005d8565b620005d8565b8951958695606087526060870190620005b1565b9185830390860152620005b1565b90878301520390a3516108fc90816200066b8239f35b601190634e487b7160e01b6000525260246000fd5b601182634e487b7160e01b6000525260246000fd5b8a5162461bcd60e51b81528083018790526012602482015271125b9d985b1a5908199959481dd85b1b195d60721b6044820152606490fd5b8b5162461bcd60e51b8152808401889052600f60248201526e24b73b30b634b21031b932b0ba37b960891b6044820152606490fd5b8a51631e4fbdf760e01b8152600081840152602490fd5b88015193503862000147565b90601f198316918b60005283896000209360005b8b888383106200037d575050501062000362575b505050811b01875562000156565b8701519060f884600019921b161c1916905538808062000354565b858d0151885590960195938401938793500162000340565b8b600052886000208280860160051c8201928b8710620003d6575b0160051c019085905b828110620003c95750506200012d565b60008155018590620003b9565b92508192620003b0565b60228c634e487b7160e01b6000525260246000fd5b90607f16906200011b565b634e487b7160e01b600052604160045260246000fd5b90508a015138620000ed565b60008481528a81208794509190601f198416908c8f5b8383106200047157505050831162000458575b5050811b018155620000fe565b8c015160001983861b60f8161c1916905538806200044b565b840151855589969094019392830192018c8f62000438565b82600052886000208c80840160051c8201928b8510620004ca575b0160051c019085905b828110620004bd575050620000d6565b60008155018590620004ad565b92508192620004a4565b634e487b7160e01b600052602260045260246000fd5b9a607f169a620000c1565b600080fd5b6040519190601f01601f191682016001600160401b038111838210176200040057604052565b60005b838110620005345750506000910152565b818101518382015260200162000523565b81601f82011215620004f55780516001600160401b038111620004005762000577601f8201601f1916602001620004fa565b9281845260208284010111620004f55762000599916020808501910162000520565b90565b51906001600160a01b0382168203620004f557565b90602091620005cc8151809281855285808601910162000520565b601f01601f1916010190565b6001600160a01b03169081156200065157600254908082018092116200063b5760207fddf252ad1be2c89b69c2b068fc378daa952ba7f163c4a11628f55a4df523b3ef9160009360025584845283825260408420818154019055604051908152a3565b634e487b7160e01b600052601160045260246000fd5b60405163ec442f0560e01b815260006004820152602490fdfe6080604081815260048036101561001557600080fd5b600092833560e01c90816302d05d3f1461071d5750806306fdde0314610642578063095ea7b31461059957806318160ddd1461057a57806323b872dd14610487578063313ce5671461046b57806342966c68146103ad57806370a0823114610376578063715018a6146103165780638da5cb5b146102ed57806395d89b41146101cd578063a9059cbb1461019c578063dd62ed3e1461014f5763f2fde38b146100bd57600080fd5b3461014b57602036600319011261014b576100d661078b565b906100df6107bc565b6001600160a01b03918216928315610135575050600554826bffffffffffffffffffffffff60a01b821617600555167f8be0079c531659141344cd1fd0a4f28419497f9722a3daafe3b4186f6b6457e08380a380f35b51631e4fbdf760e01b8152908101849052602490fd5b8280fd5b5050346101985780600319360112610198578060209261016d61078b565b6101756107a6565b6001600160a01b0391821683526001865283832091168252845220549051908152f35b5080fd5b5050346101985780600319360112610198576020906101c66101bc61078b565b60243590336107e8565b5160018152f35b50919034610198578160031936011261019857805190828454600181811c908083169283156102e3575b60209384841081146102d0578388529081156102b4575060011461025f575b505050829003601f01601f191682019267ffffffffffffffff84118385101761024c5750829182610248925282610742565b0390f35b634e487b7160e01b815260418552602490fd5b8787529192508591837f8a35acfbc15ff81a39ae7d344fd709f28e8600b4aa8c65c6b64bfe7fe36bd19b5b8385106102a05750505050830101388080610216565b80548886018301529301928490820161028a565b60ff1916878501525050151560051b8401019050388080610216565b634e487b7160e01b895260228a52602489fd5b91607f16916101f7565b50503461019857816003193601126101985760055490516001600160a01b039091168152602090f35b833461037357806003193601126103735761032f6107bc565b600580546001600160a01b0319811690915581906001600160a01b03167f8be0079c531659141344cd1fd0a4f28419497f9722a3daafe3b4186f6b6457e08280a380f35b80fd5b5050346101985760203660031901126101985760209181906001600160a01b0361039e61078b565b16815280845220549051908152f35b50919034610198576020366003190112610198578235906103cc6107bc565b33156104555733835282602052808320549382851061042a57508183943385528460205203818420558160025403600255519081527fddf252ad1be2c89b69c2b068fc378daa952ba7f163c4a11628f55a4df523b3ef60203392a380f35b905163391434e360e21b81523391810191825260208201859052604082018390529081906060010390fd5b51634b637e8f60e11b8152808401839052602490fd5b5050346101985781600319360112610198576020905160128152f35b508234610373576060366003190112610373576104a261078b565b6104aa6107a6565b916044359360018060a01b0383168083526001602052868320338452602052868320549160001983106104e6575b6020886101c68989896107e8565b86831061054e578115610537573315610520575082526001602090815286832033845281529186902090859003905582906101c6876104d8565b8751634a1406b160e11b8152908101849052602490fd5b875163e602df0560e01b8152908101849052602490fd5b8751637dc7a0d960e11b8152339181019182526020820193909352604081018790528291506060010390fd5b5050346101985781600319360112610198576020906002549051908152f35b503461014b578160031936011261014b576105b261078b565b60243590331561062b576001600160a01b031691821561061457508083602095338152600187528181208582528752205582519081527f8c5be1e5ebec7d5bd14f71427d1e84f3dd0314c0f7b2291e5b200ac8c7c3b925843392a35160018152f35b8351634a1406b160e11b8152908101859052602490fd5b835163e602df0560e01b8152808401869052602490fd5b5091903461019857816003193601126101985780519082600354600181811c90808316928315610713575b60209384841081146102d0578388529081156102b457506001146106bd57505050829003601f01601f191682019267ffffffffffffffff84118385101761024c5750829182610248925282610742565b600387529192508591837fc2575a0e9e593c00f959f8c92f12db2869c3395a3b0502d05e2516446f71f85b5b8385106106ff5750505050830101388080610216565b8054888601830152930192849082016106e9565b91607f169161066d565b8490346101985781600319360112610198576006546001600160a01b03168152602090f35b6020808252825181830181905290939260005b82811061077757505060409293506000838284010152601f8019910116010190565b818101860151848201604001528501610755565b600435906001600160a01b03821682036107a157565b600080fd5b602435906001600160a01b03821682036107a157565b6005546001600160a01b031633036107d057565b60405163118cdaa760e01b8152336004820152602490fd5b916001600160a01b038084169283156108ad57169283156108945760009083825281602052604082205490838210610862575091604082827fddf252ad1be2c89b69c2b068fc378daa952ba7f163c4a11628f55a4df523b3ef958760209652828652038282205586815220818154019055604051908152a3565b60405163391434e360e21b81526001600160a01b03919091166004820152602481019190915260448101839052606490fd5b60405163ec442f0560e01b815260006004820152602490fd5b604051634b637e8f60e11b815260006004820152602490fdfea264697066735822122048e2ce44663be537347d4dcb569f25743b804518ab05c5180c835c2e512f4cc864736f6c63430008140033a2646970667358221220222877a0c9c3391d69b8a3059dcc73a6e5dce17d7a001eff7287ff0b8cb4df1c64736f6c63430008140033",
  "linkReferences": {},
  "deployedLinkReferences": {}
}