{
  "_format": "hh-sol-artifact-1",
  "contractName": "LiquidityManager",
  "sourceName": "contracts/LiquidityManager.sol",
  "abi": [
    {
      "inputs": [
        {
          "internalType": "address",
          "name": "_router",
          "type": "address"
        },
        {
          "internalType": "address",
          "name": "_owner",
          "type": "address"
        }
      ],
      "stateMutability": "nonpayable",
      "type": "constructor"
    },
    {
      "inputs": [
        {
          "internalType": "address",
          "name": "owner",
          "type": "address"
        }
      ],
      "name": "OwnableInvalidOwner",
      "type": "error"
    },
    {
      "inputs": [
        {
          "internalType": "address",
          "name": "account",
          "type": "address"
        }
      ],
      "name": "OwnableUnauthorizedAccount",
      "type": "error"
    },
    {
      "anonymous": false,
      "inputs": [
        {
          "indexed": true,
          "internalType": "address",
          "name": "caller",
          "type": "address"
        },
        {
          "indexed": false,
          "internalType": "bool",
          "name": "authorized",
          "type": "bool"
        }
      ],
      "name": "CallerAuthorized",
      "type": "event"
    },
    {
      "anonymous": false,
      "inputs": [
        {
          "indexed": true,
          "internalType": "address",
          "name": "token",
          "type": "address"
        },
        {
          "indexed": false,
          "internalType": "uint256",
          "name": "tokenAmount",
          "type": "uint256"
        },
        {
          "indexed": false,
          "internalType": "uint256",
          "name": "ethAmount",
          "type": "uint256"
        },
        {
          "indexed": false,
          "internalType": "address",
          "name": "pair",
          "type": "address"
        }
      ],
      "name": "LiquidityAdded",
      "type": "event"
    },
    {
      "anonymous": false,
      "inputs": [
        {
          "indexed": true,
          "internalType": "address",
          "name": "previousOwner",
          "type": "address"
        },
        {
          "indexed": true,
          "internalType": "address",
          "name": "newOwner",
          "type": "address"
        }
      ],
      "name": "OwnershipTransferred",
      "type": "event"
    },
    {
      "inputs": [
        {
          "internalType": "address",
          "name": "token",
          "type": "address"
        },
        {
          "internalType": "uint256",
          "name": "tokenAmount",
          "type": "uint256"
        },
        {
          "internalType": "address",
          "name": "lpReceiver",
          "type": "address"
        }
      ],
      "name": "addLiquidity",
      "outputs": [
        {
          "internalType": "uint256",
          "name": "liquidity",
          "type": "uint256"
        }
      ],
      "stateMutability": "payable",
      "type": "function"
    },
    {
      "inputs": [
        {
          "internalType": "address",
          "name": "",
          "type": "address"
        }
      ],
      "name": "authorizedCallers",
      "outputs": [
        {
          "internalType": "bool",
          "name": "",
          "type": "bool"
        }
      ],
      "stateMutability": "view",
      "type": "function"
    },
    {
      "inputs": [],
      "name": "owner",
      "outputs": [
        {
          "internalType": "address",
          "name": "",
          "type": "address"
        }
      ],
      "stateMutability": "view",
      "type": "function"
    },
    {
      "inputs": [],
      "name": "pancakeRouter",
      "outputs": [
        {
          "internalType": "contract IPancakeRouter",
          "name": "",
          "type": "address"
        }
      ],
      "stateMutability": "view",
      "type": "function"
    },
    {
      "inputs": [],
      "name": "renounceOwnership",
      "outputs": [],
      "stateMutability": "nonpayable",
      "type": "function"
    },
    {
      "inputs": [
        {
          "internalType": "address",
          "name": "caller",
          "type": "address"
        },
        {
          "internalType": "bool",
          "name": "authorized",
          "type": "bool"
        }
      ],
      "name": "setAuthorizedCaller",
      "outputs": [],
      "stateMutability": "nonpayable",
      "type": "function"
    },
    {
      "inputs": [
        {
          "internalType": "address",
          "name": "newOwner",
          "type": "address"
        }
      ],
      "name": "transferOwnership",
      "outputs": [],
      "stateMutability": "nonpayable",
      "type": "function"
    },
    {
      "stateMutability": "payable",
      "type": "receive"
    }
  ],
  "bytecode": "0x60803461011257601f610a3838819003918201601f19168301916001600160401b038311848410176101175780849260409485528339810103126101125760206100488261012d565b916001600160a01b0391829161005e910161012d565b169081156100f9576000549260018060a01b03199280848616176000558260405195167f8be0079c531659141344cd1fd0a4f28419497f9722a3daafe3b4186f6b6457e0600080a3169182156100c6575060015416176001556040516108f690816101428239f35b62461bcd60e51b815260206004820152600e60248201526d24b73b30b634b2103937baba32b960911b6044820152606490fd5b604051631e4fbdf760e01b815260006004820152602490fd5b600080fd5b634e487b7160e01b600052604160045260246000fd5b51906001600160a01b03821682036101125756fe60806040818152600480361015610021575b505050361561001f57600080fd5b005b600092833560e01c9081631b8793781461027257508063454bbd29146101f0578063536fff6c146101b2578063715018a6146101555780638da5cb5b1461012d578063c21ebd07146101005763f2fde38b0361001157346100fc5760203660031901126100fc5761009061080a565b90610099610825565b6001600160a01b039182169283156100e657505082546001600160a01b0319811683178455167f8be0079c531659141344cd1fd0a4f28419497f9722a3daafe3b4186f6b6457e08380a380f35b51631e4fbdf760e01b8152908101849052602490fd5b8280fd5b50503461012957816003193601126101295760015490516001600160a01b039091168152602090f35b5080fd5b505034610129578160031936011261012957905490516001600160a01b039091168152602090f35b83346101af57806003193601126101af5761016e610825565b80546001600160a01b03198116825581906001600160a01b03167f8be0079c531659141344cd1fd0a4f28419497f9722a3daafe3b4186f6b6457e08280a380f35b80fd5b5050346101295760203660031901126101295760209160ff9082906001600160a01b036101dd61080a565b1681526002855220541690519015158152f35b50503461012957806003193601126101295761020a61080a565b6024359081151580920361026e577f100c9fd652c7b273c9266f92f22ac2352eb8d7232013ac0439e9066a9227f36991602091610245610825565b6001600160a01b031680865260028352848620805460ff191660ff84161790559351908152a280f35b8380fd5b9290506060806003193601126108065761028a61080a565b6001600160a01b0360448035828116966024959486359493919289900361069457338b5260209960028b5260ff898d20541680156107fa575b156107ca5750341561079b57841561076557881561072e5787516323b872dd60e01b81523384820152308189015282810186905290841696908a816064818f8c5af190811561062f578c91610711575b50156106d857600154885163095ea7b360e01b81529085166001600160a01b0316848201908152602081018790528b9082908e908290819060400103918c5af1801561062f576106bb575b50836001541661025842018042116106a95760c48989938f938d519e8f95869463f305d71960e01b86528b8601528c89860152808a8601526064850152608484015260a483015234905af198891561069f578b9961066a575b5087516370a0823160e01b815230848201528a8183818b5afa90811561062f578c91610639575b508a816105c8575b50508a4780610534575b5050600154885163c45a015560e01b8152919085168b838681845afa928d841561050a57918d918795949394610515575b508b516315ab88c960e31b815296879182905afa948d861561050a57928a949288928f9795986104eb575b50828d51988997889663e6a4390560e01b88528701521690840152165afa9081156104e1577f3c69701a61c79a92ef9692903aaa0068bce8771361ecb09547391e4fb4df85379596979899916104b4575b50865192835234898401521685820152a251908152f35b6104d49150893d8b116104da575b6104cc8183610851565b8101906108a1565b3861049d565b503d6104c2565b86513d8b823e3d90fd5b610503919850873d89116104da576104cc8183610851565b963861044c565b8b51903d90823e3d90fd5b61052d919450823d84116104da576104cc8183610851565b9238610421565b81808092335af13d156105c3573d67ffffffffffffffff81116105b157895190610567601f8201601f19168e0183610851565b81528c8c3d92013e5b1561057c578a386103f0565b875162461bcd60e51b81529283018a905260119083015270109390881c99599d5b990819985a5b1959607a1b90820152606490fd5b634e487b7160e01b8d5260418552828dfd5b610570565b895163a9059cbb60e01b8152338682019081526020810193909352918290819003604001818f8c5af1801561062f57610602575b8a6103e6565b610621908b3d8d11610628575b6106198183610851565b810190610889565b50386105fc565b503d61060f565b89513d8e823e3d90fd5b90508a81813d8311610663575b6106508183610851565b8101031261065f5751386103de565b8b80fd5b503d610646565b9098508581813d8311610698575b6106828183610851565b810103126106945787015197386103b7565b8a80fd5b503d610678565b88513d8d823e3d90fd5b634e487b7160e01b8d5260118552828dfd5b6106d1908b3d8d11610628576106198183610851565b503861035e565b875162461bcd60e51b81529283018a905260159083015274151bdad95b881d1c985b9cd9995c8819985a5b1959605a1b90820152606490fd5b61072891508b3d8d11610628576106198183610851565b38610313565b875162461bcd60e51b81528084018b90526013818901527224b73b30b634b2102628103932b1b2b4bb32b960691b81840152606490fd5b875162461bcd60e51b81528084018b905260128189015271139bc81d1bdad95b9cc81c1c9bdd9a59195960721b81840152606490fd5b875162461bcd60e51b81528084018b9052600b818901526a139bc8109390881cd95b9d60aa1b81840152606490fd5b62461bcd60e51b81528381018b9052600e888201526d139bdd08185d5d1a1bdc9a5e995960921b83820152606490fd5b50848c541633146102c3565b8480fd5b600435906001600160a01b038216820361082057565b600080fd5b6000546001600160a01b0316330361083957565b60405163118cdaa760e01b8152336004820152602490fd5b90601f8019910116810190811067ffffffffffffffff82111761087357604052565b634e487b7160e01b600052604160045260246000fd5b90816020910312610820575180151581036108205790565b9081602091031261082057516001600160a01b0381168103610820579056fea2646970667358221220713c8fc86cb1d9f0b6c820b4841d5bb620d3dc2b228c4a0b06f3b05913004fff64736f6c63430008140033",
  "linkReferences": {},
  "deployedLinkReferences": {}
}