{
  "_format": "hh-sol-artifact-1",
  "contractName": "TokenFactory",
  "sourceName": "contracts/TokenFactory.sol",
  "abi": [
    {
      "inputs": [
        {
          "internalType": "address",
          "name": "_bondingCurve",
          "type": "address"
        },
        {
          "internalType": "address",
          "name": "_feeWallet",
          "type": "address"
        },
        {
          "internalType": "address",
          "name": "_owner",
          "type": "address"
        }
      ],
      "stateMutability": "nonpayable",
      "type": "constructor"
    },
    {
      "inputs": [
        {
          "internalType": "address",
          "name": "owner",
          "type": "address"
        }
      ],
      "name": "OwnableInvalidOwner",
      "type": "error"
    },
    {
      "inputs": [
        {
          "internalType": "address",
          "name": "account",
          "type": "address"
        }
      ],
      "name": "OwnableUnauthorizedAccount",
      "type": "error"
    },
    {
      "anonymous": false,
      "inputs": [
        {
          "indexed": true,
          "internalType": "address",
          "name": "newBondingCurve",
          "type": "address"
        }
      ],
      "name": "BondingCurveUpdated",
      "type": "event"
    },
    {
      "anonymous": false,
      "inputs": [
        {
          "indexed": true,
          "internalType": "address",
          "name": "newFeeWallet",
          "type": "address"
        }
      ],
      "name": "FeeWalletUpdated",
      "type": "event"
    },
    {
      "anonymous": false,
      "inputs": [
        {
          "indexed": false,
          "internalType": "uint256",
          "name": "deploymentFee",
          "type": "uint256"
        },
        {
          "indexed": false,
          "internalType": "uint256",
          "name": "minInitialBuy",
          "type": "uint256"
        }
      ],
      "name": "FeesUpdated",
      "type": "event"
    },
    {
      "anonymous": false,
      "inputs": [
        {
          "indexed": true,
          "internalType": "address",
          "name": "previousOwner",
          "type": "address"
        },
        {
          "indexed": true,
          "internalType": "address",
          "name": "newOwner",
          "type": "address"
        }
      ],
      "name": "OwnershipTransferred",
      "type": "event"
    },
    {
      "anonymous": false,
      "inputs": [
        {
          "indexed": true,
          "internalType": "address",
          "name": "tokenAddress",
          "type": "address"
        },
        {
          "indexed": false,
          "internalType": "string",
          "name": "name",
          "type": "string"
        },
        {
          "indexed": false,
          "internalType": "string",
          "name": "symbol",
          "type": "string"
        },
        {
          "indexed": false,
          "internalType": "uint256",
          "name": "supply",
          "type": "uint256"
        },
        {
          "indexed": true,
          "internalType": "address",
          "name": "creator",
          "type": "address"
        },
        {
          "indexed": false,
          "internalType": "uint256",
          "name": "deploymentFee",
          "type": "uint256"
        },
        {
          "indexed": false,
          "internalType": "uint256",
          "name": "initialBuyBnb",
          "type": "uint256"
        }
      ],
      "name": "TokenCreated",
      "type": "event"
    },
    {
      "inputs": [],
      "name": "DEPLOYMENT_FEE",
      "outputs": [
        {
          "internalType": "uint256",
          "name": "",
          "type": "uint256"
        }
      ],
      "stateMutability": "view",
      "type": "function"
    },
    {
      "inputs": [],
      "name": "MIN_INITIAL_BUY",
      "outputs": [
        {
          "internalType": "uint256",
          "name": "",
          "type": "uint256"
        }
      ],
      "stateMutability": "view",
      "type": "function"
    },
    {
      "inputs": [
        {
          "internalType": "uint256",
          "name": "",
          "type": "uint256"
        }
      ],
      "name": "allTokens",
      "outputs": [
        {
          "internalType": "address",
          "name": "",
          "type": "address"
        }
      ],
      "stateMutability": "view",
      "type": "function"
    },
    {
      "inputs": [],
      "name": "bondingCurve",
      "outputs": [
        {
          "internalType": "address",
          "name": "",
          "type": "address"
        }
      ],
      "stateMutability": "view",
      "type": "function"
    },
    {
      "inputs": [
        {
          "internalType": "string",
          "name": "name",
          "type": "string"
        },
        {
          "internalType": "string",
          "name": "symbol",
          "type": "string"
        }
      ],
      "name": "createToken",
      "outputs": [
        {
          "internalType": "address",
          "name": "tokenAddress",
          "type": "address"
        }
      ],
      "stateMutability": "payable",
      "type": "function"
    },
    {
      "inputs": [
        {
          "internalType": "address",
          "name": "",
          "type": "address"
        }
      ],
      "name": "creatorOf",
      "outputs": [
        {
          "internalType": "address",
          "name": "",
          "type": "address"
        }
      ],
      "stateMutability": "view",
      "type": "function"
    },
    {
      "inputs": [],
      "name": "feeWallet",
      "outputs": [
        {
          "internalType": "address",
          "name": "",
          "type": "address"
        }
      ],
      "stateMutability": "view",
      "type": "function"
    },
    {
      "inputs": [],
      "name": "getAllTokens",
      "outputs": [
        {
          "internalType": "address[]",
          "name": "",
          "type": "address[]"
        }
      ],
      "stateMutability": "view",
      "type": "function"
    },
    {
      "inputs": [
        {
          "internalType": "address",
          "name": "creator",
          "type": "address"
        }
      ],
      "name": "getTokensByCreator",
      "outputs": [
        {
          "internalType": "address[]",
          "name": "",
          "type": "address[]"
        }
      ],
      "stateMutability": "view",
      "type": "function"
    },
    {
      "inputs": [],
      "name": "owner",
      "outputs": [
        {
          "internalType": "address",
          "name": "",
          "type": "address"
        }
      ],
      "stateMutability": "view",
      "type": "function"
    },
    {
      "inputs": [],
      "name": "renounceOwnership",
      "outputs": [],
      "stateMutability": "nonpayable",
      "type": "function"
    },
    {
      "inputs": [
        {
          "internalType": "address",
          "name": "_bondingCurve",
          "type": "address"
        }
      ],
      "name": "setBondingCurve",
      "outputs": [],
      "stateMutability": "nonpayable",
      "type": "function"
    },
    {
      "inputs": [
        {
          "internalType": "address",
          "name": "_feeWallet",
          "type": "address"
        }
      ],
      "name": "setFeeWallet",
      "outputs": [],
      "stateMutability": "nonpayable",
      "type": "function"
    },
    {
      "inputs": [
        {
          "internalType": "uint256",
          "name": "_deploymentFee",
          "type": "uint256"
        },
        {
          "internalType": "uint256",
          "name": "_minInitialBuy",
          "type": "uint256"
        }
      ],
      "name": "setFees",
      "outputs": [],
      "stateMutability": "nonpayable",
      "type": "function"
    },
    {
      "inputs": [
        {
          "internalType": "address",
          "name": "",
          "type": "address"
        },
        {
          "internalType": "uint256",
          "name": "",
          "type": "uint256"
        }
      ],
      "name": "tokensByCreator",
      "outputs": [
        {
          "internalType": "address",
          "name": "",
          "type": "address"
        }
      ],
      "stateMutability": "view",
      "type": "function"
    },
    {
      "inputs": [],
      "name": "totalTokens",
      "outputs": [
        {
          "internalType": "uint256",
          "name": "",
          "type": "uint256"
        }
      ],
      "stateMutability": "view",
      "type": "function"
    },
    {
      "inputs": [
        {
          "internalType": "address",
          "name": "newOwner",
          "type": "address"
        }
      ],
      "name": "transferOwnership",
      "outputs": [],
      "stateMutability": "nonpayable",
      "type": "function"
    }
  ],
  "bytecode": "0x60803461018f57601f611d2d38819003918201601f191683019291906001600160401b0384118385101761019457816060928492604096875283398101031261018f5761004b816101aa565b9082610059602083016101aa565b916001600160a01b0391829161006f91016101aa565b1691821561017757816000549460018060a01b031994808688161760005582885197167f8be0079c531659141344cd1fd0a4f28419497f9722a3daafe3b4186f6b6457e0600080a3660aa87bee5380006001556611c37937e08000600255169384156101355750169182156100fc57816003541617600355600454161760045551611b6e90816101bf8239f35b835162461bcd60e51b8152602060048201526012602482015271125b9d985b1a5908199959481dd85b1b195d60721b6044820152606490fd5b62461bcd60e51b815260206004820152601560248201527f496e76616c696420626f6e64696e6720637572766500000000000000000000006044820152606490fd5b8451631e4fbdf760e01b815260006004820152602490fd5b600080fd5b634e487b7160e01b600052604160045260246000fd5b51906001600160a01b038216820361018f5756fe604060808152600490813610156200001657600080fd5b600091823560e01c80630b78f9c01462000aad5780632a5c792a1462000a235780632f2f2d56146200054957806343ff1fb814620004d257806359475e7714620004b1578063634282af1462000454578063715018a614620003f65780637e1c0c0914620003d55780638da5cb5b14620003ab57806390d49b9d1462000334578063a8f322511462000313578063d5c712751462000282578063d80d03a2146200021f578063dea5c2e014620001e0578063eff1d50e14620001b1578063f25f4b5614620001885763f2fde38b14620000ee57600080fd5b346200018457602036600319011262000184576200010b62000b83565b906200011662000bc9565b6001600160a01b039182169283156200016e575050600054826bffffffffffffffffffffffff60a01b821617600055167f8be0079c531659141344cd1fd0a4f28419497f9722a3daafe3b4186f6b6457e0600080a380f35b51631e4fbdf760e01b8152908101849052602490fd5b8280fd5b503462000184578260031936011262000184575490516001600160a01b03909116815260209150f35b505034620001dc5781600319360112620001dc5760035490516001600160a01b039091168152602090f35b5080fd5b505034620001dc576020366003190112620001dc576020916001600160a01b03908290826200020e62000b83565b168152600785522054169051908152f35b505034620001dc5780600319360112620001dc576200023d62000b83565b6001600160a01b0390811683526006602052818320805460243594908510156200027f5750602093620002709162000b9a565b92905490519260031b1c168152f35b80fd5b505034620001dc576020908160031936011262000184576001600160a01b039283620002ad62000b83565b16815260068352818120938251908194808754938481520196845280842093915b838310620002f957620002f58787620002ea828c038362000c81565b519182918262000b07565b0390f35b8454811688529681019660019485019490920191620002ce565b505034620001dc5781600319360112620001dc576020906001549051908152f35b838234620001dc576020366003190112620001dc576200035362000b83565b6200035d62000bc9565b6001600160a01b0316906200037482151562000bf6565b80546001600160a01b031916821790557f29acee77dafcfa0143d74a7ea236018f3a6e1fa71e27fc59bbfbc6b8ca8edccd8280a280f35b505034620001dc5781600319360112620001dc57905490516001600160a01b039091168152602090f35b505034620001dc5781600319360112620001dc576020906005549051908152f35b83346200027f57806003193601126200027f576200041362000bc9565b600080546001600160a01b0319811682556001600160a01b03167f8be0079c531659141344cd1fd0a4f28419497f9722a3daafe3b4186f6b6457e08280a380f35b503462000184576020366003190112620001845735600554811015620001845760056000527f036b6384b5eca791c62761152d0c79bb0604c104a5fb6f4eb0703f3154bb3db0015490516001600160a01b03909116815260209150f35b505034620001dc5781600319360112620001dc576020906002549051908152f35b83346200027f5760203660031901126200027f57620004f062000b83565b620004fa62000bc9565b6001600160a01b03166200051081151562000bf6565b600380546001600160a01b031916821790557fc4fda5d836a9aaafabd3088c5f5dcabfe179c3b392b09dbac0e8727667f3c7768280a280f35b50829082600319360112620001dc5767ffffffffffffffff92813584811162000829576200057b903690840162000b4d565b93906024918235878111620001dc5762000599903690870162000b4d565b909160018060a01b03968781541695863314968760001462000a195783975b15620009f657835b3410620009a3578a15620009715784156200093d5783908880620008a3575b50505088600354169a885190610e9480830191838310908311176200088757908c9d6080620006378d9e9f8c6200062791889762000ca5893960a0875260a087019162000c35565b84810360208601528a8c62000c35565b92633b9aca00809e8201523360608201520152039084f0801562000899578a16996005546801000000000000000090818110156200088757600181018060055581101562000875577f036b6384b5eca791c62761152d0c79bb0604c104a5fb6f4eb0703f3154bb3db00180546001600160a01b03199081168e1790915533865260066020528b862080549192821015620008635781620006de918f93600101815562000b9a565b84829392549160031b92831b921b19161790558b855260076020528a85209033908254161790558060035416803b156200085f5784809160448e8e51948593849263962c165f60e01b84528a84015233898401525af1801562000855576200083f575b50873403973489116200082d573403620007ca575b50505050927fa1fdd9d625a3d9910d1d8f8431da95fb346446dc9687e2f12468dd20cc4691a392620007af602099938996620007a1600154948b519760a0895260a089019162000c35565b918683038d88015262000c35565b9587840152606083015260808201528033940390a351908152f35b6003541691823b15620008295783918b91898c51958694859363f088d54760e01b85528401525af180156200081f5762000807575b808062000756565b62000813829162000c56565b6200027f5780620007ff565b88513d84823e3d90fd5b8380fd5b634e487b7160e01b8552601184528285fd5b6200084d9094919462000c56565b928c62000741565b8b513d87823e3d90fd5b8480fd5b634e487b7160e01b8752604186528487fd5b634e487b7160e01b8652603285528386fd5b634e487b7160e01b8652604185528386fd5b89513d85823e3d90fd5b8280929181925af13d1562000937573d8c81116200092557895190620008d4601f8201601f19166020018362000c81565b81528460203d92013e5b15620008ed57828c88620005df565b90601360649260208a519362461bcd60e51b855284015282015272109390881d1c985b9cd9995c8819985a5b1959606a1b6044820152fd5b634e487b7160e01b8552604184528285fd5b620008de565b885162461bcd60e51b8152602081850152600f818401526e14de5b589bdb081c995c5d5a5c9959608a1b6044820152606490fd5b885162461bcd60e51b8152602081850152600d818401526c13985b59481c995c5d5a5c9959609a1b6044820152606490fd5b885162461bcd60e51b81526020818501526028818401527f496e73756666696369656e7420424e423a206e65656420666565202b20696e696044820152677469616c2062757960c01b6064820152608490fd5b600154600254810180911115620005c057634e487b7160e01b8552601184528285fd5b60015497620005b8565b8284346200027f57806003193601126200027f578151918291600554808552602080950194600583527f036b6384b5eca791c62761152d0c79bb0604c104a5fb6f4eb0703f3154bb3db092905b82821062000a8c57620002f58686620002ea828b038362000c81565b83546001600160a01b03168752958601956001938401939091019062000a70565b50903462000184578060031936011262000184577f5c6323bf1c2d7aaea2c091a4751c1c87af7f2864650c336507a77d0557af37a1913560243562000af162000bc9565b816001558060025582519182526020820152a180f35b6020908160408183019282815285518094520193019160005b82811062000b2f575050505090565b83516001600160a01b03168552938101939281019260010162000b20565b9181601f8401121562000b7e5782359167ffffffffffffffff831162000b7e576020838186019501011162000b7e57565b600080fd5b600435906001600160a01b038216820362000b7e57565b805482101562000bb35760005260206000200190600090565b634e487b7160e01b600052603260045260246000fd5b6000546001600160a01b0316330362000bde57565b60405163118cdaa760e01b8152336004820152602490fd5b1562000bfe57565b60405162461bcd60e51b815260206004820152600f60248201526e496e76616c6964206164647265737360881b6044820152606490fd5b908060209392818452848401376000828201840152601f01601f1916010190565b67ffffffffffffffff811162000c6b57604052565b634e487b7160e01b600052604160045260246000fd5b90601f8019910116810190811067ffffffffffffffff82111762000c6b5760405256fe60406080815234620004b45762000e94803803806200001e81620004b9565b92833981019060a081830312620004b45780516001600160401b039290838111620004b457816200005191840162000504565b906020908184015190858211620004b4576200006f91850162000504565b90858401519162000091608062000089606088016200055b565b96016200055b565b958451818111620003bf576003918254926001928385811c95168015620004a9575b878610146200049357601f9485811162000448575b508087868211600114620003e157600091620003d5575b5060001982841b1c191690841b1781555b8451918211620003bf5760049384548481811c91168015620003b4575b888210146200039f5781811162000354575b5086908311600114620002eb5782938391600094620002df575b501b92600019911b1c19161781555b6001600160a01b03968716968715620002c857600580546001600160a01b03198082168b17909255909790899083167f8be0079c531659141344cd1fd0a4f28419497f9722a3daafe3b4186f6b6457e0600080a316958615620002935786906006541617600655670de0b6b3a7640000908185029185830414851517156200027e57600254908282018092116200027e5750926200025a94928860007fddf252ad1be2c89b69c2b068fc378daa952ba7f163c4a11628f55a4df523b3ef8462000268968e7fbeb070748168c711e9d9d570ee9ce0b65d49cc7ddcc6cb9c6ce3b2570ae1eb709c9a60025585855284835280852082815401905551908152a3895195869560608752606087019062000570565b918583039086015262000570565b90878301520390a3516108fc9081620005988239f35b601190634e487b7160e01b6000525260246000fd5b885162461bcd60e51b8152808301859052600f60248201526e24b73b30b634b21031b932b0ba37b960891b6044820152606490fd5b8851631e4fbdf760e01b8152600081840152602490fd5b87015193503862000139565b90601f198316918560005283886000209360005b8a888383106200033c575050501062000321575b505050811b01815562000148565b8601519060f884600019921b161c1916905538808062000313565b858c01518855909601959384019387935001620002ff565b85600052876000208280860160051c8201928a871062000395575b0160051c019085905b828110620003885750506200011f565b6000815501859062000378565b925081926200036f565b602286634e487b7160e01b6000525260246000fd5b90607f16906200010d565b634e487b7160e01b600052604160045260246000fd5b905089015138620000df565b60008481528981208794509190601f198416908b8e5b8383106200043057505050831162000417575b5050811b018155620000f0565b8b015160001983861b60f8161c1916905538806200040a565b840151855589969094019392830192018b8e620003f7565b82600052876000208680840160051c8201928a851062000489575b0160051c019085905b8281106200047c575050620000c8565b600081550185906200046c565b9250819262000463565b634e487b7160e01b600052602260045260246000fd5b94607f1694620000b3565b600080fd5b6040519190601f01601f191682016001600160401b03811183821017620003bf57604052565b60005b838110620004f35750506000910152565b8181015183820152602001620004e2565b81601f82011215620004b45780516001600160401b038111620003bf5762000536601f8201601f1916602001620004b9565b9281845260208284010111620004b457620005589160208085019101620004df565b90565b51906001600160a01b0382168203620004b457565b906020916200058b81518092818552858086019101620004df565b601f01601f191601019056fe6080604081815260048036101561001557600080fd5b600092833560e01c90816302d05d3f1461071d5750806306fdde0314610642578063095ea7b31461059957806318160ddd1461057a57806323b872dd14610487578063313ce5671461046b57806342966c68146103ad57806370a0823114610376578063715018a6146103165780638da5cb5b146102ed57806395d89b41146101cd578063a9059cbb1461019c578063dd62ed3e1461014f5763f2fde38b146100bd57600080fd5b3461014b57602036600319011261014b576100d661078b565b906100df6107bc565b6001600160a01b03918216928315610135575050600554826bffffffffffffffffffffffff60a01b821617600555167f8be0079c531659141344cd1fd0a4f28419497f9722a3daafe3b4186f6b6457e08380a380f35b51631e4fbdf760e01b8152908101849052602490fd5b8280fd5b5050346101985780600319360112610198578060209261016d61078b565b6101756107a6565b6001600160a01b0391821683526001865283832091168252845220549051908152f35b5080fd5b5050346101985780600319360112610198576020906101c66101bc61078b565b60243590336107e8565b5160018152f35b50919034610198578160031936011261019857805190828454600181811c908083169283156102e3575b60209384841081146102d0578388529081156102b4575060011461025f575b505050829003601f01601f191682019267ffffffffffffffff84118385101761024c5750829182610248925282610742565b0390f35b634e487b7160e01b815260418552602490fd5b8787529192508591837f8a35acfbc15ff81a39ae7d344fd709f28e8600b4aa8c65c6b64bfe7fe36bd19b5b8385106102a05750505050830101388080610216565b80548886018301529301928490820161028a565b60ff1916878501525050151560051b8401019050388080610216565b634e487b7160e01b895260228a52602489fd5b91607f16916101f7565b50503461019857816003193601126101985760055490516001600160a01b039091168152602090f35b833461037357806003193601126103735761032f6107bc565b600580546001600160a01b0319811690915581906001600160a01b03167f8be0079c531659141344cd1fd0a4f28419497f9722a3daafe3b4186f6b6457e08280a380f35b80fd5b5050346101985760203660031901126101985760209181906001600160a01b0361039e61078b565b16815280845220549051908152f35b50919034610198576020366003190112610198578235906103cc6107bc565b33156104555733835282602052808320549382851061042a57508183943385528460205203818420558160025403600255519081527fddf252ad1be2c89b69c2b068fc378daa952ba7f163c4a11628f55a4df523b3ef60203392a380f35b905163391434e360e21b81523391810191825260208201859052604082018390529081906060010390fd5b51634b637e8f60e11b8152808401839052602490fd5b5050346101985781600319360112610198576020905160128152f35b508234610373576060366003190112610373576104a261078b565b6104aa6107a6565b916044359360018060a01b0383168083526001602052868320338452602052868320549160001983106104e6575b6020886101c68989896107e8565b86831061054e578115610537573315610520575082526001602090815286832033845281529186902090859003905582906101c6876104d8565b8751634a1406b160e11b8152908101849052602490fd5b875163e602df0560e01b8152908101849052602490fd5b8751637dc7a0d960e11b8152339181019182526020820193909352604081018790528291506060010390fd5b5050346101985781600319360112610198576020906002549051908152f35b503461014b578160031936011261014b576105b261078b565b60243590331561062b576001600160a01b031691821561061457508083602095338152600187528181208582528752205582519081527f8c5be1e5ebec7d5bd14f71427d1e84f3dd0314c0f7b2291e5b200ac8c7c3b925843392a35160018152f35b8351634a1406b160e11b8152908101859052602490fd5b835163e602df0560e01b8152808401869052602490fd5b5091903461019857816003193601126101985780519082600354600181811c90808316928315610713575b60209384841081146102d0578388529081156102b457506001146106bd57505050829003601f01601f191682019267ffffffffffffffff84118385101761024c5750829182610248925282610742565b600387529192508591837fc2575a0e9e593c00f959f8c92f12db2869c3395a3b0502d05e2516446f71f85b5b8385106106ff5750505050830101388080610216565b8054888601830152930192849082016106e9565b91607f169161066d565b8490346101985781600319360112610198576006546001600160a01b03168152602090f35b6020808252825181830181905290939260005b82811061077757505060409293506000838284010152601f8019910116010190565b818101860151848201604001528501610755565b600435906001600160a01b03821682036107a157565b600080fd5b602435906001600160a01b03821682036107a157565b6005546001600160a01b031633036107d057565b60405163118cdaa760e01b8152336004820152602490fd5b916001600160a01b038084169283156108ad57169283156108945760009083825281602052604082205490838210610862575091604082827fddf252ad1be2c89b69c2b068fc378daa952ba7f163c4a11628f55a4df523b3ef958760209652828652038282205586815220818154019055604051908152a3565b60405163391434e360e21b81526001600160a01b03919091166004820152602481019190915260448101839052606490fd5b60405163ec442f0560e01b815260006004820152602490fd5b604051634b637e8f60e11b815260006004820152602490fdfea2646970667358221220d1ed85bd74cfba065b7533677a81bfaf592bf66b13072c827c964af8c61856db64736f6c63430008140033a2646970667358221220a2d547033662f3744c6282b2bc6b1d71153fedf290994712d338f3f8bad5254864736f6c63430008140033",
  "linkReferences": {},
  "deployedLinkReferences": {}
}