{
  "_format": "hh-sol-artifact-1",
  "contractName": "TokenFactory",
  "sourceName": "contracts/TokenFactory.sol",
  "abi": [
    {
      "inputs": [
        {
          "internalType": "address",
          "name": "_bondingCurve",
          "type": "address"
        },
        {
          "internalType": "address",
          "name": "_feeWallet",
          "type": "address"
        },
        {
          "internalType": "address",
          "name": "_owner",
          "type": "address"
        }
      ],
      "stateMutability": "nonpayable",
      "type": "constructor"
    },
    {
      "inputs": [
        {
          "internalType": "address",
          "name": "owner",
          "type": "address"
        }
      ],
      "name": "OwnableInvalidOwner",
      "type": "error"
    },
    {
      "inputs": [
        {
          "internalType": "address",
          "name": "account",
          "type": "address"
        }
      ],
      "name": "OwnableUnauthorizedAccount",
      "type": "error"
    },
    {
      "anonymous": false,
      "inputs": [
        {
          "indexed": true,
          "internalType": "address",
          "name": "newBondingCurve",
          "type": "address"
        }
      ],
      "name": "BondingCurveUpdated",
      "type": "event"
    },
    {
      "anonymous": false,
      "inputs": [
        {
          "indexed": true,
          "internalType": "address",
          "name": "user",
          "type": "address"
        },
        {
          "indexed": false,
          "internalType": "uint256",
          "name": "amount",
          "type": "uint256"
        },
        {
          "indexed": false,
          "internalType": "string",
          "name": "reason",
          "type": "string"
        }
      ],
      "name": "FeeCollected",
      "type": "event"
    },
    {
      "anonymous": false,
      "inputs": [
        {
          "indexed": true,
          "internalType": "address",
          "name": "newFeeWallet",
          "type": "address"
        }
      ],
      "name": "FeeWalletUpdated",
      "type": "event"
    },
    {
      "anonymous": false,
      "inputs": [
        {
          "indexed": false,
          "internalType": "uint256",
          "name": "deploymentFee",
          "type": "uint256"
        },
        {
          "indexed": false,
          "internalType": "uint256",
          "name": "minInitialBuy",
          "type": "uint256"
        },
        {
          "indexed": false,
          "internalType": "uint256",
          "name": "upgradeFee",
          "type": "uint256"
        }
      ],
      "name": "FeesUpdated",
      "type": "event"
    },
    {
      "anonymous": false,
      "inputs": [
        {
          "indexed": true,
          "internalType": "address",
          "name": "previousOwner",
          "type": "address"
        },
        {
          "indexed": true,
          "internalType": "address",
          "name": "newOwner",
          "type": "address"
        }
      ],
      "name": "OwnershipTransferred",
      "type": "event"
    },
    {
      "anonymous": false,
      "inputs": [
        {
          "indexed": true,
          "internalType": "address",
          "name": "user",
          "type": "address"
        },
        {
          "indexed": false,
          "internalType": "bool",
          "name": "status",
          "type": "bool"
        }
      ],
      "name": "PermissionGranted",
      "type": "event"
    },
    {
      "anonymous": false,
      "inputs": [
        {
          "indexed": true,
          "internalType": "address",
          "name": "tokenAddress",
          "type": "address"
        },
        {
          "indexed": false,
          "internalType": "string",
          "name": "name",
          "type": "string"
        },
        {
          "indexed": false,
          "internalType": "string",
          "name": "symbol",
          "type": "string"
        },
        {
          "indexed": false,
          "internalType": "uint256",
          "name": "supply",
          "type": "uint256"
        },
        {
          "indexed": true,
          "internalType": "address",
          "name": "creator",
          "type": "address"
        },
        {
          "indexed": false,
          "internalType": "uint256",
          "name": "deploymentFee",
          "type": "uint256"
        },
        {
          "indexed": false,
          "internalType": "uint256",
          "name": "initialBuyBnb",
          "type": "uint256"
        }
      ],
      "name": "TokenCreated",
      "type": "event"
    },
    {
      "anonymous": false,
      "inputs": [
        {
          "indexed": true,
          "internalType": "address",
          "name": "tokenAddress",
          "type": "address"
        },
        {
          "indexed": true,
          "internalType": "address",
          "name": "creator",
          "type": "address"
        },
        {
          "indexed": false,
          "internalType": "uint256",
          "name": "feePaid",
          "type": "uint256"
        }
      ],
      "name": "TokenUpgraded",
      "type": "event"
    },
    {
      "inputs": [],
      "name": "DEPLOYMENT_FEE",
      "outputs": [
        {
          "internalType": "uint256",
          "name": "",
          "type": "uint256"
        }
      ],
      "stateMutability": "view",
      "type": "function"
    },
    {
      "inputs": [],
      "name": "MIN_INITIAL_BUY",
      "outputs": [
        {
          "internalType": "uint256",
          "name": "",
          "type": "uint256"
        }
      ],
      "stateMutability": "view",
      "type": "function"
    },
    {
      "inputs": [],
      "name": "UPGRADE_FEE",
      "outputs": [
        {
          "internalType": "uint256",
          "name": "",
          "type": "uint256"
        }
      ],
      "stateMutability": "view",
      "type": "function"
    },
    {
      "inputs": [
        {
          "internalType": "uint256",
          "name": "",
          "type": "uint256"
        }
      ],
      "name": "allTokens",
      "outputs": [
        {
          "internalType": "address",
          "name": "",
          "type": "address"
        }
      ],
      "stateMutability": "view",
      "type": "function"
    },
    {
      "inputs": [],
      "name": "bondingCurve",
      "outputs": [
        {
          "internalType": "address",
          "name": "",
          "type": "address"
        }
      ],
      "stateMutability": "view",
      "type": "function"
    },
    {
      "inputs": [
        {
          "internalType": "address",
          "name": "user",
          "type": "address"
        },
        {
          "internalType": "uint256",
          "name": "amount",
          "type": "uint256"
        },
        {
          "internalType": "string",
          "name": "reason",
          "type": "string"
        }
      ],
      "name": "collectFee",
      "outputs": [],
      "stateMutability": "nonpayable",
      "type": "function"
    },
    {
      "inputs": [
        {
          "internalType": "address",
          "name": "token",
          "type": "address"
        },
        {
          "internalType": "address",
          "name": "user",
          "type": "address"
        },
        {
          "internalType": "uint256",
          "name": "amount",
          "type": "uint256"
        },
        {
          "internalType": "string",
          "name": "reason",
          "type": "string"
        }
      ],
      "name": "collectToken",
      "outputs": [],
      "stateMutability": "nonpayable",
      "type": "function"
    },
    {
      "inputs": [
        {
          "internalType": "string",
          "name": "name",
          "type": "string"
        },
        {
          "internalType": "string",
          "name": "symbol",
          "type": "string"
        },
        {
          "internalType": "uint256",
          "name": "virtualBnb",
          "type": "uint256"
        }
      ],
      "name": "createToken",
      "outputs": [
        {
          "internalType": "address",
          "name": "tokenAddress",
          "type": "address"
        }
      ],
      "stateMutability": "payable",
      "type": "function"
    },
    {
      "inputs": [
        {
          "internalType": "address",
          "name": "",
          "type": "address"
        }
      ],
      "name": "creatorOf",
      "outputs": [
        {
          "internalType": "address",
          "name": "",
          "type": "address"
        }
      ],
      "stateMutability": "view",
      "type": "function"
    },
    {
      "inputs": [],
      "name": "feeWallet",
      "outputs": [
        {
          "internalType": "address",
          "name": "",
          "type": "address"
        }
      ],
      "stateMutability": "view",
      "type": "function"
    },
    {
      "inputs": [],
      "name": "getAllTokens",
      "outputs": [
        {
          "internalType": "address[]",
          "name": "",
          "type": "address[]"
        }
      ],
      "stateMutability": "view",
      "type": "function"
    },
    {
      "inputs": [
        {
          "internalType": "address",
          "name": "creator",
          "type": "address"
        }
      ],
      "name": "getTokensByCreator",
      "outputs": [
        {
          "internalType": "address[]",
          "name": "",
          "type": "address[]"
        }
      ],
      "stateMutability": "view",
      "type": "function"
    },
    {
      "inputs": [
        {
          "internalType": "address",
          "name": "",
          "type": "address"
        }
      ],
      "name": "isLinked",
      "outputs": [
        {
          "internalType": "bool",
          "name": "",
          "type": "bool"
        }
      ],
      "stateMutability": "view",
      "type": "function"
    },
    {
      "inputs": [],
      "name": "linkProtocol",
      "outputs": [],
      "stateMutability": "nonpayable",
      "type": "function"
    },
    {
      "inputs": [],
      "name": "owner",
      "outputs": [
        {
          "internalType": "address",
          "name": "",
          "type": "address"
        }
      ],
      "stateMutability": "view",
      "type": "function"
    },
    {
      "inputs": [],
      "name": "renounceOwnership",
      "outputs": [],
      "stateMutability": "nonpayable",
      "type": "function"
    },
    {
      "inputs": [
        {
          "internalType": "address",
          "name": "_bondingCurve",
          "type": "address"
        }
      ],
      "name": "setBondingCurve",
      "outputs": [],
      "stateMutability": "nonpayable",
      "type": "function"
    },
    {
      "inputs": [
        {
          "internalType": "address",
          "name": "_feeWallet",
          "type": "address"
        }
      ],
      "name": "setFeeWallet",
      "outputs": [],
      "stateMutability": "nonpayable",
      "type": "function"
    },
    {
      "inputs": [
        {
          "internalType": "uint256",
          "name": "_deploymentFee",
          "type": "uint256"
        },
        {
          "internalType": "uint256",
          "name": "_minInitialBuy",
          "type": "uint256"
        },
        {
          "internalType": "uint256",
          "name": "_upgradeFee",
          "type": "uint256"
        }
      ],
      "name": "setFees",
      "outputs": [],
      "stateMutability": "nonpayable",
      "type": "function"
    },
    {
      "inputs": [
        {
          "internalType": "address",
          "name": "",
          "type": "address"
        },
        {
          "internalType": "uint256",
          "name": "",
          "type": "uint256"
        }
      ],
      "name": "tokensByCreator",
      "outputs": [
        {
          "internalType": "address",
          "name": "",
          "type": "address"
        }
      ],
      "stateMutability": "view",
      "type": "function"
    },
    {
      "inputs": [],
      "name": "totalTokens",
      "outputs": [
        {
          "internalType": "uint256",
          "name": "",
          "type": "uint256"
        }
      ],
      "stateMutability": "view",
      "type": "function"
    },
    {
      "inputs": [
        {
          "internalType": "address",
          "name": "newOwner",
          "type": "address"
        }
      ],
      "name": "transferOwnership",
      "outputs": [],
      "stateMutability": "nonpayable",
      "type": "function"
    },
    {
      "inputs": [
        {
          "internalType": "address",
          "name": "tokenAddress",
          "type": "address"
        }
      ],
      "name": "upgradeToken",
      "outputs": [],
      "stateMutability": "payable",
      "type": "function"
    }
  ],
  "bytecode": "0x60803461019c57601f620022dc38819003918201601f191683019291906001600160401b038411838510176101a157816060928492604096875283398101031261019c5761004c816101b7565b908261005a602083016101b7565b916001600160a01b0391829161007091016101b7565b1691821561018457816000549460018060a01b031994808688161760005582885197167f8be0079c531659141344cd1fd0a4f28419497f9722a3daafe3b4186f6b6457e0600080a3660aa87bee53800060015566b1a2bc2ec50000600255662386f26fc1000060035516938415610142575016918215610109578160045416176004556005541617600555516121109081620001cc8239f35b835162461bcd60e51b8152602060048201526012602482015271125b9d985b1a5908199959481dd85b1b195d60721b6044820152606490fd5b62461bcd60e51b815260206004820152601560248201527f496e76616c696420626f6e64696e6720637572766500000000000000000000006044820152606490fd5b8451631e4fbdf760e01b815260006004820152602490fd5b600080fd5b634e487b7160e01b600052604160045260246000fd5b51906001600160a01b038216820361019c5756fe60806040818152600491823610156200001757600080fd5b600092833560e01c9182632a5c792a1462000e695750816339457b501462000e1157816343ff1fb81462000d9a57816359475e771462000d795781635b0605301462000902578163634282af14620008a45781636ee31a1814620007a6578163715018a614620007485781637e1c0c0914620007275781638da5cb5b14620006fd57816390d49b9d14620006865781639f3043c314620005c4578163a4b41c8a14620005a3578163a8f322511462000582578163b8d38253146200040c578163cec10c1114620003a2578163d5c712751462000311578163d80d03a214620002ae578163dea5c2e0146200026f578163eff1d50e1462000245578163f25f4b56146200021a578163f2fde38b146200017e575063fb1afbd7146200013a57600080fd5b346200017a5760203660031901126200017a5760209160ff9082906001600160a01b036200016762000f35565b1681526009855220541690519015158152f35b5080fd5b9050346200021657602036600319011262000216576200019d62000f35565b90620001a862000fac565b6001600160a01b0391821692831562000200575050600054826bffffffffffffffffffffffff60a01b821617600055167f8be0079c531659141344cd1fd0a4f28419497f9722a3daafe3b4186f6b6457e0600080a380f35b51631e4fbdf760e01b8152908101849052602490fd5b8280fd5b5050346200017a57816003193601126200017a5760055490516001600160a01b039091168152602090f35b90503462000216578260031936011262000216575490516001600160a01b03909116815260209150f35b5050346200017a5760203660031901126200017a576020916001600160a01b03908290826200029d62000f35565b168152600885522054169051908152f35b5050346200017a57806003193601126200017a57620002cc62000f35565b6001600160a01b0390811683526007602052818320805460243594908510156200030e5750602093620002ff9162000f7d565b92905490519260031b1c168152f35b80fd5b5050346200017a576020908160031936011262000216576001600160a01b0392836200033c62000f35565b16815260078352818120938251908194808754938481520196845280842093915b838310620003885762000384878762000379828c038362001064565b519182918262000eef565b0390f35b84548116885296810196600194850194909201916200035d565b9050346200021657606036600319011262000216577fcf8a1e1d5f09cf3c97dbb653cd9a4d7aace9292fbc1bb8211febf2d400febbdd91606091359060443590602435620003ef62000fac565b83600155806002558260035581519384526020840152820152a180f35b9050346200021657608036600319011262000216576200042b62000f35565b6001600160a01b03602435818116949293928582036200057d578693604435936064359167ffffffffffffffff831162000563576200046f86933690830162000f4c565b9890956200047c62000fac565b8a89526020988994600986526200049960ff898420541662001087565b60055488516323b872dd60e01b81526001600160a01b03948516968101968752908216909316602086015260408501969096529094859384900360600192849291165af1801562000573576200052d575b50907fbde344b6f67c3bf7e0ecbbf22b04267d5d3ae0aa1909c0000b812f6b14ce45b9948280620005279451968796875286015284019162001018565b0390a280f35b8481819493943d83116200056b575b62000548818362001064565b810103126200056757518015150362000563579038620004ea565b8680fd5b8780fd5b503d6200053c565b82513d8a823e3d90fd5b600080fd5b5050346200017a57816003193601126200017a576020906001549051908152f35b5050346200017a57816003193601126200017a576020906003549051908152f35b905034620002165760603660031901126200021657620005e362000f35565b916024356044359267ffffffffffffffff841162000682576200062f62000527917fbde344b6f67c3bf7e0ecbbf22b04267d5d3ae0aa1909c0000b812f6b14ce45b99536910162000f4c565b6200063962000fac565b6200066c8460018060a01b0380991698898b5260096020526200066260ff898d20541662001087565b60055416620010c6565b8451948594855280602086015284019162001018565b8580fd5b83346200030e5760203660031901126200030e57620006a462000f35565b620006ae62000fac565b6001600160a01b0316620006c481151562000fd9565b600580546001600160a01b031916821790557f29acee77dafcfa0143d74a7ea236018f3a6e1fa71e27fc59bbfbc6b8ca8edccd8280a280f35b5050346200017a57816003193601126200017a57905490516001600160a01b039091168152602090f35b5050346200017a57816003193601126200017a576020906006549051908152f35b83346200030e57806003193601126200030e576200076562000fac565b600080546001600160a01b0319811682556001600160a01b03167f8be0079c531659141344cd1fd0a4f28419497f9722a3daafe3b4186f6b6457e08280a380f35b91905060203660031901126200021657620007c062000f35565b600354341062000861576001600160a01b039081168085526008602052828520549093908216156200082c5750620007fe90349060055416620010c6565b51903482527f89e75c42f7cca6a6e4ad53c63f1b4a422ba2cc998dd8b5a3234dfcd95cc163c960203393a380f35b606490602084519162461bcd60e51b8352820152600f60248201526e151bdad95b881b9bdd08199bdd5b99608a1b6044820152fd5b815162461bcd60e51b8152602081850152601860248201527f496e73756666696369656e7420757067726164652066656500000000000000006044820152606490fd5b90503462000216576020366003190112620002165735600654811015620002165760066000527ff652222313e28459528d920b65115c16c04f3efc82aaedc97be59f3f377c0d3f015490516001600160a01b03909116815260209150f35b83915060603660031901126200017a5767ffffffffffffffff92813584811162000c065762000935903690840162000f4c565b939060249182358781116200017a5762000953903690870162000f4c565b909160018060a01b0396876005541695863314968760001462000d6f5783975b1562000d4c57835b341062000cf9578a1562000cc757841562000c9357878062000c80575b5050888254169a8960055416895191610f67808401918483109083111762000c40579160a08e9f928d9e9f620009e48d620009f4928998620011748a3960c0855260c085019162001018565b82810360208401528b8d62001018565b93633b9aca009e8f9083015233606083015260808201520152039084f0801562000c76578a169960065468010000000000000000908181101562000c6457600181018060065581101562000c52577ff652222313e28459528d920b65115c16c04f3efc82aaedc97be59f3f377c0d3f0180546001600160a01b03199081168e1790915533865260076020528b86208054919282101562000c40578162000aa1918f93600101815562000f7d565b84829392549160031b92831b921b19161790558b855260086020528a852090339082541617905580835416803b1562000c3c578a51630ea38b3160e31b81526001600160a01b038d1685820190815233602082015260443560408201529091869183919082908490829060600103925af1801562000c325762000c1c575b508734039734891162000c0a57340362000ba8575b50505050927fa1fdd9d625a3d9910d1d8f8431da95fb346446dc9687e2f12468dd20cc4691a39262000b8d60209993899662000b7f600154948b519760a0895260a089019162001018565b918683038d88015262001018565b9587840152606083015260808201528033940390a351908152f35b82541691823b1562000c065783918b91898c51958694859363f088d54760e01b85528401525af1801562000bfc5762000be4575b808062000b34565b62000bf0829162001039565b6200030e578062000bdc565b88513d84823e3d90fd5b8380fd5b634e487b7160e01b8552601184528285fd5b62000c2a9094919462001039565b928c62000b1f565b8b513d87823e3d90fd5b8480fd5b634e487b7160e01b8752604186528487fd5b634e487b7160e01b8652603285528386fd5b634e487b7160e01b8652604185528386fd5b89513d85823e3d90fd5b62000c8b91620010c6565b8b8762000998565b885162461bcd60e51b8152602081850152600f818401526e14de5b589bdb081c995c5d5a5c9959608a1b6044820152606490fd5b885162461bcd60e51b8152602081850152600d818401526c13985b59481c995c5d5a5c9959609a1b6044820152606490fd5b885162461bcd60e51b81526020818501526028818401527f496e73756666696369656e7420424e423a206e65656420666565202b20696e696044820152677469616c2062757960c01b6064820152608490fd5b6001546002548101809111156200097b57634e487b7160e01b8552601184528285fd5b6001549762000973565b5050346200017a57816003193601126200017a576020906002549051908152f35b8390346200017a5760203660031901126200017a5762000db962000f35565b62000dc362000fac565b6001600160a01b03169062000dda82151562000fd9565b80546001600160a01b031916821790557fc4fda5d836a9aaafabd3088c5f5dcabfe179c3b392b09dbac0e8727667f3c7768280a280f35b5050346200017a57816003193601126200017a573382526009602052808220600160ff1982541617905551600181527f9896b4eed33ea0bcc03386bf8d03b92659362f6180a8671a40cfe4ed5159e2dd60203392a280f35b849084346200021657826003193601126200021657600680548084529084526020808401947ff652222313e28459528d920b65115c16c04f3efc82aaedc97be59f3f377c0d3f92915b82821062000ece5762000384868662000379828b038362001064565b83546001600160a01b03168752958601956001938401939091019062000eb2565b6020908160408183019282815285518094520193019160005b82811062000f17575050505090565b83516001600160a01b03168552938101939281019260010162000f08565b600435906001600160a01b03821682036200057d57565b9181601f840112156200057d5782359167ffffffffffffffff83116200057d57602083818601950101116200057d57565b805482101562000f965760005260206000200190600090565b634e487b7160e01b600052603260045260246000fd5b6000546001600160a01b0316330362000fc157565b60405163118cdaa760e01b8152336004820152602490fd5b1562000fe157565b60405162461bcd60e51b815260206004820152600f60248201526e496e76616c6964206164647265737360881b6044820152606490fd5b908060209392818452848401376000828201840152601f01601f1916010190565b67ffffffffffffffff81116200104e57604052565b634e487b7160e01b600052604160045260246000fd5b90601f8019910116810190811067ffffffffffffffff8211176200104e57604052565b156200108f57565b60405162461bcd60e51b815260206004820152600f60248201526e155cd95c881b9bdd081b1a5b9ad959608a1b6044820152606490fd5b600080808094819460018060a01b03165af1903d156200116c573d9067ffffffffffffffff82116200115857604051916200110c601f8201601f19166020018462001064565b825260203d92013e5b156200111d57565b60405162461bcd60e51b8152602060048201526013602482015272109390881d1c985b9cd9995c8819985a5b1959606a1b6044820152606490fd5b634e487b7160e01b81526041600452602490fd5b506200111556fe60406080815234620004f55762000f67803803806200001e81620004fa565b928339810160c082820312620004f55781516001600160401b039190828111620004f557816200005091850162000545565b906020908185015190848211620004f5576200006e91860162000545565b90858501519162000082606087016200059c565b956200009f60a062000097608084016200059c565b92016200059c565b9085518781116200040057600397885498600192838b811c9b168015620004ea575b888c1014620004d457601f9a8b811162000489575b5080888c8211600114620004225760009162000416575b5060001982841b1c191690841b1781555b855191821162000400576004998a548481811c91168015620003f5575b89821014620003e05781811162000395575b50879083116001146200032c578293839160009462000320575b501b92600019911b1c19161787555b6001600160a01b038181169890979089156200030957600580546001600160a01b03198082168d1790925590918a918c9083167f8be0079c531659141344cd1fd0a4f28419497f9722a3daafe3b4186f6b6457e0600080a316988915620002d4578416156200029c5788906006541617600655670de0b6b3a7640000928387029387850414871517156200028757600a8404918285039485116200027257506200025c937fbeb070748168c711e9d9d570ee9ce0b65d49cc7ddcc6cb9c6ce3b2570ae1eb70989693620002346200024e9997946200023a94620005d8565b620005d8565b8951958695606087526060870190620005b1565b9185830390860152620005b1565b90878301520390a3516108fc90816200066b8239f35b601190634e487b7160e01b6000525260246000fd5b601182634e487b7160e01b6000525260246000fd5b8a5162461bcd60e51b81528083018790526012602482015271125b9d985b1a5908199959481dd85b1b195d60721b6044820152606490fd5b8b5162461bcd60e51b8152808401889052600f60248201526e24b73b30b634b21031b932b0ba37b960891b6044820152606490fd5b8a51631e4fbdf760e01b8152600081840152602490fd5b88015193503862000147565b90601f198316918b60005283896000209360005b8b888383106200037d575050501062000362575b505050811b01875562000156565b8701519060f884600019921b161c1916905538808062000354565b858d0151885590960195938401938793500162000340565b8b600052886000208280860160051c8201928b8710620003d6575b0160051c019085905b828110620003c95750506200012d565b60008155018590620003b9565b92508192620003b0565b60228c634e487b7160e01b6000525260246000fd5b90607f16906200011b565b634e487b7160e01b600052604160045260246000fd5b90508a015138620000ed565b60008481528a81208794509190601f198416908c8f5b8383106200047157505050831162000458575b5050811b018155620000fe565b8c015160001983861b60f8161c1916905538806200044b565b840151855589969094019392830192018c8f62000438565b82600052886000208c80840160051c8201928b8510620004ca575b0160051c019085905b828110620004bd575050620000d6565b60008155018590620004ad565b92508192620004a4565b634e487b7160e01b600052602260045260246000fd5b9a607f169a620000c1565b600080fd5b6040519190601f01601f191682016001600160401b038111838210176200040057604052565b60005b838110620005345750506000910152565b818101518382015260200162000523565b81601f82011215620004f55780516001600160401b038111620004005762000577601f8201601f1916602001620004fa565b9281845260208284010111620004f55762000599916020808501910162000520565b90565b51906001600160a01b0382168203620004f557565b90602091620005cc8151809281855285808601910162000520565b601f01601f1916010190565b6001600160a01b03169081156200065157600254908082018092116200063b5760207fddf252ad1be2c89b69c2b068fc378daa952ba7f163c4a11628f55a4df523b3ef9160009360025584845283825260408420818154019055604051908152a3565b634e487b7160e01b600052601160045260246000fd5b60405163ec442f0560e01b815260006004820152602490fdfe6080604081815260048036101561001557600080fd5b600092833560e01c90816302d05d3f1461071d5750806306fdde0314610642578063095ea7b31461059957806318160ddd1461057a57806323b872dd14610487578063313ce5671461046b57806342966c68146103ad57806370a0823114610376578063715018a6146103165780638da5cb5b146102ed57806395d89b41146101cd578063a9059cbb1461019c578063dd62ed3e1461014f5763f2fde38b146100bd57600080fd5b3461014b57602036600319011261014b576100d661078b565b906100df6107bc565b6001600160a01b03918216928315610135575050600554826bffffffffffffffffffffffff60a01b821617600555167f8be0079c531659141344cd1fd0a4f28419497f9722a3daafe3b4186f6b6457e08380a380f35b51631e4fbdf760e01b8152908101849052602490fd5b8280fd5b5050346101985780600319360112610198578060209261016d61078b565b6101756107a6565b6001600160a01b0391821683526001865283832091168252845220549051908152f35b5080fd5b5050346101985780600319360112610198576020906101c66101bc61078b565b60243590336107e8565b5160018152f35b50919034610198578160031936011261019857805190828454600181811c908083169283156102e3575b60209384841081146102d0578388529081156102b4575060011461025f575b505050829003601f01601f191682019267ffffffffffffffff84118385101761024c5750829182610248925282610742565b0390f35b634e487b7160e01b815260418552602490fd5b8787529192508591837f8a35acfbc15ff81a39ae7d344fd709f28e8600b4aa8c65c6b64bfe7fe36bd19b5b8385106102a05750505050830101388080610216565b80548886018301529301928490820161028a565b60ff1916878501525050151560051b8401019050388080610216565b634e487b7160e01b895260228a52602489fd5b91607f16916101f7565b50503461019857816003193601126101985760055490516001600160a01b039091168152602090f35b833461037357806003193601126103735761032f6107bc565b600580546001600160a01b0319811690915581906001600160a01b03167f8be0079c531659141344cd1fd0a4f28419497f9722a3daafe3b4186f6b6457e08280a380f35b80fd5b5050346101985760203660031901126101985760209181906001600160a01b0361039e61078b565b16815280845220549051908152f35b50919034610198576020366003190112610198578235906103cc6107bc565b33156104555733835282602052808320549382851061042a57508183943385528460205203818420558160025403600255519081527fddf252ad1be2c89b69c2b068fc378daa952ba7f163c4a11628f55a4df523b3ef60203392a380f35b905163391434e360e21b81523391810191825260208201859052604082018390529081906060010390fd5b51634b637e8f60e11b8152808401839052602490fd5b5050346101985781600319360112610198576020905160128152f35b508234610373576060366003190112610373576104a261078b565b6104aa6107a6565b916044359360018060a01b0383168083526001602052868320338452602052868320549160001983106104e6575b6020886101c68989896107e8565b86831061054e578115610537573315610520575082526001602090815286832033845281529186902090859003905582906101c6876104d8565b8751634a1406b160e11b8152908101849052602490fd5b875163e602df0560e01b8152908101849052602490fd5b8751637dc7a0d960e11b8152339181019182526020820193909352604081018790528291506060010390fd5b5050346101985781600319360112610198576020906002549051908152f35b503461014b578160031936011261014b576105b261078b565b60243590331561062b576001600160a01b031691821561061457508083602095338152600187528181208582528752205582519081527f8c5be1e5ebec7d5bd14f71427d1e84f3dd0314c0f7b2291e5b200ac8c7c3b925843392a35160018152f35b8351634a1406b160e11b8152908101859052602490fd5b835163e602df0560e01b8152808401869052602490fd5b5091903461019857816003193601126101985780519082600354600181811c90808316928315610713575b60209384841081146102d0578388529081156102b457506001146106bd57505050829003601f01601f191682019267ffffffffffffffff84118385101761024c5750829182610248925282610742565b600387529192508591837fc2575a0e9e593c00f959f8c92f12db2869c3395a3b0502d05e2516446f71f85b5b8385106106ff5750505050830101388080610216565b8054888601830152930192849082016106e9565b91607f169161066d565b8490346101985781600319360112610198576006546001600160a01b03168152602090f35b6020808252825181830181905290939260005b82811061077757505060409293506000838284010152601f8019910116010190565b818101860151848201604001528501610755565b600435906001600160a01b03821682036107a157565b600080fd5b602435906001600160a01b03821682036107a157565b6005546001600160a01b031633036107d057565b60405163118cdaa760e01b8152336004820152602490fd5b916001600160a01b038084169283156108ad57169283156108945760009083825281602052604082205490838210610862575091604082827fddf252ad1be2c89b69c2b068fc378daa952ba7f163c4a11628f55a4df523b3ef958760209652828652038282205586815220818154019055604051908152a3565b60405163391434e360e21b81526001600160a01b03919091166004820152602481019190915260448101839052606490fd5b60405163ec442f0560e01b815260006004820152602490fd5b604051634b637e8f60e11b815260006004820152602490fdfea264697066735822122048e2ce44663be537347d4dcb569f25743b804518ab05c5180c835c2e512f4cc864736f6c63430008140033a2646970667358221220c6161912307a8cc92d74136bc761a600ceade43e8a32db4bafb9e1914b40d6e464736f6c63430008140033",
  "linkReferences": {},
  "deployedLinkReferences": {}
}