{
  "_format": "hh-sol-artifact-1",
  "contractName": "TokenFactory",
  "sourceName": "contracts/TokenFactory.sol",
  "abi": [
    {
      "inputs": [
        {
          "internalType": "address",
          "name": "_bondingCurve",
          "type": "address"
        },
        {
          "internalType": "address",
          "name": "_feeWallet",
          "type": "address"
        },
        {
          "internalType": "address",
          "name": "_owner",
          "type": "address"
        }
      ],
      "stateMutability": "nonpayable",
      "type": "constructor"
    },
    {
      "inputs": [
        {
          "internalType": "address",
          "name": "owner",
          "type": "address"
        }
      ],
      "name": "OwnableInvalidOwner",
      "type": "error"
    },
    {
      "inputs": [
        {
          "internalType": "address",
          "name": "account",
          "type": "address"
        }
      ],
      "name": "OwnableUnauthorizedAccount",
      "type": "error"
    },
    {
      "anonymous": false,
      "inputs": [
        {
          "indexed": true,
          "internalType": "address",
          "name": "newBondingCurve",
          "type": "address"
        }
      ],
      "name": "BondingCurveUpdated",
      "type": "event"
    },
    {
      "anonymous": false,
      "inputs": [
        {
          "indexed": true,
          "internalType": "address",
          "name": "user",
          "type": "address"
        },
        {
          "indexed": false,
          "internalType": "uint256",
          "name": "amount",
          "type": "uint256"
        },
        {
          "indexed": false,
          "internalType": "string",
          "name": "reason",
          "type": "string"
        }
      ],
      "name": "FeeCollected",
      "type": "event"
    },
    {
      "anonymous": false,
      "inputs": [
        {
          "indexed": true,
          "internalType": "address",
          "name": "newFeeWallet",
          "type": "address"
        }
      ],
      "name": "FeeWalletUpdated",
      "type": "event"
    },
    {
      "anonymous": false,
      "inputs": [
        {
          "indexed": false,
          "internalType": "uint256",
          "name": "deploymentFee",
          "type": "uint256"
        },
        {
          "indexed": false,
          "internalType": "uint256",
          "name": "minInitialBuy",
          "type": "uint256"
        },
        {
          "indexed": false,
          "internalType": "uint256",
          "name": "upgradeFee",
          "type": "uint256"
        }
      ],
      "name": "FeesUpdated",
      "type": "event"
    },
    {
      "anonymous": false,
      "inputs": [
        {
          "indexed": true,
          "internalType": "address",
          "name": "previousOwner",
          "type": "address"
        },
        {
          "indexed": true,
          "internalType": "address",
          "name": "newOwner",
          "type": "address"
        }
      ],
      "name": "OwnershipTransferred",
      "type": "event"
    },
    {
      "anonymous": false,
      "inputs": [
        {
          "indexed": true,
          "internalType": "address",
          "name": "user",
          "type": "address"
        },
        {
          "indexed": false,
          "internalType": "bool",
          "name": "status",
          "type": "bool"
        }
      ],
      "name": "PermissionGranted",
      "type": "event"
    },
    {
      "anonymous": false,
      "inputs": [
        {
          "indexed": true,
          "internalType": "address",
          "name": "tokenAddress",
          "type": "address"
        },
        {
          "indexed": false,
          "internalType": "string",
          "name": "name",
          "type": "string"
        },
        {
          "indexed": false,
          "internalType": "string",
          "name": "symbol",
          "type": "string"
        },
        {
          "indexed": false,
          "internalType": "uint256",
          "name": "supply",
          "type": "uint256"
        },
        {
          "indexed": true,
          "internalType": "address",
          "name": "creator",
          "type": "address"
        },
        {
          "indexed": false,
          "internalType": "uint256",
          "name": "deploymentFee",
          "type": "uint256"
        },
        {
          "indexed": false,
          "internalType": "uint256",
          "name": "initialBuyBnb",
          "type": "uint256"
        }
      ],
      "name": "TokenCreated",
      "type": "event"
    },
    {
      "anonymous": false,
      "inputs": [
        {
          "indexed": true,
          "internalType": "address",
          "name": "tokenAddress",
          "type": "address"
        },
        {
          "indexed": true,
          "internalType": "address",
          "name": "creator",
          "type": "address"
        },
        {
          "indexed": false,
          "internalType": "uint256",
          "name": "feePaid",
          "type": "uint256"
        }
      ],
      "name": "TokenUpgraded",
      "type": "event"
    },
    {
      "inputs": [],
      "name": "DEPLOYMENT_FEE",
      "outputs": [
        {
          "internalType": "uint256",
          "name": "",
          "type": "uint256"
        }
      ],
      "stateMutability": "view",
      "type": "function"
    },
    {
      "inputs": [],
      "name": "MIN_INITIAL_BUY",
      "outputs": [
        {
          "internalType": "uint256",
          "name": "",
          "type": "uint256"
        }
      ],
      "stateMutability": "view",
      "type": "function"
    },
    {
      "inputs": [],
      "name": "UPGRADE_FEE",
      "outputs": [
        {
          "internalType": "uint256",
          "name": "",
          "type": "uint256"
        }
      ],
      "stateMutability": "view",
      "type": "function"
    },
    {
      "inputs": [
        {
          "internalType": "uint256",
          "name": "",
          "type": "uint256"
        }
      ],
      "name": "allTokens",
      "outputs": [
        {
          "internalType": "address",
          "name": "",
          "type": "address"
        }
      ],
      "stateMutability": "view",
      "type": "function"
    },
    {
      "inputs": [],
      "name": "bondingCurve",
      "outputs": [
        {
          "internalType": "address",
          "name": "",
          "type": "address"
        }
      ],
      "stateMutability": "view",
      "type": "function"
    },
    {
      "inputs": [
        {
          "internalType": "address",
          "name": "user",
          "type": "address"
        },
        {
          "internalType": "uint256",
          "name": "amount",
          "type": "uint256"
        },
        {
          "internalType": "string",
          "name": "reason",
          "type": "string"
        }
      ],
      "name": "collectFee",
      "outputs": [],
      "stateMutability": "nonpayable",
      "type": "function"
    },
    {
      "inputs": [
        {
          "internalType": "address",
          "name": "token",
          "type": "address"
        },
        {
          "internalType": "address",
          "name": "user",
          "type": "address"
        },
        {
          "internalType": "uint256",
          "name": "amount",
          "type": "uint256"
        },
        {
          "internalType": "string",
          "name": "reason",
          "type": "string"
        }
      ],
      "name": "collectToken",
      "outputs": [],
      "stateMutability": "nonpayable",
      "type": "function"
    },
    {
      "inputs": [
        {
          "internalType": "string",
          "name": "name",
          "type": "string"
        },
        {
          "internalType": "string",
          "name": "symbol",
          "type": "string"
        },
        {
          "internalType": "uint256",
          "name": "virtualBnb",
          "type": "uint256"
        }
      ],
      "name": "createToken",
      "outputs": [
        {
          "internalType": "address",
          "name": "tokenAddress",
          "type": "address"
        }
      ],
      "stateMutability": "payable",
      "type": "function"
    },
    {
      "inputs": [
        {
          "internalType": "address",
          "name": "",
          "type": "address"
        }
      ],
      "name": "creatorOf",
      "outputs": [
        {
          "internalType": "address",
          "name": "",
          "type": "address"
        }
      ],
      "stateMutability": "view",
      "type": "function"
    },
    {
      "inputs": [],
      "name": "feeWallet",
      "outputs": [
        {
          "internalType": "address",
          "name": "",
          "type": "address"
        }
      ],
      "stateMutability": "view",
      "type": "function"
    },
    {
      "inputs": [],
      "name": "getAllTokens",
      "outputs": [
        {
          "internalType": "address[]",
          "name": "",
          "type": "address[]"
        }
      ],
      "stateMutability": "view",
      "type": "function"
    },
    {
      "inputs": [
        {
          "internalType": "address",
          "name": "creator",
          "type": "address"
        }
      ],
      "name": "getTokensByCreator",
      "outputs": [
        {
          "internalType": "address[]",
          "name": "",
          "type": "address[]"
        }
      ],
      "stateMutability": "view",
      "type": "function"
    },
    {
      "inputs": [
        {
          "internalType": "address",
          "name": "",
          "type": "address"
        }
      ],
      "name": "isLinked",
      "outputs": [
        {
          "internalType": "bool",
          "name": "",
          "type": "bool"
        }
      ],
      "stateMutability": "view",
      "type": "function"
    },
    {
      "inputs": [],
      "name": "linkProtocol",
      "outputs": [],
      "stateMutability": "nonpayable",
      "type": "function"
    },
    {
      "inputs": [],
      "name": "owner",
      "outputs": [
        {
          "internalType": "address",
          "name": "",
          "type": "address"
        }
      ],
      "stateMutability": "view",
      "type": "function"
    },
    {
      "inputs": [],
      "name": "renounceOwnership",
      "outputs": [],
      "stateMutability": "nonpayable",
      "type": "function"
    },
    {
      "inputs": [
        {
          "internalType": "address",
          "name": "_bondingCurve",
          "type": "address"
        }
      ],
      "name": "setBondingCurve",
      "outputs": [],
      "stateMutability": "nonpayable",
      "type": "function"
    },
    {
      "inputs": [
        {
          "internalType": "address",
          "name": "_feeWallet",
          "type": "address"
        }
      ],
      "name": "setFeeWallet",
      "outputs": [],
      "stateMutability": "nonpayable",
      "type": "function"
    },
    {
      "inputs": [
        {
          "internalType": "uint256",
          "name": "_deploymentFee",
          "type": "uint256"
        },
        {
          "internalType": "uint256",
          "name": "_minInitialBuy",
          "type": "uint256"
        },
        {
          "internalType": "uint256",
          "name": "_upgradeFee",
          "type": "uint256"
        }
      ],
      "name": "setFees",
      "outputs": [],
      "stateMutability": "nonpayable",
      "type": "function"
    },
    {
      "inputs": [
        {
          "internalType": "address",
          "name": "",
          "type": "address"
        },
        {
          "internalType": "uint256",
          "name": "",
          "type": "uint256"
        }
      ],
      "name": "tokensByCreator",
      "outputs": [
        {
          "internalType": "address",
          "name": "",
          "type": "address"
        }
      ],
      "stateMutability": "view",
      "type": "function"
    },
    {
      "inputs": [],
      "name": "totalTokens",
      "outputs": [
        {
          "internalType": "uint256",
          "name": "",
          "type": "uint256"
        }
      ],
      "stateMutability": "view",
      "type": "function"
    },
    {
      "inputs": [
        {
          "internalType": "address",
          "name": "newOwner",
          "type": "address"
        }
      ],
      "name": "transferOwnership",
      "outputs": [],
      "stateMutability": "nonpayable",
      "type": "function"
    },
    {
      "inputs": [
        {
          "internalType": "address",
          "name": "tokenAddress",
          "type": "address"
        }
      ],
      "name": "upgradeToken",
      "outputs": [],
      "stateMutability": "payable",
      "type": "function"
    }
  ],
  "bytecode": "0x60803461019c57601f6200240f38819003918201601f191683019291906001600160401b038411838510176101a157816060928492604096875283398101031261019c5761004c816101b7565b908261005a602083016101b7565b916001600160a01b0391829161007091016101b7565b1691821561018457816000549460018060a01b031994808688161760005582885197167f8be0079c531659141344cd1fd0a4f28419497f9722a3daafe3b4186f6b6457e0600080a3660aa87bee53800060015566b1a2bc2ec50000600255662386f26fc1000060035516938415610142575016918215610109578160045416176004556005541617600555516122439081620001cc8239f35b835162461bcd60e51b8152602060048201526012602482015271125b9d985b1a5908199959481dd85b1b195d60721b6044820152606490fd5b62461bcd60e51b815260206004820152601560248201527f496e76616c696420626f6e64696e6720637572766500000000000000000000006044820152606490fd5b8451631e4fbdf760e01b815260006004820152602490fd5b600080fd5b634e487b7160e01b600052604160045260246000fd5b51906001600160a01b038216820361019c5756fe60806040818152600491823610156200001757600080fd5b600092833560e01c9182632a5c792a1462000e6e5750816339457b501462000e1657816343ff1fb81462000d9f57816359475e771462000d7e5781635b0605301462000902578163634282af14620008a45781636ee31a1814620007a6578163715018a614620007485781637e1c0c0914620007275781638da5cb5b14620006fd57816390d49b9d14620006865781639f3043c314620005c4578163a4b41c8a14620005a3578163a8f322511462000582578163b8d38253146200040c578163cec10c1114620003a2578163d5c712751462000311578163d80d03a214620002ae578163dea5c2e0146200026f578163eff1d50e1462000245578163f25f4b56146200021a578163f2fde38b146200017e575063fb1afbd7146200013a57600080fd5b346200017a5760203660031901126200017a5760209160ff9082906001600160a01b036200016762000f3a565b1681526009855220541690519015158152f35b5080fd5b9050346200021657602036600319011262000216576200019d62000f3a565b90620001a862000fb1565b6001600160a01b0391821692831562000200575050600054826bffffffffffffffffffffffff60a01b821617600055167f8be0079c531659141344cd1fd0a4f28419497f9722a3daafe3b4186f6b6457e0600080a380f35b51631e4fbdf760e01b8152908101849052602490fd5b8280fd5b5050346200017a57816003193601126200017a5760055490516001600160a01b039091168152602090f35b90503462000216578260031936011262000216575490516001600160a01b03909116815260209150f35b5050346200017a5760203660031901126200017a576020916001600160a01b03908290826200029d62000f3a565b168152600885522054169051908152f35b5050346200017a57806003193601126200017a57620002cc62000f3a565b6001600160a01b0390811683526007602052818320805460243594908510156200030e5750602093620002ff9162000f82565b92905490519260031b1c168152f35b80fd5b5050346200017a576020908160031936011262000216576001600160a01b0392836200033c62000f3a565b16815260078352818120938251908194808754938481520196845280842093915b838310620003885762000384878762000379828c038362001069565b519182918262000ef4565b0390f35b84548116885296810196600194850194909201916200035d565b9050346200021657606036600319011262000216577fcf8a1e1d5f09cf3c97dbb653cd9a4d7aace9292fbc1bb8211febf2d400febbdd91606091359060443590602435620003ef62000fb1565b83600155806002558260035581519384526020840152820152a180f35b9050346200021657608036600319011262000216576200042b62000f3a565b6001600160a01b03602435818116949293928582036200057d578693604435936064359167ffffffffffffffff831162000563576200046f86933690830162000f51565b9890956200047c62000fb1565b8a89526020988994600986526200049960ff89842054166200108c565b60055488516323b872dd60e01b81526001600160a01b03948516968101968752908216909316602086015260408501969096529094859384900360600192849291165af1801562000573576200052d575b50907fbde344b6f67c3bf7e0ecbbf22b04267d5d3ae0aa1909c0000b812f6b14ce45b994828062000527945196879687528601528401916200101d565b0390a280f35b8481819493943d83116200056b575b62000548818362001069565b810103126200056757518015150362000563579038620004ea565b8680fd5b8780fd5b503d6200053c565b82513d8a823e3d90fd5b600080fd5b5050346200017a57816003193601126200017a576020906001549051908152f35b5050346200017a57816003193601126200017a576020906003549051908152f35b905034620002165760603660031901126200021657620005e362000f3a565b916024356044359267ffffffffffffffff841162000682576200062f62000527917fbde344b6f67c3bf7e0ecbbf22b04267d5d3ae0aa1909c0000b812f6b14ce45b99536910162000f51565b6200063962000fb1565b6200066c8460018060a01b0380991698898b5260096020526200066260ff898d2054166200108c565b60055416620010cb565b845194859485528060208601528401916200101d565b8580fd5b83346200030e5760203660031901126200030e57620006a462000f3a565b620006ae62000fb1565b6001600160a01b0316620006c481151562000fde565b600580546001600160a01b031916821790557f29acee77dafcfa0143d74a7ea236018f3a6e1fa71e27fc59bbfbc6b8ca8edccd8280a280f35b5050346200017a57816003193601126200017a57905490516001600160a01b039091168152602090f35b5050346200017a57816003193601126200017a576020906006549051908152f35b83346200030e57806003193601126200030e576200076562000fb1565b600080546001600160a01b0319811682556001600160a01b03167f8be0079c531659141344cd1fd0a4f28419497f9722a3daafe3b4186f6b6457e08280a380f35b91905060203660031901126200021657620007c062000f3a565b600354341062000861576001600160a01b039081168085526008602052828520549093908216156200082c5750620007fe90349060055416620010cb565b51903482527f89e75c42f7cca6a6e4ad53c63f1b4a422ba2cc998dd8b5a3234dfcd95cc163c960203393a380f35b606490602084519162461bcd60e51b8352820152600f60248201526e151bdad95b881b9bdd08199bdd5b99608a1b6044820152fd5b815162461bcd60e51b8152602081850152601860248201527f496e73756666696369656e7420757067726164652066656500000000000000006044820152606490fd5b90503462000216576020366003190112620002165735600654811015620002165760066000527ff652222313e28459528d920b65115c16c04f3efc82aaedc97be59f3f377c0d3f015490516001600160a01b03909116815260209150f35b9190506060366003190112620002165767ffffffffffffffff823581811162000c415762000934903690850162000f51565b949060249182358481116200017a5762000952903690880162000f51565b909160018060a01b0397886005541695863314968760001462000d745783975b1562000d5157835b341062000cfe578b1562000ccc57841562000c9857878062000c85575b505089825416978a600554168a5191611095808401918483109083111762000c45579160c08f9260128f948c8c8f620009e690620009f5948c9b620011798d3960e0885260e08801916200101d565b9185830360208701526200101d565b94820152633b9aca009d8e606083015233608083015260a08201520152039084f0801562000c7b578a169960065468010000000000000000908181101562000c6957600181018060065581101562000c57577ff652222313e28459528d920b65115c16c04f3efc82aaedc97be59f3f377c0d3f0180546001600160a01b03199081168e1790915533865260076020528b86208054919282101562000c45578162000aa6918f93600101815562000f82565b84829392549160031b92831b921b19161790558b855260086020528a852090339082541617905580835416803b1562000c41578a51630ea38b3160e31b81526001600160a01b038d1685820190815233602082015260443560408201529091869183919082908490829060600103925af1801562000c375762000c21575b508734039734891162000c0f57340362000bad575b50505050927fa1fdd9d625a3d9910d1d8f8431da95fb346446dc9687e2f12468dd20cc4691a39262000b9260209993899662000b84600154948b519760a0895260a08901916200101d565b918683038d8801526200101d565b9587840152606083015260808201528033940390a351908152f35b82541691823b1562000c0b5783918b91898c51958694859363f088d54760e01b85528401525af1801562000c015762000be9575b808062000b39565b62000bf582916200103e565b6200030e578062000be1565b88513d84823e3d90fd5b8380fd5b634e487b7160e01b8552601184528285fd5b62000c2f909491946200103e565b923862000b24565b8b513d87823e3d90fd5b8480fd5b634e487b7160e01b8752604186528487fd5b634e487b7160e01b8652603285528386fd5b634e487b7160e01b8652604185528386fd5b89513d85823e3d90fd5b62000c9091620010cb565b388762000997565b895162461bcd60e51b8152602081850152600f818401526e14de5b589bdb081c995c5d5a5c9959608a1b6044820152606490fd5b895162461bcd60e51b8152602081850152600d818401526c13985b59481c995c5d5a5c9959609a1b6044820152606490fd5b895162461bcd60e51b81526020818501526028818401527f496e73756666696369656e7420424e423a206e65656420666565202b20696e696044820152677469616c2062757960c01b6064820152608490fd5b6001546002548101809111156200097a57634e487b7160e01b8552601184528285fd5b6001549762000972565b5050346200017a57816003193601126200017a576020906002549051908152f35b8390346200017a5760203660031901126200017a5762000dbe62000f3a565b62000dc862000fb1565b6001600160a01b03169062000ddf82151562000fde565b80546001600160a01b031916821790557fc4fda5d836a9aaafabd3088c5f5dcabfe179c3b392b09dbac0e8727667f3c7768280a280f35b5050346200017a57816003193601126200017a573382526009602052808220600160ff1982541617905551600181527f9896b4eed33ea0bcc03386bf8d03b92659362f6180a8671a40cfe4ed5159e2dd60203392a280f35b849084346200021657826003193601126200021657600680548084529084526020808401947ff652222313e28459528d920b65115c16c04f3efc82aaedc97be59f3f377c0d3f92915b82821062000ed35762000384868662000379828b038362001069565b83546001600160a01b03168752958601956001938401939091019062000eb7565b6020908160408183019282815285518094520193019160005b82811062000f1c575050505090565b83516001600160a01b03168552938101939281019260010162000f0d565b600435906001600160a01b03821682036200057d57565b9181601f840112156200057d5782359167ffffffffffffffff83116200057d57602083818601950101116200057d57565b805482101562000f9b5760005260206000200190600090565b634e487b7160e01b600052603260045260246000fd5b6000546001600160a01b0316330362000fc657565b60405163118cdaa760e01b8152336004820152602490fd5b1562000fe657565b60405162461bcd60e51b815260206004820152600f60248201526e496e76616c6964206164647265737360881b6044820152606490fd5b908060209392818452848401376000828201840152601f01601f1916010190565b67ffffffffffffffff81116200105357604052565b634e487b7160e01b600052604160045260246000fd5b90601f8019910116810190811067ffffffffffffffff8211176200105357604052565b156200109457565b60405162461bcd60e51b815260206004820152600f60248201526e155cd95c881b9bdd081b1a5b9ad959608a1b6044820152606490fd5b600080808094819460018060a01b03165af1903d1562001171573d9067ffffffffffffffff82116200115d576040519162001111601f8201601f19166020018462001069565b825260203d92013e5b156200112257565b60405162461bcd60e51b8152602060048201526013602482015272109390881d1c985b9cd9995c8819985a5b1959606a1b6044820152606490fd5b634e487b7160e01b81526041600452602490fd5b506200111a56fe60406080815234620005605762001095803803806200001e8162000565565b928339810160e082820312620005605781516001600160401b03929083811162000560578262000050918301620005b0565b90602092838201519085821162000560576200006e918301620005b0565b858201519360ff8516918286036200056057606084015193620000946080820162000607565b97620000b160c0620000a960a0850162000607565b930162000607565b91875182811162000460576003928354936001928386811c9616801562000555575b898710146200053f57601f95868111620004f4575b508089878211600114620004825760009162000476575b5060001982841b1c191690841b1781555b8651918211620004605760049485548481811c9116801562000455575b8a8210146200044057818111620003f5575b50889083116001146200038b57829383916000946200037f575b501b92600019911b1c19161782555b6001600160a01b038181169a9099908b156200036857600580546001600160a01b031981168e179091558b91908d9083167f8be0079c531659141344cd1fd0a4f28419497f9722a3daafe3b4186f6b6457e0600080a316998a156200033357841615620002fb57600680546001600160a81b0319168b1760a09290921b60ff60a01b16919091179055604d8611620002e65785600a0a92838802938885041488151715620002d157600a84049384810393818511620002bc5750927fcfdd2334c592eec854e571de05695acf7ad2753c264d043eefdac143cb72adc099979592620002819592620002739a98956200029c575b505050508a519687966080885260808801906200061c565b91868303908701526200061c565b918884015260608301520390a3516109bf9081620006d68239f35b620002b293620002ac9162000643565b62000643565b388080806200025b565b601190634e487b7160e01b6000525260246000fd5b601183634e487b7160e01b6000525260246000fd5b601182634e487b7160e01b6000525260246000fd5b8b5162461bcd60e51b81528084018790526012602482015271125b9d985b1a5908199959481dd85b1b195d60721b6044820152606490fd5b8c5162461bcd60e51b8152808501889052600f60248201526e24b73b30b634b21031b932b0ba37b960891b6044820152606490fd5b8c51631e4fbdf760e01b8152600081860152602490fd5b89015193503862000159565b90601f1983169186600052838a6000209360005b8c888d848410620003de575050505010620003c3575b505050811b01825562000168565b8801519060f884600019921b161c19169055388080620003b5565b86015188559096019593840193879350016200039f565b86600052896000208280860160051c8201928c871062000436575b0160051c019085905b828110620004295750506200013f565b6000815501859062000419565b9250819262000410565b602287634e487b7160e01b6000525260246000fd5b90607f16906200012d565b634e487b7160e01b600052604160045260246000fd5b90508c015138620000ff565b60008481528b812087945091908f90601f198516908e5b828210620004d25750508411620004b9575b505050811b01815562000110565b015160001983861b60f8161c1916905538808e620004ab565b929484849395979892960151815501940192018f909188959493928e62000499565b82600052896000208780840160051c8201928c851062000535575b0160051c019085905b82811062000528575050620000e8565b6000815501859062000518565b925081926200050f565b634e487b7160e01b600052602260045260246000fd5b95607f1695620000d3565b600080fd5b6040519190601f01601f191682016001600160401b038111838210176200046057604052565b60005b8381106200059f5750506000910152565b81810151838201526020016200058e565b81601f82011215620005605780516001600160401b0381116200046057620005e2601f8201601f191660200162000565565b928184526020828401011162000560576200060491602080850191016200058b565b90565b51906001600160a01b03821682036200056057565b9060209162000637815180928185528580860191016200058b565b601f01601f1916010190565b6001600160a01b0316908115620006bc5760025490808201809211620006a65760207fddf252ad1be2c89b69c2b068fc378daa952ba7f163c4a11628f55a4df523b3ef9160009360025584845283825260408420818154019055604051908152a3565b634e487b7160e01b600052601160045260246000fd5b60405163ec442f0560e01b815260006004820152602490fdfe6080604081815260048036101561001557600080fd5b600092833560e01c90816302d05d3f146107e05750806306fdde0314610705578063095ea7b31461065c57806318160ddd1461063d57806323b872dd1461054a578063313ce5671461052557806340c10f191461047657806342966c68146103b857806370a0823114610381578063715018a6146103215780638da5cb5b146102f857806395d89b41146101d8578063a9059cbb146101a7578063dd62ed3e1461015a5763f2fde38b146100c857600080fd5b34610156576020366003190112610156576100e161084e565b906100ea61087f565b6001600160a01b03918216928315610140575050600554826bffffffffffffffffffffffff60a01b821617600555167f8be0079c531659141344cd1fd0a4f28419497f9722a3daafe3b4186f6b6457e08380a380f35b51631e4fbdf760e01b8152908101849052602490fd5b8280fd5b5050346101a357806003193601126101a3578060209261017861084e565b610180610869565b6001600160a01b0391821683526001865283832091168252845220549051908152f35b5080fd5b5050346101a357806003193601126101a3576020906101d16101c761084e565b60243590336108ab565b5160018152f35b509190346101a357816003193601126101a357805190828454600181811c908083169283156102ee575b60209384841081146102db578388529081156102bf575060011461026a575b505050829003601f01601f191682019267ffffffffffffffff8411838510176102575750829182610253925282610805565b0390f35b634e487b7160e01b815260418552602490fd5b8787529192508591837f8a35acfbc15ff81a39ae7d344fd709f28e8600b4aa8c65c6b64bfe7fe36bd19b5b8385106102ab5750505050830101388080610221565b805488860183015293019284908201610295565b60ff1916878501525050151560051b8401019050388080610221565b634e487b7160e01b895260228a52602489fd5b91607f1691610202565b5050346101a357816003193601126101a35760055490516001600160a01b039091168152602090f35b833461037e578060031936011261037e5761033a61087f565b600580546001600160a01b0319811690915581906001600160a01b03167f8be0079c531659141344cd1fd0a4f28419497f9722a3daafe3b4186f6b6457e08280a380f35b80fd5b5050346101a35760203660031901126101a35760209181906001600160a01b036103a961084e565b16815280845220549051908152f35b509190346101a35760203660031901126101a3578235906103d761087f565b33156104605733835282602052808320549382851061043557508183943385528460205203818420558160025403600255519081527fddf252ad1be2c89b69c2b068fc378daa952ba7f163c4a11628f55a4df523b3ef60203392a380f35b905163391434e360e21b81523391810191825260208201859052604082018390529081906060010390fd5b51634b637e8f60e11b8152808401839052602490fd5b50903461015657806003193601126101565761049061084e565b906024359161049d61087f565b6001600160a01b031692831561051057600254908382018092116104fd575084927fddf252ad1be2c89b69c2b068fc378daa952ba7f163c4a11628f55a4df523b3ef9260209260025585855284835280852082815401905551908152a380f35b634e487b7160e01b865260119052602485fd5b84602492519163ec442f0560e01b8352820152fd5b5050346101a357816003193601126101a35760209060ff60065460a01c169051908152f35b50823461037e57606036600319011261037e5761056561084e565b61056d610869565b916044359360018060a01b0383168083526001602052868320338452602052868320549160001983106105a9575b6020886101d18989896108ab565b8683106106115781156105fa5733156105e3575082526001602090815286832033845281529186902090859003905582906101d18761059b565b8751634a1406b160e11b8152908101849052602490fd5b875163e602df0560e01b8152908101849052602490fd5b8751637dc7a0d960e11b8152339181019182526020820193909352604081018790528291506060010390fd5b5050346101a357816003193601126101a3576020906002549051908152f35b503461015657816003193601126101565761067561084e565b6024359033156106ee576001600160a01b03169182156106d757508083602095338152600187528181208582528752205582519081527f8c5be1e5ebec7d5bd14f71427d1e84f3dd0314c0f7b2291e5b200ac8c7c3b925843392a35160018152f35b8351634a1406b160e11b8152908101859052602490fd5b835163e602df0560e01b8152808401869052602490fd5b509190346101a357816003193601126101a35780519082600354600181811c908083169283156107d6575b60209384841081146102db578388529081156102bf575060011461078057505050829003601f01601f191682019267ffffffffffffffff8411838510176102575750829182610253925282610805565b600387529192508591837fc2575a0e9e593c00f959f8c92f12db2869c3395a3b0502d05e2516446f71f85b5b8385106107c25750505050830101388080610221565b8054888601830152930192849082016107ac565b91607f1691610730565b8490346101a357816003193601126101a3576006546001600160a01b03168152602090f35b6020808252825181830181905290939260005b82811061083a57505060409293506000838284010152601f8019910116010190565b818101860151848201604001528501610818565b600435906001600160a01b038216820361086457565b600080fd5b602435906001600160a01b038216820361086457565b6005546001600160a01b0316330361089357565b60405163118cdaa760e01b8152336004820152602490fd5b916001600160a01b0380841692831561097057169283156109575760009083825281602052604082205490838210610925575091604082827fddf252ad1be2c89b69c2b068fc378daa952ba7f163c4a11628f55a4df523b3ef958760209652828652038282205586815220818154019055604051908152a3565b60405163391434e360e21b81526001600160a01b03919091166004820152602481019190915260448101839052606490fd5b60405163ec442f0560e01b815260006004820152602490fd5b604051634b637e8f60e11b815260006004820152602490fdfea264697066735822122003d7c9640adcd55ffbbf8768e6fa0fe4cdced22d5238ac6375e677ed3cb9de3564736f6c63430008140033a264697066735822122028d1b450977582b59ca8a7415ffecb3c6aec3d091cbe636bcddca350eb20dd6b64736f6c63430008140033",
  "linkReferences": {},
  "deployedLinkReferences": {}
}