{
  "_format": "hh-sol-artifact-1",
  "contractName": "DirectDexLaunchFactoryV2",
  "sourceName": "contracts/DirectDexLaunchFactoryV2.flattened.sol",
  "abi": [
    {
      "inputs": [
        {
          "internalType": "address",
          "name": "_treasuryWallet",
          "type": "address"
        },
        {
          "internalType": "address",
          "name": "_pancakeRouter",
          "type": "address"
        },
        {
          "internalType": "address",
          "name": "_pancakeFactory",
          "type": "address"
        }
      ],
      "stateMutability": "nonpayable",
      "type": "constructor"
    },
    {
      "inputs": [
        {
          "internalType": "address",
          "name": "owner",
          "type": "address"
        }
      ],
      "name": "OwnableInvalidOwner",
      "type": "error"
    },
    {
      "inputs": [
        {
          "internalType": "address",
          "name": "account",
          "type": "address"
        }
      ],
      "name": "OwnableUnauthorizedAccount",
      "type": "error"
    },
    {
      "anonymous": false,
      "inputs": [
        {
          "indexed": true,
          "internalType": "address",
          "name": "token",
          "type": "address"
        },
        {
          "indexed": true,
          "internalType": "address",
          "name": "creator",
          "type": "address"
        },
        {
          "indexed": false,
          "internalType": "uint256",
          "name": "tokenAmount",
          "type": "uint256"
        },
        {
          "indexed": false,
          "internalType": "uint256",
          "name": "bnbAmount",
          "type": "uint256"
        },
        {
          "indexed": false,
          "internalType": "uint256",
          "name": "remainingLocked",
          "type": "uint256"
        }
      ],
      "name": "LiquidityAdded",
      "type": "event"
    },
    {
      "anonymous": false,
      "inputs": [
        {
          "indexed": true,
          "internalType": "address",
          "name": "previousOwner",
          "type": "address"
        },
        {
          "indexed": true,
          "internalType": "address",
          "name": "newOwner",
          "type": "address"
        }
      ],
      "name": "OwnershipTransferred",
      "type": "event"
    },
    {
      "anonymous": false,
      "inputs": [
        {
          "indexed": true,
          "internalType": "address",
          "name": "token",
          "type": "address"
        },
        {
          "indexed": true,
          "internalType": "address",
          "name": "creator",
          "type": "address"
        },
        {
          "indexed": false,
          "internalType": "string",
          "name": "name",
          "type": "string"
        },
        {
          "indexed": false,
          "internalType": "string",
          "name": "symbol",
          "type": "string"
        },
        {
          "indexed": false,
          "internalType": "uint256",
          "name": "treasuryAmount",
          "type": "uint256"
        },
        {
          "indexed": false,
          "internalType": "uint256",
          "name": "liquidatedAmount",
          "type": "uint256"
        },
        {
          "indexed": false,
          "internalType": "uint256",
          "name": "lockedAmount",
          "type": "uint256"
        },
        {
          "indexed": false,
          "internalType": "address",
          "name": "pairAddress",
          "type": "address"
        }
      ],
      "name": "TokenCreated",
      "type": "event"
    },
    {
      "inputs": [],
      "name": "CREATOR_PERCENT",
      "outputs": [
        {
          "internalType": "uint256",
          "name": "",
          "type": "uint256"
        }
      ],
      "stateMutability": "view",
      "type": "function"
    },
    {
      "inputs": [],
      "name": "DEPLOY_FEE",
      "outputs": [
        {
          "internalType": "uint256",
          "name": "",
          "type": "uint256"
        }
      ],
      "stateMutability": "view",
      "type": "function"
    },
    {
      "inputs": [],
      "name": "MAX_LIQUIDATE",
      "outputs": [
        {
          "internalType": "uint256",
          "name": "",
          "type": "uint256"
        }
      ],
      "stateMutability": "view",
      "type": "function"
    },
    {
      "inputs": [],
      "name": "TOTAL_SUPPLY",
      "outputs": [
        {
          "internalType": "uint256",
          "name": "",
          "type": "uint256"
        }
      ],
      "stateMutability": "view",
      "type": "function"
    },
    {
      "inputs": [],
      "name": "TREASURY_PERCENT",
      "outputs": [
        {
          "internalType": "uint256",
          "name": "",
          "type": "uint256"
        }
      ],
      "stateMutability": "view",
      "type": "function"
    },
    {
      "inputs": [
        {
          "internalType": "address",
          "name": "token",
          "type": "address"
        },
        {
          "internalType": "uint256",
          "name": "tokenAmount",
          "type": "uint256"
        }
      ],
      "name": "addLiquidityForToken",
      "outputs": [],
      "stateMutability": "payable",
      "type": "function"
    },
    {
      "inputs": [
        {
          "internalType": "string",
          "name": "name",
          "type": "string"
        },
        {
          "internalType": "string",
          "name": "symbol",
          "type": "string"
        },
        {
          "internalType": "uint256",
          "name": "tokensToLiquidate",
          "type": "uint256"
        }
      ],
      "name": "createTokenDirect",
      "outputs": [
        {
          "internalType": "address",
          "name": "",
          "type": "address"
        }
      ],
      "stateMutability": "payable",
      "type": "function"
    },
    {
      "inputs": [],
      "name": "emergencyWithdrawBNB",
      "outputs": [],
      "stateMutability": "nonpayable",
      "type": "function"
    },
    {
      "inputs": [
        {
          "internalType": "address",
          "name": "token",
          "type": "address"
        }
      ],
      "name": "getCreatorLockedBalance",
      "outputs": [
        {
          "internalType": "uint256",
          "name": "",
          "type": "uint256"
        }
      ],
      "stateMutability": "view",
      "type": "function"
    },
    {
      "inputs": [
        {
          "internalType": "address",
          "name": "token",
          "type": "address"
        }
      ],
      "name": "getTreasuryAllocation",
      "outputs": [
        {
          "internalType": "uint256",
          "name": "",
          "type": "uint256"
        }
      ],
      "stateMutability": "view",
      "type": "function"
    },
    {
      "inputs": [],
      "name": "owner",
      "outputs": [
        {
          "internalType": "address",
          "name": "",
          "type": "address"
        }
      ],
      "stateMutability": "view",
      "type": "function"
    },
    {
      "inputs": [],
      "name": "pancakeFactory",
      "outputs": [
        {
          "internalType": "address",
          "name": "",
          "type": "address"
        }
      ],
      "stateMutability": "view",
      "type": "function"
    },
    {
      "inputs": [],
      "name": "pancakeRouter",
      "outputs": [
        {
          "internalType": "address",
          "name": "",
          "type": "address"
        }
      ],
      "stateMutability": "view",
      "type": "function"
    },
    {
      "inputs": [],
      "name": "renounceOwnership",
      "outputs": [],
      "stateMutability": "nonpayable",
      "type": "function"
    },
    {
      "inputs": [
        {
          "internalType": "address",
          "name": "newTreasury",
          "type": "address"
        }
      ],
      "name": "setTreasuryWallet",
      "outputs": [],
      "stateMutability": "nonpayable",
      "type": "function"
    },
    {
      "inputs": [
        {
          "internalType": "address",
          "name": "",
          "type": "address"
        }
      ],
      "name": "tokenAddress",
      "outputs": [
        {
          "internalType": "address",
          "name": "",
          "type": "address"
        }
      ],
      "stateMutability": "view",
      "type": "function"
    },
    {
      "inputs": [
        {
          "internalType": "address",
          "name": "",
          "type": "address"
        }
      ],
      "name": "tokenCreator",
      "outputs": [
        {
          "internalType": "address",
          "name": "",
          "type": "address"
        }
      ],
      "stateMutability": "view",
      "type": "function"
    },
    {
      "inputs": [
        {
          "internalType": "address",
          "name": "",
          "type": "address"
        }
      ],
      "name": "tokensLocked",
      "outputs": [
        {
          "internalType": "uint256",
          "name": "",
          "type": "uint256"
        }
      ],
      "stateMutability": "view",
      "type": "function"
    },
    {
      "inputs": [
        {
          "internalType": "address",
          "name": "newOwner",
          "type": "address"
        }
      ],
      "name": "transferOwnership",
      "outputs": [],
      "stateMutability": "nonpayable",
      "type": "function"
    },
    {
      "inputs": [
        {
          "internalType": "address",
          "name": "",
          "type": "address"
        }
      ],
      "name": "treasuryAllocation",
      "outputs": [
        {
          "internalType": "uint256",
          "name": "",
          "type": "uint256"
        }
      ],
      "stateMutability": "view",
      "type": "function"
    },
    {
      "inputs": [],
      "name": "treasuryWallet",
      "outputs": [
        {
          "internalType": "address",
          "name": "",
          "type": "address"
        }
      ],
      "stateMutability": "view",
      "type": "function"
    },
    {
      "stateMutability": "payable",
      "type": "receive"
    }
  ],
  "bytecode": "0x6080346100fd57601f611e1038819003918201601f19168301916001600160401b03831184841017610102578084926060946040528339810103126100fd5761004781610118565b61005f604061005860208501610118565b9301610118565b9033156100e457600080546001600160a01b03198082163390811784556040519691956001600160a01b039590948694859391908416907f8be0079c531659141344cd1fd0a4f28419497f9722a3daafe3b4186f6b6457e09080a3168560015416176001551683600254161760025516906003541617600355611ce3908161012d8239f35b604051631e4fbdf760e01b815260006004820152602490fd5b600080fd5b634e487b7160e01b600052604160045260246000fd5b51906001600160a01b03821682036100fd5756fe60808060405260043610156200001f575b5036156200001d57600080fd5b005b60003560e01c90816301a598a61462000e70575080631c64b8a11462000da457806323774af21462000e315780634626402b1462000e065780634f23daf31462000de25780635f63da2a1462000da4578063715018a61462000d4757806372e394ab1462000d1e578063829876871462000ce057806383d5e7261462000cc25780638da5cb5b1462000c97578063902d55a51462000c6e5780639884e8011462000c2f578063a8602fea1462000bac578063b04681851462000b8e578063c21ebd071462000b63578063c8fe3ab51462000876578063e0f1c9c5146200084b578063ef11d9ca146200023c578063f26b854f14620001be5763f2fde38b1462000129573862000010565b34620001b9576020366003190112620001b9576200014662000eaa565b6200015062000ef2565b6001600160a01b03908116908115620001a057600054826001600160601b0360a01b821617600055167f8be0079c531659141344cd1fd0a4f28419497f9722a3daafe3b4186f6b6457e0600080a3005b604051631e4fbdf760e01b815260006004820152602490fd5b600080fd5b34620001b9576000366003190112620001b957620001db62000ef2565b6000805481908190819047906001600160a01b03165af1620001fc62000fba565b50156200020557005b60405162461bcd60e51b815260206004820152600f60248201526e15da5d1a191c985dc819985a5b1959608a1b6044820152606490fd5b6060366003190112620001b95767ffffffffffffffff600435818111620001b9576200026d90369060040162000ec1565b602435838111620001b9576200028890369060040162000ec1565b93660aa87bee538000341115620007f6576b02e87669c308736a0400000060443511620007b15734660aa87bee537fff19810111620007225760405190610caf90818301908111838210176200079b57829162000fff83396080815262000308620002f860808301878962000f1f565b8281036020840152888662000f1f565b906b033b2e3c9fd0803ce8000000604082015260603091015203906000f0928315620006be5760015460405163a9059cbb60e01b81526001600160a01b0391821660048201526a52b7d2dcc80cd2e4000000602482015290602090829060449082906000908a165af18015620006be5762000777575b506001600160a01b03841660009081526007602052604090206a52b7d2dcc80cd2e400000090556b02e87669c308736a04000000604435810311620007225760025460405163095ea7b360e01b81526001600160a01b0391821660048201526044803560248301529091602091839182906000908a165af18015620006be5762000741575b506044351562000738576002546001600160a01b03164261012c810110620007225760405163f305d71960e01b81526001600160a01b03861660048201526044803560248301526000908201819052606482015233608482015261012c420160a482015290606090829060c4908290660aa87bee537fff193401905af18015620006be57620006ec575b506003546002546040516315ab88c960e31b81526001600160a01b0392831692909160209183916004918391165afa8015620006be57602091600091620006ca575b5060405163e6a4390560e01b81526001600160a01b038881166004830152909116602482015291829060449082905afa908115620006be5760009162000688575b50915b60018060a01b03851660005260046020526044356b02e87669c308736a0400000003604060002055600560205260406000206001600160601b0360a01b90338282541617905533600052600660205260406000209060018060a01b038716908254161790556000808080660aa87bee53800060018060a01b03600154165af16200059c62000fba565b50156200064d57602095620005c2620005d0936040519660c0885260c088019162000f1f565b918583038887015262000f1f565b6a52b7d2dcc80cd2e40000006040840152604435606084018190526b02e87669c308736a040000000360808401526001600160a01b0391821660a08401523392918416917f7701bf2ca4c7d53e00a87d43a9aa978d5ffeeb07880019007cea0a0073ef8eab9181900390a36040516001600160a01b039091168152f35b60405162461bcd60e51b8152602060048201526013602482015272119959481d1c985b9cd9995c8819985a5b1959606a1b6044820152606490fd5b620006af915060203d602011620006b6575b620006a6818362000f40565b81019062000f99565b8662000510565b503d6200069a565b6040513d6000823e3d90fd5b620006e59150823d8411620006b657620006a6818362000f40565b88620004cf565b620007129060603d6060116200071a575b62000709818362000f40565b81019062000f7d565b50506200048d565b503d620006fd565b634e487b7160e01b600052601160045260246000fd5b60009162000513565b620007679060203d6020116200076f575b6200075e818362000f40565b81019062000f63565b508562000403565b503d62000752565b620007939060203d6020116200076f576200075e818362000f40565b50856200037e565b634e487b7160e01b600052604160045260246000fd5b60405162461bcd60e51b815260206004820152601f60248201527f43616e6e6f74206c6971756964617465206d6f7265207468616e203930304d006044820152606490fd5b60405162461bcd60e51b815260206004820152602760248201527f4d7573742073656e6420424e4220666f72206c6971756964697479202b20302e6044820152663030332066656560c81b6064820152608490fd5b34620001b9576000366003190112620001b9576003546040516001600160a01b039091168152602090f35b6040366003190112620001b9576200088d62000eaa565b60249081359160018060a01b03908183169283600052602092600584528060406000205416330362000b1f57851562000ae6578460005260048452856040600020541062000aa257341562000a5e578460005260048452604060002080549087820391821162000a49575560025460405163095ea7b360e01b81529082166001600160a01b0316600482015260248101879052848160448160008a5af18015620006be5762000a27575b50600254169061012c42019283421162000a13575060405163f305d71960e01b81526001600160a01b0391909116600482015260248101869052600060448201819052606482015233608482015260a4810192909252606090829060c490829034905af18015620006be57620009f0575b50816000526004815260406000205490604051938452349084015260408301527f4a1a2a6176e9646d9e3157f7c2ab3c499f18337c0b0828cfb28e0a61de4a11f760603393a3005b62000a0b9060603d81116200071a5762000709818362000f40565b5050620009a8565b634e487b7160e01b60009081526011600452fd5b62000a4190853d87116200076f576200075e818362000f40565b508662000937565b84634e487b7160e01b60005260116004526000fd5b60405162461bcd60e51b815260048101859052601e818501527f4d7573742070726f7669646520424e4220666f72206c697175696469747900006044820152606490fd5b60405162461bcd60e51b815260048101859052601b818501527f496e73756666696369656e74206c6f636b65642062616c616e636500000000006044820152606490fd5b60405162461bcd60e51b815260048101859052601281850152710416d6f756e74206d757374206265203e20360741b6044820152606490fd5b60405162461bcd60e51b815260048101859052601e818501527f4f6e6c7920746f6b656e2063726561746f722063616e2072656c6561736500006044820152606490fd5b34620001b9576000366003190112620001b9576002546040516001600160a01b039091168152602090f35b34620001b9576000366003190112620001b9576020604051605a8152f35b34620001b9576020366003190112620001b95762000bc962000eaa565b62000bd362000ef2565b6001600160a01b0316801562000bfb576001600160601b0360a01b6001541617600155600080f35b60405162461bcd60e51b815260206004820152600c60248201526b5a65726f206164647265737360a01b6044820152606490fd5b34620001b9576020366003190112620001b95760206001600160a01b038062000c5762000eaa565b166000526006825260406000205416604051908152f35b34620001b9576000366003190112620001b95760206040516b033b2e3c9fd0803ce80000008152f35b34620001b9576000366003190112620001b9576000546040516001600160a01b039091168152602090f35b34620001b9576000366003190112620001b9576020604051600a8152f35b34620001b9576020366003190112620001b9576001600160a01b0362000d0562000eaa565b1660005260046020526020604060002054604051908152f35b34620001b9576000366003190112620001b95760206040516b02e87669c308736a040000008152f35b34620001b9576000366003190112620001b95762000d6462000ef2565b600080546001600160a01b0319811682556001600160a01b03167f8be0079c531659141344cd1fd0a4f28419497f9722a3daafe3b4186f6b6457e08280a3005b34620001b9576020366003190112620001b9576001600160a01b0362000dc962000eaa565b1660005260076020526020604060002054604051908152f35b34620001b9576000366003190112620001b9576020604051660aa87bee5380008152f35b34620001b9576000366003190112620001b9576001546040516001600160a01b039091168152602090f35b34620001b9576020366003190112620001b95760206001600160a01b038062000e5962000eaa565b166000526005825260406000205416604051908152f35b34620001b9576020366003190112620001b9576020906001600160a01b0362000e9862000eaa565b16600052600482526040600020548152f35b600435906001600160a01b0382168203620001b957565b9181601f84011215620001b95782359167ffffffffffffffff8311620001b95760208381860195010111620001b957565b6000546001600160a01b0316330362000f0757565b60405163118cdaa760e01b8152336004820152602490fd5b908060209392818452848401376000828201840152601f01601f1916010190565b90601f8019910116810190811067ffffffffffffffff8211176200079b57604052565b90816020910312620001b957518015158103620001b95790565b90816060910312620001b9578051916040602083015192015190565b90816020910312620001b957516001600160a01b0381168103620001b95790565b3d1562000ff9573d9067ffffffffffffffff82116200079b576040519162000fed601f8201601f19166020018462000f40565b82523d6000602084013e565b60609056fe60406080815234620003f45762000caf803803806200001e81620003f9565b9283398101608082820312620003f45781516001600160401b039290838111620003f45782620000509183016200041f565b926020928383015190828211620003f4576200006e9184016200041f565b906060868401519301519460018060a01b0391828716809703620003f4578151818111620002f4576003908154906001948583811c93168015620003e9575b8a841014620003d3578190601f938481116200037d575b508a9084831160011462000316576000926200030a575b505060001982851b1c191690851b1782555b8551928311620002f45760049586548581811c91168015620002e9575b8a821014620002d45782811162000289575b50889184116001146200021e5793839491849260009562000212575b50501b92600019911b1c19161782555b8415620001fb57600580546001600160a01b0319811687179091558591167f8be0079c531659141344cd1fd0a4f28419497f9722a3daafe3b4186f6b6457e0600080a360025490828201809211620001e6575060025560008381528083528481208054830190558451918252917fddf252ad1be2c89b69c2b068fc378daa952ba7f163c4a11628f55a4df523b3ef91a35161081d9081620004928239f35b601190634e487b7160e01b6000525260246000fd5b8551631e4fbdf760e01b8152600081840152602490fd5b01519350388062000138565b9190601f1984169287600052848a6000209460005b8c8983831062000271575050501062000256575b50505050811b01825562000148565b01519060f884600019921b161c191690553880808062000247565b86860151895590970196948501948893500162000233565b87600052896000208380870160051c8201928c8810620002ca575b0160051c019086905b828110620002bd5750506200011c565b60008155018690620002ad565b92508192620002a4565b602288634e487b7160e01b6000525260246000fd5b90607f16906200010a565b634e487b7160e01b600052604160045260246000fd5b015190503880620000db565b60008681528c8120899550929190601f198516908e5b8282106200036557505084116200034c575b505050811b018255620000ed565b015160001983871b60f8161c191690553880806200033e565b8385015186558b979095019493840193018e6200032c565b909150846000528a6000208480850160051c8201928d8610620003c9575b918991869594930160051c01915b828110620003b9575050620000c4565b60008155859450899101620003a9565b925081926200039b565b634e487b7160e01b600052602260045260246000fd5b92607f1692620000ad565b600080fd5b6040519190601f01601f191682016001600160401b03811183821017620002f457604052565b919080601f84011215620003f45782516001600160401b038111620002f45760209062000455601f8201601f19168301620003f9565b92818452828287010111620003f45760005b8181106200047d57508260009394955001015290565b85810183015184820184015282016200046756fe6080604081815260048036101561001557600080fd5b600092833560e01c90816306fdde031461056e57508063095ea7b3146104c557806318160ddd146104a657806323b872dd146103b3578063313ce5671461039757806370a0823114610360578063715018a6146103005780638da5cb5b146102d757806395d89b41146101b7578063a9059cbb14610186578063dd62ed3e146101395763f2fde38b146100a757600080fd5b34610135576020366003190112610135576100c06106ac565b906100c96106dd565b6001600160a01b0391821692831561011f575050600554826bffffffffffffffffffffffff60a01b821617600555167f8be0079c531659141344cd1fd0a4f28419497f9722a3daafe3b4186f6b6457e08380a380f35b51631e4fbdf760e01b8152908101849052602490fd5b8280fd5b505034610182578060031936011261018257806020926101576106ac565b61015f6106c7565b6001600160a01b0391821683526001865283832091168252845220549051908152f35b5080fd5b5050346101825780600319360112610182576020906101b06101a66106ac565b6024359033610709565b5160018152f35b50919034610182578160031936011261018257805190828454600181811c908083169283156102cd575b60209384841081146102ba5783885290811561029e5750600114610249575b505050829003601f01601f191682019267ffffffffffffffff8411838510176102365750829182610232925282610663565b0390f35b634e487b7160e01b815260418552602490fd5b8787529192508591837f8a35acfbc15ff81a39ae7d344fd709f28e8600b4aa8c65c6b64bfe7fe36bd19b5b83851061028a5750505050830101388080610200565b805488860183015293019284908201610274565b60ff1916878501525050151560051b8401019050388080610200565b634e487b7160e01b895260228a52602489fd5b91607f16916101e1565b50503461018257816003193601126101825760055490516001600160a01b039091168152602090f35b833461035d578060031936011261035d576103196106dd565b600580546001600160a01b0319811690915581906001600160a01b03167f8be0079c531659141344cd1fd0a4f28419497f9722a3daafe3b4186f6b6457e08280a380f35b80fd5b5050346101825760203660031901126101825760209181906001600160a01b036103886106ac565b16815280845220549051908152f35b5050346101825781600319360112610182576020905160128152f35b50823461035d57606036600319011261035d576103ce6106ac565b6103d66106c7565b916044359360018060a01b038316808352600160205286832033845260205286832054916000198310610412575b6020886101b0898989610709565b86831061047a57811561046357331561044c575082526001602090815286832033845281529186902090859003905582906101b087610404565b8751634a1406b160e11b8152908101849052602490fd5b875163e602df0560e01b8152908101849052602490fd5b8751637dc7a0d960e11b8152339181019182526020820193909352604081018790528291506060010390fd5b5050346101825781600319360112610182576020906002549051908152f35b50346101355781600319360112610135576104de6106ac565b602435903315610557576001600160a01b031691821561054057508083602095338152600187528181208582528752205582519081527f8c5be1e5ebec7d5bd14f71427d1e84f3dd0314c0f7b2291e5b200ac8c7c3b925843392a35160018152f35b8351634a1406b160e11b8152908101859052602490fd5b835163e602df0560e01b8152808401869052602490fd5b849150833461013557826003193601126101355782600354600181811c90808316928315610659575b60209384841081146102ba5783885290811561063d57506001146105e757505050829003601f01601f191682019267ffffffffffffffff8411838510176102365750829182610232925282610663565b600387529192508591837fc2575a0e9e593c00f959f8c92f12db2869c3395a3b0502d05e2516446f71f85b5b8385106106295750505050830101858080610200565b805488860183015293019284908201610613565b60ff1916878501525050151560051b8401019050858080610200565b91607f1691610597565b6020808252825181830181905290939260005b82811061069857505060409293506000838284010152601f8019910116010190565b818101860151848201604001528501610676565b600435906001600160a01b03821682036106c257565b600080fd5b602435906001600160a01b03821682036106c257565b6005546001600160a01b031633036106f157565b60405163118cdaa760e01b8152336004820152602490fd5b916001600160a01b038084169283156107ce57169283156107b55760009083825281602052604082205490838210610783575091604082827fddf252ad1be2c89b69c2b068fc378daa952ba7f163c4a11628f55a4df523b3ef958760209652828652038282205586815220818154019055604051908152a3565b60405163391434e360e21b81526001600160a01b03919091166004820152602481019190915260448101839052606490fd5b60405163ec442f0560e01b815260006004820152602490fd5b604051634b637e8f60e11b815260006004820152602490fdfea264697066735822122050dd5f3db156a3d5b1bab34a2a336b12e9c78e5bc38bafee3be4ff5b8b50a0b264736f6c63430008140033a264697066735822122012a03eb12de71a718a69645e6f7032f23c382b902f327f6af233223ff08a19ae64736f6c63430008140033",
  "linkReferences": {},
  "deployedLinkReferences": {}
}