{"contracts/TokenFactory.sol":{"TokenFactory":{"abi":[{"inputs":[{"internalType":"address","name":"_bondingCurve","type":"address"},{"internalType":"address","name":"_feeWallet","type":"address"},{"internalType":"address","name":"_owner","type":"address"}],"stateMutability":"nonpayable","type":"constructor"},{"inputs":[{"internalType":"address","name":"owner","type":"address"}],"name":"OwnableInvalidOwner","type":"error"},{"inputs":[{"internalType":"address","name":"account","type":"address"}],"name":"OwnableUnauthorizedAccount","type":"error"},{"anonymous":false,"inputs":[{"indexed":true,"internalType":"address","name":"newBondingCurve","type":"address"}],"name":"BondingCurveUpdated","type":"event"},{"anonymous":false,"inputs":[{"indexed":true,"internalType":"address","name":"user","type":"address"},{"indexed":false,"internalType":"uint256","name":"amount","type":"uint256"},{"indexed":false,"internalType":"string","name":"reason","type":"string"}],"name":"FeeCollected","type":"event"},{"anonymous":false,"inputs":[{"indexed":true,"internalType":"address","name":"newFeeWallet","type":"address"}],"name":"FeeWalletUpdated","type":"event"},{"anonymous":false,"inputs":[{"indexed":false,"internalType":"uint256","name":"deploymentFee","type":"uint256"},{"indexed":false,"internalType":"uint256","name":"minInitialBuy","type":"uint256"},{"indexed":false,"internalType":"uint256","name":"upgradeFee","type":"uint256"}],"name":"FeesUpdated","type":"event"},{"anonymous":false,"inputs":[{"indexed":true,"internalType":"address","name":"previousOwner","type":"address"},{"indexed":true,"internalType":"address","name":"newOwner","type":"address"}],"name":"OwnershipTransferred","type":"event"},{"anonymous":false,"inputs":[{"indexed":true,"internalType":"address","name":"user","type":"address"},{"indexed":false,"internalType":"bool","name":"status","type":"bool"}],"name":"PermissionGranted","type":"event"},{"anonymous":false,"inputs":[{"indexed":true,"internalType":"address","name":"tokenAddress","type":"address"},{"indexed":false,"internalType":"string","name":"name","type":"string"},{"indexed":false,"internalType":"string","name":"symbol","type":"string"},{"indexed":false,"internalType":"uint256","name":"supply","type":"uint256"},{"indexed":true,"internalType":"address","name":"creator","type":"address"},{"indexed":false,"internalType":"uint256","name":"deploymentFee","type":"uint256"},{"indexed":false,"internalType":"uint256","name":"initialBuyBnb","type":"uint256"}],"name":"TokenCreated","type":"event"},{"anonymous":false,"inputs":[{"indexed":true,"internalType":"address","name":"tokenAddress","type":"address"},{"indexed":true,"internalType":"address","name":"creator","type":"address"},{"indexed":false,"internalType":"uint256","name":"feePaid","type":"uint256"}],"name":"TokenUpgraded","type":"event"},{"inputs":[],"name":"DEPLOYMENT_FEE","outputs":[{"internalType":"uint256","name":"","type":"uint256"}],"stateMutability":"view","type":"function"},{"inputs":[],"name":"MIN_INITIAL_BUY","outputs":[{"internalType":"uint256","name":"","type":"uint256"}],"stateMutability":"view","type":"function"},{"inputs":[],"name":"UPGRADE_FEE","outputs":[{"internalType":"uint256","name":"","type":"uint256"}],"stateMutability":"view","type":"function"},{"inputs":[{"internalType":"uint256","name":"","type":"uint256"}],"name":"allTokens","outputs":[{"internalType":"address","name":"","type":"address"}],"stateMutability":"view","type":"function"},{"inputs":[],"name":"bondingCurve","outputs":[{"internalType":"address","name":"","type":"address"}],"stateMutability":"view","type":"function"},{"inputs":[{"internalType":"address","name":"user","type":"address"},{"internalType":"uint256","name":"amount","type":"uint256"},{"internalType":"string","name":"reason","type":"string"}],"name":"collectFee","outputs":[],"stateMutability":"nonpayable","type":"function"},{"inputs":[{"internalType":"address","name":"token","type":"address"},{"internalType":"address","name":"user","type":"address"},{"internalType":"uint256","name":"amount","type":"uint256"},{"internalType":"string","name":"reason","type":"string"}],"name":"collectToken","outputs":[],"stateMutability":"nonpayable","type":"function"},{"inputs":[{"internalType":"string","name":"name","type":"string"},{"internalType":"string","name":"symbol","type":"string"},{"internalType":"uint256","name":"virtualBnb","type":"uint256"}],"name":"createToken","outputs":[{"internalType":"address","name":"tokenAddress","type":"address"}],"stateMutability":"payable","type":"function"},{"inputs":[{"internalType":"address","name":"","type":"address"}],"name":"creatorOf","outputs":[{"internalType":"address","name":"","type":"address"}],"stateMutability":"view","type":"function"},{"inputs":[],"name":"feeWallet","outputs":[{"internalType":"address","name":"","type":"address"}],"stateMutability":"view","type":"function"},{"inputs":[],"name":"getAllTokens","outputs":[{"internalType":"address[]","name":"","type":"address[]"}],"stateMutability":"view","type":"function"},{"inputs":[{"internalType":"address","name":"creator","type":"address"}],"name":"getTokensByCreator","outputs":[{"internalType":"address[]","name":"","type":"address[]"}],"stateMutability":"view","type":"function"},{"inputs":[{"internalType":"address","name":"","type":"address"}],"name":"isLinked","outputs":[{"internalType":"bool","name":"","type":"bool"}],"stateMutability":"view","type":"function"},{"inputs":[],"name":"linkProtocol","outputs":[],"stateMutability":"nonpayable","type":"function"},{"inputs":[],"name":"owner","outputs":[{"internalType":"address","name":"","type":"address"}],"stateMutability":"view","type":"function"},{"inputs":[],"name":"renounceOwnership","outputs":[],"stateMutability":"nonpayable","type":"function"},{"inputs":[{"internalType":"address","name":"_bondingCurve","type":"address"}],"name":"setBondingCurve","outputs":[],"stateMutability":"nonpayable","type":"function"},{"inputs":[{"internalType":"address","name":"_feeWallet","type":"address"}],"name":"setFeeWallet","outputs":[],"stateMutability":"nonpayable","type":"function"},{"inputs":[{"internalType":"uint256","name":"_deploymentFee","type":"uint256"},{"internalType":"uint256","name":"_minInitialBuy","type":"uint256"},{"internalType":"uint256","name":"_upgradeFee","type":"uint256"}],"name":"setFees","outputs":[],"stateMutability":"nonpayable","type":"function"},{"inputs":[{"internalType":"address","name":"","type":"address"},{"internalType":"uint256","name":"","type":"uint256"}],"name":"tokensByCreator","outputs":[{"internalType":"address","name":"","type":"address"}],"stateMutability":"view","type":"function"},{"inputs":[],"name":"totalTokens","outputs":[{"internalType":"uint256","name":"","type":"uint256"}],"stateMutability":"view","type":"function"},{"inputs":[{"internalType":"address","name":"newOwner","type":"address"}],"name":"transferOwnership","outputs":[],"stateMutability":"nonpayable","type":"function"},{"inputs":[{"internalType":"address","name":"tokenAddress","type":"address"}],"name":"upgradeToken","outputs":[],"stateMutability":"payable","type":"function"}],"evm":{"bytecode":{"linkReferences":{},"object":"60803461019c57601f6200240f38819003918201601f191683019291906001600160401b038411838510176101a157816060928492604096875283398101031261019c5761004c816101b7565b908261005a602083016101b7565b916001600160a01b0391829161007091016101b7565b1691821561018457816000549460018060a01b031994808688161760005582885197167f8be0079c531659141344cd1fd0a4f28419497f9722a3daafe3b4186f6b6457e0600080a3660aa87bee53800060015566b1a2bc2ec50000600255662386f26fc1000060035516938415610142575016918215610109578160045416176004556005541617600555516122439081620001cc8239f35b835162461bcd60e51b8152602060048201526012602482015271125b9d985b1a5908199959481dd85b1b195d60721b6044820152606490fd5b62461bcd60e51b815260206004820152601560248201527f496e76616c696420626f6e64696e6720637572766500000000000000000000006044820152606490fd5b8451631e4fbdf760e01b815260006004820152602490fd5b600080fd5b634e487b7160e01b600052604160045260246000fd5b51906001600160a01b038216820361019c5756fe60806040818152600491823610156200001757600080fd5b600092833560e01c9182632a5c792a1462000e6e5750816339457b501462000e1657816343ff1fb81462000d9f57816359475e771462000d7e5781635b0605301462000902578163634282af14620008a45781636ee31a1814620007a6578163715018a614620007485781637e1c0c0914620007275781638da5cb5b14620006fd57816390d49b9d14620006865781639f3043c314620005c4578163a4b41c8a14620005a3578163a8f322511462000582578163b8d38253146200040c578163cec10c1114620003a2578163d5c712751462000311578163d80d03a214620002ae578163dea5c2e0146200026f578163eff1d50e1462000245578163f25f4b56146200021a578163f2fde38b146200017e575063fb1afbd7146200013a57600080fd5b346200017a5760203660031901126200017a5760209160ff9082906001600160a01b036200016762000f3a565b1681526009855220541690519015158152f35b5080fd5b9050346200021657602036600319011262000216576200019d62000f3a565b90620001a862000fb1565b6001600160a01b0391821692831562000200575050600054826bffffffffffffffffffffffff60a01b821617600055167f8be0079c531659141344cd1fd0a4f28419497f9722a3daafe3b4186f6b6457e0600080a380f35b51631e4fbdf760e01b8152908101849052602490fd5b8280fd5b5050346200017a57816003193601126200017a5760055490516001600160a01b039091168152602090f35b90503462000216578260031936011262000216575490516001600160a01b03909116815260209150f35b5050346200017a5760203660031901126200017a576020916001600160a01b03908290826200029d62000f3a565b168152600885522054169051908152f35b5050346200017a57806003193601126200017a57620002cc62000f3a565b6001600160a01b0390811683526007602052818320805460243594908510156200030e5750602093620002ff9162000f82565b92905490519260031b1c168152f35b80fd5b5050346200017a576020908160031936011262000216576001600160a01b0392836200033c62000f3a565b16815260078352818120938251908194808754938481520196845280842093915b838310620003885762000384878762000379828c038362001069565b519182918262000ef4565b0390f35b84548116885296810196600194850194909201916200035d565b9050346200021657606036600319011262000216577fcf8a1e1d5f09cf3c97dbb653cd9a4d7aace9292fbc1bb8211febf2d400febbdd91606091359060443590602435620003ef62000fb1565b83600155806002558260035581519384526020840152820152a180f35b9050346200021657608036600319011262000216576200042b62000f3a565b6001600160a01b03602435818116949293928582036200057d578693604435936064359167ffffffffffffffff831162000563576200046f86933690830162000f51565b9890956200047c62000fb1565b8a89526020988994600986526200049960ff89842054166200108c565b60055488516323b872dd60e01b81526001600160a01b03948516968101968752908216909316602086015260408501969096529094859384900360600192849291165af1801562000573576200052d575b50907fbde344b6f67c3bf7e0ecbbf22b04267d5d3ae0aa1909c0000b812f6b14ce45b994828062000527945196879687528601528401916200101d565b0390a280f35b8481819493943d83116200056b575b62000548818362001069565b810103126200056757518015150362000563579038620004ea565b8680fd5b8780fd5b503d6200053c565b82513d8a823e3d90fd5b600080fd5b5050346200017a57816003193601126200017a576020906001549051908152f35b5050346200017a57816003193601126200017a576020906003549051908152f35b905034620002165760603660031901126200021657620005e362000f3a565b916024356044359267ffffffffffffffff841162000682576200062f62000527917fbde344b6f67c3bf7e0ecbbf22b04267d5d3ae0aa1909c0000b812f6b14ce45b99536910162000f51565b6200063962000fb1565b6200066c8460018060a01b0380991698898b5260096020526200066260ff898d2054166200108c565b60055416620010cb565b845194859485528060208601528401916200101d565b8580fd5b83346200030e5760203660031901126200030e57620006a462000f3a565b620006ae62000fb1565b6001600160a01b0316620006c481151562000fde565b600580546001600160a01b031916821790557f29acee77dafcfa0143d74a7ea236018f3a6e1fa71e27fc59bbfbc6b8ca8edccd8280a280f35b5050346200017a57816003193601126200017a57905490516001600160a01b039091168152602090f35b5050346200017a57816003193601126200017a576020906006549051908152f35b83346200030e57806003193601126200030e576200076562000fb1565b600080546001600160a01b0319811682556001600160a01b03167f8be0079c531659141344cd1fd0a4f28419497f9722a3daafe3b4186f6b6457e08280a380f35b91905060203660031901126200021657620007c062000f3a565b600354341062000861576001600160a01b039081168085526008602052828520549093908216156200082c5750620007fe90349060055416620010cb565b51903482527f89e75c42f7cca6a6e4ad53c63f1b4a422ba2cc998dd8b5a3234dfcd95cc163c960203393a380f35b606490602084519162461bcd60e51b8352820152600f60248201526e151bdad95b881b9bdd08199bdd5b99608a1b6044820152fd5b815162461bcd60e51b8152602081850152601860248201527f496e73756666696369656e7420757067726164652066656500000000000000006044820152606490fd5b90503462000216576020366003190112620002165735600654811015620002165760066000527ff652222313e28459528d920b65115c16c04f3efc82aaedc97be59f3f377c0d3f015490516001600160a01b03909116815260209150f35b9190506060366003190112620002165767ffffffffffffffff823581811162000c415762000934903690850162000f51565b949060249182358481116200017a5762000952903690880162000f51565b909160018060a01b0397886005541695863314968760001462000d745783975b1562000d5157835b341062000cfe578b1562000ccc57841562000c9857878062000c85575b505089825416978a600554168a5191611095808401918483109083111762000c45579160c08f9260128f948c8c8f620009e690620009f5948c9b620011798d3960e0885260e08801916200101d565b9185830360208701526200101d565b94820152633b9aca009d8e606083015233608083015260a08201520152039084f0801562000c7b578a169960065468010000000000000000908181101562000c6957600181018060065581101562000c57577ff652222313e28459528d920b65115c16c04f3efc82aaedc97be59f3f377c0d3f0180546001600160a01b03199081168e1790915533865260076020528b86208054919282101562000c45578162000aa6918f93600101815562000f82565b84829392549160031b92831b921b19161790558b855260086020528a852090339082541617905580835416803b1562000c41578a51630ea38b3160e31b81526001600160a01b038d1685820190815233602082015260443560408201529091869183919082908490829060600103925af1801562000c375762000c21575b508734039734891162000c0f57340362000bad575b50505050927fa1fdd9d625a3d9910d1d8f8431da95fb346446dc9687e2f12468dd20cc4691a39262000b9260209993899662000b84600154948b519760a0895260a08901916200101d565b918683038d8801526200101d565b9587840152606083015260808201528033940390a351908152f35b82541691823b1562000c0b5783918b91898c51958694859363f088d54760e01b85528401525af1801562000c015762000be9575b808062000b39565b62000bf582916200103e565b6200030e578062000be1565b88513d84823e3d90fd5b8380fd5b634e487b7160e01b8552601184528285fd5b62000c2f909491946200103e565b923862000b24565b8b513d87823e3d90fd5b8480fd5b634e487b7160e01b8752604186528487fd5b634e487b7160e01b8652603285528386fd5b634e487b7160e01b8652604185528386fd5b89513d85823e3d90fd5b62000c9091620010cb565b388762000997565b895162461bcd60e51b8152602081850152600f818401526e14de5b589bdb081c995c5d5a5c9959608a1b6044820152606490fd5b895162461bcd60e51b8152602081850152600d818401526c13985b59481c995c5d5a5c9959609a1b6044820152606490fd5b895162461bcd60e51b81526020818501526028818401527f496e73756666696369656e7420424e423a206e65656420666565202b20696e696044820152677469616c2062757960c01b6064820152608490fd5b6001546002548101809111156200097a57634e487b7160e01b8552601184528285fd5b6001549762000972565b5050346200017a57816003193601126200017a576020906002549051908152f35b8390346200017a5760203660031901126200017a5762000dbe62000f3a565b62000dc862000fb1565b6001600160a01b03169062000ddf82151562000fde565b80546001600160a01b031916821790557fc4fda5d836a9aaafabd3088c5f5dcabfe179c3b392b09dbac0e8727667f3c7768280a280f35b5050346200017a57816003193601126200017a573382526009602052808220600160ff1982541617905551600181527f9896b4eed33ea0bcc03386bf8d03b92659362f6180a8671a40cfe4ed5159e2dd60203392a280f35b849084346200021657826003193601126200021657600680548084529084526020808401947ff652222313e28459528d920b65115c16c04f3efc82aaedc97be59f3f377c0d3f92915b82821062000ed35762000384868662000379828b038362001069565b83546001600160a01b03168752958601956001938401939091019062000eb7565b6020908160408183019282815285518094520193019160005b82811062000f1c575050505090565b83516001600160a01b03168552938101939281019260010162000f0d565b600435906001600160a01b03821682036200057d57565b9181601f840112156200057d5782359167ffffffffffffffff83116200057d57602083818601950101116200057d57565b805482101562000f9b5760005260206000200190600090565b634e487b7160e01b600052603260045260246000fd5b6000546001600160a01b0316330362000fc657565b60405163118cdaa760e01b8152336004820152602490fd5b1562000fe657565b60405162461bcd60e51b815260206004820152600f60248201526e496e76616c6964206164647265737360881b6044820152606490fd5b908060209392818452848401376000828201840152601f01601f1916010190565b67ffffffffffffffff81116200105357604052565b634e487b7160e01b600052604160045260246000fd5b90601f8019910116810190811067ffffffffffffffff8211176200105357604052565b156200109457565b60405162461bcd60e51b815260206004820152600f60248201526e155cd95c881b9bdd081b1a5b9ad959608a1b6044820152606490fd5b600080808094819460018060a01b03165af1903d1562001171573d9067ffffffffffffffff82116200115d576040519162001111601f8201601f19166020018462001069565b825260203d92013e5b156200112257565b60405162461bcd60e51b8152602060048201526013602482015272109390881d1c985b9cd9995c8819985a5b1959606a1b6044820152606490fd5b634e487b7160e01b81526041600452602490fd5b506200111a56fe60406080815234620005605762001095803803806200001e8162000565565b928339810160e082820312620005605781516001600160401b03929083811162000560578262000050918301620005b0565b90602092838201519085821162000560576200006e918301620005b0565b858201519360ff8516918286036200056057606084015193620000946080820162000607565b97620000b160c0620000a960a0850162000607565b930162000607565b91875182811162000460576003928354936001928386811c9616801562000555575b898710146200053f57601f95868111620004f4575b508089878211600114620004825760009162000476575b5060001982841b1c191690841b1781555b8651918211620004605760049485548481811c9116801562000455575b8a8210146200044057818111620003f5575b50889083116001146200038b57829383916000946200037f575b501b92600019911b1c19161782555b6001600160a01b038181169a9099908b156200036857600580546001600160a01b031981168e179091558b91908d9083167f8be0079c531659141344cd1fd0a4f28419497f9722a3daafe3b4186f6b6457e0600080a316998a156200033357841615620002fb57600680546001600160a81b0319168b1760a09290921b60ff60a01b16919091179055604d8611620002e65785600a0a92838802938885041488151715620002d157600a84049384810393818511620002bc5750927fcfdd2334c592eec854e571de05695acf7ad2753c264d043eefdac143cb72adc099979592620002819592620002739a98956200029c575b505050508a519687966080885260808801906200061c565b91868303908701526200061c565b918884015260608301520390a3516109bf9081620006d68239f35b620002b293620002ac9162000643565b62000643565b388080806200025b565b601190634e487b7160e01b6000525260246000fd5b601183634e487b7160e01b6000525260246000fd5b601182634e487b7160e01b6000525260246000fd5b8b5162461bcd60e51b81528084018790526012602482015271125b9d985b1a5908199959481dd85b1b195d60721b6044820152606490fd5b8c5162461bcd60e51b8152808501889052600f60248201526e24b73b30b634b21031b932b0ba37b960891b6044820152606490fd5b8c51631e4fbdf760e01b8152600081860152602490fd5b89015193503862000159565b90601f1983169186600052838a6000209360005b8c888d848410620003de575050505010620003c3575b505050811b01825562000168565b8801519060f884600019921b161c19169055388080620003b5565b86015188559096019593840193879350016200039f565b86600052896000208280860160051c8201928c871062000436575b0160051c019085905b828110620004295750506200013f565b6000815501859062000419565b9250819262000410565b602287634e487b7160e01b6000525260246000fd5b90607f16906200012d565b634e487b7160e01b600052604160045260246000fd5b90508c015138620000ff565b60008481528b812087945091908f90601f198516908e5b828210620004d25750508411620004b9575b505050811b01815562000110565b015160001983861b60f8161c1916905538808e620004ab565b929484849395979892960151815501940192018f909188959493928e62000499565b82600052896000208780840160051c8201928c851062000535575b0160051c019085905b82811062000528575050620000e8565b6000815501859062000518565b925081926200050f565b634e487b7160e01b600052602260045260246000fd5b95607f1695620000d3565b600080fd5b6040519190601f01601f191682016001600160401b038111838210176200046057604052565b60005b8381106200059f5750506000910152565b81810151838201526020016200058e565b81601f82011215620005605780516001600160401b0381116200046057620005e2601f8201601f191660200162000565565b928184526020828401011162000560576200060491602080850191016200058b565b90565b51906001600160a01b03821682036200056057565b9060209162000637815180928185528580860191016200058b565b601f01601f1916010190565b6001600160a01b0316908115620006bc5760025490808201809211620006a65760207fddf252ad1be2c89b69c2b068fc378daa952ba7f163c4a11628f55a4df523b3ef9160009360025584845283825260408420818154019055604051908152a3565b634e487b7160e01b600052601160045260246000fd5b60405163ec442f0560e01b815260006004820152602490fdfe6080604081815260048036101561001557600080fd5b600092833560e01c90816302d05d3f146107e05750806306fdde0314610705578063095ea7b31461065c57806318160ddd1461063d57806323b872dd1461054a578063313ce5671461052557806340c10f191461047657806342966c68146103b857806370a0823114610381578063715018a6146103215780638da5cb5b146102f857806395d89b41146101d8578063a9059cbb146101a7578063dd62ed3e1461015a5763f2fde38b146100c857600080fd5b34610156576020366003190112610156576100e161084e565b906100ea61087f565b6001600160a01b03918216928315610140575050600554826bffffffffffffffffffffffff60a01b821617600555167f8be0079c531659141344cd1fd0a4f28419497f9722a3daafe3b4186f6b6457e08380a380f35b51631e4fbdf760e01b8152908101849052602490fd5b8280fd5b5050346101a357806003193601126101a3578060209261017861084e565b610180610869565b6001600160a01b0391821683526001865283832091168252845220549051908152f35b5080fd5b5050346101a357806003193601126101a3576020906101d16101c761084e565b60243590336108ab565b5160018152f35b509190346101a357816003193601126101a357805190828454600181811c908083169283156102ee575b60209384841081146102db578388529081156102bf575060011461026a575b505050829003601f01601f191682019267ffffffffffffffff8411838510176102575750829182610253925282610805565b0390f35b634e487b7160e01b815260418552602490fd5b8787529192508591837f8a35acfbc15ff81a39ae7d344fd709f28e8600b4aa8c65c6b64bfe7fe36bd19b5b8385106102ab5750505050830101388080610221565b805488860183015293019284908201610295565b60ff1916878501525050151560051b8401019050388080610221565b634e487b7160e01b895260228a52602489fd5b91607f1691610202565b5050346101a357816003193601126101a35760055490516001600160a01b039091168152602090f35b833461037e578060031936011261037e5761033a61087f565b600580546001600160a01b0319811690915581906001600160a01b03167f8be0079c531659141344cd1fd0a4f28419497f9722a3daafe3b4186f6b6457e08280a380f35b80fd5b5050346101a35760203660031901126101a35760209181906001600160a01b036103a961084e565b16815280845220549051908152f35b509190346101a35760203660031901126101a3578235906103d761087f565b33156104605733835282602052808320549382851061043557508183943385528460205203818420558160025403600255519081527fddf252ad1be2c89b69c2b068fc378daa952ba7f163c4a11628f55a4df523b3ef60203392a380f35b905163391434e360e21b81523391810191825260208201859052604082018390529081906060010390fd5b51634b637e8f60e11b8152808401839052602490fd5b50903461015657806003193601126101565761049061084e565b906024359161049d61087f565b6001600160a01b031692831561051057600254908382018092116104fd575084927fddf252ad1be2c89b69c2b068fc378daa952ba7f163c4a11628f55a4df523b3ef9260209260025585855284835280852082815401905551908152a380f35b634e487b7160e01b865260119052602485fd5b84602492519163ec442f0560e01b8352820152fd5b5050346101a357816003193601126101a35760209060ff60065460a01c169051908152f35b50823461037e57606036600319011261037e5761056561084e565b61056d610869565b916044359360018060a01b0383168083526001602052868320338452602052868320549160001983106105a9575b6020886101d18989896108ab565b8683106106115781156105fa5733156105e3575082526001602090815286832033845281529186902090859003905582906101d18761059b565b8751634a1406b160e11b8152908101849052602490fd5b875163e602df0560e01b8152908101849052602490fd5b8751637dc7a0d960e11b8152339181019182526020820193909352604081018790528291506060010390fd5b5050346101a357816003193601126101a3576020906002549051908152f35b503461015657816003193601126101565761067561084e565b6024359033156106ee576001600160a01b03169182156106d757508083602095338152600187528181208582528752205582519081527f8c5be1e5ebec7d5bd14f71427d1e84f3dd0314c0f7b2291e5b200ac8c7c3b925843392a35160018152f35b8351634a1406b160e11b8152908101859052602490fd5b835163e602df0560e01b8152808401869052602490fd5b509190346101a357816003193601126101a35780519082600354600181811c908083169283156107d6575b60209384841081146102db578388529081156102bf575060011461078057505050829003601f01601f191682019267ffffffffffffffff8411838510176102575750829182610253925282610805565b600387529192508591837fc2575a0e9e593c00f959f8c92f12db2869c3395a3b0502d05e2516446f71f85b5b8385106107c25750505050830101388080610221565b8054888601830152930192849082016107ac565b91607f1691610730565b8490346101a357816003193601126101a3576006546001600160a01b03168152602090f35b6020808252825181830181905290939260005b82811061083a57505060409293506000838284010152601f8019910116010190565b818101860151848201604001528501610818565b600435906001600160a01b038216820361086457565b600080fd5b602435906001600160a01b038216820361086457565b6005546001600160a01b0316330361089357565b60405163118cdaa760e01b8152336004820152602490fd5b916001600160a01b0380841692831561097057169283156109575760009083825281602052604082205490838210610925575091604082827fddf252ad1be2c89b69c2b068fc378daa952ba7f163c4a11628f55a4df523b3ef958760209652828652038282205586815220818154019055604051908152a3565b60405163391434e360e21b81526001600160a01b03919091166004820152602481019190915260448101839052606490fd5b60405163ec442f0560e01b815260006004820152602490fd5b604051634b637e8f60e11b815260006004820152602490fdfea264697066735822122003d7c9640adcd55ffbbf8768e6fa0fe4cdced22d5238ac6375e677ed3cb9de3564736f6c63430008140033a264697066735822122028d1b450977582b59ca8a7415ffecb3c6aec3d091cbe636bcddca350eb20dd6b64736f6c63430008140033","opcodes":"PUSH1 0x80 CALLVALUE PUSH2 0x19C JUMPI PUSH1 0x1F PUSH3 0x240F CODESIZE DUP2 SWAP1 SUB SWAP2 DUP3 ADD PUSH1 0x1F NOT AND DUP4 ADD SWAP3 SWAP2 SWAP1 PUSH1 0x1 PUSH1 0x1 PUSH1 0x40 SHL SUB DUP5 GT DUP4 DUP6 LT OR PUSH2 0x1A1 JUMPI DUP2 PUSH1 0x60 SWAP3 DUP5 SWAP3 PUSH1 0x40 SWAP7 DUP8 MSTORE DUP4 CODECOPY DUP2 ADD SUB SLT PUSH2 0x19C JUMPI PUSH2 0x4C DUP2 PUSH2 0x1B7 JUMP JUMPDEST SWAP1 DUP3 PUSH2 0x5A PUSH1 0x20 DUP4 ADD PUSH2 0x1B7 JUMP JUMPDEST SWAP2 PUSH1 0x1 PUSH1 0x1 PUSH1 0xA0 SHL SUB SWAP2 DUP3 SWAP2 PUSH2 0x70 SWAP2 ADD PUSH2 0x1B7 JUMP JUMPDEST AND SWAP2 DUP3 ISZERO PUSH2 0x184 JUMPI DUP2 PUSH1 0x0 SLOAD SWAP5 PUSH1 0x1 DUP1 PUSH1 0xA0 SHL SUB NOT SWAP5 DUP1 DUP7 DUP9 AND OR PUSH1 0x0 SSTORE DUP3 DUP9 MLOAD SWAP8 AND PUSH32 0x8BE0079C531659141344CD1FD0A4F28419497F9722A3DAAFE3B4186F6B6457E0 PUSH1 0x0 DUP1 LOG3 PUSH7 0xAA87BEE538000 PUSH1 0x1 SSTORE PUSH7 0xB1A2BC2EC50000 PUSH1 0x2 SSTORE PUSH7 0x2386F26FC10000 PUSH1 0x3 SSTORE AND SWAP4 DUP5 ISZERO PUSH2 0x142 JUMPI POP AND SWAP2 DUP3 ISZERO PUSH2 0x109 JUMPI DUP2 PUSH1 0x4 SLOAD AND OR PUSH1 0x4 SSTORE PUSH1 0x5 SLOAD AND OR PUSH1 0x5 SSTORE MLOAD PUSH2 0x2243 SWAP1 DUP2 PUSH3 0x1CC DUP3 CODECOPY RETURN JUMPDEST DUP4 MLOAD PUSH3 0x461BCD PUSH1 0xE5 SHL DUP2 MSTORE PUSH1 0x20 PUSH1 0x4 DUP3 ADD MSTORE PUSH1 0x12 PUSH1 0x24 DUP3 ADD MSTORE PUSH18 0x125B9D985B1A5908199959481DD85B1B195D PUSH1 0x72 SHL PUSH1 0x44 DUP3 ADD MSTORE PUSH1 0x64 SWAP1 REVERT JUMPDEST PUSH3 0x461BCD PUSH1 0xE5 SHL DUP2 MSTORE PUSH1 0x20 PUSH1 0x4 DUP3 ADD MSTORE PUSH1 0x15 PUSH1 0x24 DUP3 ADD MSTORE PUSH32 0x496E76616C696420626F6E64696E672063757276650000000000000000000000 PUSH1 0x44 DUP3 ADD MSTORE PUSH1 0x64 SWAP1 REVERT JUMPDEST DUP5 MLOAD PUSH4 0x1E4FBDF7 PUSH1 0xE0 SHL DUP2 MSTORE PUSH1 0x0 PUSH1 0x4 DUP3 ADD MSTORE PUSH1 0x24 SWAP1 REVERT JUMPDEST PUSH1 0x0 DUP1 REVERT JUMPDEST PUSH4 0x4E487B71 PUSH1 0xE0 SHL PUSH1 0x0 MSTORE PUSH1 0x41 PUSH1 0x4 MSTORE PUSH1 0x24 PUSH1 0x0 REVERT JUMPDEST MLOAD SWAP1 PUSH1 0x1 PUSH1 0x1 PUSH1 0xA0 SHL SUB DUP3 AND DUP3 SUB PUSH2 0x19C JUMPI JUMP INVALID PUSH1 0x80 PUSH1 0x40 DUP2 DUP2 MSTORE PUSH1 0x4 SWAP2 DUP3 CALLDATASIZE LT ISZERO PUSH3 0x17 JUMPI PUSH1 0x0 DUP1 REVERT JUMPDEST PUSH1 0x0 SWAP3 DUP4 CALLDATALOAD PUSH1 0xE0 SHR SWAP2 DUP3 PUSH4 0x2A5C792A EQ PUSH3 0xE6E JUMPI POP DUP2 PUSH4 0x39457B50 EQ PUSH3 0xE16 JUMPI DUP2 PUSH4 0x43FF1FB8 EQ PUSH3 0xD9F JUMPI DUP2 PUSH4 0x59475E77 EQ PUSH3 0xD7E JUMPI DUP2 PUSH4 0x5B060530 EQ PUSH3 0x902 JUMPI DUP2 PUSH4 0x634282AF EQ PUSH3 0x8A4 JUMPI DUP2 PUSH4 0x6EE31A18 EQ PUSH3 0x7A6 JUMPI DUP2 PUSH4 0x715018A6 EQ PUSH3 0x748 JUMPI DUP2 PUSH4 0x7E1C0C09 EQ PUSH3 0x727 JUMPI DUP2 PUSH4 0x8DA5CB5B EQ PUSH3 0x6FD JUMPI DUP2 PUSH4 0x90D49B9D EQ PUSH3 0x686 JUMPI DUP2 PUSH4 0x9F3043C3 EQ PUSH3 0x5C4 JUMPI DUP2 PUSH4 0xA4B41C8A EQ PUSH3 0x5A3 JUMPI DUP2 PUSH4 0xA8F32251 EQ PUSH3 0x582 JUMPI DUP2 PUSH4 0xB8D38253 EQ PUSH3 0x40C JUMPI DUP2 PUSH4 0xCEC10C11 EQ PUSH3 0x3A2 JUMPI DUP2 PUSH4 0xD5C71275 EQ PUSH3 0x311 JUMPI DUP2 PUSH4 0xD80D03A2 EQ PUSH3 0x2AE JUMPI DUP2 PUSH4 0xDEA5C2E0 EQ PUSH3 0x26F JUMPI DUP2 PUSH4 0xEFF1D50E EQ PUSH3 0x245 JUMPI DUP2 PUSH4 0xF25F4B56 EQ PUSH3 0x21A JUMPI DUP2 PUSH4 0xF2FDE38B EQ PUSH3 0x17E JUMPI POP PUSH4 0xFB1AFBD7 EQ PUSH3 0x13A JUMPI PUSH1 0x0 DUP1 REVERT JUMPDEST CALLVALUE PUSH3 0x17A JUMPI PUSH1 0x20 CALLDATASIZE PUSH1 0x3 NOT ADD SLT PUSH3 0x17A JUMPI PUSH1 0x20 SWAP2 PUSH1 0xFF SWAP1 DUP3 SWAP1 PUSH1 0x1 PUSH1 0x1 PUSH1 0xA0 SHL SUB PUSH3 0x167 PUSH3 0xF3A JUMP JUMPDEST AND DUP2 MSTORE PUSH1 0x9 DUP6 MSTORE KECCAK256 SLOAD AND SWAP1 MLOAD SWAP1 ISZERO ISZERO DUP2 MSTORE RETURN JUMPDEST POP DUP1 REVERT JUMPDEST SWAP1 POP CALLVALUE PUSH3 0x216 JUMPI PUSH1 0x20 CALLDATASIZE PUSH1 0x3 NOT ADD SLT PUSH3 0x216 JUMPI PUSH3 0x19D PUSH3 0xF3A JUMP JUMPDEST SWAP1 PUSH3 0x1A8 PUSH3 0xFB1 JUMP JUMPDEST PUSH1 0x1 PUSH1 0x1 PUSH1 0xA0 SHL SUB SWAP2 DUP3 AND SWAP3 DUP4 ISZERO PUSH3 0x200 JUMPI POP POP PUSH1 0x0 SLOAD DUP3 PUSH12 0xFFFFFFFFFFFFFFFFFFFFFFFF PUSH1 0xA0 SHL DUP3 AND OR PUSH1 0x0 SSTORE AND PUSH32 0x8BE0079C531659141344CD1FD0A4F28419497F9722A3DAAFE3B4186F6B6457E0 PUSH1 0x0 DUP1 LOG3 DUP1 RETURN JUMPDEST MLOAD PUSH4 0x1E4FBDF7 PUSH1 0xE0 SHL DUP2 MSTORE SWAP1 DUP2 ADD DUP5 SWAP1 MSTORE PUSH1 0x24 SWAP1 REVERT JUMPDEST DUP3 DUP1 REVERT JUMPDEST POP POP CALLVALUE PUSH3 0x17A JUMPI DUP2 PUSH1 0x3 NOT CALLDATASIZE ADD SLT PUSH3 0x17A JUMPI PUSH1 0x5 SLOAD SWAP1 MLOAD PUSH1 0x1 PUSH1 0x1 PUSH1 0xA0 SHL SUB SWAP1 SWAP2 AND DUP2 MSTORE PUSH1 0x20 SWAP1 RETURN JUMPDEST SWAP1 POP CALLVALUE PUSH3 0x216 JUMPI DUP3 PUSH1 0x3 NOT CALLDATASIZE ADD SLT PUSH3 0x216 JUMPI SLOAD SWAP1 MLOAD PUSH1 0x1 PUSH1 0x1 PUSH1 0xA0 SHL SUB SWAP1 SWAP2 AND DUP2 MSTORE PUSH1 0x20 SWAP2 POP RETURN JUMPDEST POP POP CALLVALUE PUSH3 0x17A JUMPI PUSH1 0x20 CALLDATASIZE PUSH1 0x3 NOT ADD SLT PUSH3 0x17A JUMPI PUSH1 0x20 SWAP2 PUSH1 0x1 PUSH1 0x1 PUSH1 0xA0 SHL SUB SWAP1 DUP3 SWAP1 DUP3 PUSH3 0x29D PUSH3 0xF3A JUMP JUMPDEST AND DUP2 MSTORE PUSH1 0x8 DUP6 MSTORE KECCAK256 SLOAD AND SWAP1 MLOAD SWAP1 DUP2 MSTORE RETURN JUMPDEST POP POP CALLVALUE PUSH3 0x17A JUMPI DUP1 PUSH1 0x3 NOT CALLDATASIZE ADD SLT PUSH3 0x17A JUMPI PUSH3 0x2CC PUSH3 0xF3A JUMP JUMPDEST PUSH1 0x1 PUSH1 0x1 PUSH1 0xA0 SHL SUB SWAP1 DUP2 AND DUP4 MSTORE PUSH1 0x7 PUSH1 0x20 MSTORE DUP2 DUP4 KECCAK256 DUP1 SLOAD PUSH1 0x24 CALLDATALOAD SWAP5 SWAP1 DUP6 LT ISZERO PUSH3 0x30E JUMPI POP PUSH1 0x20 SWAP4 PUSH3 0x2FF SWAP2 PUSH3 0xF82 JUMP JUMPDEST SWAP3 SWAP1 SLOAD SWAP1 MLOAD SWAP3 PUSH1 0x3 SHL SHR AND DUP2 MSTORE RETURN JUMPDEST DUP1 REVERT JUMPDEST POP POP CALLVALUE PUSH3 0x17A JUMPI PUSH1 0x20 SWAP1 DUP2 PUSH1 0x3 NOT CALLDATASIZE ADD SLT PUSH3 0x216 JUMPI PUSH1 0x1 PUSH1 0x1 PUSH1 0xA0 SHL SUB SWAP3 DUP4 PUSH3 0x33C PUSH3 0xF3A JUMP JUMPDEST AND DUP2 MSTORE PUSH1 0x7 DUP4 MSTORE DUP2 DUP2 KECCAK256 SWAP4 DUP3 MLOAD SWAP1 DUP2 SWAP5 DUP1 DUP8 SLOAD SWAP4 DUP5 DUP2 MSTORE ADD SWAP7 DUP5 MSTORE DUP1 DUP5 KECCAK256 SWAP4 SWAP2 JUMPDEST DUP4 DUP4 LT PUSH3 0x388 JUMPI PUSH3 0x384 DUP8 DUP8 PUSH3 0x379 DUP3 DUP13 SUB DUP4 PUSH3 0x1069 JUMP JUMPDEST MLOAD SWAP2 DUP3 SWAP2 DUP3 PUSH3 0xEF4 JUMP JUMPDEST SUB SWAP1 RETURN JUMPDEST DUP5 SLOAD DUP2 AND DUP9 MSTORE SWAP7 DUP2 ADD SWAP7 PUSH1 0x1 SWAP5 DUP6 ADD SWAP5 SWAP1 SWAP3 ADD SWAP2 PUSH3 0x35D JUMP JUMPDEST SWAP1 POP CALLVALUE PUSH3 0x216 JUMPI PUSH1 0x60 CALLDATASIZE PUSH1 0x3 NOT ADD SLT PUSH3 0x216 JUMPI PUSH32 0xCF8A1E1D5F09CF3C97DBB653CD9A4D7AACE9292FBC1BB8211FEBF2D400FEBBDD SWAP2 PUSH1 0x60 SWAP2 CALLDATALOAD SWAP1 PUSH1 0x44 CALLDATALOAD SWAP1 PUSH1 0x24 CALLDATALOAD PUSH3 0x3EF PUSH3 0xFB1 JUMP JUMPDEST DUP4 PUSH1 0x1 SSTORE DUP1 PUSH1 0x2 SSTORE DUP3 PUSH1 0x3 SSTORE DUP2 MLOAD SWAP4 DUP5 MSTORE PUSH1 0x20 DUP5 ADD MSTORE DUP3 ADD MSTORE LOG1 DUP1 RETURN JUMPDEST SWAP1 POP CALLVALUE PUSH3 0x216 JUMPI PUSH1 0x80 CALLDATASIZE PUSH1 0x3 NOT ADD SLT PUSH3 0x216 JUMPI PUSH3 0x42B PUSH3 0xF3A JUMP JUMPDEST PUSH1 0x1 PUSH1 0x1 PUSH1 0xA0 SHL SUB PUSH1 0x24 CALLDATALOAD DUP2 DUP2 AND SWAP5 SWAP3 SWAP4 SWAP3 DUP6 DUP3 SUB PUSH3 0x57D JUMPI DUP7 SWAP4 PUSH1 0x44 CALLDATALOAD SWAP4 PUSH1 0x64 CALLDATALOAD SWAP2 PUSH8 0xFFFFFFFFFFFFFFFF DUP4 GT PUSH3 0x563 JUMPI PUSH3 0x46F DUP7 SWAP4 CALLDATASIZE SWAP1 DUP4 ADD PUSH3 0xF51 JUMP JUMPDEST SWAP9 SWAP1 SWAP6 PUSH3 0x47C PUSH3 0xFB1 JUMP JUMPDEST DUP11 DUP10 MSTORE PUSH1 0x20 SWAP9 DUP10 SWAP5 PUSH1 0x9 DUP7 MSTORE PUSH3 0x499 PUSH1 0xFF DUP10 DUP5 KECCAK256 SLOAD AND PUSH3 0x108C JUMP JUMPDEST PUSH1 0x5 SLOAD DUP9 MLOAD PUSH4 0x23B872DD PUSH1 0xE0 SHL DUP2 MSTORE PUSH1 0x1 PUSH1 0x1 PUSH1 0xA0 SHL SUB SWAP5 DUP6 AND SWAP7 DUP2 ADD SWAP7 DUP8 MSTORE SWAP1 DUP3 AND SWAP1 SWAP4 AND PUSH1 0x20 DUP7 ADD MSTORE PUSH1 0x40 DUP6 ADD SWAP7 SWAP1 SWAP7 MSTORE SWAP1 SWAP5 DUP6 SWAP4 DUP5 SWAP1 SUB PUSH1 0x60 ADD SWAP3 DUP5 SWAP3 SWAP2 AND GAS CALL DUP1 ISZERO PUSH3 0x573 JUMPI PUSH3 0x52D JUMPI JUMPDEST POP SWAP1 PUSH32 0xBDE344B6F67C3BF7E0ECBBF22B04267D5D3AE0AA1909C0000B812F6B14CE45B9 SWAP5 DUP3 DUP1 PUSH3 0x527 SWAP5 MLOAD SWAP7 DUP8 SWAP7 DUP8 MSTORE DUP7 ADD MSTORE DUP5 ADD SWAP2 PUSH3 0x101D JUMP JUMPDEST SUB SWAP1 LOG2 DUP1 RETURN JUMPDEST DUP5 DUP2 DUP2 SWAP5 SWAP4 SWAP5 RETURNDATASIZE DUP4 GT PUSH3 0x56B JUMPI JUMPDEST PUSH3 0x548 DUP2 DUP4 PUSH3 0x1069 JUMP JUMPDEST DUP2 ADD SUB SLT PUSH3 0x567 JUMPI MLOAD DUP1 ISZERO ISZERO SUB PUSH3 0x563 JUMPI SWAP1 CODESIZE PUSH3 0x4EA JUMP JUMPDEST DUP7 DUP1 REVERT JUMPDEST DUP8 DUP1 REVERT JUMPDEST POP RETURNDATASIZE PUSH3 0x53C JUMP JUMPDEST DUP3 MLOAD RETURNDATASIZE DUP11 DUP3 RETURNDATACOPY RETURNDATASIZE SWAP1 REVERT JUMPDEST PUSH1 0x0 DUP1 REVERT JUMPDEST POP POP CALLVALUE PUSH3 0x17A JUMPI DUP2 PUSH1 0x3 NOT CALLDATASIZE ADD SLT PUSH3 0x17A JUMPI PUSH1 0x20 SWAP1 PUSH1 0x1 SLOAD SWAP1 MLOAD SWAP1 DUP2 MSTORE RETURN JUMPDEST POP POP CALLVALUE PUSH3 0x17A JUMPI DUP2 PUSH1 0x3 NOT CALLDATASIZE ADD SLT PUSH3 0x17A JUMPI PUSH1 0x20 SWAP1 PUSH1 0x3 SLOAD SWAP1 MLOAD SWAP1 DUP2 MSTORE RETURN JUMPDEST SWAP1 POP CALLVALUE PUSH3 0x216 JUMPI PUSH1 0x60 CALLDATASIZE PUSH1 0x3 NOT ADD SLT PUSH3 0x216 JUMPI PUSH3 0x5E3 PUSH3 0xF3A JUMP JUMPDEST SWAP2 PUSH1 0x24 CALLDATALOAD PUSH1 0x44 CALLDATALOAD SWAP3 PUSH8 0xFFFFFFFFFFFFFFFF DUP5 GT PUSH3 0x682 JUMPI PUSH3 0x62F PUSH3 0x527 SWAP2 PUSH32 0xBDE344B6F67C3BF7E0ECBBF22B04267D5D3AE0AA1909C0000B812F6B14CE45B9 SWAP6 CALLDATASIZE SWAP2 ADD PUSH3 0xF51 JUMP JUMPDEST PUSH3 0x639 PUSH3 0xFB1 JUMP JUMPDEST PUSH3 0x66C DUP5 PUSH1 0x1 DUP1 PUSH1 0xA0 SHL SUB DUP1 SWAP10 AND SWAP9 DUP10 DUP12 MSTORE PUSH1 0x9 PUSH1 0x20 MSTORE PUSH3 0x662 PUSH1 0xFF DUP10 DUP14 KECCAK256 SLOAD AND PUSH3 0x108C JUMP JUMPDEST PUSH1 0x5 SLOAD AND PUSH3 0x10CB JUMP JUMPDEST DUP5 MLOAD SWAP5 DUP6 SWAP5 DUP6 MSTORE DUP1 PUSH1 0x20 DUP7 ADD MSTORE DUP5 ADD SWAP2 PUSH3 0x101D JUMP JUMPDEST DUP6 DUP1 REVERT JUMPDEST DUP4 CALLVALUE PUSH3 0x30E JUMPI PUSH1 0x20 CALLDATASIZE PUSH1 0x3 NOT ADD SLT PUSH3 0x30E JUMPI PUSH3 0x6A4 PUSH3 0xF3A JUMP JUMPDEST PUSH3 0x6AE PUSH3 0xFB1 JUMP JUMPDEST PUSH1 0x1 PUSH1 0x1 PUSH1 0xA0 SHL SUB AND PUSH3 0x6C4 DUP2 ISZERO ISZERO PUSH3 0xFDE JUMP JUMPDEST PUSH1 0x5 DUP1 SLOAD PUSH1 0x1 PUSH1 0x1 PUSH1 0xA0 SHL SUB NOT AND DUP3 OR SWAP1 SSTORE PUSH32 0x29ACEE77DAFCFA0143D74A7EA236018F3A6E1FA71E27FC59BBFBC6B8CA8EDCCD DUP3 DUP1 LOG2 DUP1 RETURN JUMPDEST POP POP CALLVALUE PUSH3 0x17A JUMPI DUP2 PUSH1 0x3 NOT CALLDATASIZE ADD SLT PUSH3 0x17A JUMPI SWAP1 SLOAD SWAP1 MLOAD PUSH1 0x1 PUSH1 0x1 PUSH1 0xA0 SHL SUB SWAP1 SWAP2 AND DUP2 MSTORE PUSH1 0x20 SWAP1 RETURN JUMPDEST POP POP CALLVALUE PUSH3 0x17A JUMPI DUP2 PUSH1 0x3 NOT CALLDATASIZE ADD SLT PUSH3 0x17A JUMPI PUSH1 0x20 SWAP1 PUSH1 0x6 SLOAD SWAP1 MLOAD SWAP1 DUP2 MSTORE RETURN JUMPDEST DUP4 CALLVALUE PUSH3 0x30E JUMPI DUP1 PUSH1 0x3 NOT CALLDATASIZE ADD SLT PUSH3 0x30E JUMPI PUSH3 0x765 PUSH3 0xFB1 JUMP JUMPDEST PUSH1 0x0 DUP1 SLOAD PUSH1 0x1 PUSH1 0x1 PUSH1 0xA0 SHL SUB NOT DUP2 AND DUP3 SSTORE PUSH1 0x1 PUSH1 0x1 PUSH1 0xA0 SHL SUB AND PUSH32 0x8BE0079C531659141344CD1FD0A4F28419497F9722A3DAAFE3B4186F6B6457E0 DUP3 DUP1 LOG3 DUP1 RETURN JUMPDEST SWAP2 SWAP1 POP PUSH1 0x20 CALLDATASIZE PUSH1 0x3 NOT ADD SLT PUSH3 0x216 JUMPI PUSH3 0x7C0 PUSH3 0xF3A JUMP JUMPDEST PUSH1 0x3 SLOAD CALLVALUE LT PUSH3 0x861 JUMPI PUSH1 0x1 PUSH1 0x1 PUSH1 0xA0 SHL SUB SWAP1 DUP2 AND DUP1 DUP6 MSTORE PUSH1 0x8 PUSH1 0x20 MSTORE DUP3 DUP6 KECCAK256 SLOAD SWAP1 SWAP4 SWAP1 DUP3 AND ISZERO PUSH3 0x82C JUMPI POP PUSH3 0x7FE SWAP1 CALLVALUE SWAP1 PUSH1 0x5 SLOAD AND PUSH3 0x10CB JUMP JUMPDEST MLOAD SWAP1 CALLVALUE DUP3 MSTORE PUSH32 0x89E75C42F7CCA6A6E4AD53C63F1B4A422BA2CC998DD8B5A3234DFCD95CC163C9 PUSH1 0x20 CALLER SWAP4 LOG3 DUP1 RETURN JUMPDEST PUSH1 0x64 SWAP1 PUSH1 0x20 DUP5 MLOAD SWAP2 PUSH3 0x461BCD PUSH1 0xE5 SHL DUP4 MSTORE DUP3 ADD MSTORE PUSH1 0xF PUSH1 0x24 DUP3 ADD MSTORE PUSH15 0x151BDAD95B881B9BDD08199BDD5B99 PUSH1 0x8A SHL PUSH1 0x44 DUP3 ADD MSTORE REVERT JUMPDEST DUP2 MLOAD PUSH3 0x461BCD PUSH1 0xE5 SHL DUP2 MSTORE PUSH1 0x20 DUP2 DUP6 ADD MSTORE PUSH1 0x18 PUSH1 0x24 DUP3 ADD MSTORE PUSH32 0x496E73756666696369656E742075706772616465206665650000000000000000 PUSH1 0x44 DUP3 ADD MSTORE PUSH1 0x64 SWAP1 REVERT JUMPDEST SWAP1 POP CALLVALUE PUSH3 0x216 JUMPI PUSH1 0x20 CALLDATASIZE PUSH1 0x3 NOT ADD SLT PUSH3 0x216 JUMPI CALLDATALOAD PUSH1 0x6 SLOAD DUP2 LT ISZERO PUSH3 0x216 JUMPI PUSH1 0x6 PUSH1 0x0 MSTORE PUSH32 0xF652222313E28459528D920B65115C16C04F3EFC82AAEDC97BE59F3F377C0D3F ADD SLOAD SWAP1 MLOAD PUSH1 0x1 PUSH1 0x1 PUSH1 0xA0 SHL SUB SWAP1 SWAP2 AND DUP2 MSTORE PUSH1 0x20 SWAP2 POP RETURN JUMPDEST SWAP2 SWAP1 POP PUSH1 0x60 CALLDATASIZE PUSH1 0x3 NOT ADD SLT PUSH3 0x216 JUMPI PUSH8 0xFFFFFFFFFFFFFFFF DUP3 CALLDATALOAD DUP2 DUP2 GT PUSH3 0xC41 JUMPI PUSH3 0x934 SWAP1 CALLDATASIZE SWAP1 DUP6 ADD PUSH3 0xF51 JUMP JUMPDEST SWAP5 SWAP1 PUSH1 0x24 SWAP2 DUP3 CALLDATALOAD DUP5 DUP2 GT PUSH3 0x17A JUMPI PUSH3 0x952 SWAP1 CALLDATASIZE SWAP1 DUP9 ADD PUSH3 0xF51 JUMP JUMPDEST SWAP1 SWAP2 PUSH1 0x1 DUP1 PUSH1 0xA0 SHL SUB SWAP8 DUP9 PUSH1 0x5 SLOAD AND SWAP6 DUP7 CALLER EQ SWAP7 DUP8 PUSH1 0x0 EQ PUSH3 0xD74 JUMPI DUP4 SWAP8 JUMPDEST ISZERO PUSH3 0xD51 JUMPI DUP4 JUMPDEST CALLVALUE LT PUSH3 0xCFE JUMPI DUP12 ISZERO PUSH3 0xCCC JUMPI DUP5 ISZERO PUSH3 0xC98 JUMPI DUP8 DUP1 PUSH3 0xC85 JUMPI JUMPDEST POP POP DUP10 DUP3 SLOAD AND SWAP8 DUP11 PUSH1 0x5 SLOAD AND DUP11 MLOAD SWAP2 PUSH2 0x1095 DUP1 DUP5 ADD SWAP2 DUP5 DUP4 LT SWAP1 DUP4 GT OR PUSH3 0xC45 JUMPI SWAP2 PUSH1 0xC0 DUP16 SWAP3 PUSH1 0x12 DUP16 SWAP5 DUP13 DUP13 DUP16 PUSH3 0x9E6 SWAP1 PUSH3 0x9F5 SWAP5 DUP13 SWAP12 PUSH3 0x1179 DUP14 CODECOPY PUSH1 0xE0 DUP9 MSTORE PUSH1 0xE0 DUP9 ADD SWAP2 PUSH3 0x101D JUMP JUMPDEST SWAP2 DUP6 DUP4 SUB PUSH1 0x20 DUP8 ADD MSTORE PUSH3 0x101D JUMP JUMPDEST SWAP5 DUP3 ADD MSTORE PUSH4 0x3B9ACA00 SWAP14 DUP15 PUSH1 0x60 DUP4 ADD MSTORE CALLER PUSH1 0x80 DUP4 ADD MSTORE PUSH1 0xA0 DUP3 ADD MSTORE ADD MSTORE SUB SWAP1 DUP5 CREATE DUP1 ISZERO PUSH3 0xC7B JUMPI DUP11 AND SWAP10 PUSH1 0x6 SLOAD PUSH9 0x10000000000000000 SWAP1 DUP2 DUP2 LT ISZERO PUSH3 0xC69 JUMPI PUSH1 0x1 DUP2 ADD DUP1 PUSH1 0x6 SSTORE DUP2 LT ISZERO PUSH3 0xC57 JUMPI PUSH32 0xF652222313E28459528D920B65115C16C04F3EFC82AAEDC97BE59F3F377C0D3F ADD DUP1 SLOAD PUSH1 0x1 PUSH1 0x1 PUSH1 0xA0 SHL SUB NOT SWAP1 DUP2 AND DUP15 OR SWAP1 SWAP2 SSTORE CALLER DUP7 MSTORE PUSH1 0x7 PUSH1 0x20 MSTORE DUP12 DUP7 KECCAK256 DUP1 SLOAD SWAP2 SWAP3 DUP3 LT ISZERO PUSH3 0xC45 JUMPI DUP2 PUSH3 0xAA6 SWAP2 DUP16 SWAP4 PUSH1 0x1 ADD DUP2 SSTORE PUSH3 0xF82 JUMP JUMPDEST DUP5 DUP3 SWAP4 SWAP3 SLOAD SWAP2 PUSH1 0x3 SHL SWAP3 DUP4 SHL SWAP3 SHL NOT AND OR SWAP1 SSTORE DUP12 DUP6 MSTORE PUSH1 0x8 PUSH1 0x20 MSTORE DUP11 DUP6 KECCAK256 SWAP1 CALLER SWAP1 DUP3 SLOAD AND OR SWAP1 SSTORE DUP1 DUP4 SLOAD AND DUP1 EXTCODESIZE ISZERO PUSH3 0xC41 JUMPI DUP11 MLOAD PUSH4 0xEA38B31 PUSH1 0xE3 SHL DUP2 MSTORE PUSH1 0x1 PUSH1 0x1 PUSH1 0xA0 SHL SUB DUP14 AND DUP6 DUP3 ADD SWAP1 DUP2 MSTORE CALLER PUSH1 0x20 DUP3 ADD MSTORE PUSH1 0x44 CALLDATALOAD PUSH1 0x40 DUP3 ADD MSTORE SWAP1 SWAP2 DUP7 SWAP2 DUP4 SWAP2 SWAP1 DUP3 SWAP1 DUP5 SWAP1 DUP3 SWAP1 PUSH1 0x60 ADD SUB SWAP3 GAS CALL DUP1 ISZERO PUSH3 0xC37 JUMPI PUSH3 0xC21 JUMPI JUMPDEST POP DUP8 CALLVALUE SUB SWAP8 CALLVALUE DUP10 GT PUSH3 0xC0F JUMPI CALLVALUE SUB PUSH3 0xBAD JUMPI JUMPDEST POP POP POP POP SWAP3 PUSH32 0xA1FDD9D625A3D9910D1D8F8431DA95FB346446DC9687E2F12468DD20CC4691A3 SWAP3 PUSH3 0xB92 PUSH1 0x20 SWAP10 SWAP4 DUP10 SWAP7 PUSH3 0xB84 PUSH1 0x1 SLOAD SWAP5 DUP12 MLOAD SWAP8 PUSH1 0xA0 DUP10 MSTORE PUSH1 0xA0 DUP10 ADD SWAP2 PUSH3 0x101D JUMP JUMPDEST SWAP2 DUP7 DUP4 SUB DUP14 DUP9 ADD MSTORE PUSH3 0x101D JUMP JUMPDEST SWAP6 DUP8 DUP5 ADD MSTORE PUSH1 0x60 DUP4 ADD MSTORE PUSH1 0x80 DUP3 ADD MSTORE DUP1 CALLER SWAP5 SUB SWAP1 LOG3 MLOAD SWAP1 DUP2 MSTORE RETURN JUMPDEST DUP3 SLOAD AND SWAP2 DUP3 EXTCODESIZE ISZERO PUSH3 0xC0B JUMPI DUP4 SWAP2 DUP12 SWAP2 DUP10 DUP13 MLOAD SWAP6 DUP7 SWAP5 DUP6 SWAP4 PUSH4 0xF088D547 PUSH1 0xE0 SHL DUP6 MSTORE DUP5 ADD MSTORE GAS CALL DUP1 ISZERO PUSH3 0xC01 JUMPI PUSH3 0xBE9 JUMPI JUMPDEST DUP1 DUP1 PUSH3 0xB39 JUMP JUMPDEST PUSH3 0xBF5 DUP3 SWAP2 PUSH3 0x103E JUMP JUMPDEST PUSH3 0x30E JUMPI DUP1 PUSH3 0xBE1 JUMP JUMPDEST DUP9 MLOAD RETURNDATASIZE DUP5 DUP3 RETURNDATACOPY RETURNDATASIZE SWAP1 REVERT JUMPDEST DUP4 DUP1 REVERT JUMPDEST PUSH4 0x4E487B71 PUSH1 0xE0 SHL DUP6 MSTORE PUSH1 0x11 DUP5 MSTORE DUP3 DUP6 REVERT JUMPDEST PUSH3 0xC2F SWAP1 SWAP5 SWAP2 SWAP5 PUSH3 0x103E JUMP JUMPDEST SWAP3 CODESIZE PUSH3 0xB24 JUMP JUMPDEST DUP12 MLOAD RETURNDATASIZE DUP8 DUP3 RETURNDATACOPY RETURNDATASIZE SWAP1 REVERT JUMPDEST DUP5 DUP1 REVERT JUMPDEST PUSH4 0x4E487B71 PUSH1 0xE0 SHL DUP8 MSTORE PUSH1 0x41 DUP7 MSTORE DUP5 DUP8 REVERT JUMPDEST PUSH4 0x4E487B71 PUSH1 0xE0 SHL DUP7 MSTORE PUSH1 0x32 DUP6 MSTORE DUP4 DUP7 REVERT JUMPDEST PUSH4 0x4E487B71 PUSH1 0xE0 SHL DUP7 MSTORE PUSH1 0x41 DUP6 MSTORE DUP4 DUP7 REVERT JUMPDEST DUP10 MLOAD RETURNDATASIZE DUP6 DUP3 RETURNDATACOPY RETURNDATASIZE SWAP1 REVERT JUMPDEST PUSH3 0xC90 SWAP2 PUSH3 0x10CB JUMP JUMPDEST CODESIZE DUP8 PUSH3 0x997 JUMP JUMPDEST DUP10 MLOAD PUSH3 0x461BCD PUSH1 0xE5 SHL DUP2 MSTORE PUSH1 0x20 DUP2 DUP6 ADD MSTORE PUSH1 0xF DUP2 DUP5 ADD MSTORE PUSH15 0x14DE5B589BDB081C995C5D5A5C9959 PUSH1 0x8A SHL PUSH1 0x44 DUP3 ADD MSTORE PUSH1 0x64 SWAP1 REVERT JUMPDEST DUP10 MLOAD PUSH3 0x461BCD PUSH1 0xE5 SHL DUP2 MSTORE PUSH1 0x20 DUP2 DUP6 ADD MSTORE PUSH1 0xD DUP2 DUP5 ADD MSTORE PUSH13 0x13985B59481C995C5D5A5C9959 PUSH1 0x9A SHL PUSH1 0x44 DUP3 ADD MSTORE PUSH1 0x64 SWAP1 REVERT JUMPDEST DUP10 MLOAD PUSH3 0x461BCD PUSH1 0xE5 SHL DUP2 MSTORE PUSH1 0x20 DUP2 DUP6 ADD MSTORE PUSH1 0x28 DUP2 DUP5 ADD MSTORE PUSH32 0x496E73756666696369656E7420424E423A206E65656420666565202B20696E69 PUSH1 0x44 DUP3 ADD MSTORE PUSH8 0x7469616C20627579 PUSH1 0xC0 SHL PUSH1 0x64 DUP3 ADD MSTORE PUSH1 0x84 SWAP1 REVERT JUMPDEST PUSH1 0x1 SLOAD PUSH1 0x2 SLOAD DUP2 ADD DUP1 SWAP2 GT ISZERO PUSH3 0x97A JUMPI PUSH4 0x4E487B71 PUSH1 0xE0 SHL DUP6 MSTORE PUSH1 0x11 DUP5 MSTORE DUP3 DUP6 REVERT JUMPDEST PUSH1 0x1 SLOAD SWAP8 PUSH3 0x972 JUMP JUMPDEST POP POP CALLVALUE PUSH3 0x17A JUMPI DUP2 PUSH1 0x3 NOT CALLDATASIZE ADD SLT PUSH3 0x17A JUMPI PUSH1 0x20 SWAP1 PUSH1 0x2 SLOAD SWAP1 MLOAD SWAP1 DUP2 MSTORE RETURN JUMPDEST DUP4 SWAP1 CALLVALUE PUSH3 0x17A JUMPI PUSH1 0x20 CALLDATASIZE PUSH1 0x3 NOT ADD SLT PUSH3 0x17A JUMPI PUSH3 0xDBE PUSH3 0xF3A JUMP JUMPDEST PUSH3 0xDC8 PUSH3 0xFB1 JUMP JUMPDEST PUSH1 0x1 PUSH1 0x1 PUSH1 0xA0 SHL SUB AND SWAP1 PUSH3 0xDDF DUP3 ISZERO ISZERO PUSH3 0xFDE JUMP JUMPDEST DUP1 SLOAD PUSH1 0x1 PUSH1 0x1 PUSH1 0xA0 SHL SUB NOT AND DUP3 OR SWAP1 SSTORE PUSH32 0xC4FDA5D836A9AAAFABD3088C5F5DCABFE179C3B392B09DBAC0E8727667F3C776 DUP3 DUP1 LOG2 DUP1 RETURN JUMPDEST POP POP CALLVALUE PUSH3 0x17A JUMPI DUP2 PUSH1 0x3 NOT CALLDATASIZE ADD SLT PUSH3 0x17A JUMPI CALLER DUP3 MSTORE PUSH1 0x9 PUSH1 0x20 MSTORE DUP1 DUP3 KECCAK256 PUSH1 0x1 PUSH1 0xFF NOT DUP3 SLOAD AND OR SWAP1 SSTORE MLOAD PUSH1 0x1 DUP2 MSTORE PUSH32 0x9896B4EED33EA0BCC03386BF8D03B92659362F6180A8671A40CFE4ED5159E2DD PUSH1 0x20 CALLER SWAP3 LOG2 DUP1 RETURN JUMPDEST DUP5 SWAP1 DUP5 CALLVALUE PUSH3 0x216 JUMPI DUP3 PUSH1 0x3 NOT CALLDATASIZE ADD SLT PUSH3 0x216 JUMPI PUSH1 0x6 DUP1 SLOAD DUP1 DUP5 MSTORE SWAP1 DUP5 MSTORE PUSH1 0x20 DUP1 DUP5 ADD SWAP5 PUSH32 0xF652222313E28459528D920B65115C16C04F3EFC82AAEDC97BE59F3F377C0D3F SWAP3 SWAP2 JUMPDEST DUP3 DUP3 LT PUSH3 0xED3 JUMPI PUSH3 0x384 DUP7 DUP7 PUSH3 0x379 DUP3 DUP12 SUB DUP4 PUSH3 0x1069 JUMP JUMPDEST DUP4 SLOAD PUSH1 0x1 PUSH1 0x1 PUSH1 0xA0 SHL SUB AND DUP8 MSTORE SWAP6 DUP7 ADD SWAP6 PUSH1 0x1 SWAP4 DUP5 ADD SWAP4 SWAP1 SWAP2 ADD SWAP1 PUSH3 0xEB7 JUMP JUMPDEST PUSH1 0x20 SWAP1 DUP2 PUSH1 0x40 DUP2 DUP4 ADD SWAP3 DUP3 DUP2 MSTORE DUP6 MLOAD DUP1 SWAP5 MSTORE ADD SWAP4 ADD SWAP2 PUSH1 0x0 JUMPDEST DUP3 DUP2 LT PUSH3 0xF1C JUMPI POP POP POP POP SWAP1 JUMP JUMPDEST DUP4 MLOAD PUSH1 0x1 PUSH1 0x1 PUSH1 0xA0 SHL SUB AND DUP6 MSTORE SWAP4 DUP2 ADD SWAP4 SWAP3 DUP2 ADD SWAP3 PUSH1 0x1 ADD PUSH3 0xF0D JUMP JUMPDEST PUSH1 0x4 CALLDATALOAD SWAP1 PUSH1 0x1 PUSH1 0x1 PUSH1 0xA0 SHL SUB DUP3 AND DUP3 SUB PUSH3 0x57D JUMPI JUMP JUMPDEST SWAP2 DUP2 PUSH1 0x1F DUP5 ADD SLT ISZERO PUSH3 0x57D JUMPI DUP3 CALLDATALOAD SWAP2 PUSH8 0xFFFFFFFFFFFFFFFF DUP4 GT PUSH3 0x57D JUMPI PUSH1 0x20 DUP4 DUP2 DUP7 ADD SWAP6 ADD ADD GT PUSH3 0x57D JUMPI JUMP JUMPDEST DUP1 SLOAD DUP3 LT ISZERO PUSH3 0xF9B JUMPI PUSH1 0x0 MSTORE PUSH1 0x20 PUSH1 0x0 KECCAK256 ADD SWAP1 PUSH1 0x0 SWAP1 JUMP JUMPDEST PUSH4 0x4E487B71 PUSH1 0xE0 SHL PUSH1 0x0 MSTORE PUSH1 0x32 PUSH1 0x4 MSTORE PUSH1 0x24 PUSH1 0x0 REVERT JUMPDEST PUSH1 0x0 SLOAD PUSH1 0x1 PUSH1 0x1 PUSH1 0xA0 SHL SUB AND CALLER SUB PUSH3 0xFC6 JUMPI JUMP JUMPDEST PUSH1 0x40 MLOAD PUSH4 0x118CDAA7 PUSH1 0xE0 SHL DUP2 MSTORE CALLER PUSH1 0x4 DUP3 ADD MSTORE PUSH1 0x24 SWAP1 REVERT JUMPDEST ISZERO PUSH3 0xFE6 JUMPI JUMP JUMPDEST PUSH1 0x40 MLOAD PUSH3 0x461BCD PUSH1 0xE5 SHL DUP2 MSTORE PUSH1 0x20 PUSH1 0x4 DUP3 ADD MSTORE PUSH1 0xF PUSH1 0x24 DUP3 ADD MSTORE PUSH15 0x496E76616C69642061646472657373 PUSH1 0x88 SHL PUSH1 0x44 DUP3 ADD MSTORE PUSH1 0x64 SWAP1 REVERT JUMPDEST SWAP1 DUP1 PUSH1 0x20 SWAP4 SWAP3 DUP2 DUP5 MSTORE DUP5 DUP5 ADD CALLDATACOPY PUSH1 0x0 DUP3 DUP3 ADD DUP5 ADD MSTORE PUSH1 0x1F ADD PUSH1 0x1F NOT AND ADD ADD SWAP1 JUMP JUMPDEST PUSH8 0xFFFFFFFFFFFFFFFF DUP2 GT PUSH3 0x1053 JUMPI PUSH1 0x40 MSTORE JUMP JUMPDEST PUSH4 0x4E487B71 PUSH1 0xE0 SHL PUSH1 0x0 MSTORE PUSH1 0x41 PUSH1 0x4 MSTORE PUSH1 0x24 PUSH1 0x0 REVERT JUMPDEST SWAP1 PUSH1 0x1F DUP1 NOT SWAP2 ADD AND DUP2 ADD SWAP1 DUP2 LT PUSH8 0xFFFFFFFFFFFFFFFF DUP3 GT OR PUSH3 0x1053 JUMPI PUSH1 0x40 MSTORE JUMP JUMPDEST ISZERO PUSH3 0x1094 JUMPI JUMP JUMPDEST PUSH1 0x40 MLOAD PUSH3 0x461BCD PUSH1 0xE5 SHL DUP2 MSTORE PUSH1 0x20 PUSH1 0x4 DUP3 ADD MSTORE PUSH1 0xF PUSH1 0x24 DUP3 ADD MSTORE PUSH15 0x155CD95C881B9BDD081B1A5B9AD959 PUSH1 0x8A SHL PUSH1 0x44 DUP3 ADD MSTORE PUSH1 0x64 SWAP1 REVERT JUMPDEST PUSH1 0x0 DUP1 DUP1 DUP1 SWAP5 DUP2 SWAP5 PUSH1 0x1 DUP1 PUSH1 0xA0 SHL SUB AND GAS CALL SWAP1 RETURNDATASIZE ISZERO PUSH3 0x1171 JUMPI RETURNDATASIZE SWAP1 PUSH8 0xFFFFFFFFFFFFFFFF DUP3 GT PUSH3 0x115D JUMPI PUSH1 0x40 MLOAD SWAP2 PUSH3 0x1111 PUSH1 0x1F DUP3 ADD PUSH1 0x1F NOT AND PUSH1 0x20 ADD DUP5 PUSH3 0x1069 JUMP JUMPDEST DUP3 MSTORE PUSH1 0x20 RETURNDATASIZE SWAP3 ADD RETURNDATACOPY JUMPDEST ISZERO PUSH3 0x1122 JUMPI JUMP JUMPDEST PUSH1 0x40 MLOAD PUSH3 0x461BCD PUSH1 0xE5 SHL DUP2 MSTORE PUSH1 0x20 PUSH1 0x4 DUP3 ADD MSTORE PUSH1 0x13 PUSH1 0x24 DUP3 ADD MSTORE PUSH19 0x109390881D1C985B9CD9995C8819985A5B1959 PUSH1 0x6A SHL PUSH1 0x44 DUP3 ADD MSTORE PUSH1 0x64 SWAP1 REVERT JUMPDEST PUSH4 0x4E487B71 PUSH1 0xE0 SHL DUP2 MSTORE PUSH1 0x41 PUSH1 0x4 MSTORE PUSH1 0x24 SWAP1 REVERT JUMPDEST POP PUSH3 0x111A JUMP INVALID PUSH1 0x40 PUSH1 0x80 DUP2 MSTORE CALLVALUE PUSH3 0x560 JUMPI PUSH3 0x1095 DUP1 CODESIZE SUB DUP1 PUSH3 0x1E DUP2 PUSH3 0x565 JUMP JUMPDEST SWAP3 DUP4 CODECOPY DUP2 ADD PUSH1 0xE0 DUP3 DUP3 SUB SLT PUSH3 0x560 JUMPI DUP2 MLOAD PUSH1 0x1 PUSH1 0x1 PUSH1 0x40 SHL SUB SWAP3 SWAP1 DUP4 DUP2 GT PUSH3 0x560 JUMPI DUP3 PUSH3 0x50 SWAP2 DUP4 ADD PUSH3 0x5B0 JUMP JUMPDEST SWAP1 PUSH1 0x20 SWAP3 DUP4 DUP3 ADD MLOAD SWAP1 DUP6 DUP3 GT PUSH3 0x560 JUMPI PUSH3 0x6E SWAP2 DUP4 ADD PUSH3 0x5B0 JUMP JUMPDEST DUP6 DUP3 ADD MLOAD SWAP4 PUSH1 0xFF DUP6 AND SWAP2 DUP3 DUP7 SUB PUSH3 0x560 JUMPI PUSH1 0x60 DUP5 ADD MLOAD SWAP4 PUSH3 0x94 PUSH1 0x80 DUP3 ADD PUSH3 0x607 JUMP JUMPDEST SWAP8 PUSH3 0xB1 PUSH1 0xC0 PUSH3 0xA9 PUSH1 0xA0 DUP6 ADD PUSH3 0x607 JUMP JUMPDEST SWAP4 ADD PUSH3 0x607 JUMP JUMPDEST SWAP2 DUP8 MLOAD DUP3 DUP2 GT PUSH3 0x460 JUMPI PUSH1 0x3 SWAP3 DUP4 SLOAD SWAP4 PUSH1 0x1 SWAP3 DUP4 DUP7 DUP2 SHR SWAP7 AND DUP1 ISZERO PUSH3 0x555 JUMPI JUMPDEST DUP10 DUP8 LT EQ PUSH3 0x53F JUMPI PUSH1 0x1F SWAP6 DUP7 DUP2 GT PUSH3 0x4F4 JUMPI JUMPDEST POP DUP1 DUP10 DUP8 DUP3 GT PUSH1 0x1 EQ PUSH3 0x482 JUMPI PUSH1 0x0 SWAP2 PUSH3 0x476 JUMPI JUMPDEST POP PUSH1 0x0 NOT DUP3 DUP5 SHL SHR NOT AND SWAP1 DUP5 SHL OR DUP2 SSTORE JUMPDEST DUP7 MLOAD SWAP2 DUP3 GT PUSH3 0x460 JUMPI PUSH1 0x4 SWAP5 DUP6 SLOAD DUP5 DUP2 DUP2 SHR SWAP2 AND DUP1 ISZERO PUSH3 0x455 JUMPI JUMPDEST DUP11 DUP3 LT EQ PUSH3 0x440 JUMPI DUP2 DUP2 GT PUSH3 0x3F5 JUMPI JUMPDEST POP DUP9 SWAP1 DUP4 GT PUSH1 0x1 EQ PUSH3 0x38B JUMPI DUP3 SWAP4 DUP4 SWAP2 PUSH1 0x0 SWAP5 PUSH3 0x37F JUMPI JUMPDEST POP SHL SWAP3 PUSH1 0x0 NOT SWAP2 SHL SHR NOT AND OR DUP3 SSTORE JUMPDEST PUSH1 0x1 PUSH1 0x1 PUSH1 0xA0 SHL SUB DUP2 DUP2 AND SWAP11 SWAP1 SWAP10 SWAP1 DUP12 ISZERO PUSH3 0x368 JUMPI PUSH1 0x5 DUP1 SLOAD PUSH1 0x1 PUSH1 0x1 PUSH1 0xA0 SHL SUB NOT DUP2 AND DUP15 OR SWAP1 SWAP2 SSTORE DUP12 SWAP2 SWAP1 DUP14 SWAP1 DUP4 AND PUSH32 0x8BE0079C531659141344CD1FD0A4F28419497F9722A3DAAFE3B4186F6B6457E0 PUSH1 0x0 DUP1 LOG3 AND SWAP10 DUP11 ISZERO PUSH3 0x333 JUMPI DUP5 AND ISZERO PUSH3 0x2FB JUMPI PUSH1 0x6 DUP1 SLOAD PUSH1 0x1 PUSH1 0x1 PUSH1 0xA8 SHL SUB NOT AND DUP12 OR PUSH1 0xA0 SWAP3 SWAP1 SWAP3 SHL PUSH1 0xFF PUSH1 0xA0 SHL AND SWAP2 SWAP1 SWAP2 OR SWAP1 SSTORE PUSH1 0x4D DUP7 GT PUSH3 0x2E6 JUMPI DUP6 PUSH1 0xA EXP SWAP3 DUP4 DUP9 MUL SWAP4 DUP9 DUP6 DIV EQ DUP9 ISZERO OR ISZERO PUSH3 0x2D1 JUMPI PUSH1 0xA DUP5 DIV SWAP4 DUP5 DUP2 SUB SWAP4 DUP2 DUP6 GT PUSH3 0x2BC JUMPI POP SWAP3 PUSH32 0xCFDD2334C592EEC854E571DE05695ACF7AD2753C264D043EEFDAC143CB72ADC0 SWAP10 SWAP8 SWAP6 SWAP3 PUSH3 0x281 SWAP6 SWAP3 PUSH3 0x273 SWAP11 SWAP9 SWAP6 PUSH3 0x29C JUMPI JUMPDEST POP POP POP POP DUP11 MLOAD SWAP7 DUP8 SWAP7 PUSH1 0x80 DUP9 MSTORE PUSH1 0x80 DUP9 ADD SWAP1 PUSH3 0x61C JUMP JUMPDEST SWAP2 DUP7 DUP4 SUB SWAP1 DUP8 ADD MSTORE PUSH3 0x61C JUMP JUMPDEST SWAP2 DUP9 DUP5 ADD MSTORE PUSH1 0x60 DUP4 ADD MSTORE SUB SWAP1 LOG3 MLOAD PUSH2 0x9BF SWAP1 DUP2 PUSH3 0x6D6 DUP3 CODECOPY RETURN JUMPDEST PUSH3 0x2B2 SWAP4 PUSH3 0x2AC SWAP2 PUSH3 0x643 JUMP JUMPDEST PUSH3 0x643 JUMP JUMPDEST CODESIZE DUP1 DUP1 DUP1 PUSH3 0x25B JUMP JUMPDEST PUSH1 0x11 SWAP1 PUSH4 0x4E487B71 PUSH1 0xE0 SHL PUSH1 0x0 MSTORE MSTORE PUSH1 0x24 PUSH1 0x0 REVERT JUMPDEST PUSH1 0x11 DUP4 PUSH4 0x4E487B71 PUSH1 0xE0 SHL PUSH1 0x0 MSTORE MSTORE PUSH1 0x24 PUSH1 0x0 REVERT JUMPDEST PUSH1 0x11 DUP3 PUSH4 0x4E487B71 PUSH1 0xE0 SHL PUSH1 0x0 MSTORE MSTORE PUSH1 0x24 PUSH1 0x0 REVERT JUMPDEST DUP12 MLOAD PUSH3 0x461BCD PUSH1 0xE5 SHL DUP2 MSTORE DUP1 DUP5 ADD DUP8 SWAP1 MSTORE PUSH1 0x12 PUSH1 0x24 DUP3 ADD MSTORE PUSH18 0x125B9D985B1A5908199959481DD85B1B195D PUSH1 0x72 SHL PUSH1 0x44 DUP3 ADD MSTORE PUSH1 0x64 SWAP1 REVERT JUMPDEST DUP13 MLOAD PUSH3 0x461BCD PUSH1 0xE5 SHL DUP2 MSTORE DUP1 DUP6 ADD DUP9 SWAP1 MSTORE PUSH1 0xF PUSH1 0x24 DUP3 ADD MSTORE PUSH15 0x24B73B30B634B21031B932B0BA37B9 PUSH1 0x89 SHL PUSH1 0x44 DUP3 ADD MSTORE PUSH1 0x64 SWAP1 REVERT JUMPDEST DUP13 MLOAD PUSH4 0x1E4FBDF7 PUSH1 0xE0 SHL DUP2 MSTORE PUSH1 0x0 DUP2 DUP7 ADD MSTORE PUSH1 0x24 SWAP1 REVERT JUMPDEST DUP10 ADD MLOAD SWAP4 POP CODESIZE PUSH3 0x159 JUMP JUMPDEST SWAP1 PUSH1 0x1F NOT DUP4 AND SWAP2 DUP7 PUSH1 0x0 MSTORE DUP4 DUP11 PUSH1 0x0 KECCAK256 SWAP4 PUSH1 0x0 JUMPDEST DUP13 DUP9 DUP14 DUP5 DUP5 LT PUSH3 0x3DE JUMPI POP POP POP POP LT PUSH3 0x3C3 JUMPI JUMPDEST POP POP POP DUP2 SHL ADD DUP3 SSTORE PUSH3 0x168 JUMP JUMPDEST DUP9 ADD MLOAD SWAP1 PUSH1 0xF8 DUP5 PUSH1 0x0 NOT SWAP3 SHL AND SHR NOT AND SWAP1 SSTORE CODESIZE DUP1 DUP1 PUSH3 0x3B5 JUMP JUMPDEST DUP7 ADD MLOAD DUP9 SSTORE SWAP1 SWAP7 ADD SWAP6 SWAP4 DUP5 ADD SWAP4 DUP8 SWAP4 POP ADD PUSH3 0x39F JUMP JUMPDEST DUP7 PUSH1 0x0 MSTORE DUP10 PUSH1 0x0 KECCAK256 DUP3 DUP1 DUP7 ADD PUSH1 0x5 SHR DUP3 ADD SWAP3 DUP13 DUP8 LT PUSH3 0x436 JUMPI JUMPDEST ADD PUSH1 0x5 SHR ADD SWAP1 DUP6 SWAP1 JUMPDEST DUP3 DUP2 LT PUSH3 0x429 JUMPI POP POP PUSH3 0x13F JUMP JUMPDEST PUSH1 0x0 DUP2 SSTORE ADD DUP6 SWAP1 PUSH3 0x419 JUMP JUMPDEST SWAP3 POP DUP2 SWAP3 PUSH3 0x410 JUMP JUMPDEST PUSH1 0x22 DUP8 PUSH4 0x4E487B71 PUSH1 0xE0 SHL PUSH1 0x0 MSTORE MSTORE PUSH1 0x24 PUSH1 0x0 REVERT JUMPDEST SWAP1 PUSH1 0x7F AND SWAP1 PUSH3 0x12D JUMP JUMPDEST PUSH4 0x4E487B71 PUSH1 0xE0 SHL PUSH1 0x0 MSTORE PUSH1 0x41 PUSH1 0x4 MSTORE PUSH1 0x24 PUSH1 0x0 REVERT JUMPDEST SWAP1 POP DUP13 ADD MLOAD CODESIZE PUSH3 0xFF JUMP JUMPDEST PUSH1 0x0 DUP5 DUP2 MSTORE DUP12 DUP2 KECCAK256 DUP8 SWAP5 POP SWAP2 SWAP1 DUP16 SWAP1 PUSH1 0x1F NOT DUP6 AND SWAP1 DUP15 JUMPDEST DUP3 DUP3 LT PUSH3 0x4D2 JUMPI POP POP DUP5 GT PUSH3 0x4B9 JUMPI JUMPDEST POP POP POP DUP2 SHL ADD DUP2 SSTORE PUSH3 0x110 JUMP JUMPDEST ADD MLOAD PUSH1 0x0 NOT DUP4 DUP7 SHL PUSH1 0xF8 AND SHR NOT AND SWAP1 SSTORE CODESIZE DUP1 DUP15 PUSH3 0x4AB JUMP JUMPDEST SWAP3 SWAP5 DUP5 DUP5 SWAP4 SWAP6 SWAP8 SWAP9 SWAP3 SWAP7 ADD MLOAD DUP2 SSTORE ADD SWAP5 ADD SWAP3 ADD DUP16 SWAP1 SWAP2 DUP9 SWAP6 SWAP5 SWAP4 SWAP3 DUP15 PUSH3 0x499 JUMP JUMPDEST DUP3 PUSH1 0x0 MSTORE DUP10 PUSH1 0x0 KECCAK256 DUP8 DUP1 DUP5 ADD PUSH1 0x5 SHR DUP3 ADD SWAP3 DUP13 DUP6 LT PUSH3 0x535 JUMPI JUMPDEST ADD PUSH1 0x5 SHR ADD SWAP1 DUP6 SWAP1 JUMPDEST DUP3 DUP2 LT PUSH3 0x528 JUMPI POP POP PUSH3 0xE8 JUMP JUMPDEST PUSH1 0x0 DUP2 SSTORE ADD DUP6 SWAP1 PUSH3 0x518 JUMP JUMPDEST SWAP3 POP DUP2 SWAP3 PUSH3 0x50F JUMP JUMPDEST PUSH4 0x4E487B71 PUSH1 0xE0 SHL PUSH1 0x0 MSTORE PUSH1 0x22 PUSH1 0x4 MSTORE PUSH1 0x24 PUSH1 0x0 REVERT JUMPDEST SWAP6 PUSH1 0x7F AND SWAP6 PUSH3 0xD3 JUMP JUMPDEST PUSH1 0x0 DUP1 REVERT JUMPDEST PUSH1 0x40 MLOAD SWAP2 SWAP1 PUSH1 0x1F ADD PUSH1 0x1F NOT AND DUP3 ADD PUSH1 0x1 PUSH1 0x1 PUSH1 0x40 SHL SUB DUP2 GT DUP4 DUP3 LT OR PUSH3 0x460 JUMPI PUSH1 0x40 MSTORE JUMP JUMPDEST PUSH1 0x0 JUMPDEST DUP4 DUP2 LT PUSH3 0x59F JUMPI POP POP PUSH1 0x0 SWAP2 ADD MSTORE JUMP JUMPDEST DUP2 DUP2 ADD MLOAD DUP4 DUP3 ADD MSTORE PUSH1 0x20 ADD PUSH3 0x58E JUMP JUMPDEST DUP2 PUSH1 0x1F DUP3 ADD SLT ISZERO PUSH3 0x560 JUMPI DUP1 MLOAD PUSH1 0x1 PUSH1 0x1 PUSH1 0x40 SHL SUB DUP2 GT PUSH3 0x460 JUMPI PUSH3 0x5E2 PUSH1 0x1F DUP3 ADD PUSH1 0x1F NOT AND PUSH1 0x20 ADD PUSH3 0x565 JUMP JUMPDEST SWAP3 DUP2 DUP5 MSTORE PUSH1 0x20 DUP3 DUP5 ADD ADD GT PUSH3 0x560 JUMPI PUSH3 0x604 SWAP2 PUSH1 0x20 DUP1 DUP6 ADD SWAP2 ADD PUSH3 0x58B JUMP JUMPDEST SWAP1 JUMP JUMPDEST MLOAD SWAP1 PUSH1 0x1 PUSH1 0x1 PUSH1 0xA0 SHL SUB DUP3 AND DUP3 SUB PUSH3 0x560 JUMPI JUMP JUMPDEST SWAP1 PUSH1 0x20 SWAP2 PUSH3 0x637 DUP2 MLOAD DUP1 SWAP3 DUP2 DUP6 MSTORE DUP6 DUP1 DUP7 ADD SWAP2 ADD PUSH3 0x58B JUMP JUMPDEST PUSH1 0x1F ADD PUSH1 0x1F NOT AND ADD ADD SWAP1 JUMP JUMPDEST PUSH1 0x1 PUSH1 0x1 PUSH1 0xA0 SHL SUB AND SWAP1 DUP2 ISZERO PUSH3 0x6BC JUMPI PUSH1 0x2 SLOAD SWAP1 DUP1 DUP3 ADD DUP1 SWAP3 GT PUSH3 0x6A6 JUMPI PUSH1 0x20 PUSH32 0xDDF252AD1BE2C89B69C2B068FC378DAA952BA7F163C4A11628F55A4DF523B3EF SWAP2 PUSH1 0x0 SWAP4 PUSH1 0x2 SSTORE DUP5 DUP5 MSTORE DUP4 DUP3 MSTORE PUSH1 0x40 DUP5 KECCAK256 DUP2 DUP2 SLOAD ADD SWAP1 SSTORE PUSH1 0x40 MLOAD SWAP1 DUP2 MSTORE LOG3 JUMP JUMPDEST PUSH4 0x4E487B71 PUSH1 0xE0 SHL PUSH1 0x0 MSTORE PUSH1 0x11 PUSH1 0x4 MSTORE PUSH1 0x24 PUSH1 0x0 REVERT JUMPDEST PUSH1 0x40 MLOAD PUSH4 0xEC442F05 PUSH1 0xE0 SHL DUP2 MSTORE PUSH1 0x0 PUSH1 0x4 DUP3 ADD MSTORE PUSH1 0x24 SWAP1 REVERT INVALID PUSH1 0x80 PUSH1 0x40 DUP2 DUP2 MSTORE PUSH1 0x4 DUP1 CALLDATASIZE LT ISZERO PUSH2 0x15 JUMPI PUSH1 0x0 DUP1 REVERT JUMPDEST PUSH1 0x0 SWAP3 DUP4 CALLDATALOAD PUSH1 0xE0 SHR SWAP1 DUP2 PUSH4 0x2D05D3F EQ PUSH2 0x7E0 JUMPI POP DUP1 PUSH4 0x6FDDE03 EQ PUSH2 0x705 JUMPI DUP1 PUSH4 0x95EA7B3 EQ PUSH2 0x65C JUMPI DUP1 PUSH4 0x18160DDD EQ PUSH2 0x63D JUMPI DUP1 PUSH4 0x23B872DD EQ PUSH2 0x54A JUMPI DUP1 PUSH4 0x313CE567 EQ PUSH2 0x525 JUMPI DUP1 PUSH4 0x40C10F19 EQ PUSH2 0x476 JUMPI DUP1 PUSH4 0x42966C68 EQ PUSH2 0x3B8 JUMPI DUP1 PUSH4 0x70A08231 EQ PUSH2 0x381 JUMPI DUP1 PUSH4 0x715018A6 EQ PUSH2 0x321 JUMPI DUP1 PUSH4 0x8DA5CB5B EQ PUSH2 0x2F8 JUMPI DUP1 PUSH4 0x95D89B41 EQ PUSH2 0x1D8 JUMPI DUP1 PUSH4 0xA9059CBB EQ PUSH2 0x1A7 JUMPI DUP1 PUSH4 0xDD62ED3E EQ PUSH2 0x15A JUMPI PUSH4 0xF2FDE38B EQ PUSH2 0xC8 JUMPI PUSH1 0x0 DUP1 REVERT JUMPDEST CALLVALUE PUSH2 0x156 JUMPI PUSH1 0x20 CALLDATASIZE PUSH1 0x3 NOT ADD SLT PUSH2 0x156 JUMPI PUSH2 0xE1 PUSH2 0x84E JUMP JUMPDEST SWAP1 PUSH2 0xEA PUSH2 0x87F JUMP JUMPDEST PUSH1 0x1 PUSH1 0x1 PUSH1 0xA0 SHL SUB SWAP2 DUP3 AND SWAP3 DUP4 ISZERO PUSH2 0x140 JUMPI POP POP PUSH1 0x5 SLOAD DUP3 PUSH12 0xFFFFFFFFFFFFFFFFFFFFFFFF PUSH1 0xA0 SHL DUP3 AND OR PUSH1 0x5 SSTORE AND PUSH32 0x8BE0079C531659141344CD1FD0A4F28419497F9722A3DAAFE3B4186F6B6457E0 DUP4 DUP1 LOG3 DUP1 RETURN JUMPDEST MLOAD PUSH4 0x1E4FBDF7 PUSH1 0xE0 SHL DUP2 MSTORE SWAP1 DUP2 ADD DUP5 SWAP1 MSTORE PUSH1 0x24 SWAP1 REVERT JUMPDEST DUP3 DUP1 REVERT JUMPDEST POP POP CALLVALUE PUSH2 0x1A3 JUMPI DUP1 PUSH1 0x3 NOT CALLDATASIZE ADD SLT PUSH2 0x1A3 JUMPI DUP1 PUSH1 0x20 SWAP3 PUSH2 0x178 PUSH2 0x84E JUMP JUMPDEST PUSH2 0x180 PUSH2 0x869 JUMP JUMPDEST PUSH1 0x1 PUSH1 0x1 PUSH1 0xA0 SHL SUB SWAP2 DUP3 AND DUP4 MSTORE PUSH1 0x1 DUP7 MSTORE DUP4 DUP4 KECCAK256 SWAP2 AND DUP3 MSTORE DUP5 MSTORE KECCAK256 SLOAD SWAP1 MLOAD SWAP1 DUP2 MSTORE RETURN JUMPDEST POP DUP1 REVERT JUMPDEST POP POP CALLVALUE PUSH2 0x1A3 JUMPI DUP1 PUSH1 0x3 NOT CALLDATASIZE ADD SLT PUSH2 0x1A3 JUMPI PUSH1 0x20 SWAP1 PUSH2 0x1D1 PUSH2 0x1C7 PUSH2 0x84E JUMP JUMPDEST PUSH1 0x24 CALLDATALOAD SWAP1 CALLER PUSH2 0x8AB JUMP JUMPDEST MLOAD PUSH1 0x1 DUP2 MSTORE RETURN JUMPDEST POP SWAP2 SWAP1 CALLVALUE PUSH2 0x1A3 JUMPI DUP2 PUSH1 0x3 NOT CALLDATASIZE ADD SLT PUSH2 0x1A3 JUMPI DUP1 MLOAD SWAP1 DUP3 DUP5 SLOAD PUSH1 0x1 DUP2 DUP2 SHR SWAP1 DUP1 DUP4 AND SWAP3 DUP4 ISZERO PUSH2 0x2EE JUMPI JUMPDEST PUSH1 0x20 SWAP4 DUP5 DUP5 LT DUP2 EQ PUSH2 0x2DB JUMPI DUP4 DUP9 MSTORE SWAP1 DUP2 ISZERO PUSH2 0x2BF JUMPI POP PUSH1 0x1 EQ PUSH2 0x26A JUMPI JUMPDEST POP POP POP DUP3 SWAP1 SUB PUSH1 0x1F ADD PUSH1 0x1F NOT AND DUP3 ADD SWAP3 PUSH8 0xFFFFFFFFFFFFFFFF DUP5 GT DUP4 DUP6 LT OR PUSH2 0x257 JUMPI POP DUP3 SWAP2 DUP3 PUSH2 0x253 SWAP3 MSTORE DUP3 PUSH2 0x805 JUMP JUMPDEST SUB SWAP1 RETURN JUMPDEST PUSH4 0x4E487B71 PUSH1 0xE0 SHL DUP2 MSTORE PUSH1 0x41 DUP6 MSTORE PUSH1 0x24 SWAP1 REVERT JUMPDEST DUP8 DUP8 MSTORE SWAP2 SWAP3 POP DUP6 SWAP2 DUP4 PUSH32 0x8A35ACFBC15FF81A39AE7D344FD709F28E8600B4AA8C65C6B64BFE7FE36BD19B JUMPDEST DUP4 DUP6 LT PUSH2 0x2AB JUMPI POP POP POP POP DUP4 ADD ADD CODESIZE DUP1 DUP1 PUSH2 0x221 JUMP JUMPDEST DUP1 SLOAD DUP9 DUP7 ADD DUP4 ADD MSTORE SWAP4 ADD SWAP3 DUP5 SWAP1 DUP3 ADD PUSH2 0x295 JUMP JUMPDEST PUSH1 0xFF NOT AND DUP8 DUP6 ADD MSTORE POP POP ISZERO ISZERO PUSH1 0x5 SHL DUP5 ADD ADD SWAP1 POP CODESIZE DUP1 DUP1 PUSH2 0x221 JUMP JUMPDEST PUSH4 0x4E487B71 PUSH1 0xE0 SHL DUP10 MSTORE PUSH1 0x22 DUP11 MSTORE PUSH1 0x24 DUP10 REVERT JUMPDEST SWAP2 PUSH1 0x7F AND SWAP2 PUSH2 0x202 JUMP JUMPDEST POP POP CALLVALUE PUSH2 0x1A3 JUMPI DUP2 PUSH1 0x3 NOT CALLDATASIZE ADD SLT PUSH2 0x1A3 JUMPI PUSH1 0x5 SLOAD SWAP1 MLOAD PUSH1 0x1 PUSH1 0x1 PUSH1 0xA0 SHL SUB SWAP1 SWAP2 AND DUP2 MSTORE PUSH1 0x20 SWAP1 RETURN JUMPDEST DUP4 CALLVALUE PUSH2 0x37E JUMPI DUP1 PUSH1 0x3 NOT CALLDATASIZE ADD SLT PUSH2 0x37E JUMPI PUSH2 0x33A PUSH2 0x87F JUMP JUMPDEST PUSH1 0x5 DUP1 SLOAD PUSH1 0x1 PUSH1 0x1 PUSH1 0xA0 SHL SUB NOT DUP2 AND SWAP1 SWAP2 SSTORE DUP2 SWAP1 PUSH1 0x1 PUSH1 0x1 PUSH1 0xA0 SHL SUB AND PUSH32 0x8BE0079C531659141344CD1FD0A4F28419497F9722A3DAAFE3B4186F6B6457E0 DUP3 DUP1 LOG3 DUP1 RETURN JUMPDEST DUP1 REVERT JUMPDEST POP POP CALLVALUE PUSH2 0x1A3 JUMPI PUSH1 0x20 CALLDATASIZE PUSH1 0x3 NOT ADD SLT PUSH2 0x1A3 JUMPI PUSH1 0x20 SWAP2 DUP2 SWAP1 PUSH1 0x1 PUSH1 0x1 PUSH1 0xA0 SHL SUB PUSH2 0x3A9 PUSH2 0x84E JUMP JUMPDEST AND DUP2 MSTORE DUP1 DUP5 MSTORE KECCAK256 SLOAD SWAP1 MLOAD SWAP1 DUP2 MSTORE RETURN JUMPDEST POP SWAP2 SWAP1 CALLVALUE PUSH2 0x1A3 JUMPI PUSH1 0x20 CALLDATASIZE PUSH1 0x3 NOT ADD SLT PUSH2 0x1A3 JUMPI DUP3 CALLDATALOAD SWAP1 PUSH2 0x3D7 PUSH2 0x87F JUMP JUMPDEST CALLER ISZERO PUSH2 0x460 JUMPI CALLER DUP4 MSTORE DUP3 PUSH1 0x20 MSTORE DUP1 DUP4 KECCAK256 SLOAD SWAP4 DUP3 DUP6 LT PUSH2 0x435 JUMPI POP DUP2 DUP4 SWAP5 CALLER DUP6 MSTORE DUP5 PUSH1 0x20 MSTORE SUB DUP2 DUP5 KECCAK256 SSTORE DUP2 PUSH1 0x2 SLOAD SUB PUSH1 0x2 SSTORE MLOAD SWAP1 DUP2 MSTORE PUSH32 0xDDF252AD1BE2C89B69C2B068FC378DAA952BA7F163C4A11628F55A4DF523B3EF PUSH1 0x20 CALLER SWAP3 LOG3 DUP1 RETURN JUMPDEST SWAP1 MLOAD PUSH4 0x391434E3 PUSH1 0xE2 SHL DUP2 MSTORE CALLER SWAP2 DUP2 ADD SWAP2 DUP3 MSTORE PUSH1 0x20 DUP3 ADD DUP6 SWAP1 MSTORE PUSH1 0x40 DUP3 ADD DUP4 SWAP1 MSTORE SWAP1 DUP2 SWAP1 PUSH1 0x60 ADD SUB SWAP1 REVERT JUMPDEST MLOAD PUSH4 0x4B637E8F PUSH1 0xE1 SHL DUP2 MSTORE DUP1 DUP5 ADD DUP4 SWAP1 MSTORE PUSH1 0x24 SWAP1 REVERT JUMPDEST POP SWAP1 CALLVALUE PUSH2 0x156 JUMPI DUP1 PUSH1 0x3 NOT CALLDATASIZE ADD SLT PUSH2 0x156 JUMPI PUSH2 0x490 PUSH2 0x84E JUMP JUMPDEST SWAP1 PUSH1 0x24 CALLDATALOAD SWAP2 PUSH2 0x49D PUSH2 0x87F JUMP JUMPDEST PUSH1 0x1 PUSH1 0x1 PUSH1 0xA0 SHL SUB AND SWAP3 DUP4 ISZERO PUSH2 0x510 JUMPI PUSH1 0x2 SLOAD SWAP1 DUP4 DUP3 ADD DUP1 SWAP3 GT PUSH2 0x4FD JUMPI POP DUP5 SWAP3 PUSH32 0xDDF252AD1BE2C89B69C2B068FC378DAA952BA7F163C4A11628F55A4DF523B3EF SWAP3 PUSH1 0x20 SWAP3 PUSH1 0x2 SSTORE DUP6 DUP6 MSTORE DUP5 DUP4 MSTORE DUP1 DUP6 KECCAK256 DUP3 DUP2 SLOAD ADD SWAP1 SSTORE MLOAD SWAP1 DUP2 MSTORE LOG3 DUP1 RETURN JUMPDEST PUSH4 0x4E487B71 PUSH1 0xE0 SHL DUP7 MSTORE PUSH1 0x11 SWAP1 MSTORE PUSH1 0x24 DUP6 REVERT JUMPDEST DUP5 PUSH1 0x24 SWAP3 MLOAD SWAP2 PUSH4 0xEC442F05 PUSH1 0xE0 SHL DUP4 MSTORE DUP3 ADD MSTORE REVERT JUMPDEST POP POP CALLVALUE PUSH2 0x1A3 JUMPI DUP2 PUSH1 0x3 NOT CALLDATASIZE ADD SLT PUSH2 0x1A3 JUMPI PUSH1 0x20 SWAP1 PUSH1 0xFF PUSH1 0x6 SLOAD PUSH1 0xA0 SHR AND SWAP1 MLOAD SWAP1 DUP2 MSTORE RETURN JUMPDEST POP DUP3 CALLVALUE PUSH2 0x37E JUMPI PUSH1 0x60 CALLDATASIZE PUSH1 0x3 NOT ADD SLT PUSH2 0x37E JUMPI PUSH2 0x565 PUSH2 0x84E JUMP JUMPDEST PUSH2 0x56D PUSH2 0x869 JUMP JUMPDEST SWAP2 PUSH1 0x44 CALLDATALOAD SWAP4 PUSH1 0x1 DUP1 PUSH1 0xA0 SHL SUB DUP4 AND DUP1 DUP4 MSTORE PUSH1 0x1 PUSH1 0x20 MSTORE DUP7 DUP4 KECCAK256 CALLER DUP5 MSTORE PUSH1 0x20 MSTORE DUP7 DUP4 KECCAK256 SLOAD SWAP2 PUSH1 0x0 NOT DUP4 LT PUSH2 0x5A9 JUMPI JUMPDEST PUSH1 0x20 DUP9 PUSH2 0x1D1 DUP10 DUP10 DUP10 PUSH2 0x8AB JUMP JUMPDEST DUP7 DUP4 LT PUSH2 0x611 JUMPI DUP2 ISZERO PUSH2 0x5FA JUMPI CALLER ISZERO PUSH2 0x5E3 JUMPI POP DUP3 MSTORE PUSH1 0x1 PUSH1 0x20 SWAP1 DUP2 MSTORE DUP7 DUP4 KECCAK256 CALLER DUP5 MSTORE DUP2 MSTORE SWAP2 DUP7 SWAP1 KECCAK256 SWAP1 DUP6 SWAP1 SUB SWAP1 SSTORE DUP3 SWAP1 PUSH2 0x1D1 DUP8 PUSH2 0x59B JUMP JUMPDEST DUP8 MLOAD PUSH4 0x4A1406B1 PUSH1 0xE1 SHL DUP2 MSTORE SWAP1 DUP2 ADD DUP5 SWAP1 MSTORE PUSH1 0x24 SWAP1 REVERT JUMPDEST DUP8 MLOAD PUSH4 0xE602DF05 PUSH1 0xE0 SHL DUP2 MSTORE SWAP1 DUP2 ADD DUP5 SWAP1 MSTORE PUSH1 0x24 SWAP1 REVERT JUMPDEST DUP8 MLOAD PUSH4 0x7DC7A0D9 PUSH1 0xE1 SHL DUP2 MSTORE CALLER SWAP2 DUP2 ADD SWAP2 DUP3 MSTORE PUSH1 0x20 DUP3 ADD SWAP4 SWAP1 SWAP4 MSTORE PUSH1 0x40 DUP2 ADD DUP8 SWAP1 MSTORE DUP3 SWAP2 POP PUSH1 0x60 ADD SUB SWAP1 REVERT JUMPDEST POP POP CALLVALUE PUSH2 0x1A3 JUMPI DUP2 PUSH1 0x3 NOT CALLDATASIZE ADD SLT PUSH2 0x1A3 JUMPI PUSH1 0x20 SWAP1 PUSH1 0x2 SLOAD SWAP1 MLOAD SWAP1 DUP2 MSTORE RETURN JUMPDEST POP CALLVALUE PUSH2 0x156 JUMPI DUP2 PUSH1 0x3 NOT CALLDATASIZE ADD SLT PUSH2 0x156 JUMPI PUSH2 0x675 PUSH2 0x84E JUMP JUMPDEST PUSH1 0x24 CALLDATALOAD SWAP1 CALLER ISZERO PUSH2 0x6EE JUMPI PUSH1 0x1 PUSH1 0x1 PUSH1 0xA0 SHL SUB AND SWAP2 DUP3 ISZERO PUSH2 0x6D7 JUMPI POP DUP1 DUP4 PUSH1 0x20 SWAP6 CALLER DUP2 MSTORE PUSH1 0x1 DUP8 MSTORE DUP2 DUP2 KECCAK256 DUP6 DUP3 MSTORE DUP8 MSTORE KECCAK256 SSTORE DUP3 MLOAD SWAP1 DUP2 MSTORE PUSH32 0x8C5BE1E5EBEC7D5BD14F71427D1E84F3DD0314C0F7B2291E5B200AC8C7C3B925 DUP5 CALLER SWAP3 LOG3 MLOAD PUSH1 0x1 DUP2 MSTORE RETURN JUMPDEST DUP4 MLOAD PUSH4 0x4A1406B1 PUSH1 0xE1 SHL DUP2 MSTORE SWAP1 DUP2 ADD DUP6 SWAP1 MSTORE PUSH1 0x24 SWAP1 REVERT JUMPDEST DUP4 MLOAD PUSH4 0xE602DF05 PUSH1 0xE0 SHL DUP2 MSTORE DUP1 DUP5 ADD DUP7 SWAP1 MSTORE PUSH1 0x24 SWAP1 REVERT JUMPDEST POP SWAP2 SWAP1 CALLVALUE PUSH2 0x1A3 JUMPI DUP2 PUSH1 0x3 NOT CALLDATASIZE ADD SLT PUSH2 0x1A3 JUMPI DUP1 MLOAD SWAP1 DUP3 PUSH1 0x3 SLOAD PUSH1 0x1 DUP2 DUP2 SHR SWAP1 DUP1 DUP4 AND SWAP3 DUP4 ISZERO PUSH2 0x7D6 JUMPI JUMPDEST PUSH1 0x20 SWAP4 DUP5 DUP5 LT DUP2 EQ PUSH2 0x2DB JUMPI DUP4 DUP9 MSTORE SWAP1 DUP2 ISZERO PUSH2 0x2BF JUMPI POP PUSH1 0x1 EQ PUSH2 0x780 JUMPI POP POP POP DUP3 SWAP1 SUB PUSH1 0x1F ADD PUSH1 0x1F NOT AND DUP3 ADD SWAP3 PUSH8 0xFFFFFFFFFFFFFFFF DUP5 GT DUP4 DUP6 LT OR PUSH2 0x257 JUMPI POP DUP3 SWAP2 DUP3 PUSH2 0x253 SWAP3 MSTORE DUP3 PUSH2 0x805 JUMP JUMPDEST PUSH1 0x3 DUP8 MSTORE SWAP2 SWAP3 POP DUP6 SWAP2 DUP4 PUSH32 0xC2575A0E9E593C00F959F8C92F12DB2869C3395A3B0502D05E2516446F71F85B JUMPDEST DUP4 DUP6 LT PUSH2 0x7C2 JUMPI POP POP POP POP DUP4 ADD ADD CODESIZE DUP1 DUP1 PUSH2 0x221 JUMP JUMPDEST DUP1 SLOAD DUP9 DUP7 ADD DUP4 ADD MSTORE SWAP4 ADD SWAP3 DUP5 SWAP1 DUP3 ADD PUSH2 0x7AC JUMP JUMPDEST SWAP2 PUSH1 0x7F AND SWAP2 PUSH2 0x730 JUMP JUMPDEST DUP5 SWAP1 CALLVALUE PUSH2 0x1A3 JUMPI DUP2 PUSH1 0x3 NOT CALLDATASIZE ADD SLT PUSH2 0x1A3 JUMPI PUSH1 0x6 SLOAD PUSH1 0x1 PUSH1 0x1 PUSH1 0xA0 SHL SUB AND DUP2 MSTORE PUSH1 0x20 SWAP1 RETURN JUMPDEST PUSH1 0x20 DUP1 DUP3 MSTORE DUP3 MLOAD DUP2 DUP4 ADD DUP2 SWAP1 MSTORE SWAP1 SWAP4 SWAP3 PUSH1 0x0 JUMPDEST DUP3 DUP2 LT PUSH2 0x83A JUMPI POP POP PUSH1 0x40 SWAP3 SWAP4 POP PUSH1 0x0 DUP4 DUP3 DUP5 ADD ADD MSTORE PUSH1 0x1F DUP1 NOT SWAP2 ADD AND ADD ADD SWAP1 JUMP JUMPDEST DUP2 DUP2 ADD DUP7 ADD MLOAD DUP5 DUP3 ADD PUSH1 0x40 ADD MSTORE DUP6 ADD PUSH2 0x818 JUMP JUMPDEST PUSH1 0x4 CALLDATALOAD SWAP1 PUSH1 0x1 PUSH1 0x1 PUSH1 0xA0 SHL SUB DUP3 AND DUP3 SUB PUSH2 0x864 JUMPI JUMP JUMPDEST PUSH1 0x0 DUP1 REVERT JUMPDEST PUSH1 0x24 CALLDATALOAD SWAP1 PUSH1 0x1 PUSH1 0x1 PUSH1 0xA0 SHL SUB DUP3 AND DUP3 SUB PUSH2 0x864 JUMPI JUMP JUMPDEST PUSH1 0x5 SLOAD PUSH1 0x1 PUSH1 0x1 PUSH1 0xA0 SHL SUB AND CALLER SUB PUSH2 0x893 JUMPI JUMP JUMPDEST PUSH1 0x40 MLOAD PUSH4 0x118CDAA7 PUSH1 0xE0 SHL DUP2 MSTORE CALLER PUSH1 0x4 DUP3 ADD MSTORE PUSH1 0x24 SWAP1 REVERT JUMPDEST SWAP2 PUSH1 0x1 PUSH1 0x1 PUSH1 0xA0 SHL SUB DUP1 DUP5 AND SWAP3 DUP4 ISZERO PUSH2 0x970 JUMPI AND SWAP3 DUP4 ISZERO PUSH2 0x957 JUMPI PUSH1 0x0 SWAP1 DUP4 DUP3 MSTORE DUP2 PUSH1 0x20 MSTORE PUSH1 0x40 DUP3 KECCAK256 SLOAD SWAP1 DUP4 DUP3 LT PUSH2 0x925 JUMPI POP SWAP2 PUSH1 0x40 DUP3 DUP3 PUSH32 0xDDF252AD1BE2C89B69C2B068FC378DAA952BA7F163C4A11628F55A4DF523B3EF SWAP6 DUP8 PUSH1 0x20 SWAP7 MSTORE DUP3 DUP7 MSTORE SUB DUP3 DUP3 KECCAK256 SSTORE DUP7 DUP2 MSTORE KECCAK256 DUP2 DUP2 SLOAD ADD SWAP1 SSTORE PUSH1 0x40 MLOAD SWAP1 DUP2 MSTORE LOG3 JUMP JUMPDEST PUSH1 0x40 MLOAD PUSH4 0x391434E3 PUSH1 0xE2 SHL DUP2 MSTORE PUSH1 0x1 PUSH1 0x1 PUSH1 0xA0 SHL SUB SWAP2 SWAP1 SWAP2 AND PUSH1 0x4 DUP3 ADD MSTORE PUSH1 0x24 DUP2 ADD SWAP2 SWAP1 SWAP2 MSTORE PUSH1 0x44 DUP2 ADD DUP4 SWAP1 MSTORE PUSH1 0x64 SWAP1 REVERT JUMPDEST PUSH1 0x40 MLOAD PUSH4 0xEC442F05 PUSH1 0xE0 SHL DUP2 MSTORE PUSH1 0x0 PUSH1 0x4 DUP3 ADD MSTORE PUSH1 0x24 SWAP1 REVERT JUMPDEST PUSH1 0x40 MLOAD PUSH4 0x4B637E8F PUSH1 0xE1 SHL DUP2 MSTORE PUSH1 0x0 PUSH1 0x4 DUP3 ADD MSTORE PUSH1 0x24 SWAP1 REVERT INVALID LOG2 PUSH5 0x6970667358 0x22 SLT KECCAK256 SUB 0xD7 0xC9 PUSH5 0xADCD55FFB 0xBF DUP8 PUSH9 0xE6FA0FE4CDCED22D52 CODESIZE 0xAC PUSH4 0x75E677ED EXTCODECOPY 0xB9 0xDE CALLDATALOAD PUSH5 0x736F6C6343 STOP ADDMOD EQ STOP CALLER LOG2 PUSH5 0x6970667358 0x22 SLT KECCAK256 0x28 0xD1 0xB4 POP SWAP8 PUSH22 0x82B59CA8A7415FFECB3C6AEC3D091CBE636BCDDCA350 0xEB KECCAK256 0xDD PUSH12 0x64736F6C6343000814003300 "},"methodIdentifiers":{"DEPLOYMENT_FEE()":"a8f32251","MIN_INITIAL_BUY()":"59475e77","UPGRADE_FEE()":"a4b41c8a","allTokens(uint256)":"634282af","bondingCurve()":"eff1d50e","collectFee(address,uint256,string)":"9f3043c3","collectToken(address,address,uint256,string)":"b8d38253","createToken(string,string,uint256)":"5b060530","creatorOf(address)":"dea5c2e0","feeWallet()":"f25f4b56","getAllTokens()":"2a5c792a","getTokensByCreator(address)":"d5c71275","isLinked(address)":"fb1afbd7","linkProtocol()":"39457b50","owner()":"8da5cb5b","renounceOwnership()":"715018a6","setBondingCurve(address)":"43ff1fb8","setFeeWallet(address)":"90d49b9d","setFees(uint256,uint256,uint256)":"cec10c11","tokensByCreator(address,uint256)":"d80d03a2","totalTokens()":"7e1c0c09","transferOwnership(address)":"f2fde38b","upgradeToken(address)":"6ee31a18"}}}}}