{"contracts/DirectDexLaunchFactory.sol":{"DirectDexLaunchFactory":{"abi":[{"inputs":[{"internalType":"address","name":"_feeWallet","type":"address"},{"internalType":"address","name":"_router","type":"address"},{"internalType":"address","name":"_owner","type":"address"}],"stateMutability":"nonpayable","type":"constructor"},{"inputs":[{"internalType":"address","name":"owner","type":"address"}],"name":"OwnableInvalidOwner","type":"error"},{"inputs":[{"internalType":"address","name":"account","type":"address"}],"name":"OwnableUnauthorizedAccount","type":"error"},{"anonymous":false,"inputs":[{"indexed":true,"internalType":"address","name":"tokenAddress","type":"address"},{"indexed":true,"internalType":"address","name":"caller","type":"address"},{"indexed":false,"internalType":"uint256","name":"tokenAmount","type":"uint256"},{"indexed":false,"internalType":"uint256","name":"bnbAdded","type":"uint256"}],"name":"LiquidityAdded","type":"event"},{"anonymous":false,"inputs":[{"indexed":true,"internalType":"address","name":"previousOwner","type":"address"},{"indexed":true,"internalType":"address","name":"newOwner","type":"address"}],"name":"OwnershipTransferred","type":"event"},{"anonymous":false,"inputs":[{"indexed":true,"internalType":"address","name":"tokenAddress","type":"address"},{"indexed":false,"internalType":"string","name":"name","type":"string"},{"indexed":false,"internalType":"string","name":"symbol","type":"string"},{"indexed":false,"internalType":"uint256","name":"supply","type":"uint256"},{"indexed":true,"internalType":"address","name":"creator","type":"address"},{"indexed":false,"internalType":"uint256","name":"deploymentFee","type":"uint256"},{"indexed":false,"internalType":"uint256","name":"liquidityBnb","type":"uint256"}],"name":"TokenCreatedDirect","type":"event"},{"inputs":[],"name":"DEPLOYMENT_FEE","outputs":[{"internalType":"uint256","name":"","type":"uint256"}],"stateMutability":"view","type":"function"},{"inputs":[],"name":"MIN_INITIAL_LIQUIDITY","outputs":[{"internalType":"uint256","name":"","type":"uint256"}],"stateMutability":"view","type":"function"},{"inputs":[],"name":"RELEASE_SERVICE_FEE","outputs":[{"internalType":"uint256","name":"","type":"uint256"}],"stateMutability":"view","type":"function"},{"inputs":[{"internalType":"address","name":"tokenAddress","type":"address"},{"internalType":"uint256","name":"tokenAmount","type":"uint256"}],"name":"addLiquidityForToken","outputs":[],"stateMutability":"payable","type":"function"},{"inputs":[{"internalType":"address","name":"token","type":"address"},{"internalType":"address","name":"user","type":"address"},{"internalType":"uint256","name":"amount","type":"uint256"},{"internalType":"string","name":"reason","type":"string"}],"name":"collectToken","outputs":[],"stateMutability":"nonpayable","type":"function"},{"inputs":[{"internalType":"string","name":"name","type":"string"},{"internalType":"string","name":"symbol","type":"string"},{"internalType":"uint256","name":"tokensToLiquidate","type":"uint256"}],"name":"createTokenDirect","outputs":[{"internalType":"address","name":"tokenAddress","type":"address"}],"stateMutability":"payable","type":"function"},{"inputs":[],"name":"dexRouter","outputs":[{"internalType":"contract IDexRouter","name":"","type":"address"}],"stateMutability":"view","type":"function"},{"inputs":[],"name":"feeWallet","outputs":[{"internalType":"address","name":"","type":"address"}],"stateMutability":"view","type":"function"},{"inputs":[],"name":"owner","outputs":[{"internalType":"address","name":"","type":"address"}],"stateMutability":"view","type":"function"},{"inputs":[],"name":"renounceOwnership","outputs":[],"stateMutability":"nonpayable","type":"function"},{"inputs":[{"internalType":"address","name":"_feeWallet","type":"address"}],"name":"setFeeWallet","outputs":[],"stateMutability":"nonpayable","type":"function"},{"inputs":[{"internalType":"uint256","name":"_deploymentFee","type":"uint256"},{"internalType":"uint256","name":"_minLiquidity","type":"uint256"}],"name":"setFees","outputs":[],"stateMutability":"nonpayable","type":"function"},{"inputs":[{"internalType":"uint256","name":"_fee","type":"uint256"}],"name":"setReleaseFee","outputs":[],"stateMutability":"nonpayable","type":"function"},{"inputs":[{"internalType":"address","name":"","type":"address"}],"name":"tokenCreator","outputs":[{"internalType":"address","name":"","type":"address"}],"stateMutability":"view","type":"function"},{"inputs":[{"internalType":"address","name":"","type":"address"}],"name":"tokensLocked","outputs":[{"internalType":"uint256","name":"","type":"uint256"}],"stateMutability":"view","type":"function"},{"inputs":[{"internalType":"address","name":"newOwner","type":"address"}],"name":"transferOwnership","outputs":[],"stateMutability":"nonpayable","type":"function"},{"inputs":[{"internalType":"address","name":"token","type":"address"},{"internalType":"uint256","name":"amount","type":"uint256"},{"internalType":"address","name":"to","type":"address"}],"name":"withdrawToken","outputs":[],"stateMutability":"nonpayable","type":"function"},{"stateMutability":"payable","type":"receive"}],"evm":{"bytecode":{"linkReferences":{},"object":"6080346200019257601f6200264538819003918201601f191683019291906001600160401b038411838510176200019757816060928492604096875283398101031262000192576200005181620001ad565b90826200006160208301620001ad565b916001600160a01b03918291620000799101620001ad565b169182156200017a57816000549460018060a01b031994808688161760005582885197167f8be0079c531659141344cd1fd0a4f28419497f9722a3daafe3b4186f6b6457e0600080a3660aa87bee53800080600155662386f26fc1000060025560075516938415620001435750169182156200010e578160035416176003556004541617600455516124829081620001c38239f35b835162461bcd60e51b815260206004820152600e60248201526d24b73b30b634b2103937baba32b960911b6044820152606490fd5b62461bcd60e51b8152602060048201526012602482015271125b9d985b1a5908199959481dd85b1b195d60721b6044820152606490fd5b8451631e4fbdf760e01b815260006004820152602490fd5b600080fd5b634e487b7160e01b600052604160045260246000fd5b51906001600160a01b0382168203620001925756fe60808060405260043610156200001f575b5036156200001d57600080fd5b005b600090813560e01c90816301a598a614620011c3575080630758d92414620011985780630b78f9c0146200116b57806323774af2146200112b578063355943d6146200110b5780633ccdbb281462001008578063715018a61462000faa578063728780fa1462000f8a5780638bfa25da1462000f635780638da5cb5b1462000f3a57806390d49b9d1462000ee1578063a8f322511462000ec1578063b8d382531462000dfb578063c8fe3ab51462000aa9578063ef11d9ca14620001b8578063f25f4b56146200018d5763f2fde38b036200001057346200018a5760203660031901126200018a5762000111620011fd565b6200011b62001245565b6001600160a01b039081169081156200017157600054826bffffffffffffffffffffffff60a01b821617600055167f8be0079c531659141344cd1fd0a4f28419497f9722a3daafe3b4186f6b6457e0600080a380f35b604051631e4fbdf760e01b815260048101849052602490fd5b80fd5b50346200018a57806003193601126200018a576003546040516001600160a01b039091168152602090f35b5060603660031901126200018a5760043567ffffffffffffffff81116200091057620001e990369060040162001214565b919060243567ffffffffffffffff811162000aa5576200020e90369060040162001214565b6003546001600160a01b031692338414929190831562000a9b5785945b841562000a8c5786945b1562000a6057865b341062000a05578715620009d05782156200099957869086806200093c575b505060035460405191506001600160a01b031667ffffffffffffffff61109583019081119083111762000928578190611095620013b8833960e0611095830152620002cc620002b460e06110958501018c8762001352565b61109584018103602061109586010152868862001352565b601261109584016040810191909152633b9aca0060608201523360808201523060a082015260c00191909152039087f080156200091d576001600160a01b031680875260056020908152604080892080546001600160a01b03191633179055516370a0823160e01b815230600482015291979190816024818b5afa9081156200053b578291620008e1575b5060443515159081620008d3575b501562000883576004805460405163095ea7b360e01b81526001600160a01b03909116918101919091526000196024820152602081604481858c5af180156200053b576200084d575b508094620003c666ffffffffffffff821688620012b1565b341162000824575b8562000752575b66ffffffffffffff811662000546575b506040516370a0823160e01b81523060048201526020816024818b5afa9081156200053b578291620004fe575b508782526006602052604082205547806200049f575b5050926200047c7f05f54c7fcd7e0d07c8d765788e6ea1b851012bd80863d3c969b5233d4fbdedb293602098936200046e89976040519660a0885260a088019162001352565b918583038b87015262001352565b94633b9aca006040840152606083015260808201528033940390a3604051908152f35b818080929a959697949a335af1620004b66200130e565b5015620004c95792919095388062000428565b60405162461bcd60e51b815260206004820152600d60248201526c1499599d5b990819985a5b1959609a1b6044820152606490fd5b90506020813d60201162000532575b816200051c60209383620012d5565b810103126200052d57513862000412565b600080fd5b3d91506200050d565b6040513d84823e3d90fd5b6040519081606081011067ffffffffffffffff6060840111176200073e576060820160405260028252604036602084013760018060a01b03600454166040516315ab88c960e31b8152602081600481855afa90811562000733578591620006e6575b50835115620006d2576001600160a01b03166020840152825160011015620006be5789604084015261025842014211620006aa57803b15620006a65791839160405193849263b6f9de9560e01b845260848401856004860152608060248601528151809152602060a48601920190865b81811062000680575050509066ffffffffffffff84809333604483015261025842016064830152039316905af180156200053b5715620003e55767ffffffffffffffff81116200066c5760405238620003e5565b634e487b7160e01b82526041600452602482fd5b82516001600160a01b031684528997508896506020938401939092019160010162000618565b8380fd5b634e487b7160e01b84526011600452602484fd5b634e487b7160e01b84526032600452602484fd5b634e487b7160e01b85526032600452602485fd5b90506020813d6020116200072a575b816200070460209383620012d5565b810103126200072657516001600160a01b0381168103620007265738620005a8565b8480fd5b3d9150620006f5565b6040513d87823e3d90fd5b634e487b7160e01b83526041600452602483fd5b6004546001600160a01b031642610258810110620008105760405163f305d71960e01b81526001600160a01b038a16600482015260448035602483015260009082018190526064820152336084820152610258420160a482015290606090829060c49082908b905af180156200080557620007cf575b50620003d5565b620007f59060603d606011620007fd575b620007ec8183620012d5565b8101906200139b565b5050620007c8565b503d620007e0565b6040513d85823e3d90fd5b634e487b7160e01b83526011600452602483fd5b94506200084666ffffffffffffff86166200084088346200138d565b6200138d565b94620003ce565b620008739060203d6020116200087b575b6200086a8183620012d5565b81019062001373565b5038620003ae565b503d6200085e565b60405162461bcd60e51b815260206004820152602260248201527f496e76616c696420746f6b656e7320746f206c697175696461746520616d6f756044820152611b9d60f21b6064820152608490fd5b905060443511153862000365565b90506020813d60201162000914575b81620008ff60209383620012d5565b810103126200091057513862000357565b5080fd5b3d9150620008f0565b6040513d88823e3d90fd5b634e487b7160e01b88526041600452602488fd5b8280929181925af16200094e6200130e565b50156200095e578538866200025c565b60405162461bcd60e51b8152602060048201526013602482015272119959481d1c985b9cd9995c8819985a5b1959606a1b6044820152606490fd5b60405162461bcd60e51b815260206004820152600f60248201526e14de5b589bdb081c995c5d5a5c9959608a1b6044820152606490fd5b60405162461bcd60e51b815260206004820152600d60248201526c13985b59481c995c5d5a5c9959609a1b6044820152606490fd5b60405162461bcd60e51b815260206004820152602d60248201527f496e73756666696369656e7420424e423a206e65656420666565202b204c502060448201526c2b20666972737420747261646560981b6064820152608490fd5b62000a8660015462000a8066ffffffffffffff88169160025490620012b1565b620012b1565b6200023d565b66071afd498d00009462000235565b600154946200022b565b8280fd5b5060403660031901126200018a5762000ac1620011fd565b6001600160a01b03808216808452600560209081526040852054602480359593949390918416330362000dbf57851562000d7b57848752600683528560408820541062000d37576007548034111562000ce557878080809388600354165af162000b2a6200130e565b501562000ca1576004805460405163095ea7b360e01b81529086166001600160a01b0316918101919091526024810187905283816044818b8a5af1801562000c965762000c74575b5062000b81600754346200138d565b93600454169061025842019283421162000c62575060405163f305d71960e01b81526001600160a01b0391909116600482015260248101879052600060448201819052606482015233608482015260a4810192909252606090829060c490829087905af180156200091d5762000c3f575b50828552600681526040852062000c0b8582546200138d565b90556040519384528301527f36f3b2e1a21c19137dd82ec243b0708a1d26b3d1fa1dc49c44c4c366a587813860403393a380f35b62000c5a9060603d8111620007fd57620007ec8183620012d5565b505062000bf2565b634e487b7160e01b8952601160045288fd5b62000c8e90843d86116200087b576200086a8183620012d5565b503862000b72565b6040513d8a823e3d90fd5b60405162461bcd60e51b815260048101849052601b818401527f5365727669636520666565207472616e73666572206661696c656400000000006044820152606490fd5b60405162461bcd60e51b8152600481018590526025818501527f4d7573742073656e64207365727669636520666565202b206c697175696469746044820152643c9021272160d91b6064820152608490fd5b60405162461bcd60e51b815260048101849052601c818401527f496e73756666696369656e7420746f6b656e7320696e207661756c74000000006044820152606490fd5b60405162461bcd60e51b8152600481018490526018818401527f546f6b656e20616d6f756e74206d757374206265203e203000000000000000006044820152606490fd5b60405162461bcd60e51b815260048101849052601581840152742737ba103a3432903a37b5b2b71031b932b0ba37b960591b6044820152606490fd5b50346200018a5760803660031901126200018a5762000e19620011fd565b6024356001600160a01b0381811691829003620006a65760643567ffffffffffffffff8111620007265760209262000e58606492369060040162001214565b505062000e6462001245565b8583600354169360405196879586946323b872dd60e01b8652600486015260248501526044356044850152165af180156200053b5762000ea2575080f35b62000ebd9060203d81116200087b576200086a8183620012d5565b5080f35b50346200018a57806003193601126200018a576020600154604051908152f35b50346200018a5760203660031901126200018a5762000eff620011fd565b62000f0962001245565b6001600160a01b031662000f1f81151562001272565b6bffffffffffffffffffffffff60a01b600354161760035580f35b50346200018a57806003193601126200018a57546040516001600160a01b039091168152602090f35b50346200018a5760203660031901126200018a5762000f8162001245565b60043560075580f35b50346200018a57806003193601126200018a576020600254604051908152f35b50346200018a57806003193601126200018a5762000fc762001245565b80546001600160a01b03198116825581906001600160a01b03167f8be0079c531659141344cd1fd0a4f28419497f9722a3daafe3b4186f6b6457e08280a380f35b50346200018a5760603660031901126200018a5762001026620011fd565b60243590604435906001600160a01b0390818316808403620011075762001095926020926200106287936200105a62001245565b151562001272565b60405163a9059cbb60e01b81526001600160a01b0390961660048701526024860192909252169291829081906044820190565b038187865af18015620010fc57620010d9575b5082526006602052604082209081549080821015620010c5578380f35b620010d0916200138d565b90553880808380f35b620010f49060203d81116200087b576200086a8183620012d5565b5038620010a8565b6040513d86823e3d90fd5b8580fd5b50346200018a57806003193601126200018a576020600754604051908152f35b50346200018a5760203660031901126200018a576020906001600160a01b03906040908262001159620011fd565b16815260058452205416604051908152f35b50346200018a5760403660031901126200018a576200118962001245565b60043560015560243560025580f35b50346200018a57806003193601126200018a576004546040516001600160a01b039091168152602090f35b9050346200091057602036600319011262000910576020916040906001600160a01b03620011f0620011fd565b1681526006845220548152f35b600435906001600160a01b03821682036200052d57565b9181601f840112156200052d5782359167ffffffffffffffff83116200052d57602083818601950101116200052d57565b6000546001600160a01b031633036200125a57565b60405163118cdaa760e01b8152336004820152602490fd5b156200127a57565b60405162461bcd60e51b815260206004820152600f60248201526e496e76616c6964206164647265737360881b6044820152606490fd5b91908201809211620012bf57565b634e487b7160e01b600052601160045260246000fd5b90601f8019910116810190811067ffffffffffffffff821117620012f857604052565b634e487b7160e01b600052604160045260246000fd5b3d156200134d573d9067ffffffffffffffff8211620012f8576040519162001341601f8201601f191660200184620012d5565b82523d6000602084013e565b606090565b908060209392818452848401376000828201840152601f01601f1916010190565b908160209103126200052d575180151581036200052d5790565b91908203918211620012bf57565b908160609103126200052d57805191604060208301519201519056fe60406080815234620005605762001095803803806200001e8162000565565b928339810160e082820312620005605781516001600160401b03929083811162000560578262000050918301620005b0565b90602092838201519085821162000560576200006e918301620005b0565b858201519360ff8516918286036200056057606084015193620000946080820162000607565b97620000b160c0620000a960a0850162000607565b930162000607565b91875182811162000460576003928354936001928386811c9616801562000555575b898710146200053f57601f95868111620004f4575b508089878211600114620004825760009162000476575b5060001982841b1c191690841b1781555b8651918211620004605760049485548481811c9116801562000455575b8a8210146200044057818111620003f5575b50889083116001146200038b57829383916000946200037f575b501b92600019911b1c19161782555b6001600160a01b038181169a9099908b156200036857600580546001600160a01b031981168e179091558b91908d9083167f8be0079c531659141344cd1fd0a4f28419497f9722a3daafe3b4186f6b6457e0600080a316998a156200033357841615620002fb57600680546001600160a81b0319168b1760a09290921b60ff60a01b16919091179055604d8611620002e65785600a0a92838802938885041488151715620002d157600a84049384810393818511620002bc5750927fcfdd2334c592eec854e571de05695acf7ad2753c264d043eefdac143cb72adc099979592620002819592620002739a98956200029c575b505050508a519687966080885260808801906200061c565b91868303908701526200061c565b918884015260608301520390a3516109bf9081620006d68239f35b620002b293620002ac9162000643565b62000643565b388080806200025b565b601190634e487b7160e01b6000525260246000fd5b601183634e487b7160e01b6000525260246000fd5b601182634e487b7160e01b6000525260246000fd5b8b5162461bcd60e51b81528084018790526012602482015271125b9d985b1a5908199959481dd85b1b195d60721b6044820152606490fd5b8c5162461bcd60e51b8152808501889052600f60248201526e24b73b30b634b21031b932b0ba37b960891b6044820152606490fd5b8c51631e4fbdf760e01b8152600081860152602490fd5b89015193503862000159565b90601f1983169186600052838a6000209360005b8c888d848410620003de575050505010620003c3575b505050811b01825562000168565b8801519060f884600019921b161c19169055388080620003b5565b86015188559096019593840193879350016200039f565b86600052896000208280860160051c8201928c871062000436575b0160051c019085905b828110620004295750506200013f565b6000815501859062000419565b9250819262000410565b602287634e487b7160e01b6000525260246000fd5b90607f16906200012d565b634e487b7160e01b600052604160045260246000fd5b90508c015138620000ff565b60008481528b812087945091908f90601f198516908e5b828210620004d25750508411620004b9575b505050811b01815562000110565b015160001983861b60f8161c1916905538808e620004ab565b929484849395979892960151815501940192018f909188959493928e62000499565b82600052896000208780840160051c8201928c851062000535575b0160051c019085905b82811062000528575050620000e8565b6000815501859062000518565b925081926200050f565b634e487b7160e01b600052602260045260246000fd5b95607f1695620000d3565b600080fd5b6040519190601f01601f191682016001600160401b038111838210176200046057604052565b60005b8381106200059f5750506000910152565b81810151838201526020016200058e565b81601f82011215620005605780516001600160401b0381116200046057620005e2601f8201601f191660200162000565565b928184526020828401011162000560576200060491602080850191016200058b565b90565b51906001600160a01b03821682036200056057565b9060209162000637815180928185528580860191016200058b565b601f01601f1916010190565b6001600160a01b0316908115620006bc5760025490808201809211620006a65760207fddf252ad1be2c89b69c2b068fc378daa952ba7f163c4a11628f55a4df523b3ef9160009360025584845283825260408420818154019055604051908152a3565b634e487b7160e01b600052601160045260246000fd5b60405163ec442f0560e01b815260006004820152602490fdfe6080604081815260048036101561001557600080fd5b600092833560e01c90816302d05d3f146107e05750806306fdde0314610705578063095ea7b31461065c57806318160ddd1461063d57806323b872dd1461054a578063313ce5671461052557806340c10f191461047657806342966c68146103b857806370a0823114610381578063715018a6146103215780638da5cb5b146102f857806395d89b41146101d8578063a9059cbb146101a7578063dd62ed3e1461015a5763f2fde38b146100c857600080fd5b34610156576020366003190112610156576100e161084e565b906100ea61087f565b6001600160a01b03918216928315610140575050600554826bffffffffffffffffffffffff60a01b821617600555167f8be0079c531659141344cd1fd0a4f28419497f9722a3daafe3b4186f6b6457e08380a380f35b51631e4fbdf760e01b8152908101849052602490fd5b8280fd5b5050346101a357806003193601126101a3578060209261017861084e565b610180610869565b6001600160a01b0391821683526001865283832091168252845220549051908152f35b5080fd5b5050346101a357806003193601126101a3576020906101d16101c761084e565b60243590336108ab565b5160018152f35b509190346101a357816003193601126101a357805190828454600181811c908083169283156102ee575b60209384841081146102db578388529081156102bf575060011461026a575b505050829003601f01601f191682019267ffffffffffffffff8411838510176102575750829182610253925282610805565b0390f35b634e487b7160e01b815260418552602490fd5b8787529192508591837f8a35acfbc15ff81a39ae7d344fd709f28e8600b4aa8c65c6b64bfe7fe36bd19b5b8385106102ab5750505050830101388080610221565b805488860183015293019284908201610295565b60ff1916878501525050151560051b8401019050388080610221565b634e487b7160e01b895260228a52602489fd5b91607f1691610202565b5050346101a357816003193601126101a35760055490516001600160a01b039091168152602090f35b833461037e578060031936011261037e5761033a61087f565b600580546001600160a01b0319811690915581906001600160a01b03167f8be0079c531659141344cd1fd0a4f28419497f9722a3daafe3b4186f6b6457e08280a380f35b80fd5b5050346101a35760203660031901126101a35760209181906001600160a01b036103a961084e565b16815280845220549051908152f35b509190346101a35760203660031901126101a3578235906103d761087f565b33156104605733835282602052808320549382851061043557508183943385528460205203818420558160025403600255519081527fddf252ad1be2c89b69c2b068fc378daa952ba7f163c4a11628f55a4df523b3ef60203392a380f35b905163391434e360e21b81523391810191825260208201859052604082018390529081906060010390fd5b51634b637e8f60e11b8152808401839052602490fd5b50903461015657806003193601126101565761049061084e565b906024359161049d61087f565b6001600160a01b031692831561051057600254908382018092116104fd575084927fddf252ad1be2c89b69c2b068fc378daa952ba7f163c4a11628f55a4df523b3ef9260209260025585855284835280852082815401905551908152a380f35b634e487b7160e01b865260119052602485fd5b84602492519163ec442f0560e01b8352820152fd5b5050346101a357816003193601126101a35760209060ff60065460a01c169051908152f35b50823461037e57606036600319011261037e5761056561084e565b61056d610869565b916044359360018060a01b0383168083526001602052868320338452602052868320549160001983106105a9575b6020886101d18989896108ab565b8683106106115781156105fa5733156105e3575082526001602090815286832033845281529186902090859003905582906101d18761059b565b8751634a1406b160e11b8152908101849052602490fd5b875163e602df0560e01b8152908101849052602490fd5b8751637dc7a0d960e11b8152339181019182526020820193909352604081018790528291506060010390fd5b5050346101a357816003193601126101a3576020906002549051908152f35b503461015657816003193601126101565761067561084e565b6024359033156106ee576001600160a01b03169182156106d757508083602095338152600187528181208582528752205582519081527f8c5be1e5ebec7d5bd14f71427d1e84f3dd0314c0f7b2291e5b200ac8c7c3b925843392a35160018152f35b8351634a1406b160e11b8152908101859052602490fd5b835163e602df0560e01b8152808401869052602490fd5b509190346101a357816003193601126101a35780519082600354600181811c908083169283156107d6575b60209384841081146102db578388529081156102bf575060011461078057505050829003601f01601f191682019267ffffffffffffffff8411838510176102575750829182610253925282610805565b600387529192508591837fc2575a0e9e593c00f959f8c92f12db2869c3395a3b0502d05e2516446f71f85b5b8385106107c25750505050830101388080610221565b8054888601830152930192849082016107ac565b91607f1691610730565b8490346101a357816003193601126101a3576006546001600160a01b03168152602090f35b6020808252825181830181905290939260005b82811061083a57505060409293506000838284010152601f8019910116010190565b818101860151848201604001528501610818565b600435906001600160a01b038216820361086457565b600080fd5b602435906001600160a01b038216820361086457565b6005546001600160a01b0316330361089357565b60405163118cdaa760e01b8152336004820152602490fd5b916001600160a01b0380841692831561097057169283156109575760009083825281602052604082205490838210610925575091604082827fddf252ad1be2c89b69c2b068fc378daa952ba7f163c4a11628f55a4df523b3ef958760209652828652038282205586815220818154019055604051908152a3565b60405163391434e360e21b81526001600160a01b03919091166004820152602481019190915260448101839052606490fd5b60405163ec442f0560e01b815260006004820152602490fd5b604051634b637e8f60e11b815260006004820152602490fdfea264697066735822122003d7c9640adcd55ffbbf8768e6fa0fe4cdced22d5238ac6375e677ed3cb9de3564736f6c63430008140033a26469706673582212200fbeaca8f3109e526b637a61ab8f9d29478f0fa38fc1dd27400c2b4db7f0f47464736f6c63430008140033","opcodes":"PUSH1 0x80 CALLVALUE PUSH3 0x192 JUMPI PUSH1 0x1F PUSH3 0x2645 CODESIZE DUP2 SWAP1 SUB SWAP2 DUP3 ADD PUSH1 0x1F NOT AND DUP4 ADD SWAP3 SWAP2 SWAP1 PUSH1 0x1 PUSH1 0x1 PUSH1 0x40 SHL SUB DUP5 GT DUP4 DUP6 LT OR PUSH3 0x197 JUMPI DUP2 PUSH1 0x60 SWAP3 DUP5 SWAP3 PUSH1 0x40 SWAP7 DUP8 MSTORE DUP4 CODECOPY DUP2 ADD SUB SLT PUSH3 0x192 JUMPI PUSH3 0x51 DUP2 PUSH3 0x1AD JUMP JUMPDEST SWAP1 DUP3 PUSH3 0x61 PUSH1 0x20 DUP4 ADD PUSH3 0x1AD JUMP JUMPDEST SWAP2 PUSH1 0x1 PUSH1 0x1 PUSH1 0xA0 SHL SUB SWAP2 DUP3 SWAP2 PUSH3 0x79 SWAP2 ADD PUSH3 0x1AD JUMP JUMPDEST AND SWAP2 DUP3 ISZERO PUSH3 0x17A JUMPI DUP2 PUSH1 0x0 SLOAD SWAP5 PUSH1 0x1 DUP1 PUSH1 0xA0 SHL SUB NOT SWAP5 DUP1 DUP7 DUP9 AND OR PUSH1 0x0 SSTORE DUP3 DUP9 MLOAD SWAP8 AND PUSH32 0x8BE0079C531659141344CD1FD0A4F28419497F9722A3DAAFE3B4186F6B6457E0 PUSH1 0x0 DUP1 LOG3 PUSH7 0xAA87BEE538000 DUP1 PUSH1 0x1 SSTORE PUSH7 0x2386F26FC10000 PUSH1 0x2 SSTORE PUSH1 0x7 SSTORE AND SWAP4 DUP5 ISZERO PUSH3 0x143 JUMPI POP AND SWAP2 DUP3 ISZERO PUSH3 0x10E JUMPI DUP2 PUSH1 0x3 SLOAD AND OR PUSH1 0x3 SSTORE PUSH1 0x4 SLOAD AND OR PUSH1 0x4 SSTORE MLOAD PUSH2 0x2482 SWAP1 DUP2 PUSH3 0x1C3 DUP3 CODECOPY RETURN JUMPDEST DUP4 MLOAD PUSH3 0x461BCD PUSH1 0xE5 SHL DUP2 MSTORE PUSH1 0x20 PUSH1 0x4 DUP3 ADD MSTORE PUSH1 0xE PUSH1 0x24 DUP3 ADD MSTORE PUSH14 0x24B73B30B634B2103937BABA32B9 PUSH1 0x91 SHL PUSH1 0x44 DUP3 ADD MSTORE PUSH1 0x64 SWAP1 REVERT JUMPDEST PUSH3 0x461BCD PUSH1 0xE5 SHL DUP2 MSTORE PUSH1 0x20 PUSH1 0x4 DUP3 ADD MSTORE PUSH1 0x12 PUSH1 0x24 DUP3 ADD MSTORE PUSH18 0x125B9D985B1A5908199959481DD85B1B195D PUSH1 0x72 SHL PUSH1 0x44 DUP3 ADD MSTORE PUSH1 0x64 SWAP1 REVERT JUMPDEST DUP5 MLOAD PUSH4 0x1E4FBDF7 PUSH1 0xE0 SHL DUP2 MSTORE PUSH1 0x0 PUSH1 0x4 DUP3 ADD MSTORE PUSH1 0x24 SWAP1 REVERT JUMPDEST PUSH1 0x0 DUP1 REVERT JUMPDEST PUSH4 0x4E487B71 PUSH1 0xE0 SHL PUSH1 0x0 MSTORE PUSH1 0x41 PUSH1 0x4 MSTORE PUSH1 0x24 PUSH1 0x0 REVERT JUMPDEST MLOAD SWAP1 PUSH1 0x1 PUSH1 0x1 PUSH1 0xA0 SHL SUB DUP3 AND DUP3 SUB PUSH3 0x192 JUMPI JUMP INVALID PUSH1 0x80 DUP1 PUSH1 0x40 MSTORE PUSH1 0x4 CALLDATASIZE LT ISZERO PUSH3 0x1F JUMPI JUMPDEST POP CALLDATASIZE ISZERO PUSH3 0x1D JUMPI PUSH1 0x0 DUP1 REVERT JUMPDEST STOP JUMPDEST PUSH1 0x0 SWAP1 DUP2 CALLDATALOAD PUSH1 0xE0 SHR SWAP1 DUP2 PUSH4 0x1A598A6 EQ PUSH3 0x11C3 JUMPI POP DUP1 PUSH4 0x758D924 EQ PUSH3 0x1198 JUMPI DUP1 PUSH4 0xB78F9C0 EQ PUSH3 0x116B JUMPI DUP1 PUSH4 0x23774AF2 EQ PUSH3 0x112B JUMPI DUP1 PUSH4 0x355943D6 EQ PUSH3 0x110B JUMPI DUP1 PUSH4 0x3CCDBB28 EQ PUSH3 0x1008 JUMPI DUP1 PUSH4 0x715018A6 EQ PUSH3 0xFAA JUMPI DUP1 PUSH4 0x728780FA EQ PUSH3 0xF8A JUMPI DUP1 PUSH4 0x8BFA25DA EQ PUSH3 0xF63 JUMPI DUP1 PUSH4 0x8DA5CB5B EQ PUSH3 0xF3A JUMPI DUP1 PUSH4 0x90D49B9D EQ PUSH3 0xEE1 JUMPI DUP1 PUSH4 0xA8F32251 EQ PUSH3 0xEC1 JUMPI DUP1 PUSH4 0xB8D38253 EQ PUSH3 0xDFB JUMPI DUP1 PUSH4 0xC8FE3AB5 EQ PUSH3 0xAA9 JUMPI DUP1 PUSH4 0xEF11D9CA EQ PUSH3 0x1B8 JUMPI DUP1 PUSH4 0xF25F4B56 EQ PUSH3 0x18D JUMPI PUSH4 0xF2FDE38B SUB PUSH3 0x10 JUMPI CALLVALUE PUSH3 0x18A JUMPI PUSH1 0x20 CALLDATASIZE PUSH1 0x3 NOT ADD SLT PUSH3 0x18A JUMPI PUSH3 0x111 PUSH3 0x11FD JUMP JUMPDEST PUSH3 0x11B PUSH3 0x1245 JUMP JUMPDEST PUSH1 0x1 PUSH1 0x1 PUSH1 0xA0 SHL SUB SWAP1 DUP2 AND SWAP1 DUP2 ISZERO PUSH3 0x171 JUMPI PUSH1 0x0 SLOAD DUP3 PUSH12 0xFFFFFFFFFFFFFFFFFFFFFFFF PUSH1 0xA0 SHL DUP3 AND OR PUSH1 0x0 SSTORE AND PUSH32 0x8BE0079C531659141344CD1FD0A4F28419497F9722A3DAAFE3B4186F6B6457E0 PUSH1 0x0 DUP1 LOG3 DUP1 RETURN JUMPDEST PUSH1 0x40 MLOAD PUSH4 0x1E4FBDF7 PUSH1 0xE0 SHL DUP2 MSTORE PUSH1 0x4 DUP2 ADD DUP5 SWAP1 MSTORE PUSH1 0x24 SWAP1 REVERT JUMPDEST DUP1 REVERT JUMPDEST POP CALLVALUE PUSH3 0x18A JUMPI DUP1 PUSH1 0x3 NOT CALLDATASIZE ADD SLT PUSH3 0x18A JUMPI PUSH1 0x3 SLOAD PUSH1 0x40 MLOAD PUSH1 0x1 PUSH1 0x1 PUSH1 0xA0 SHL SUB SWAP1 SWAP2 AND DUP2 MSTORE PUSH1 0x20 SWAP1 RETURN JUMPDEST POP PUSH1 0x60 CALLDATASIZE PUSH1 0x3 NOT ADD SLT PUSH3 0x18A JUMPI PUSH1 0x4 CALLDATALOAD PUSH8 0xFFFFFFFFFFFFFFFF DUP2 GT PUSH3 0x910 JUMPI PUSH3 0x1E9 SWAP1 CALLDATASIZE SWAP1 PUSH1 0x4 ADD PUSH3 0x1214 JUMP JUMPDEST SWAP2 SWAP1 PUSH1 0x24 CALLDATALOAD PUSH8 0xFFFFFFFFFFFFFFFF DUP2 GT PUSH3 0xAA5 JUMPI PUSH3 0x20E SWAP1 CALLDATASIZE SWAP1 PUSH1 0x4 ADD PUSH3 0x1214 JUMP JUMPDEST PUSH1 0x3 SLOAD PUSH1 0x1 PUSH1 0x1 PUSH1 0xA0 SHL SUB AND SWAP3 CALLER DUP5 EQ SWAP3 SWAP2 SWAP1 DUP4 ISZERO PUSH3 0xA9B JUMPI DUP6 SWAP5 JUMPDEST DUP5 ISZERO PUSH3 0xA8C JUMPI DUP7 SWAP5 JUMPDEST ISZERO PUSH3 0xA60 JUMPI DUP7 JUMPDEST CALLVALUE LT PUSH3 0xA05 JUMPI DUP8 ISZERO PUSH3 0x9D0 JUMPI DUP3 ISZERO PUSH3 0x999 JUMPI DUP7 SWAP1 DUP7 DUP1 PUSH3 0x93C JUMPI JUMPDEST POP POP PUSH1 0x3 SLOAD PUSH1 0x40 MLOAD SWAP2 POP PUSH1 0x1 PUSH1 0x1 PUSH1 0xA0 SHL SUB AND PUSH8 0xFFFFFFFFFFFFFFFF PUSH2 0x1095 DUP4 ADD SWAP1 DUP2 GT SWAP1 DUP4 GT OR PUSH3 0x928 JUMPI DUP2 SWAP1 PUSH2 0x1095 PUSH3 0x13B8 DUP4 CODECOPY PUSH1 0xE0 PUSH2 0x1095 DUP4 ADD MSTORE PUSH3 0x2CC PUSH3 0x2B4 PUSH1 0xE0 PUSH2 0x1095 DUP6 ADD ADD DUP13 DUP8 PUSH3 0x1352 JUMP JUMPDEST PUSH2 0x1095 DUP5 ADD DUP2 SUB PUSH1 0x20 PUSH2 0x1095 DUP7 ADD ADD MSTORE DUP7 DUP9 PUSH3 0x1352 JUMP JUMPDEST PUSH1 0x12 PUSH2 0x1095 DUP5 ADD PUSH1 0x40 DUP2 ADD SWAP2 SWAP1 SWAP2 MSTORE PUSH4 0x3B9ACA00 PUSH1 0x60 DUP3 ADD MSTORE CALLER PUSH1 0x80 DUP3 ADD MSTORE ADDRESS PUSH1 0xA0 DUP3 ADD MSTORE PUSH1 0xC0 ADD SWAP2 SWAP1 SWAP2 MSTORE SUB SWAP1 DUP8 CREATE DUP1 ISZERO PUSH3 0x91D JUMPI PUSH1 0x1 PUSH1 0x1 PUSH1 0xA0 SHL SUB AND DUP1 DUP8 MSTORE PUSH1 0x5 PUSH1 0x20 SWAP1 DUP2 MSTORE PUSH1 0x40 DUP1 DUP10 KECCAK256 DUP1 SLOAD PUSH1 0x1 PUSH1 0x1 PUSH1 0xA0 SHL SUB NOT AND CALLER OR SWAP1 SSTORE MLOAD PUSH4 0x70A08231 PUSH1 0xE0 SHL DUP2 MSTORE ADDRESS PUSH1 0x4 DUP3 ADD MSTORE SWAP2 SWAP8 SWAP2 SWAP1 DUP2 PUSH1 0x24 DUP2 DUP12 GAS STATICCALL SWAP1 DUP2 ISZERO PUSH3 0x53B JUMPI DUP3 SWAP2 PUSH3 0x8E1 JUMPI JUMPDEST POP PUSH1 0x44 CALLDATALOAD ISZERO ISZERO SWAP1 DUP2 PUSH3 0x8D3 JUMPI JUMPDEST POP ISZERO PUSH3 0x883 JUMPI PUSH1 0x4 DUP1 SLOAD PUSH1 0x40 MLOAD PUSH4 0x95EA7B3 PUSH1 0xE0 SHL DUP2 MSTORE PUSH1 0x1 PUSH1 0x1 PUSH1 0xA0 SHL SUB SWAP1 SWAP2 AND SWAP2 DUP2 ADD SWAP2 SWAP1 SWAP2 MSTORE PUSH1 0x0 NOT PUSH1 0x24 DUP3 ADD MSTORE PUSH1 0x20 DUP2 PUSH1 0x44 DUP2 DUP6 DUP13 GAS CALL DUP1 ISZERO PUSH3 0x53B JUMPI PUSH3 0x84D JUMPI JUMPDEST POP DUP1 SWAP5 PUSH3 0x3C6 PUSH7 0xFFFFFFFFFFFFFF DUP3 AND DUP9 PUSH3 0x12B1 JUMP JUMPDEST CALLVALUE GT PUSH3 0x824 JUMPI JUMPDEST DUP6 PUSH3 0x752 JUMPI JUMPDEST PUSH7 0xFFFFFFFFFFFFFF DUP2 AND PUSH3 0x546 JUMPI JUMPDEST POP PUSH1 0x40 MLOAD PUSH4 0x70A08231 PUSH1 0xE0 SHL DUP2 MSTORE ADDRESS PUSH1 0x4 DUP3 ADD MSTORE PUSH1 0x20 DUP2 PUSH1 0x24 DUP2 DUP12 GAS STATICCALL SWAP1 DUP2 ISZERO PUSH3 0x53B JUMPI DUP3 SWAP2 PUSH3 0x4FE JUMPI JUMPDEST POP DUP8 DUP3 MSTORE PUSH1 0x6 PUSH1 0x20 MSTORE PUSH1 0x40 DUP3 KECCAK256 SSTORE SELFBALANCE DUP1 PUSH3 0x49F JUMPI JUMPDEST POP POP SWAP3 PUSH3 0x47C PUSH32 0x5F54C7FCD7E0D07C8D765788E6EA1B851012BD80863D3C969B5233D4FBDEDB2 SWAP4 PUSH1 0x20 SWAP9 SWAP4 PUSH3 0x46E DUP10 SWAP8 PUSH1 0x40 MLOAD SWAP7 PUSH1 0xA0 DUP9 MSTORE PUSH1 0xA0 DUP9 ADD SWAP2 PUSH3 0x1352 JUMP JUMPDEST SWAP2 DUP6 DUP4 SUB DUP12 DUP8 ADD MSTORE PUSH3 0x1352 JUMP JUMPDEST SWAP5 PUSH4 0x3B9ACA00 PUSH1 0x40 DUP5 ADD MSTORE PUSH1 0x60 DUP4 ADD MSTORE PUSH1 0x80 DUP3 ADD MSTORE DUP1 CALLER SWAP5 SUB SWAP1 LOG3 PUSH1 0x40 MLOAD SWAP1 DUP2 MSTORE RETURN JUMPDEST DUP2 DUP1 DUP1 SWAP3 SWAP11 SWAP6 SWAP7 SWAP8 SWAP5 SWAP11 CALLER GAS CALL PUSH3 0x4B6 PUSH3 0x130E JUMP JUMPDEST POP ISZERO PUSH3 0x4C9 JUMPI SWAP3 SWAP2 SWAP1 SWAP6 CODESIZE DUP1 PUSH3 0x428 JUMP JUMPDEST PUSH1 0x40 MLOAD PUSH3 0x461BCD PUSH1 0xE5 SHL DUP2 MSTORE PUSH1 0x20 PUSH1 0x4 DUP3 ADD MSTORE PUSH1 0xD PUSH1 0x24 DUP3 ADD MSTORE PUSH13 0x1499599D5B990819985A5B1959 PUSH1 0x9A SHL PUSH1 0x44 DUP3 ADD MSTORE PUSH1 0x64 SWAP1 REVERT JUMPDEST SWAP1 POP PUSH1 0x20 DUP2 RETURNDATASIZE PUSH1 0x20 GT PUSH3 0x532 JUMPI JUMPDEST DUP2 PUSH3 0x51C PUSH1 0x20 SWAP4 DUP4 PUSH3 0x12D5 JUMP JUMPDEST DUP2 ADD SUB SLT PUSH3 0x52D JUMPI MLOAD CODESIZE PUSH3 0x412 JUMP JUMPDEST PUSH1 0x0 DUP1 REVERT JUMPDEST RETURNDATASIZE SWAP2 POP PUSH3 0x50D JUMP JUMPDEST PUSH1 0x40 MLOAD RETURNDATASIZE DUP5 DUP3 RETURNDATACOPY RETURNDATASIZE SWAP1 REVERT JUMPDEST PUSH1 0x40 MLOAD SWAP1 DUP2 PUSH1 0x60 DUP2 ADD LT PUSH8 0xFFFFFFFFFFFFFFFF PUSH1 0x60 DUP5 ADD GT OR PUSH3 0x73E JUMPI PUSH1 0x60 DUP3 ADD PUSH1 0x40 MSTORE PUSH1 0x2 DUP3 MSTORE PUSH1 0x40 CALLDATASIZE PUSH1 0x20 DUP5 ADD CALLDATACOPY PUSH1 0x1 DUP1 PUSH1 0xA0 SHL SUB PUSH1 0x4 SLOAD AND PUSH1 0x40 MLOAD PUSH4 0x15AB88C9 PUSH1 0xE3 SHL DUP2 MSTORE PUSH1 0x20 DUP2 PUSH1 0x4 DUP2 DUP6 GAS STATICCALL SWAP1 DUP2 ISZERO PUSH3 0x733 JUMPI DUP6 SWAP2 PUSH3 0x6E6 JUMPI JUMPDEST POP DUP4 MLOAD ISZERO PUSH3 0x6D2 JUMPI PUSH1 0x1 PUSH1 0x1 PUSH1 0xA0 SHL SUB AND PUSH1 0x20 DUP5 ADD MSTORE DUP3 MLOAD PUSH1 0x1 LT ISZERO PUSH3 0x6BE JUMPI DUP10 PUSH1 0x40 DUP5 ADD MSTORE PUSH2 0x258 TIMESTAMP ADD TIMESTAMP GT PUSH3 0x6AA JUMPI DUP1 EXTCODESIZE ISZERO PUSH3 0x6A6 JUMPI SWAP2 DUP4 SWAP2 PUSH1 0x40 MLOAD SWAP4 DUP5 SWAP3 PUSH4 0xB6F9DE95 PUSH1 0xE0 SHL DUP5 MSTORE PUSH1 0x84 DUP5 ADD DUP6 PUSH1 0x4 DUP7 ADD MSTORE PUSH1 0x80 PUSH1 0x24 DUP7 ADD MSTORE DUP2 MLOAD DUP1 SWAP2 MSTORE PUSH1 0x20 PUSH1 0xA4 DUP7 ADD SWAP3 ADD SWAP1 DUP7 JUMPDEST DUP2 DUP2 LT PUSH3 0x680 JUMPI POP POP POP SWAP1 PUSH7 0xFFFFFFFFFFFFFF DUP5 DUP1 SWAP4 CALLER PUSH1 0x44 DUP4 ADD MSTORE PUSH2 0x258 TIMESTAMP ADD PUSH1 0x64 DUP4 ADD MSTORE SUB SWAP4 AND SWAP1 GAS CALL DUP1 ISZERO PUSH3 0x53B JUMPI ISZERO PUSH3 0x3E5 JUMPI PUSH8 0xFFFFFFFFFFFFFFFF DUP2 GT PUSH3 0x66C JUMPI PUSH1 0x40 MSTORE CODESIZE PUSH3 0x3E5 JUMP JUMPDEST PUSH4 0x4E487B71 PUSH1 0xE0 SHL DUP3 MSTORE PUSH1 0x41 PUSH1 0x4 MSTORE PUSH1 0x24 DUP3 REVERT JUMPDEST DUP3 MLOAD PUSH1 0x1 PUSH1 0x1 PUSH1 0xA0 SHL SUB AND DUP5 MSTORE DUP10 SWAP8 POP DUP9 SWAP7 POP PUSH1 0x20 SWAP4 DUP5 ADD SWAP4 SWAP1 SWAP3 ADD SWAP2 PUSH1 0x1 ADD PUSH3 0x618 JUMP JUMPDEST DUP4 DUP1 REVERT JUMPDEST PUSH4 0x4E487B71 PUSH1 0xE0 SHL DUP5 MSTORE PUSH1 0x11 PUSH1 0x4 MSTORE PUSH1 0x24 DUP5 REVERT JUMPDEST PUSH4 0x4E487B71 PUSH1 0xE0 SHL DUP5 MSTORE PUSH1 0x32 PUSH1 0x4 MSTORE PUSH1 0x24 DUP5 REVERT JUMPDEST PUSH4 0x4E487B71 PUSH1 0xE0 SHL DUP6 MSTORE PUSH1 0x32 PUSH1 0x4 MSTORE PUSH1 0x24 DUP6 REVERT JUMPDEST SWAP1 POP PUSH1 0x20 DUP2 RETURNDATASIZE PUSH1 0x20 GT PUSH3 0x72A JUMPI JUMPDEST DUP2 PUSH3 0x704 PUSH1 0x20 SWAP4 DUP4 PUSH3 0x12D5 JUMP JUMPDEST DUP2 ADD SUB SLT PUSH3 0x726 JUMPI MLOAD PUSH1 0x1 PUSH1 0x1 PUSH1 0xA0 SHL SUB DUP2 AND DUP2 SUB PUSH3 0x726 JUMPI CODESIZE PUSH3 0x5A8 JUMP JUMPDEST DUP5 DUP1 REVERT JUMPDEST RETURNDATASIZE SWAP2 POP PUSH3 0x6F5 JUMP JUMPDEST PUSH1 0x40 MLOAD RETURNDATASIZE DUP8 DUP3 RETURNDATACOPY RETURNDATASIZE SWAP1 REVERT JUMPDEST PUSH4 0x4E487B71 PUSH1 0xE0 SHL DUP4 MSTORE PUSH1 0x41 PUSH1 0x4 MSTORE PUSH1 0x24 DUP4 REVERT JUMPDEST PUSH1 0x4 SLOAD PUSH1 0x1 PUSH1 0x1 PUSH1 0xA0 SHL SUB AND TIMESTAMP PUSH2 0x258 DUP2 ADD LT PUSH3 0x810 JUMPI PUSH1 0x40 MLOAD PUSH4 0xF305D719 PUSH1 0xE0 SHL DUP2 MSTORE PUSH1 0x1 PUSH1 0x1 PUSH1 0xA0 SHL SUB DUP11 AND PUSH1 0x4 DUP3 ADD MSTORE PUSH1 0x44 DUP1 CALLDATALOAD PUSH1 0x24 DUP4 ADD MSTORE PUSH1 0x0 SWAP1 DUP3 ADD DUP2 SWAP1 MSTORE PUSH1 0x64 DUP3 ADD MSTORE CALLER PUSH1 0x84 DUP3 ADD MSTORE PUSH2 0x258 TIMESTAMP ADD PUSH1 0xA4 DUP3 ADD MSTORE SWAP1 PUSH1 0x60 SWAP1 DUP3 SWAP1 PUSH1 0xC4 SWAP1 DUP3 SWAP1 DUP12 SWAP1 GAS CALL DUP1 ISZERO PUSH3 0x805 JUMPI PUSH3 0x7CF JUMPI JUMPDEST POP PUSH3 0x3D5 JUMP JUMPDEST PUSH3 0x7F5 SWAP1 PUSH1 0x60 RETURNDATASIZE PUSH1 0x60 GT PUSH3 0x7FD JUMPI JUMPDEST PUSH3 0x7EC DUP2 DUP4 PUSH3 0x12D5 JUMP JUMPDEST DUP2 ADD SWAP1 PUSH3 0x139B JUMP JUMPDEST POP POP PUSH3 0x7C8 JUMP JUMPDEST POP RETURNDATASIZE PUSH3 0x7E0 JUMP JUMPDEST PUSH1 0x40 MLOAD RETURNDATASIZE DUP6 DUP3 RETURNDATACOPY RETURNDATASIZE SWAP1 REVERT JUMPDEST PUSH4 0x4E487B71 PUSH1 0xE0 SHL DUP4 MSTORE PUSH1 0x11 PUSH1 0x4 MSTORE PUSH1 0x24 DUP4 REVERT JUMPDEST SWAP5 POP PUSH3 0x846 PUSH7 0xFFFFFFFFFFFFFF DUP7 AND PUSH3 0x840 DUP9 CALLVALUE PUSH3 0x138D JUMP JUMPDEST PUSH3 0x138D JUMP JUMPDEST SWAP5 PUSH3 0x3CE JUMP JUMPDEST PUSH3 0x873 SWAP1 PUSH1 0x20 RETURNDATASIZE PUSH1 0x20 GT PUSH3 0x87B JUMPI JUMPDEST PUSH3 0x86A DUP2 DUP4 PUSH3 0x12D5 JUMP JUMPDEST DUP2 ADD SWAP1 PUSH3 0x1373 JUMP JUMPDEST POP CODESIZE PUSH3 0x3AE JUMP JUMPDEST POP RETURNDATASIZE PUSH3 0x85E JUMP JUMPDEST PUSH1 0x40 MLOAD PUSH3 0x461BCD PUSH1 0xE5 SHL DUP2 MSTORE PUSH1 0x20 PUSH1 0x4 DUP3 ADD MSTORE PUSH1 0x22 PUSH1 0x24 DUP3 ADD MSTORE PUSH32 0x496E76616C696420746F6B656E7320746F206C697175696461746520616D6F75 PUSH1 0x44 DUP3 ADD MSTORE PUSH2 0x1B9D PUSH1 0xF2 SHL PUSH1 0x64 DUP3 ADD MSTORE PUSH1 0x84 SWAP1 REVERT JUMPDEST SWAP1 POP PUSH1 0x44 CALLDATALOAD GT ISZERO CODESIZE PUSH3 0x365 JUMP JUMPDEST SWAP1 POP PUSH1 0x20 DUP2 RETURNDATASIZE PUSH1 0x20 GT PUSH3 0x914 JUMPI JUMPDEST DUP2 PUSH3 0x8FF PUSH1 0x20 SWAP4 DUP4 PUSH3 0x12D5 JUMP JUMPDEST DUP2 ADD SUB SLT PUSH3 0x910 JUMPI MLOAD CODESIZE PUSH3 0x357 JUMP JUMPDEST POP DUP1 REVERT JUMPDEST RETURNDATASIZE SWAP2 POP PUSH3 0x8F0 JUMP JUMPDEST PUSH1 0x40 MLOAD RETURNDATASIZE DUP9 DUP3 RETURNDATACOPY RETURNDATASIZE SWAP1 REVERT JUMPDEST PUSH4 0x4E487B71 PUSH1 0xE0 SHL DUP9 MSTORE PUSH1 0x41 PUSH1 0x4 MSTORE PUSH1 0x24 DUP9 REVERT JUMPDEST DUP3 DUP1 SWAP3 SWAP2 DUP2 SWAP3 GAS CALL PUSH3 0x94E PUSH3 0x130E JUMP JUMPDEST POP ISZERO PUSH3 0x95E JUMPI DUP6 CODESIZE DUP7 PUSH3 0x25C JUMP JUMPDEST PUSH1 0x40 MLOAD PUSH3 0x461BCD PUSH1 0xE5 SHL DUP2 MSTORE PUSH1 0x20 PUSH1 0x4 DUP3 ADD MSTORE PUSH1 0x13 PUSH1 0x24 DUP3 ADD MSTORE PUSH19 0x119959481D1C985B9CD9995C8819985A5B1959 PUSH1 0x6A SHL PUSH1 0x44 DUP3 ADD MSTORE PUSH1 0x64 SWAP1 REVERT JUMPDEST PUSH1 0x40 MLOAD PUSH3 0x461BCD PUSH1 0xE5 SHL DUP2 MSTORE PUSH1 0x20 PUSH1 0x4 DUP3 ADD MSTORE PUSH1 0xF PUSH1 0x24 DUP3 ADD MSTORE PUSH15 0x14DE5B589BDB081C995C5D5A5C9959 PUSH1 0x8A SHL PUSH1 0x44 DUP3 ADD MSTORE PUSH1 0x64 SWAP1 REVERT JUMPDEST PUSH1 0x40 MLOAD PUSH3 0x461BCD PUSH1 0xE5 SHL DUP2 MSTORE PUSH1 0x20 PUSH1 0x4 DUP3 ADD MSTORE PUSH1 0xD PUSH1 0x24 DUP3 ADD MSTORE PUSH13 0x13985B59481C995C5D5A5C9959 PUSH1 0x9A SHL PUSH1 0x44 DUP3 ADD MSTORE PUSH1 0x64 SWAP1 REVERT JUMPDEST PUSH1 0x40 MLOAD PUSH3 0x461BCD PUSH1 0xE5 SHL DUP2 MSTORE PUSH1 0x20 PUSH1 0x4 DUP3 ADD MSTORE PUSH1 0x2D PUSH1 0x24 DUP3 ADD MSTORE PUSH32 0x496E73756666696369656E7420424E423A206E65656420666565202B204C5020 PUSH1 0x44 DUP3 ADD MSTORE PUSH13 0x2B206669727374207472616465 PUSH1 0x98 SHL PUSH1 0x64 DUP3 ADD MSTORE PUSH1 0x84 SWAP1 REVERT JUMPDEST PUSH3 0xA86 PUSH1 0x1 SLOAD PUSH3 0xA80 PUSH7 0xFFFFFFFFFFFFFF DUP9 AND SWAP2 PUSH1 0x2 SLOAD SWAP1 PUSH3 0x12B1 JUMP JUMPDEST PUSH3 0x12B1 JUMP JUMPDEST PUSH3 0x23D JUMP JUMPDEST PUSH7 0x71AFD498D0000 SWAP5 PUSH3 0x235 JUMP JUMPDEST PUSH1 0x1 SLOAD SWAP5 PUSH3 0x22B JUMP JUMPDEST DUP3 DUP1 REVERT JUMPDEST POP PUSH1 0x40 CALLDATASIZE PUSH1 0x3 NOT ADD SLT PUSH3 0x18A JUMPI PUSH3 0xAC1 PUSH3 0x11FD JUMP JUMPDEST PUSH1 0x1 PUSH1 0x1 PUSH1 0xA0 SHL SUB DUP1 DUP3 AND DUP1 DUP5 MSTORE PUSH1 0x5 PUSH1 0x20 SWAP1 DUP2 MSTORE PUSH1 0x40 DUP6 KECCAK256 SLOAD PUSH1 0x24 DUP1 CALLDATALOAD SWAP6 SWAP4 SWAP5 SWAP4 SWAP1 SWAP2 DUP5 AND CALLER SUB PUSH3 0xDBF JUMPI DUP6 ISZERO PUSH3 0xD7B JUMPI DUP5 DUP8 MSTORE PUSH1 0x6 DUP4 MSTORE DUP6 PUSH1 0x40 DUP9 KECCAK256 SLOAD LT PUSH3 0xD37 JUMPI PUSH1 0x7 SLOAD DUP1 CALLVALUE GT ISZERO PUSH3 0xCE5 JUMPI DUP8 DUP1 DUP1 DUP1 SWAP4 DUP9 PUSH1 0x3 SLOAD AND GAS CALL PUSH3 0xB2A PUSH3 0x130E JUMP JUMPDEST POP ISZERO PUSH3 0xCA1 JUMPI PUSH1 0x4 DUP1 SLOAD PUSH1 0x40 MLOAD PUSH4 0x95EA7B3 PUSH1 0xE0 SHL DUP2 MSTORE SWAP1 DUP7 AND PUSH1 0x1 PUSH1 0x1 PUSH1 0xA0 SHL SUB AND SWAP2 DUP2 ADD SWAP2 SWAP1 SWAP2 MSTORE PUSH1 0x24 DUP2 ADD DUP8 SWAP1 MSTORE DUP4 DUP2 PUSH1 0x44 DUP2 DUP12 DUP11 GAS CALL DUP1 ISZERO PUSH3 0xC96 JUMPI PUSH3 0xC74 JUMPI JUMPDEST POP PUSH3 0xB81 PUSH1 0x7 SLOAD CALLVALUE PUSH3 0x138D JUMP JUMPDEST SWAP4 PUSH1 0x4 SLOAD AND SWAP1 PUSH2 0x258 TIMESTAMP ADD SWAP3 DUP4 TIMESTAMP GT PUSH3 0xC62 JUMPI POP PUSH1 0x40 MLOAD PUSH4 0xF305D719 PUSH1 0xE0 SHL DUP2 MSTORE PUSH1 0x1 PUSH1 0x1 PUSH1 0xA0 SHL SUB SWAP2 SWAP1 SWAP2 AND PUSH1 0x4 DUP3 ADD MSTORE PUSH1 0x24 DUP2 ADD DUP8 SWAP1 MSTORE PUSH1 0x0 PUSH1 0x44 DUP3 ADD DUP2 SWAP1 MSTORE PUSH1 0x64 DUP3 ADD MSTORE CALLER PUSH1 0x84 DUP3 ADD MSTORE PUSH1 0xA4 DUP2 ADD SWAP3 SWAP1 SWAP3 MSTORE PUSH1 0x60 SWAP1 DUP3 SWAP1 PUSH1 0xC4 SWAP1 DUP3 SWAP1 DUP8 SWAP1 GAS CALL DUP1 ISZERO PUSH3 0x91D JUMPI PUSH3 0xC3F JUMPI JUMPDEST POP DUP3 DUP6 MSTORE PUSH1 0x6 DUP2 MSTORE PUSH1 0x40 DUP6 KECCAK256 PUSH3 0xC0B DUP6 DUP3 SLOAD PUSH3 0x138D JUMP JUMPDEST SWAP1 SSTORE PUSH1 0x40 MLOAD SWAP4 DUP5 MSTORE DUP4 ADD MSTORE PUSH32 0x36F3B2E1A21C19137DD82EC243B0708A1D26B3D1FA1DC49C44C4C366A5878138 PUSH1 0x40 CALLER SWAP4 LOG3 DUP1 RETURN JUMPDEST PUSH3 0xC5A SWAP1 PUSH1 0x60 RETURNDATASIZE DUP2 GT PUSH3 0x7FD JUMPI PUSH3 0x7EC DUP2 DUP4 PUSH3 0x12D5 JUMP JUMPDEST POP POP PUSH3 0xBF2 JUMP JUMPDEST PUSH4 0x4E487B71 PUSH1 0xE0 SHL DUP10 MSTORE PUSH1 0x11 PUSH1 0x4 MSTORE DUP9 REVERT JUMPDEST PUSH3 0xC8E SWAP1 DUP5 RETURNDATASIZE DUP7 GT PUSH3 0x87B JUMPI PUSH3 0x86A DUP2 DUP4 PUSH3 0x12D5 JUMP JUMPDEST POP CODESIZE PUSH3 0xB72 JUMP JUMPDEST PUSH1 0x40 MLOAD RETURNDATASIZE DUP11 DUP3 RETURNDATACOPY RETURNDATASIZE SWAP1 REVERT JUMPDEST PUSH1 0x40 MLOAD PUSH3 0x461BCD PUSH1 0xE5 SHL DUP2 MSTORE PUSH1 0x4 DUP2 ADD DUP5 SWAP1 MSTORE PUSH1 0x1B DUP2 DUP5 ADD MSTORE PUSH32 0x5365727669636520666565207472616E73666572206661696C65640000000000 PUSH1 0x44 DUP3 ADD MSTORE PUSH1 0x64 SWAP1 REVERT JUMPDEST PUSH1 0x40 MLOAD PUSH3 0x461BCD PUSH1 0xE5 SHL DUP2 MSTORE PUSH1 0x4 DUP2 ADD DUP6 SWAP1 MSTORE PUSH1 0x25 DUP2 DUP6 ADD MSTORE PUSH32 0x4D7573742073656E64207365727669636520666565202B206C69717569646974 PUSH1 0x44 DUP3 ADD MSTORE PUSH5 0x3C90212721 PUSH1 0xD9 SHL PUSH1 0x64 DUP3 ADD MSTORE PUSH1 0x84 SWAP1 REVERT JUMPDEST PUSH1 0x40 MLOAD PUSH3 0x461BCD PUSH1 0xE5 SHL DUP2 MSTORE PUSH1 0x4 DUP2 ADD DUP5 SWAP1 MSTORE PUSH1 0x1C DUP2 DUP5 ADD MSTORE PUSH32 0x496E73756666696369656E7420746F6B656E7320696E207661756C7400000000 PUSH1 0x44 DUP3 ADD MSTORE PUSH1 0x64 SWAP1 REVERT JUMPDEST PUSH1 0x40 MLOAD PUSH3 0x461BCD PUSH1 0xE5 SHL DUP2 MSTORE PUSH1 0x4 DUP2 ADD DUP5 SWAP1 MSTORE PUSH1 0x18 DUP2 DUP5 ADD MSTORE PUSH32 0x546F6B656E20616D6F756E74206D757374206265203E20300000000000000000 PUSH1 0x44 DUP3 ADD MSTORE PUSH1 0x64 SWAP1 REVERT JUMPDEST PUSH1 0x40 MLOAD PUSH3 0x461BCD PUSH1 0xE5 SHL DUP2 MSTORE PUSH1 0x4 DUP2 ADD DUP5 SWAP1 MSTORE PUSH1 0x15 DUP2 DUP5 ADD MSTORE PUSH21 0x2737BA103A3432903A37B5B2B71031B932B0BA37B9 PUSH1 0x59 SHL PUSH1 0x44 DUP3 ADD MSTORE PUSH1 0x64 SWAP1 REVERT JUMPDEST POP CALLVALUE PUSH3 0x18A JUMPI PUSH1 0x80 CALLDATASIZE PUSH1 0x3 NOT ADD SLT PUSH3 0x18A JUMPI PUSH3 0xE19 PUSH3 0x11FD JUMP JUMPDEST PUSH1 0x24 CALLDATALOAD PUSH1 0x1 PUSH1 0x1 PUSH1 0xA0 SHL SUB DUP2 DUP2 AND SWAP2 DUP3 SWAP1 SUB PUSH3 0x6A6 JUMPI PUSH1 0x64 CALLDATALOAD PUSH8 0xFFFFFFFFFFFFFFFF DUP2 GT PUSH3 0x726 JUMPI PUSH1 0x20 SWAP3 PUSH3 0xE58 PUSH1 0x64 SWAP3 CALLDATASIZE SWAP1 PUSH1 0x4 ADD PUSH3 0x1214 JUMP JUMPDEST POP POP PUSH3 0xE64 PUSH3 0x1245 JUMP JUMPDEST DUP6 DUP4 PUSH1 0x3 SLOAD AND SWAP4 PUSH1 0x40 MLOAD SWAP7 DUP8 SWAP6 DUP7 SWAP5 PUSH4 0x23B872DD PUSH1 0xE0 SHL DUP7 MSTORE PUSH1 0x4 DUP7 ADD MSTORE PUSH1 0x24 DUP6 ADD MSTORE PUSH1 0x44 CALLDATALOAD PUSH1 0x44 DUP6 ADD MSTORE AND GAS CALL DUP1 ISZERO PUSH3 0x53B JUMPI PUSH3 0xEA2 JUMPI POP DUP1 RETURN JUMPDEST PUSH3 0xEBD SWAP1 PUSH1 0x20 RETURNDATASIZE DUP2 GT PUSH3 0x87B JUMPI PUSH3 0x86A DUP2 DUP4 PUSH3 0x12D5 JUMP JUMPDEST POP DUP1 RETURN JUMPDEST POP CALLVALUE PUSH3 0x18A JUMPI DUP1 PUSH1 0x3 NOT CALLDATASIZE ADD SLT PUSH3 0x18A JUMPI PUSH1 0x20 PUSH1 0x1 SLOAD PUSH1 0x40 MLOAD SWAP1 DUP2 MSTORE RETURN JUMPDEST POP CALLVALUE PUSH3 0x18A JUMPI PUSH1 0x20 CALLDATASIZE PUSH1 0x3 NOT ADD SLT PUSH3 0x18A JUMPI PUSH3 0xEFF PUSH3 0x11FD JUMP JUMPDEST PUSH3 0xF09 PUSH3 0x1245 JUMP JUMPDEST PUSH1 0x1 PUSH1 0x1 PUSH1 0xA0 SHL SUB AND PUSH3 0xF1F DUP2 ISZERO ISZERO PUSH3 0x1272 JUMP JUMPDEST PUSH12 0xFFFFFFFFFFFFFFFFFFFFFFFF PUSH1 0xA0 SHL PUSH1 0x3 SLOAD AND OR PUSH1 0x3 SSTORE DUP1 RETURN JUMPDEST POP CALLVALUE PUSH3 0x18A JUMPI DUP1 PUSH1 0x3 NOT CALLDATASIZE ADD SLT PUSH3 0x18A JUMPI SLOAD PUSH1 0x40 MLOAD PUSH1 0x1 PUSH1 0x1 PUSH1 0xA0 SHL SUB SWAP1 SWAP2 AND DUP2 MSTORE PUSH1 0x20 SWAP1 RETURN JUMPDEST POP CALLVALUE PUSH3 0x18A JUMPI PUSH1 0x20 CALLDATASIZE PUSH1 0x3 NOT ADD SLT PUSH3 0x18A JUMPI PUSH3 0xF81 PUSH3 0x1245 JUMP JUMPDEST PUSH1 0x4 CALLDATALOAD PUSH1 0x7 SSTORE DUP1 RETURN JUMPDEST POP CALLVALUE PUSH3 0x18A JUMPI DUP1 PUSH1 0x3 NOT CALLDATASIZE ADD SLT PUSH3 0x18A JUMPI PUSH1 0x20 PUSH1 0x2 SLOAD PUSH1 0x40 MLOAD SWAP1 DUP2 MSTORE RETURN JUMPDEST POP CALLVALUE PUSH3 0x18A JUMPI DUP1 PUSH1 0x3 NOT CALLDATASIZE ADD SLT PUSH3 0x18A JUMPI PUSH3 0xFC7 PUSH3 0x1245 JUMP JUMPDEST DUP1 SLOAD PUSH1 0x1 PUSH1 0x1 PUSH1 0xA0 SHL SUB NOT DUP2 AND DUP3 SSTORE DUP2 SWAP1 PUSH1 0x1 PUSH1 0x1 PUSH1 0xA0 SHL SUB AND PUSH32 0x8BE0079C531659141344CD1FD0A4F28419497F9722A3DAAFE3B4186F6B6457E0 DUP3 DUP1 LOG3 DUP1 RETURN JUMPDEST POP CALLVALUE PUSH3 0x18A JUMPI PUSH1 0x60 CALLDATASIZE PUSH1 0x3 NOT ADD SLT PUSH3 0x18A JUMPI PUSH3 0x1026 PUSH3 0x11FD JUMP JUMPDEST PUSH1 0x24 CALLDATALOAD SWAP1 PUSH1 0x44 CALLDATALOAD SWAP1 PUSH1 0x1 PUSH1 0x1 PUSH1 0xA0 SHL SUB SWAP1 DUP2 DUP4 AND DUP1 DUP5 SUB PUSH3 0x1107 JUMPI PUSH3 0x1095 SWAP3 PUSH1 0x20 SWAP3 PUSH3 0x1062 DUP8 SWAP4 PUSH3 0x105A PUSH3 0x1245 JUMP JUMPDEST ISZERO ISZERO PUSH3 0x1272 JUMP JUMPDEST PUSH1 0x40 MLOAD PUSH4 0xA9059CBB PUSH1 0xE0 SHL DUP2 MSTORE PUSH1 0x1 PUSH1 0x1 PUSH1 0xA0 SHL SUB SWAP1 SWAP7 AND PUSH1 0x4 DUP8 ADD MSTORE PUSH1 0x24 DUP7 ADD SWAP3 SWAP1 SWAP3 MSTORE AND SWAP3 SWAP2 DUP3 SWAP1 DUP2 SWAP1 PUSH1 0x44 DUP3 ADD SWAP1 JUMP JUMPDEST SUB DUP2 DUP8 DUP7 GAS CALL DUP1 ISZERO PUSH3 0x10FC JUMPI PUSH3 0x10D9 JUMPI JUMPDEST POP DUP3 MSTORE PUSH1 0x6 PUSH1 0x20 MSTORE PUSH1 0x40 DUP3 KECCAK256 SWAP1 DUP2 SLOAD SWAP1 DUP1 DUP3 LT ISZERO PUSH3 0x10C5 JUMPI DUP4 DUP1 RETURN JUMPDEST PUSH3 0x10D0 SWAP2 PUSH3 0x138D JUMP JUMPDEST SWAP1 SSTORE CODESIZE DUP1 DUP1 DUP4 DUP1 RETURN JUMPDEST PUSH3 0x10F4 SWAP1 PUSH1 0x20 RETURNDATASIZE DUP2 GT PUSH3 0x87B JUMPI PUSH3 0x86A DUP2 DUP4 PUSH3 0x12D5 JUMP JUMPDEST POP CODESIZE PUSH3 0x10A8 JUMP JUMPDEST PUSH1 0x40 MLOAD RETURNDATASIZE DUP7 DUP3 RETURNDATACOPY RETURNDATASIZE SWAP1 REVERT JUMPDEST DUP6 DUP1 REVERT JUMPDEST POP CALLVALUE PUSH3 0x18A JUMPI DUP1 PUSH1 0x3 NOT CALLDATASIZE ADD SLT PUSH3 0x18A JUMPI PUSH1 0x20 PUSH1 0x7 SLOAD PUSH1 0x40 MLOAD SWAP1 DUP2 MSTORE RETURN JUMPDEST POP CALLVALUE PUSH3 0x18A JUMPI PUSH1 0x20 CALLDATASIZE PUSH1 0x3 NOT ADD SLT PUSH3 0x18A JUMPI PUSH1 0x20 SWAP1 PUSH1 0x1 PUSH1 0x1 PUSH1 0xA0 SHL SUB SWAP1 PUSH1 0x40 SWAP1 DUP3 PUSH3 0x1159 PUSH3 0x11FD JUMP JUMPDEST AND DUP2 MSTORE PUSH1 0x5 DUP5 MSTORE KECCAK256 SLOAD AND PUSH1 0x40 MLOAD SWAP1 DUP2 MSTORE RETURN JUMPDEST POP CALLVALUE PUSH3 0x18A JUMPI PUSH1 0x40 CALLDATASIZE PUSH1 0x3 NOT ADD SLT PUSH3 0x18A JUMPI PUSH3 0x1189 PUSH3 0x1245 JUMP JUMPDEST PUSH1 0x4 CALLDATALOAD PUSH1 0x1 SSTORE PUSH1 0x24 CALLDATALOAD PUSH1 0x2 SSTORE DUP1 RETURN JUMPDEST POP CALLVALUE PUSH3 0x18A JUMPI DUP1 PUSH1 0x3 NOT CALLDATASIZE ADD SLT PUSH3 0x18A JUMPI PUSH1 0x4 SLOAD PUSH1 0x40 MLOAD PUSH1 0x1 PUSH1 0x1 PUSH1 0xA0 SHL SUB SWAP1 SWAP2 AND DUP2 MSTORE PUSH1 0x20 SWAP1 RETURN JUMPDEST SWAP1 POP CALLVALUE PUSH3 0x910 JUMPI PUSH1 0x20 CALLDATASIZE PUSH1 0x3 NOT ADD SLT PUSH3 0x910 JUMPI PUSH1 0x20 SWAP2 PUSH1 0x40 SWAP1 PUSH1 0x1 PUSH1 0x1 PUSH1 0xA0 SHL SUB PUSH3 0x11F0 PUSH3 0x11FD JUMP JUMPDEST AND DUP2 MSTORE PUSH1 0x6 DUP5 MSTORE KECCAK256 SLOAD DUP2 MSTORE RETURN JUMPDEST PUSH1 0x4 CALLDATALOAD SWAP1 PUSH1 0x1 PUSH1 0x1 PUSH1 0xA0 SHL SUB DUP3 AND DUP3 SUB PUSH3 0x52D JUMPI JUMP JUMPDEST SWAP2 DUP2 PUSH1 0x1F DUP5 ADD SLT ISZERO PUSH3 0x52D JUMPI DUP3 CALLDATALOAD SWAP2 PUSH8 0xFFFFFFFFFFFFFFFF DUP4 GT PUSH3 0x52D JUMPI PUSH1 0x20 DUP4 DUP2 DUP7 ADD SWAP6 ADD ADD GT PUSH3 0x52D JUMPI JUMP JUMPDEST PUSH1 0x0 SLOAD PUSH1 0x1 PUSH1 0x1 PUSH1 0xA0 SHL SUB AND CALLER SUB PUSH3 0x125A JUMPI JUMP JUMPDEST PUSH1 0x40 MLOAD PUSH4 0x118CDAA7 PUSH1 0xE0 SHL DUP2 MSTORE CALLER PUSH1 0x4 DUP3 ADD MSTORE PUSH1 0x24 SWAP1 REVERT JUMPDEST ISZERO PUSH3 0x127A JUMPI JUMP JUMPDEST PUSH1 0x40 MLOAD PUSH3 0x461BCD PUSH1 0xE5 SHL DUP2 MSTORE PUSH1 0x20 PUSH1 0x4 DUP3 ADD MSTORE PUSH1 0xF PUSH1 0x24 DUP3 ADD MSTORE PUSH15 0x496E76616C69642061646472657373 PUSH1 0x88 SHL PUSH1 0x44 DUP3 ADD MSTORE PUSH1 0x64 SWAP1 REVERT JUMPDEST SWAP2 SWAP1 DUP3 ADD DUP1 SWAP3 GT PUSH3 0x12BF JUMPI JUMP JUMPDEST PUSH4 0x4E487B71 PUSH1 0xE0 SHL PUSH1 0x0 MSTORE PUSH1 0x11 PUSH1 0x4 MSTORE PUSH1 0x24 PUSH1 0x0 REVERT JUMPDEST SWAP1 PUSH1 0x1F DUP1 NOT SWAP2 ADD AND DUP2 ADD SWAP1 DUP2 LT PUSH8 0xFFFFFFFFFFFFFFFF DUP3 GT OR PUSH3 0x12F8 JUMPI PUSH1 0x40 MSTORE JUMP JUMPDEST PUSH4 0x4E487B71 PUSH1 0xE0 SHL PUSH1 0x0 MSTORE PUSH1 0x41 PUSH1 0x4 MSTORE PUSH1 0x24 PUSH1 0x0 REVERT JUMPDEST RETURNDATASIZE ISZERO PUSH3 0x134D JUMPI RETURNDATASIZE SWAP1 PUSH8 0xFFFFFFFFFFFFFFFF DUP3 GT PUSH3 0x12F8 JUMPI PUSH1 0x40 MLOAD SWAP2 PUSH3 0x1341 PUSH1 0x1F DUP3 ADD PUSH1 0x1F NOT AND PUSH1 0x20 ADD DUP5 PUSH3 0x12D5 JUMP JUMPDEST DUP3 MSTORE RETURNDATASIZE PUSH1 0x0 PUSH1 0x20 DUP5 ADD RETURNDATACOPY JUMP JUMPDEST PUSH1 0x60 SWAP1 JUMP JUMPDEST SWAP1 DUP1 PUSH1 0x20 SWAP4 SWAP3 DUP2 DUP5 MSTORE DUP5 DUP5 ADD CALLDATACOPY PUSH1 0x0 DUP3 DUP3 ADD DUP5 ADD MSTORE PUSH1 0x1F ADD PUSH1 0x1F NOT AND ADD ADD SWAP1 JUMP JUMPDEST SWAP1 DUP2 PUSH1 0x20 SWAP2 SUB SLT PUSH3 0x52D JUMPI MLOAD DUP1 ISZERO ISZERO DUP2 SUB PUSH3 0x52D JUMPI SWAP1 JUMP JUMPDEST SWAP2 SWAP1 DUP3 SUB SWAP2 DUP3 GT PUSH3 0x12BF JUMPI JUMP JUMPDEST SWAP1 DUP2 PUSH1 0x60 SWAP2 SUB SLT PUSH3 0x52D JUMPI DUP1 MLOAD SWAP2 PUSH1 0x40 PUSH1 0x20 DUP4 ADD MLOAD SWAP3 ADD MLOAD SWAP1 JUMP INVALID PUSH1 0x40 PUSH1 0x80 DUP2 MSTORE CALLVALUE PUSH3 0x560 JUMPI PUSH3 0x1095 DUP1 CODESIZE SUB DUP1 PUSH3 0x1E DUP2 PUSH3 0x565 JUMP JUMPDEST SWAP3 DUP4 CODECOPY DUP2 ADD PUSH1 0xE0 DUP3 DUP3 SUB SLT PUSH3 0x560 JUMPI DUP2 MLOAD PUSH1 0x1 PUSH1 0x1 PUSH1 0x40 SHL SUB SWAP3 SWAP1 DUP4 DUP2 GT PUSH3 0x560 JUMPI DUP3 PUSH3 0x50 SWAP2 DUP4 ADD PUSH3 0x5B0 JUMP JUMPDEST SWAP1 PUSH1 0x20 SWAP3 DUP4 DUP3 ADD MLOAD SWAP1 DUP6 DUP3 GT PUSH3 0x560 JUMPI PUSH3 0x6E SWAP2 DUP4 ADD PUSH3 0x5B0 JUMP JUMPDEST DUP6 DUP3 ADD MLOAD SWAP4 PUSH1 0xFF DUP6 AND SWAP2 DUP3 DUP7 SUB PUSH3 0x560 JUMPI PUSH1 0x60 DUP5 ADD MLOAD SWAP4 PUSH3 0x94 PUSH1 0x80 DUP3 ADD PUSH3 0x607 JUMP JUMPDEST SWAP8 PUSH3 0xB1 PUSH1 0xC0 PUSH3 0xA9 PUSH1 0xA0 DUP6 ADD PUSH3 0x607 JUMP JUMPDEST SWAP4 ADD PUSH3 0x607 JUMP JUMPDEST SWAP2 DUP8 MLOAD DUP3 DUP2 GT PUSH3 0x460 JUMPI PUSH1 0x3 SWAP3 DUP4 SLOAD SWAP4 PUSH1 0x1 SWAP3 DUP4 DUP7 DUP2 SHR SWAP7 AND DUP1 ISZERO PUSH3 0x555 JUMPI JUMPDEST DUP10 DUP8 LT EQ PUSH3 0x53F JUMPI PUSH1 0x1F SWAP6 DUP7 DUP2 GT PUSH3 0x4F4 JUMPI JUMPDEST POP DUP1 DUP10 DUP8 DUP3 GT PUSH1 0x1 EQ PUSH3 0x482 JUMPI PUSH1 0x0 SWAP2 PUSH3 0x476 JUMPI JUMPDEST POP PUSH1 0x0 NOT DUP3 DUP5 SHL SHR NOT AND SWAP1 DUP5 SHL OR DUP2 SSTORE JUMPDEST DUP7 MLOAD SWAP2 DUP3 GT PUSH3 0x460 JUMPI PUSH1 0x4 SWAP5 DUP6 SLOAD DUP5 DUP2 DUP2 SHR SWAP2 AND DUP1 ISZERO PUSH3 0x455 JUMPI JUMPDEST DUP11 DUP3 LT EQ PUSH3 0x440 JUMPI DUP2 DUP2 GT PUSH3 0x3F5 JUMPI JUMPDEST POP DUP9 SWAP1 DUP4 GT PUSH1 0x1 EQ PUSH3 0x38B JUMPI DUP3 SWAP4 DUP4 SWAP2 PUSH1 0x0 SWAP5 PUSH3 0x37F JUMPI JUMPDEST POP SHL SWAP3 PUSH1 0x0 NOT SWAP2 SHL SHR NOT AND OR DUP3 SSTORE JUMPDEST PUSH1 0x1 PUSH1 0x1 PUSH1 0xA0 SHL SUB DUP2 DUP2 AND SWAP11 SWAP1 SWAP10 SWAP1 DUP12 ISZERO PUSH3 0x368 JUMPI PUSH1 0x5 DUP1 SLOAD PUSH1 0x1 PUSH1 0x1 PUSH1 0xA0 SHL SUB NOT DUP2 AND DUP15 OR SWAP1 SWAP2 SSTORE DUP12 SWAP2 SWAP1 DUP14 SWAP1 DUP4 AND PUSH32 0x8BE0079C531659141344CD1FD0A4F28419497F9722A3DAAFE3B4186F6B6457E0 PUSH1 0x0 DUP1 LOG3 AND SWAP10 DUP11 ISZERO PUSH3 0x333 JUMPI DUP5 AND ISZERO PUSH3 0x2FB JUMPI PUSH1 0x6 DUP1 SLOAD PUSH1 0x1 PUSH1 0x1 PUSH1 0xA8 SHL SUB NOT AND DUP12 OR PUSH1 0xA0 SWAP3 SWAP1 SWAP3 SHL PUSH1 0xFF PUSH1 0xA0 SHL AND SWAP2 SWAP1 SWAP2 OR SWAP1 SSTORE PUSH1 0x4D DUP7 GT PUSH3 0x2E6 JUMPI DUP6 PUSH1 0xA EXP SWAP3 DUP4 DUP9 MUL SWAP4 DUP9 DUP6 DIV EQ DUP9 ISZERO OR ISZERO PUSH3 0x2D1 JUMPI PUSH1 0xA DUP5 DIV SWAP4 DUP5 DUP2 SUB SWAP4 DUP2 DUP6 GT PUSH3 0x2BC JUMPI POP SWAP3 PUSH32 0xCFDD2334C592EEC854E571DE05695ACF7AD2753C264D043EEFDAC143CB72ADC0 SWAP10 SWAP8 SWAP6 SWAP3 PUSH3 0x281 SWAP6 SWAP3 PUSH3 0x273 SWAP11 SWAP9 SWAP6 PUSH3 0x29C JUMPI JUMPDEST POP POP POP POP DUP11 MLOAD SWAP7 DUP8 SWAP7 PUSH1 0x80 DUP9 MSTORE PUSH1 0x80 DUP9 ADD SWAP1 PUSH3 0x61C JUMP JUMPDEST SWAP2 DUP7 DUP4 SUB SWAP1 DUP8 ADD MSTORE PUSH3 0x61C JUMP JUMPDEST SWAP2 DUP9 DUP5 ADD MSTORE PUSH1 0x60 DUP4 ADD MSTORE SUB SWAP1 LOG3 MLOAD PUSH2 0x9BF SWAP1 DUP2 PUSH3 0x6D6 DUP3 CODECOPY RETURN JUMPDEST PUSH3 0x2B2 SWAP4 PUSH3 0x2AC SWAP2 PUSH3 0x643 JUMP JUMPDEST PUSH3 0x643 JUMP JUMPDEST CODESIZE DUP1 DUP1 DUP1 PUSH3 0x25B JUMP JUMPDEST PUSH1 0x11 SWAP1 PUSH4 0x4E487B71 PUSH1 0xE0 SHL PUSH1 0x0 MSTORE MSTORE PUSH1 0x24 PUSH1 0x0 REVERT JUMPDEST PUSH1 0x11 DUP4 PUSH4 0x4E487B71 PUSH1 0xE0 SHL PUSH1 0x0 MSTORE MSTORE PUSH1 0x24 PUSH1 0x0 REVERT JUMPDEST PUSH1 0x11 DUP3 PUSH4 0x4E487B71 PUSH1 0xE0 SHL PUSH1 0x0 MSTORE MSTORE PUSH1 0x24 PUSH1 0x0 REVERT JUMPDEST DUP12 MLOAD PUSH3 0x461BCD PUSH1 0xE5 SHL DUP2 MSTORE DUP1 DUP5 ADD DUP8 SWAP1 MSTORE PUSH1 0x12 PUSH1 0x24 DUP3 ADD MSTORE PUSH18 0x125B9D985B1A5908199959481DD85B1B195D PUSH1 0x72 SHL PUSH1 0x44 DUP3 ADD MSTORE PUSH1 0x64 SWAP1 REVERT JUMPDEST DUP13 MLOAD PUSH3 0x461BCD PUSH1 0xE5 SHL DUP2 MSTORE DUP1 DUP6 ADD DUP9 SWAP1 MSTORE PUSH1 0xF PUSH1 0x24 DUP3 ADD MSTORE PUSH15 0x24B73B30B634B21031B932B0BA37B9 PUSH1 0x89 SHL PUSH1 0x44 DUP3 ADD MSTORE PUSH1 0x64 SWAP1 REVERT JUMPDEST DUP13 MLOAD PUSH4 0x1E4FBDF7 PUSH1 0xE0 SHL DUP2 MSTORE PUSH1 0x0 DUP2 DUP7 ADD MSTORE PUSH1 0x24 SWAP1 REVERT JUMPDEST DUP10 ADD MLOAD SWAP4 POP CODESIZE PUSH3 0x159 JUMP JUMPDEST SWAP1 PUSH1 0x1F NOT DUP4 AND SWAP2 DUP7 PUSH1 0x0 MSTORE DUP4 DUP11 PUSH1 0x0 KECCAK256 SWAP4 PUSH1 0x0 JUMPDEST DUP13 DUP9 DUP14 DUP5 DUP5 LT PUSH3 0x3DE JUMPI POP POP POP POP LT PUSH3 0x3C3 JUMPI JUMPDEST POP POP POP DUP2 SHL ADD DUP3 SSTORE PUSH3 0x168 JUMP JUMPDEST DUP9 ADD MLOAD SWAP1 PUSH1 0xF8 DUP5 PUSH1 0x0 NOT SWAP3 SHL AND SHR NOT AND SWAP1 SSTORE CODESIZE DUP1 DUP1 PUSH3 0x3B5 JUMP JUMPDEST DUP7 ADD MLOAD DUP9 SSTORE SWAP1 SWAP7 ADD SWAP6 SWAP4 DUP5 ADD SWAP4 DUP8 SWAP4 POP ADD PUSH3 0x39F JUMP JUMPDEST DUP7 PUSH1 0x0 MSTORE DUP10 PUSH1 0x0 KECCAK256 DUP3 DUP1 DUP7 ADD PUSH1 0x5 SHR DUP3 ADD SWAP3 DUP13 DUP8 LT PUSH3 0x436 JUMPI JUMPDEST ADD PUSH1 0x5 SHR ADD SWAP1 DUP6 SWAP1 JUMPDEST DUP3 DUP2 LT PUSH3 0x429 JUMPI POP POP PUSH3 0x13F JUMP JUMPDEST PUSH1 0x0 DUP2 SSTORE ADD DUP6 SWAP1 PUSH3 0x419 JUMP JUMPDEST SWAP3 POP DUP2 SWAP3 PUSH3 0x410 JUMP JUMPDEST PUSH1 0x22 DUP8 PUSH4 0x4E487B71 PUSH1 0xE0 SHL PUSH1 0x0 MSTORE MSTORE PUSH1 0x24 PUSH1 0x0 REVERT JUMPDEST SWAP1 PUSH1 0x7F AND SWAP1 PUSH3 0x12D JUMP JUMPDEST PUSH4 0x4E487B71 PUSH1 0xE0 SHL PUSH1 0x0 MSTORE PUSH1 0x41 PUSH1 0x4 MSTORE PUSH1 0x24 PUSH1 0x0 REVERT JUMPDEST SWAP1 POP DUP13 ADD MLOAD CODESIZE PUSH3 0xFF JUMP JUMPDEST PUSH1 0x0 DUP5 DUP2 MSTORE DUP12 DUP2 KECCAK256 DUP8 SWAP5 POP SWAP2 SWAP1 DUP16 SWAP1 PUSH1 0x1F NOT DUP6 AND SWAP1 DUP15 JUMPDEST DUP3 DUP3 LT PUSH3 0x4D2 JUMPI POP POP DUP5 GT PUSH3 0x4B9 JUMPI JUMPDEST POP POP POP DUP2 SHL ADD DUP2 SSTORE PUSH3 0x110 JUMP JUMPDEST ADD MLOAD PUSH1 0x0 NOT DUP4 DUP7 SHL PUSH1 0xF8 AND SHR NOT AND SWAP1 SSTORE CODESIZE DUP1 DUP15 PUSH3 0x4AB JUMP JUMPDEST SWAP3 SWAP5 DUP5 DUP5 SWAP4 SWAP6 SWAP8 SWAP9 SWAP3 SWAP7 ADD MLOAD DUP2 SSTORE ADD SWAP5 ADD SWAP3 ADD DUP16 SWAP1 SWAP2 DUP9 SWAP6 SWAP5 SWAP4 SWAP3 DUP15 PUSH3 0x499 JUMP JUMPDEST DUP3 PUSH1 0x0 MSTORE DUP10 PUSH1 0x0 KECCAK256 DUP8 DUP1 DUP5 ADD PUSH1 0x5 SHR DUP3 ADD SWAP3 DUP13 DUP6 LT PUSH3 0x535 JUMPI JUMPDEST ADD PUSH1 0x5 SHR ADD SWAP1 DUP6 SWAP1 JUMPDEST DUP3 DUP2 LT PUSH3 0x528 JUMPI POP POP PUSH3 0xE8 JUMP JUMPDEST PUSH1 0x0 DUP2 SSTORE ADD DUP6 SWAP1 PUSH3 0x518 JUMP JUMPDEST SWAP3 POP DUP2 SWAP3 PUSH3 0x50F JUMP JUMPDEST PUSH4 0x4E487B71 PUSH1 0xE0 SHL PUSH1 0x0 MSTORE PUSH1 0x22 PUSH1 0x4 MSTORE PUSH1 0x24 PUSH1 0x0 REVERT JUMPDEST SWAP6 PUSH1 0x7F AND SWAP6 PUSH3 0xD3 JUMP JUMPDEST PUSH1 0x0 DUP1 REVERT JUMPDEST PUSH1 0x40 MLOAD SWAP2 SWAP1 PUSH1 0x1F ADD PUSH1 0x1F NOT AND DUP3 ADD PUSH1 0x1 PUSH1 0x1 PUSH1 0x40 SHL SUB DUP2 GT DUP4 DUP3 LT OR PUSH3 0x460 JUMPI PUSH1 0x40 MSTORE JUMP JUMPDEST PUSH1 0x0 JUMPDEST DUP4 DUP2 LT PUSH3 0x59F JUMPI POP POP PUSH1 0x0 SWAP2 ADD MSTORE JUMP JUMPDEST DUP2 DUP2 ADD MLOAD DUP4 DUP3 ADD MSTORE PUSH1 0x20 ADD PUSH3 0x58E JUMP JUMPDEST DUP2 PUSH1 0x1F DUP3 ADD SLT ISZERO PUSH3 0x560 JUMPI DUP1 MLOAD PUSH1 0x1 PUSH1 0x1 PUSH1 0x40 SHL SUB DUP2 GT PUSH3 0x460 JUMPI PUSH3 0x5E2 PUSH1 0x1F DUP3 ADD PUSH1 0x1F NOT AND PUSH1 0x20 ADD PUSH3 0x565 JUMP JUMPDEST SWAP3 DUP2 DUP5 MSTORE PUSH1 0x20 DUP3 DUP5 ADD ADD GT PUSH3 0x560 JUMPI PUSH3 0x604 SWAP2 PUSH1 0x20 DUP1 DUP6 ADD SWAP2 ADD PUSH3 0x58B JUMP JUMPDEST SWAP1 JUMP JUMPDEST MLOAD SWAP1 PUSH1 0x1 PUSH1 0x1 PUSH1 0xA0 SHL SUB DUP3 AND DUP3 SUB PUSH3 0x560 JUMPI JUMP JUMPDEST SWAP1 PUSH1 0x20 SWAP2 PUSH3 0x637 DUP2 MLOAD DUP1 SWAP3 DUP2 DUP6 MSTORE DUP6 DUP1 DUP7 ADD SWAP2 ADD PUSH3 0x58B JUMP JUMPDEST PUSH1 0x1F ADD PUSH1 0x1F NOT AND ADD ADD SWAP1 JUMP JUMPDEST PUSH1 0x1 PUSH1 0x1 PUSH1 0xA0 SHL SUB AND SWAP1 DUP2 ISZERO PUSH3 0x6BC JUMPI PUSH1 0x2 SLOAD SWAP1 DUP1 DUP3 ADD DUP1 SWAP3 GT PUSH3 0x6A6 JUMPI PUSH1 0x20 PUSH32 0xDDF252AD1BE2C89B69C2B068FC378DAA952BA7F163C4A11628F55A4DF523B3EF SWAP2 PUSH1 0x0 SWAP4 PUSH1 0x2 SSTORE DUP5 DUP5 MSTORE DUP4 DUP3 MSTORE PUSH1 0x40 DUP5 KECCAK256 DUP2 DUP2 SLOAD ADD SWAP1 SSTORE PUSH1 0x40 MLOAD SWAP1 DUP2 MSTORE LOG3 JUMP JUMPDEST PUSH4 0x4E487B71 PUSH1 0xE0 SHL PUSH1 0x0 MSTORE PUSH1 0x11 PUSH1 0x4 MSTORE PUSH1 0x24 PUSH1 0x0 REVERT JUMPDEST PUSH1 0x40 MLOAD PUSH4 0xEC442F05 PUSH1 0xE0 SHL DUP2 MSTORE PUSH1 0x0 PUSH1 0x4 DUP3 ADD MSTORE PUSH1 0x24 SWAP1 REVERT INVALID PUSH1 0x80 PUSH1 0x40 DUP2 DUP2 MSTORE PUSH1 0x4 DUP1 CALLDATASIZE LT ISZERO PUSH2 0x15 JUMPI PUSH1 0x0 DUP1 REVERT JUMPDEST PUSH1 0x0 SWAP3 DUP4 CALLDATALOAD PUSH1 0xE0 SHR SWAP1 DUP2 PUSH4 0x2D05D3F EQ PUSH2 0x7E0 JUMPI POP DUP1 PUSH4 0x6FDDE03 EQ PUSH2 0x705 JUMPI DUP1 PUSH4 0x95EA7B3 EQ PUSH2 0x65C JUMPI DUP1 PUSH4 0x18160DDD EQ PUSH2 0x63D JUMPI DUP1 PUSH4 0x23B872DD EQ PUSH2 0x54A JUMPI DUP1 PUSH4 0x313CE567 EQ PUSH2 0x525 JUMPI DUP1 PUSH4 0x40C10F19 EQ PUSH2 0x476 JUMPI DUP1 PUSH4 0x42966C68 EQ PUSH2 0x3B8 JUMPI DUP1 PUSH4 0x70A08231 EQ PUSH2 0x381 JUMPI DUP1 PUSH4 0x715018A6 EQ PUSH2 0x321 JUMPI DUP1 PUSH4 0x8DA5CB5B EQ PUSH2 0x2F8 JUMPI DUP1 PUSH4 0x95D89B41 EQ PUSH2 0x1D8 JUMPI DUP1 PUSH4 0xA9059CBB EQ PUSH2 0x1A7 JUMPI DUP1 PUSH4 0xDD62ED3E EQ PUSH2 0x15A JUMPI PUSH4 0xF2FDE38B EQ PUSH2 0xC8 JUMPI PUSH1 0x0 DUP1 REVERT JUMPDEST CALLVALUE PUSH2 0x156 JUMPI PUSH1 0x20 CALLDATASIZE PUSH1 0x3 NOT ADD SLT PUSH2 0x156 JUMPI PUSH2 0xE1 PUSH2 0x84E JUMP JUMPDEST SWAP1 PUSH2 0xEA PUSH2 0x87F JUMP JUMPDEST PUSH1 0x1 PUSH1 0x1 PUSH1 0xA0 SHL SUB SWAP2 DUP3 AND SWAP3 DUP4 ISZERO PUSH2 0x140 JUMPI POP POP PUSH1 0x5 SLOAD DUP3 PUSH12 0xFFFFFFFFFFFFFFFFFFFFFFFF PUSH1 0xA0 SHL DUP3 AND OR PUSH1 0x5 SSTORE AND PUSH32 0x8BE0079C531659141344CD1FD0A4F28419497F9722A3DAAFE3B4186F6B6457E0 DUP4 DUP1 LOG3 DUP1 RETURN JUMPDEST MLOAD PUSH4 0x1E4FBDF7 PUSH1 0xE0 SHL DUP2 MSTORE SWAP1 DUP2 ADD DUP5 SWAP1 MSTORE PUSH1 0x24 SWAP1 REVERT JUMPDEST DUP3 DUP1 REVERT JUMPDEST POP POP CALLVALUE PUSH2 0x1A3 JUMPI DUP1 PUSH1 0x3 NOT CALLDATASIZE ADD SLT PUSH2 0x1A3 JUMPI DUP1 PUSH1 0x20 SWAP3 PUSH2 0x178 PUSH2 0x84E JUMP JUMPDEST PUSH2 0x180 PUSH2 0x869 JUMP JUMPDEST PUSH1 0x1 PUSH1 0x1 PUSH1 0xA0 SHL SUB SWAP2 DUP3 AND DUP4 MSTORE PUSH1 0x1 DUP7 MSTORE DUP4 DUP4 KECCAK256 SWAP2 AND DUP3 MSTORE DUP5 MSTORE KECCAK256 SLOAD SWAP1 MLOAD SWAP1 DUP2 MSTORE RETURN JUMPDEST POP DUP1 REVERT JUMPDEST POP POP CALLVALUE PUSH2 0x1A3 JUMPI DUP1 PUSH1 0x3 NOT CALLDATASIZE ADD SLT PUSH2 0x1A3 JUMPI PUSH1 0x20 SWAP1 PUSH2 0x1D1 PUSH2 0x1C7 PUSH2 0x84E JUMP JUMPDEST PUSH1 0x24 CALLDATALOAD SWAP1 CALLER PUSH2 0x8AB JUMP JUMPDEST MLOAD PUSH1 0x1 DUP2 MSTORE RETURN JUMPDEST POP SWAP2 SWAP1 CALLVALUE PUSH2 0x1A3 JUMPI DUP2 PUSH1 0x3 NOT CALLDATASIZE ADD SLT PUSH2 0x1A3 JUMPI DUP1 MLOAD SWAP1 DUP3 DUP5 SLOAD PUSH1 0x1 DUP2 DUP2 SHR SWAP1 DUP1 DUP4 AND SWAP3 DUP4 ISZERO PUSH2 0x2EE JUMPI JUMPDEST PUSH1 0x20 SWAP4 DUP5 DUP5 LT DUP2 EQ PUSH2 0x2DB JUMPI DUP4 DUP9 MSTORE SWAP1 DUP2 ISZERO PUSH2 0x2BF JUMPI POP PUSH1 0x1 EQ PUSH2 0x26A JUMPI JUMPDEST POP POP POP DUP3 SWAP1 SUB PUSH1 0x1F ADD PUSH1 0x1F NOT AND DUP3 ADD SWAP3 PUSH8 0xFFFFFFFFFFFFFFFF DUP5 GT DUP4 DUP6 LT OR PUSH2 0x257 JUMPI POP DUP3 SWAP2 DUP3 PUSH2 0x253 SWAP3 MSTORE DUP3 PUSH2 0x805 JUMP JUMPDEST SUB SWAP1 RETURN JUMPDEST PUSH4 0x4E487B71 PUSH1 0xE0 SHL DUP2 MSTORE PUSH1 0x41 DUP6 MSTORE PUSH1 0x24 SWAP1 REVERT JUMPDEST DUP8 DUP8 MSTORE SWAP2 SWAP3 POP DUP6 SWAP2 DUP4 PUSH32 0x8A35ACFBC15FF81A39AE7D344FD709F28E8600B4AA8C65C6B64BFE7FE36BD19B JUMPDEST DUP4 DUP6 LT PUSH2 0x2AB JUMPI POP POP POP POP DUP4 ADD ADD CODESIZE DUP1 DUP1 PUSH2 0x221 JUMP JUMPDEST DUP1 SLOAD DUP9 DUP7 ADD DUP4 ADD MSTORE SWAP4 ADD SWAP3 DUP5 SWAP1 DUP3 ADD PUSH2 0x295 JUMP JUMPDEST PUSH1 0xFF NOT AND DUP8 DUP6 ADD MSTORE POP POP ISZERO ISZERO PUSH1 0x5 SHL DUP5 ADD ADD SWAP1 POP CODESIZE DUP1 DUP1 PUSH2 0x221 JUMP JUMPDEST PUSH4 0x4E487B71 PUSH1 0xE0 SHL DUP10 MSTORE PUSH1 0x22 DUP11 MSTORE PUSH1 0x24 DUP10 REVERT JUMPDEST SWAP2 PUSH1 0x7F AND SWAP2 PUSH2 0x202 JUMP JUMPDEST POP POP CALLVALUE PUSH2 0x1A3 JUMPI DUP2 PUSH1 0x3 NOT CALLDATASIZE ADD SLT PUSH2 0x1A3 JUMPI PUSH1 0x5 SLOAD SWAP1 MLOAD PUSH1 0x1 PUSH1 0x1 PUSH1 0xA0 SHL SUB SWAP1 SWAP2 AND DUP2 MSTORE PUSH1 0x20 SWAP1 RETURN JUMPDEST DUP4 CALLVALUE PUSH2 0x37E JUMPI DUP1 PUSH1 0x3 NOT CALLDATASIZE ADD SLT PUSH2 0x37E JUMPI PUSH2 0x33A PUSH2 0x87F JUMP JUMPDEST PUSH1 0x5 DUP1 SLOAD PUSH1 0x1 PUSH1 0x1 PUSH1 0xA0 SHL SUB NOT DUP2 AND SWAP1 SWAP2 SSTORE DUP2 SWAP1 PUSH1 0x1 PUSH1 0x1 PUSH1 0xA0 SHL SUB AND PUSH32 0x8BE0079C531659141344CD1FD0A4F28419497F9722A3DAAFE3B4186F6B6457E0 DUP3 DUP1 LOG3 DUP1 RETURN JUMPDEST DUP1 REVERT JUMPDEST POP POP CALLVALUE PUSH2 0x1A3 JUMPI PUSH1 0x20 CALLDATASIZE PUSH1 0x3 NOT ADD SLT PUSH2 0x1A3 JUMPI PUSH1 0x20 SWAP2 DUP2 SWAP1 PUSH1 0x1 PUSH1 0x1 PUSH1 0xA0 SHL SUB PUSH2 0x3A9 PUSH2 0x84E JUMP JUMPDEST AND DUP2 MSTORE DUP1 DUP5 MSTORE KECCAK256 SLOAD SWAP1 MLOAD SWAP1 DUP2 MSTORE RETURN JUMPDEST POP SWAP2 SWAP1 CALLVALUE PUSH2 0x1A3 JUMPI PUSH1 0x20 CALLDATASIZE PUSH1 0x3 NOT ADD SLT PUSH2 0x1A3 JUMPI DUP3 CALLDATALOAD SWAP1 PUSH2 0x3D7 PUSH2 0x87F JUMP JUMPDEST CALLER ISZERO PUSH2 0x460 JUMPI CALLER DUP4 MSTORE DUP3 PUSH1 0x20 MSTORE DUP1 DUP4 KECCAK256 SLOAD SWAP4 DUP3 DUP6 LT PUSH2 0x435 JUMPI POP DUP2 DUP4 SWAP5 CALLER DUP6 MSTORE DUP5 PUSH1 0x20 MSTORE SUB DUP2 DUP5 KECCAK256 SSTORE DUP2 PUSH1 0x2 SLOAD SUB PUSH1 0x2 SSTORE MLOAD SWAP1 DUP2 MSTORE PUSH32 0xDDF252AD1BE2C89B69C2B068FC378DAA952BA7F163C4A11628F55A4DF523B3EF PUSH1 0x20 CALLER SWAP3 LOG3 DUP1 RETURN JUMPDEST SWAP1 MLOAD PUSH4 0x391434E3 PUSH1 0xE2 SHL DUP2 MSTORE CALLER SWAP2 DUP2 ADD SWAP2 DUP3 MSTORE PUSH1 0x20 DUP3 ADD DUP6 SWAP1 MSTORE PUSH1 0x40 DUP3 ADD DUP4 SWAP1 MSTORE SWAP1 DUP2 SWAP1 PUSH1 0x60 ADD SUB SWAP1 REVERT JUMPDEST MLOAD PUSH4 0x4B637E8F PUSH1 0xE1 SHL DUP2 MSTORE DUP1 DUP5 ADD DUP4 SWAP1 MSTORE PUSH1 0x24 SWAP1 REVERT JUMPDEST POP SWAP1 CALLVALUE PUSH2 0x156 JUMPI DUP1 PUSH1 0x3 NOT CALLDATASIZE ADD SLT PUSH2 0x156 JUMPI PUSH2 0x490 PUSH2 0x84E JUMP JUMPDEST SWAP1 PUSH1 0x24 CALLDATALOAD SWAP2 PUSH2 0x49D PUSH2 0x87F JUMP JUMPDEST PUSH1 0x1 PUSH1 0x1 PUSH1 0xA0 SHL SUB AND SWAP3 DUP4 ISZERO PUSH2 0x510 JUMPI PUSH1 0x2 SLOAD SWAP1 DUP4 DUP3 ADD DUP1 SWAP3 GT PUSH2 0x4FD JUMPI POP DUP5 SWAP3 PUSH32 0xDDF252AD1BE2C89B69C2B068FC378DAA952BA7F163C4A11628F55A4DF523B3EF SWAP3 PUSH1 0x20 SWAP3 PUSH1 0x2 SSTORE DUP6 DUP6 MSTORE DUP5 DUP4 MSTORE DUP1 DUP6 KECCAK256 DUP3 DUP2 SLOAD ADD SWAP1 SSTORE MLOAD SWAP1 DUP2 MSTORE LOG3 DUP1 RETURN JUMPDEST PUSH4 0x4E487B71 PUSH1 0xE0 SHL DUP7 MSTORE PUSH1 0x11 SWAP1 MSTORE PUSH1 0x24 DUP6 REVERT JUMPDEST DUP5 PUSH1 0x24 SWAP3 MLOAD SWAP2 PUSH4 0xEC442F05 PUSH1 0xE0 SHL DUP4 MSTORE DUP3 ADD MSTORE REVERT JUMPDEST POP POP CALLVALUE PUSH2 0x1A3 JUMPI DUP2 PUSH1 0x3 NOT CALLDATASIZE ADD SLT PUSH2 0x1A3 JUMPI PUSH1 0x20 SWAP1 PUSH1 0xFF PUSH1 0x6 SLOAD PUSH1 0xA0 SHR AND SWAP1 MLOAD SWAP1 DUP2 MSTORE RETURN JUMPDEST POP DUP3 CALLVALUE PUSH2 0x37E JUMPI PUSH1 0x60 CALLDATASIZE PUSH1 0x3 NOT ADD SLT PUSH2 0x37E JUMPI PUSH2 0x565 PUSH2 0x84E JUMP JUMPDEST PUSH2 0x56D PUSH2 0x869 JUMP JUMPDEST SWAP2 PUSH1 0x44 CALLDATALOAD SWAP4 PUSH1 0x1 DUP1 PUSH1 0xA0 SHL SUB DUP4 AND DUP1 DUP4 MSTORE PUSH1 0x1 PUSH1 0x20 MSTORE DUP7 DUP4 KECCAK256 CALLER DUP5 MSTORE PUSH1 0x20 MSTORE DUP7 DUP4 KECCAK256 SLOAD SWAP2 PUSH1 0x0 NOT DUP4 LT PUSH2 0x5A9 JUMPI JUMPDEST PUSH1 0x20 DUP9 PUSH2 0x1D1 DUP10 DUP10 DUP10 PUSH2 0x8AB JUMP JUMPDEST DUP7 DUP4 LT PUSH2 0x611 JUMPI DUP2 ISZERO PUSH2 0x5FA JUMPI CALLER ISZERO PUSH2 0x5E3 JUMPI POP DUP3 MSTORE PUSH1 0x1 PUSH1 0x20 SWAP1 DUP2 MSTORE DUP7 DUP4 KECCAK256 CALLER DUP5 MSTORE DUP2 MSTORE SWAP2 DUP7 SWAP1 KECCAK256 SWAP1 DUP6 SWAP1 SUB SWAP1 SSTORE DUP3 SWAP1 PUSH2 0x1D1 DUP8 PUSH2 0x59B JUMP JUMPDEST DUP8 MLOAD PUSH4 0x4A1406B1 PUSH1 0xE1 SHL DUP2 MSTORE SWAP1 DUP2 ADD DUP5 SWAP1 MSTORE PUSH1 0x24 SWAP1 REVERT JUMPDEST DUP8 MLOAD PUSH4 0xE602DF05 PUSH1 0xE0 SHL DUP2 MSTORE SWAP1 DUP2 ADD DUP5 SWAP1 MSTORE PUSH1 0x24 SWAP1 REVERT JUMPDEST DUP8 MLOAD PUSH4 0x7DC7A0D9 PUSH1 0xE1 SHL DUP2 MSTORE CALLER SWAP2 DUP2 ADD SWAP2 DUP3 MSTORE PUSH1 0x20 DUP3 ADD SWAP4 SWAP1 SWAP4 MSTORE PUSH1 0x40 DUP2 ADD DUP8 SWAP1 MSTORE DUP3 SWAP2 POP PUSH1 0x60 ADD SUB SWAP1 REVERT JUMPDEST POP POP CALLVALUE PUSH2 0x1A3 JUMPI DUP2 PUSH1 0x3 NOT CALLDATASIZE ADD SLT PUSH2 0x1A3 JUMPI PUSH1 0x20 SWAP1 PUSH1 0x2 SLOAD SWAP1 MLOAD SWAP1 DUP2 MSTORE RETURN JUMPDEST POP CALLVALUE PUSH2 0x156 JUMPI DUP2 PUSH1 0x3 NOT CALLDATASIZE ADD SLT PUSH2 0x156 JUMPI PUSH2 0x675 PUSH2 0x84E JUMP JUMPDEST PUSH1 0x24 CALLDATALOAD SWAP1 CALLER ISZERO PUSH2 0x6EE JUMPI PUSH1 0x1 PUSH1 0x1 PUSH1 0xA0 SHL SUB AND SWAP2 DUP3 ISZERO PUSH2 0x6D7 JUMPI POP DUP1 DUP4 PUSH1 0x20 SWAP6 CALLER DUP2 MSTORE PUSH1 0x1 DUP8 MSTORE DUP2 DUP2 KECCAK256 DUP6 DUP3 MSTORE DUP8 MSTORE KECCAK256 SSTORE DUP3 MLOAD SWAP1 DUP2 MSTORE PUSH32 0x8C5BE1E5EBEC7D5BD14F71427D1E84F3DD0314C0F7B2291E5B200AC8C7C3B925 DUP5 CALLER SWAP3 LOG3 MLOAD PUSH1 0x1 DUP2 MSTORE RETURN JUMPDEST DUP4 MLOAD PUSH4 0x4A1406B1 PUSH1 0xE1 SHL DUP2 MSTORE SWAP1 DUP2 ADD DUP6 SWAP1 MSTORE PUSH1 0x24 SWAP1 REVERT JUMPDEST DUP4 MLOAD PUSH4 0xE602DF05 PUSH1 0xE0 SHL DUP2 MSTORE DUP1 DUP5 ADD DUP7 SWAP1 MSTORE PUSH1 0x24 SWAP1 REVERT JUMPDEST POP SWAP2 SWAP1 CALLVALUE PUSH2 0x1A3 JUMPI DUP2 PUSH1 0x3 NOT CALLDATASIZE ADD SLT PUSH2 0x1A3 JUMPI DUP1 MLOAD SWAP1 DUP3 PUSH1 0x3 SLOAD PUSH1 0x1 DUP2 DUP2 SHR SWAP1 DUP1 DUP4 AND SWAP3 DUP4 ISZERO PUSH2 0x7D6 JUMPI JUMPDEST PUSH1 0x20 SWAP4 DUP5 DUP5 LT DUP2 EQ PUSH2 0x2DB JUMPI DUP4 DUP9 MSTORE SWAP1 DUP2 ISZERO PUSH2 0x2BF JUMPI POP PUSH1 0x1 EQ PUSH2 0x780 JUMPI POP POP POP DUP3 SWAP1 SUB PUSH1 0x1F ADD PUSH1 0x1F NOT AND DUP3 ADD SWAP3 PUSH8 0xFFFFFFFFFFFFFFFF DUP5 GT DUP4 DUP6 LT OR PUSH2 0x257 JUMPI POP DUP3 SWAP2 DUP3 PUSH2 0x253 SWAP3 MSTORE DUP3 PUSH2 0x805 JUMP JUMPDEST PUSH1 0x3 DUP8 MSTORE SWAP2 SWAP3 POP DUP6 SWAP2 DUP4 PUSH32 0xC2575A0E9E593C00F959F8C92F12DB2869C3395A3B0502D05E2516446F71F85B JUMPDEST DUP4 DUP6 LT PUSH2 0x7C2 JUMPI POP POP POP POP DUP4 ADD ADD CODESIZE DUP1 DUP1 PUSH2 0x221 JUMP JUMPDEST DUP1 SLOAD DUP9 DUP7 ADD DUP4 ADD MSTORE SWAP4 ADD SWAP3 DUP5 SWAP1 DUP3 ADD PUSH2 0x7AC JUMP JUMPDEST SWAP2 PUSH1 0x7F AND SWAP2 PUSH2 0x730 JUMP JUMPDEST DUP5 SWAP1 CALLVALUE PUSH2 0x1A3 JUMPI DUP2 PUSH1 0x3 NOT CALLDATASIZE ADD SLT PUSH2 0x1A3 JUMPI PUSH1 0x6 SLOAD PUSH1 0x1 PUSH1 0x1 PUSH1 0xA0 SHL SUB AND DUP2 MSTORE PUSH1 0x20 SWAP1 RETURN JUMPDEST PUSH1 0x20 DUP1 DUP3 MSTORE DUP3 MLOAD DUP2 DUP4 ADD DUP2 SWAP1 MSTORE SWAP1 SWAP4 SWAP3 PUSH1 0x0 JUMPDEST DUP3 DUP2 LT PUSH2 0x83A JUMPI POP POP PUSH1 0x40 SWAP3 SWAP4 POP PUSH1 0x0 DUP4 DUP3 DUP5 ADD ADD MSTORE PUSH1 0x1F DUP1 NOT SWAP2 ADD AND ADD ADD SWAP1 JUMP JUMPDEST DUP2 DUP2 ADD DUP7 ADD MLOAD DUP5 DUP3 ADD PUSH1 0x40 ADD MSTORE DUP6 ADD PUSH2 0x818 JUMP JUMPDEST PUSH1 0x4 CALLDATALOAD SWAP1 PUSH1 0x1 PUSH1 0x1 PUSH1 0xA0 SHL SUB DUP3 AND DUP3 SUB PUSH2 0x864 JUMPI JUMP JUMPDEST PUSH1 0x0 DUP1 REVERT JUMPDEST PUSH1 0x24 CALLDATALOAD SWAP1 PUSH1 0x1 PUSH1 0x1 PUSH1 0xA0 SHL SUB DUP3 AND DUP3 SUB PUSH2 0x864 JUMPI JUMP JUMPDEST PUSH1 0x5 SLOAD PUSH1 0x1 PUSH1 0x1 PUSH1 0xA0 SHL SUB AND CALLER SUB PUSH2 0x893 JUMPI JUMP JUMPDEST PUSH1 0x40 MLOAD PUSH4 0x118CDAA7 PUSH1 0xE0 SHL DUP2 MSTORE CALLER PUSH1 0x4 DUP3 ADD MSTORE PUSH1 0x24 SWAP1 REVERT JUMPDEST SWAP2 PUSH1 0x1 PUSH1 0x1 PUSH1 0xA0 SHL SUB DUP1 DUP5 AND SWAP3 DUP4 ISZERO PUSH2 0x970 JUMPI AND SWAP3 DUP4 ISZERO PUSH2 0x957 JUMPI PUSH1 0x0 SWAP1 DUP4 DUP3 MSTORE DUP2 PUSH1 0x20 MSTORE PUSH1 0x40 DUP3 KECCAK256 SLOAD SWAP1 DUP4 DUP3 LT PUSH2 0x925 JUMPI POP SWAP2 PUSH1 0x40 DUP3 DUP3 PUSH32 0xDDF252AD1BE2C89B69C2B068FC378DAA952BA7F163C4A11628F55A4DF523B3EF SWAP6 DUP8 PUSH1 0x20 SWAP7 MSTORE DUP3 DUP7 MSTORE SUB DUP3 DUP3 KECCAK256 SSTORE DUP7 DUP2 MSTORE KECCAK256 DUP2 DUP2 SLOAD ADD SWAP1 SSTORE PUSH1 0x40 MLOAD SWAP1 DUP2 MSTORE LOG3 JUMP JUMPDEST PUSH1 0x40 MLOAD PUSH4 0x391434E3 PUSH1 0xE2 SHL DUP2 MSTORE PUSH1 0x1 PUSH1 0x1 PUSH1 0xA0 SHL SUB SWAP2 SWAP1 SWAP2 AND PUSH1 0x4 DUP3 ADD MSTORE PUSH1 0x24 DUP2 ADD SWAP2 SWAP1 SWAP2 MSTORE PUSH1 0x44 DUP2 ADD DUP4 SWAP1 MSTORE PUSH1 0x64 SWAP1 REVERT JUMPDEST PUSH1 0x40 MLOAD PUSH4 0xEC442F05 PUSH1 0xE0 SHL DUP2 MSTORE PUSH1 0x0 PUSH1 0x4 DUP3 ADD MSTORE PUSH1 0x24 SWAP1 REVERT JUMPDEST PUSH1 0x40 MLOAD PUSH4 0x4B637E8F PUSH1 0xE1 SHL DUP2 MSTORE PUSH1 0x0 PUSH1 0x4 DUP3 ADD MSTORE PUSH1 0x24 SWAP1 REVERT INVALID LOG2 PUSH5 0x6970667358 0x22 SLT KECCAK256 SUB 0xD7 0xC9 PUSH5 0xADCD55FFB 0xBF DUP8 PUSH9 0xE6FA0FE4CDCED22D52 CODESIZE 0xAC PUSH4 0x75E677ED EXTCODECOPY 0xB9 0xDE CALLDATALOAD PUSH5 0x736F6C6343 STOP ADDMOD EQ STOP CALLER LOG2 PUSH5 0x6970667358 0x22 SLT KECCAK256 0xF 0xBE 0xAC 0xA8 RETURN LT SWAP15 MSTORE PUSH12 0x637A61AB8F9D29478F0FA38F 0xC1 0xDD 0x27 BLOCKHASH 0xC 0x2B 0x4D 0xB7 CREATE DELEGATECALL PUSH21 0x64736F6C6343000814003300000000000000000000 "},"methodIdentifiers":{"DEPLOYMENT_FEE()":"a8f32251","MIN_INITIAL_LIQUIDITY()":"728780fa","RELEASE_SERVICE_FEE()":"355943d6","addLiquidityForToken(address,uint256)":"c8fe3ab5","collectToken(address,address,uint256,string)":"b8d38253","createTokenDirect(string,string,uint256)":"ef11d9ca","dexRouter()":"0758d924","feeWallet()":"f25f4b56","owner()":"8da5cb5b","renounceOwnership()":"715018a6","setFeeWallet(address)":"90d49b9d","setFees(uint256,uint256)":"0b78f9c0","setReleaseFee(uint256)":"8bfa25da","tokenCreator(address)":"23774af2","tokensLocked(address)":"01a598a6","transferOwnership(address)":"f2fde38b","withdrawToken(address,uint256,address)":"3ccdbb28"}}}}}