{"contracts/BondingCurve.sol":{"BondingCurve":{"abi":[{"inputs":[{"internalType":"address","name":"_owner","type":"address"},{"internalType":"address","name":"_feeWallet","type":"address"},{"internalType":"address","name":"_router","type":"address"}],"stateMutability":"nonpayable","type":"constructor"},{"inputs":[{"internalType":"address","name":"owner","type":"address"}],"name":"OwnableInvalidOwner","type":"error"},{"inputs":[{"internalType":"address","name":"account","type":"address"}],"name":"OwnableUnauthorizedAccount","type":"error"},{"inputs":[],"name":"ReentrancyGuardReentrantCall","type":"error"},{"anonymous":false,"inputs":[{"indexed":true,"internalType":"address","name":"to","type":"address"},{"indexed":false,"internalType":"uint256","name":"amount","type":"uint256"}],"name":"BNBSwept","type":"event"},{"anonymous":false,"inputs":[{"indexed":true,"internalType":"address","name":"token","type":"address"},{"indexed":true,"internalType":"address","name":"user","type":"address"},{"indexed":false,"internalType":"uint256","name":"bnbIn","type":"uint256"},{"indexed":false,"internalType":"uint256","name":"tokensOut","type":"uint256"}],"name":"Buy","type":"event"},{"anonymous":false,"inputs":[{"indexed":true,"internalType":"address","name":"factory","type":"address"},{"indexed":false,"internalType":"bool","name":"authorized","type":"bool"}],"name":"FactoryAuthorized","type":"event"},{"anonymous":false,"inputs":[{"indexed":true,"internalType":"address","name":"newFeeWallet","type":"address"}],"name":"FeeWalletSet","type":"event"},{"anonymous":false,"inputs":[{"indexed":true,"internalType":"address","name":"token","type":"address"},{"indexed":false,"internalType":"uint256","name":"treasuryBnb","type":"uint256"},{"indexed":false,"internalType":"uint256","name":"pancakeBnb","type":"uint256"},{"indexed":false,"internalType":"uint256","name":"tokensToLP","type":"uint256"}],"name":"Migrated","type":"event"},{"anonymous":false,"inputs":[{"indexed":true,"internalType":"address","name":"previousOwner","type":"address"},{"indexed":true,"internalType":"address","name":"newOwner","type":"address"}],"name":"OwnershipTransferred","type":"event"},{"anonymous":false,"inputs":[{"indexed":true,"internalType":"address","name":"newRouter","type":"address"}],"name":"RouterSet","type":"event"},{"anonymous":false,"inputs":[{"indexed":true,"internalType":"address","name":"token","type":"address"},{"indexed":true,"internalType":"address","name":"user","type":"address"},{"indexed":false,"internalType":"uint256","name":"tokensIn","type":"uint256"},{"indexed":false,"internalType":"uint256","name":"bnbOut","type":"uint256"}],"name":"Sell","type":"event"},{"anonymous":false,"inputs":[{"indexed":false,"internalType":"uint256","name":"newThreshold","type":"uint256"},{"indexed":false,"internalType":"uint256","name":"treasuryShare","type":"uint256"},{"indexed":false,"internalType":"uint256","name":"pancakeShare","type":"uint256"}],"name":"ThresholdUpdated","type":"event"},{"anonymous":false,"inputs":[{"indexed":true,"internalType":"address","name":"token","type":"address"},{"indexed":true,"internalType":"address","name":"creator","type":"address"}],"name":"TokenLaunched","type":"event"},{"inputs":[],"name":"MAX_SUPPLY","outputs":[{"internalType":"uint256","name":"","type":"uint256"}],"stateMutability":"view","type":"function"},{"inputs":[],"name":"MIGRATION_THRESHOLD","outputs":[{"internalType":"uint256","name":"","type":"uint256"}],"stateMutability":"view","type":"function"},{"inputs":[],"name":"PANCAKE_LP_SHARE","outputs":[{"internalType":"uint256","name":"","type":"uint256"}],"stateMutability":"view","type":"function"},{"inputs":[],"name":"TREASURY_SHARE","outputs":[{"internalType":"uint256","name":"","type":"uint256"}],"stateMutability":"view","type":"function"},{"inputs":[{"internalType":"address","name":"","type":"address"}],"name":"authorizedFactories","outputs":[{"internalType":"bool","name":"","type":"bool"}],"stateMutability":"view","type":"function"},{"inputs":[{"internalType":"address","name":"token","type":"address"}],"name":"buy","outputs":[],"stateMutability":"payable","type":"function"},{"inputs":[],"name":"feeWallet","outputs":[{"internalType":"address","name":"","type":"address"}],"stateMutability":"view","type":"function"},{"inputs":[{"internalType":"address","name":"token","type":"address"}],"name":"getMigrationProgress","outputs":[{"internalType":"uint256","name":"currentReserve","type":"uint256"},{"internalType":"uint256","name":"threshold","type":"uint256"},{"internalType":"uint256","name":"percentFilled","type":"uint256"},{"internalType":"bool","name":"migrated","type":"bool"}],"stateMutability":"view","type":"function"},{"inputs":[{"internalType":"address","name":"token","type":"address"},{"internalType":"address","name":"creator","type":"address"},{"internalType":"uint256","name":"_virtualBnb","type":"uint256"}],"name":"launchToken","outputs":[],"stateMutability":"nonpayable","type":"function"},{"inputs":[{"internalType":"address","name":"","type":"address"}],"name":"markets","outputs":[{"internalType":"address","name":"token","type":"address"},{"internalType":"address","name":"creator","type":"address"},{"internalType":"uint256","name":"bnbReserve","type":"uint256"},{"internalType":"uint256","name":"tokenReserve","type":"uint256"},{"internalType":"uint256","name":"virtualBnb","type":"uint256"},{"internalType":"bool","name":"migrated","type":"bool"}],"stateMutability":"view","type":"function"},{"inputs":[{"internalType":"address","name":"token","type":"address"}],"name":"migrateToken","outputs":[],"stateMutability":"nonpayable","type":"function"},{"inputs":[],"name":"owner","outputs":[{"internalType":"address","name":"","type":"address"}],"stateMutability":"view","type":"function"},{"inputs":[],"name":"pancakeRouter","outputs":[{"internalType":"contract IPancakeRouter","name":"","type":"address"}],"stateMutability":"view","type":"function"},{"inputs":[],"name":"renounceOwnership","outputs":[],"stateMutability":"nonpayable","type":"function"},{"inputs":[{"internalType":"address","name":"token","type":"address"},{"internalType":"uint256","name":"amount","type":"uint256"}],"name":"sell","outputs":[],"stateMutability":"nonpayable","type":"function"},{"inputs":[{"internalType":"address","name":"factory","type":"address"},{"internalType":"bool","name":"authorized","type":"bool"}],"name":"setAuthorizedFactory","outputs":[],"stateMutability":"nonpayable","type":"function"},{"inputs":[{"internalType":"address","name":"_feeWallet","type":"address"}],"name":"setFeeWallet","outputs":[],"stateMutability":"nonpayable","type":"function"},{"inputs":[{"internalType":"uint256","name":"_threshold","type":"uint256"},{"internalType":"uint256","name":"_treasuryShare","type":"uint256"},{"internalType":"uint256","name":"_pancakeShare","type":"uint256"}],"name":"setMigrationThreshold","outputs":[],"stateMutability":"nonpayable","type":"function"},{"inputs":[{"internalType":"address","name":"_router","type":"address"}],"name":"setPancakeRouter","outputs":[],"stateMutability":"nonpayable","type":"function"},{"inputs":[],"name":"sweepAllBNB","outputs":[],"stateMutability":"nonpayable","type":"function"},{"inputs":[{"internalType":"address","name":"newOwner","type":"address"}],"name":"transferOwnership","outputs":[],"stateMutability":"nonpayable","type":"function"},{"stateMutability":"payable","type":"receive"}],"evm":{"bytecode":{"linkReferences":{},"object":"6080346200019157601f620017c338819003918201601f19168301916001600160401b03831184841017620001965780849260609460405283398101031262000191576200004d81620001ac565b6200006960406200006160208501620001ac565b9301620001ac565b6001600160a01b039182169283156200017857826000549160018060a01b03199580878516176000558260405194167f8be0079c531659141344cd1fd0a4f28419497f9722a3daafe3b4186f6b6457e0600080a360017f9b779b17422d0df92223018b32b4d1fa46e071723d6817e2486d003becc55f0055678ac7230489e80000600155677ce66c50e2840000600255670de0b6b3a76400006003551690811562000141575083600454161760045516908162000131575b6040516116019081620001c28239f35b6005541617600555388062000121565b62461bcd60e51b8152602060048201526012602482015271125b9d985b1a5908199959481dd85b1b195d60721b6044820152606490fd5b604051631e4fbdf760e01b815260006004820152602490fd5b600080fd5b634e487b7160e01b600052604160045260246000fd5b51906001600160a01b0382168203620001915756fe60806040818152600480361015610021575b505050361561001f57600080fd5b005b600092833560e01c908163150ee8831461106c57508063326961741461104d57806332cb6b0c146110265780635c85c58814610fa15780636c197ff514610d4f578063715018a614610cf5578063751c598814610aa65780638da5cb5b14610a7e5780638e8f294b14610a0557806390d49b9d14610963578063c21ebd071461093a578063c535c7ed14610843578063c8a1d06e1461079c578063d7b46c61146106ce578063ec9d23e7146106af578063ecd24a821461066d578063f088d54714610313578063f25f4b56146102ec578063f2fde38b14610266578063f8316c90146101c55763f96a60060361001157346101c15760203660031901126101c15761012a611088565b916101336110a3565b61013b611205565b6001600160a01b0383811685526006602052818520805460ff92600592916101659116151561112a565b01541661018b578361017684611235565b60016000805160206115ac8339815191525580f35b906020606492519162461bcd60e51b8352820152601060248201526f105b1c9958591e481b5a59dc985d195960821b6044820152fd5b8280fd5b50346101c15760203660031901126101c1576101df611088565b6101e76110a3565b6001600160a01b0316918215610232575050600580546001600160a01b031916821790557fc6b438e6a8a59579ce6a4406cbd203b740e0d47b458aae6596339bcd40c40d158280a280f35b906020606492519162461bcd60e51b8352820152600e60248201526d24b73b30b634b2103937baba32b960911b6044820152fd5b50346101c15760203660031901126101c157610280611088565b906102896110a3565b6001600160a01b039182169283156102d657505082546001600160a01b0319811683178455167f8be0079c531659141344cd1fd0a4f28419497f9722a3daafe3b4186f6b6457e08380a380f35b51631e4fbdf760e01b8152908101849052602490fd5b50346101c157826003193601126101c1575490516001600160a01b03909116815260209150f35b5082906020806003193601126101c15761032b611088565b91610334611205565b6001600160a01b038381168086526006845286862080549094929061035c908216151561112a565b600585019361036f60ff86541615611169565b341561063f5781815416803314908115610612575b50156105e857875b61039681346111e0565b91808801549760028101986103ad8a5480926110cf565b60038301916103d28354926103cc896103c686826111ad565b926110cf565b906111c0565b9586156105b257603c8102818104603c148215171561059e57928d61041761041e946104118b9561040b8f9b9a996064900480926111e0565b9d6110cf565b906110cf565b90556111e0565b9055338c526007885260ff8d8d2054168061058f575b15610586576001015416925b80610573575b508a5163a9059cbb60e01b81526001600160a01b0384168282019081526020810184905287908290819003604001818e8a5af1908115610569578b9161053c575b501561050757509189917f89f5adc174562e07c9c9b1cae7109bbecb21cf9d1b2847e550042b8653c54a0e9360ff98999a9b51963488528701521693a354161590816104f9575b506104ea575b5060016000805160206115ac8339815191525580f35b6104f390611235565b816104d4565b9050546001541115836104ce565b8a5162461bcd60e51b8152908101869052600f60248201526e151c985b9cd9995c8819985a5b1959608a1b6044820152606490fd5b61055c9150873d8911610562575b61055481836110f2565b8101906111ed565b8c610487565b503d61054a565b8c513d8d823e3d90fd5b61058090858354166114da565b8b610446565b50503392610440565b50816001820154161515610434565b50634e487b7160e01b8f526011865260248ffd5b8f5162461bcd60e51b81528087018c9052601060248201526f105b5bdd5b9d081d1bdbc81cdb585b1b60821b6044820152606490fd5b600534023481046005036105ff576064900461038c565b634e487b7160e01b895260118252602489fd5b338a52600786528a8a205460ff1691508161062f575b508a610384565b905082600188015416148a610628565b885162461bcd60e51b8152908101849052600860248201526729b2b7321021272160c11b6044820152606490fd5b5050346106ab5760203660031901126106ab5760209160ff9082906001600160a01b03610698611088565b1681526007855220541690519015158152f35b5080fd5b5050346106ab57816003193601126106ab576020906003549051908152f35b508290346106ab5760603660031901126106ab57803560243591604435906106f46110a3565b826106ff83866110cf565b036107595750610753907f57776b67dc318e1b02763e26fc5c0f75e1b429afc48e2a3aeec56c8fc87752dd949583600155846002558160035551938493846040919493926060820195825260208201520152565b0390a180f35b606490602087519162461bcd60e51b8352820152601b60248201527f536861726573206d75737420657175616c207468726573686f6c6400000000006044820152fd5b509134610840576020366003190112610840576001600160a01b036107bf611088565b168152600660205281812060028101546001549093909283156108315760648502908582046064148615171561081e57506080955060056108028560ff936111c0565b935b015416928151948552602085015283015215156060820152f35b634e487b7160e01b815260118752602490fd5b60809550600560ff9193610804565b80fd5b50346101c157826003193601126101c15761085c611205565b80546001600160a01b0390811691338314801561092e575b156108fa57479283156108ce579183916108b17fdbd1ea0ad8c379019b5744f70c9e46e13d61d8786de9583dd63d1732fa3b824f956020956114da565b54169351908152a260016000805160206115ac8339815191525580f35b845162461bcd60e51b8152602081840152600660248201526527379021272160d11b6044820152606490fd5b606490602085519162461bcd60e51b8352820152600e60248201526d139bdd08105d5d1a1bdc9a5e995960921b6044820152fd5b50818554163314610874565b5050346106ab57816003193601126106ab5760055490516001600160a01b039091168152602090f35b50346101c15760203660031901126101c15761097d611088565b6109856110a3565b6001600160a01b03169182156109cd575080546001600160a01b031916821790557f0439162378682c6392215882cf21e973f49063ed3530a31d763835a2e9f6d17e8280a280f35b906020606492519162461bcd60e51b83528201526012602482015271125b9d985b1a5908199959481dd85b1b195d60721b6044820152fd5b509190346106ab5760203660031901126106ab5760c0926001600160a01b0392829084610a30611088565b1681526006602052209083825416936001830154169260028301549060ff600560038601549486015495015416948151968752602087015285015260608401526080830152151560a0820152f35b5050346106ab57816003193601126106ab57905490516001600160a01b039091168152602090f35b509190346106ab5760603660031901126106ab57610ac2611088565b6024356001600160a01b0381811693909291849003610cf1576044353386526020926007845260ff83882054168015610ce5575b15610ca95784169384875260068452808388205416610c735782516370a0823160e01b81523089820152918483602481895afa928315610c69578893610c36575b508015610c2657925b80519460c0860186811067ffffffffffffffff821117610c135788848b9c95858b9c9d6006610bec9d9a978d9760059d9a528b885280880196875260a084890198848a52606081019a8b52608081019b8c52019b838d5283525220995116906bffffffffffffffffffffffff60a01b91828b5416178a5560018a0192511690825416179055516002870155516003860155519084015551151591019060ff801983541691151516179055565b7fab3e0ae7b7d4c37d3539a4f3e3ac856a540af410acce171c797bbf88c1853b2d8380a380f35b634e487b7160e01b8a5260418b5260248afd5b506706f05b59d3b2000092610b40565b9092508481813d8311610c62575b610c4e81836110f2565b81010312610c5e57519138610b37565b8780fd5b503d610c44565b84513d8a823e3d90fd5b825162461bcd60e51b8152808901859052601060248201526f105b1c9958591e481b185d5b98da195960821b6044820152606490fd5b825162461bcd60e51b815280890185905260166024820152754e6f7420617574686f72697a656420666163746f727960501b6044820152606490fd5b50848754163314610af6565b8480fd5b8334610840578060031936011261084057610d0e6110a3565b80546001600160a01b03198116825581906001600160a01b03167f8be0079c531659141344cd1fd0a4f28419497f9722a3daafe3b4186f6b6457e08280a380f35b509190346106ab57806003193601126106ab57610d6a611088565b60243591610d76611205565b60018060a01b038092169182855260206006815282862091610d9c81845416151561112a565b610dad60ff60058501541615611169565b8515610f6d5783516323b872dd60e01b815233898201523060248201526044810187905282816064818b8a5af1908115610f63578891610f46575b5015610f13578783015492610e378760028301926003610e13610e0d8654809a6110cf565b846111ad565b910193610e30610e298654936103cc86866110cf565b80996111e0565b90556110cf565b905587541696338803610eb95750610e8986977fa082022e93cfcd9f1da5f9236718053910f7e840da080c789c7845698dc032ff959697905b610e7a82866111e0565b9180610ea9575b5050336114da565b82519586528501523393a360016000805160206115ac8339815191525580f35b610eb2916114da565b3880610e81565b966005830283810460051484151715610f00577fa082022e93cfcd9f1da5f9236718053910f7e840da080c789c7845698dc032ff9596979850906064610e89920490610e70565b634e487b7160e01b885260118952602488fd5b835162461bcd60e51b8152808901839052600d60248201526c151c985b9cd9995c8819985a5b609a1b6044820152606490fd5b610f5d9150833d85116105625761055481836110f2565b38610de8565b85513d8a823e3d90fd5b835162461bcd60e51b8152808901839052600e60248201526d125b9d985b1a5908185b5bdd5b9d60921b6044820152606490fd5b5050346106ab57806003193601126106ab57610fbb611088565b9060243591821515808403610cf1577f6b489c12f59a99312ab950fddabe529a090208050382df653584944ea5f78b359261101e602093610ffa6110a3565b60018060a01b031695868852600785528288209060ff801983541691151516179055565b51908152a280f35b5050346106ab57816003193601126106ab57602090516b033b2e3c9fd0803ce80000008152f35b5050346106ab57816003193601126106ab576020906002549051908152f35b8490346106ab57816003193601126106ab576020906001548152f35b600435906001600160a01b038216820361109e57565b600080fd5b6000546001600160a01b031633036110b757565b60405163118cdaa760e01b8152336004820152602490fd5b919082018092116110dc57565b634e487b7160e01b600052601160045260246000fd5b90601f8019910116810190811067ffffffffffffffff82111761111457604052565b634e487b7160e01b600052604160045260246000fd5b1561113157565b60405162461bcd60e51b815260206004820152601060248201526f13585c9ad95d081b9bdd08199bdd5b9960821b6044820152606490fd5b1561117057565b60405162461bcd60e51b81526020600482015260156024820152740a8ded6cadc40dad2cee4c2e8cac840e8de40888ab605b1b6044820152606490fd5b818102929181159184041417156110dc57565b81156111ca570490565b634e487b7160e01b600052601260045260246000fd5b919082039182116110dc57565b9081602091031261109e5751801515810361109e5790565b6000805160206115ac83398151915260028154146112235760029055565b604051633ee5aeb560e01b8152600490fd5b60018060a01b0380911690600082815260066020526040908181209160058301600160ff1982541617905560025492600354946002820191825461127988886110cf565b811061149f575060039061128e8785546111e0565b84556004936112a088858754166114da565b6112ab8982546111e0565b9055018481549155848260055416151580611496575b8061148d575b1561146157600554855163095ea7b360e01b81529084166001600160a01b031685820190815260208082018590529082906040908290030181858e5af1801561145757611439575b5082600554169183855416926102584201804211611426578b8b6060949360c4938b51988996879563f305d71960e01b87528d8701526024860152886044860152886064860152608485015260a48401525af1909182826113e2575b50509160008051602061158c83398151915297969593916113c39593156000146113db575061139d87828454166114da565b4790816113c8575b50505051938493846040919493926060820195825260208201520152565b0390a2565b6113d39254166114da565b3880806113a5565b935061139d565b909192506060823d821161141e575b816113fe606093836110f2565b81010312610840575051908060008051602061158c83398151915261136b565b3d91506113f1565b634e487b7160e01b845260118752602484fd5b6114509060203d81116105625761055481836110f2565b503861130f565b86513d84823e3d90fd5b5050918183611488886113c39660008051602061158c8339815191529a99989654166114da565b61139d565b508715156112c7565b508115156112c1565b949392905060008051602061158c8339815191529650606095506114c8858593600454166114da565b558051928352816020840152820152a2565b811561158757600080808094819460018060a01b03165af1903d15611581573d9067ffffffffffffffff821161156d5760405191611522601f8201601f1916602001846110f2565b825260203d92013e5b1561153257565b60405162461bcd60e51b8152602060048201526013602482015272109390881d1c985b9cd9995c8819985a5b1959606a1b6044820152606490fd5b634e487b7160e01b81526041600452602490fd5b5061152b565b505056fe6b60d326d3c4023c7cb9b6755fc31af3cfbccdeb07a7a8b4d79e201f732324ee9b779b17422d0df92223018b32b4d1fa46e071723d6817e2486d003becc55f00a264697066735822122047c34920d16b5b2957b97b70b41489eced826e7a1f7faae94d38f5948a36e2bc64736f6c63430008140033","opcodes":"PUSH1 0x80 CALLVALUE PUSH3 0x191 JUMPI PUSH1 0x1F PUSH3 0x17C3 CODESIZE DUP2 SWAP1 SUB SWAP2 DUP3 ADD PUSH1 0x1F NOT AND DUP4 ADD SWAP2 PUSH1 0x1 PUSH1 0x1 PUSH1 0x40 SHL SUB DUP4 GT DUP5 DUP5 LT OR PUSH3 0x196 JUMPI DUP1 DUP5 SWAP3 PUSH1 0x60 SWAP5 PUSH1 0x40 MSTORE DUP4 CODECOPY DUP2 ADD SUB SLT PUSH3 0x191 JUMPI PUSH3 0x4D DUP2 PUSH3 0x1AC JUMP JUMPDEST PUSH3 0x69 PUSH1 0x40 PUSH3 0x61 PUSH1 0x20 DUP6 ADD PUSH3 0x1AC JUMP JUMPDEST SWAP4 ADD PUSH3 0x1AC JUMP JUMPDEST PUSH1 0x1 PUSH1 0x1 PUSH1 0xA0 SHL SUB SWAP2 DUP3 AND SWAP3 DUP4 ISZERO PUSH3 0x178 JUMPI DUP3 PUSH1 0x0 SLOAD SWAP2 PUSH1 0x1 DUP1 PUSH1 0xA0 SHL SUB NOT SWAP6 DUP1 DUP8 DUP6 AND OR PUSH1 0x0 SSTORE DUP3 PUSH1 0x40 MLOAD SWAP5 AND PUSH32 0x8BE0079C531659141344CD1FD0A4F28419497F9722A3DAAFE3B4186F6B6457E0 PUSH1 0x0 DUP1 LOG3 PUSH1 0x1 PUSH32 0x9B779B17422D0DF92223018B32B4D1FA46E071723D6817E2486D003BECC55F00 SSTORE PUSH8 0x8AC7230489E80000 PUSH1 0x1 SSTORE PUSH8 0x7CE66C50E2840000 PUSH1 0x2 SSTORE PUSH8 0xDE0B6B3A7640000 PUSH1 0x3 SSTORE AND SWAP1 DUP2 ISZERO PUSH3 0x141 JUMPI POP DUP4 PUSH1 0x4 SLOAD AND OR PUSH1 0x4 SSTORE AND SWAP1 DUP2 PUSH3 0x131 JUMPI JUMPDEST PUSH1 0x40 MLOAD PUSH2 0x1601 SWAP1 DUP2 PUSH3 0x1C2 DUP3 CODECOPY RETURN JUMPDEST PUSH1 0x5 SLOAD AND OR PUSH1 0x5 SSTORE CODESIZE DUP1 PUSH3 0x121 JUMP JUMPDEST PUSH3 0x461BCD PUSH1 0xE5 SHL DUP2 MSTORE PUSH1 0x20 PUSH1 0x4 DUP3 ADD MSTORE PUSH1 0x12 PUSH1 0x24 DUP3 ADD MSTORE PUSH18 0x125B9D985B1A5908199959481DD85B1B195D PUSH1 0x72 SHL PUSH1 0x44 DUP3 ADD MSTORE PUSH1 0x64 SWAP1 REVERT JUMPDEST PUSH1 0x40 MLOAD PUSH4 0x1E4FBDF7 PUSH1 0xE0 SHL DUP2 MSTORE PUSH1 0x0 PUSH1 0x4 DUP3 ADD MSTORE PUSH1 0x24 SWAP1 REVERT JUMPDEST PUSH1 0x0 DUP1 REVERT JUMPDEST PUSH4 0x4E487B71 PUSH1 0xE0 SHL PUSH1 0x0 MSTORE PUSH1 0x41 PUSH1 0x4 MSTORE PUSH1 0x24 PUSH1 0x0 REVERT JUMPDEST MLOAD SWAP1 PUSH1 0x1 PUSH1 0x1 PUSH1 0xA0 SHL SUB DUP3 AND DUP3 SUB PUSH3 0x191 JUMPI JUMP INVALID PUSH1 0x80 PUSH1 0x40 DUP2 DUP2 MSTORE PUSH1 0x4 DUP1 CALLDATASIZE LT ISZERO PUSH2 0x21 JUMPI JUMPDEST POP POP POP CALLDATASIZE ISZERO PUSH2 0x1F JUMPI PUSH1 0x0 DUP1 REVERT JUMPDEST STOP JUMPDEST PUSH1 0x0 SWAP3 DUP4 CALLDATALOAD PUSH1 0xE0 SHR SWAP1 DUP2 PUSH4 0x150EE883 EQ PUSH2 0x106C JUMPI POP DUP1 PUSH4 0x32696174 EQ PUSH2 0x104D JUMPI DUP1 PUSH4 0x32CB6B0C EQ PUSH2 0x1026 JUMPI DUP1 PUSH4 0x5C85C588 EQ PUSH2 0xFA1 JUMPI DUP1 PUSH4 0x6C197FF5 EQ PUSH2 0xD4F JUMPI DUP1 PUSH4 0x715018A6 EQ PUSH2 0xCF5 JUMPI DUP1 PUSH4 0x751C5988 EQ PUSH2 0xAA6 JUMPI DUP1 PUSH4 0x8DA5CB5B EQ PUSH2 0xA7E JUMPI DUP1 PUSH4 0x8E8F294B EQ PUSH2 0xA05 JUMPI DUP1 PUSH4 0x90D49B9D EQ PUSH2 0x963 JUMPI DUP1 PUSH4 0xC21EBD07 EQ PUSH2 0x93A JUMPI DUP1 PUSH4 0xC535C7ED EQ PUSH2 0x843 JUMPI DUP1 PUSH4 0xC8A1D06E EQ PUSH2 0x79C JUMPI DUP1 PUSH4 0xD7B46C61 EQ PUSH2 0x6CE JUMPI DUP1 PUSH4 0xEC9D23E7 EQ PUSH2 0x6AF JUMPI DUP1 PUSH4 0xECD24A82 EQ PUSH2 0x66D JUMPI DUP1 PUSH4 0xF088D547 EQ PUSH2 0x313 JUMPI DUP1 PUSH4 0xF25F4B56 EQ PUSH2 0x2EC JUMPI DUP1 PUSH4 0xF2FDE38B EQ PUSH2 0x266 JUMPI DUP1 PUSH4 0xF8316C90 EQ PUSH2 0x1C5 JUMPI PUSH4 0xF96A6006 SUB PUSH2 0x11 JUMPI CALLVALUE PUSH2 0x1C1 JUMPI PUSH1 0x20 CALLDATASIZE PUSH1 0x3 NOT ADD SLT PUSH2 0x1C1 JUMPI PUSH2 0x12A PUSH2 0x1088 JUMP JUMPDEST SWAP2 PUSH2 0x133 PUSH2 0x10A3 JUMP JUMPDEST PUSH2 0x13B PUSH2 0x1205 JUMP JUMPDEST PUSH1 0x1 PUSH1 0x1 PUSH1 0xA0 SHL SUB DUP4 DUP2 AND DUP6 MSTORE PUSH1 0x6 PUSH1 0x20 MSTORE DUP2 DUP6 KECCAK256 DUP1 SLOAD PUSH1 0xFF SWAP3 PUSH1 0x5 SWAP3 SWAP2 PUSH2 0x165 SWAP2 AND ISZERO ISZERO PUSH2 0x112A JUMP JUMPDEST ADD SLOAD AND PUSH2 0x18B JUMPI DUP4 PUSH2 0x176 DUP5 PUSH2 0x1235 JUMP JUMPDEST PUSH1 0x1 PUSH1 0x0 DUP1 MLOAD PUSH1 0x20 PUSH2 0x15AC DUP4 CODECOPY DUP2 MLOAD SWAP2 MSTORE SSTORE DUP1 RETURN JUMPDEST SWAP1 PUSH1 0x20 PUSH1 0x64 SWAP3 MLOAD SWAP2 PUSH3 0x461BCD PUSH1 0xE5 SHL DUP4 MSTORE DUP3 ADD MSTORE PUSH1 0x10 PUSH1 0x24 DUP3 ADD MSTORE PUSH16 0x105B1C9958591E481B5A59DC985D1959 PUSH1 0x82 SHL PUSH1 0x44 DUP3 ADD MSTORE REVERT JUMPDEST DUP3 DUP1 REVERT JUMPDEST POP CALLVALUE PUSH2 0x1C1 JUMPI PUSH1 0x20 CALLDATASIZE PUSH1 0x3 NOT ADD SLT PUSH2 0x1C1 JUMPI PUSH2 0x1DF PUSH2 0x1088 JUMP JUMPDEST PUSH2 0x1E7 PUSH2 0x10A3 JUMP JUMPDEST PUSH1 0x1 PUSH1 0x1 PUSH1 0xA0 SHL SUB AND SWAP2 DUP3 ISZERO PUSH2 0x232 JUMPI POP POP PUSH1 0x5 DUP1 SLOAD PUSH1 0x1 PUSH1 0x1 PUSH1 0xA0 SHL SUB NOT AND DUP3 OR SWAP1 SSTORE PUSH32 0xC6B438E6A8A59579CE6A4406CBD203B740E0D47B458AAE6596339BCD40C40D15 DUP3 DUP1 LOG2 DUP1 RETURN JUMPDEST SWAP1 PUSH1 0x20 PUSH1 0x64 SWAP3 MLOAD SWAP2 PUSH3 0x461BCD PUSH1 0xE5 SHL DUP4 MSTORE DUP3 ADD MSTORE PUSH1 0xE PUSH1 0x24 DUP3 ADD MSTORE PUSH14 0x24B73B30B634B2103937BABA32B9 PUSH1 0x91 SHL PUSH1 0x44 DUP3 ADD MSTORE REVERT JUMPDEST POP CALLVALUE PUSH2 0x1C1 JUMPI PUSH1 0x20 CALLDATASIZE PUSH1 0x3 NOT ADD SLT PUSH2 0x1C1 JUMPI PUSH2 0x280 PUSH2 0x1088 JUMP JUMPDEST SWAP1 PUSH2 0x289 PUSH2 0x10A3 JUMP JUMPDEST PUSH1 0x1 PUSH1 0x1 PUSH1 0xA0 SHL SUB SWAP2 DUP3 AND SWAP3 DUP4 ISZERO PUSH2 0x2D6 JUMPI POP POP DUP3 SLOAD PUSH1 0x1 PUSH1 0x1 PUSH1 0xA0 SHL SUB NOT DUP2 AND DUP4 OR DUP5 SSTORE AND PUSH32 0x8BE0079C531659141344CD1FD0A4F28419497F9722A3DAAFE3B4186F6B6457E0 DUP4 DUP1 LOG3 DUP1 RETURN JUMPDEST MLOAD PUSH4 0x1E4FBDF7 PUSH1 0xE0 SHL DUP2 MSTORE SWAP1 DUP2 ADD DUP5 SWAP1 MSTORE PUSH1 0x24 SWAP1 REVERT JUMPDEST POP CALLVALUE PUSH2 0x1C1 JUMPI DUP3 PUSH1 0x3 NOT CALLDATASIZE ADD SLT PUSH2 0x1C1 JUMPI SLOAD SWAP1 MLOAD PUSH1 0x1 PUSH1 0x1 PUSH1 0xA0 SHL SUB SWAP1 SWAP2 AND DUP2 MSTORE PUSH1 0x20 SWAP2 POP RETURN JUMPDEST POP DUP3 SWAP1 PUSH1 0x20 DUP1 PUSH1 0x3 NOT CALLDATASIZE ADD SLT PUSH2 0x1C1 JUMPI PUSH2 0x32B PUSH2 0x1088 JUMP JUMPDEST SWAP2 PUSH2 0x334 PUSH2 0x1205 JUMP JUMPDEST PUSH1 0x1 PUSH1 0x1 PUSH1 0xA0 SHL SUB DUP4 DUP2 AND DUP1 DUP7 MSTORE PUSH1 0x6 DUP5 MSTORE DUP7 DUP7 KECCAK256 DUP1 SLOAD SWAP1 SWAP5 SWAP3 SWAP1 PUSH2 0x35C SWAP1 DUP3 AND ISZERO ISZERO PUSH2 0x112A JUMP JUMPDEST PUSH1 0x5 DUP6 ADD SWAP4 PUSH2 0x36F PUSH1 0xFF DUP7 SLOAD AND ISZERO PUSH2 0x1169 JUMP JUMPDEST CALLVALUE ISZERO PUSH2 0x63F JUMPI DUP2 DUP2 SLOAD AND DUP1 CALLER EQ SWAP1 DUP2 ISZERO PUSH2 0x612 JUMPI JUMPDEST POP ISZERO PUSH2 0x5E8 JUMPI DUP8 JUMPDEST PUSH2 0x396 DUP2 CALLVALUE PUSH2 0x11E0 JUMP JUMPDEST SWAP2 DUP1 DUP9 ADD SLOAD SWAP8 PUSH1 0x2 DUP2 ADD SWAP9 PUSH2 0x3AD DUP11 SLOAD DUP1 SWAP3 PUSH2 0x10CF JUMP JUMPDEST PUSH1 0x3 DUP4 ADD SWAP2 PUSH2 0x3D2 DUP4 SLOAD SWAP3 PUSH2 0x3CC DUP10 PUSH2 0x3C6 DUP7 DUP3 PUSH2 0x11AD JUMP JUMPDEST SWAP3 PUSH2 0x10CF JUMP JUMPDEST SWAP1 PUSH2 0x11C0 JUMP JUMPDEST SWAP6 DUP7 ISZERO PUSH2 0x5B2 JUMPI PUSH1 0x3C DUP2 MUL DUP2 DUP2 DIV PUSH1 0x3C EQ DUP3 ISZERO OR ISZERO PUSH2 0x59E JUMPI SWAP3 DUP14 PUSH2 0x417 PUSH2 0x41E SWAP5 PUSH2 0x411 DUP12 SWAP6 PUSH2 0x40B DUP16 SWAP12 SWAP11 SWAP10 PUSH1 0x64 SWAP1 DIV DUP1 SWAP3 PUSH2 0x11E0 JUMP JUMPDEST SWAP14 PUSH2 0x10CF JUMP JUMPDEST SWAP1 PUSH2 0x10CF JUMP JUMPDEST SWAP1 SSTORE PUSH2 0x11E0 JUMP JUMPDEST SWAP1 SSTORE CALLER DUP13 MSTORE PUSH1 0x7 DUP9 MSTORE PUSH1 0xFF DUP14 DUP14 KECCAK256 SLOAD AND DUP1 PUSH2 0x58F JUMPI JUMPDEST ISZERO PUSH2 0x586 JUMPI PUSH1 0x1 ADD SLOAD AND SWAP3 JUMPDEST DUP1 PUSH2 0x573 JUMPI JUMPDEST POP DUP11 MLOAD PUSH4 0xA9059CBB PUSH1 0xE0 SHL DUP2 MSTORE PUSH1 0x1 PUSH1 0x1 PUSH1 0xA0 SHL SUB DUP5 AND DUP3 DUP3 ADD SWAP1 DUP2 MSTORE PUSH1 0x20 DUP2 ADD DUP5 SWAP1 MSTORE DUP8 SWAP1 DUP3 SWAP1 DUP2 SWAP1 SUB PUSH1 0x40 ADD DUP2 DUP15 DUP11 GAS CALL SWAP1 DUP2 ISZERO PUSH2 0x569 JUMPI DUP12 SWAP2 PUSH2 0x53C JUMPI JUMPDEST POP ISZERO PUSH2 0x507 JUMPI POP SWAP2 DUP10 SWAP2 PUSH32 0x89F5ADC174562E07C9C9B1CAE7109BBECB21CF9D1B2847E550042B8653C54A0E SWAP4 PUSH1 0xFF SWAP9 SWAP10 SWAP11 SWAP12 MLOAD SWAP7 CALLVALUE DUP9 MSTORE DUP8 ADD MSTORE AND SWAP4 LOG3 SLOAD AND ISZERO SWAP1 DUP2 PUSH2 0x4F9 JUMPI JUMPDEST POP PUSH2 0x4EA JUMPI JUMPDEST POP PUSH1 0x1 PUSH1 0x0 DUP1 MLOAD PUSH1 0x20 PUSH2 0x15AC DUP4 CODECOPY DUP2 MLOAD SWAP2 MSTORE SSTORE DUP1 RETURN JUMPDEST PUSH2 0x4F3 SWAP1 PUSH2 0x1235 JUMP JUMPDEST DUP2 PUSH2 0x4D4 JUMP JUMPDEST SWAP1 POP SLOAD PUSH1 0x1 SLOAD GT ISZERO DUP4 PUSH2 0x4CE JUMP JUMPDEST DUP11 MLOAD PUSH3 0x461BCD PUSH1 0xE5 SHL DUP2 MSTORE SWAP1 DUP2 ADD DUP7 SWAP1 MSTORE PUSH1 0xF PUSH1 0x24 DUP3 ADD MSTORE PUSH15 0x151C985B9CD9995C8819985A5B1959 PUSH1 0x8A SHL PUSH1 0x44 DUP3 ADD MSTORE PUSH1 0x64 SWAP1 REVERT JUMPDEST PUSH2 0x55C SWAP2 POP DUP8 RETURNDATASIZE DUP10 GT PUSH2 0x562 JUMPI JUMPDEST PUSH2 0x554 DUP2 DUP4 PUSH2 0x10F2 JUMP JUMPDEST DUP2 ADD SWAP1 PUSH2 0x11ED JUMP JUMPDEST DUP13 PUSH2 0x487 JUMP JUMPDEST POP RETURNDATASIZE PUSH2 0x54A JUMP JUMPDEST DUP13 MLOAD RETURNDATASIZE DUP14 DUP3 RETURNDATACOPY RETURNDATASIZE SWAP1 REVERT JUMPDEST PUSH2 0x580 SWAP1 DUP6 DUP4 SLOAD AND PUSH2 0x14DA JUMP JUMPDEST DUP12 PUSH2 0x446 JUMP JUMPDEST POP POP CALLER SWAP3 PUSH2 0x440 JUMP JUMPDEST POP DUP2 PUSH1 0x1 DUP3 ADD SLOAD AND ISZERO ISZERO PUSH2 0x434 JUMP JUMPDEST POP PUSH4 0x4E487B71 PUSH1 0xE0 SHL DUP16 MSTORE PUSH1 0x11 DUP7 MSTORE PUSH1 0x24 DUP16 REVERT JUMPDEST DUP16 MLOAD PUSH3 0x461BCD PUSH1 0xE5 SHL DUP2 MSTORE DUP1 DUP8 ADD DUP13 SWAP1 MSTORE PUSH1 0x10 PUSH1 0x24 DUP3 ADD MSTORE PUSH16 0x105B5BDD5B9D081D1BDBC81CDB585B1B PUSH1 0x82 SHL PUSH1 0x44 DUP3 ADD MSTORE PUSH1 0x64 SWAP1 REVERT JUMPDEST PUSH1 0x5 CALLVALUE MUL CALLVALUE DUP2 DIV PUSH1 0x5 SUB PUSH2 0x5FF JUMPI PUSH1 0x64 SWAP1 DIV PUSH2 0x38C JUMP JUMPDEST PUSH4 0x4E487B71 PUSH1 0xE0 SHL DUP10 MSTORE PUSH1 0x11 DUP3 MSTORE PUSH1 0x24 DUP10 REVERT JUMPDEST CALLER DUP11 MSTORE PUSH1 0x7 DUP7 MSTORE DUP11 DUP11 KECCAK256 SLOAD PUSH1 0xFF AND SWAP2 POP DUP2 PUSH2 0x62F JUMPI JUMPDEST POP DUP11 PUSH2 0x384 JUMP JUMPDEST SWAP1 POP DUP3 PUSH1 0x1 DUP9 ADD SLOAD AND EQ DUP11 PUSH2 0x628 JUMP JUMPDEST DUP9 MLOAD PUSH3 0x461BCD PUSH1 0xE5 SHL DUP2 MSTORE SWAP1 DUP2 ADD DUP5 SWAP1 MSTORE PUSH1 0x8 PUSH1 0x24 DUP3 ADD MSTORE PUSH8 0x29B2B73210212721 PUSH1 0xC1 SHL PUSH1 0x44 DUP3 ADD MSTORE PUSH1 0x64 SWAP1 REVERT JUMPDEST POP POP CALLVALUE PUSH2 0x6AB JUMPI PUSH1 0x20 CALLDATASIZE PUSH1 0x3 NOT ADD SLT PUSH2 0x6AB JUMPI PUSH1 0x20 SWAP2 PUSH1 0xFF SWAP1 DUP3 SWAP1 PUSH1 0x1 PUSH1 0x1 PUSH1 0xA0 SHL SUB PUSH2 0x698 PUSH2 0x1088 JUMP JUMPDEST AND DUP2 MSTORE PUSH1 0x7 DUP6 MSTORE KECCAK256 SLOAD AND SWAP1 MLOAD SWAP1 ISZERO ISZERO DUP2 MSTORE RETURN JUMPDEST POP DUP1 REVERT JUMPDEST POP POP CALLVALUE PUSH2 0x6AB JUMPI DUP2 PUSH1 0x3 NOT CALLDATASIZE ADD SLT PUSH2 0x6AB JUMPI PUSH1 0x20 SWAP1 PUSH1 0x3 SLOAD SWAP1 MLOAD SWAP1 DUP2 MSTORE RETURN JUMPDEST POP DUP3 SWAP1 CALLVALUE PUSH2 0x6AB JUMPI PUSH1 0x60 CALLDATASIZE PUSH1 0x3 NOT ADD SLT PUSH2 0x6AB JUMPI DUP1 CALLDATALOAD PUSH1 0x24 CALLDATALOAD SWAP2 PUSH1 0x44 CALLDATALOAD SWAP1 PUSH2 0x6F4 PUSH2 0x10A3 JUMP JUMPDEST DUP3 PUSH2 0x6FF DUP4 DUP7 PUSH2 0x10CF JUMP JUMPDEST SUB PUSH2 0x759 JUMPI POP PUSH2 0x753 SWAP1 PUSH32 0x57776B67DC318E1B02763E26FC5C0F75E1B429AFC48E2A3AEEC56C8FC87752DD SWAP5 SWAP6 DUP4 PUSH1 0x1 SSTORE DUP5 PUSH1 0x2 SSTORE DUP2 PUSH1 0x3 SSTORE MLOAD SWAP4 DUP5 SWAP4 DUP5 PUSH1 0x40 SWAP2 SWAP5 SWAP4 SWAP3 PUSH1 0x60 DUP3 ADD SWAP6 DUP3 MSTORE PUSH1 0x20 DUP3 ADD MSTORE ADD MSTORE JUMP JUMPDEST SUB SWAP1 LOG1 DUP1 RETURN JUMPDEST PUSH1 0x64 SWAP1 PUSH1 0x20 DUP8 MLOAD SWAP2 PUSH3 0x461BCD PUSH1 0xE5 SHL DUP4 MSTORE DUP3 ADD MSTORE PUSH1 0x1B PUSH1 0x24 DUP3 ADD MSTORE PUSH32 0x536861726573206D75737420657175616C207468726573686F6C640000000000 PUSH1 0x44 DUP3 ADD MSTORE REVERT JUMPDEST POP SWAP2 CALLVALUE PUSH2 0x840 JUMPI PUSH1 0x20 CALLDATASIZE PUSH1 0x3 NOT ADD SLT PUSH2 0x840 JUMPI PUSH1 0x1 PUSH1 0x1 PUSH1 0xA0 SHL SUB PUSH2 0x7BF PUSH2 0x1088 JUMP JUMPDEST AND DUP2 MSTORE PUSH1 0x6 PUSH1 0x20 MSTORE DUP2 DUP2 KECCAK256 PUSH1 0x2 DUP2 ADD SLOAD PUSH1 0x1 SLOAD SWAP1 SWAP4 SWAP1 SWAP3 DUP4 ISZERO PUSH2 0x831 JUMPI PUSH1 0x64 DUP6 MUL SWAP1 DUP6 DUP3 DIV PUSH1 0x64 EQ DUP7 ISZERO OR ISZERO PUSH2 0x81E JUMPI POP PUSH1 0x80 SWAP6 POP PUSH1 0x5 PUSH2 0x802 DUP6 PUSH1 0xFF SWAP4 PUSH2 0x11C0 JUMP JUMPDEST SWAP4 JUMPDEST ADD SLOAD AND SWAP3 DUP2 MLOAD SWAP5 DUP6 MSTORE PUSH1 0x20 DUP6 ADD MSTORE DUP4 ADD MSTORE ISZERO ISZERO PUSH1 0x60 DUP3 ADD MSTORE RETURN JUMPDEST PUSH4 0x4E487B71 PUSH1 0xE0 SHL DUP2 MSTORE PUSH1 0x11 DUP8 MSTORE PUSH1 0x24 SWAP1 REVERT JUMPDEST PUSH1 0x80 SWAP6 POP PUSH1 0x5 PUSH1 0xFF SWAP2 SWAP4 PUSH2 0x804 JUMP JUMPDEST DUP1 REVERT JUMPDEST POP CALLVALUE PUSH2 0x1C1 JUMPI DUP3 PUSH1 0x3 NOT CALLDATASIZE ADD SLT PUSH2 0x1C1 JUMPI PUSH2 0x85C PUSH2 0x1205 JUMP JUMPDEST DUP1 SLOAD PUSH1 0x1 PUSH1 0x1 PUSH1 0xA0 SHL SUB SWAP1 DUP2 AND SWAP2 CALLER DUP4 EQ DUP1 ISZERO PUSH2 0x92E JUMPI JUMPDEST ISZERO PUSH2 0x8FA JUMPI SELFBALANCE SWAP3 DUP4 ISZERO PUSH2 0x8CE JUMPI SWAP2 DUP4 SWAP2 PUSH2 0x8B1 PUSH32 0xDBD1EA0AD8C379019B5744F70C9E46E13D61D8786DE9583DD63D1732FA3B824F SWAP6 PUSH1 0x20 SWAP6 PUSH2 0x14DA JUMP JUMPDEST SLOAD AND SWAP4 MLOAD SWAP1 DUP2 MSTORE LOG2 PUSH1 0x1 PUSH1 0x0 DUP1 MLOAD PUSH1 0x20 PUSH2 0x15AC DUP4 CODECOPY DUP2 MLOAD SWAP2 MSTORE SSTORE DUP1 RETURN JUMPDEST DUP5 MLOAD PUSH3 0x461BCD PUSH1 0xE5 SHL DUP2 MSTORE PUSH1 0x20 DUP2 DUP5 ADD MSTORE PUSH1 0x6 PUSH1 0x24 DUP3 ADD MSTORE PUSH6 0x273790212721 PUSH1 0xD1 SHL PUSH1 0x44 DUP3 ADD MSTORE PUSH1 0x64 SWAP1 REVERT JUMPDEST PUSH1 0x64 SWAP1 PUSH1 0x20 DUP6 MLOAD SWAP2 PUSH3 0x461BCD PUSH1 0xE5 SHL DUP4 MSTORE DUP3 ADD MSTORE PUSH1 0xE PUSH1 0x24 DUP3 ADD MSTORE PUSH14 0x139BDD08105D5D1A1BDC9A5E9959 PUSH1 0x92 SHL PUSH1 0x44 DUP3 ADD MSTORE REVERT JUMPDEST POP DUP2 DUP6 SLOAD AND CALLER EQ PUSH2 0x874 JUMP JUMPDEST POP POP CALLVALUE PUSH2 0x6AB JUMPI DUP2 PUSH1 0x3 NOT CALLDATASIZE ADD SLT PUSH2 0x6AB JUMPI PUSH1 0x5 SLOAD SWAP1 MLOAD PUSH1 0x1 PUSH1 0x1 PUSH1 0xA0 SHL SUB SWAP1 SWAP2 AND DUP2 MSTORE PUSH1 0x20 SWAP1 RETURN JUMPDEST POP CALLVALUE PUSH2 0x1C1 JUMPI PUSH1 0x20 CALLDATASIZE PUSH1 0x3 NOT ADD SLT PUSH2 0x1C1 JUMPI PUSH2 0x97D PUSH2 0x1088 JUMP JUMPDEST PUSH2 0x985 PUSH2 0x10A3 JUMP JUMPDEST PUSH1 0x1 PUSH1 0x1 PUSH1 0xA0 SHL SUB AND SWAP2 DUP3 ISZERO PUSH2 0x9CD JUMPI POP DUP1 SLOAD PUSH1 0x1 PUSH1 0x1 PUSH1 0xA0 SHL SUB NOT AND DUP3 OR SWAP1 SSTORE PUSH32 0x439162378682C6392215882CF21E973F49063ED3530A31D763835A2E9F6D17E DUP3 DUP1 LOG2 DUP1 RETURN JUMPDEST SWAP1 PUSH1 0x20 PUSH1 0x64 SWAP3 MLOAD SWAP2 PUSH3 0x461BCD PUSH1 0xE5 SHL DUP4 MSTORE DUP3 ADD MSTORE PUSH1 0x12 PUSH1 0x24 DUP3 ADD MSTORE PUSH18 0x125B9D985B1A5908199959481DD85B1B195D PUSH1 0x72 SHL PUSH1 0x44 DUP3 ADD MSTORE REVERT JUMPDEST POP SWAP2 SWAP1 CALLVALUE PUSH2 0x6AB JUMPI PUSH1 0x20 CALLDATASIZE PUSH1 0x3 NOT ADD SLT PUSH2 0x6AB JUMPI PUSH1 0xC0 SWAP3 PUSH1 0x1 PUSH1 0x1 PUSH1 0xA0 SHL SUB SWAP3 DUP3 SWAP1 DUP5 PUSH2 0xA30 PUSH2 0x1088 JUMP JUMPDEST AND DUP2 MSTORE PUSH1 0x6 PUSH1 0x20 MSTORE KECCAK256 SWAP1 DUP4 DUP3 SLOAD AND SWAP4 PUSH1 0x1 DUP4 ADD SLOAD AND SWAP3 PUSH1 0x2 DUP4 ADD SLOAD SWAP1 PUSH1 0xFF PUSH1 0x5 PUSH1 0x3 DUP7 ADD SLOAD SWAP5 DUP7 ADD SLOAD SWAP6 ADD SLOAD AND SWAP5 DUP2 MLOAD SWAP7 DUP8 MSTORE PUSH1 0x20 DUP8 ADD MSTORE DUP6 ADD MSTORE PUSH1 0x60 DUP5 ADD MSTORE PUSH1 0x80 DUP4 ADD MSTORE ISZERO ISZERO PUSH1 0xA0 DUP3 ADD MSTORE RETURN JUMPDEST POP POP CALLVALUE PUSH2 0x6AB JUMPI DUP2 PUSH1 0x3 NOT CALLDATASIZE ADD SLT PUSH2 0x6AB JUMPI SWAP1 SLOAD SWAP1 MLOAD PUSH1 0x1 PUSH1 0x1 PUSH1 0xA0 SHL SUB SWAP1 SWAP2 AND DUP2 MSTORE PUSH1 0x20 SWAP1 RETURN JUMPDEST POP SWAP2 SWAP1 CALLVALUE PUSH2 0x6AB JUMPI PUSH1 0x60 CALLDATASIZE PUSH1 0x3 NOT ADD SLT PUSH2 0x6AB JUMPI PUSH2 0xAC2 PUSH2 0x1088 JUMP JUMPDEST PUSH1 0x24 CALLDATALOAD PUSH1 0x1 PUSH1 0x1 PUSH1 0xA0 SHL SUB DUP2 DUP2 AND SWAP4 SWAP1 SWAP3 SWAP2 DUP5 SWAP1 SUB PUSH2 0xCF1 JUMPI PUSH1 0x44 CALLDATALOAD CALLER DUP7 MSTORE PUSH1 0x20 SWAP3 PUSH1 0x7 DUP5 MSTORE PUSH1 0xFF DUP4 DUP9 KECCAK256 SLOAD AND DUP1 ISZERO PUSH2 0xCE5 JUMPI JUMPDEST ISZERO PUSH2 0xCA9 JUMPI DUP5 AND SWAP4 DUP5 DUP8 MSTORE PUSH1 0x6 DUP5 MSTORE DUP1 DUP4 DUP9 KECCAK256 SLOAD AND PUSH2 0xC73 JUMPI DUP3 MLOAD PUSH4 0x70A08231 PUSH1 0xE0 SHL DUP2 MSTORE ADDRESS DUP10 DUP3 ADD MSTORE SWAP2 DUP5 DUP4 PUSH1 0x24 DUP2 DUP10 GAS STATICCALL SWAP3 DUP4 ISZERO PUSH2 0xC69 JUMPI DUP9 SWAP4 PUSH2 0xC36 JUMPI JUMPDEST POP DUP1 ISZERO PUSH2 0xC26 JUMPI SWAP3 JUMPDEST DUP1 MLOAD SWAP5 PUSH1 0xC0 DUP7 ADD DUP7 DUP2 LT PUSH8 0xFFFFFFFFFFFFFFFF DUP3 GT OR PUSH2 0xC13 JUMPI DUP9 DUP5 DUP12 SWAP13 SWAP6 DUP6 DUP12 SWAP13 SWAP14 PUSH1 0x6 PUSH2 0xBEC SWAP14 SWAP11 SWAP8 DUP14 SWAP8 PUSH1 0x5 SWAP14 SWAP11 MSTORE DUP12 DUP9 MSTORE DUP1 DUP9 ADD SWAP7 DUP8 MSTORE PUSH1 0xA0 DUP5 DUP10 ADD SWAP9 DUP5 DUP11 MSTORE PUSH1 0x60 DUP2 ADD SWAP11 DUP12 MSTORE PUSH1 0x80 DUP2 ADD SWAP12 DUP13 MSTORE ADD SWAP12 DUP4 DUP14 MSTORE DUP4 MSTORE MSTORE KECCAK256 SWAP10 MLOAD AND SWAP1 PUSH12 0xFFFFFFFFFFFFFFFFFFFFFFFF PUSH1 0xA0 SHL SWAP2 DUP3 DUP12 SLOAD AND OR DUP11 SSTORE PUSH1 0x1 DUP11 ADD SWAP3 MLOAD AND SWAP1 DUP3 SLOAD AND OR SWAP1 SSTORE MLOAD PUSH1 0x2 DUP8 ADD SSTORE MLOAD PUSH1 0x3 DUP7 ADD SSTORE MLOAD SWAP1 DUP5 ADD SSTORE MLOAD ISZERO ISZERO SWAP2 ADD SWAP1 PUSH1 0xFF DUP1 NOT DUP4 SLOAD AND SWAP2 ISZERO ISZERO AND OR SWAP1 SSTORE JUMP JUMPDEST PUSH32 0xAB3E0AE7B7D4C37D3539A4F3E3AC856A540AF410ACCE171C797BBF88C1853B2D DUP4 DUP1 LOG3 DUP1 RETURN JUMPDEST PUSH4 0x4E487B71 PUSH1 0xE0 SHL DUP11 MSTORE PUSH1 0x41 DUP12 MSTORE PUSH1 0x24 DUP11 REVERT JUMPDEST POP PUSH8 0x6F05B59D3B20000 SWAP3 PUSH2 0xB40 JUMP JUMPDEST SWAP1 SWAP3 POP DUP5 DUP2 DUP2 RETURNDATASIZE DUP4 GT PUSH2 0xC62 JUMPI JUMPDEST PUSH2 0xC4E DUP2 DUP4 PUSH2 0x10F2 JUMP JUMPDEST DUP2 ADD SUB SLT PUSH2 0xC5E JUMPI MLOAD SWAP2 CODESIZE PUSH2 0xB37 JUMP JUMPDEST DUP8 DUP1 REVERT JUMPDEST POP RETURNDATASIZE PUSH2 0xC44 JUMP JUMPDEST DUP5 MLOAD RETURNDATASIZE DUP11 DUP3 RETURNDATACOPY RETURNDATASIZE SWAP1 REVERT JUMPDEST DUP3 MLOAD PUSH3 0x461BCD PUSH1 0xE5 SHL DUP2 MSTORE DUP1 DUP10 ADD DUP6 SWAP1 MSTORE PUSH1 0x10 PUSH1 0x24 DUP3 ADD MSTORE PUSH16 0x105B1C9958591E481B185D5B98DA1959 PUSH1 0x82 SHL PUSH1 0x44 DUP3 ADD MSTORE PUSH1 0x64 SWAP1 REVERT JUMPDEST DUP3 MLOAD PUSH3 0x461BCD PUSH1 0xE5 SHL DUP2 MSTORE DUP1 DUP10 ADD DUP6 SWAP1 MSTORE PUSH1 0x16 PUSH1 0x24 DUP3 ADD MSTORE PUSH22 0x4E6F7420617574686F72697A656420666163746F7279 PUSH1 0x50 SHL PUSH1 0x44 DUP3 ADD MSTORE PUSH1 0x64 SWAP1 REVERT JUMPDEST POP DUP5 DUP8 SLOAD AND CALLER EQ PUSH2 0xAF6 JUMP JUMPDEST DUP5 DUP1 REVERT JUMPDEST DUP4 CALLVALUE PUSH2 0x840 JUMPI DUP1 PUSH1 0x3 NOT CALLDATASIZE ADD SLT PUSH2 0x840 JUMPI PUSH2 0xD0E PUSH2 0x10A3 JUMP JUMPDEST DUP1 SLOAD PUSH1 0x1 PUSH1 0x1 PUSH1 0xA0 SHL SUB NOT DUP2 AND DUP3 SSTORE DUP2 SWAP1 PUSH1 0x1 PUSH1 0x1 PUSH1 0xA0 SHL SUB AND PUSH32 0x8BE0079C531659141344CD1FD0A4F28419497F9722A3DAAFE3B4186F6B6457E0 DUP3 DUP1 LOG3 DUP1 RETURN JUMPDEST POP SWAP2 SWAP1 CALLVALUE PUSH2 0x6AB JUMPI DUP1 PUSH1 0x3 NOT CALLDATASIZE ADD SLT PUSH2 0x6AB JUMPI PUSH2 0xD6A PUSH2 0x1088 JUMP JUMPDEST PUSH1 0x24 CALLDATALOAD SWAP2 PUSH2 0xD76 PUSH2 0x1205 JUMP JUMPDEST PUSH1 0x1 DUP1 PUSH1 0xA0 SHL SUB DUP1 SWAP3 AND SWAP2 DUP3 DUP6 MSTORE PUSH1 0x20 PUSH1 0x6 DUP2 MSTORE DUP3 DUP7 KECCAK256 SWAP2 PUSH2 0xD9C DUP2 DUP5 SLOAD AND ISZERO ISZERO PUSH2 0x112A JUMP JUMPDEST PUSH2 0xDAD PUSH1 0xFF PUSH1 0x5 DUP6 ADD SLOAD AND ISZERO PUSH2 0x1169 JUMP JUMPDEST DUP6 ISZERO PUSH2 0xF6D JUMPI DUP4 MLOAD PUSH4 0x23B872DD PUSH1 0xE0 SHL DUP2 MSTORE CALLER DUP10 DUP3 ADD MSTORE ADDRESS PUSH1 0x24 DUP3 ADD MSTORE PUSH1 0x44 DUP2 ADD DUP8 SWAP1 MSTORE DUP3 DUP2 PUSH1 0x64 DUP2 DUP12 DUP11 GAS CALL SWAP1 DUP2 ISZERO PUSH2 0xF63 JUMPI DUP9 SWAP2 PUSH2 0xF46 JUMPI JUMPDEST POP ISZERO PUSH2 0xF13 JUMPI DUP8 DUP4 ADD SLOAD SWAP3 PUSH2 0xE37 DUP8 PUSH1 0x2 DUP4 ADD SWAP3 PUSH1 0x3 PUSH2 0xE13 PUSH2 0xE0D DUP7 SLOAD DUP1 SWAP11 PUSH2 0x10CF JUMP JUMPDEST DUP5 PUSH2 0x11AD JUMP JUMPDEST SWAP2 ADD SWAP4 PUSH2 0xE30 PUSH2 0xE29 DUP7 SLOAD SWAP4 PUSH2 0x3CC DUP7 DUP7 PUSH2 0x10CF JUMP JUMPDEST DUP1 SWAP10 PUSH2 0x11E0 JUMP JUMPDEST SWAP1 SSTORE PUSH2 0x10CF JUMP JUMPDEST SWAP1 SSTORE DUP8 SLOAD AND SWAP7 CALLER DUP9 SUB PUSH2 0xEB9 JUMPI POP PUSH2 0xE89 DUP7 SWAP8 PUSH32 0xA082022E93CFCD9F1DA5F9236718053910F7E840DA080C789C7845698DC032FF SWAP6 SWAP7 SWAP8 SWAP1 JUMPDEST PUSH2 0xE7A DUP3 DUP7 PUSH2 0x11E0 JUMP JUMPDEST SWAP2 DUP1 PUSH2 0xEA9 JUMPI JUMPDEST POP POP CALLER PUSH2 0x14DA JUMP JUMPDEST DUP3 MLOAD SWAP6 DUP7 MSTORE DUP6 ADD MSTORE CALLER SWAP4 LOG3 PUSH1 0x1 PUSH1 0x0 DUP1 MLOAD PUSH1 0x20 PUSH2 0x15AC DUP4 CODECOPY DUP2 MLOAD SWAP2 MSTORE SSTORE DUP1 RETURN JUMPDEST PUSH2 0xEB2 SWAP2 PUSH2 0x14DA JUMP JUMPDEST CODESIZE DUP1 PUSH2 0xE81 JUMP JUMPDEST SWAP7 PUSH1 0x5 DUP4 MUL DUP4 DUP2 DIV PUSH1 0x5 EQ DUP5 ISZERO OR ISZERO PUSH2 0xF00 JUMPI PUSH32 0xA082022E93CFCD9F1DA5F9236718053910F7E840DA080C789C7845698DC032FF SWAP6 SWAP7 SWAP8 SWAP9 POP SWAP1 PUSH1 0x64 PUSH2 0xE89 SWAP3 DIV SWAP1 PUSH2 0xE70 JUMP JUMPDEST PUSH4 0x4E487B71 PUSH1 0xE0 SHL DUP9 MSTORE PUSH1 0x11 DUP10 MSTORE PUSH1 0x24 DUP9 REVERT JUMPDEST DUP4 MLOAD PUSH3 0x461BCD PUSH1 0xE5 SHL DUP2 MSTORE DUP1 DUP10 ADD DUP4 SWAP1 MSTORE PUSH1 0xD PUSH1 0x24 DUP3 ADD MSTORE PUSH13 0x151C985B9CD9995C8819985A5B PUSH1 0x9A SHL PUSH1 0x44 DUP3 ADD MSTORE PUSH1 0x64 SWAP1 REVERT JUMPDEST PUSH2 0xF5D SWAP2 POP DUP4 RETURNDATASIZE DUP6 GT PUSH2 0x562 JUMPI PUSH2 0x554 DUP2 DUP4 PUSH2 0x10F2 JUMP JUMPDEST CODESIZE PUSH2 0xDE8 JUMP JUMPDEST DUP6 MLOAD RETURNDATASIZE DUP11 DUP3 RETURNDATACOPY RETURNDATASIZE SWAP1 REVERT JUMPDEST DUP4 MLOAD PUSH3 0x461BCD PUSH1 0xE5 SHL DUP2 MSTORE DUP1 DUP10 ADD DUP4 SWAP1 MSTORE PUSH1 0xE PUSH1 0x24 DUP3 ADD MSTORE PUSH14 0x125B9D985B1A5908185B5BDD5B9D PUSH1 0x92 SHL PUSH1 0x44 DUP3 ADD MSTORE PUSH1 0x64 SWAP1 REVERT JUMPDEST POP POP CALLVALUE PUSH2 0x6AB JUMPI DUP1 PUSH1 0x3 NOT CALLDATASIZE ADD SLT PUSH2 0x6AB JUMPI PUSH2 0xFBB PUSH2 0x1088 JUMP JUMPDEST SWAP1 PUSH1 0x24 CALLDATALOAD SWAP2 DUP3 ISZERO ISZERO DUP1 DUP5 SUB PUSH2 0xCF1 JUMPI PUSH32 0x6B489C12F59A99312AB950FDDABE529A090208050382DF653584944EA5F78B35 SWAP3 PUSH2 0x101E PUSH1 0x20 SWAP4 PUSH2 0xFFA PUSH2 0x10A3 JUMP JUMPDEST PUSH1 0x1 DUP1 PUSH1 0xA0 SHL SUB AND SWAP6 DUP7 DUP9 MSTORE PUSH1 0x7 DUP6 MSTORE DUP3 DUP9 KECCAK256 SWAP1 PUSH1 0xFF DUP1 NOT DUP4 SLOAD AND SWAP2 ISZERO ISZERO AND OR SWAP1 SSTORE JUMP JUMPDEST MLOAD SWAP1 DUP2 MSTORE LOG2 DUP1 RETURN JUMPDEST POP POP CALLVALUE PUSH2 0x6AB JUMPI DUP2 PUSH1 0x3 NOT CALLDATASIZE ADD SLT PUSH2 0x6AB JUMPI PUSH1 0x20 SWAP1 MLOAD PUSH12 0x33B2E3C9FD0803CE8000000 DUP2 MSTORE RETURN JUMPDEST POP POP CALLVALUE PUSH2 0x6AB JUMPI DUP2 PUSH1 0x3 NOT CALLDATASIZE ADD SLT PUSH2 0x6AB JUMPI PUSH1 0x20 SWAP1 PUSH1 0x2 SLOAD SWAP1 MLOAD SWAP1 DUP2 MSTORE RETURN JUMPDEST DUP5 SWAP1 CALLVALUE PUSH2 0x6AB JUMPI DUP2 PUSH1 0x3 NOT CALLDATASIZE ADD SLT PUSH2 0x6AB JUMPI PUSH1 0x20 SWAP1 PUSH1 0x1 SLOAD DUP2 MSTORE RETURN JUMPDEST PUSH1 0x4 CALLDATALOAD SWAP1 PUSH1 0x1 PUSH1 0x1 PUSH1 0xA0 SHL SUB DUP3 AND DUP3 SUB PUSH2 0x109E JUMPI JUMP JUMPDEST PUSH1 0x0 DUP1 REVERT JUMPDEST PUSH1 0x0 SLOAD PUSH1 0x1 PUSH1 0x1 PUSH1 0xA0 SHL SUB AND CALLER SUB PUSH2 0x10B7 JUMPI JUMP JUMPDEST PUSH1 0x40 MLOAD PUSH4 0x118CDAA7 PUSH1 0xE0 SHL DUP2 MSTORE CALLER PUSH1 0x4 DUP3 ADD MSTORE PUSH1 0x24 SWAP1 REVERT JUMPDEST SWAP2 SWAP1 DUP3 ADD DUP1 SWAP3 GT PUSH2 0x10DC JUMPI JUMP JUMPDEST PUSH4 0x4E487B71 PUSH1 0xE0 SHL PUSH1 0x0 MSTORE PUSH1 0x11 PUSH1 0x4 MSTORE PUSH1 0x24 PUSH1 0x0 REVERT JUMPDEST SWAP1 PUSH1 0x1F DUP1 NOT SWAP2 ADD AND DUP2 ADD SWAP1 DUP2 LT PUSH8 0xFFFFFFFFFFFFFFFF DUP3 GT OR PUSH2 0x1114 JUMPI PUSH1 0x40 MSTORE JUMP JUMPDEST PUSH4 0x4E487B71 PUSH1 0xE0 SHL PUSH1 0x0 MSTORE PUSH1 0x41 PUSH1 0x4 MSTORE PUSH1 0x24 PUSH1 0x0 REVERT JUMPDEST ISZERO PUSH2 0x1131 JUMPI JUMP JUMPDEST PUSH1 0x40 MLOAD PUSH3 0x461BCD PUSH1 0xE5 SHL DUP2 MSTORE PUSH1 0x20 PUSH1 0x4 DUP3 ADD MSTORE PUSH1 0x10 PUSH1 0x24 DUP3 ADD MSTORE PUSH16 0x13585C9AD95D081B9BDD08199BDD5B99 PUSH1 0x82 SHL PUSH1 0x44 DUP3 ADD MSTORE PUSH1 0x64 SWAP1 REVERT JUMPDEST ISZERO PUSH2 0x1170 JUMPI JUMP JUMPDEST PUSH1 0x40 MLOAD PUSH3 0x461BCD PUSH1 0xE5 SHL DUP2 MSTORE PUSH1 0x20 PUSH1 0x4 DUP3 ADD MSTORE PUSH1 0x15 PUSH1 0x24 DUP3 ADD MSTORE PUSH21 0xA8DED6CADC40DAD2CEE4C2E8CAC840E8DE40888AB PUSH1 0x5B SHL PUSH1 0x44 DUP3 ADD MSTORE PUSH1 0x64 SWAP1 REVERT JUMPDEST DUP2 DUP2 MUL SWAP3 SWAP2 DUP2 ISZERO SWAP2 DUP5 DIV EQ OR ISZERO PUSH2 0x10DC JUMPI JUMP JUMPDEST DUP2 ISZERO PUSH2 0x11CA JUMPI DIV SWAP1 JUMP JUMPDEST PUSH4 0x4E487B71 PUSH1 0xE0 SHL PUSH1 0x0 MSTORE PUSH1 0x12 PUSH1 0x4 MSTORE PUSH1 0x24 PUSH1 0x0 REVERT JUMPDEST SWAP2 SWAP1 DUP3 SUB SWAP2 DUP3 GT PUSH2 0x10DC JUMPI JUMP JUMPDEST SWAP1 DUP2 PUSH1 0x20 SWAP2 SUB SLT PUSH2 0x109E JUMPI MLOAD DUP1 ISZERO ISZERO DUP2 SUB PUSH2 0x109E JUMPI SWAP1 JUMP JUMPDEST PUSH1 0x0 DUP1 MLOAD PUSH1 0x20 PUSH2 0x15AC DUP4 CODECOPY DUP2 MLOAD SWAP2 MSTORE PUSH1 0x2 DUP2 SLOAD EQ PUSH2 0x1223 JUMPI PUSH1 0x2 SWAP1 SSTORE JUMP JUMPDEST PUSH1 0x40 MLOAD PUSH4 0x3EE5AEB5 PUSH1 0xE0 SHL DUP2 MSTORE PUSH1 0x4 SWAP1 REVERT JUMPDEST PUSH1 0x1 DUP1 PUSH1 0xA0 SHL SUB DUP1 SWAP2 AND SWAP1 PUSH1 0x0 DUP3 DUP2 MSTORE PUSH1 0x6 PUSH1 0x20 MSTORE PUSH1 0x40 SWAP1 DUP2 DUP2 KECCAK256 SWAP2 PUSH1 0x5 DUP4 ADD PUSH1 0x1 PUSH1 0xFF NOT DUP3 SLOAD AND OR SWAP1 SSTORE PUSH1 0x2 SLOAD SWAP3 PUSH1 0x3 SLOAD SWAP5 PUSH1 0x2 DUP3 ADD SWAP2 DUP3 SLOAD PUSH2 0x1279 DUP9 DUP9 PUSH2 0x10CF JUMP JUMPDEST DUP2 LT PUSH2 0x149F JUMPI POP PUSH1 0x3 SWAP1 PUSH2 0x128E DUP8 DUP6 SLOAD PUSH2 0x11E0 JUMP JUMPDEST DUP5 SSTORE PUSH1 0x4 SWAP4 PUSH2 0x12A0 DUP9 DUP6 DUP8 SLOAD AND PUSH2 0x14DA JUMP JUMPDEST PUSH2 0x12AB DUP10 DUP3 SLOAD PUSH2 0x11E0 JUMP JUMPDEST SWAP1 SSTORE ADD DUP5 DUP2 SLOAD SWAP2 SSTORE DUP5 DUP3 PUSH1 0x5 SLOAD AND ISZERO ISZERO DUP1 PUSH2 0x1496 JUMPI JUMPDEST DUP1 PUSH2 0x148D JUMPI JUMPDEST ISZERO PUSH2 0x1461 JUMPI PUSH1 0x5 SLOAD DUP6 MLOAD PUSH4 0x95EA7B3 PUSH1 0xE0 SHL DUP2 MSTORE SWAP1 DUP5 AND PUSH1 0x1 PUSH1 0x1 PUSH1 0xA0 SHL SUB AND DUP6 DUP3 ADD SWAP1 DUP2 MSTORE PUSH1 0x20 DUP1 DUP3 ADD DUP6 SWAP1 MSTORE SWAP1 DUP3 SWAP1 PUSH1 0x40 SWAP1 DUP3 SWAP1 SUB ADD DUP2 DUP6 DUP15 GAS CALL DUP1 ISZERO PUSH2 0x1457 JUMPI PUSH2 0x1439 JUMPI JUMPDEST POP DUP3 PUSH1 0x5 SLOAD AND SWAP2 DUP4 DUP6 SLOAD AND SWAP3 PUSH2 0x258 TIMESTAMP ADD DUP1 TIMESTAMP GT PUSH2 0x1426 JUMPI DUP12 DUP12 PUSH1 0x60 SWAP5 SWAP4 PUSH1 0xC4 SWAP4 DUP12 MLOAD SWAP9 DUP10 SWAP7 DUP8 SWAP6 PUSH4 0xF305D719 PUSH1 0xE0 SHL DUP8 MSTORE DUP14 DUP8 ADD MSTORE PUSH1 0x24 DUP7 ADD MSTORE DUP9 PUSH1 0x44 DUP7 ADD MSTORE DUP9 PUSH1 0x64 DUP7 ADD MSTORE PUSH1 0x84 DUP6 ADD MSTORE PUSH1 0xA4 DUP5 ADD MSTORE GAS CALL SWAP1 SWAP2 DUP3 DUP3 PUSH2 0x13E2 JUMPI JUMPDEST POP POP SWAP2 PUSH1 0x0 DUP1 MLOAD PUSH1 0x20 PUSH2 0x158C DUP4 CODECOPY DUP2 MLOAD SWAP2 MSTORE SWAP8 SWAP7 SWAP6 SWAP4 SWAP2 PUSH2 0x13C3 SWAP6 SWAP4 ISZERO PUSH1 0x0 EQ PUSH2 0x13DB JUMPI POP PUSH2 0x139D DUP8 DUP3 DUP5 SLOAD AND PUSH2 0x14DA JUMP JUMPDEST SELFBALANCE SWAP1 DUP2 PUSH2 0x13C8 JUMPI JUMPDEST POP POP POP MLOAD SWAP4 DUP5 SWAP4 DUP5 PUSH1 0x40 SWAP2 SWAP5 SWAP4 SWAP3 PUSH1 0x60 DUP3 ADD SWAP6 DUP3 MSTORE PUSH1 0x20 DUP3 ADD MSTORE ADD MSTORE JUMP JUMPDEST SUB SWAP1 LOG2 JUMP JUMPDEST PUSH2 0x13D3 SWAP3 SLOAD AND PUSH2 0x14DA JUMP JUMPDEST CODESIZE DUP1 DUP1 PUSH2 0x13A5 JUMP JUMPDEST SWAP4 POP PUSH2 0x139D JUMP JUMPDEST SWAP1 SWAP2 SWAP3 POP PUSH1 0x60 DUP3 RETURNDATASIZE DUP3 GT PUSH2 0x141E JUMPI JUMPDEST DUP2 PUSH2 0x13FE PUSH1 0x60 SWAP4 DUP4 PUSH2 0x10F2 JUMP JUMPDEST DUP2 ADD SUB SLT PUSH2 0x840 JUMPI POP MLOAD SWAP1 DUP1 PUSH1 0x0 DUP1 MLOAD PUSH1 0x20 PUSH2 0x158C DUP4 CODECOPY DUP2 MLOAD SWAP2 MSTORE PUSH2 0x136B JUMP JUMPDEST RETURNDATASIZE SWAP2 POP PUSH2 0x13F1 JUMP JUMPDEST PUSH4 0x4E487B71 PUSH1 0xE0 SHL DUP5 MSTORE PUSH1 0x11 DUP8 MSTORE PUSH1 0x24 DUP5 REVERT JUMPDEST PUSH2 0x1450 SWAP1 PUSH1 0x20 RETURNDATASIZE DUP2 GT PUSH2 0x562 JUMPI PUSH2 0x554 DUP2 DUP4 PUSH2 0x10F2 JUMP JUMPDEST POP CODESIZE PUSH2 0x130F JUMP JUMPDEST DUP7 MLOAD RETURNDATASIZE DUP5 DUP3 RETURNDATACOPY RETURNDATASIZE SWAP1 REVERT JUMPDEST POP POP SWAP2 DUP2 DUP4 PUSH2 0x1488 DUP9 PUSH2 0x13C3 SWAP7 PUSH1 0x0 DUP1 MLOAD PUSH1 0x20 PUSH2 0x158C DUP4 CODECOPY DUP2 MLOAD SWAP2 MSTORE SWAP11 SWAP10 SWAP9 SWAP7 SLOAD AND PUSH2 0x14DA JUMP JUMPDEST PUSH2 0x139D JUMP JUMPDEST POP DUP8 ISZERO ISZERO PUSH2 0x12C7 JUMP JUMPDEST POP DUP2 ISZERO ISZERO PUSH2 0x12C1 JUMP JUMPDEST SWAP5 SWAP4 SWAP3 SWAP1 POP PUSH1 0x0 DUP1 MLOAD PUSH1 0x20 PUSH2 0x158C DUP4 CODECOPY DUP2 MLOAD SWAP2 MSTORE SWAP7 POP PUSH1 0x60 SWAP6 POP PUSH2 0x14C8 DUP6 DUP6 SWAP4 PUSH1 0x4 SLOAD AND PUSH2 0x14DA JUMP JUMPDEST SSTORE DUP1 MLOAD SWAP3 DUP4 MSTORE DUP2 PUSH1 0x20 DUP5 ADD MSTORE DUP3 ADD MSTORE LOG2 JUMP JUMPDEST DUP2 ISZERO PUSH2 0x1587 JUMPI PUSH1 0x0 DUP1 DUP1 DUP1 SWAP5 DUP2 SWAP5 PUSH1 0x1 DUP1 PUSH1 0xA0 SHL SUB AND GAS CALL SWAP1 RETURNDATASIZE ISZERO PUSH2 0x1581 JUMPI RETURNDATASIZE SWAP1 PUSH8 0xFFFFFFFFFFFFFFFF DUP3 GT PUSH2 0x156D JUMPI PUSH1 0x40 MLOAD SWAP2 PUSH2 0x1522 PUSH1 0x1F DUP3 ADD PUSH1 0x1F NOT AND PUSH1 0x20 ADD DUP5 PUSH2 0x10F2 JUMP JUMPDEST DUP3 MSTORE PUSH1 0x20 RETURNDATASIZE SWAP3 ADD RETURNDATACOPY JUMPDEST ISZERO PUSH2 0x1532 JUMPI JUMP JUMPDEST PUSH1 0x40 MLOAD PUSH3 0x461BCD PUSH1 0xE5 SHL DUP2 MSTORE PUSH1 0x20 PUSH1 0x4 DUP3 ADD MSTORE PUSH1 0x13 PUSH1 0x24 DUP3 ADD MSTORE PUSH19 0x109390881D1C985B9CD9995C8819985A5B1959 PUSH1 0x6A SHL PUSH1 0x44 DUP3 ADD MSTORE PUSH1 0x64 SWAP1 REVERT JUMPDEST PUSH4 0x4E487B71 PUSH1 0xE0 SHL DUP2 MSTORE PUSH1 0x41 PUSH1 0x4 MSTORE PUSH1 0x24 SWAP1 REVERT JUMPDEST POP PUSH2 0x152B JUMP JUMPDEST POP POP JUMP INVALID PUSH12 0x60D326D3C4023C7CB9B6755F 0xC3 BYTE RETURN 0xCF 0xBC 0xCD 0xEB SMOD 0xA7 0xA8 0xB4 0xD7 SWAP15 KECCAK256 0x1F PUSH20 0x2324EE9B779B17422D0DF92223018B32B4D1FA46 0xE0 PUSH18 0x723D6817E2486D003BECC55F00A264697066 PUSH20 0x5822122047C34920D16B5B2957B97B70B41489EC 0xED DUP3 PUSH15 0x7A1F7FAAE94D38F5948A36E2BC6473 PUSH16 0x6C634300081400330000000000000000 "},"methodIdentifiers":{"MAX_SUPPLY()":"32cb6b0c","MIGRATION_THRESHOLD()":"150ee883","PANCAKE_LP_SHARE()":"ec9d23e7","TREASURY_SHARE()":"32696174","authorizedFactories(address)":"ecd24a82","buy(address)":"f088d547","feeWallet()":"f25f4b56","getMigrationProgress(address)":"c8a1d06e","launchToken(address,address,uint256)":"751c5988","markets(address)":"8e8f294b","migrateToken(address)":"f96a6006","owner()":"8da5cb5b","pancakeRouter()":"c21ebd07","renounceOwnership()":"715018a6","sell(address,uint256)":"6c197ff5","setAuthorizedFactory(address,bool)":"5c85c588","setFeeWallet(address)":"90d49b9d","setMigrationThreshold(uint256,uint256,uint256)":"d7b46c61","setPancakeRouter(address)":"f8316c90","sweepAllBNB()":"c535c7ed","transferOwnership(address)":"f2fde38b"}}}}}