{"contracts/BondingCurve.sol":{"BondingCurve":{"abi":[{"inputs":[{"internalType":"address","name":"_owner","type":"address"},{"internalType":"address","name":"_feeWallet","type":"address"},{"internalType":"address","name":"_router","type":"address"}],"stateMutability":"nonpayable","type":"constructor"},{"inputs":[{"internalType":"address","name":"owner","type":"address"}],"name":"OwnableInvalidOwner","type":"error"},{"inputs":[{"internalType":"address","name":"account","type":"address"}],"name":"OwnableUnauthorizedAccount","type":"error"},{"inputs":[],"name":"ReentrancyGuardReentrantCall","type":"error"},{"anonymous":false,"inputs":[{"indexed":true,"internalType":"address","name":"to","type":"address"},{"indexed":false,"internalType":"uint256","name":"amount","type":"uint256"}],"name":"BNBSwept","type":"event"},{"anonymous":false,"inputs":[{"indexed":true,"internalType":"address","name":"token","type":"address"},{"indexed":true,"internalType":"address","name":"user","type":"address"},{"indexed":false,"internalType":"uint256","name":"bnbIn","type":"uint256"},{"indexed":false,"internalType":"uint256","name":"tokensOut","type":"uint256"}],"name":"Buy","type":"event"},{"anonymous":false,"inputs":[{"indexed":true,"internalType":"address","name":"factory","type":"address"},{"indexed":false,"internalType":"bool","name":"authorized","type":"bool"}],"name":"FactoryAuthorized","type":"event"},{"anonymous":false,"inputs":[{"indexed":true,"internalType":"address","name":"newFeeWallet","type":"address"}],"name":"FeeWalletSet","type":"event"},{"anonymous":false,"inputs":[{"indexed":true,"internalType":"address","name":"token","type":"address"},{"indexed":false,"internalType":"uint256","name":"bnbAmount","type":"uint256"}],"name":"FirstTradeTriggered","type":"event"},{"anonymous":false,"inputs":[{"indexed":true,"internalType":"address","name":"token","type":"address"},{"indexed":false,"internalType":"uint256","name":"bnbAmount","type":"uint256"},{"indexed":false,"internalType":"uint256","name":"tokenAmount","type":"uint256"}],"name":"LPInitialized","type":"event"},{"anonymous":false,"inputs":[{"indexed":true,"internalType":"address","name":"previousOwner","type":"address"},{"indexed":true,"internalType":"address","name":"newOwner","type":"address"}],"name":"OwnershipTransferred","type":"event"},{"anonymous":false,"inputs":[{"indexed":true,"internalType":"address","name":"newRouter","type":"address"}],"name":"RouterSet","type":"event"},{"anonymous":false,"inputs":[{"indexed":true,"internalType":"address","name":"token","type":"address"},{"indexed":true,"internalType":"address","name":"user","type":"address"},{"indexed":false,"internalType":"uint256","name":"tokensIn","type":"uint256"},{"indexed":false,"internalType":"uint256","name":"bnbOut","type":"uint256"}],"name":"Sell","type":"event"},{"anonymous":false,"inputs":[{"indexed":true,"internalType":"address","name":"token","type":"address"},{"indexed":true,"internalType":"address","name":"creator","type":"address"}],"name":"TokenLaunched","type":"event"},{"inputs":[],"name":"LP_INIT_THRESHOLD","outputs":[{"internalType":"uint256","name":"","type":"uint256"}],"stateMutability":"view","type":"function"},{"inputs":[],"name":"MAX_SUPPLY","outputs":[{"internalType":"uint256","name":"","type":"uint256"}],"stateMutability":"view","type":"function"},{"inputs":[{"internalType":"address","name":"","type":"address"}],"name":"authorizedFactories","outputs":[{"internalType":"bool","name":"","type":"bool"}],"stateMutability":"view","type":"function"},{"inputs":[{"internalType":"address","name":"token","type":"address"}],"name":"buy","outputs":[],"stateMutability":"payable","type":"function"},{"inputs":[],"name":"feeWallet","outputs":[{"internalType":"address","name":"","type":"address"}],"stateMutability":"view","type":"function"},{"inputs":[{"internalType":"address","name":"token","type":"address"},{"internalType":"address","name":"creator","type":"address"},{"internalType":"uint256","name":"_virtualBnb","type":"uint256"}],"name":"launchToken","outputs":[],"stateMutability":"nonpayable","type":"function"},{"inputs":[{"internalType":"address","name":"","type":"address"}],"name":"markets","outputs":[{"internalType":"address","name":"token","type":"address"},{"internalType":"address","name":"creator","type":"address"},{"internalType":"uint256","name":"bnbReserve","type":"uint256"},{"internalType":"uint256","name":"tokenReserve","type":"uint256"},{"internalType":"uint256","name":"virtualBnb","type":"uint256"},{"internalType":"bool","name":"lpInitialized","type":"bool"},{"internalType":"bool","name":"migrated","type":"bool"}],"stateMutability":"view","type":"function"},{"inputs":[],"name":"owner","outputs":[{"internalType":"address","name":"","type":"address"}],"stateMutability":"view","type":"function"},{"inputs":[],"name":"pancakeRouter","outputs":[{"internalType":"contract IPancakeRouter","name":"","type":"address"}],"stateMutability":"view","type":"function"},{"inputs":[],"name":"renounceOwnership","outputs":[],"stateMutability":"nonpayable","type":"function"},{"inputs":[{"internalType":"address","name":"token","type":"address"},{"internalType":"uint256","name":"amount","type":"uint256"}],"name":"sell","outputs":[],"stateMutability":"nonpayable","type":"function"},{"inputs":[{"internalType":"address","name":"factory","type":"address"},{"internalType":"bool","name":"authorized","type":"bool"}],"name":"setAuthorizedFactory","outputs":[],"stateMutability":"nonpayable","type":"function"},{"inputs":[{"internalType":"address","name":"_feeWallet","type":"address"}],"name":"setFeeWallet","outputs":[],"stateMutability":"nonpayable","type":"function"},{"inputs":[{"internalType":"address","name":"_router","type":"address"}],"name":"setPancakeRouter","outputs":[],"stateMutability":"nonpayable","type":"function"},{"inputs":[],"name":"sweepAllBNB","outputs":[],"stateMutability":"nonpayable","type":"function"},{"inputs":[{"internalType":"address","name":"newOwner","type":"address"}],"name":"transferOwnership","outputs":[],"stateMutability":"nonpayable","type":"function"},{"stateMutability":"payable","type":"receive"}],"evm":{"bytecode":{"linkReferences":{},"object":"6080346200016d57601f620016dc38819003918201601f19168301916001600160401b0383118484101762000172578084926060946040528339810103126200016d576200004d8162000188565b620000696040620000616020850162000188565b930162000188565b6001600160a01b039182169283156200015457826000549160018060a01b03199580878516176000558260405194167f8be0079c531659141344cd1fd0a4f28419497f9722a3daafe3b4186f6b6457e0600080a360017f9b779b17422d0df92223018b32b4d1fa46e071723d6817e2486d003becc55f0055169081156200011d57508360015416176001551690816200010d575b60405161153e90816200019e8239f35b60025416176002553880620000fd565b62461bcd60e51b8152602060048201526012602482015271125b9d985b1a5908199959481dd85b1b195d60721b6044820152606490fd5b604051631e4fbdf760e01b815260006004820152602490fd5b600080fd5b634e487b7160e01b600052604160045260246000fd5b51906001600160a01b03821682036200016d5756fe6080604081815260049182361015610022575b505050361561002057600080fd5b005b600092833560e01c91826332cb6b0c14610e48575081635c85c58814610dbf5781636c197ff514610b6a578163715018a614610b0d578163751c5988146108a15781638da5cb5b146108795781638e8f294b146107f157816390d49b9d1461074b578163c21ebd0714610722578163c535c7ed14610628578163ecd24a82146105eb578163f088d5471461025c578163f25f4b5614610233578163f2fde38b146101ac578163f8316c9014610106575063fb7f9787146100e25780610012565b3461010257816003193601126101025760209051662386f26fc100008152f35b5080fd5b9050346101a85760203660031901126101a857610121610e6e565b610129610e89565b6001600160a01b0316918215610174575050600280546001600160a01b031916821790557fc6b438e6a8a59579ce6a4406cbd203b740e0d47b458aae6596339bcd40c40d158280a280f35b906020606492519162461bcd60e51b8352820152600e60248201526d24b73b30b634b2103937baba32b960911b6044820152fd5b8280fd5b9050346101a85760203660031901126101a8576101c7610e6e565b906101d0610e89565b6001600160a01b0391821692831561021d57505082546001600160a01b0319811683178455167f8be0079c531659141344cd1fd0a4f28419497f9722a3daafe3b4186f6b6457e08380a380f35b51631e4fbdf760e01b8152908101849052602490fd5b50503461010257816003193601126101025760015490516001600160a01b039091168152602090f35b91905060203660031901126101a857610273610e6e565b61027b610fe4565b6001600160a01b0381811680865260036020528386208054919490916102a49084161515610eed565b6102b860ff600584015460081c1615610f2c565b34156105be578260015416803314908115610590575b50156105655786945b6102e18634610fb2565b91878401549460028501986102f88a548098610fbf565b600387019761031d895492610317896103118682610f69565b92610fbf565b90610f92565b96871561052f57603c8c028c8104603c148d15171561051c57906064899392049c8d61034891610fb2565b61035191610fbf565b61035a91610fbf565b8c5561036591610fb2565b8755338b5280602052828b205460ff168061050d575b156105065781600187015416905b835163a9059cbb60e01b81526001600160a01b03831682820190815260208181018990529082908f908290819060400103918a5af19081156104fc578d916104cd575b501561049857508260ff9694927f89f5adc174562e07c9c9b1cae7109bbecb21cf9d1b2847e550042b8653c54a0e9260059795519534875260208701521693a3015416801580610486575b1561043d5750506104289250611014565b60016000805160206114e98339815191525580f35b9192918061047d575b610454575b50505050610428565b6104749361046661046e925484610f69565b905490610f92565b916110c9565b3880808061044b565b50811515610446565b50662386f26fc1000085541015610417565b606490602085519162461bcd60e51b8352820152600f60248201526e151c985b9cd9995c8819985a5b1959608a1b6044820152fd5b6104ef915060203d6020116104f5575b6104e78183610eb5565b810190610fcc565b386103cc565b503d6104dd565b85513d8f823e3d90fd5b3390610389565b5081600187015416151561037b565b634e487b7160e01b8f526011855260248ffd5b855162461bcd60e51b8152602081860152601060248201526f105b5bdd5b9d081d1bdbc81cdb585b1b60821b6044820152606490fd5b6005340234810460050361057d5760649004946102d7565b634e487b7160e01b885260118752602488fd5b90503388528660205260ff828920541690816105ae575b50386102ce565b90508360018401541614386105a7565b5162461bcd60e51b8152602081870152600860248201526729b2b7321021272160c11b6044820152606490fd5b9050346101a85760203660031901126101a85760209260ff918391906001600160a01b03610617610e6e565b168252855220541690519015158152f35b9050346101a857826003193601126101a857610642610fe4565b6001546001600160a01b039081163381148015610716575b156106e257479283156106b6575091602091610697827fdbd1ea0ad8c379019b5744f70c9e46e13d61d8786de9583dd63d1732fa3b824f9561143b565b600154169351908152a260016000805160206114e98339815191525580f35b606490602086519162461bcd60e51b8352820152600660248201526527379021272160d11b6044820152fd5b835162461bcd60e51b8152602081850152600e60248201526d139bdd08105d5d1a1bdc9a5e995960921b6044820152606490fd5b5081855416331461065a565b50503461010257816003193601126101025760025490516001600160a01b039091168152602090f35b9050346101a85760203660031901126101a857610766610e6e565b61076e610e89565b6001600160a01b03169182156107b9575050600180546001600160a01b031916821790557f0439162378682c6392215882cf21e973f49063ed3530a31d763835a2e9f6d17e8280a280f35b906020606492519162461bcd60e51b83528201526012602482015271125b9d985b1a5908199959481dd85b1b195d60721b6044820152fd5b9050346101a85760203660031901126101a85760e0926001600160a01b039260ff929091829085610820610e6e565b168152600360205220908482541694600183015416926002830154906005600385015493850154940154948151978852602088015286015260608501526080840152818116151560a084015260081c16151560c0820152f35b505034610102578160031936011261010257905490516001600160a01b039091168152602090f35b83915034610102576060366003190112610102576108bd610e6e565b6001600160a01b039360243585811693929190849003610b09576044359233865260209281845260ff83882054168015610afd575b15610ac25787169384875260038452878388205416610a8d5782516370a0823160e01b81523083820152908482602481895afa918215610a83578892610a50575b508015610a4057905b83519360e0850199858b1067ffffffffffffffff8c1117610a2d57899a829a9798999a52888652878601908a82528083880193898552606089019586526080890196875260a089019a8a8c528c60c08b019b808d5252600390528d20975116906bffffffffffffffffffffffff60a01b918289541617885560018801925116908254161790555160028501555160038401555190820155600501915115156109f090839060ff801983541691151516179055565b51151581549060081b61ff00169061ff0019161790557fab3e0ae7b7d4c37d3539a4f3e3ac856a540af410acce171c797bbf88c1853b2d8380a380f35b634e487b7160e01b8a526041855260248afd5b506706f05b59d3b200009061093c565b9091508481813d8311610a7c575b610a688183610eb5565b81010312610a7857519089610933565b8780fd5b503d610a5e565b84513d8a823e3d90fd5b5082606492519162461bcd60e51b8352820152601060248201526f105b1c9958591e481b185d5b98da195960821b6044820152fd5b5082606492519162461bcd60e51b835282015260166024820152754e6f7420617574686f72697a656420666163746f727960501b6044820152fd5b508787541633146108f2565b8480fd5b8334610b675780600319360112610b6757610b26610e89565b80546001600160a01b03198116825581906001600160a01b03167f8be0079c531659141344cd1fd0a4f28419497f9722a3daafe3b4186f6b6457e08280a380f35b80fd5b838334610102578060031936011261010257610b84610e6e565b60243591610b90610fe4565b60018060a01b038092169182855260206003815282862091610bb6818454161515610eed565b610bca60ff600585015460081c1615610f2c565b8515610d8b5783516323b872dd60e01b815233898201523060248201526044810187905282816064818b8a5af1908115610d81578891610d64575b5015610d31578783015492610c548760028301926003610c30610c2a8654809a610fbf565b84610f69565b910193610c4d610c468654936103178686610fbf565b8099610fb2565b9055610fbf565b90556001541696338803610cd75750610ca786977fa082022e93cfcd9f1da5f9236718053910f7e840da080c789c7845698dc032ff959697905b610c988286610fb2565b9180610cc7575b50503361143b565b82519586528501523393a360016000805160206114e98339815191525580f35b610cd09161143b565b8980610c9f565b966005830283810460051484151715610d1e577fa082022e93cfcd9f1da5f9236718053910f7e840da080c789c7845698dc032ff9596979850906064610ca7920490610c8e565b634e487b7160e01b885260118952602488fd5b835162461bcd60e51b8152808901839052600d60248201526c151c985b9cd9995c8819985a5b609a1b6044820152606490fd5b610d7b9150833d85116104f5576104e78183610eb5565b89610c05565b85513d8a823e3d90fd5b835162461bcd60e51b8152808901839052600e60248201526d125b9d985b1a5908185b5bdd5b9d60921b6044820152606490fd5b919050346101a857806003193601126101a857610dda610e6e565b906024359081151590818303610e4457610e3c6020937f6b489c12f59a99312ab950fddabe529a090208050382df653584944ea5f78b3595610e1a610e89565b60018060a01b03169687895285528288209060ff801983541691151516179055565b51908152a280f35b8580fd5b849034610102578160031936011261010257806b033b2e3c9fd0803ce800000060209252f35b600435906001600160a01b0382168203610e8457565b600080fd5b6000546001600160a01b03163303610e9d57565b60405163118cdaa760e01b8152336004820152602490fd5b90601f8019910116810190811067ffffffffffffffff821117610ed757604052565b634e487b7160e01b600052604160045260246000fd5b15610ef457565b60405162461bcd60e51b815260206004820152601060248201526f13585c9ad95d081b9bdd08199bdd5b9960821b6044820152606490fd5b15610f3357565b60405162461bcd60e51b815260206004820152600e60248201526d151bdad95b881b5a59dc985d195960921b6044820152606490fd5b81810292918115918404141715610f7c57565b634e487b7160e01b600052601160045260246000fd5b8115610f9c570490565b634e487b7160e01b600052601260045260246000fd5b91908203918211610f7c57565b91908201809211610f7c57565b90816020910312610e8457518015158103610e845790565b6000805160206114e983398151915260028154146110025760029055565b604051633ee5aeb560e01b8152600490fd5b6001600160a01b038116600081815260036020526040902060058101805460ff191660011790559280156110c35760407fa05918f619b9fd8cc60e9c88369c0f4eb9a949f105763aaa10a638ffcbe36857918560036110b9970161108981549260026110808587610f69565b91015490610f92565b918281106110bb575b8261109c91610fb2565b90556110a98183886110c9565b82519182526020820152a2611201565b565b915081611092565b50505050565b6002546001600160a01b039390841691821580156111f9575b80156111f1575b6111ea5760405163095ea7b360e01b81526001600160a01b03939093166004840152602483018290528416916000919060208160448186885af180156111df5790606092916111c1575b5060c486600254169486886001541696604051978895869463f305d71960e01b86526004860152602485015287604485015287606485015260848401524260a48401525af19182611196575b5050611192576110b9916001541661143b565b5050565b606090813d81116111ba575b6111ac8183610eb5565b81010312610b67578061117f565b503d6111a2565b6111d89060203d81116104f5576104e78183610eb5565b5038611133565b6040513d85823e3d90fd5b5050505050565b5081156110e9565b5083156110e2565b6002546001600160a01b0390811690811561143657662386f26fc100008047106110c357604092835192606084019167ffffffffffffffff9285811084821117610ed757865260028552602094858101908736833787516315ab88c960e31b81528781600481875afa90811561142b576000916113f5575b508151156113df57841682528051986001998a10156113df57841688820181905289548951637ff36ab560e01b815260006004820181905260806024830152935160848201819052929b909660a4880196889690958b95948316949193925b8d8383106113c25750505050505090836000958193604483015242606483015203925af1918261133f575b505061130f5750505050565b7f54bdeb371131dfff66ad7d753cf798ce165aa0451a4ee488a7abd7646c4eb1409251908152a2388080806110c3565b3d806000843e61134f8184610eb5565b8201918581840312610e8457805190828211610e84570182601f82011215610e84578051918211610ed75785808360051b9389519061139083870183610eb5565b81520192820101928311610e845785809101915b8383106113b2575050611303565b82518152918101918691016113a4565b855182168b52998a01998b99508d975090940193908301906112d8565b634e487b7160e01b600052603260045260246000fd5b8881813d8311611424575b61140a8183610eb5565b810103126101025751908582168203610b67575038611279565b503d611400565b89513d6000823e3d90fd5b505050565b811561119257600080808094819460018060a01b03165af1903d156114e2573d9067ffffffffffffffff82116114ce5760405191611483601f8201601f191660200184610eb5565b825260203d92013e5b1561149357565b60405162461bcd60e51b8152602060048201526013602482015272109390881d1c985b9cd9995c8819985a5b1959606a1b6044820152606490fd5b634e487b7160e01b81526041600452602490fd5b5061148c56fe9b779b17422d0df92223018b32b4d1fa46e071723d6817e2486d003becc55f00a264697066735822122000e0a9383fad636e5fe0e9f240d2b0c601aae1ae0022e1afe440b30eb9745e8264736f6c63430008140033","opcodes":"PUSH1 0x80 CALLVALUE PUSH3 0x16D JUMPI PUSH1 0x1F PUSH3 0x16DC CODESIZE DUP2 SWAP1 SUB SWAP2 DUP3 ADD PUSH1 0x1F NOT AND DUP4 ADD SWAP2 PUSH1 0x1 PUSH1 0x1 PUSH1 0x40 SHL SUB DUP4 GT DUP5 DUP5 LT OR PUSH3 0x172 JUMPI DUP1 DUP5 SWAP3 PUSH1 0x60 SWAP5 PUSH1 0x40 MSTORE DUP4 CODECOPY DUP2 ADD SUB SLT PUSH3 0x16D JUMPI PUSH3 0x4D DUP2 PUSH3 0x188 JUMP JUMPDEST PUSH3 0x69 PUSH1 0x40 PUSH3 0x61 PUSH1 0x20 DUP6 ADD PUSH3 0x188 JUMP JUMPDEST SWAP4 ADD PUSH3 0x188 JUMP JUMPDEST PUSH1 0x1 PUSH1 0x1 PUSH1 0xA0 SHL SUB SWAP2 DUP3 AND SWAP3 DUP4 ISZERO PUSH3 0x154 JUMPI DUP3 PUSH1 0x0 SLOAD SWAP2 PUSH1 0x1 DUP1 PUSH1 0xA0 SHL SUB NOT SWAP6 DUP1 DUP8 DUP6 AND OR PUSH1 0x0 SSTORE DUP3 PUSH1 0x40 MLOAD SWAP5 AND PUSH32 0x8BE0079C531659141344CD1FD0A4F28419497F9722A3DAAFE3B4186F6B6457E0 PUSH1 0x0 DUP1 LOG3 PUSH1 0x1 PUSH32 0x9B779B17422D0DF92223018B32B4D1FA46E071723D6817E2486D003BECC55F00 SSTORE AND SWAP1 DUP2 ISZERO PUSH3 0x11D JUMPI POP DUP4 PUSH1 0x1 SLOAD AND OR PUSH1 0x1 SSTORE AND SWAP1 DUP2 PUSH3 0x10D JUMPI JUMPDEST PUSH1 0x40 MLOAD PUSH2 0x153E SWAP1 DUP2 PUSH3 0x19E DUP3 CODECOPY RETURN JUMPDEST PUSH1 0x2 SLOAD AND OR PUSH1 0x2 SSTORE CODESIZE DUP1 PUSH3 0xFD JUMP JUMPDEST PUSH3 0x461BCD PUSH1 0xE5 SHL DUP2 MSTORE PUSH1 0x20 PUSH1 0x4 DUP3 ADD MSTORE PUSH1 0x12 PUSH1 0x24 DUP3 ADD MSTORE PUSH18 0x125B9D985B1A5908199959481DD85B1B195D PUSH1 0x72 SHL PUSH1 0x44 DUP3 ADD MSTORE PUSH1 0x64 SWAP1 REVERT JUMPDEST PUSH1 0x40 MLOAD PUSH4 0x1E4FBDF7 PUSH1 0xE0 SHL DUP2 MSTORE PUSH1 0x0 PUSH1 0x4 DUP3 ADD MSTORE PUSH1 0x24 SWAP1 REVERT JUMPDEST PUSH1 0x0 DUP1 REVERT JUMPDEST PUSH4 0x4E487B71 PUSH1 0xE0 SHL PUSH1 0x0 MSTORE PUSH1 0x41 PUSH1 0x4 MSTORE PUSH1 0x24 PUSH1 0x0 REVERT JUMPDEST MLOAD SWAP1 PUSH1 0x1 PUSH1 0x1 PUSH1 0xA0 SHL SUB DUP3 AND DUP3 SUB PUSH3 0x16D JUMPI JUMP INVALID PUSH1 0x80 PUSH1 0x40 DUP2 DUP2 MSTORE PUSH1 0x4 SWAP2 DUP3 CALLDATASIZE LT ISZERO PUSH2 0x22 JUMPI JUMPDEST POP POP POP CALLDATASIZE ISZERO PUSH2 0x20 JUMPI PUSH1 0x0 DUP1 REVERT JUMPDEST STOP JUMPDEST PUSH1 0x0 SWAP3 DUP4 CALLDATALOAD PUSH1 0xE0 SHR SWAP2 DUP3 PUSH4 0x32CB6B0C EQ PUSH2 0xE48 JUMPI POP DUP2 PUSH4 0x5C85C588 EQ PUSH2 0xDBF JUMPI DUP2 PUSH4 0x6C197FF5 EQ PUSH2 0xB6A JUMPI DUP2 PUSH4 0x715018A6 EQ PUSH2 0xB0D JUMPI DUP2 PUSH4 0x751C5988 EQ PUSH2 0x8A1 JUMPI DUP2 PUSH4 0x8DA5CB5B EQ PUSH2 0x879 JUMPI DUP2 PUSH4 0x8E8F294B EQ PUSH2 0x7F1 JUMPI DUP2 PUSH4 0x90D49B9D EQ PUSH2 0x74B JUMPI DUP2 PUSH4 0xC21EBD07 EQ PUSH2 0x722 JUMPI DUP2 PUSH4 0xC535C7ED EQ PUSH2 0x628 JUMPI DUP2 PUSH4 0xECD24A82 EQ PUSH2 0x5EB JUMPI DUP2 PUSH4 0xF088D547 EQ PUSH2 0x25C JUMPI DUP2 PUSH4 0xF25F4B56 EQ PUSH2 0x233 JUMPI DUP2 PUSH4 0xF2FDE38B EQ PUSH2 0x1AC JUMPI DUP2 PUSH4 0xF8316C90 EQ PUSH2 0x106 JUMPI POP PUSH4 0xFB7F9787 EQ PUSH2 0xE2 JUMPI DUP1 PUSH2 0x12 JUMP JUMPDEST CALLVALUE PUSH2 0x102 JUMPI DUP2 PUSH1 0x3 NOT CALLDATASIZE ADD SLT PUSH2 0x102 JUMPI PUSH1 0x20 SWAP1 MLOAD PUSH7 0x2386F26FC10000 DUP2 MSTORE RETURN JUMPDEST POP DUP1 REVERT JUMPDEST SWAP1 POP CALLVALUE PUSH2 0x1A8 JUMPI PUSH1 0x20 CALLDATASIZE PUSH1 0x3 NOT ADD SLT PUSH2 0x1A8 JUMPI PUSH2 0x121 PUSH2 0xE6E JUMP JUMPDEST PUSH2 0x129 PUSH2 0xE89 JUMP JUMPDEST PUSH1 0x1 PUSH1 0x1 PUSH1 0xA0 SHL SUB AND SWAP2 DUP3 ISZERO PUSH2 0x174 JUMPI POP POP PUSH1 0x2 DUP1 SLOAD PUSH1 0x1 PUSH1 0x1 PUSH1 0xA0 SHL SUB NOT AND DUP3 OR SWAP1 SSTORE PUSH32 0xC6B438E6A8A59579CE6A4406CBD203B740E0D47B458AAE6596339BCD40C40D15 DUP3 DUP1 LOG2 DUP1 RETURN JUMPDEST SWAP1 PUSH1 0x20 PUSH1 0x64 SWAP3 MLOAD SWAP2 PUSH3 0x461BCD PUSH1 0xE5 SHL DUP4 MSTORE DUP3 ADD MSTORE PUSH1 0xE PUSH1 0x24 DUP3 ADD MSTORE PUSH14 0x24B73B30B634B2103937BABA32B9 PUSH1 0x91 SHL PUSH1 0x44 DUP3 ADD MSTORE REVERT JUMPDEST DUP3 DUP1 REVERT JUMPDEST SWAP1 POP CALLVALUE PUSH2 0x1A8 JUMPI PUSH1 0x20 CALLDATASIZE PUSH1 0x3 NOT ADD SLT PUSH2 0x1A8 JUMPI PUSH2 0x1C7 PUSH2 0xE6E JUMP JUMPDEST SWAP1 PUSH2 0x1D0 PUSH2 0xE89 JUMP JUMPDEST PUSH1 0x1 PUSH1 0x1 PUSH1 0xA0 SHL SUB SWAP2 DUP3 AND SWAP3 DUP4 ISZERO PUSH2 0x21D JUMPI POP POP DUP3 SLOAD PUSH1 0x1 PUSH1 0x1 PUSH1 0xA0 SHL SUB NOT DUP2 AND DUP4 OR DUP5 SSTORE AND PUSH32 0x8BE0079C531659141344CD1FD0A4F28419497F9722A3DAAFE3B4186F6B6457E0 DUP4 DUP1 LOG3 DUP1 RETURN JUMPDEST MLOAD PUSH4 0x1E4FBDF7 PUSH1 0xE0 SHL DUP2 MSTORE SWAP1 DUP2 ADD DUP5 SWAP1 MSTORE PUSH1 0x24 SWAP1 REVERT JUMPDEST POP POP CALLVALUE PUSH2 0x102 JUMPI DUP2 PUSH1 0x3 NOT CALLDATASIZE ADD SLT PUSH2 0x102 JUMPI PUSH1 0x1 SLOAD SWAP1 MLOAD PUSH1 0x1 PUSH1 0x1 PUSH1 0xA0 SHL SUB SWAP1 SWAP2 AND DUP2 MSTORE PUSH1 0x20 SWAP1 RETURN JUMPDEST SWAP2 SWAP1 POP PUSH1 0x20 CALLDATASIZE PUSH1 0x3 NOT ADD SLT PUSH2 0x1A8 JUMPI PUSH2 0x273 PUSH2 0xE6E JUMP JUMPDEST PUSH2 0x27B PUSH2 0xFE4 JUMP JUMPDEST PUSH1 0x1 PUSH1 0x1 PUSH1 0xA0 SHL SUB DUP2 DUP2 AND DUP1 DUP7 MSTORE PUSH1 0x3 PUSH1 0x20 MSTORE DUP4 DUP7 KECCAK256 DUP1 SLOAD SWAP2 SWAP5 SWAP1 SWAP2 PUSH2 0x2A4 SWAP1 DUP5 AND ISZERO ISZERO PUSH2 0xEED JUMP JUMPDEST PUSH2 0x2B8 PUSH1 0xFF PUSH1 0x5 DUP5 ADD SLOAD PUSH1 0x8 SHR AND ISZERO PUSH2 0xF2C JUMP JUMPDEST CALLVALUE ISZERO PUSH2 0x5BE JUMPI DUP3 PUSH1 0x1 SLOAD AND DUP1 CALLER EQ SWAP1 DUP2 ISZERO PUSH2 0x590 JUMPI JUMPDEST POP ISZERO PUSH2 0x565 JUMPI DUP7 SWAP5 JUMPDEST PUSH2 0x2E1 DUP7 CALLVALUE PUSH2 0xFB2 JUMP JUMPDEST SWAP2 DUP8 DUP5 ADD SLOAD SWAP5 PUSH1 0x2 DUP6 ADD SWAP9 PUSH2 0x2F8 DUP11 SLOAD DUP1 SWAP9 PUSH2 0xFBF JUMP JUMPDEST PUSH1 0x3 DUP8 ADD SWAP8 PUSH2 0x31D DUP10 SLOAD SWAP3 PUSH2 0x317 DUP10 PUSH2 0x311 DUP7 DUP3 PUSH2 0xF69 JUMP JUMPDEST SWAP3 PUSH2 0xFBF JUMP JUMPDEST SWAP1 PUSH2 0xF92 JUMP JUMPDEST SWAP7 DUP8 ISZERO PUSH2 0x52F JUMPI PUSH1 0x3C DUP13 MUL DUP13 DUP2 DIV PUSH1 0x3C EQ DUP14 ISZERO OR ISZERO PUSH2 0x51C JUMPI SWAP1 PUSH1 0x64 DUP10 SWAP4 SWAP3 DIV SWAP13 DUP14 PUSH2 0x348 SWAP2 PUSH2 0xFB2 JUMP JUMPDEST PUSH2 0x351 SWAP2 PUSH2 0xFBF JUMP JUMPDEST PUSH2 0x35A SWAP2 PUSH2 0xFBF JUMP JUMPDEST DUP13 SSTORE PUSH2 0x365 SWAP2 PUSH2 0xFB2 JUMP JUMPDEST DUP8 SSTORE CALLER DUP12 MSTORE DUP1 PUSH1 0x20 MSTORE DUP3 DUP12 KECCAK256 SLOAD PUSH1 0xFF AND DUP1 PUSH2 0x50D JUMPI JUMPDEST ISZERO PUSH2 0x506 JUMPI DUP2 PUSH1 0x1 DUP8 ADD SLOAD AND SWAP1 JUMPDEST DUP4 MLOAD PUSH4 0xA9059CBB PUSH1 0xE0 SHL DUP2 MSTORE PUSH1 0x1 PUSH1 0x1 PUSH1 0xA0 SHL SUB DUP4 AND DUP3 DUP3 ADD SWAP1 DUP2 MSTORE PUSH1 0x20 DUP2 DUP2 ADD DUP10 SWAP1 MSTORE SWAP1 DUP3 SWAP1 DUP16 SWAP1 DUP3 SWAP1 DUP2 SWAP1 PUSH1 0x40 ADD SUB SWAP2 DUP11 GAS CALL SWAP1 DUP2 ISZERO PUSH2 0x4FC JUMPI DUP14 SWAP2 PUSH2 0x4CD JUMPI JUMPDEST POP ISZERO PUSH2 0x498 JUMPI POP DUP3 PUSH1 0xFF SWAP7 SWAP5 SWAP3 PUSH32 0x89F5ADC174562E07C9C9B1CAE7109BBECB21CF9D1B2847E550042B8653C54A0E SWAP3 PUSH1 0x5 SWAP8 SWAP6 MLOAD SWAP6 CALLVALUE DUP8 MSTORE PUSH1 0x20 DUP8 ADD MSTORE AND SWAP4 LOG3 ADD SLOAD AND DUP1 ISZERO DUP1 PUSH2 0x486 JUMPI JUMPDEST ISZERO PUSH2 0x43D JUMPI POP POP PUSH2 0x428 SWAP3 POP PUSH2 0x1014 JUMP JUMPDEST PUSH1 0x1 PUSH1 0x0 DUP1 MLOAD PUSH1 0x20 PUSH2 0x14E9 DUP4 CODECOPY DUP2 MLOAD SWAP2 MSTORE SSTORE DUP1 RETURN JUMPDEST SWAP2 SWAP3 SWAP2 DUP1 PUSH2 0x47D JUMPI JUMPDEST PUSH2 0x454 JUMPI JUMPDEST POP POP POP POP PUSH2 0x428 JUMP JUMPDEST PUSH2 0x474 SWAP4 PUSH2 0x466 PUSH2 0x46E SWAP3 SLOAD DUP5 PUSH2 0xF69 JUMP JUMPDEST SWAP1 SLOAD SWAP1 PUSH2 0xF92 JUMP JUMPDEST SWAP2 PUSH2 0x10C9 JUMP JUMPDEST CODESIZE DUP1 DUP1 DUP1 PUSH2 0x44B JUMP JUMPDEST POP DUP2 ISZERO ISZERO PUSH2 0x446 JUMP JUMPDEST POP PUSH7 0x2386F26FC10000 DUP6 SLOAD LT ISZERO PUSH2 0x417 JUMP JUMPDEST PUSH1 0x64 SWAP1 PUSH1 0x20 DUP6 MLOAD SWAP2 PUSH3 0x461BCD PUSH1 0xE5 SHL DUP4 MSTORE DUP3 ADD MSTORE PUSH1 0xF PUSH1 0x24 DUP3 ADD MSTORE PUSH15 0x151C985B9CD9995C8819985A5B1959 PUSH1 0x8A SHL PUSH1 0x44 DUP3 ADD MSTORE REVERT JUMPDEST PUSH2 0x4EF SWAP2 POP PUSH1 0x20 RETURNDATASIZE PUSH1 0x20 GT PUSH2 0x4F5 JUMPI JUMPDEST PUSH2 0x4E7 DUP2 DUP4 PUSH2 0xEB5 JUMP JUMPDEST DUP2 ADD SWAP1 PUSH2 0xFCC JUMP JUMPDEST CODESIZE PUSH2 0x3CC JUMP JUMPDEST POP RETURNDATASIZE PUSH2 0x4DD JUMP JUMPDEST DUP6 MLOAD RETURNDATASIZE DUP16 DUP3 RETURNDATACOPY RETURNDATASIZE SWAP1 REVERT JUMPDEST CALLER SWAP1 PUSH2 0x389 JUMP JUMPDEST POP DUP2 PUSH1 0x1 DUP8 ADD SLOAD AND ISZERO ISZERO PUSH2 0x37B JUMP JUMPDEST PUSH4 0x4E487B71 PUSH1 0xE0 SHL DUP16 MSTORE PUSH1 0x11 DUP6 MSTORE PUSH1 0x24 DUP16 REVERT JUMPDEST DUP6 MLOAD PUSH3 0x461BCD PUSH1 0xE5 SHL DUP2 MSTORE PUSH1 0x20 DUP2 DUP7 ADD MSTORE PUSH1 0x10 PUSH1 0x24 DUP3 ADD MSTORE PUSH16 0x105B5BDD5B9D081D1BDBC81CDB585B1B PUSH1 0x82 SHL PUSH1 0x44 DUP3 ADD MSTORE PUSH1 0x64 SWAP1 REVERT JUMPDEST PUSH1 0x5 CALLVALUE MUL CALLVALUE DUP2 DIV PUSH1 0x5 SUB PUSH2 0x57D JUMPI PUSH1 0x64 SWAP1 DIV SWAP5 PUSH2 0x2D7 JUMP JUMPDEST PUSH4 0x4E487B71 PUSH1 0xE0 SHL DUP9 MSTORE PUSH1 0x11 DUP8 MSTORE PUSH1 0x24 DUP9 REVERT JUMPDEST SWAP1 POP CALLER DUP9 MSTORE DUP7 PUSH1 0x20 MSTORE PUSH1 0xFF DUP3 DUP10 KECCAK256 SLOAD AND SWAP1 DUP2 PUSH2 0x5AE JUMPI JUMPDEST POP CODESIZE PUSH2 0x2CE JUMP JUMPDEST SWAP1 POP DUP4 PUSH1 0x1 DUP5 ADD SLOAD AND EQ CODESIZE PUSH2 0x5A7 JUMP JUMPDEST MLOAD PUSH3 0x461BCD PUSH1 0xE5 SHL DUP2 MSTORE PUSH1 0x20 DUP2 DUP8 ADD MSTORE PUSH1 0x8 PUSH1 0x24 DUP3 ADD MSTORE PUSH8 0x29B2B73210212721 PUSH1 0xC1 SHL PUSH1 0x44 DUP3 ADD MSTORE PUSH1 0x64 SWAP1 REVERT JUMPDEST SWAP1 POP CALLVALUE PUSH2 0x1A8 JUMPI PUSH1 0x20 CALLDATASIZE PUSH1 0x3 NOT ADD SLT PUSH2 0x1A8 JUMPI PUSH1 0x20 SWAP3 PUSH1 0xFF SWAP2 DUP4 SWAP2 SWAP1 PUSH1 0x1 PUSH1 0x1 PUSH1 0xA0 SHL SUB PUSH2 0x617 PUSH2 0xE6E JUMP JUMPDEST AND DUP3 MSTORE DUP6 MSTORE KECCAK256 SLOAD AND SWAP1 MLOAD SWAP1 ISZERO ISZERO DUP2 MSTORE RETURN JUMPDEST SWAP1 POP CALLVALUE PUSH2 0x1A8 JUMPI DUP3 PUSH1 0x3 NOT CALLDATASIZE ADD SLT PUSH2 0x1A8 JUMPI PUSH2 0x642 PUSH2 0xFE4 JUMP JUMPDEST PUSH1 0x1 SLOAD PUSH1 0x1 PUSH1 0x1 PUSH1 0xA0 SHL SUB SWAP1 DUP2 AND CALLER DUP2 EQ DUP1 ISZERO PUSH2 0x716 JUMPI JUMPDEST ISZERO PUSH2 0x6E2 JUMPI SELFBALANCE SWAP3 DUP4 ISZERO PUSH2 0x6B6 JUMPI POP SWAP2 PUSH1 0x20 SWAP2 PUSH2 0x697 DUP3 PUSH32 0xDBD1EA0AD8C379019B5744F70C9E46E13D61D8786DE9583DD63D1732FA3B824F SWAP6 PUSH2 0x143B JUMP JUMPDEST PUSH1 0x1 SLOAD AND SWAP4 MLOAD SWAP1 DUP2 MSTORE LOG2 PUSH1 0x1 PUSH1 0x0 DUP1 MLOAD PUSH1 0x20 PUSH2 0x14E9 DUP4 CODECOPY DUP2 MLOAD SWAP2 MSTORE SSTORE DUP1 RETURN JUMPDEST PUSH1 0x64 SWAP1 PUSH1 0x20 DUP7 MLOAD SWAP2 PUSH3 0x461BCD PUSH1 0xE5 SHL DUP4 MSTORE DUP3 ADD MSTORE PUSH1 0x6 PUSH1 0x24 DUP3 ADD MSTORE PUSH6 0x273790212721 PUSH1 0xD1 SHL PUSH1 0x44 DUP3 ADD MSTORE REVERT JUMPDEST DUP4 MLOAD PUSH3 0x461BCD PUSH1 0xE5 SHL DUP2 MSTORE PUSH1 0x20 DUP2 DUP6 ADD MSTORE PUSH1 0xE PUSH1 0x24 DUP3 ADD MSTORE PUSH14 0x139BDD08105D5D1A1BDC9A5E9959 PUSH1 0x92 SHL PUSH1 0x44 DUP3 ADD MSTORE PUSH1 0x64 SWAP1 REVERT JUMPDEST POP DUP2 DUP6 SLOAD AND CALLER EQ PUSH2 0x65A JUMP JUMPDEST POP POP CALLVALUE PUSH2 0x102 JUMPI DUP2 PUSH1 0x3 NOT CALLDATASIZE ADD SLT PUSH2 0x102 JUMPI PUSH1 0x2 SLOAD SWAP1 MLOAD PUSH1 0x1 PUSH1 0x1 PUSH1 0xA0 SHL SUB SWAP1 SWAP2 AND DUP2 MSTORE PUSH1 0x20 SWAP1 RETURN JUMPDEST SWAP1 POP CALLVALUE PUSH2 0x1A8 JUMPI PUSH1 0x20 CALLDATASIZE PUSH1 0x3 NOT ADD SLT PUSH2 0x1A8 JUMPI PUSH2 0x766 PUSH2 0xE6E JUMP JUMPDEST PUSH2 0x76E PUSH2 0xE89 JUMP JUMPDEST PUSH1 0x1 PUSH1 0x1 PUSH1 0xA0 SHL SUB AND SWAP2 DUP3 ISZERO PUSH2 0x7B9 JUMPI POP POP PUSH1 0x1 DUP1 SLOAD PUSH1 0x1 PUSH1 0x1 PUSH1 0xA0 SHL SUB NOT AND DUP3 OR SWAP1 SSTORE PUSH32 0x439162378682C6392215882CF21E973F49063ED3530A31D763835A2E9F6D17E DUP3 DUP1 LOG2 DUP1 RETURN JUMPDEST SWAP1 PUSH1 0x20 PUSH1 0x64 SWAP3 MLOAD SWAP2 PUSH3 0x461BCD PUSH1 0xE5 SHL DUP4 MSTORE DUP3 ADD MSTORE PUSH1 0x12 PUSH1 0x24 DUP3 ADD MSTORE PUSH18 0x125B9D985B1A5908199959481DD85B1B195D PUSH1 0x72 SHL PUSH1 0x44 DUP3 ADD MSTORE REVERT JUMPDEST SWAP1 POP CALLVALUE PUSH2 0x1A8 JUMPI PUSH1 0x20 CALLDATASIZE PUSH1 0x3 NOT ADD SLT PUSH2 0x1A8 JUMPI PUSH1 0xE0 SWAP3 PUSH1 0x1 PUSH1 0x1 PUSH1 0xA0 SHL SUB SWAP3 PUSH1 0xFF SWAP3 SWAP1 SWAP2 DUP3 SWAP1 DUP6 PUSH2 0x820 PUSH2 0xE6E JUMP JUMPDEST AND DUP2 MSTORE PUSH1 0x3 PUSH1 0x20 MSTORE KECCAK256 SWAP1 DUP5 DUP3 SLOAD AND SWAP5 PUSH1 0x1 DUP4 ADD SLOAD AND SWAP3 PUSH1 0x2 DUP4 ADD SLOAD SWAP1 PUSH1 0x5 PUSH1 0x3 DUP6 ADD SLOAD SWAP4 DUP6 ADD SLOAD SWAP5 ADD SLOAD SWAP5 DUP2 MLOAD SWAP8 DUP9 MSTORE PUSH1 0x20 DUP9 ADD MSTORE DUP7 ADD MSTORE PUSH1 0x60 DUP6 ADD MSTORE PUSH1 0x80 DUP5 ADD MSTORE DUP2 DUP2 AND ISZERO ISZERO PUSH1 0xA0 DUP5 ADD MSTORE PUSH1 0x8 SHR AND ISZERO ISZERO PUSH1 0xC0 DUP3 ADD MSTORE RETURN JUMPDEST POP POP CALLVALUE PUSH2 0x102 JUMPI DUP2 PUSH1 0x3 NOT CALLDATASIZE ADD SLT PUSH2 0x102 JUMPI SWAP1 SLOAD SWAP1 MLOAD PUSH1 0x1 PUSH1 0x1 PUSH1 0xA0 SHL SUB SWAP1 SWAP2 AND DUP2 MSTORE PUSH1 0x20 SWAP1 RETURN JUMPDEST DUP4 SWAP2 POP CALLVALUE PUSH2 0x102 JUMPI PUSH1 0x60 CALLDATASIZE PUSH1 0x3 NOT ADD SLT PUSH2 0x102 JUMPI PUSH2 0x8BD PUSH2 0xE6E JUMP JUMPDEST PUSH1 0x1 PUSH1 0x1 PUSH1 0xA0 SHL SUB SWAP4 PUSH1 0x24 CALLDATALOAD DUP6 DUP2 AND SWAP4 SWAP3 SWAP2 SWAP1 DUP5 SWAP1 SUB PUSH2 0xB09 JUMPI PUSH1 0x44 CALLDATALOAD SWAP3 CALLER DUP7 MSTORE PUSH1 0x20 SWAP3 DUP2 DUP5 MSTORE PUSH1 0xFF DUP4 DUP9 KECCAK256 SLOAD AND DUP1 ISZERO PUSH2 0xAFD JUMPI JUMPDEST ISZERO PUSH2 0xAC2 JUMPI DUP8 AND SWAP4 DUP5 DUP8 MSTORE PUSH1 0x3 DUP5 MSTORE DUP8 DUP4 DUP9 KECCAK256 SLOAD AND PUSH2 0xA8D JUMPI DUP3 MLOAD PUSH4 0x70A08231 PUSH1 0xE0 SHL DUP2 MSTORE ADDRESS DUP4 DUP3 ADD MSTORE SWAP1 DUP5 DUP3 PUSH1 0x24 DUP2 DUP10 GAS STATICCALL SWAP2 DUP3 ISZERO PUSH2 0xA83 JUMPI DUP9 SWAP3 PUSH2 0xA50 JUMPI JUMPDEST POP DUP1 ISZERO PUSH2 0xA40 JUMPI SWAP1 JUMPDEST DUP4 MLOAD SWAP4 PUSH1 0xE0 DUP6 ADD SWAP10 DUP6 DUP12 LT PUSH8 0xFFFFFFFFFFFFFFFF DUP13 GT OR PUSH2 0xA2D JUMPI DUP10 SWAP11 DUP3 SWAP11 SWAP8 SWAP9 SWAP10 SWAP11 MSTORE DUP9 DUP7 MSTORE DUP8 DUP7 ADD SWAP1 DUP11 DUP3 MSTORE DUP1 DUP4 DUP9 ADD SWAP4 DUP10 DUP6 MSTORE PUSH1 0x60 DUP10 ADD SWAP6 DUP7 MSTORE PUSH1 0x80 DUP10 ADD SWAP7 DUP8 MSTORE PUSH1 0xA0 DUP10 ADD SWAP11 DUP11 DUP13 MSTORE DUP13 PUSH1 0xC0 DUP12 ADD SWAP12 DUP1 DUP14 MSTORE MSTORE PUSH1 0x3 SWAP1 MSTORE DUP14 KECCAK256 SWAP8 MLOAD AND SWAP1 PUSH12 0xFFFFFFFFFFFFFFFFFFFFFFFF PUSH1 0xA0 SHL SWAP2 DUP3 DUP10 SLOAD AND OR DUP9 SSTORE PUSH1 0x1 DUP9 ADD SWAP3 MLOAD AND SWAP1 DUP3 SLOAD AND OR SWAP1 SSTORE MLOAD PUSH1 0x2 DUP6 ADD SSTORE MLOAD PUSH1 0x3 DUP5 ADD SSTORE MLOAD SWAP1 DUP3 ADD SSTORE PUSH1 0x5 ADD SWAP2 MLOAD ISZERO ISZERO PUSH2 0x9F0 SWAP1 DUP4 SWAP1 PUSH1 0xFF DUP1 NOT DUP4 SLOAD AND SWAP2 ISZERO ISZERO AND OR SWAP1 SSTORE JUMP JUMPDEST MLOAD ISZERO ISZERO DUP2 SLOAD SWAP1 PUSH1 0x8 SHL PUSH2 0xFF00 AND SWAP1 PUSH2 0xFF00 NOT AND OR SWAP1 SSTORE PUSH32 0xAB3E0AE7B7D4C37D3539A4F3E3AC856A540AF410ACCE171C797BBF88C1853B2D DUP4 DUP1 LOG3 DUP1 RETURN JUMPDEST PUSH4 0x4E487B71 PUSH1 0xE0 SHL DUP11 MSTORE PUSH1 0x41 DUP6 MSTORE PUSH1 0x24 DUP11 REVERT JUMPDEST POP PUSH8 0x6F05B59D3B20000 SWAP1 PUSH2 0x93C JUMP JUMPDEST SWAP1 SWAP2 POP DUP5 DUP2 DUP2 RETURNDATASIZE DUP4 GT PUSH2 0xA7C JUMPI JUMPDEST PUSH2 0xA68 DUP2 DUP4 PUSH2 0xEB5 JUMP JUMPDEST DUP2 ADD SUB SLT PUSH2 0xA78 JUMPI MLOAD SWAP1 DUP10 PUSH2 0x933 JUMP JUMPDEST DUP8 DUP1 REVERT JUMPDEST POP RETURNDATASIZE PUSH2 0xA5E JUMP JUMPDEST DUP5 MLOAD RETURNDATASIZE DUP11 DUP3 RETURNDATACOPY RETURNDATASIZE SWAP1 REVERT JUMPDEST POP DUP3 PUSH1 0x64 SWAP3 MLOAD SWAP2 PUSH3 0x461BCD PUSH1 0xE5 SHL DUP4 MSTORE DUP3 ADD MSTORE PUSH1 0x10 PUSH1 0x24 DUP3 ADD MSTORE PUSH16 0x105B1C9958591E481B185D5B98DA1959 PUSH1 0x82 SHL PUSH1 0x44 DUP3 ADD MSTORE REVERT JUMPDEST POP DUP3 PUSH1 0x64 SWAP3 MLOAD SWAP2 PUSH3 0x461BCD PUSH1 0xE5 SHL DUP4 MSTORE DUP3 ADD MSTORE PUSH1 0x16 PUSH1 0x24 DUP3 ADD MSTORE PUSH22 0x4E6F7420617574686F72697A656420666163746F7279 PUSH1 0x50 SHL PUSH1 0x44 DUP3 ADD MSTORE REVERT JUMPDEST POP DUP8 DUP8 SLOAD AND CALLER EQ PUSH2 0x8F2 JUMP JUMPDEST DUP5 DUP1 REVERT JUMPDEST DUP4 CALLVALUE PUSH2 0xB67 JUMPI DUP1 PUSH1 0x3 NOT CALLDATASIZE ADD SLT PUSH2 0xB67 JUMPI PUSH2 0xB26 PUSH2 0xE89 JUMP JUMPDEST DUP1 SLOAD PUSH1 0x1 PUSH1 0x1 PUSH1 0xA0 SHL SUB NOT DUP2 AND DUP3 SSTORE DUP2 SWAP1 PUSH1 0x1 PUSH1 0x1 PUSH1 0xA0 SHL SUB AND PUSH32 0x8BE0079C531659141344CD1FD0A4F28419497F9722A3DAAFE3B4186F6B6457E0 DUP3 DUP1 LOG3 DUP1 RETURN JUMPDEST DUP1 REVERT JUMPDEST DUP4 DUP4 CALLVALUE PUSH2 0x102 JUMPI DUP1 PUSH1 0x3 NOT CALLDATASIZE ADD SLT PUSH2 0x102 JUMPI PUSH2 0xB84 PUSH2 0xE6E JUMP JUMPDEST PUSH1 0x24 CALLDATALOAD SWAP2 PUSH2 0xB90 PUSH2 0xFE4 JUMP JUMPDEST PUSH1 0x1 DUP1 PUSH1 0xA0 SHL SUB DUP1 SWAP3 AND SWAP2 DUP3 DUP6 MSTORE PUSH1 0x20 PUSH1 0x3 DUP2 MSTORE DUP3 DUP7 KECCAK256 SWAP2 PUSH2 0xBB6 DUP2 DUP5 SLOAD AND ISZERO ISZERO PUSH2 0xEED JUMP JUMPDEST PUSH2 0xBCA PUSH1 0xFF PUSH1 0x5 DUP6 ADD SLOAD PUSH1 0x8 SHR AND ISZERO PUSH2 0xF2C JUMP JUMPDEST DUP6 ISZERO PUSH2 0xD8B JUMPI DUP4 MLOAD PUSH4 0x23B872DD PUSH1 0xE0 SHL DUP2 MSTORE CALLER DUP10 DUP3 ADD MSTORE ADDRESS PUSH1 0x24 DUP3 ADD MSTORE PUSH1 0x44 DUP2 ADD DUP8 SWAP1 MSTORE DUP3 DUP2 PUSH1 0x64 DUP2 DUP12 DUP11 GAS CALL SWAP1 DUP2 ISZERO PUSH2 0xD81 JUMPI DUP9 SWAP2 PUSH2 0xD64 JUMPI JUMPDEST POP ISZERO PUSH2 0xD31 JUMPI DUP8 DUP4 ADD SLOAD SWAP3 PUSH2 0xC54 DUP8 PUSH1 0x2 DUP4 ADD SWAP3 PUSH1 0x3 PUSH2 0xC30 PUSH2 0xC2A DUP7 SLOAD DUP1 SWAP11 PUSH2 0xFBF JUMP JUMPDEST DUP5 PUSH2 0xF69 JUMP JUMPDEST SWAP2 ADD SWAP4 PUSH2 0xC4D PUSH2 0xC46 DUP7 SLOAD SWAP4 PUSH2 0x317 DUP7 DUP7 PUSH2 0xFBF JUMP JUMPDEST DUP1 SWAP10 PUSH2 0xFB2 JUMP JUMPDEST SWAP1 SSTORE PUSH2 0xFBF JUMP JUMPDEST SWAP1 SSTORE PUSH1 0x1 SLOAD AND SWAP7 CALLER DUP9 SUB PUSH2 0xCD7 JUMPI POP PUSH2 0xCA7 DUP7 SWAP8 PUSH32 0xA082022E93CFCD9F1DA5F9236718053910F7E840DA080C789C7845698DC032FF SWAP6 SWAP7 SWAP8 SWAP1 JUMPDEST PUSH2 0xC98 DUP3 DUP7 PUSH2 0xFB2 JUMP JUMPDEST SWAP2 DUP1 PUSH2 0xCC7 JUMPI JUMPDEST POP POP CALLER PUSH2 0x143B JUMP JUMPDEST DUP3 MLOAD SWAP6 DUP7 MSTORE DUP6 ADD MSTORE CALLER SWAP4 LOG3 PUSH1 0x1 PUSH1 0x0 DUP1 MLOAD PUSH1 0x20 PUSH2 0x14E9 DUP4 CODECOPY DUP2 MLOAD SWAP2 MSTORE SSTORE DUP1 RETURN JUMPDEST PUSH2 0xCD0 SWAP2 PUSH2 0x143B JUMP JUMPDEST DUP10 DUP1 PUSH2 0xC9F JUMP JUMPDEST SWAP7 PUSH1 0x5 DUP4 MUL DUP4 DUP2 DIV PUSH1 0x5 EQ DUP5 ISZERO OR ISZERO PUSH2 0xD1E JUMPI PUSH32 0xA082022E93CFCD9F1DA5F9236718053910F7E840DA080C789C7845698DC032FF SWAP6 SWAP7 SWAP8 SWAP9 POP SWAP1 PUSH1 0x64 PUSH2 0xCA7 SWAP3 DIV SWAP1 PUSH2 0xC8E JUMP JUMPDEST PUSH4 0x4E487B71 PUSH1 0xE0 SHL DUP9 MSTORE PUSH1 0x11 DUP10 MSTORE PUSH1 0x24 DUP9 REVERT JUMPDEST DUP4 MLOAD PUSH3 0x461BCD PUSH1 0xE5 SHL DUP2 MSTORE DUP1 DUP10 ADD DUP4 SWAP1 MSTORE PUSH1 0xD PUSH1 0x24 DUP3 ADD MSTORE PUSH13 0x151C985B9CD9995C8819985A5B PUSH1 0x9A SHL PUSH1 0x44 DUP3 ADD MSTORE PUSH1 0x64 SWAP1 REVERT JUMPDEST PUSH2 0xD7B SWAP2 POP DUP4 RETURNDATASIZE DUP6 GT PUSH2 0x4F5 JUMPI PUSH2 0x4E7 DUP2 DUP4 PUSH2 0xEB5 JUMP JUMPDEST DUP10 PUSH2 0xC05 JUMP JUMPDEST DUP6 MLOAD RETURNDATASIZE DUP11 DUP3 RETURNDATACOPY RETURNDATASIZE SWAP1 REVERT JUMPDEST DUP4 MLOAD PUSH3 0x461BCD PUSH1 0xE5 SHL DUP2 MSTORE DUP1 DUP10 ADD DUP4 SWAP1 MSTORE PUSH1 0xE PUSH1 0x24 DUP3 ADD MSTORE PUSH14 0x125B9D985B1A5908185B5BDD5B9D PUSH1 0x92 SHL PUSH1 0x44 DUP3 ADD MSTORE PUSH1 0x64 SWAP1 REVERT JUMPDEST SWAP2 SWAP1 POP CALLVALUE PUSH2 0x1A8 JUMPI DUP1 PUSH1 0x3 NOT CALLDATASIZE ADD SLT PUSH2 0x1A8 JUMPI PUSH2 0xDDA PUSH2 0xE6E JUMP JUMPDEST SWAP1 PUSH1 0x24 CALLDATALOAD SWAP1 DUP2 ISZERO ISZERO SWAP1 DUP2 DUP4 SUB PUSH2 0xE44 JUMPI PUSH2 0xE3C PUSH1 0x20 SWAP4 PUSH32 0x6B489C12F59A99312AB950FDDABE529A090208050382DF653584944EA5F78B35 SWAP6 PUSH2 0xE1A PUSH2 0xE89 JUMP JUMPDEST PUSH1 0x1 DUP1 PUSH1 0xA0 SHL SUB AND SWAP7 DUP8 DUP10 MSTORE DUP6 MSTORE DUP3 DUP9 KECCAK256 SWAP1 PUSH1 0xFF DUP1 NOT DUP4 SLOAD AND SWAP2 ISZERO ISZERO AND OR SWAP1 SSTORE JUMP JUMPDEST MLOAD SWAP1 DUP2 MSTORE LOG2 DUP1 RETURN JUMPDEST DUP6 DUP1 REVERT JUMPDEST DUP5 SWAP1 CALLVALUE PUSH2 0x102 JUMPI DUP2 PUSH1 0x3 NOT CALLDATASIZE ADD SLT PUSH2 0x102 JUMPI DUP1 PUSH12 0x33B2E3C9FD0803CE8000000 PUSH1 0x20 SWAP3 MSTORE RETURN JUMPDEST PUSH1 0x4 CALLDATALOAD SWAP1 PUSH1 0x1 PUSH1 0x1 PUSH1 0xA0 SHL SUB DUP3 AND DUP3 SUB PUSH2 0xE84 JUMPI JUMP JUMPDEST PUSH1 0x0 DUP1 REVERT JUMPDEST PUSH1 0x0 SLOAD PUSH1 0x1 PUSH1 0x1 PUSH1 0xA0 SHL SUB AND CALLER SUB PUSH2 0xE9D JUMPI JUMP JUMPDEST PUSH1 0x40 MLOAD PUSH4 0x118CDAA7 PUSH1 0xE0 SHL DUP2 MSTORE CALLER PUSH1 0x4 DUP3 ADD MSTORE PUSH1 0x24 SWAP1 REVERT JUMPDEST SWAP1 PUSH1 0x1F DUP1 NOT SWAP2 ADD AND DUP2 ADD SWAP1 DUP2 LT PUSH8 0xFFFFFFFFFFFFFFFF DUP3 GT OR PUSH2 0xED7 JUMPI PUSH1 0x40 MSTORE JUMP JUMPDEST PUSH4 0x4E487B71 PUSH1 0xE0 SHL PUSH1 0x0 MSTORE PUSH1 0x41 PUSH1 0x4 MSTORE PUSH1 0x24 PUSH1 0x0 REVERT JUMPDEST ISZERO PUSH2 0xEF4 JUMPI JUMP JUMPDEST PUSH1 0x40 MLOAD PUSH3 0x461BCD PUSH1 0xE5 SHL DUP2 MSTORE PUSH1 0x20 PUSH1 0x4 DUP3 ADD MSTORE PUSH1 0x10 PUSH1 0x24 DUP3 ADD MSTORE PUSH16 0x13585C9AD95D081B9BDD08199BDD5B99 PUSH1 0x82 SHL PUSH1 0x44 DUP3 ADD MSTORE PUSH1 0x64 SWAP1 REVERT JUMPDEST ISZERO PUSH2 0xF33 JUMPI JUMP JUMPDEST PUSH1 0x40 MLOAD PUSH3 0x461BCD PUSH1 0xE5 SHL DUP2 MSTORE PUSH1 0x20 PUSH1 0x4 DUP3 ADD MSTORE PUSH1 0xE PUSH1 0x24 DUP3 ADD MSTORE PUSH14 0x151BDAD95B881B5A59DC985D1959 PUSH1 0x92 SHL PUSH1 0x44 DUP3 ADD MSTORE PUSH1 0x64 SWAP1 REVERT JUMPDEST DUP2 DUP2 MUL SWAP3 SWAP2 DUP2 ISZERO SWAP2 DUP5 DIV EQ OR ISZERO PUSH2 0xF7C JUMPI JUMP JUMPDEST PUSH4 0x4E487B71 PUSH1 0xE0 SHL PUSH1 0x0 MSTORE PUSH1 0x11 PUSH1 0x4 MSTORE PUSH1 0x24 PUSH1 0x0 REVERT JUMPDEST DUP2 ISZERO PUSH2 0xF9C JUMPI DIV SWAP1 JUMP JUMPDEST PUSH4 0x4E487B71 PUSH1 0xE0 SHL PUSH1 0x0 MSTORE PUSH1 0x12 PUSH1 0x4 MSTORE PUSH1 0x24 PUSH1 0x0 REVERT JUMPDEST SWAP2 SWAP1 DUP3 SUB SWAP2 DUP3 GT PUSH2 0xF7C JUMPI JUMP JUMPDEST SWAP2 SWAP1 DUP3 ADD DUP1 SWAP3 GT PUSH2 0xF7C JUMPI JUMP JUMPDEST SWAP1 DUP2 PUSH1 0x20 SWAP2 SUB SLT PUSH2 0xE84 JUMPI MLOAD DUP1 ISZERO ISZERO DUP2 SUB PUSH2 0xE84 JUMPI SWAP1 JUMP JUMPDEST PUSH1 0x0 DUP1 MLOAD PUSH1 0x20 PUSH2 0x14E9 DUP4 CODECOPY DUP2 MLOAD SWAP2 MSTORE PUSH1 0x2 DUP2 SLOAD EQ PUSH2 0x1002 JUMPI PUSH1 0x2 SWAP1 SSTORE JUMP JUMPDEST PUSH1 0x40 MLOAD PUSH4 0x3EE5AEB5 PUSH1 0xE0 SHL DUP2 MSTORE PUSH1 0x4 SWAP1 REVERT JUMPDEST PUSH1 0x1 PUSH1 0x1 PUSH1 0xA0 SHL SUB DUP2 AND PUSH1 0x0 DUP2 DUP2 MSTORE PUSH1 0x3 PUSH1 0x20 MSTORE PUSH1 0x40 SWAP1 KECCAK256 PUSH1 0x5 DUP2 ADD DUP1 SLOAD PUSH1 0xFF NOT AND PUSH1 0x1 OR SWAP1 SSTORE SWAP3 DUP1 ISZERO PUSH2 0x10C3 JUMPI PUSH1 0x40 PUSH32 0xA05918F619B9FD8CC60E9C88369C0F4EB9A949F105763AAA10A638FFCBE36857 SWAP2 DUP6 PUSH1 0x3 PUSH2 0x10B9 SWAP8 ADD PUSH2 0x1089 DUP2 SLOAD SWAP3 PUSH1 0x2 PUSH2 0x1080 DUP6 DUP8 PUSH2 0xF69 JUMP JUMPDEST SWAP2 ADD SLOAD SWAP1 PUSH2 0xF92 JUMP JUMPDEST SWAP2 DUP3 DUP2 LT PUSH2 0x10BB JUMPI JUMPDEST DUP3 PUSH2 0x109C SWAP2 PUSH2 0xFB2 JUMP JUMPDEST SWAP1 SSTORE PUSH2 0x10A9 DUP2 DUP4 DUP9 PUSH2 0x10C9 JUMP JUMPDEST DUP3 MLOAD SWAP2 DUP3 MSTORE PUSH1 0x20 DUP3 ADD MSTORE LOG2 PUSH2 0x1201 JUMP JUMPDEST JUMP JUMPDEST SWAP2 POP DUP2 PUSH2 0x1092 JUMP JUMPDEST POP POP POP POP JUMP JUMPDEST PUSH1 0x2 SLOAD PUSH1 0x1 PUSH1 0x1 PUSH1 0xA0 SHL SUB SWAP4 SWAP1 DUP5 AND SWAP2 DUP3 ISZERO DUP1 ISZERO PUSH2 0x11F9 JUMPI JUMPDEST DUP1 ISZERO PUSH2 0x11F1 JUMPI JUMPDEST PUSH2 0x11EA JUMPI PUSH1 0x40 MLOAD PUSH4 0x95EA7B3 PUSH1 0xE0 SHL DUP2 MSTORE PUSH1 0x1 PUSH1 0x1 PUSH1 0xA0 SHL SUB SWAP4 SWAP1 SWAP4 AND PUSH1 0x4 DUP5 ADD MSTORE PUSH1 0x24 DUP4 ADD DUP3 SWAP1 MSTORE DUP5 AND SWAP2 PUSH1 0x0 SWAP2 SWAP1 PUSH1 0x20 DUP2 PUSH1 0x44 DUP2 DUP7 DUP9 GAS CALL DUP1 ISZERO PUSH2 0x11DF JUMPI SWAP1 PUSH1 0x60 SWAP3 SWAP2 PUSH2 0x11C1 JUMPI JUMPDEST POP PUSH1 0xC4 DUP7 PUSH1 0x2 SLOAD AND SWAP5 DUP7 DUP9 PUSH1 0x1 SLOAD AND SWAP7 PUSH1 0x40 MLOAD SWAP8 DUP9 SWAP6 DUP7 SWAP5 PUSH4 0xF305D719 PUSH1 0xE0 SHL DUP7 MSTORE PUSH1 0x4 DUP7 ADD MSTORE PUSH1 0x24 DUP6 ADD MSTORE DUP8 PUSH1 0x44 DUP6 ADD MSTORE DUP8 PUSH1 0x64 DUP6 ADD MSTORE PUSH1 0x84 DUP5 ADD MSTORE TIMESTAMP PUSH1 0xA4 DUP5 ADD MSTORE GAS CALL SWAP2 DUP3 PUSH2 0x1196 JUMPI JUMPDEST POP POP PUSH2 0x1192 JUMPI PUSH2 0x10B9 SWAP2 PUSH1 0x1 SLOAD AND PUSH2 0x143B JUMP JUMPDEST POP POP JUMP JUMPDEST PUSH1 0x60 SWAP1 DUP2 RETURNDATASIZE DUP2 GT PUSH2 0x11BA JUMPI JUMPDEST PUSH2 0x11AC DUP2 DUP4 PUSH2 0xEB5 JUMP JUMPDEST DUP2 ADD SUB SLT PUSH2 0xB67 JUMPI DUP1 PUSH2 0x117F JUMP JUMPDEST POP RETURNDATASIZE PUSH2 0x11A2 JUMP JUMPDEST PUSH2 0x11D8 SWAP1 PUSH1 0x20 RETURNDATASIZE DUP2 GT PUSH2 0x4F5 JUMPI PUSH2 0x4E7 DUP2 DUP4 PUSH2 0xEB5 JUMP JUMPDEST POP CODESIZE PUSH2 0x1133 JUMP JUMPDEST PUSH1 0x40 MLOAD RETURNDATASIZE DUP6 DUP3 RETURNDATACOPY RETURNDATASIZE SWAP1 REVERT JUMPDEST POP POP POP POP POP JUMP JUMPDEST POP DUP2 ISZERO PUSH2 0x10E9 JUMP JUMPDEST POP DUP4 ISZERO PUSH2 0x10E2 JUMP JUMPDEST PUSH1 0x2 SLOAD PUSH1 0x1 PUSH1 0x1 PUSH1 0xA0 SHL SUB SWAP1 DUP2 AND SWAP1 DUP2 ISZERO PUSH2 0x1436 JUMPI PUSH7 0x2386F26FC10000 DUP1 SELFBALANCE LT PUSH2 0x10C3 JUMPI PUSH1 0x40 SWAP3 DUP4 MLOAD SWAP3 PUSH1 0x60 DUP5 ADD SWAP2 PUSH8 0xFFFFFFFFFFFFFFFF SWAP3 DUP6 DUP2 LT DUP5 DUP3 GT OR PUSH2 0xED7 JUMPI DUP7 MSTORE PUSH1 0x2 DUP6 MSTORE PUSH1 0x20 SWAP5 DUP6 DUP2 ADD SWAP1 DUP8 CALLDATASIZE DUP4 CALLDATACOPY DUP8 MLOAD PUSH4 0x15AB88C9 PUSH1 0xE3 SHL DUP2 MSTORE DUP8 DUP2 PUSH1 0x4 DUP2 DUP8 GAS STATICCALL SWAP1 DUP2 ISZERO PUSH2 0x142B JUMPI PUSH1 0x0 SWAP2 PUSH2 0x13F5 JUMPI JUMPDEST POP DUP2 MLOAD ISZERO PUSH2 0x13DF JUMPI DUP5 AND DUP3 MSTORE DUP1 MLOAD SWAP9 PUSH1 0x1 SWAP10 DUP11 LT ISZERO PUSH2 0x13DF JUMPI DUP5 AND DUP9 DUP3 ADD DUP2 SWAP1 MSTORE DUP10 SLOAD DUP10 MLOAD PUSH4 0x7FF36AB5 PUSH1 0xE0 SHL DUP2 MSTORE PUSH1 0x0 PUSH1 0x4 DUP3 ADD DUP2 SWAP1 MSTORE PUSH1 0x80 PUSH1 0x24 DUP4 ADD MSTORE SWAP4 MLOAD PUSH1 0x84 DUP3 ADD DUP2 SWAP1 MSTORE SWAP3 SWAP12 SWAP1 SWAP7 PUSH1 0xA4 DUP9 ADD SWAP7 DUP9 SWAP7 SWAP1 SWAP6 DUP12 SWAP6 SWAP5 DUP4 AND SWAP5 SWAP2 SWAP4 SWAP3 JUMPDEST DUP14 DUP4 DUP4 LT PUSH2 0x13C2 JUMPI POP POP POP POP POP POP SWAP1 DUP4 PUSH1 0x0 SWAP6 DUP2 SWAP4 PUSH1 0x44 DUP4 ADD MSTORE TIMESTAMP PUSH1 0x64 DUP4 ADD MSTORE SUB SWAP3 GAS CALL SWAP2 DUP3 PUSH2 0x133F JUMPI JUMPDEST POP POP PUSH2 0x130F JUMPI POP POP POP POP JUMP JUMPDEST PUSH32 0x54BDEB371131DFFF66AD7D753CF798CE165AA0451A4EE488A7ABD7646C4EB140 SWAP3 MLOAD SWAP1 DUP2 MSTORE LOG2 CODESIZE DUP1 DUP1 DUP1 PUSH2 0x10C3 JUMP JUMPDEST RETURNDATASIZE DUP1 PUSH1 0x0 DUP5 RETURNDATACOPY PUSH2 0x134F DUP2 DUP5 PUSH2 0xEB5 JUMP JUMPDEST DUP3 ADD SWAP2 DUP6 DUP2 DUP5 SUB SLT PUSH2 0xE84 JUMPI DUP1 MLOAD SWAP1 DUP3 DUP3 GT PUSH2 0xE84 JUMPI ADD DUP3 PUSH1 0x1F DUP3 ADD SLT ISZERO PUSH2 0xE84 JUMPI DUP1 MLOAD SWAP2 DUP3 GT PUSH2 0xED7 JUMPI DUP6 DUP1 DUP4 PUSH1 0x5 SHL SWAP4 DUP10 MLOAD SWAP1 PUSH2 0x1390 DUP4 DUP8 ADD DUP4 PUSH2 0xEB5 JUMP JUMPDEST DUP2 MSTORE ADD SWAP3 DUP3 ADD ADD SWAP3 DUP4 GT PUSH2 0xE84 JUMPI DUP6 DUP1 SWAP2 ADD SWAP2 JUMPDEST DUP4 DUP4 LT PUSH2 0x13B2 JUMPI POP POP PUSH2 0x1303 JUMP JUMPDEST DUP3 MLOAD DUP2 MSTORE SWAP2 DUP2 ADD SWAP2 DUP7 SWAP2 ADD PUSH2 0x13A4 JUMP JUMPDEST DUP6 MLOAD DUP3 AND DUP12 MSTORE SWAP10 DUP11 ADD SWAP10 DUP12 SWAP10 POP DUP14 SWAP8 POP SWAP1 SWAP5 ADD SWAP4 SWAP1 DUP4 ADD SWAP1 PUSH2 0x12D8 JUMP JUMPDEST PUSH4 0x4E487B71 PUSH1 0xE0 SHL PUSH1 0x0 MSTORE PUSH1 0x32 PUSH1 0x4 MSTORE PUSH1 0x24 PUSH1 0x0 REVERT JUMPDEST DUP9 DUP2 DUP2 RETURNDATASIZE DUP4 GT PUSH2 0x1424 JUMPI JUMPDEST PUSH2 0x140A DUP2 DUP4 PUSH2 0xEB5 JUMP JUMPDEST DUP2 ADD SUB SLT PUSH2 0x102 JUMPI MLOAD SWAP1 DUP6 DUP3 AND DUP3 SUB PUSH2 0xB67 JUMPI POP CODESIZE PUSH2 0x1279 JUMP JUMPDEST POP RETURNDATASIZE PUSH2 0x1400 JUMP JUMPDEST DUP10 MLOAD RETURNDATASIZE PUSH1 0x0 DUP3 RETURNDATACOPY RETURNDATASIZE SWAP1 REVERT JUMPDEST POP POP POP JUMP JUMPDEST DUP2 ISZERO PUSH2 0x1192 JUMPI PUSH1 0x0 DUP1 DUP1 DUP1 SWAP5 DUP2 SWAP5 PUSH1 0x1 DUP1 PUSH1 0xA0 SHL SUB AND GAS CALL SWAP1 RETURNDATASIZE ISZERO PUSH2 0x14E2 JUMPI RETURNDATASIZE SWAP1 PUSH8 0xFFFFFFFFFFFFFFFF DUP3 GT PUSH2 0x14CE JUMPI PUSH1 0x40 MLOAD SWAP2 PUSH2 0x1483 PUSH1 0x1F DUP3 ADD PUSH1 0x1F NOT AND PUSH1 0x20 ADD DUP5 PUSH2 0xEB5 JUMP JUMPDEST DUP3 MSTORE PUSH1 0x20 RETURNDATASIZE SWAP3 ADD RETURNDATACOPY JUMPDEST ISZERO PUSH2 0x1493 JUMPI JUMP JUMPDEST PUSH1 0x40 MLOAD PUSH3 0x461BCD PUSH1 0xE5 SHL DUP2 MSTORE PUSH1 0x20 PUSH1 0x4 DUP3 ADD MSTORE PUSH1 0x13 PUSH1 0x24 DUP3 ADD MSTORE PUSH19 0x109390881D1C985B9CD9995C8819985A5B1959 PUSH1 0x6A SHL PUSH1 0x44 DUP3 ADD MSTORE PUSH1 0x64 SWAP1 REVERT JUMPDEST PUSH4 0x4E487B71 PUSH1 0xE0 SHL DUP2 MSTORE PUSH1 0x41 PUSH1 0x4 MSTORE PUSH1 0x24 SWAP1 REVERT JUMPDEST POP PUSH2 0x148C JUMP INVALID SWAP12 PUSH24 0x9B17422D0DF92223018B32B4D1FA46E071723D6817E2486D STOP EXTCODESIZE 0xEC 0xC5 PUSH0 STOP LOG2 PUSH5 0x6970667358 0x22 SLT KECCAK256 STOP 0xE0 0xA9 CODESIZE EXTCODEHASH 0xAD PUSH4 0x6E5FE0E9 CALLCODE BLOCKHASH 0xD2 0xB0 0xC6 ADD 0xAA 0xE1 0xAE STOP 0x22 0xE1 0xAF 0xE4 BLOCKHASH 0xB3 0xE 0xB9 PUSH21 0x5E8264736F6C634300081400330000000000000000 "},"methodIdentifiers":{"LP_INIT_THRESHOLD()":"fb7f9787","MAX_SUPPLY()":"32cb6b0c","authorizedFactories(address)":"ecd24a82","buy(address)":"f088d547","feeWallet()":"f25f4b56","launchToken(address,address,uint256)":"751c5988","markets(address)":"8e8f294b","owner()":"8da5cb5b","pancakeRouter()":"c21ebd07","renounceOwnership()":"715018a6","sell(address,uint256)":"6c197ff5","setAuthorizedFactory(address,bool)":"5c85c588","setFeeWallet(address)":"90d49b9d","setPancakeRouter(address)":"f8316c90","sweepAllBNB()":"c535c7ed","transferOwnership(address)":"f2fde38b"}}}}}