{"contracts/BondingCurve.sol":{"BondingCurve":{"abi":[{"inputs":[{"internalType":"address","name":"_owner","type":"address"},{"internalType":"address","name":"_feeWallet","type":"address"},{"internalType":"address","name":"_router","type":"address"}],"stateMutability":"nonpayable","type":"constructor"},{"inputs":[{"internalType":"address","name":"owner","type":"address"}],"name":"OwnableInvalidOwner","type":"error"},{"inputs":[{"internalType":"address","name":"account","type":"address"}],"name":"OwnableUnauthorizedAccount","type":"error"},{"inputs":[],"name":"ReentrancyGuardReentrantCall","type":"error"},{"anonymous":false,"inputs":[{"indexed":true,"internalType":"address","name":"to","type":"address"},{"indexed":false,"internalType":"uint256","name":"amount","type":"uint256"}],"name":"BNBSwept","type":"event"},{"anonymous":false,"inputs":[{"indexed":true,"internalType":"address","name":"token","type":"address"},{"indexed":true,"internalType":"address","name":"user","type":"address"},{"indexed":false,"internalType":"uint256","name":"bnbIn","type":"uint256"},{"indexed":false,"internalType":"uint256","name":"tokensOut","type":"uint256"}],"name":"Buy","type":"event"},{"anonymous":false,"inputs":[{"indexed":true,"internalType":"address","name":"factory","type":"address"},{"indexed":false,"internalType":"bool","name":"authorized","type":"bool"}],"name":"FactoryAuthorized","type":"event"},{"anonymous":false,"inputs":[{"indexed":true,"internalType":"address","name":"newFeeWallet","type":"address"}],"name":"FeeWalletSet","type":"event"},{"anonymous":false,"inputs":[{"indexed":true,"internalType":"address","name":"token","type":"address"},{"indexed":false,"internalType":"uint256","name":"bnbAmount","type":"uint256"}],"name":"FirstTradeTriggered","type":"event"},{"anonymous":false,"inputs":[{"indexed":true,"internalType":"address","name":"token","type":"address"},{"indexed":false,"internalType":"uint256","name":"bnbAmount","type":"uint256"},{"indexed":false,"internalType":"uint256","name":"tokenAmount","type":"uint256"}],"name":"LPInitialized","type":"event"},{"anonymous":false,"inputs":[{"indexed":true,"internalType":"address","name":"previousOwner","type":"address"},{"indexed":true,"internalType":"address","name":"newOwner","type":"address"}],"name":"OwnershipTransferred","type":"event"},{"anonymous":false,"inputs":[{"indexed":true,"internalType":"address","name":"newRouter","type":"address"}],"name":"RouterSet","type":"event"},{"anonymous":false,"inputs":[{"indexed":true,"internalType":"address","name":"token","type":"address"},{"indexed":true,"internalType":"address","name":"user","type":"address"},{"indexed":false,"internalType":"uint256","name":"tokensIn","type":"uint256"},{"indexed":false,"internalType":"uint256","name":"bnbOut","type":"uint256"}],"name":"Sell","type":"event"},{"anonymous":false,"inputs":[{"indexed":true,"internalType":"address","name":"token","type":"address"},{"indexed":true,"internalType":"address","name":"creator","type":"address"}],"name":"TokenLaunched","type":"event"},{"inputs":[],"name":"LP_INIT_THRESHOLD","outputs":[{"internalType":"uint256","name":"","type":"uint256"}],"stateMutability":"view","type":"function"},{"inputs":[],"name":"MAX_SUPPLY","outputs":[{"internalType":"uint256","name":"","type":"uint256"}],"stateMutability":"view","type":"function"},{"inputs":[],"name":"VIRTUAL_BNB","outputs":[{"internalType":"uint256","name":"","type":"uint256"}],"stateMutability":"view","type":"function"},{"inputs":[{"internalType":"address","name":"","type":"address"}],"name":"authorizedFactories","outputs":[{"internalType":"bool","name":"","type":"bool"}],"stateMutability":"view","type":"function"},{"inputs":[{"internalType":"address","name":"token","type":"address"}],"name":"buy","outputs":[],"stateMutability":"payable","type":"function"},{"inputs":[],"name":"feeWallet","outputs":[{"internalType":"address","name":"","type":"address"}],"stateMutability":"view","type":"function"},{"inputs":[{"internalType":"address","name":"token","type":"address"},{"internalType":"address","name":"creator","type":"address"}],"name":"launchToken","outputs":[],"stateMutability":"nonpayable","type":"function"},{"inputs":[{"internalType":"address","name":"","type":"address"}],"name":"markets","outputs":[{"internalType":"address","name":"token","type":"address"},{"internalType":"address","name":"creator","type":"address"},{"internalType":"uint256","name":"bnbReserve","type":"uint256"},{"internalType":"uint256","name":"tokenReserve","type":"uint256"},{"internalType":"bool","name":"lpInitialized","type":"bool"},{"internalType":"bool","name":"migrated","type":"bool"}],"stateMutability":"view","type":"function"},{"inputs":[],"name":"owner","outputs":[{"internalType":"address","name":"","type":"address"}],"stateMutability":"view","type":"function"},{"inputs":[],"name":"pancakeRouter","outputs":[{"internalType":"contract IPancakeRouter","name":"","type":"address"}],"stateMutability":"view","type":"function"},{"inputs":[],"name":"renounceOwnership","outputs":[],"stateMutability":"nonpayable","type":"function"},{"inputs":[{"internalType":"address","name":"token","type":"address"},{"internalType":"uint256","name":"amount","type":"uint256"}],"name":"sell","outputs":[],"stateMutability":"nonpayable","type":"function"},{"inputs":[{"internalType":"address","name":"factory","type":"address"},{"internalType":"bool","name":"authorized","type":"bool"}],"name":"setAuthorizedFactory","outputs":[],"stateMutability":"nonpayable","type":"function"},{"inputs":[{"internalType":"address","name":"_feeWallet","type":"address"}],"name":"setFeeWallet","outputs":[],"stateMutability":"nonpayable","type":"function"},{"inputs":[{"internalType":"address","name":"_router","type":"address"}],"name":"setPancakeRouter","outputs":[],"stateMutability":"nonpayable","type":"function"},{"inputs":[],"name":"sweepAllBNB","outputs":[],"stateMutability":"nonpayable","type":"function"},{"inputs":[{"internalType":"address","name":"newOwner","type":"address"}],"name":"transferOwnership","outputs":[],"stateMutability":"nonpayable","type":"function"},{"stateMutability":"payable","type":"receive"}],"evm":{"bytecode":{"linkReferences":{},"object":"6080346200016d57601f6200170738819003918201601f19168301916001600160401b0383118484101762000172578084926060946040528339810103126200016d576200004d8162000188565b620000696040620000616020850162000188565b930162000188565b6001600160a01b039182169283156200015457826000549160018060a01b03199580878516176000558260405194167f8be0079c531659141344cd1fd0a4f28419497f9722a3daafe3b4186f6b6457e0600080a360017f9b779b17422d0df92223018b32b4d1fa46e071723d6817e2486d003becc55f0055169081156200011d57508360015416176001551690816200010d575b60405161156990816200019e8239f35b60025416176002553880620000fd565b62461bcd60e51b8152602060048201526012602482015271125b9d985b1a5908199959481dd85b1b195d60721b6044820152606490fd5b604051631e4fbdf760e01b815260006004820152602490fd5b600080fd5b634e487b7160e01b600052604160045260246000fd5b51906001600160a01b03821682036200016d5756fe6080604081815260049182361015610022575b505050361561002057600080fd5b005b600092833560e01c91826332cb6b0c14610e735750816343d47a5e14610e505781635c85c58814610dcb5781636c197ff514610b60578163715018a614610b035781638da5cb5b14610adb5781638e8f294b14610a5e57816390d49b9d146109b8578163962c165f1461077d578163c21ebd0714610754578163c535c7ed1461065a578163ecd24a821461061d578163f088d54714610268578163f25f4b561461023f578163f2fde38b146101b8578163f8316c9014610112575063fb7f9787146100ed5780610012565b3461010e578160031936011261010e5760209051670429d069189e00008152f35b5080fd5b9050346101b45760203660031901126101b45761012d610e99565b610135610eb4565b6001600160a01b0316918215610180575050600280546001600160a01b031916821790557fc6b438e6a8a59579ce6a4406cbd203b740e0d47b458aae6596339bcd40c40d158280a280f35b906020606492519162461bcd60e51b8352820152600e60248201526d24b73b30b634b2103937baba32b960911b6044820152fd5b8280fd5b9050346101b45760203660031901126101b4576101d3610e99565b906101dc610eb4565b6001600160a01b0391821692831561022957505082546001600160a01b0319811683178455167f8be0079c531659141344cd1fd0a4f28419497f9722a3daafe3b4186f6b6457e08380a380f35b51631e4fbdf760e01b8152908101849052602490fd5b50503461010e578160031936011261010e5760015490516001600160a01b039091168152602090f35b839150602036600319011261010e5761027f610e99565b9061028861100f565b60018060a01b0391828116928385526003602052858520926102ae828554161515610f18565b6102c160ff8286015460081c1615610f57565b34156105ef5781600154168033149081156105c1575b50156105965785935b6102ea8534610fdd565b60028201968754946706f05b59d3b2000086810180911161058357600385019661032a8854926103248761031e8682610f94565b92610fea565b90610fbd565b94851561054c57603c8b028b8104603c148c15171561053957906064879392049b8c61035591610fdd565b61035e91610fea565b61036791610fea565b8b5561037291610fdd565b8655338a5284602052848a8c858183205460ff1692602092846103d59561052a575b15610521578660018b0154169586915b5163a9059cbb60e01b81526001600160a01b0390921690820190815260208101939093529384928391829160400190565b0391885af1908115610517578c916104e8575b50156104b3578b60ff96959493927f89f5adc174562e07c9c9b1cae7109bbecb21cf9d1b2847e550042b8653c54a0e9282519534875260208701521693a30154168015806104a0575b15610457575050610442925061103f565b60016000805160206115148339815191525580f35b91929180610497575b61046e575b50505050610442565b61048e93610480610488925484610f94565b905490610fbd565b916110f4565b81808080610465565b50811515610460565b50670429d069189e000085541015610431565b8b5162461bcd60e51b8152602081880152600f60248201526e151c985b9cd9995c8819985a5b1959608a1b6044820152606490fd5b61050a915060203d602011610510575b6105028183610ee0565b810190610ff7565b8d6103e8565b503d6104f8565b8d513d8e823e3d90fd5b339586916103a4565b508660018b0154161515610394565b634e487b7160e01b8e526011895260248efd5b508c5162461bcd60e51b8152602081890152601060248201526f105b5bdd5b9d081d1bdbc81cdb585b1b60821b6044820152606490fd5b634e487b7160e01b8b526011865260248bfd5b600534023481046005036105ae5760649004936102e0565b634e487b7160e01b875260118252602487fd5b90503387528160205260ff888820541690816105df575b50886102d7565b90508260018601541614886105d8565b606490602088519162461bcd60e51b8352820152600860248201526729b2b7321021272160c11b6044820152fd5b9050346101b45760203660031901126101b45760209260ff918391906001600160a01b03610649610e99565b168252855220541690519015158152f35b9050346101b457826003193601126101b45761067461100f565b6001546001600160a01b039081163381148015610748575b1561071457479283156106e85750916020916106c9827fdbd1ea0ad8c379019b5744f70c9e46e13d61d8786de9583dd63d1732fa3b824f95611466565b600154169351908152a260016000805160206115148339815191525580f35b606490602086519162461bcd60e51b8352820152600660248201526527379021272160d11b6044820152fd5b835162461bcd60e51b8152602081850152600e60248201526d139bdd08105d5d1a1bdc9a5e995960921b6044820152606490fd5b5081855416331461068c565b50503461010e578160031936011261010e5760025490516001600160a01b039091168152602090f35b919050346101b457806003193601126101b457610798610e99565b6024356001600160a01b0381811694918590036109b45733865260209282845260ff858820541680156109a8575b1561096c57811693848752600384528181882054166109375780516370a0823160e01b81523084820152908482602481895afa91821561092d5788926108fa575b5080519260c0840184811067ffffffffffffffff8211176108e75791899593916108ab95938252888452878401908a82528083860193898552606087019586526003608088019b8b8d528d8c60a08b019d8e5252528d20955116906bffffffffffffffffffffffff60a01b918287541617865560018601925116908254161790555160028301555160038201550192511515839060ff801983541691151516179055565b51815461ff00191690151560081b61ff00161790557fab3e0ae7b7d4c37d3539a4f3e3ac856a540af410acce171c797bbf88c1853b2d8380a380f35b634e487b7160e01b8a526041865260248afd5b9091508481813d8311610926575b6109128183610ee0565b8101031261092257519038610807565b8780fd5b503d610908565b81513d8a823e3d90fd5b6064939150519162461bcd60e51b8352820152601060248201526f105b1c9958591e481b185d5b98da195960821b6044820152fd5b845162461bcd60e51b815280840185905260166024820152754e6f7420617574686f72697a656420666163746f727960501b6044820152606490fd5b508187541633146107c6565b8580fd5b9050346101b45760203660031901126101b4576109d3610e99565b6109db610eb4565b6001600160a01b0316918215610a26575050600180546001600160a01b031916821790557f0439162378682c6392215882cf21e973f49063ed3530a31d763835a2e9f6d17e8280a280f35b906020606492519162461bcd60e51b83528201526012602482015271125b9d985b1a5908199959481dd85b1b195d60721b6044820152fd5b9050346101b45760203660031901126101b45760c0926001600160a01b039260ff929091829085610a8d610e99565b168152600360205220908482541694600183015416926002830154916003840154930154938151968752602087015285015260608401528181161515608084015260081c16151560a0820152f35b50503461010e578160031936011261010e57905490516001600160a01b039091168152602090f35b8334610b5d5780600319360112610b5d57610b1c610eb4565b80546001600160a01b03198116825581906001600160a01b03167f8be0079c531659141344cd1fd0a4f28419497f9722a3daafe3b4186f6b6457e08280a380f35b80fd5b8391503461010e578260031936011261010e57610b7b610e99565b90602493843592610b8a61100f565b60018060a01b03809116928386526020906003825283872092610bb1818554161515610f18565b610bc460ff8386015460081c1615610f57565b8615610d995784516323b872dd60e01b81523383820152308a8201526044810188905283816064818c8b5af1908115610d8f578991610d72575b5015610d4157600284018054946706f05b59d3b20000868101809111610d2f57610c53916003610c2f8c9384610f94565b910193610c4c610c458654936103248686610fea565b809a610fdd565b9055610fea565b90556001541697338903610cd7575050610ca786977fa082022e93cfcd9f1da5f9236718053910f7e840da080c789c7845698dc032ff959697905b610c988286610fdd565b9180610cc7575b505033611466565b82519586528501523393a360016000805160206115148339815191525580f35b610cd091611466565b8980610c9f565b600584029184830460051485151715610d1e5750507fa082022e93cfcd9f1da5f9236718053910f7e840da080c789c7845698dc032ff949596976064610ca7920490610c8e565b634e487b7160e01b89526011905287fd5b634e487b7160e01b8b52601185528b8bfd5b50600d8860649386519362461bcd60e51b85528401528201526c151c985b9cd9995c8819985a5b609a1b6044820152fd5b610d899150843d8611610510576105028183610ee0565b8a610bfe565b86513d8b823e3d90fd5b50600e8860649386519362461bcd60e51b85528401528201526d125b9d985b1a5908185b5bdd5b9d60921b6044820152fd5b919050346101b457806003193601126101b457610de6610e99565b9060243590811515908183036109b457610e486020937f6b489c12f59a99312ab950fddabe529a090208050382df653584944ea5f78b3595610e26610eb4565b60018060a01b03169687895285528288209060ff801983541691151516179055565b51908152a280f35b50503461010e578160031936011261010e57602090516706f05b59d3b200008152f35b84903461010e578160031936011261010e57806b033b2e3c9fd0803ce800000060209252f35b600435906001600160a01b0382168203610eaf57565b600080fd5b6000546001600160a01b03163303610ec857565b60405163118cdaa760e01b8152336004820152602490fd5b90601f8019910116810190811067ffffffffffffffff821117610f0257604052565b634e487b7160e01b600052604160045260246000fd5b15610f1f57565b60405162461bcd60e51b815260206004820152601060248201526f13585c9ad95d081b9bdd08199bdd5b9960821b6044820152606490fd5b15610f5e57565b60405162461bcd60e51b815260206004820152600e60248201526d151bdad95b881b5a59dc985d195960921b6044820152606490fd5b81810292918115918404141715610fa757565b634e487b7160e01b600052601160045260246000fd5b8115610fc7570490565b634e487b7160e01b600052601260045260246000fd5b91908203918211610fa757565b91908201809211610fa757565b90816020910312610eaf57518015158103610eaf5790565b600080516020611514833981519152600281541461102d5760029055565b604051633ee5aeb560e01b8152600490fd5b6001600160a01b038116600081815260036020526040902060048101805460ff191660011790559280156110ee5760407fa05918f619b9fd8cc60e9c88369c0f4eb9a949f105763aaa10a638ffcbe36857918560036110e497016110b481549260026110ab8587610f94565b91015490610fbd565b918281106110e6575b826110c791610fdd565b90556110d48183886110f4565b82519182526020820152a261122c565b565b9150816110bd565b50505050565b6002546001600160a01b03939084169182158015611224575b801561121c575b6112155760405163095ea7b360e01b81526001600160a01b03939093166004840152602483018290528416916000919060208160448186885af1801561120a5790606092916111ec575b5060c486600254169486886001541696604051978895869463f305d71960e01b86526004860152602485015287604485015287606485015260848401524260a48401525af191826111c1575b50506111bd576110e49160015416611466565b5050565b606090813d81116111e5575b6111d78183610ee0565b81010312610b5d57806111aa565b503d6111cd565b6112039060203d8111610510576105028183610ee0565b503861115e565b6040513d85823e3d90fd5b5050505050565b508115611114565b50831561110d565b6002546001600160a01b0390811690811561146157662386f26fc100008047106110ee57604092835192606084019167ffffffffffffffff9285811084821117610f0257865260028552602094858101908736833787516315ab88c960e31b81528781600481875afa90811561145657600091611420575b5081511561140a57841682528051986001998a101561140a57841688820181905289548951637ff36ab560e01b815260006004820181905260806024830152935160848201819052929b909660a4880196889690958b95948316949193925b8d8383106113ed5750505050505090836000958193604483015242606483015203925af1918261136a575b505061133a5750505050565b7f54bdeb371131dfff66ad7d753cf798ce165aa0451a4ee488a7abd7646c4eb1409251908152a2388080806110ee565b3d806000843e61137a8184610ee0565b8201918581840312610eaf57805190828211610eaf570182601f82011215610eaf578051918211610f025785808360051b938951906113bb83870183610ee0565b81520192820101928311610eaf5785809101915b8383106113dd57505061132e565b82518152918101918691016113cf565b855182168b52998a01998b99508d97509094019390830190611303565b634e487b7160e01b600052603260045260246000fd5b8881813d831161144f575b6114358183610ee0565b8101031261010e5751908582168203610b5d5750386112a4565b503d61142b565b89513d6000823e3d90fd5b505050565b81156111bd57600080808094819460018060a01b03165af1903d1561150d573d9067ffffffffffffffff82116114f957604051916114ae601f8201601f191660200184610ee0565b825260203d92013e5b156114be57565b60405162461bcd60e51b8152602060048201526013602482015272109390881d1c985b9cd9995c8819985a5b1959606a1b6044820152606490fd5b634e487b7160e01b81526041600452602490fd5b506114b756fe9b779b17422d0df92223018b32b4d1fa46e071723d6817e2486d003becc55f00a2646970667358221220fe7279d2d587a3e6e675a1c44c0714f46186b59f75355c8c1bb516ef6ca7db4964736f6c63430008140033","opcodes":"PUSH1 0x80 CALLVALUE PUSH3 0x16D JUMPI PUSH1 0x1F PUSH3 0x1707 CODESIZE DUP2 SWAP1 SUB SWAP2 DUP3 ADD PUSH1 0x1F NOT AND DUP4 ADD SWAP2 PUSH1 0x1 PUSH1 0x1 PUSH1 0x40 SHL SUB DUP4 GT DUP5 DUP5 LT OR PUSH3 0x172 JUMPI DUP1 DUP5 SWAP3 PUSH1 0x60 SWAP5 PUSH1 0x40 MSTORE DUP4 CODECOPY DUP2 ADD SUB SLT PUSH3 0x16D JUMPI PUSH3 0x4D DUP2 PUSH3 0x188 JUMP JUMPDEST PUSH3 0x69 PUSH1 0x40 PUSH3 0x61 PUSH1 0x20 DUP6 ADD PUSH3 0x188 JUMP JUMPDEST SWAP4 ADD PUSH3 0x188 JUMP JUMPDEST PUSH1 0x1 PUSH1 0x1 PUSH1 0xA0 SHL SUB SWAP2 DUP3 AND SWAP3 DUP4 ISZERO PUSH3 0x154 JUMPI DUP3 PUSH1 0x0 SLOAD SWAP2 PUSH1 0x1 DUP1 PUSH1 0xA0 SHL SUB NOT SWAP6 DUP1 DUP8 DUP6 AND OR PUSH1 0x0 SSTORE DUP3 PUSH1 0x40 MLOAD SWAP5 AND PUSH32 0x8BE0079C531659141344CD1FD0A4F28419497F9722A3DAAFE3B4186F6B6457E0 PUSH1 0x0 DUP1 LOG3 PUSH1 0x1 PUSH32 0x9B779B17422D0DF92223018B32B4D1FA46E071723D6817E2486D003BECC55F00 SSTORE AND SWAP1 DUP2 ISZERO PUSH3 0x11D JUMPI POP DUP4 PUSH1 0x1 SLOAD AND OR PUSH1 0x1 SSTORE AND SWAP1 DUP2 PUSH3 0x10D JUMPI JUMPDEST PUSH1 0x40 MLOAD PUSH2 0x1569 SWAP1 DUP2 PUSH3 0x19E DUP3 CODECOPY RETURN JUMPDEST PUSH1 0x2 SLOAD AND OR PUSH1 0x2 SSTORE CODESIZE DUP1 PUSH3 0xFD JUMP JUMPDEST PUSH3 0x461BCD PUSH1 0xE5 SHL DUP2 MSTORE PUSH1 0x20 PUSH1 0x4 DUP3 ADD MSTORE PUSH1 0x12 PUSH1 0x24 DUP3 ADD MSTORE PUSH18 0x125B9D985B1A5908199959481DD85B1B195D PUSH1 0x72 SHL PUSH1 0x44 DUP3 ADD MSTORE PUSH1 0x64 SWAP1 REVERT JUMPDEST PUSH1 0x40 MLOAD PUSH4 0x1E4FBDF7 PUSH1 0xE0 SHL DUP2 MSTORE PUSH1 0x0 PUSH1 0x4 DUP3 ADD MSTORE PUSH1 0x24 SWAP1 REVERT JUMPDEST PUSH1 0x0 DUP1 REVERT JUMPDEST PUSH4 0x4E487B71 PUSH1 0xE0 SHL PUSH1 0x0 MSTORE PUSH1 0x41 PUSH1 0x4 MSTORE PUSH1 0x24 PUSH1 0x0 REVERT JUMPDEST MLOAD SWAP1 PUSH1 0x1 PUSH1 0x1 PUSH1 0xA0 SHL SUB DUP3 AND DUP3 SUB PUSH3 0x16D JUMPI JUMP INVALID PUSH1 0x80 PUSH1 0x40 DUP2 DUP2 MSTORE PUSH1 0x4 SWAP2 DUP3 CALLDATASIZE LT ISZERO PUSH2 0x22 JUMPI JUMPDEST POP POP POP CALLDATASIZE ISZERO PUSH2 0x20 JUMPI PUSH1 0x0 DUP1 REVERT JUMPDEST STOP JUMPDEST PUSH1 0x0 SWAP3 DUP4 CALLDATALOAD PUSH1 0xE0 SHR SWAP2 DUP3 PUSH4 0x32CB6B0C EQ PUSH2 0xE73 JUMPI POP DUP2 PUSH4 0x43D47A5E EQ PUSH2 0xE50 JUMPI DUP2 PUSH4 0x5C85C588 EQ PUSH2 0xDCB JUMPI DUP2 PUSH4 0x6C197FF5 EQ PUSH2 0xB60 JUMPI DUP2 PUSH4 0x715018A6 EQ PUSH2 0xB03 JUMPI DUP2 PUSH4 0x8DA5CB5B EQ PUSH2 0xADB JUMPI DUP2 PUSH4 0x8E8F294B EQ PUSH2 0xA5E JUMPI DUP2 PUSH4 0x90D49B9D EQ PUSH2 0x9B8 JUMPI DUP2 PUSH4 0x962C165F EQ PUSH2 0x77D JUMPI DUP2 PUSH4 0xC21EBD07 EQ PUSH2 0x754 JUMPI DUP2 PUSH4 0xC535C7ED EQ PUSH2 0x65A JUMPI DUP2 PUSH4 0xECD24A82 EQ PUSH2 0x61D JUMPI DUP2 PUSH4 0xF088D547 EQ PUSH2 0x268 JUMPI DUP2 PUSH4 0xF25F4B56 EQ PUSH2 0x23F JUMPI DUP2 PUSH4 0xF2FDE38B EQ PUSH2 0x1B8 JUMPI DUP2 PUSH4 0xF8316C90 EQ PUSH2 0x112 JUMPI POP PUSH4 0xFB7F9787 EQ PUSH2 0xED JUMPI DUP1 PUSH2 0x12 JUMP JUMPDEST CALLVALUE PUSH2 0x10E JUMPI DUP2 PUSH1 0x3 NOT CALLDATASIZE ADD SLT PUSH2 0x10E JUMPI PUSH1 0x20 SWAP1 MLOAD PUSH8 0x429D069189E0000 DUP2 MSTORE RETURN JUMPDEST POP DUP1 REVERT JUMPDEST SWAP1 POP CALLVALUE PUSH2 0x1B4 JUMPI PUSH1 0x20 CALLDATASIZE PUSH1 0x3 NOT ADD SLT PUSH2 0x1B4 JUMPI PUSH2 0x12D PUSH2 0xE99 JUMP JUMPDEST PUSH2 0x135 PUSH2 0xEB4 JUMP JUMPDEST PUSH1 0x1 PUSH1 0x1 PUSH1 0xA0 SHL SUB AND SWAP2 DUP3 ISZERO PUSH2 0x180 JUMPI POP POP PUSH1 0x2 DUP1 SLOAD PUSH1 0x1 PUSH1 0x1 PUSH1 0xA0 SHL SUB NOT AND DUP3 OR SWAP1 SSTORE PUSH32 0xC6B438E6A8A59579CE6A4406CBD203B740E0D47B458AAE6596339BCD40C40D15 DUP3 DUP1 LOG2 DUP1 RETURN JUMPDEST SWAP1 PUSH1 0x20 PUSH1 0x64 SWAP3 MLOAD SWAP2 PUSH3 0x461BCD PUSH1 0xE5 SHL DUP4 MSTORE DUP3 ADD MSTORE PUSH1 0xE PUSH1 0x24 DUP3 ADD MSTORE PUSH14 0x24B73B30B634B2103937BABA32B9 PUSH1 0x91 SHL PUSH1 0x44 DUP3 ADD MSTORE REVERT JUMPDEST DUP3 DUP1 REVERT JUMPDEST SWAP1 POP CALLVALUE PUSH2 0x1B4 JUMPI PUSH1 0x20 CALLDATASIZE PUSH1 0x3 NOT ADD SLT PUSH2 0x1B4 JUMPI PUSH2 0x1D3 PUSH2 0xE99 JUMP JUMPDEST SWAP1 PUSH2 0x1DC PUSH2 0xEB4 JUMP JUMPDEST PUSH1 0x1 PUSH1 0x1 PUSH1 0xA0 SHL SUB SWAP2 DUP3 AND SWAP3 DUP4 ISZERO PUSH2 0x229 JUMPI POP POP DUP3 SLOAD PUSH1 0x1 PUSH1 0x1 PUSH1 0xA0 SHL SUB NOT DUP2 AND DUP4 OR DUP5 SSTORE AND PUSH32 0x8BE0079C531659141344CD1FD0A4F28419497F9722A3DAAFE3B4186F6B6457E0 DUP4 DUP1 LOG3 DUP1 RETURN JUMPDEST MLOAD PUSH4 0x1E4FBDF7 PUSH1 0xE0 SHL DUP2 MSTORE SWAP1 DUP2 ADD DUP5 SWAP1 MSTORE PUSH1 0x24 SWAP1 REVERT JUMPDEST POP POP CALLVALUE PUSH2 0x10E JUMPI DUP2 PUSH1 0x3 NOT CALLDATASIZE ADD SLT PUSH2 0x10E JUMPI PUSH1 0x1 SLOAD SWAP1 MLOAD PUSH1 0x1 PUSH1 0x1 PUSH1 0xA0 SHL SUB SWAP1 SWAP2 AND DUP2 MSTORE PUSH1 0x20 SWAP1 RETURN JUMPDEST DUP4 SWAP2 POP PUSH1 0x20 CALLDATASIZE PUSH1 0x3 NOT ADD SLT PUSH2 0x10E JUMPI PUSH2 0x27F PUSH2 0xE99 JUMP JUMPDEST SWAP1 PUSH2 0x288 PUSH2 0x100F JUMP JUMPDEST PUSH1 0x1 DUP1 PUSH1 0xA0 SHL SUB SWAP2 DUP3 DUP2 AND SWAP3 DUP4 DUP6 MSTORE PUSH1 0x3 PUSH1 0x20 MSTORE DUP6 DUP6 KECCAK256 SWAP3 PUSH2 0x2AE DUP3 DUP6 SLOAD AND ISZERO ISZERO PUSH2 0xF18 JUMP JUMPDEST PUSH2 0x2C1 PUSH1 0xFF DUP3 DUP7 ADD SLOAD PUSH1 0x8 SHR AND ISZERO PUSH2 0xF57 JUMP JUMPDEST CALLVALUE ISZERO PUSH2 0x5EF JUMPI DUP2 PUSH1 0x1 SLOAD AND DUP1 CALLER EQ SWAP1 DUP2 ISZERO PUSH2 0x5C1 JUMPI JUMPDEST POP ISZERO PUSH2 0x596 JUMPI DUP6 SWAP4 JUMPDEST PUSH2 0x2EA DUP6 CALLVALUE PUSH2 0xFDD JUMP JUMPDEST PUSH1 0x2 DUP3 ADD SWAP7 DUP8 SLOAD SWAP5 PUSH8 0x6F05B59D3B20000 DUP7 DUP2 ADD DUP1 SWAP2 GT PUSH2 0x583 JUMPI PUSH1 0x3 DUP6 ADD SWAP7 PUSH2 0x32A DUP9 SLOAD SWAP3 PUSH2 0x324 DUP8 PUSH2 0x31E DUP7 DUP3 PUSH2 0xF94 JUMP JUMPDEST SWAP3 PUSH2 0xFEA JUMP JUMPDEST SWAP1 PUSH2 0xFBD JUMP JUMPDEST SWAP5 DUP6 ISZERO PUSH2 0x54C JUMPI PUSH1 0x3C DUP12 MUL DUP12 DUP2 DIV PUSH1 0x3C EQ DUP13 ISZERO OR ISZERO PUSH2 0x539 JUMPI SWAP1 PUSH1 0x64 DUP8 SWAP4 SWAP3 DIV SWAP12 DUP13 PUSH2 0x355 SWAP2 PUSH2 0xFDD JUMP JUMPDEST PUSH2 0x35E SWAP2 PUSH2 0xFEA JUMP JUMPDEST PUSH2 0x367 SWAP2 PUSH2 0xFEA JUMP JUMPDEST DUP12 SSTORE PUSH2 0x372 SWAP2 PUSH2 0xFDD JUMP JUMPDEST DUP7 SSTORE CALLER DUP11 MSTORE DUP5 PUSH1 0x20 MSTORE DUP5 DUP11 DUP13 DUP6 DUP2 DUP4 KECCAK256 SLOAD PUSH1 0xFF AND SWAP3 PUSH1 0x20 SWAP3 DUP5 PUSH2 0x3D5 SWAP6 PUSH2 0x52A JUMPI JUMPDEST ISZERO PUSH2 0x521 JUMPI DUP7 PUSH1 0x1 DUP12 ADD SLOAD AND SWAP6 DUP7 SWAP2 JUMPDEST MLOAD PUSH4 0xA9059CBB PUSH1 0xE0 SHL DUP2 MSTORE PUSH1 0x1 PUSH1 0x1 PUSH1 0xA0 SHL SUB SWAP1 SWAP3 AND SWAP1 DUP3 ADD SWAP1 DUP2 MSTORE PUSH1 0x20 DUP2 ADD SWAP4 SWAP1 SWAP4 MSTORE SWAP4 DUP5 SWAP3 DUP4 SWAP2 DUP3 SWAP2 PUSH1 0x40 ADD SWAP1 JUMP JUMPDEST SUB SWAP2 DUP9 GAS CALL SWAP1 DUP2 ISZERO PUSH2 0x517 JUMPI DUP13 SWAP2 PUSH2 0x4E8 JUMPI JUMPDEST POP ISZERO PUSH2 0x4B3 JUMPI DUP12 PUSH1 0xFF SWAP7 SWAP6 SWAP5 SWAP4 SWAP3 PUSH32 0x89F5ADC174562E07C9C9B1CAE7109BBECB21CF9D1B2847E550042B8653C54A0E SWAP3 DUP3 MLOAD SWAP6 CALLVALUE DUP8 MSTORE PUSH1 0x20 DUP8 ADD MSTORE AND SWAP4 LOG3 ADD SLOAD AND DUP1 ISZERO DUP1 PUSH2 0x4A0 JUMPI JUMPDEST ISZERO PUSH2 0x457 JUMPI POP POP PUSH2 0x442 SWAP3 POP PUSH2 0x103F JUMP JUMPDEST PUSH1 0x1 PUSH1 0x0 DUP1 MLOAD PUSH1 0x20 PUSH2 0x1514 DUP4 CODECOPY DUP2 MLOAD SWAP2 MSTORE SSTORE DUP1 RETURN JUMPDEST SWAP2 SWAP3 SWAP2 DUP1 PUSH2 0x497 JUMPI JUMPDEST PUSH2 0x46E JUMPI JUMPDEST POP POP POP POP PUSH2 0x442 JUMP JUMPDEST PUSH2 0x48E SWAP4 PUSH2 0x480 PUSH2 0x488 SWAP3 SLOAD DUP5 PUSH2 0xF94 JUMP JUMPDEST SWAP1 SLOAD SWAP1 PUSH2 0xFBD JUMP JUMPDEST SWAP2 PUSH2 0x10F4 JUMP JUMPDEST DUP2 DUP1 DUP1 DUP1 PUSH2 0x465 JUMP JUMPDEST POP DUP2 ISZERO ISZERO PUSH2 0x460 JUMP JUMPDEST POP PUSH8 0x429D069189E0000 DUP6 SLOAD LT ISZERO PUSH2 0x431 JUMP JUMPDEST DUP12 MLOAD PUSH3 0x461BCD PUSH1 0xE5 SHL DUP2 MSTORE PUSH1 0x20 DUP2 DUP9 ADD MSTORE PUSH1 0xF PUSH1 0x24 DUP3 ADD MSTORE PUSH15 0x151C985B9CD9995C8819985A5B1959 PUSH1 0x8A SHL PUSH1 0x44 DUP3 ADD MSTORE PUSH1 0x64 SWAP1 REVERT JUMPDEST PUSH2 0x50A SWAP2 POP PUSH1 0x20 RETURNDATASIZE PUSH1 0x20 GT PUSH2 0x510 JUMPI JUMPDEST PUSH2 0x502 DUP2 DUP4 PUSH2 0xEE0 JUMP JUMPDEST DUP2 ADD SWAP1 PUSH2 0xFF7 JUMP JUMPDEST DUP14 PUSH2 0x3E8 JUMP JUMPDEST POP RETURNDATASIZE PUSH2 0x4F8 JUMP JUMPDEST DUP14 MLOAD RETURNDATASIZE DUP15 DUP3 RETURNDATACOPY RETURNDATASIZE SWAP1 REVERT JUMPDEST CALLER SWAP6 DUP7 SWAP2 PUSH2 0x3A4 JUMP JUMPDEST POP DUP7 PUSH1 0x1 DUP12 ADD SLOAD AND ISZERO ISZERO PUSH2 0x394 JUMP JUMPDEST PUSH4 0x4E487B71 PUSH1 0xE0 SHL DUP15 MSTORE PUSH1 0x11 DUP10 MSTORE PUSH1 0x24 DUP15 REVERT JUMPDEST POP DUP13 MLOAD PUSH3 0x461BCD PUSH1 0xE5 SHL DUP2 MSTORE PUSH1 0x20 DUP2 DUP10 ADD MSTORE PUSH1 0x10 PUSH1 0x24 DUP3 ADD MSTORE PUSH16 0x105B5BDD5B9D081D1BDBC81CDB585B1B PUSH1 0x82 SHL PUSH1 0x44 DUP3 ADD MSTORE PUSH1 0x64 SWAP1 REVERT JUMPDEST PUSH4 0x4E487B71 PUSH1 0xE0 SHL DUP12 MSTORE PUSH1 0x11 DUP7 MSTORE PUSH1 0x24 DUP12 REVERT JUMPDEST PUSH1 0x5 CALLVALUE MUL CALLVALUE DUP2 DIV PUSH1 0x5 SUB PUSH2 0x5AE JUMPI PUSH1 0x64 SWAP1 DIV SWAP4 PUSH2 0x2E0 JUMP JUMPDEST PUSH4 0x4E487B71 PUSH1 0xE0 SHL DUP8 MSTORE PUSH1 0x11 DUP3 MSTORE PUSH1 0x24 DUP8 REVERT JUMPDEST SWAP1 POP CALLER DUP8 MSTORE DUP2 PUSH1 0x20 MSTORE PUSH1 0xFF DUP9 DUP9 KECCAK256 SLOAD AND SWAP1 DUP2 PUSH2 0x5DF JUMPI JUMPDEST POP DUP9 PUSH2 0x2D7 JUMP JUMPDEST SWAP1 POP DUP3 PUSH1 0x1 DUP7 ADD SLOAD AND EQ DUP9 PUSH2 0x5D8 JUMP JUMPDEST PUSH1 0x64 SWAP1 PUSH1 0x20 DUP9 MLOAD SWAP2 PUSH3 0x461BCD PUSH1 0xE5 SHL DUP4 MSTORE DUP3 ADD MSTORE PUSH1 0x8 PUSH1 0x24 DUP3 ADD MSTORE PUSH8 0x29B2B73210212721 PUSH1 0xC1 SHL PUSH1 0x44 DUP3 ADD MSTORE REVERT JUMPDEST SWAP1 POP CALLVALUE PUSH2 0x1B4 JUMPI PUSH1 0x20 CALLDATASIZE PUSH1 0x3 NOT ADD SLT PUSH2 0x1B4 JUMPI PUSH1 0x20 SWAP3 PUSH1 0xFF SWAP2 DUP4 SWAP2 SWAP1 PUSH1 0x1 PUSH1 0x1 PUSH1 0xA0 SHL SUB PUSH2 0x649 PUSH2 0xE99 JUMP JUMPDEST AND DUP3 MSTORE DUP6 MSTORE KECCAK256 SLOAD AND SWAP1 MLOAD SWAP1 ISZERO ISZERO DUP2 MSTORE RETURN JUMPDEST SWAP1 POP CALLVALUE PUSH2 0x1B4 JUMPI DUP3 PUSH1 0x3 NOT CALLDATASIZE ADD SLT PUSH2 0x1B4 JUMPI PUSH2 0x674 PUSH2 0x100F JUMP JUMPDEST PUSH1 0x1 SLOAD PUSH1 0x1 PUSH1 0x1 PUSH1 0xA0 SHL SUB SWAP1 DUP2 AND CALLER DUP2 EQ DUP1 ISZERO PUSH2 0x748 JUMPI JUMPDEST ISZERO PUSH2 0x714 JUMPI SELFBALANCE SWAP3 DUP4 ISZERO PUSH2 0x6E8 JUMPI POP SWAP2 PUSH1 0x20 SWAP2 PUSH2 0x6C9 DUP3 PUSH32 0xDBD1EA0AD8C379019B5744F70C9E46E13D61D8786DE9583DD63D1732FA3B824F SWAP6 PUSH2 0x1466 JUMP JUMPDEST PUSH1 0x1 SLOAD AND SWAP4 MLOAD SWAP1 DUP2 MSTORE LOG2 PUSH1 0x1 PUSH1 0x0 DUP1 MLOAD PUSH1 0x20 PUSH2 0x1514 DUP4 CODECOPY DUP2 MLOAD SWAP2 MSTORE SSTORE DUP1 RETURN JUMPDEST PUSH1 0x64 SWAP1 PUSH1 0x20 DUP7 MLOAD SWAP2 PUSH3 0x461BCD PUSH1 0xE5 SHL DUP4 MSTORE DUP3 ADD MSTORE PUSH1 0x6 PUSH1 0x24 DUP3 ADD MSTORE PUSH6 0x273790212721 PUSH1 0xD1 SHL PUSH1 0x44 DUP3 ADD MSTORE REVERT JUMPDEST DUP4 MLOAD PUSH3 0x461BCD PUSH1 0xE5 SHL DUP2 MSTORE PUSH1 0x20 DUP2 DUP6 ADD MSTORE PUSH1 0xE PUSH1 0x24 DUP3 ADD MSTORE PUSH14 0x139BDD08105D5D1A1BDC9A5E9959 PUSH1 0x92 SHL PUSH1 0x44 DUP3 ADD MSTORE PUSH1 0x64 SWAP1 REVERT JUMPDEST POP DUP2 DUP6 SLOAD AND CALLER EQ PUSH2 0x68C JUMP JUMPDEST POP POP CALLVALUE PUSH2 0x10E JUMPI DUP2 PUSH1 0x3 NOT CALLDATASIZE ADD SLT PUSH2 0x10E JUMPI PUSH1 0x2 SLOAD SWAP1 MLOAD PUSH1 0x1 PUSH1 0x1 PUSH1 0xA0 SHL SUB SWAP1 SWAP2 AND DUP2 MSTORE PUSH1 0x20 SWAP1 RETURN JUMPDEST SWAP2 SWAP1 POP CALLVALUE PUSH2 0x1B4 JUMPI DUP1 PUSH1 0x3 NOT CALLDATASIZE ADD SLT PUSH2 0x1B4 JUMPI PUSH2 0x798 PUSH2 0xE99 JUMP JUMPDEST PUSH1 0x24 CALLDATALOAD PUSH1 0x1 PUSH1 0x1 PUSH1 0xA0 SHL SUB DUP2 DUP2 AND SWAP5 SWAP2 DUP6 SWAP1 SUB PUSH2 0x9B4 JUMPI CALLER DUP7 MSTORE PUSH1 0x20 SWAP3 DUP3 DUP5 MSTORE PUSH1 0xFF DUP6 DUP9 KECCAK256 SLOAD AND DUP1 ISZERO PUSH2 0x9A8 JUMPI JUMPDEST ISZERO PUSH2 0x96C JUMPI DUP2 AND SWAP4 DUP5 DUP8 MSTORE PUSH1 0x3 DUP5 MSTORE DUP2 DUP2 DUP9 KECCAK256 SLOAD AND PUSH2 0x937 JUMPI DUP1 MLOAD PUSH4 0x70A08231 PUSH1 0xE0 SHL DUP2 MSTORE ADDRESS DUP5 DUP3 ADD MSTORE SWAP1 DUP5 DUP3 PUSH1 0x24 DUP2 DUP10 GAS STATICCALL SWAP2 DUP3 ISZERO PUSH2 0x92D JUMPI DUP9 SWAP3 PUSH2 0x8FA JUMPI JUMPDEST POP DUP1 MLOAD SWAP3 PUSH1 0xC0 DUP5 ADD DUP5 DUP2 LT PUSH8 0xFFFFFFFFFFFFFFFF DUP3 GT OR PUSH2 0x8E7 JUMPI SWAP2 DUP10 SWAP6 SWAP4 SWAP2 PUSH2 0x8AB SWAP6 SWAP4 DUP3 MSTORE DUP9 DUP5 MSTORE DUP8 DUP5 ADD SWAP1 DUP11 DUP3 MSTORE DUP1 DUP4 DUP7 ADD SWAP4 DUP10 DUP6 MSTORE PUSH1 0x60 DUP8 ADD SWAP6 DUP7 MSTORE PUSH1 0x3 PUSH1 0x80 DUP9 ADD SWAP12 DUP12 DUP14 MSTORE DUP14 DUP13 PUSH1 0xA0 DUP12 ADD SWAP14 DUP15 MSTORE MSTORE MSTORE DUP14 KECCAK256 SWAP6 MLOAD AND SWAP1 PUSH12 0xFFFFFFFFFFFFFFFFFFFFFFFF PUSH1 0xA0 SHL SWAP2 DUP3 DUP8 SLOAD AND OR DUP7 SSTORE PUSH1 0x1 DUP7 ADD SWAP3 MLOAD AND SWAP1 DUP3 SLOAD AND OR SWAP1 SSTORE MLOAD PUSH1 0x2 DUP4 ADD SSTORE MLOAD PUSH1 0x3 DUP3 ADD SSTORE ADD SWAP3 MLOAD ISZERO ISZERO DUP4 SWAP1 PUSH1 0xFF DUP1 NOT DUP4 SLOAD AND SWAP2 ISZERO ISZERO AND OR SWAP1 SSTORE JUMP JUMPDEST MLOAD DUP2 SLOAD PUSH2 0xFF00 NOT AND SWAP1 ISZERO ISZERO PUSH1 0x8 SHL PUSH2 0xFF00 AND OR SWAP1 SSTORE PUSH32 0xAB3E0AE7B7D4C37D3539A4F3E3AC856A540AF410ACCE171C797BBF88C1853B2D DUP4 DUP1 LOG3 DUP1 RETURN JUMPDEST PUSH4 0x4E487B71 PUSH1 0xE0 SHL DUP11 MSTORE PUSH1 0x41 DUP7 MSTORE PUSH1 0x24 DUP11 REVERT JUMPDEST SWAP1 SWAP2 POP DUP5 DUP2 DUP2 RETURNDATASIZE DUP4 GT PUSH2 0x926 JUMPI JUMPDEST PUSH2 0x912 DUP2 DUP4 PUSH2 0xEE0 JUMP JUMPDEST DUP2 ADD SUB SLT PUSH2 0x922 JUMPI MLOAD SWAP1 CODESIZE PUSH2 0x807 JUMP JUMPDEST DUP8 DUP1 REVERT JUMPDEST POP RETURNDATASIZE PUSH2 0x908 JUMP JUMPDEST DUP2 MLOAD RETURNDATASIZE DUP11 DUP3 RETURNDATACOPY RETURNDATASIZE SWAP1 REVERT JUMPDEST PUSH1 0x64 SWAP4 SWAP2 POP MLOAD SWAP2 PUSH3 0x461BCD PUSH1 0xE5 SHL DUP4 MSTORE DUP3 ADD MSTORE PUSH1 0x10 PUSH1 0x24 DUP3 ADD MSTORE PUSH16 0x105B1C9958591E481B185D5B98DA1959 PUSH1 0x82 SHL PUSH1 0x44 DUP3 ADD MSTORE REVERT JUMPDEST DUP5 MLOAD PUSH3 0x461BCD PUSH1 0xE5 SHL DUP2 MSTORE DUP1 DUP5 ADD DUP6 SWAP1 MSTORE PUSH1 0x16 PUSH1 0x24 DUP3 ADD MSTORE PUSH22 0x4E6F7420617574686F72697A656420666163746F7279 PUSH1 0x50 SHL PUSH1 0x44 DUP3 ADD MSTORE PUSH1 0x64 SWAP1 REVERT JUMPDEST POP DUP2 DUP8 SLOAD AND CALLER EQ PUSH2 0x7C6 JUMP JUMPDEST DUP6 DUP1 REVERT JUMPDEST SWAP1 POP CALLVALUE PUSH2 0x1B4 JUMPI PUSH1 0x20 CALLDATASIZE PUSH1 0x3 NOT ADD SLT PUSH2 0x1B4 JUMPI PUSH2 0x9D3 PUSH2 0xE99 JUMP JUMPDEST PUSH2 0x9DB PUSH2 0xEB4 JUMP JUMPDEST PUSH1 0x1 PUSH1 0x1 PUSH1 0xA0 SHL SUB AND SWAP2 DUP3 ISZERO PUSH2 0xA26 JUMPI POP POP PUSH1 0x1 DUP1 SLOAD PUSH1 0x1 PUSH1 0x1 PUSH1 0xA0 SHL SUB NOT AND DUP3 OR SWAP1 SSTORE PUSH32 0x439162378682C6392215882CF21E973F49063ED3530A31D763835A2E9F6D17E DUP3 DUP1 LOG2 DUP1 RETURN JUMPDEST SWAP1 PUSH1 0x20 PUSH1 0x64 SWAP3 MLOAD SWAP2 PUSH3 0x461BCD PUSH1 0xE5 SHL DUP4 MSTORE DUP3 ADD MSTORE PUSH1 0x12 PUSH1 0x24 DUP3 ADD MSTORE PUSH18 0x125B9D985B1A5908199959481DD85B1B195D PUSH1 0x72 SHL PUSH1 0x44 DUP3 ADD MSTORE REVERT JUMPDEST SWAP1 POP CALLVALUE PUSH2 0x1B4 JUMPI PUSH1 0x20 CALLDATASIZE PUSH1 0x3 NOT ADD SLT PUSH2 0x1B4 JUMPI PUSH1 0xC0 SWAP3 PUSH1 0x1 PUSH1 0x1 PUSH1 0xA0 SHL SUB SWAP3 PUSH1 0xFF SWAP3 SWAP1 SWAP2 DUP3 SWAP1 DUP6 PUSH2 0xA8D PUSH2 0xE99 JUMP JUMPDEST AND DUP2 MSTORE PUSH1 0x3 PUSH1 0x20 MSTORE KECCAK256 SWAP1 DUP5 DUP3 SLOAD AND SWAP5 PUSH1 0x1 DUP4 ADD SLOAD AND SWAP3 PUSH1 0x2 DUP4 ADD SLOAD SWAP2 PUSH1 0x3 DUP5 ADD SLOAD SWAP4 ADD SLOAD SWAP4 DUP2 MLOAD SWAP7 DUP8 MSTORE PUSH1 0x20 DUP8 ADD MSTORE DUP6 ADD MSTORE PUSH1 0x60 DUP5 ADD MSTORE DUP2 DUP2 AND ISZERO ISZERO PUSH1 0x80 DUP5 ADD MSTORE PUSH1 0x8 SHR AND ISZERO ISZERO PUSH1 0xA0 DUP3 ADD MSTORE RETURN JUMPDEST POP POP CALLVALUE PUSH2 0x10E JUMPI DUP2 PUSH1 0x3 NOT CALLDATASIZE ADD SLT PUSH2 0x10E JUMPI SWAP1 SLOAD SWAP1 MLOAD PUSH1 0x1 PUSH1 0x1 PUSH1 0xA0 SHL SUB SWAP1 SWAP2 AND DUP2 MSTORE PUSH1 0x20 SWAP1 RETURN JUMPDEST DUP4 CALLVALUE PUSH2 0xB5D JUMPI DUP1 PUSH1 0x3 NOT CALLDATASIZE ADD SLT PUSH2 0xB5D JUMPI PUSH2 0xB1C PUSH2 0xEB4 JUMP JUMPDEST DUP1 SLOAD PUSH1 0x1 PUSH1 0x1 PUSH1 0xA0 SHL SUB NOT DUP2 AND DUP3 SSTORE DUP2 SWAP1 PUSH1 0x1 PUSH1 0x1 PUSH1 0xA0 SHL SUB AND PUSH32 0x8BE0079C531659141344CD1FD0A4F28419497F9722A3DAAFE3B4186F6B6457E0 DUP3 DUP1 LOG3 DUP1 RETURN JUMPDEST DUP1 REVERT JUMPDEST DUP4 SWAP2 POP CALLVALUE PUSH2 0x10E JUMPI DUP3 PUSH1 0x3 NOT CALLDATASIZE ADD SLT PUSH2 0x10E JUMPI PUSH2 0xB7B PUSH2 0xE99 JUMP JUMPDEST SWAP1 PUSH1 0x24 SWAP4 DUP5 CALLDATALOAD SWAP3 PUSH2 0xB8A PUSH2 0x100F JUMP JUMPDEST PUSH1 0x1 DUP1 PUSH1 0xA0 SHL SUB DUP1 SWAP2 AND SWAP3 DUP4 DUP7 MSTORE PUSH1 0x20 SWAP1 PUSH1 0x3 DUP3 MSTORE DUP4 DUP8 KECCAK256 SWAP3 PUSH2 0xBB1 DUP2 DUP6 SLOAD AND ISZERO ISZERO PUSH2 0xF18 JUMP JUMPDEST PUSH2 0xBC4 PUSH1 0xFF DUP4 DUP7 ADD SLOAD PUSH1 0x8 SHR AND ISZERO PUSH2 0xF57 JUMP JUMPDEST DUP7 ISZERO PUSH2 0xD99 JUMPI DUP5 MLOAD PUSH4 0x23B872DD PUSH1 0xE0 SHL DUP2 MSTORE CALLER DUP4 DUP3 ADD MSTORE ADDRESS DUP11 DUP3 ADD MSTORE PUSH1 0x44 DUP2 ADD DUP9 SWAP1 MSTORE DUP4 DUP2 PUSH1 0x64 DUP2 DUP13 DUP12 GAS CALL SWAP1 DUP2 ISZERO PUSH2 0xD8F JUMPI DUP10 SWAP2 PUSH2 0xD72 JUMPI JUMPDEST POP ISZERO PUSH2 0xD41 JUMPI PUSH1 0x2 DUP5 ADD DUP1 SLOAD SWAP5 PUSH8 0x6F05B59D3B20000 DUP7 DUP2 ADD DUP1 SWAP2 GT PUSH2 0xD2F JUMPI PUSH2 0xC53 SWAP2 PUSH1 0x3 PUSH2 0xC2F DUP13 SWAP4 DUP5 PUSH2 0xF94 JUMP JUMPDEST SWAP2 ADD SWAP4 PUSH2 0xC4C PUSH2 0xC45 DUP7 SLOAD SWAP4 PUSH2 0x324 DUP7 DUP7 PUSH2 0xFEA JUMP JUMPDEST DUP1 SWAP11 PUSH2 0xFDD JUMP JUMPDEST SWAP1 SSTORE PUSH2 0xFEA JUMP JUMPDEST SWAP1 SSTORE PUSH1 0x1 SLOAD AND SWAP8 CALLER DUP10 SUB PUSH2 0xCD7 JUMPI POP POP PUSH2 0xCA7 DUP7 SWAP8 PUSH32 0xA082022E93CFCD9F1DA5F9236718053910F7E840DA080C789C7845698DC032FF SWAP6 SWAP7 SWAP8 SWAP1 JUMPDEST PUSH2 0xC98 DUP3 DUP7 PUSH2 0xFDD JUMP JUMPDEST SWAP2 DUP1 PUSH2 0xCC7 JUMPI JUMPDEST POP POP CALLER PUSH2 0x1466 JUMP JUMPDEST DUP3 MLOAD SWAP6 DUP7 MSTORE DUP6 ADD MSTORE CALLER SWAP4 LOG3 PUSH1 0x1 PUSH1 0x0 DUP1 MLOAD PUSH1 0x20 PUSH2 0x1514 DUP4 CODECOPY DUP2 MLOAD SWAP2 MSTORE SSTORE DUP1 RETURN JUMPDEST PUSH2 0xCD0 SWAP2 PUSH2 0x1466 JUMP JUMPDEST DUP10 DUP1 PUSH2 0xC9F JUMP JUMPDEST PUSH1 0x5 DUP5 MUL SWAP2 DUP5 DUP4 DIV PUSH1 0x5 EQ DUP6 ISZERO OR ISZERO PUSH2 0xD1E JUMPI POP POP PUSH32 0xA082022E93CFCD9F1DA5F9236718053910F7E840DA080C789C7845698DC032FF SWAP5 SWAP6 SWAP7 SWAP8 PUSH1 0x64 PUSH2 0xCA7 SWAP3 DIV SWAP1 PUSH2 0xC8E JUMP JUMPDEST PUSH4 0x4E487B71 PUSH1 0xE0 SHL DUP10 MSTORE PUSH1 0x11 SWAP1 MSTORE DUP8 REVERT JUMPDEST PUSH4 0x4E487B71 PUSH1 0xE0 SHL DUP12 MSTORE PUSH1 0x11 DUP6 MSTORE DUP12 DUP12 REVERT JUMPDEST POP PUSH1 0xD DUP9 PUSH1 0x64 SWAP4 DUP7 MLOAD SWAP4 PUSH3 0x461BCD PUSH1 0xE5 SHL DUP6 MSTORE DUP5 ADD MSTORE DUP3 ADD MSTORE PUSH13 0x151C985B9CD9995C8819985A5B PUSH1 0x9A SHL PUSH1 0x44 DUP3 ADD MSTORE REVERT JUMPDEST PUSH2 0xD89 SWAP2 POP DUP5 RETURNDATASIZE DUP7 GT PUSH2 0x510 JUMPI PUSH2 0x502 DUP2 DUP4 PUSH2 0xEE0 JUMP JUMPDEST DUP11 PUSH2 0xBFE JUMP JUMPDEST DUP7 MLOAD RETURNDATASIZE DUP12 DUP3 RETURNDATACOPY RETURNDATASIZE SWAP1 REVERT JUMPDEST POP PUSH1 0xE DUP9 PUSH1 0x64 SWAP4 DUP7 MLOAD SWAP4 PUSH3 0x461BCD PUSH1 0xE5 SHL DUP6 MSTORE DUP5 ADD MSTORE DUP3 ADD MSTORE PUSH14 0x125B9D985B1A5908185B5BDD5B9D PUSH1 0x92 SHL PUSH1 0x44 DUP3 ADD MSTORE REVERT JUMPDEST SWAP2 SWAP1 POP CALLVALUE PUSH2 0x1B4 JUMPI DUP1 PUSH1 0x3 NOT CALLDATASIZE ADD SLT PUSH2 0x1B4 JUMPI PUSH2 0xDE6 PUSH2 0xE99 JUMP JUMPDEST SWAP1 PUSH1 0x24 CALLDATALOAD SWAP1 DUP2 ISZERO ISZERO SWAP1 DUP2 DUP4 SUB PUSH2 0x9B4 JUMPI PUSH2 0xE48 PUSH1 0x20 SWAP4 PUSH32 0x6B489C12F59A99312AB950FDDABE529A090208050382DF653584944EA5F78B35 SWAP6 PUSH2 0xE26 PUSH2 0xEB4 JUMP JUMPDEST PUSH1 0x1 DUP1 PUSH1 0xA0 SHL SUB AND SWAP7 DUP8 DUP10 MSTORE DUP6 MSTORE DUP3 DUP9 KECCAK256 SWAP1 PUSH1 0xFF DUP1 NOT DUP4 SLOAD AND SWAP2 ISZERO ISZERO AND OR SWAP1 SSTORE JUMP JUMPDEST MLOAD SWAP1 DUP2 MSTORE LOG2 DUP1 RETURN JUMPDEST POP POP CALLVALUE PUSH2 0x10E JUMPI DUP2 PUSH1 0x3 NOT CALLDATASIZE ADD SLT PUSH2 0x10E JUMPI PUSH1 0x20 SWAP1 MLOAD PUSH8 0x6F05B59D3B20000 DUP2 MSTORE RETURN JUMPDEST DUP5 SWAP1 CALLVALUE PUSH2 0x10E JUMPI DUP2 PUSH1 0x3 NOT CALLDATASIZE ADD SLT PUSH2 0x10E JUMPI DUP1 PUSH12 0x33B2E3C9FD0803CE8000000 PUSH1 0x20 SWAP3 MSTORE RETURN JUMPDEST PUSH1 0x4 CALLDATALOAD SWAP1 PUSH1 0x1 PUSH1 0x1 PUSH1 0xA0 SHL SUB DUP3 AND DUP3 SUB PUSH2 0xEAF JUMPI JUMP JUMPDEST PUSH1 0x0 DUP1 REVERT JUMPDEST PUSH1 0x0 SLOAD PUSH1 0x1 PUSH1 0x1 PUSH1 0xA0 SHL SUB AND CALLER SUB PUSH2 0xEC8 JUMPI JUMP JUMPDEST PUSH1 0x40 MLOAD PUSH4 0x118CDAA7 PUSH1 0xE0 SHL DUP2 MSTORE CALLER PUSH1 0x4 DUP3 ADD MSTORE PUSH1 0x24 SWAP1 REVERT JUMPDEST SWAP1 PUSH1 0x1F DUP1 NOT SWAP2 ADD AND DUP2 ADD SWAP1 DUP2 LT PUSH8 0xFFFFFFFFFFFFFFFF DUP3 GT OR PUSH2 0xF02 JUMPI PUSH1 0x40 MSTORE JUMP JUMPDEST PUSH4 0x4E487B71 PUSH1 0xE0 SHL PUSH1 0x0 MSTORE PUSH1 0x41 PUSH1 0x4 MSTORE PUSH1 0x24 PUSH1 0x0 REVERT JUMPDEST ISZERO PUSH2 0xF1F JUMPI JUMP JUMPDEST PUSH1 0x40 MLOAD PUSH3 0x461BCD PUSH1 0xE5 SHL DUP2 MSTORE PUSH1 0x20 PUSH1 0x4 DUP3 ADD MSTORE PUSH1 0x10 PUSH1 0x24 DUP3 ADD MSTORE PUSH16 0x13585C9AD95D081B9BDD08199BDD5B99 PUSH1 0x82 SHL PUSH1 0x44 DUP3 ADD MSTORE PUSH1 0x64 SWAP1 REVERT JUMPDEST ISZERO PUSH2 0xF5E JUMPI JUMP JUMPDEST PUSH1 0x40 MLOAD PUSH3 0x461BCD PUSH1 0xE5 SHL DUP2 MSTORE PUSH1 0x20 PUSH1 0x4 DUP3 ADD MSTORE PUSH1 0xE PUSH1 0x24 DUP3 ADD MSTORE PUSH14 0x151BDAD95B881B5A59DC985D1959 PUSH1 0x92 SHL PUSH1 0x44 DUP3 ADD MSTORE PUSH1 0x64 SWAP1 REVERT JUMPDEST DUP2 DUP2 MUL SWAP3 SWAP2 DUP2 ISZERO SWAP2 DUP5 DIV EQ OR ISZERO PUSH2 0xFA7 JUMPI JUMP JUMPDEST PUSH4 0x4E487B71 PUSH1 0xE0 SHL PUSH1 0x0 MSTORE PUSH1 0x11 PUSH1 0x4 MSTORE PUSH1 0x24 PUSH1 0x0 REVERT JUMPDEST DUP2 ISZERO PUSH2 0xFC7 JUMPI DIV SWAP1 JUMP JUMPDEST PUSH4 0x4E487B71 PUSH1 0xE0 SHL PUSH1 0x0 MSTORE PUSH1 0x12 PUSH1 0x4 MSTORE PUSH1 0x24 PUSH1 0x0 REVERT JUMPDEST SWAP2 SWAP1 DUP3 SUB SWAP2 DUP3 GT PUSH2 0xFA7 JUMPI JUMP JUMPDEST SWAP2 SWAP1 DUP3 ADD DUP1 SWAP3 GT PUSH2 0xFA7 JUMPI JUMP JUMPDEST SWAP1 DUP2 PUSH1 0x20 SWAP2 SUB SLT PUSH2 0xEAF JUMPI MLOAD DUP1 ISZERO ISZERO DUP2 SUB PUSH2 0xEAF JUMPI SWAP1 JUMP JUMPDEST PUSH1 0x0 DUP1 MLOAD PUSH1 0x20 PUSH2 0x1514 DUP4 CODECOPY DUP2 MLOAD SWAP2 MSTORE PUSH1 0x2 DUP2 SLOAD EQ PUSH2 0x102D JUMPI PUSH1 0x2 SWAP1 SSTORE JUMP JUMPDEST PUSH1 0x40 MLOAD PUSH4 0x3EE5AEB5 PUSH1 0xE0 SHL DUP2 MSTORE PUSH1 0x4 SWAP1 REVERT JUMPDEST PUSH1 0x1 PUSH1 0x1 PUSH1 0xA0 SHL SUB DUP2 AND PUSH1 0x0 DUP2 DUP2 MSTORE PUSH1 0x3 PUSH1 0x20 MSTORE PUSH1 0x40 SWAP1 KECCAK256 PUSH1 0x4 DUP2 ADD DUP1 SLOAD PUSH1 0xFF NOT AND PUSH1 0x1 OR SWAP1 SSTORE SWAP3 DUP1 ISZERO PUSH2 0x10EE JUMPI PUSH1 0x40 PUSH32 0xA05918F619B9FD8CC60E9C88369C0F4EB9A949F105763AAA10A638FFCBE36857 SWAP2 DUP6 PUSH1 0x3 PUSH2 0x10E4 SWAP8 ADD PUSH2 0x10B4 DUP2 SLOAD SWAP3 PUSH1 0x2 PUSH2 0x10AB DUP6 DUP8 PUSH2 0xF94 JUMP JUMPDEST SWAP2 ADD SLOAD SWAP1 PUSH2 0xFBD JUMP JUMPDEST SWAP2 DUP3 DUP2 LT PUSH2 0x10E6 JUMPI JUMPDEST DUP3 PUSH2 0x10C7 SWAP2 PUSH2 0xFDD JUMP JUMPDEST SWAP1 SSTORE PUSH2 0x10D4 DUP2 DUP4 DUP9 PUSH2 0x10F4 JUMP JUMPDEST DUP3 MLOAD SWAP2 DUP3 MSTORE PUSH1 0x20 DUP3 ADD MSTORE LOG2 PUSH2 0x122C JUMP JUMPDEST JUMP JUMPDEST SWAP2 POP DUP2 PUSH2 0x10BD JUMP JUMPDEST POP POP POP POP JUMP JUMPDEST PUSH1 0x2 SLOAD PUSH1 0x1 PUSH1 0x1 PUSH1 0xA0 SHL SUB SWAP4 SWAP1 DUP5 AND SWAP2 DUP3 ISZERO DUP1 ISZERO PUSH2 0x1224 JUMPI JUMPDEST DUP1 ISZERO PUSH2 0x121C JUMPI JUMPDEST PUSH2 0x1215 JUMPI PUSH1 0x40 MLOAD PUSH4 0x95EA7B3 PUSH1 0xE0 SHL DUP2 MSTORE PUSH1 0x1 PUSH1 0x1 PUSH1 0xA0 SHL SUB SWAP4 SWAP1 SWAP4 AND PUSH1 0x4 DUP5 ADD MSTORE PUSH1 0x24 DUP4 ADD DUP3 SWAP1 MSTORE DUP5 AND SWAP2 PUSH1 0x0 SWAP2 SWAP1 PUSH1 0x20 DUP2 PUSH1 0x44 DUP2 DUP7 DUP9 GAS CALL DUP1 ISZERO PUSH2 0x120A JUMPI SWAP1 PUSH1 0x60 SWAP3 SWAP2 PUSH2 0x11EC JUMPI JUMPDEST POP PUSH1 0xC4 DUP7 PUSH1 0x2 SLOAD AND SWAP5 DUP7 DUP9 PUSH1 0x1 SLOAD AND SWAP7 PUSH1 0x40 MLOAD SWAP8 DUP9 SWAP6 DUP7 SWAP5 PUSH4 0xF305D719 PUSH1 0xE0 SHL DUP7 MSTORE PUSH1 0x4 DUP7 ADD MSTORE PUSH1 0x24 DUP6 ADD MSTORE DUP8 PUSH1 0x44 DUP6 ADD MSTORE DUP8 PUSH1 0x64 DUP6 ADD MSTORE PUSH1 0x84 DUP5 ADD MSTORE TIMESTAMP PUSH1 0xA4 DUP5 ADD MSTORE GAS CALL SWAP2 DUP3 PUSH2 0x11C1 JUMPI JUMPDEST POP POP PUSH2 0x11BD JUMPI PUSH2 0x10E4 SWAP2 PUSH1 0x1 SLOAD AND PUSH2 0x1466 JUMP JUMPDEST POP POP JUMP JUMPDEST PUSH1 0x60 SWAP1 DUP2 RETURNDATASIZE DUP2 GT PUSH2 0x11E5 JUMPI JUMPDEST PUSH2 0x11D7 DUP2 DUP4 PUSH2 0xEE0 JUMP JUMPDEST DUP2 ADD SUB SLT PUSH2 0xB5D JUMPI DUP1 PUSH2 0x11AA JUMP JUMPDEST POP RETURNDATASIZE PUSH2 0x11CD JUMP JUMPDEST PUSH2 0x1203 SWAP1 PUSH1 0x20 RETURNDATASIZE DUP2 GT PUSH2 0x510 JUMPI PUSH2 0x502 DUP2 DUP4 PUSH2 0xEE0 JUMP JUMPDEST POP CODESIZE PUSH2 0x115E JUMP JUMPDEST PUSH1 0x40 MLOAD RETURNDATASIZE DUP6 DUP3 RETURNDATACOPY RETURNDATASIZE SWAP1 REVERT JUMPDEST POP POP POP POP POP JUMP JUMPDEST POP DUP2 ISZERO PUSH2 0x1114 JUMP JUMPDEST POP DUP4 ISZERO PUSH2 0x110D JUMP JUMPDEST PUSH1 0x2 SLOAD PUSH1 0x1 PUSH1 0x1 PUSH1 0xA0 SHL SUB SWAP1 DUP2 AND SWAP1 DUP2 ISZERO PUSH2 0x1461 JUMPI PUSH7 0x2386F26FC10000 DUP1 SELFBALANCE LT PUSH2 0x10EE JUMPI PUSH1 0x40 SWAP3 DUP4 MLOAD SWAP3 PUSH1 0x60 DUP5 ADD SWAP2 PUSH8 0xFFFFFFFFFFFFFFFF SWAP3 DUP6 DUP2 LT DUP5 DUP3 GT OR PUSH2 0xF02 JUMPI DUP7 MSTORE PUSH1 0x2 DUP6 MSTORE PUSH1 0x20 SWAP5 DUP6 DUP2 ADD SWAP1 DUP8 CALLDATASIZE DUP4 CALLDATACOPY DUP8 MLOAD PUSH4 0x15AB88C9 PUSH1 0xE3 SHL DUP2 MSTORE DUP8 DUP2 PUSH1 0x4 DUP2 DUP8 GAS STATICCALL SWAP1 DUP2 ISZERO PUSH2 0x1456 JUMPI PUSH1 0x0 SWAP2 PUSH2 0x1420 JUMPI JUMPDEST POP DUP2 MLOAD ISZERO PUSH2 0x140A JUMPI DUP5 AND DUP3 MSTORE DUP1 MLOAD SWAP9 PUSH1 0x1 SWAP10 DUP11 LT ISZERO PUSH2 0x140A JUMPI DUP5 AND DUP9 DUP3 ADD DUP2 SWAP1 MSTORE DUP10 SLOAD DUP10 MLOAD PUSH4 0x7FF36AB5 PUSH1 0xE0 SHL DUP2 MSTORE PUSH1 0x0 PUSH1 0x4 DUP3 ADD DUP2 SWAP1 MSTORE PUSH1 0x80 PUSH1 0x24 DUP4 ADD MSTORE SWAP4 MLOAD PUSH1 0x84 DUP3 ADD DUP2 SWAP1 MSTORE SWAP3 SWAP12 SWAP1 SWAP7 PUSH1 0xA4 DUP9 ADD SWAP7 DUP9 SWAP7 SWAP1 SWAP6 DUP12 SWAP6 SWAP5 DUP4 AND SWAP5 SWAP2 SWAP4 SWAP3 JUMPDEST DUP14 DUP4 DUP4 LT PUSH2 0x13ED JUMPI POP POP POP POP POP POP SWAP1 DUP4 PUSH1 0x0 SWAP6 DUP2 SWAP4 PUSH1 0x44 DUP4 ADD MSTORE TIMESTAMP PUSH1 0x64 DUP4 ADD MSTORE SUB SWAP3 GAS CALL SWAP2 DUP3 PUSH2 0x136A JUMPI JUMPDEST POP POP PUSH2 0x133A JUMPI POP POP POP POP JUMP JUMPDEST PUSH32 0x54BDEB371131DFFF66AD7D753CF798CE165AA0451A4EE488A7ABD7646C4EB140 SWAP3 MLOAD SWAP1 DUP2 MSTORE LOG2 CODESIZE DUP1 DUP1 DUP1 PUSH2 0x10EE JUMP JUMPDEST RETURNDATASIZE DUP1 PUSH1 0x0 DUP5 RETURNDATACOPY PUSH2 0x137A DUP2 DUP5 PUSH2 0xEE0 JUMP JUMPDEST DUP3 ADD SWAP2 DUP6 DUP2 DUP5 SUB SLT PUSH2 0xEAF JUMPI DUP1 MLOAD SWAP1 DUP3 DUP3 GT PUSH2 0xEAF JUMPI ADD DUP3 PUSH1 0x1F DUP3 ADD SLT ISZERO PUSH2 0xEAF JUMPI DUP1 MLOAD SWAP2 DUP3 GT PUSH2 0xF02 JUMPI DUP6 DUP1 DUP4 PUSH1 0x5 SHL SWAP4 DUP10 MLOAD SWAP1 PUSH2 0x13BB DUP4 DUP8 ADD DUP4 PUSH2 0xEE0 JUMP JUMPDEST DUP2 MSTORE ADD SWAP3 DUP3 ADD ADD SWAP3 DUP4 GT PUSH2 0xEAF JUMPI DUP6 DUP1 SWAP2 ADD SWAP2 JUMPDEST DUP4 DUP4 LT PUSH2 0x13DD JUMPI POP POP PUSH2 0x132E JUMP JUMPDEST DUP3 MLOAD DUP2 MSTORE SWAP2 DUP2 ADD SWAP2 DUP7 SWAP2 ADD PUSH2 0x13CF JUMP JUMPDEST DUP6 MLOAD DUP3 AND DUP12 MSTORE SWAP10 DUP11 ADD SWAP10 DUP12 SWAP10 POP DUP14 SWAP8 POP SWAP1 SWAP5 ADD SWAP4 SWAP1 DUP4 ADD SWAP1 PUSH2 0x1303 JUMP JUMPDEST PUSH4 0x4E487B71 PUSH1 0xE0 SHL PUSH1 0x0 MSTORE PUSH1 0x32 PUSH1 0x4 MSTORE PUSH1 0x24 PUSH1 0x0 REVERT JUMPDEST DUP9 DUP2 DUP2 RETURNDATASIZE DUP4 GT PUSH2 0x144F JUMPI JUMPDEST PUSH2 0x1435 DUP2 DUP4 PUSH2 0xEE0 JUMP JUMPDEST DUP2 ADD SUB SLT PUSH2 0x10E JUMPI MLOAD SWAP1 DUP6 DUP3 AND DUP3 SUB PUSH2 0xB5D JUMPI POP CODESIZE PUSH2 0x12A4 JUMP JUMPDEST POP RETURNDATASIZE PUSH2 0x142B JUMP JUMPDEST DUP10 MLOAD RETURNDATASIZE PUSH1 0x0 DUP3 RETURNDATACOPY RETURNDATASIZE SWAP1 REVERT JUMPDEST POP POP POP JUMP JUMPDEST DUP2 ISZERO PUSH2 0x11BD JUMPI PUSH1 0x0 DUP1 DUP1 DUP1 SWAP5 DUP2 SWAP5 PUSH1 0x1 DUP1 PUSH1 0xA0 SHL SUB AND GAS CALL SWAP1 RETURNDATASIZE ISZERO PUSH2 0x150D JUMPI RETURNDATASIZE SWAP1 PUSH8 0xFFFFFFFFFFFFFFFF DUP3 GT PUSH2 0x14F9 JUMPI PUSH1 0x40 MLOAD SWAP2 PUSH2 0x14AE PUSH1 0x1F DUP3 ADD PUSH1 0x1F NOT AND PUSH1 0x20 ADD DUP5 PUSH2 0xEE0 JUMP JUMPDEST DUP3 MSTORE PUSH1 0x20 RETURNDATASIZE SWAP3 ADD RETURNDATACOPY JUMPDEST ISZERO PUSH2 0x14BE JUMPI JUMP JUMPDEST PUSH1 0x40 MLOAD PUSH3 0x461BCD PUSH1 0xE5 SHL DUP2 MSTORE PUSH1 0x20 PUSH1 0x4 DUP3 ADD MSTORE PUSH1 0x13 PUSH1 0x24 DUP3 ADD MSTORE PUSH19 0x109390881D1C985B9CD9995C8819985A5B1959 PUSH1 0x6A SHL PUSH1 0x44 DUP3 ADD MSTORE PUSH1 0x64 SWAP1 REVERT JUMPDEST PUSH4 0x4E487B71 PUSH1 0xE0 SHL DUP2 MSTORE PUSH1 0x41 PUSH1 0x4 MSTORE PUSH1 0x24 SWAP1 REVERT JUMPDEST POP PUSH2 0x14B7 JUMP INVALID SWAP12 PUSH24 0x9B17422D0DF92223018B32B4D1FA46E071723D6817E2486D STOP EXTCODESIZE 0xEC 0xC5 PUSH0 STOP LOG2 PUSH5 0x6970667358 0x22 SLT KECCAK256 INVALID PUSH19 0x79D2D587A3E6E675A1C44C0714F46186B59F75 CALLDATALOAD 0x5C DUP13 SHL 0xB5 AND 0xEF PUSH13 0xA7DB4964736F6C634300081400 CALLER "},"methodIdentifiers":{"LP_INIT_THRESHOLD()":"fb7f9787","MAX_SUPPLY()":"32cb6b0c","VIRTUAL_BNB()":"43d47a5e","authorizedFactories(address)":"ecd24a82","buy(address)":"f088d547","feeWallet()":"f25f4b56","launchToken(address,address)":"962c165f","markets(address)":"8e8f294b","owner()":"8da5cb5b","pancakeRouter()":"c21ebd07","renounceOwnership()":"715018a6","sell(address,uint256)":"6c197ff5","setAuthorizedFactory(address,bool)":"5c85c588","setFeeWallet(address)":"90d49b9d","setPancakeRouter(address)":"f8316c90","sweepAllBNB()":"c535c7ed","transferOwnership(address)":"f2fde38b"}}}}}