{"contracts/TokenFactory.sol":{"TokenFactory":{"abi":[{"inputs":[{"internalType":"address","name":"_bondingCurve","type":"address"},{"internalType":"address","name":"_feeWallet","type":"address"},{"internalType":"address","name":"_owner","type":"address"}],"stateMutability":"nonpayable","type":"constructor"},{"inputs":[{"internalType":"address","name":"owner","type":"address"}],"name":"OwnableInvalidOwner","type":"error"},{"inputs":[{"internalType":"address","name":"account","type":"address"}],"name":"OwnableUnauthorizedAccount","type":"error"},{"anonymous":false,"inputs":[{"indexed":true,"internalType":"address","name":"newBondingCurve","type":"address"}],"name":"BondingCurveUpdated","type":"event"},{"anonymous":false,"inputs":[{"indexed":true,"internalType":"address","name":"user","type":"address"},{"indexed":false,"internalType":"uint256","name":"amount","type":"uint256"},{"indexed":false,"internalType":"string","name":"reason","type":"string"}],"name":"FeeCollected","type":"event"},{"anonymous":false,"inputs":[{"indexed":true,"internalType":"address","name":"newFeeWallet","type":"address"}],"name":"FeeWalletUpdated","type":"event"},{"anonymous":false,"inputs":[{"indexed":false,"internalType":"uint256","name":"deploymentFee","type":"uint256"},{"indexed":false,"internalType":"uint256","name":"minInitialBuy","type":"uint256"},{"indexed":false,"internalType":"uint256","name":"upgradeFee","type":"uint256"}],"name":"FeesUpdated","type":"event"},{"anonymous":false,"inputs":[{"indexed":true,"internalType":"address","name":"previousOwner","type":"address"},{"indexed":true,"internalType":"address","name":"newOwner","type":"address"}],"name":"OwnershipTransferred","type":"event"},{"anonymous":false,"inputs":[{"indexed":true,"internalType":"address","name":"user","type":"address"},{"indexed":false,"internalType":"bool","name":"status","type":"bool"}],"name":"PermissionGranted","type":"event"},{"anonymous":false,"inputs":[{"indexed":true,"internalType":"address","name":"tokenAddress","type":"address"},{"indexed":false,"internalType":"string","name":"name","type":"string"},{"indexed":false,"internalType":"string","name":"symbol","type":"string"},{"indexed":false,"internalType":"uint256","name":"supply","type":"uint256"},{"indexed":true,"internalType":"address","name":"creator","type":"address"},{"indexed":false,"internalType":"uint256","name":"deploymentFee","type":"uint256"},{"indexed":false,"internalType":"uint256","name":"initialBuyBnb","type":"uint256"}],"name":"TokenCreated","type":"event"},{"anonymous":false,"inputs":[{"indexed":true,"internalType":"address","name":"tokenAddress","type":"address"},{"indexed":true,"internalType":"address","name":"creator","type":"address"},{"indexed":false,"internalType":"uint256","name":"feePaid","type":"uint256"}],"name":"TokenUpgraded","type":"event"},{"inputs":[],"name":"DEPLOYMENT_FEE","outputs":[{"internalType":"uint256","name":"","type":"uint256"}],"stateMutability":"view","type":"function"},{"inputs":[],"name":"MIN_INITIAL_BUY","outputs":[{"internalType":"uint256","name":"","type":"uint256"}],"stateMutability":"view","type":"function"},{"inputs":[],"name":"UPGRADE_FEE","outputs":[{"internalType":"uint256","name":"","type":"uint256"}],"stateMutability":"view","type":"function"},{"inputs":[{"internalType":"uint256","name":"","type":"uint256"}],"name":"allTokens","outputs":[{"internalType":"address","name":"","type":"address"}],"stateMutability":"view","type":"function"},{"inputs":[],"name":"bondingCurve","outputs":[{"internalType":"address","name":"","type":"address"}],"stateMutability":"view","type":"function"},{"inputs":[{"internalType":"address","name":"user","type":"address"},{"internalType":"uint256","name":"amount","type":"uint256"},{"internalType":"string","name":"reason","type":"string"}],"name":"collectFee","outputs":[],"stateMutability":"nonpayable","type":"function"},{"inputs":[{"internalType":"address","name":"token","type":"address"},{"internalType":"address","name":"user","type":"address"},{"internalType":"uint256","name":"amount","type":"uint256"},{"internalType":"string","name":"reason","type":"string"}],"name":"collectToken","outputs":[],"stateMutability":"nonpayable","type":"function"},{"inputs":[{"internalType":"string","name":"name","type":"string"},{"internalType":"string","name":"symbol","type":"string"}],"name":"createToken","outputs":[{"internalType":"address","name":"tokenAddress","type":"address"}],"stateMutability":"payable","type":"function"},{"inputs":[{"internalType":"address","name":"","type":"address"}],"name":"creatorOf","outputs":[{"internalType":"address","name":"","type":"address"}],"stateMutability":"view","type":"function"},{"inputs":[],"name":"feeWallet","outputs":[{"internalType":"address","name":"","type":"address"}],"stateMutability":"view","type":"function"},{"inputs":[],"name":"getAllTokens","outputs":[{"internalType":"address[]","name":"","type":"address[]"}],"stateMutability":"view","type":"function"},{"inputs":[{"internalType":"address","name":"creator","type":"address"}],"name":"getTokensByCreator","outputs":[{"internalType":"address[]","name":"","type":"address[]"}],"stateMutability":"view","type":"function"},{"inputs":[{"internalType":"address","name":"","type":"address"}],"name":"isLinked","outputs":[{"internalType":"bool","name":"","type":"bool"}],"stateMutability":"view","type":"function"},{"inputs":[],"name":"linkProtocol","outputs":[],"stateMutability":"nonpayable","type":"function"},{"inputs":[],"name":"owner","outputs":[{"internalType":"address","name":"","type":"address"}],"stateMutability":"view","type":"function"},{"inputs":[],"name":"renounceOwnership","outputs":[],"stateMutability":"nonpayable","type":"function"},{"inputs":[{"internalType":"address","name":"_bondingCurve","type":"address"}],"name":"setBondingCurve","outputs":[],"stateMutability":"nonpayable","type":"function"},{"inputs":[{"internalType":"address","name":"_feeWallet","type":"address"}],"name":"setFeeWallet","outputs":[],"stateMutability":"nonpayable","type":"function"},{"inputs":[{"internalType":"uint256","name":"_deploymentFee","type":"uint256"},{"internalType":"uint256","name":"_minInitialBuy","type":"uint256"},{"internalType":"uint256","name":"_upgradeFee","type":"uint256"}],"name":"setFees","outputs":[],"stateMutability":"nonpayable","type":"function"},{"inputs":[{"internalType":"address","name":"","type":"address"},{"internalType":"uint256","name":"","type":"uint256"}],"name":"tokensByCreator","outputs":[{"internalType":"address","name":"","type":"address"}],"stateMutability":"view","type":"function"},{"inputs":[],"name":"totalTokens","outputs":[{"internalType":"uint256","name":"","type":"uint256"}],"stateMutability":"view","type":"function"},{"inputs":[{"internalType":"address","name":"newOwner","type":"address"}],"name":"transferOwnership","outputs":[],"stateMutability":"nonpayable","type":"function"},{"inputs":[{"internalType":"address","name":"tokenAddress","type":"address"}],"name":"upgradeToken","outputs":[],"stateMutability":"payable","type":"function"}],"evm":{"bytecode":{"linkReferences":{},"object":"60803461019c57601f620022a338819003918201601f191683019291906001600160401b038411838510176101a157816060928492604096875283398101031261019c5761004c816101b7565b908261005a602083016101b7565b916001600160a01b0391829161007091016101b7565b1691821561018457816000549460018060a01b031994808688161760005582885197167f8be0079c531659141344cd1fd0a4f28419497f9722a3daafe3b4186f6b6457e0600080a3660aa87bee53800060015566b1a2bc2ec50000600255662386f26fc1000060035516938415610142575016918215610109578160045416176004556005541617600555516120d79081620001cc8239f35b835162461bcd60e51b8152602060048201526012602482015271125b9d985b1a5908199959481dd85b1b195d60721b6044820152606490fd5b62461bcd60e51b815260206004820152601560248201527f496e76616c696420626f6e64696e6720637572766500000000000000000000006044820152606490fd5b8451631e4fbdf760e01b815260006004820152602490fd5b600080fd5b634e487b7160e01b600052604160045260246000fd5b51906001600160a01b038216820361019c5756fe60806040818152600491823610156200001757600080fd5b600092833560e01c9182632a5c792a1462000e30575081632f2f2d5614620009d657816339457b50146200097e57816343ff1fb8146200090757816359475e7714620008e6578163634282af14620008885781636ee31a18146200078a578163715018a6146200072c5781637e1c0c09146200070b5781638da5cb5b14620006e157816390d49b9d146200066a5781639f3043c314620005ac578163a4b41c8a146200058b578163a8f32251146200056a578163b8d38253146200040c578163cec10c1114620003a2578163d5c712751462000311578163d80d03a214620002ae578163dea5c2e0146200026f578163eff1d50e1462000245578163f25f4b56146200021a578163f2fde38b146200017e575063fb1afbd7146200013a57600080fd5b346200017a5760203660031901126200017a5760209160ff9082906001600160a01b036200016762000f2d565b1681526009855220541690519015158152f35b5080fd5b9050346200021657602036600319011262000216576200019d62000f2d565b90620001a862000f73565b6001600160a01b0391821692831562000200575050600054826bffffffffffffffffffffffff60a01b821617600055167f8be0079c531659141344cd1fd0a4f28419497f9722a3daafe3b4186f6b6457e0600080a380f35b51631e4fbdf760e01b8152908101849052602490fd5b8280fd5b5050346200017a57816003193601126200017a5760055490516001600160a01b039091168152602090f35b90503462000216578260031936011262000216575490516001600160a01b03909116815260209150f35b5050346200017a5760203660031901126200017a576020916001600160a01b03908290826200029d62000f2d565b168152600885522054169051908152f35b5050346200017a57806003193601126200017a57620002cc62000f2d565b6001600160a01b0390811683526007602052818320805460243594908510156200030e5750602093620002ff9162000f44565b92905490519260031b1c168152f35b80fd5b5050346200017a576020908160031936011262000216576001600160a01b0392836200033c62000f2d565b16815260078352818120938251908194808754938481520196845280842093915b838310620003885762000384878762000379828c03836200102b565b519182918262000eb6565b0390f35b84548116885296810196600194850194909201916200035d565b9050346200021657606036600319011262000216577fcf8a1e1d5f09cf3c97dbb653cd9a4d7aace9292fbc1bb8211febf2d400febbdd91606091359060443590602435620003ef62000f73565b83600155806002558260035581519384526020840152820152a180f35b9050346200021657608036600319011262000216576200042b62000f2d565b916024359260018060a01b039283851680950362000565578592604435926064359567ffffffffffffffff87116200056157876200046f6064983690870162000efc565b9890956200047c62000f73565b8289526020988994600986526200049960ff89842054166200104e565b806005541696885197889687956323b872dd60e01b875286015260248501528a6044850152165af18015620005575762000511575b50907fbde344b6f67c3bf7e0ecbbf22b04267d5d3ae0aa1909c0000b812f6b14ce45b99482806200050b9451968796875286015284019162000fdf565b0390a280f35b8481819493943d83116200054f575b6200052c81836200102b565b810103126200054b57518015150362000547579038620004ce565b8680fd5b8780fd5b503d62000520565b82513d8a823e3d90fd5b8580fd5b600080fd5b5050346200017a57816003193601126200017a576020906001549051908152f35b5050346200017a57816003193601126200017a576020906003549051908152f35b905034620002165760603660031901126200021657620005cb62000f2d565b916024356044359267ffffffffffffffff84116200056157620006176200050b917fbde344b6f67c3bf7e0ecbbf22b04267d5d3ae0aa1909c0000b812f6b14ce45b99536910162000efc565b6200062162000f73565b620006548460018060a01b0380991698898b5260096020526200064a60ff898d2054166200104e565b600554166200108d565b8451948594855280602086015284019162000fdf565b83346200030e5760203660031901126200030e576200068862000f2d565b6200069262000f73565b6001600160a01b0316620006a881151562000fa0565b600580546001600160a01b031916821790557f29acee77dafcfa0143d74a7ea236018f3a6e1fa71e27fc59bbfbc6b8ca8edccd8280a280f35b5050346200017a57816003193601126200017a57905490516001600160a01b039091168152602090f35b5050346200017a57816003193601126200017a576020906006549051908152f35b83346200030e57806003193601126200030e576200074962000f73565b600080546001600160a01b0319811682556001600160a01b03167f8be0079c531659141344cd1fd0a4f28419497f9722a3daafe3b4186f6b6457e08280a380f35b91905060203660031901126200021657620007a462000f2d565b600354341062000845576001600160a01b03908116808552600860205282852054909390821615620008105750620007e2903490600554166200108d565b51903482527f89e75c42f7cca6a6e4ad53c63f1b4a422ba2cc998dd8b5a3234dfcd95cc163c960203393a380f35b606490602084519162461bcd60e51b8352820152600f60248201526e151bdad95b881b9bdd08199bdd5b99608a1b6044820152fd5b815162461bcd60e51b8152602081850152601860248201527f496e73756666696369656e7420757067726164652066656500000000000000006044820152606490fd5b90503462000216576020366003190112620002165735600654811015620002165760066000527ff652222313e28459528d920b65115c16c04f3efc82aaedc97be59f3f377c0d3f015490516001600160a01b03909116815260209150f35b5050346200017a57816003193601126200017a576020906002549051908152f35b8390346200017a5760203660031901126200017a576200092662000f2d565b6200093062000f73565b6001600160a01b0316906200094782151562000fa0565b80546001600160a01b031916821790557fc4fda5d836a9aaafabd3088c5f5dcabfe179c3b392b09dbac0e8727667f3c7768280a280f35b5050346200017a57816003193601126200017a573382526009602052808220600160ff1982541617905551600181527f9896b4eed33ea0bcc03386bf8d03b92659362f6180a8671a40cfe4ed5159e2dd60203392a280f35b839150826003193601126200017a5767ffffffffffffffff92813584811162000cbd5762000a08903690840162000efc565b939060249182358781116200017a5762000a26903690870162000efc565b909160018060a01b0396876005541695863314968760001462000e265783975b1562000e0357835b341062000db0578a1562000d7e57841562000d4a57878062000d37575b5050888254169a8960055416895191610f67808401918483109083111762000cf7579160a08e9f928d9e9f62000ab78d62000ac79289986200113b8a3960c0855260c085019162000fdf565b82810360208401528b8d62000fdf565b93633b9aca009e8f9083015233606083015260808201520152039084f0801562000d2d578a169960065468010000000000000000908181101562000d1b57600181018060065581101562000d09577ff652222313e28459528d920b65115c16c04f3efc82aaedc97be59f3f377c0d3f0180546001600160a01b03199081168e1790915533865260076020528b86208054919282101562000cf7578162000b74918f93600101815562000f44565b84829392549160031b92831b921b19161790558b855260086020528a852090339082541617905580835416803b1562000cf35784809160448e8e51948593849263962c165f60e01b84528a84015233898401525af1801562000ce95762000cd3575b508734039734891162000cc157340362000c5f575b50505050927fa1fdd9d625a3d9910d1d8f8431da95fb346446dc9687e2f12468dd20cc4691a39262000c4460209993899662000c36600154948b519760a0895260a089019162000fdf565b918683038d88015262000fdf565b9587840152606083015260808201528033940390a351908152f35b82541691823b1562000cbd5783918b91898c51958694859363f088d54760e01b85528401525af1801562000cb35762000c9b575b808062000beb565b62000ca7829162001000565b6200030e578062000c93565b88513d84823e3d90fd5b8380fd5b634e487b7160e01b8552601184528285fd5b62000ce19094919462001000565b928c62000bd6565b8b513d87823e3d90fd5b8480fd5b634e487b7160e01b8752604186528487fd5b634e487b7160e01b8652603285528386fd5b634e487b7160e01b8652604185528386fd5b89513d85823e3d90fd5b62000d42916200108d565b8b8762000a6b565b885162461bcd60e51b8152602081850152600f818401526e14de5b589bdb081c995c5d5a5c9959608a1b6044820152606490fd5b885162461bcd60e51b8152602081850152600d818401526c13985b59481c995c5d5a5c9959609a1b6044820152606490fd5b885162461bcd60e51b81526020818501526028818401527f496e73756666696369656e7420424e423a206e65656420666565202b20696e696044820152677469616c2062757960c01b6064820152608490fd5b60015460025481018091111562000a4e57634e487b7160e01b8552601184528285fd5b6001549762000a46565b849084346200021657826003193601126200021657600680548084529084526020808401947ff652222313e28459528d920b65115c16c04f3efc82aaedc97be59f3f377c0d3f92915b82821062000e955762000384868662000379828b03836200102b565b83546001600160a01b03168752958601956001938401939091019062000e79565b6020908160408183019282815285518094520193019160005b82811062000ede575050505090565b83516001600160a01b03168552938101939281019260010162000ecf565b9181601f84011215620005655782359167ffffffffffffffff83116200056557602083818601950101116200056557565b600435906001600160a01b03821682036200056557565b805482101562000f5d5760005260206000200190600090565b634e487b7160e01b600052603260045260246000fd5b6000546001600160a01b0316330362000f8857565b60405163118cdaa760e01b8152336004820152602490fd5b1562000fa857565b60405162461bcd60e51b815260206004820152600f60248201526e496e76616c6964206164647265737360881b6044820152606490fd5b908060209392818452848401376000828201840152601f01601f1916010190565b67ffffffffffffffff81116200101557604052565b634e487b7160e01b600052604160045260246000fd5b90601f8019910116810190811067ffffffffffffffff8211176200101557604052565b156200105657565b60405162461bcd60e51b815260206004820152600f60248201526e155cd95c881b9bdd081b1a5b9ad959608a1b6044820152606490fd5b600080808094819460018060a01b03165af1903d1562001133573d9067ffffffffffffffff82116200111f5760405191620010d3601f8201601f1916602001846200102b565b825260203d92013e5b15620010e457565b60405162461bcd60e51b8152602060048201526013602482015272109390881d1c985b9cd9995c8819985a5b1959606a1b6044820152606490fd5b634e487b7160e01b81526041600452602490fd5b50620010dc56fe60406080815234620004f55762000f67803803806200001e81620004fa565b928339810160c082820312620004f55781516001600160401b039190828111620004f557816200005091850162000545565b906020908185015190848211620004f5576200006e91860162000545565b90858501519162000082606087016200059c565b956200009f60a062000097608084016200059c565b92016200059c565b9085518781116200040057600397885498600192838b811c9b168015620004ea575b888c1014620004d457601f9a8b811162000489575b5080888c8211600114620004225760009162000416575b5060001982841b1c191690841b1781555b855191821162000400576004998a548481811c91168015620003f5575b89821014620003e05781811162000395575b50879083116001146200032c578293839160009462000320575b501b92600019911b1c19161787555b6001600160a01b038181169890979089156200030957600580546001600160a01b03198082168d1790925590918a918c9083167f8be0079c531659141344cd1fd0a4f28419497f9722a3daafe3b4186f6b6457e0600080a316988915620002d4578416156200029c5788906006541617600655670de0b6b3a7640000928387029387850414871517156200028757600a8404918285039485116200027257506200025c937fbeb070748168c711e9d9d570ee9ce0b65d49cc7ddcc6cb9c6ce3b2570ae1eb70989693620002346200024e9997946200023a94620005d8565b620005d8565b8951958695606087526060870190620005b1565b9185830390860152620005b1565b90878301520390a3516108fc90816200066b8239f35b601190634e487b7160e01b6000525260246000fd5b601182634e487b7160e01b6000525260246000fd5b8a5162461bcd60e51b81528083018790526012602482015271125b9d985b1a5908199959481dd85b1b195d60721b6044820152606490fd5b8b5162461bcd60e51b8152808401889052600f60248201526e24b73b30b634b21031b932b0ba37b960891b6044820152606490fd5b8a51631e4fbdf760e01b8152600081840152602490fd5b88015193503862000147565b90601f198316918b60005283896000209360005b8b888383106200037d575050501062000362575b505050811b01875562000156565b8701519060f884600019921b161c1916905538808062000354565b858d0151885590960195938401938793500162000340565b8b600052886000208280860160051c8201928b8710620003d6575b0160051c019085905b828110620003c95750506200012d565b60008155018590620003b9565b92508192620003b0565b60228c634e487b7160e01b6000525260246000fd5b90607f16906200011b565b634e487b7160e01b600052604160045260246000fd5b90508a015138620000ed565b60008481528a81208794509190601f198416908c8f5b8383106200047157505050831162000458575b5050811b018155620000fe565b8c015160001983861b60f8161c1916905538806200044b565b840151855589969094019392830192018c8f62000438565b82600052886000208c80840160051c8201928b8510620004ca575b0160051c019085905b828110620004bd575050620000d6565b60008155018590620004ad565b92508192620004a4565b634e487b7160e01b600052602260045260246000fd5b9a607f169a620000c1565b600080fd5b6040519190601f01601f191682016001600160401b038111838210176200040057604052565b60005b838110620005345750506000910152565b818101518382015260200162000523565b81601f82011215620004f55780516001600160401b038111620004005762000577601f8201601f1916602001620004fa565b9281845260208284010111620004f55762000599916020808501910162000520565b90565b51906001600160a01b0382168203620004f557565b90602091620005cc8151809281855285808601910162000520565b601f01601f1916010190565b6001600160a01b03169081156200065157600254908082018092116200063b5760207fddf252ad1be2c89b69c2b068fc378daa952ba7f163c4a11628f55a4df523b3ef9160009360025584845283825260408420818154019055604051908152a3565b634e487b7160e01b600052601160045260246000fd5b60405163ec442f0560e01b815260006004820152602490fdfe6080604081815260048036101561001557600080fd5b600092833560e01c90816302d05d3f1461071d5750806306fdde0314610642578063095ea7b31461059957806318160ddd1461057a57806323b872dd14610487578063313ce5671461046b57806342966c68146103ad57806370a0823114610376578063715018a6146103165780638da5cb5b146102ed57806395d89b41146101cd578063a9059cbb1461019c578063dd62ed3e1461014f5763f2fde38b146100bd57600080fd5b3461014b57602036600319011261014b576100d661078b565b906100df6107bc565b6001600160a01b03918216928315610135575050600554826bffffffffffffffffffffffff60a01b821617600555167f8be0079c531659141344cd1fd0a4f28419497f9722a3daafe3b4186f6b6457e08380a380f35b51631e4fbdf760e01b8152908101849052602490fd5b8280fd5b5050346101985780600319360112610198578060209261016d61078b565b6101756107a6565b6001600160a01b0391821683526001865283832091168252845220549051908152f35b5080fd5b5050346101985780600319360112610198576020906101c66101bc61078b565b60243590336107e8565b5160018152f35b50919034610198578160031936011261019857805190828454600181811c908083169283156102e3575b60209384841081146102d0578388529081156102b4575060011461025f575b505050829003601f01601f191682019267ffffffffffffffff84118385101761024c5750829182610248925282610742565b0390f35b634e487b7160e01b815260418552602490fd5b8787529192508591837f8a35acfbc15ff81a39ae7d344fd709f28e8600b4aa8c65c6b64bfe7fe36bd19b5b8385106102a05750505050830101388080610216565b80548886018301529301928490820161028a565b60ff1916878501525050151560051b8401019050388080610216565b634e487b7160e01b895260228a52602489fd5b91607f16916101f7565b50503461019857816003193601126101985760055490516001600160a01b039091168152602090f35b833461037357806003193601126103735761032f6107bc565b600580546001600160a01b0319811690915581906001600160a01b03167f8be0079c531659141344cd1fd0a4f28419497f9722a3daafe3b4186f6b6457e08280a380f35b80fd5b5050346101985760203660031901126101985760209181906001600160a01b0361039e61078b565b16815280845220549051908152f35b50919034610198576020366003190112610198578235906103cc6107bc565b33156104555733835282602052808320549382851061042a57508183943385528460205203818420558160025403600255519081527fddf252ad1be2c89b69c2b068fc378daa952ba7f163c4a11628f55a4df523b3ef60203392a380f35b905163391434e360e21b81523391810191825260208201859052604082018390529081906060010390fd5b51634b637e8f60e11b8152808401839052602490fd5b5050346101985781600319360112610198576020905160128152f35b508234610373576060366003190112610373576104a261078b565b6104aa6107a6565b916044359360018060a01b0383168083526001602052868320338452602052868320549160001983106104e6575b6020886101c68989896107e8565b86831061054e578115610537573315610520575082526001602090815286832033845281529186902090859003905582906101c6876104d8565b8751634a1406b160e11b8152908101849052602490fd5b875163e602df0560e01b8152908101849052602490fd5b8751637dc7a0d960e11b8152339181019182526020820193909352604081018790528291506060010390fd5b5050346101985781600319360112610198576020906002549051908152f35b503461014b578160031936011261014b576105b261078b565b60243590331561062b576001600160a01b031691821561061457508083602095338152600187528181208582528752205582519081527f8c5be1e5ebec7d5bd14f71427d1e84f3dd0314c0f7b2291e5b200ac8c7c3b925843392a35160018152f35b8351634a1406b160e11b8152908101859052602490fd5b835163e602df0560e01b8152808401869052602490fd5b5091903461019857816003193601126101985780519082600354600181811c90808316928315610713575b60209384841081146102d0578388529081156102b457506001146106bd57505050829003601f01601f191682019267ffffffffffffffff84118385101761024c5750829182610248925282610742565b600387529192508591837fc2575a0e9e593c00f959f8c92f12db2869c3395a3b0502d05e2516446f71f85b5b8385106106ff5750505050830101388080610216565b8054888601830152930192849082016106e9565b91607f169161066d565b8490346101985781600319360112610198576006546001600160a01b03168152602090f35b6020808252825181830181905290939260005b82811061077757505060409293506000838284010152601f8019910116010190565b818101860151848201604001528501610755565b600435906001600160a01b03821682036107a157565b600080fd5b602435906001600160a01b03821682036107a157565b6005546001600160a01b031633036107d057565b60405163118cdaa760e01b8152336004820152602490fd5b916001600160a01b038084169283156108ad57169283156108945760009083825281602052604082205490838210610862575091604082827fddf252ad1be2c89b69c2b068fc378daa952ba7f163c4a11628f55a4df523b3ef958760209652828652038282205586815220818154019055604051908152a3565b60405163391434e360e21b81526001600160a01b03919091166004820152602481019190915260448101839052606490fd5b60405163ec442f0560e01b815260006004820152602490fd5b604051634b637e8f60e11b815260006004820152602490fdfea264697066735822122048e2ce44663be537347d4dcb569f25743b804518ab05c5180c835c2e512f4cc864736f6c63430008140033a264697066735822122087c55ce4b1e452b539d44157fa20e20413ca513c3513cdfd2bb9c1e47fe0de7e64736f6c63430008140033","opcodes":"PUSH1 0x80 CALLVALUE PUSH2 0x19C JUMPI PUSH1 0x1F PUSH3 0x22A3 CODESIZE DUP2 SWAP1 SUB SWAP2 DUP3 ADD PUSH1 0x1F NOT AND DUP4 ADD SWAP3 SWAP2 SWAP1 PUSH1 0x1 PUSH1 0x1 PUSH1 0x40 SHL SUB DUP5 GT DUP4 DUP6 LT OR PUSH2 0x1A1 JUMPI DUP2 PUSH1 0x60 SWAP3 DUP5 SWAP3 PUSH1 0x40 SWAP7 DUP8 MSTORE DUP4 CODECOPY DUP2 ADD SUB SLT PUSH2 0x19C JUMPI PUSH2 0x4C DUP2 PUSH2 0x1B7 JUMP JUMPDEST SWAP1 DUP3 PUSH2 0x5A PUSH1 0x20 DUP4 ADD PUSH2 0x1B7 JUMP JUMPDEST SWAP2 PUSH1 0x1 PUSH1 0x1 PUSH1 0xA0 SHL SUB SWAP2 DUP3 SWAP2 PUSH2 0x70 SWAP2 ADD PUSH2 0x1B7 JUMP JUMPDEST AND SWAP2 DUP3 ISZERO PUSH2 0x184 JUMPI DUP2 PUSH1 0x0 SLOAD SWAP5 PUSH1 0x1 DUP1 PUSH1 0xA0 SHL SUB NOT SWAP5 DUP1 DUP7 DUP9 AND OR PUSH1 0x0 SSTORE DUP3 DUP9 MLOAD SWAP8 AND PUSH32 0x8BE0079C531659141344CD1FD0A4F28419497F9722A3DAAFE3B4186F6B6457E0 PUSH1 0x0 DUP1 LOG3 PUSH7 0xAA87BEE538000 PUSH1 0x1 SSTORE PUSH7 0xB1A2BC2EC50000 PUSH1 0x2 SSTORE PUSH7 0x2386F26FC10000 PUSH1 0x3 SSTORE AND SWAP4 DUP5 ISZERO PUSH2 0x142 JUMPI POP AND SWAP2 DUP3 ISZERO PUSH2 0x109 JUMPI DUP2 PUSH1 0x4 SLOAD AND OR PUSH1 0x4 SSTORE PUSH1 0x5 SLOAD AND OR PUSH1 0x5 SSTORE MLOAD PUSH2 0x20D7 SWAP1 DUP2 PUSH3 0x1CC DUP3 CODECOPY RETURN JUMPDEST DUP4 MLOAD PUSH3 0x461BCD PUSH1 0xE5 SHL DUP2 MSTORE PUSH1 0x20 PUSH1 0x4 DUP3 ADD MSTORE PUSH1 0x12 PUSH1 0x24 DUP3 ADD MSTORE PUSH18 0x125B9D985B1A5908199959481DD85B1B195D PUSH1 0x72 SHL PUSH1 0x44 DUP3 ADD MSTORE PUSH1 0x64 SWAP1 REVERT JUMPDEST PUSH3 0x461BCD PUSH1 0xE5 SHL DUP2 MSTORE PUSH1 0x20 PUSH1 0x4 DUP3 ADD MSTORE PUSH1 0x15 PUSH1 0x24 DUP3 ADD MSTORE PUSH32 0x496E76616C696420626F6E64696E672063757276650000000000000000000000 PUSH1 0x44 DUP3 ADD MSTORE PUSH1 0x64 SWAP1 REVERT JUMPDEST DUP5 MLOAD PUSH4 0x1E4FBDF7 PUSH1 0xE0 SHL DUP2 MSTORE PUSH1 0x0 PUSH1 0x4 DUP3 ADD MSTORE PUSH1 0x24 SWAP1 REVERT JUMPDEST PUSH1 0x0 DUP1 REVERT JUMPDEST PUSH4 0x4E487B71 PUSH1 0xE0 SHL PUSH1 0x0 MSTORE PUSH1 0x41 PUSH1 0x4 MSTORE PUSH1 0x24 PUSH1 0x0 REVERT JUMPDEST MLOAD SWAP1 PUSH1 0x1 PUSH1 0x1 PUSH1 0xA0 SHL SUB DUP3 AND DUP3 SUB PUSH2 0x19C JUMPI JUMP INVALID PUSH1 0x80 PUSH1 0x40 DUP2 DUP2 MSTORE PUSH1 0x4 SWAP2 DUP3 CALLDATASIZE LT ISZERO PUSH3 0x17 JUMPI PUSH1 0x0 DUP1 REVERT JUMPDEST PUSH1 0x0 SWAP3 DUP4 CALLDATALOAD PUSH1 0xE0 SHR SWAP2 DUP3 PUSH4 0x2A5C792A EQ PUSH3 0xE30 JUMPI POP DUP2 PUSH4 0x2F2F2D56 EQ PUSH3 0x9D6 JUMPI DUP2 PUSH4 0x39457B50 EQ PUSH3 0x97E JUMPI DUP2 PUSH4 0x43FF1FB8 EQ PUSH3 0x907 JUMPI DUP2 PUSH4 0x59475E77 EQ PUSH3 0x8E6 JUMPI DUP2 PUSH4 0x634282AF EQ PUSH3 0x888 JUMPI DUP2 PUSH4 0x6EE31A18 EQ PUSH3 0x78A JUMPI DUP2 PUSH4 0x715018A6 EQ PUSH3 0x72C JUMPI DUP2 PUSH4 0x7E1C0C09 EQ PUSH3 0x70B JUMPI DUP2 PUSH4 0x8DA5CB5B EQ PUSH3 0x6E1 JUMPI DUP2 PUSH4 0x90D49B9D EQ PUSH3 0x66A JUMPI DUP2 PUSH4 0x9F3043C3 EQ PUSH3 0x5AC JUMPI DUP2 PUSH4 0xA4B41C8A EQ PUSH3 0x58B JUMPI DUP2 PUSH4 0xA8F32251 EQ PUSH3 0x56A JUMPI DUP2 PUSH4 0xB8D38253 EQ PUSH3 0x40C JUMPI DUP2 PUSH4 0xCEC10C11 EQ PUSH3 0x3A2 JUMPI DUP2 PUSH4 0xD5C71275 EQ PUSH3 0x311 JUMPI DUP2 PUSH4 0xD80D03A2 EQ PUSH3 0x2AE JUMPI DUP2 PUSH4 0xDEA5C2E0 EQ PUSH3 0x26F JUMPI DUP2 PUSH4 0xEFF1D50E EQ PUSH3 0x245 JUMPI DUP2 PUSH4 0xF25F4B56 EQ PUSH3 0x21A JUMPI DUP2 PUSH4 0xF2FDE38B EQ PUSH3 0x17E JUMPI POP PUSH4 0xFB1AFBD7 EQ PUSH3 0x13A JUMPI PUSH1 0x0 DUP1 REVERT JUMPDEST CALLVALUE PUSH3 0x17A JUMPI PUSH1 0x20 CALLDATASIZE PUSH1 0x3 NOT ADD SLT PUSH3 0x17A JUMPI PUSH1 0x20 SWAP2 PUSH1 0xFF SWAP1 DUP3 SWAP1 PUSH1 0x1 PUSH1 0x1 PUSH1 0xA0 SHL SUB PUSH3 0x167 PUSH3 0xF2D JUMP JUMPDEST AND DUP2 MSTORE PUSH1 0x9 DUP6 MSTORE KECCAK256 SLOAD AND SWAP1 MLOAD SWAP1 ISZERO ISZERO DUP2 MSTORE RETURN JUMPDEST POP DUP1 REVERT JUMPDEST SWAP1 POP CALLVALUE PUSH3 0x216 JUMPI PUSH1 0x20 CALLDATASIZE PUSH1 0x3 NOT ADD SLT PUSH3 0x216 JUMPI PUSH3 0x19D PUSH3 0xF2D JUMP JUMPDEST SWAP1 PUSH3 0x1A8 PUSH3 0xF73 JUMP JUMPDEST PUSH1 0x1 PUSH1 0x1 PUSH1 0xA0 SHL SUB SWAP2 DUP3 AND SWAP3 DUP4 ISZERO PUSH3 0x200 JUMPI POP POP PUSH1 0x0 SLOAD DUP3 PUSH12 0xFFFFFFFFFFFFFFFFFFFFFFFF PUSH1 0xA0 SHL DUP3 AND OR PUSH1 0x0 SSTORE AND PUSH32 0x8BE0079C531659141344CD1FD0A4F28419497F9722A3DAAFE3B4186F6B6457E0 PUSH1 0x0 DUP1 LOG3 DUP1 RETURN JUMPDEST MLOAD PUSH4 0x1E4FBDF7 PUSH1 0xE0 SHL DUP2 MSTORE SWAP1 DUP2 ADD DUP5 SWAP1 MSTORE PUSH1 0x24 SWAP1 REVERT JUMPDEST DUP3 DUP1 REVERT JUMPDEST POP POP CALLVALUE PUSH3 0x17A JUMPI DUP2 PUSH1 0x3 NOT CALLDATASIZE ADD SLT PUSH3 0x17A JUMPI PUSH1 0x5 SLOAD SWAP1 MLOAD PUSH1 0x1 PUSH1 0x1 PUSH1 0xA0 SHL SUB SWAP1 SWAP2 AND DUP2 MSTORE PUSH1 0x20 SWAP1 RETURN JUMPDEST SWAP1 POP CALLVALUE PUSH3 0x216 JUMPI DUP3 PUSH1 0x3 NOT CALLDATASIZE ADD SLT PUSH3 0x216 JUMPI SLOAD SWAP1 MLOAD PUSH1 0x1 PUSH1 0x1 PUSH1 0xA0 SHL SUB SWAP1 SWAP2 AND DUP2 MSTORE PUSH1 0x20 SWAP2 POP RETURN JUMPDEST POP POP CALLVALUE PUSH3 0x17A JUMPI PUSH1 0x20 CALLDATASIZE PUSH1 0x3 NOT ADD SLT PUSH3 0x17A JUMPI PUSH1 0x20 SWAP2 PUSH1 0x1 PUSH1 0x1 PUSH1 0xA0 SHL SUB SWAP1 DUP3 SWAP1 DUP3 PUSH3 0x29D PUSH3 0xF2D JUMP JUMPDEST AND DUP2 MSTORE PUSH1 0x8 DUP6 MSTORE KECCAK256 SLOAD AND SWAP1 MLOAD SWAP1 DUP2 MSTORE RETURN JUMPDEST POP POP CALLVALUE PUSH3 0x17A JUMPI DUP1 PUSH1 0x3 NOT CALLDATASIZE ADD SLT PUSH3 0x17A JUMPI PUSH3 0x2CC PUSH3 0xF2D JUMP JUMPDEST PUSH1 0x1 PUSH1 0x1 PUSH1 0xA0 SHL SUB SWAP1 DUP2 AND DUP4 MSTORE PUSH1 0x7 PUSH1 0x20 MSTORE DUP2 DUP4 KECCAK256 DUP1 SLOAD PUSH1 0x24 CALLDATALOAD SWAP5 SWAP1 DUP6 LT ISZERO PUSH3 0x30E JUMPI POP PUSH1 0x20 SWAP4 PUSH3 0x2FF SWAP2 PUSH3 0xF44 JUMP JUMPDEST SWAP3 SWAP1 SLOAD SWAP1 MLOAD SWAP3 PUSH1 0x3 SHL SHR AND DUP2 MSTORE RETURN JUMPDEST DUP1 REVERT JUMPDEST POP POP CALLVALUE PUSH3 0x17A JUMPI PUSH1 0x20 SWAP1 DUP2 PUSH1 0x3 NOT CALLDATASIZE ADD SLT PUSH3 0x216 JUMPI PUSH1 0x1 PUSH1 0x1 PUSH1 0xA0 SHL SUB SWAP3 DUP4 PUSH3 0x33C PUSH3 0xF2D JUMP JUMPDEST AND DUP2 MSTORE PUSH1 0x7 DUP4 MSTORE DUP2 DUP2 KECCAK256 SWAP4 DUP3 MLOAD SWAP1 DUP2 SWAP5 DUP1 DUP8 SLOAD SWAP4 DUP5 DUP2 MSTORE ADD SWAP7 DUP5 MSTORE DUP1 DUP5 KECCAK256 SWAP4 SWAP2 JUMPDEST DUP4 DUP4 LT PUSH3 0x388 JUMPI PUSH3 0x384 DUP8 DUP8 PUSH3 0x379 DUP3 DUP13 SUB DUP4 PUSH3 0x102B JUMP JUMPDEST MLOAD SWAP2 DUP3 SWAP2 DUP3 PUSH3 0xEB6 JUMP JUMPDEST SUB SWAP1 RETURN JUMPDEST DUP5 SLOAD DUP2 AND DUP9 MSTORE SWAP7 DUP2 ADD SWAP7 PUSH1 0x1 SWAP5 DUP6 ADD SWAP5 SWAP1 SWAP3 ADD SWAP2 PUSH3 0x35D JUMP JUMPDEST SWAP1 POP CALLVALUE PUSH3 0x216 JUMPI PUSH1 0x60 CALLDATASIZE PUSH1 0x3 NOT ADD SLT PUSH3 0x216 JUMPI PUSH32 0xCF8A1E1D5F09CF3C97DBB653CD9A4D7AACE9292FBC1BB8211FEBF2D400FEBBDD SWAP2 PUSH1 0x60 SWAP2 CALLDATALOAD SWAP1 PUSH1 0x44 CALLDATALOAD SWAP1 PUSH1 0x24 CALLDATALOAD PUSH3 0x3EF PUSH3 0xF73 JUMP JUMPDEST DUP4 PUSH1 0x1 SSTORE DUP1 PUSH1 0x2 SSTORE DUP3 PUSH1 0x3 SSTORE DUP2 MLOAD SWAP4 DUP5 MSTORE PUSH1 0x20 DUP5 ADD MSTORE DUP3 ADD MSTORE LOG1 DUP1 RETURN JUMPDEST SWAP1 POP CALLVALUE PUSH3 0x216 JUMPI PUSH1 0x80 CALLDATASIZE PUSH1 0x3 NOT ADD SLT PUSH3 0x216 JUMPI PUSH3 0x42B PUSH3 0xF2D JUMP JUMPDEST SWAP2 PUSH1 0x24 CALLDATALOAD SWAP3 PUSH1 0x1 DUP1 PUSH1 0xA0 SHL SUB SWAP3 DUP4 DUP6 AND DUP1 SWAP6 SUB PUSH3 0x565 JUMPI DUP6 SWAP3 PUSH1 0x44 CALLDATALOAD SWAP3 PUSH1 0x64 CALLDATALOAD SWAP6 PUSH8 0xFFFFFFFFFFFFFFFF DUP8 GT PUSH3 0x561 JUMPI DUP8 PUSH3 0x46F PUSH1 0x64 SWAP9 CALLDATASIZE SWAP1 DUP8 ADD PUSH3 0xEFC JUMP JUMPDEST SWAP9 SWAP1 SWAP6 PUSH3 0x47C PUSH3 0xF73 JUMP JUMPDEST DUP3 DUP10 MSTORE PUSH1 0x20 SWAP9 DUP10 SWAP5 PUSH1 0x9 DUP7 MSTORE PUSH3 0x499 PUSH1 0xFF DUP10 DUP5 KECCAK256 SLOAD AND PUSH3 0x104E JUMP JUMPDEST DUP1 PUSH1 0x5 SLOAD AND SWAP7 DUP9 MLOAD SWAP8 DUP9 SWAP7 DUP8 SWAP6 PUSH4 0x23B872DD PUSH1 0xE0 SHL DUP8 MSTORE DUP7 ADD MSTORE PUSH1 0x24 DUP6 ADD MSTORE DUP11 PUSH1 0x44 DUP6 ADD MSTORE AND GAS CALL DUP1 ISZERO PUSH3 0x557 JUMPI PUSH3 0x511 JUMPI JUMPDEST POP SWAP1 PUSH32 0xBDE344B6F67C3BF7E0ECBBF22B04267D5D3AE0AA1909C0000B812F6B14CE45B9 SWAP5 DUP3 DUP1 PUSH3 0x50B SWAP5 MLOAD SWAP7 DUP8 SWAP7 DUP8 MSTORE DUP7 ADD MSTORE DUP5 ADD SWAP2 PUSH3 0xFDF JUMP JUMPDEST SUB SWAP1 LOG2 DUP1 RETURN JUMPDEST DUP5 DUP2 DUP2 SWAP5 SWAP4 SWAP5 RETURNDATASIZE DUP4 GT PUSH3 0x54F JUMPI JUMPDEST PUSH3 0x52C DUP2 DUP4 PUSH3 0x102B JUMP JUMPDEST DUP2 ADD SUB SLT PUSH3 0x54B JUMPI MLOAD DUP1 ISZERO ISZERO SUB PUSH3 0x547 JUMPI SWAP1 CODESIZE PUSH3 0x4CE JUMP JUMPDEST DUP7 DUP1 REVERT JUMPDEST DUP8 DUP1 REVERT JUMPDEST POP RETURNDATASIZE PUSH3 0x520 JUMP JUMPDEST DUP3 MLOAD RETURNDATASIZE DUP11 DUP3 RETURNDATACOPY RETURNDATASIZE SWAP1 REVERT JUMPDEST DUP6 DUP1 REVERT JUMPDEST PUSH1 0x0 DUP1 REVERT JUMPDEST POP POP CALLVALUE PUSH3 0x17A JUMPI DUP2 PUSH1 0x3 NOT CALLDATASIZE ADD SLT PUSH3 0x17A JUMPI PUSH1 0x20 SWAP1 PUSH1 0x1 SLOAD SWAP1 MLOAD SWAP1 DUP2 MSTORE RETURN JUMPDEST POP POP CALLVALUE PUSH3 0x17A JUMPI DUP2 PUSH1 0x3 NOT CALLDATASIZE ADD SLT PUSH3 0x17A JUMPI PUSH1 0x20 SWAP1 PUSH1 0x3 SLOAD SWAP1 MLOAD SWAP1 DUP2 MSTORE RETURN JUMPDEST SWAP1 POP CALLVALUE PUSH3 0x216 JUMPI PUSH1 0x60 CALLDATASIZE PUSH1 0x3 NOT ADD SLT PUSH3 0x216 JUMPI PUSH3 0x5CB PUSH3 0xF2D JUMP JUMPDEST SWAP2 PUSH1 0x24 CALLDATALOAD PUSH1 0x44 CALLDATALOAD SWAP3 PUSH8 0xFFFFFFFFFFFFFFFF DUP5 GT PUSH3 0x561 JUMPI PUSH3 0x617 PUSH3 0x50B SWAP2 PUSH32 0xBDE344B6F67C3BF7E0ECBBF22B04267D5D3AE0AA1909C0000B812F6B14CE45B9 SWAP6 CALLDATASIZE SWAP2 ADD PUSH3 0xEFC JUMP JUMPDEST PUSH3 0x621 PUSH3 0xF73 JUMP JUMPDEST PUSH3 0x654 DUP5 PUSH1 0x1 DUP1 PUSH1 0xA0 SHL SUB DUP1 SWAP10 AND SWAP9 DUP10 DUP12 MSTORE PUSH1 0x9 PUSH1 0x20 MSTORE PUSH3 0x64A PUSH1 0xFF DUP10 DUP14 KECCAK256 SLOAD AND PUSH3 0x104E JUMP JUMPDEST PUSH1 0x5 SLOAD AND PUSH3 0x108D JUMP JUMPDEST DUP5 MLOAD SWAP5 DUP6 SWAP5 DUP6 MSTORE DUP1 PUSH1 0x20 DUP7 ADD MSTORE DUP5 ADD SWAP2 PUSH3 0xFDF JUMP JUMPDEST DUP4 CALLVALUE PUSH3 0x30E JUMPI PUSH1 0x20 CALLDATASIZE PUSH1 0x3 NOT ADD SLT PUSH3 0x30E JUMPI PUSH3 0x688 PUSH3 0xF2D JUMP JUMPDEST PUSH3 0x692 PUSH3 0xF73 JUMP JUMPDEST PUSH1 0x1 PUSH1 0x1 PUSH1 0xA0 SHL SUB AND PUSH3 0x6A8 DUP2 ISZERO ISZERO PUSH3 0xFA0 JUMP JUMPDEST PUSH1 0x5 DUP1 SLOAD PUSH1 0x1 PUSH1 0x1 PUSH1 0xA0 SHL SUB NOT AND DUP3 OR SWAP1 SSTORE PUSH32 0x29ACEE77DAFCFA0143D74A7EA236018F3A6E1FA71E27FC59BBFBC6B8CA8EDCCD DUP3 DUP1 LOG2 DUP1 RETURN JUMPDEST POP POP CALLVALUE PUSH3 0x17A JUMPI DUP2 PUSH1 0x3 NOT CALLDATASIZE ADD SLT PUSH3 0x17A JUMPI SWAP1 SLOAD SWAP1 MLOAD PUSH1 0x1 PUSH1 0x1 PUSH1 0xA0 SHL SUB SWAP1 SWAP2 AND DUP2 MSTORE PUSH1 0x20 SWAP1 RETURN JUMPDEST POP POP CALLVALUE PUSH3 0x17A JUMPI DUP2 PUSH1 0x3 NOT CALLDATASIZE ADD SLT PUSH3 0x17A JUMPI PUSH1 0x20 SWAP1 PUSH1 0x6 SLOAD SWAP1 MLOAD SWAP1 DUP2 MSTORE RETURN JUMPDEST DUP4 CALLVALUE PUSH3 0x30E JUMPI DUP1 PUSH1 0x3 NOT CALLDATASIZE ADD SLT PUSH3 0x30E JUMPI PUSH3 0x749 PUSH3 0xF73 JUMP JUMPDEST PUSH1 0x0 DUP1 SLOAD PUSH1 0x1 PUSH1 0x1 PUSH1 0xA0 SHL SUB NOT DUP2 AND DUP3 SSTORE PUSH1 0x1 PUSH1 0x1 PUSH1 0xA0 SHL SUB AND PUSH32 0x8BE0079C531659141344CD1FD0A4F28419497F9722A3DAAFE3B4186F6B6457E0 DUP3 DUP1 LOG3 DUP1 RETURN JUMPDEST SWAP2 SWAP1 POP PUSH1 0x20 CALLDATASIZE PUSH1 0x3 NOT ADD SLT PUSH3 0x216 JUMPI PUSH3 0x7A4 PUSH3 0xF2D JUMP JUMPDEST PUSH1 0x3 SLOAD CALLVALUE LT PUSH3 0x845 JUMPI PUSH1 0x1 PUSH1 0x1 PUSH1 0xA0 SHL SUB SWAP1 DUP2 AND DUP1 DUP6 MSTORE PUSH1 0x8 PUSH1 0x20 MSTORE DUP3 DUP6 KECCAK256 SLOAD SWAP1 SWAP4 SWAP1 DUP3 AND ISZERO PUSH3 0x810 JUMPI POP PUSH3 0x7E2 SWAP1 CALLVALUE SWAP1 PUSH1 0x5 SLOAD AND PUSH3 0x108D JUMP JUMPDEST MLOAD SWAP1 CALLVALUE DUP3 MSTORE PUSH32 0x89E75C42F7CCA6A6E4AD53C63F1B4A422BA2CC998DD8B5A3234DFCD95CC163C9 PUSH1 0x20 CALLER SWAP4 LOG3 DUP1 RETURN JUMPDEST PUSH1 0x64 SWAP1 PUSH1 0x20 DUP5 MLOAD SWAP2 PUSH3 0x461BCD PUSH1 0xE5 SHL DUP4 MSTORE DUP3 ADD MSTORE PUSH1 0xF PUSH1 0x24 DUP3 ADD MSTORE PUSH15 0x151BDAD95B881B9BDD08199BDD5B99 PUSH1 0x8A SHL PUSH1 0x44 DUP3 ADD MSTORE REVERT JUMPDEST DUP2 MLOAD PUSH3 0x461BCD PUSH1 0xE5 SHL DUP2 MSTORE PUSH1 0x20 DUP2 DUP6 ADD MSTORE PUSH1 0x18 PUSH1 0x24 DUP3 ADD MSTORE PUSH32 0x496E73756666696369656E742075706772616465206665650000000000000000 PUSH1 0x44 DUP3 ADD MSTORE PUSH1 0x64 SWAP1 REVERT JUMPDEST SWAP1 POP CALLVALUE PUSH3 0x216 JUMPI PUSH1 0x20 CALLDATASIZE PUSH1 0x3 NOT ADD SLT PUSH3 0x216 JUMPI CALLDATALOAD PUSH1 0x6 SLOAD DUP2 LT ISZERO PUSH3 0x216 JUMPI PUSH1 0x6 PUSH1 0x0 MSTORE PUSH32 0xF652222313E28459528D920B65115C16C04F3EFC82AAEDC97BE59F3F377C0D3F ADD SLOAD SWAP1 MLOAD PUSH1 0x1 PUSH1 0x1 PUSH1 0xA0 SHL SUB SWAP1 SWAP2 AND DUP2 MSTORE PUSH1 0x20 SWAP2 POP RETURN JUMPDEST POP POP CALLVALUE PUSH3 0x17A JUMPI DUP2 PUSH1 0x3 NOT CALLDATASIZE ADD SLT PUSH3 0x17A JUMPI PUSH1 0x20 SWAP1 PUSH1 0x2 SLOAD SWAP1 MLOAD SWAP1 DUP2 MSTORE RETURN JUMPDEST DUP4 SWAP1 CALLVALUE PUSH3 0x17A JUMPI PUSH1 0x20 CALLDATASIZE PUSH1 0x3 NOT ADD SLT PUSH3 0x17A JUMPI PUSH3 0x926 PUSH3 0xF2D JUMP JUMPDEST PUSH3 0x930 PUSH3 0xF73 JUMP JUMPDEST PUSH1 0x1 PUSH1 0x1 PUSH1 0xA0 SHL SUB AND SWAP1 PUSH3 0x947 DUP3 ISZERO ISZERO PUSH3 0xFA0 JUMP JUMPDEST DUP1 SLOAD PUSH1 0x1 PUSH1 0x1 PUSH1 0xA0 SHL SUB NOT AND DUP3 OR SWAP1 SSTORE PUSH32 0xC4FDA5D836A9AAAFABD3088C5F5DCABFE179C3B392B09DBAC0E8727667F3C776 DUP3 DUP1 LOG2 DUP1 RETURN JUMPDEST POP POP CALLVALUE PUSH3 0x17A JUMPI DUP2 PUSH1 0x3 NOT CALLDATASIZE ADD SLT PUSH3 0x17A JUMPI CALLER DUP3 MSTORE PUSH1 0x9 PUSH1 0x20 MSTORE DUP1 DUP3 KECCAK256 PUSH1 0x1 PUSH1 0xFF NOT DUP3 SLOAD AND OR SWAP1 SSTORE MLOAD PUSH1 0x1 DUP2 MSTORE PUSH32 0x9896B4EED33EA0BCC03386BF8D03B92659362F6180A8671A40CFE4ED5159E2DD PUSH1 0x20 CALLER SWAP3 LOG2 DUP1 RETURN JUMPDEST DUP4 SWAP2 POP DUP3 PUSH1 0x3 NOT CALLDATASIZE ADD SLT PUSH3 0x17A JUMPI PUSH8 0xFFFFFFFFFFFFFFFF SWAP3 DUP2 CALLDATALOAD DUP5 DUP2 GT PUSH3 0xCBD JUMPI PUSH3 0xA08 SWAP1 CALLDATASIZE SWAP1 DUP5 ADD PUSH3 0xEFC JUMP JUMPDEST SWAP4 SWAP1 PUSH1 0x24 SWAP2 DUP3 CALLDATALOAD DUP8 DUP2 GT PUSH3 0x17A JUMPI PUSH3 0xA26 SWAP1 CALLDATASIZE SWAP1 DUP8 ADD PUSH3 0xEFC JUMP JUMPDEST SWAP1 SWAP2 PUSH1 0x1 DUP1 PUSH1 0xA0 SHL SUB SWAP7 DUP8 PUSH1 0x5 SLOAD AND SWAP6 DUP7 CALLER EQ SWAP7 DUP8 PUSH1 0x0 EQ PUSH3 0xE26 JUMPI DUP4 SWAP8 JUMPDEST ISZERO PUSH3 0xE03 JUMPI DUP4 JUMPDEST CALLVALUE LT PUSH3 0xDB0 JUMPI DUP11 ISZERO PUSH3 0xD7E JUMPI DUP5 ISZERO PUSH3 0xD4A JUMPI DUP8 DUP1 PUSH3 0xD37 JUMPI JUMPDEST POP POP DUP9 DUP3 SLOAD AND SWAP11 DUP10 PUSH1 0x5 SLOAD AND DUP10 MLOAD SWAP2 PUSH2 0xF67 DUP1 DUP5 ADD SWAP2 DUP5 DUP4 LT SWAP1 DUP4 GT OR PUSH3 0xCF7 JUMPI SWAP2 PUSH1 0xA0 DUP15 SWAP16 SWAP3 DUP14 SWAP15 SWAP16 PUSH3 0xAB7 DUP14 PUSH3 0xAC7 SWAP3 DUP10 SWAP9 PUSH3 0x113B DUP11 CODECOPY PUSH1 0xC0 DUP6 MSTORE PUSH1 0xC0 DUP6 ADD SWAP2 PUSH3 0xFDF JUMP JUMPDEST DUP3 DUP2 SUB PUSH1 0x20 DUP5 ADD MSTORE DUP12 DUP14 PUSH3 0xFDF JUMP JUMPDEST SWAP4 PUSH4 0x3B9ACA00 SWAP15 DUP16 SWAP1 DUP4 ADD MSTORE CALLER PUSH1 0x60 DUP4 ADD MSTORE PUSH1 0x80 DUP3 ADD MSTORE ADD MSTORE SUB SWAP1 DUP5 CREATE DUP1 ISZERO PUSH3 0xD2D JUMPI DUP11 AND SWAP10 PUSH1 0x6 SLOAD PUSH9 0x10000000000000000 SWAP1 DUP2 DUP2 LT ISZERO PUSH3 0xD1B JUMPI PUSH1 0x1 DUP2 ADD DUP1 PUSH1 0x6 SSTORE DUP2 LT ISZERO PUSH3 0xD09 JUMPI PUSH32 0xF652222313E28459528D920B65115C16C04F3EFC82AAEDC97BE59F3F377C0D3F ADD DUP1 SLOAD PUSH1 0x1 PUSH1 0x1 PUSH1 0xA0 SHL SUB NOT SWAP1 DUP2 AND DUP15 OR SWAP1 SWAP2 SSTORE CALLER DUP7 MSTORE PUSH1 0x7 PUSH1 0x20 MSTORE DUP12 DUP7 KECCAK256 DUP1 SLOAD SWAP2 SWAP3 DUP3 LT ISZERO PUSH3 0xCF7 JUMPI DUP2 PUSH3 0xB74 SWAP2 DUP16 SWAP4 PUSH1 0x1 ADD DUP2 SSTORE PUSH3 0xF44 JUMP JUMPDEST DUP5 DUP3 SWAP4 SWAP3 SLOAD SWAP2 PUSH1 0x3 SHL SWAP3 DUP4 SHL SWAP3 SHL NOT AND OR SWAP1 SSTORE DUP12 DUP6 MSTORE PUSH1 0x8 PUSH1 0x20 MSTORE DUP11 DUP6 KECCAK256 SWAP1 CALLER SWAP1 DUP3 SLOAD AND OR SWAP1 SSTORE DUP1 DUP4 SLOAD AND DUP1 EXTCODESIZE ISZERO PUSH3 0xCF3 JUMPI DUP5 DUP1 SWAP2 PUSH1 0x44 DUP15 DUP15 MLOAD SWAP5 DUP6 SWAP4 DUP5 SWAP3 PUSH4 0x962C165F PUSH1 0xE0 SHL DUP5 MSTORE DUP11 DUP5 ADD MSTORE CALLER DUP10 DUP5 ADD MSTORE GAS CALL DUP1 ISZERO PUSH3 0xCE9 JUMPI PUSH3 0xCD3 JUMPI JUMPDEST POP DUP8 CALLVALUE SUB SWAP8 CALLVALUE DUP10 GT PUSH3 0xCC1 JUMPI CALLVALUE SUB PUSH3 0xC5F JUMPI JUMPDEST POP POP POP POP SWAP3 PUSH32 0xA1FDD9D625A3D9910D1D8F8431DA95FB346446DC9687E2F12468DD20CC4691A3 SWAP3 PUSH3 0xC44 PUSH1 0x20 SWAP10 SWAP4 DUP10 SWAP7 PUSH3 0xC36 PUSH1 0x1 SLOAD SWAP5 DUP12 MLOAD SWAP8 PUSH1 0xA0 DUP10 MSTORE PUSH1 0xA0 DUP10 ADD SWAP2 PUSH3 0xFDF JUMP JUMPDEST SWAP2 DUP7 DUP4 SUB DUP14 DUP9 ADD MSTORE PUSH3 0xFDF JUMP JUMPDEST SWAP6 DUP8 DUP5 ADD MSTORE PUSH1 0x60 DUP4 ADD MSTORE PUSH1 0x80 DUP3 ADD MSTORE DUP1 CALLER SWAP5 SUB SWAP1 LOG3 MLOAD SWAP1 DUP2 MSTORE RETURN JUMPDEST DUP3 SLOAD AND SWAP2 DUP3 EXTCODESIZE ISZERO PUSH3 0xCBD JUMPI DUP4 SWAP2 DUP12 SWAP2 DUP10 DUP13 MLOAD SWAP6 DUP7 SWAP5 DUP6 SWAP4 PUSH4 0xF088D547 PUSH1 0xE0 SHL DUP6 MSTORE DUP5 ADD MSTORE GAS CALL DUP1 ISZERO PUSH3 0xCB3 JUMPI PUSH3 0xC9B JUMPI JUMPDEST DUP1 DUP1 PUSH3 0xBEB JUMP JUMPDEST PUSH3 0xCA7 DUP3 SWAP2 PUSH3 0x1000 JUMP JUMPDEST PUSH3 0x30E JUMPI DUP1 PUSH3 0xC93 JUMP JUMPDEST DUP9 MLOAD RETURNDATASIZE DUP5 DUP3 RETURNDATACOPY RETURNDATASIZE SWAP1 REVERT JUMPDEST DUP4 DUP1 REVERT JUMPDEST PUSH4 0x4E487B71 PUSH1 0xE0 SHL DUP6 MSTORE PUSH1 0x11 DUP5 MSTORE DUP3 DUP6 REVERT JUMPDEST PUSH3 0xCE1 SWAP1 SWAP5 SWAP2 SWAP5 PUSH3 0x1000 JUMP JUMPDEST SWAP3 DUP13 PUSH3 0xBD6 JUMP JUMPDEST DUP12 MLOAD RETURNDATASIZE DUP8 DUP3 RETURNDATACOPY RETURNDATASIZE SWAP1 REVERT JUMPDEST DUP5 DUP1 REVERT JUMPDEST PUSH4 0x4E487B71 PUSH1 0xE0 SHL DUP8 MSTORE PUSH1 0x41 DUP7 MSTORE DUP5 DUP8 REVERT JUMPDEST PUSH4 0x4E487B71 PUSH1 0xE0 SHL DUP7 MSTORE PUSH1 0x32 DUP6 MSTORE DUP4 DUP7 REVERT JUMPDEST PUSH4 0x4E487B71 PUSH1 0xE0 SHL DUP7 MSTORE PUSH1 0x41 DUP6 MSTORE DUP4 DUP7 REVERT JUMPDEST DUP10 MLOAD RETURNDATASIZE DUP6 DUP3 RETURNDATACOPY RETURNDATASIZE SWAP1 REVERT JUMPDEST PUSH3 0xD42 SWAP2 PUSH3 0x108D JUMP JUMPDEST DUP12 DUP8 PUSH3 0xA6B JUMP JUMPDEST DUP9 MLOAD PUSH3 0x461BCD PUSH1 0xE5 SHL DUP2 MSTORE PUSH1 0x20 DUP2 DUP6 ADD MSTORE PUSH1 0xF DUP2 DUP5 ADD MSTORE PUSH15 0x14DE5B589BDB081C995C5D5A5C9959 PUSH1 0x8A SHL PUSH1 0x44 DUP3 ADD MSTORE PUSH1 0x64 SWAP1 REVERT JUMPDEST DUP9 MLOAD PUSH3 0x461BCD PUSH1 0xE5 SHL DUP2 MSTORE PUSH1 0x20 DUP2 DUP6 ADD MSTORE PUSH1 0xD DUP2 DUP5 ADD MSTORE PUSH13 0x13985B59481C995C5D5A5C9959 PUSH1 0x9A SHL PUSH1 0x44 DUP3 ADD MSTORE PUSH1 0x64 SWAP1 REVERT JUMPDEST DUP9 MLOAD PUSH3 0x461BCD PUSH1 0xE5 SHL DUP2 MSTORE PUSH1 0x20 DUP2 DUP6 ADD MSTORE PUSH1 0x28 DUP2 DUP5 ADD MSTORE PUSH32 0x496E73756666696369656E7420424E423A206E65656420666565202B20696E69 PUSH1 0x44 DUP3 ADD MSTORE PUSH8 0x7469616C20627579 PUSH1 0xC0 SHL PUSH1 0x64 DUP3 ADD MSTORE PUSH1 0x84 SWAP1 REVERT JUMPDEST PUSH1 0x1 SLOAD PUSH1 0x2 SLOAD DUP2 ADD DUP1 SWAP2 GT ISZERO PUSH3 0xA4E JUMPI PUSH4 0x4E487B71 PUSH1 0xE0 SHL DUP6 MSTORE PUSH1 0x11 DUP5 MSTORE DUP3 DUP6 REVERT JUMPDEST PUSH1 0x1 SLOAD SWAP8 PUSH3 0xA46 JUMP JUMPDEST DUP5 SWAP1 DUP5 CALLVALUE PUSH3 0x216 JUMPI DUP3 PUSH1 0x3 NOT CALLDATASIZE ADD SLT PUSH3 0x216 JUMPI PUSH1 0x6 DUP1 SLOAD DUP1 DUP5 MSTORE SWAP1 DUP5 MSTORE PUSH1 0x20 DUP1 DUP5 ADD SWAP5 PUSH32 0xF652222313E28459528D920B65115C16C04F3EFC82AAEDC97BE59F3F377C0D3F SWAP3 SWAP2 JUMPDEST DUP3 DUP3 LT PUSH3 0xE95 JUMPI PUSH3 0x384 DUP7 DUP7 PUSH3 0x379 DUP3 DUP12 SUB DUP4 PUSH3 0x102B JUMP JUMPDEST DUP4 SLOAD PUSH1 0x1 PUSH1 0x1 PUSH1 0xA0 SHL SUB AND DUP8 MSTORE SWAP6 DUP7 ADD SWAP6 PUSH1 0x1 SWAP4 DUP5 ADD SWAP4 SWAP1 SWAP2 ADD SWAP1 PUSH3 0xE79 JUMP JUMPDEST PUSH1 0x20 SWAP1 DUP2 PUSH1 0x40 DUP2 DUP4 ADD SWAP3 DUP3 DUP2 MSTORE DUP6 MLOAD DUP1 SWAP5 MSTORE ADD SWAP4 ADD SWAP2 PUSH1 0x0 JUMPDEST DUP3 DUP2 LT PUSH3 0xEDE JUMPI POP POP POP POP SWAP1 JUMP JUMPDEST DUP4 MLOAD PUSH1 0x1 PUSH1 0x1 PUSH1 0xA0 SHL SUB AND DUP6 MSTORE SWAP4 DUP2 ADD SWAP4 SWAP3 DUP2 ADD SWAP3 PUSH1 0x1 ADD PUSH3 0xECF JUMP JUMPDEST SWAP2 DUP2 PUSH1 0x1F DUP5 ADD SLT ISZERO PUSH3 0x565 JUMPI DUP3 CALLDATALOAD SWAP2 PUSH8 0xFFFFFFFFFFFFFFFF DUP4 GT PUSH3 0x565 JUMPI PUSH1 0x20 DUP4 DUP2 DUP7 ADD SWAP6 ADD ADD GT PUSH3 0x565 JUMPI JUMP JUMPDEST PUSH1 0x4 CALLDATALOAD SWAP1 PUSH1 0x1 PUSH1 0x1 PUSH1 0xA0 SHL SUB DUP3 AND DUP3 SUB PUSH3 0x565 JUMPI JUMP JUMPDEST DUP1 SLOAD DUP3 LT ISZERO PUSH3 0xF5D JUMPI PUSH1 0x0 MSTORE PUSH1 0x20 PUSH1 0x0 KECCAK256 ADD SWAP1 PUSH1 0x0 SWAP1 JUMP JUMPDEST PUSH4 0x4E487B71 PUSH1 0xE0 SHL PUSH1 0x0 MSTORE PUSH1 0x32 PUSH1 0x4 MSTORE PUSH1 0x24 PUSH1 0x0 REVERT JUMPDEST PUSH1 0x0 SLOAD PUSH1 0x1 PUSH1 0x1 PUSH1 0xA0 SHL SUB AND CALLER SUB PUSH3 0xF88 JUMPI JUMP JUMPDEST PUSH1 0x40 MLOAD PUSH4 0x118CDAA7 PUSH1 0xE0 SHL DUP2 MSTORE CALLER PUSH1 0x4 DUP3 ADD MSTORE PUSH1 0x24 SWAP1 REVERT JUMPDEST ISZERO PUSH3 0xFA8 JUMPI JUMP JUMPDEST PUSH1 0x40 MLOAD PUSH3 0x461BCD PUSH1 0xE5 SHL DUP2 MSTORE PUSH1 0x20 PUSH1 0x4 DUP3 ADD MSTORE PUSH1 0xF PUSH1 0x24 DUP3 ADD MSTORE PUSH15 0x496E76616C69642061646472657373 PUSH1 0x88 SHL PUSH1 0x44 DUP3 ADD MSTORE PUSH1 0x64 SWAP1 REVERT JUMPDEST SWAP1 DUP1 PUSH1 0x20 SWAP4 SWAP3 DUP2 DUP5 MSTORE DUP5 DUP5 ADD CALLDATACOPY PUSH1 0x0 DUP3 DUP3 ADD DUP5 ADD MSTORE PUSH1 0x1F ADD PUSH1 0x1F NOT AND ADD ADD SWAP1 JUMP JUMPDEST PUSH8 0xFFFFFFFFFFFFFFFF DUP2 GT PUSH3 0x1015 JUMPI PUSH1 0x40 MSTORE JUMP JUMPDEST PUSH4 0x4E487B71 PUSH1 0xE0 SHL PUSH1 0x0 MSTORE PUSH1 0x41 PUSH1 0x4 MSTORE PUSH1 0x24 PUSH1 0x0 REVERT JUMPDEST SWAP1 PUSH1 0x1F DUP1 NOT SWAP2 ADD AND DUP2 ADD SWAP1 DUP2 LT PUSH8 0xFFFFFFFFFFFFFFFF DUP3 GT OR PUSH3 0x1015 JUMPI PUSH1 0x40 MSTORE JUMP JUMPDEST ISZERO PUSH3 0x1056 JUMPI JUMP JUMPDEST PUSH1 0x40 MLOAD PUSH3 0x461BCD PUSH1 0xE5 SHL DUP2 MSTORE PUSH1 0x20 PUSH1 0x4 DUP3 ADD MSTORE PUSH1 0xF PUSH1 0x24 DUP3 ADD MSTORE PUSH15 0x155CD95C881B9BDD081B1A5B9AD959 PUSH1 0x8A SHL PUSH1 0x44 DUP3 ADD MSTORE PUSH1 0x64 SWAP1 REVERT JUMPDEST PUSH1 0x0 DUP1 DUP1 DUP1 SWAP5 DUP2 SWAP5 PUSH1 0x1 DUP1 PUSH1 0xA0 SHL SUB AND GAS CALL SWAP1 RETURNDATASIZE ISZERO PUSH3 0x1133 JUMPI RETURNDATASIZE SWAP1 PUSH8 0xFFFFFFFFFFFFFFFF DUP3 GT PUSH3 0x111F JUMPI PUSH1 0x40 MLOAD SWAP2 PUSH3 0x10D3 PUSH1 0x1F DUP3 ADD PUSH1 0x1F NOT AND PUSH1 0x20 ADD DUP5 PUSH3 0x102B JUMP JUMPDEST DUP3 MSTORE PUSH1 0x20 RETURNDATASIZE SWAP3 ADD RETURNDATACOPY JUMPDEST ISZERO PUSH3 0x10E4 JUMPI JUMP JUMPDEST PUSH1 0x40 MLOAD PUSH3 0x461BCD PUSH1 0xE5 SHL DUP2 MSTORE PUSH1 0x20 PUSH1 0x4 DUP3 ADD MSTORE PUSH1 0x13 PUSH1 0x24 DUP3 ADD MSTORE PUSH19 0x109390881D1C985B9CD9995C8819985A5B1959 PUSH1 0x6A SHL PUSH1 0x44 DUP3 ADD MSTORE PUSH1 0x64 SWAP1 REVERT JUMPDEST PUSH4 0x4E487B71 PUSH1 0xE0 SHL DUP2 MSTORE PUSH1 0x41 PUSH1 0x4 MSTORE PUSH1 0x24 SWAP1 REVERT JUMPDEST POP PUSH3 0x10DC JUMP INVALID PUSH1 0x40 PUSH1 0x80 DUP2 MSTORE CALLVALUE PUSH3 0x4F5 JUMPI PUSH3 0xF67 DUP1 CODESIZE SUB DUP1 PUSH3 0x1E DUP2 PUSH3 0x4FA JUMP JUMPDEST SWAP3 DUP4 CODECOPY DUP2 ADD PUSH1 0xC0 DUP3 DUP3 SUB SLT PUSH3 0x4F5 JUMPI DUP2 MLOAD PUSH1 0x1 PUSH1 0x1 PUSH1 0x40 SHL SUB SWAP2 SWAP1 DUP3 DUP2 GT PUSH3 0x4F5 JUMPI DUP2 PUSH3 0x50 SWAP2 DUP6 ADD PUSH3 0x545 JUMP JUMPDEST SWAP1 PUSH1 0x20 SWAP1 DUP2 DUP6 ADD MLOAD SWAP1 DUP5 DUP3 GT PUSH3 0x4F5 JUMPI PUSH3 0x6E SWAP2 DUP7 ADD PUSH3 0x545 JUMP JUMPDEST SWAP1 DUP6 DUP6 ADD MLOAD SWAP2 PUSH3 0x82 PUSH1 0x60 DUP8 ADD PUSH3 0x59C JUMP JUMPDEST SWAP6 PUSH3 0x9F PUSH1 0xA0 PUSH3 0x97 PUSH1 0x80 DUP5 ADD PUSH3 0x59C JUMP JUMPDEST SWAP3 ADD PUSH3 0x59C JUMP JUMPDEST SWAP1 DUP6 MLOAD DUP8 DUP2 GT PUSH3 0x400 JUMPI PUSH1 0x3 SWAP8 DUP9 SLOAD SWAP9 PUSH1 0x1 SWAP3 DUP4 DUP12 DUP2 SHR SWAP12 AND DUP1 ISZERO PUSH3 0x4EA JUMPI JUMPDEST DUP9 DUP13 LT EQ PUSH3 0x4D4 JUMPI PUSH1 0x1F SWAP11 DUP12 DUP2 GT PUSH3 0x489 JUMPI JUMPDEST POP DUP1 DUP9 DUP13 DUP3 GT PUSH1 0x1 EQ PUSH3 0x422 JUMPI PUSH1 0x0 SWAP2 PUSH3 0x416 JUMPI JUMPDEST POP PUSH1 0x0 NOT DUP3 DUP5 SHL SHR NOT AND SWAP1 DUP5 SHL OR DUP2 SSTORE JUMPDEST DUP6 MLOAD SWAP2 DUP3 GT PUSH3 0x400 JUMPI PUSH1 0x4 SWAP10 DUP11 SLOAD DUP5 DUP2 DUP2 SHR SWAP2 AND DUP1 ISZERO PUSH3 0x3F5 JUMPI JUMPDEST DUP10 DUP3 LT EQ PUSH3 0x3E0 JUMPI DUP2 DUP2 GT PUSH3 0x395 JUMPI JUMPDEST POP DUP8 SWAP1 DUP4 GT PUSH1 0x1 EQ PUSH3 0x32C JUMPI DUP3 SWAP4 DUP4 SWAP2 PUSH1 0x0 SWAP5 PUSH3 0x320 JUMPI JUMPDEST POP SHL SWAP3 PUSH1 0x0 NOT SWAP2 SHL SHR NOT AND OR DUP8 SSTORE JUMPDEST PUSH1 0x1 PUSH1 0x1 PUSH1 0xA0 SHL SUB DUP2 DUP2 AND SWAP9 SWAP1 SWAP8 SWAP1 DUP10 ISZERO PUSH3 0x309 JUMPI PUSH1 0x5 DUP1 SLOAD PUSH1 0x1 PUSH1 0x1 PUSH1 0xA0 SHL SUB NOT DUP1 DUP3 AND DUP14 OR SWAP1 SWAP3 SSTORE SWAP1 SWAP2 DUP11 SWAP2 DUP13 SWAP1 DUP4 AND PUSH32 0x8BE0079C531659141344CD1FD0A4F28419497F9722A3DAAFE3B4186F6B6457E0 PUSH1 0x0 DUP1 LOG3 AND SWAP9 DUP10 ISZERO PUSH3 0x2D4 JUMPI DUP5 AND ISZERO PUSH3 0x29C JUMPI DUP9 SWAP1 PUSH1 0x6 SLOAD AND OR PUSH1 0x6 SSTORE PUSH8 0xDE0B6B3A7640000 SWAP3 DUP4 DUP8 MUL SWAP4 DUP8 DUP6 DIV EQ DUP8 ISZERO OR ISZERO PUSH3 0x287 JUMPI PUSH1 0xA DUP5 DIV SWAP2 DUP3 DUP6 SUB SWAP5 DUP6 GT PUSH3 0x272 JUMPI POP PUSH3 0x25C SWAP4 PUSH32 0xBEB070748168C711E9D9D570EE9CE0B65D49CC7DDCC6CB9C6CE3B2570AE1EB70 SWAP9 SWAP7 SWAP4 PUSH3 0x234 PUSH3 0x24E SWAP10 SWAP8 SWAP5 PUSH3 0x23A SWAP5 PUSH3 0x5D8 JUMP JUMPDEST PUSH3 0x5D8 JUMP JUMPDEST DUP10 MLOAD SWAP6 DUP7 SWAP6 PUSH1 0x60 DUP8 MSTORE PUSH1 0x60 DUP8 ADD SWAP1 PUSH3 0x5B1 JUMP JUMPDEST SWAP2 DUP6 DUP4 SUB SWAP1 DUP7 ADD MSTORE PUSH3 0x5B1 JUMP JUMPDEST SWAP1 DUP8 DUP4 ADD MSTORE SUB SWAP1 LOG3 MLOAD PUSH2 0x8FC SWAP1 DUP2 PUSH3 0x66B DUP3 CODECOPY RETURN JUMPDEST PUSH1 0x11 SWAP1 PUSH4 0x4E487B71 PUSH1 0xE0 SHL PUSH1 0x0 MSTORE MSTORE PUSH1 0x24 PUSH1 0x0 REVERT JUMPDEST PUSH1 0x11 DUP3 PUSH4 0x4E487B71 PUSH1 0xE0 SHL PUSH1 0x0 MSTORE MSTORE PUSH1 0x24 PUSH1 0x0 REVERT JUMPDEST DUP11 MLOAD PUSH3 0x461BCD PUSH1 0xE5 SHL DUP2 MSTORE DUP1 DUP4 ADD DUP8 SWAP1 MSTORE PUSH1 0x12 PUSH1 0x24 DUP3 ADD MSTORE PUSH18 0x125B9D985B1A5908199959481DD85B1B195D PUSH1 0x72 SHL PUSH1 0x44 DUP3 ADD MSTORE PUSH1 0x64 SWAP1 REVERT JUMPDEST DUP12 MLOAD PUSH3 0x461BCD PUSH1 0xE5 SHL DUP2 MSTORE DUP1 DUP5 ADD DUP9 SWAP1 MSTORE PUSH1 0xF PUSH1 0x24 DUP3 ADD MSTORE PUSH15 0x24B73B30B634B21031B932B0BA37B9 PUSH1 0x89 SHL PUSH1 0x44 DUP3 ADD MSTORE PUSH1 0x64 SWAP1 REVERT JUMPDEST DUP11 MLOAD PUSH4 0x1E4FBDF7 PUSH1 0xE0 SHL DUP2 MSTORE PUSH1 0x0 DUP2 DUP5 ADD MSTORE PUSH1 0x24 SWAP1 REVERT JUMPDEST DUP9 ADD MLOAD SWAP4 POP CODESIZE PUSH3 0x147 JUMP JUMPDEST SWAP1 PUSH1 0x1F NOT DUP4 AND SWAP2 DUP12 PUSH1 0x0 MSTORE DUP4 DUP10 PUSH1 0x0 KECCAK256 SWAP4 PUSH1 0x0 JUMPDEST DUP12 DUP9 DUP4 DUP4 LT PUSH3 0x37D JUMPI POP POP POP LT PUSH3 0x362 JUMPI JUMPDEST POP POP POP DUP2 SHL ADD DUP8 SSTORE PUSH3 0x156 JUMP JUMPDEST DUP8 ADD MLOAD SWAP1 PUSH1 0xF8 DUP5 PUSH1 0x0 NOT SWAP3 SHL AND SHR NOT AND SWAP1 SSTORE CODESIZE DUP1 DUP1 PUSH3 0x354 JUMP JUMPDEST DUP6 DUP14 ADD MLOAD DUP9 SSTORE SWAP1 SWAP7 ADD SWAP6 SWAP4 DUP5 ADD SWAP4 DUP8 SWAP4 POP ADD PUSH3 0x340 JUMP JUMPDEST DUP12 PUSH1 0x0 MSTORE DUP9 PUSH1 0x0 KECCAK256 DUP3 DUP1 DUP7 ADD PUSH1 0x5 SHR DUP3 ADD SWAP3 DUP12 DUP8 LT PUSH3 0x3D6 JUMPI JUMPDEST ADD PUSH1 0x5 SHR ADD SWAP1 DUP6 SWAP1 JUMPDEST DUP3 DUP2 LT PUSH3 0x3C9 JUMPI POP POP PUSH3 0x12D JUMP JUMPDEST PUSH1 0x0 DUP2 SSTORE ADD DUP6 SWAP1 PUSH3 0x3B9 JUMP JUMPDEST SWAP3 POP DUP2 SWAP3 PUSH3 0x3B0 JUMP JUMPDEST PUSH1 0x22 DUP13 PUSH4 0x4E487B71 PUSH1 0xE0 SHL PUSH1 0x0 MSTORE MSTORE PUSH1 0x24 PUSH1 0x0 REVERT JUMPDEST SWAP1 PUSH1 0x7F AND SWAP1 PUSH3 0x11B JUMP JUMPDEST PUSH4 0x4E487B71 PUSH1 0xE0 SHL PUSH1 0x0 MSTORE PUSH1 0x41 PUSH1 0x4 MSTORE PUSH1 0x24 PUSH1 0x0 REVERT JUMPDEST SWAP1 POP DUP11 ADD MLOAD CODESIZE PUSH3 0xED JUMP JUMPDEST PUSH1 0x0 DUP5 DUP2 MSTORE DUP11 DUP2 KECCAK256 DUP8 SWAP5 POP SWAP2 SWAP1 PUSH1 0x1F NOT DUP5 AND SWAP1 DUP13 DUP16 JUMPDEST DUP4 DUP4 LT PUSH3 0x471 JUMPI POP POP POP DUP4 GT PUSH3 0x458 JUMPI JUMPDEST POP POP DUP2 SHL ADD DUP2 SSTORE PUSH3 0xFE JUMP JUMPDEST DUP13 ADD MLOAD PUSH1 0x0 NOT DUP4 DUP7 SHL PUSH1 0xF8 AND SHR NOT AND SWAP1 SSTORE CODESIZE DUP1 PUSH3 0x44B JUMP JUMPDEST DUP5 ADD MLOAD DUP6 SSTORE DUP10 SWAP7 SWAP1 SWAP5 ADD SWAP4 SWAP3 DUP4 ADD SWAP3 ADD DUP13 DUP16 PUSH3 0x438 JUMP JUMPDEST DUP3 PUSH1 0x0 MSTORE DUP9 PUSH1 0x0 KECCAK256 DUP13 DUP1 DUP5 ADD PUSH1 0x5 SHR DUP3 ADD SWAP3 DUP12 DUP6 LT PUSH3 0x4CA JUMPI JUMPDEST ADD PUSH1 0x5 SHR ADD SWAP1 DUP6 SWAP1 JUMPDEST DUP3 DUP2 LT PUSH3 0x4BD JUMPI POP POP PUSH3 0xD6 JUMP JUMPDEST PUSH1 0x0 DUP2 SSTORE ADD DUP6 SWAP1 PUSH3 0x4AD JUMP JUMPDEST SWAP3 POP DUP2 SWAP3 PUSH3 0x4A4 JUMP JUMPDEST PUSH4 0x4E487B71 PUSH1 0xE0 SHL PUSH1 0x0 MSTORE PUSH1 0x22 PUSH1 0x4 MSTORE PUSH1 0x24 PUSH1 0x0 REVERT JUMPDEST SWAP11 PUSH1 0x7F AND SWAP11 PUSH3 0xC1 JUMP JUMPDEST PUSH1 0x0 DUP1 REVERT JUMPDEST PUSH1 0x40 MLOAD SWAP2 SWAP1 PUSH1 0x1F ADD PUSH1 0x1F NOT AND DUP3 ADD PUSH1 0x1 PUSH1 0x1 PUSH1 0x40 SHL SUB DUP2 GT DUP4 DUP3 LT OR PUSH3 0x400 JUMPI PUSH1 0x40 MSTORE JUMP JUMPDEST PUSH1 0x0 JUMPDEST DUP4 DUP2 LT PUSH3 0x534 JUMPI POP POP PUSH1 0x0 SWAP2 ADD MSTORE JUMP JUMPDEST DUP2 DUP2 ADD MLOAD DUP4 DUP3 ADD MSTORE PUSH1 0x20 ADD PUSH3 0x523 JUMP JUMPDEST DUP2 PUSH1 0x1F DUP3 ADD SLT ISZERO PUSH3 0x4F5 JUMPI DUP1 MLOAD PUSH1 0x1 PUSH1 0x1 PUSH1 0x40 SHL SUB DUP2 GT PUSH3 0x400 JUMPI PUSH3 0x577 PUSH1 0x1F DUP3 ADD PUSH1 0x1F NOT AND PUSH1 0x20 ADD PUSH3 0x4FA JUMP JUMPDEST SWAP3 DUP2 DUP5 MSTORE PUSH1 0x20 DUP3 DUP5 ADD ADD GT PUSH3 0x4F5 JUMPI PUSH3 0x599 SWAP2 PUSH1 0x20 DUP1 DUP6 ADD SWAP2 ADD PUSH3 0x520 JUMP JUMPDEST SWAP1 JUMP JUMPDEST MLOAD SWAP1 PUSH1 0x1 PUSH1 0x1 PUSH1 0xA0 SHL SUB DUP3 AND DUP3 SUB PUSH3 0x4F5 JUMPI JUMP JUMPDEST SWAP1 PUSH1 0x20 SWAP2 PUSH3 0x5CC DUP2 MLOAD DUP1 SWAP3 DUP2 DUP6 MSTORE DUP6 DUP1 DUP7 ADD SWAP2 ADD PUSH3 0x520 JUMP JUMPDEST PUSH1 0x1F ADD PUSH1 0x1F NOT AND ADD ADD SWAP1 JUMP JUMPDEST PUSH1 0x1 PUSH1 0x1 PUSH1 0xA0 SHL SUB AND SWAP1 DUP2 ISZERO PUSH3 0x651 JUMPI PUSH1 0x2 SLOAD SWAP1 DUP1 DUP3 ADD DUP1 SWAP3 GT PUSH3 0x63B JUMPI PUSH1 0x20 PUSH32 0xDDF252AD1BE2C89B69C2B068FC378DAA952BA7F163C4A11628F55A4DF523B3EF SWAP2 PUSH1 0x0 SWAP4 PUSH1 0x2 SSTORE DUP5 DUP5 MSTORE DUP4 DUP3 MSTORE PUSH1 0x40 DUP5 KECCAK256 DUP2 DUP2 SLOAD ADD SWAP1 SSTORE PUSH1 0x40 MLOAD SWAP1 DUP2 MSTORE LOG3 JUMP JUMPDEST PUSH4 0x4E487B71 PUSH1 0xE0 SHL PUSH1 0x0 MSTORE PUSH1 0x11 PUSH1 0x4 MSTORE PUSH1 0x24 PUSH1 0x0 REVERT JUMPDEST PUSH1 0x40 MLOAD PUSH4 0xEC442F05 PUSH1 0xE0 SHL DUP2 MSTORE PUSH1 0x0 PUSH1 0x4 DUP3 ADD MSTORE PUSH1 0x24 SWAP1 REVERT INVALID PUSH1 0x80 PUSH1 0x40 DUP2 DUP2 MSTORE PUSH1 0x4 DUP1 CALLDATASIZE LT ISZERO PUSH2 0x15 JUMPI PUSH1 0x0 DUP1 REVERT JUMPDEST PUSH1 0x0 SWAP3 DUP4 CALLDATALOAD PUSH1 0xE0 SHR SWAP1 DUP2 PUSH4 0x2D05D3F EQ PUSH2 0x71D JUMPI POP DUP1 PUSH4 0x6FDDE03 EQ PUSH2 0x642 JUMPI DUP1 PUSH4 0x95EA7B3 EQ PUSH2 0x599 JUMPI DUP1 PUSH4 0x18160DDD EQ PUSH2 0x57A JUMPI DUP1 PUSH4 0x23B872DD EQ PUSH2 0x487 JUMPI DUP1 PUSH4 0x313CE567 EQ PUSH2 0x46B JUMPI DUP1 PUSH4 0x42966C68 EQ PUSH2 0x3AD JUMPI DUP1 PUSH4 0x70A08231 EQ PUSH2 0x376 JUMPI DUP1 PUSH4 0x715018A6 EQ PUSH2 0x316 JUMPI DUP1 PUSH4 0x8DA5CB5B EQ PUSH2 0x2ED JUMPI DUP1 PUSH4 0x95D89B41 EQ PUSH2 0x1CD JUMPI DUP1 PUSH4 0xA9059CBB EQ PUSH2 0x19C JUMPI DUP1 PUSH4 0xDD62ED3E EQ PUSH2 0x14F JUMPI PUSH4 0xF2FDE38B EQ PUSH2 0xBD JUMPI PUSH1 0x0 DUP1 REVERT JUMPDEST CALLVALUE PUSH2 0x14B JUMPI PUSH1 0x20 CALLDATASIZE PUSH1 0x3 NOT ADD SLT PUSH2 0x14B JUMPI PUSH2 0xD6 PUSH2 0x78B JUMP JUMPDEST SWAP1 PUSH2 0xDF PUSH2 0x7BC JUMP JUMPDEST PUSH1 0x1 PUSH1 0x1 PUSH1 0xA0 SHL SUB SWAP2 DUP3 AND SWAP3 DUP4 ISZERO PUSH2 0x135 JUMPI POP POP PUSH1 0x5 SLOAD DUP3 PUSH12 0xFFFFFFFFFFFFFFFFFFFFFFFF PUSH1 0xA0 SHL DUP3 AND OR PUSH1 0x5 SSTORE AND PUSH32 0x8BE0079C531659141344CD1FD0A4F28419497F9722A3DAAFE3B4186F6B6457E0 DUP4 DUP1 LOG3 DUP1 RETURN JUMPDEST MLOAD PUSH4 0x1E4FBDF7 PUSH1 0xE0 SHL DUP2 MSTORE SWAP1 DUP2 ADD DUP5 SWAP1 MSTORE PUSH1 0x24 SWAP1 REVERT JUMPDEST DUP3 DUP1 REVERT JUMPDEST POP POP CALLVALUE PUSH2 0x198 JUMPI DUP1 PUSH1 0x3 NOT CALLDATASIZE ADD SLT PUSH2 0x198 JUMPI DUP1 PUSH1 0x20 SWAP3 PUSH2 0x16D PUSH2 0x78B JUMP JUMPDEST PUSH2 0x175 PUSH2 0x7A6 JUMP JUMPDEST PUSH1 0x1 PUSH1 0x1 PUSH1 0xA0 SHL SUB SWAP2 DUP3 AND DUP4 MSTORE PUSH1 0x1 DUP7 MSTORE DUP4 DUP4 KECCAK256 SWAP2 AND DUP3 MSTORE DUP5 MSTORE KECCAK256 SLOAD SWAP1 MLOAD SWAP1 DUP2 MSTORE RETURN JUMPDEST POP DUP1 REVERT JUMPDEST POP POP CALLVALUE PUSH2 0x198 JUMPI DUP1 PUSH1 0x3 NOT CALLDATASIZE ADD SLT PUSH2 0x198 JUMPI PUSH1 0x20 SWAP1 PUSH2 0x1C6 PUSH2 0x1BC PUSH2 0x78B JUMP JUMPDEST PUSH1 0x24 CALLDATALOAD SWAP1 CALLER PUSH2 0x7E8 JUMP JUMPDEST MLOAD PUSH1 0x1 DUP2 MSTORE RETURN JUMPDEST POP SWAP2 SWAP1 CALLVALUE PUSH2 0x198 JUMPI DUP2 PUSH1 0x3 NOT CALLDATASIZE ADD SLT PUSH2 0x198 JUMPI DUP1 MLOAD SWAP1 DUP3 DUP5 SLOAD PUSH1 0x1 DUP2 DUP2 SHR SWAP1 DUP1 DUP4 AND SWAP3 DUP4 ISZERO PUSH2 0x2E3 JUMPI JUMPDEST PUSH1 0x20 SWAP4 DUP5 DUP5 LT DUP2 EQ PUSH2 0x2D0 JUMPI DUP4 DUP9 MSTORE SWAP1 DUP2 ISZERO PUSH2 0x2B4 JUMPI POP PUSH1 0x1 EQ PUSH2 0x25F JUMPI JUMPDEST POP POP POP DUP3 SWAP1 SUB PUSH1 0x1F ADD PUSH1 0x1F NOT AND DUP3 ADD SWAP3 PUSH8 0xFFFFFFFFFFFFFFFF DUP5 GT DUP4 DUP6 LT OR PUSH2 0x24C JUMPI POP DUP3 SWAP2 DUP3 PUSH2 0x248 SWAP3 MSTORE DUP3 PUSH2 0x742 JUMP JUMPDEST SUB SWAP1 RETURN JUMPDEST PUSH4 0x4E487B71 PUSH1 0xE0 SHL DUP2 MSTORE PUSH1 0x41 DUP6 MSTORE PUSH1 0x24 SWAP1 REVERT JUMPDEST DUP8 DUP8 MSTORE SWAP2 SWAP3 POP DUP6 SWAP2 DUP4 PUSH32 0x8A35ACFBC15FF81A39AE7D344FD709F28E8600B4AA8C65C6B64BFE7FE36BD19B JUMPDEST DUP4 DUP6 LT PUSH2 0x2A0 JUMPI POP POP POP POP DUP4 ADD ADD CODESIZE DUP1 DUP1 PUSH2 0x216 JUMP JUMPDEST DUP1 SLOAD DUP9 DUP7 ADD DUP4 ADD MSTORE SWAP4 ADD SWAP3 DUP5 SWAP1 DUP3 ADD PUSH2 0x28A JUMP JUMPDEST PUSH1 0xFF NOT AND DUP8 DUP6 ADD MSTORE POP POP ISZERO ISZERO PUSH1 0x5 SHL DUP5 ADD ADD SWAP1 POP CODESIZE DUP1 DUP1 PUSH2 0x216 JUMP JUMPDEST PUSH4 0x4E487B71 PUSH1 0xE0 SHL DUP10 MSTORE PUSH1 0x22 DUP11 MSTORE PUSH1 0x24 DUP10 REVERT JUMPDEST SWAP2 PUSH1 0x7F AND SWAP2 PUSH2 0x1F7 JUMP JUMPDEST POP POP CALLVALUE PUSH2 0x198 JUMPI DUP2 PUSH1 0x3 NOT CALLDATASIZE ADD SLT PUSH2 0x198 JUMPI PUSH1 0x5 SLOAD SWAP1 MLOAD PUSH1 0x1 PUSH1 0x1 PUSH1 0xA0 SHL SUB SWAP1 SWAP2 AND DUP2 MSTORE PUSH1 0x20 SWAP1 RETURN JUMPDEST DUP4 CALLVALUE PUSH2 0x373 JUMPI DUP1 PUSH1 0x3 NOT CALLDATASIZE ADD SLT PUSH2 0x373 JUMPI PUSH2 0x32F PUSH2 0x7BC JUMP JUMPDEST PUSH1 0x5 DUP1 SLOAD PUSH1 0x1 PUSH1 0x1 PUSH1 0xA0 SHL SUB NOT DUP2 AND SWAP1 SWAP2 SSTORE DUP2 SWAP1 PUSH1 0x1 PUSH1 0x1 PUSH1 0xA0 SHL SUB AND PUSH32 0x8BE0079C531659141344CD1FD0A4F28419497F9722A3DAAFE3B4186F6B6457E0 DUP3 DUP1 LOG3 DUP1 RETURN JUMPDEST DUP1 REVERT JUMPDEST POP POP CALLVALUE PUSH2 0x198 JUMPI PUSH1 0x20 CALLDATASIZE PUSH1 0x3 NOT ADD SLT PUSH2 0x198 JUMPI PUSH1 0x20 SWAP2 DUP2 SWAP1 PUSH1 0x1 PUSH1 0x1 PUSH1 0xA0 SHL SUB PUSH2 0x39E PUSH2 0x78B JUMP JUMPDEST AND DUP2 MSTORE DUP1 DUP5 MSTORE KECCAK256 SLOAD SWAP1 MLOAD SWAP1 DUP2 MSTORE RETURN JUMPDEST POP SWAP2 SWAP1 CALLVALUE PUSH2 0x198 JUMPI PUSH1 0x20 CALLDATASIZE PUSH1 0x3 NOT ADD SLT PUSH2 0x198 JUMPI DUP3 CALLDATALOAD SWAP1 PUSH2 0x3CC PUSH2 0x7BC JUMP JUMPDEST CALLER ISZERO PUSH2 0x455 JUMPI CALLER DUP4 MSTORE DUP3 PUSH1 0x20 MSTORE DUP1 DUP4 KECCAK256 SLOAD SWAP4 DUP3 DUP6 LT PUSH2 0x42A JUMPI POP DUP2 DUP4 SWAP5 CALLER DUP6 MSTORE DUP5 PUSH1 0x20 MSTORE SUB DUP2 DUP5 KECCAK256 SSTORE DUP2 PUSH1 0x2 SLOAD SUB PUSH1 0x2 SSTORE MLOAD SWAP1 DUP2 MSTORE PUSH32 0xDDF252AD1BE2C89B69C2B068FC378DAA952BA7F163C4A11628F55A4DF523B3EF PUSH1 0x20 CALLER SWAP3 LOG3 DUP1 RETURN JUMPDEST SWAP1 MLOAD PUSH4 0x391434E3 PUSH1 0xE2 SHL DUP2 MSTORE CALLER SWAP2 DUP2 ADD SWAP2 DUP3 MSTORE PUSH1 0x20 DUP3 ADD DUP6 SWAP1 MSTORE PUSH1 0x40 DUP3 ADD DUP4 SWAP1 MSTORE SWAP1 DUP2 SWAP1 PUSH1 0x60 ADD SUB SWAP1 REVERT JUMPDEST MLOAD PUSH4 0x4B637E8F PUSH1 0xE1 SHL DUP2 MSTORE DUP1 DUP5 ADD DUP4 SWAP1 MSTORE PUSH1 0x24 SWAP1 REVERT JUMPDEST POP POP CALLVALUE PUSH2 0x198 JUMPI DUP2 PUSH1 0x3 NOT CALLDATASIZE ADD SLT PUSH2 0x198 JUMPI PUSH1 0x20 SWAP1 MLOAD PUSH1 0x12 DUP2 MSTORE RETURN JUMPDEST POP DUP3 CALLVALUE PUSH2 0x373 JUMPI PUSH1 0x60 CALLDATASIZE PUSH1 0x3 NOT ADD SLT PUSH2 0x373 JUMPI PUSH2 0x4A2 PUSH2 0x78B JUMP JUMPDEST PUSH2 0x4AA PUSH2 0x7A6 JUMP JUMPDEST SWAP2 PUSH1 0x44 CALLDATALOAD SWAP4 PUSH1 0x1 DUP1 PUSH1 0xA0 SHL SUB DUP4 AND DUP1 DUP4 MSTORE PUSH1 0x1 PUSH1 0x20 MSTORE DUP7 DUP4 KECCAK256 CALLER DUP5 MSTORE PUSH1 0x20 MSTORE DUP7 DUP4 KECCAK256 SLOAD SWAP2 PUSH1 0x0 NOT DUP4 LT PUSH2 0x4E6 JUMPI JUMPDEST PUSH1 0x20 DUP9 PUSH2 0x1C6 DUP10 DUP10 DUP10 PUSH2 0x7E8 JUMP JUMPDEST DUP7 DUP4 LT PUSH2 0x54E JUMPI DUP2 ISZERO PUSH2 0x537 JUMPI CALLER ISZERO PUSH2 0x520 JUMPI POP DUP3 MSTORE PUSH1 0x1 PUSH1 0x20 SWAP1 DUP2 MSTORE DUP7 DUP4 KECCAK256 CALLER DUP5 MSTORE DUP2 MSTORE SWAP2 DUP7 SWAP1 KECCAK256 SWAP1 DUP6 SWAP1 SUB SWAP1 SSTORE DUP3 SWAP1 PUSH2 0x1C6 DUP8 PUSH2 0x4D8 JUMP JUMPDEST DUP8 MLOAD PUSH4 0x4A1406B1 PUSH1 0xE1 SHL DUP2 MSTORE SWAP1 DUP2 ADD DUP5 SWAP1 MSTORE PUSH1 0x24 SWAP1 REVERT JUMPDEST DUP8 MLOAD PUSH4 0xE602DF05 PUSH1 0xE0 SHL DUP2 MSTORE SWAP1 DUP2 ADD DUP5 SWAP1 MSTORE PUSH1 0x24 SWAP1 REVERT JUMPDEST DUP8 MLOAD PUSH4 0x7DC7A0D9 PUSH1 0xE1 SHL DUP2 MSTORE CALLER SWAP2 DUP2 ADD SWAP2 DUP3 MSTORE PUSH1 0x20 DUP3 ADD SWAP4 SWAP1 SWAP4 MSTORE PUSH1 0x40 DUP2 ADD DUP8 SWAP1 MSTORE DUP3 SWAP2 POP PUSH1 0x60 ADD SUB SWAP1 REVERT JUMPDEST POP POP CALLVALUE PUSH2 0x198 JUMPI DUP2 PUSH1 0x3 NOT CALLDATASIZE ADD SLT PUSH2 0x198 JUMPI PUSH1 0x20 SWAP1 PUSH1 0x2 SLOAD SWAP1 MLOAD SWAP1 DUP2 MSTORE RETURN JUMPDEST POP CALLVALUE PUSH2 0x14B JUMPI DUP2 PUSH1 0x3 NOT CALLDATASIZE ADD SLT PUSH2 0x14B JUMPI PUSH2 0x5B2 PUSH2 0x78B JUMP JUMPDEST PUSH1 0x24 CALLDATALOAD SWAP1 CALLER ISZERO PUSH2 0x62B JUMPI PUSH1 0x1 PUSH1 0x1 PUSH1 0xA0 SHL SUB AND SWAP2 DUP3 ISZERO PUSH2 0x614 JUMPI POP DUP1 DUP4 PUSH1 0x20 SWAP6 CALLER DUP2 MSTORE PUSH1 0x1 DUP8 MSTORE DUP2 DUP2 KECCAK256 DUP6 DUP3 MSTORE DUP8 MSTORE KECCAK256 SSTORE DUP3 MLOAD SWAP1 DUP2 MSTORE PUSH32 0x8C5BE1E5EBEC7D5BD14F71427D1E84F3DD0314C0F7B2291E5B200AC8C7C3B925 DUP5 CALLER SWAP3 LOG3 MLOAD PUSH1 0x1 DUP2 MSTORE RETURN JUMPDEST DUP4 MLOAD PUSH4 0x4A1406B1 PUSH1 0xE1 SHL DUP2 MSTORE SWAP1 DUP2 ADD DUP6 SWAP1 MSTORE PUSH1 0x24 SWAP1 REVERT JUMPDEST DUP4 MLOAD PUSH4 0xE602DF05 PUSH1 0xE0 SHL DUP2 MSTORE DUP1 DUP5 ADD DUP7 SWAP1 MSTORE PUSH1 0x24 SWAP1 REVERT JUMPDEST POP SWAP2 SWAP1 CALLVALUE PUSH2 0x198 JUMPI DUP2 PUSH1 0x3 NOT CALLDATASIZE ADD SLT PUSH2 0x198 JUMPI DUP1 MLOAD SWAP1 DUP3 PUSH1 0x3 SLOAD PUSH1 0x1 DUP2 DUP2 SHR SWAP1 DUP1 DUP4 AND SWAP3 DUP4 ISZERO PUSH2 0x713 JUMPI JUMPDEST PUSH1 0x20 SWAP4 DUP5 DUP5 LT DUP2 EQ PUSH2 0x2D0 JUMPI DUP4 DUP9 MSTORE SWAP1 DUP2 ISZERO PUSH2 0x2B4 JUMPI POP PUSH1 0x1 EQ PUSH2 0x6BD JUMPI POP POP POP DUP3 SWAP1 SUB PUSH1 0x1F ADD PUSH1 0x1F NOT AND DUP3 ADD SWAP3 PUSH8 0xFFFFFFFFFFFFFFFF DUP5 GT DUP4 DUP6 LT OR PUSH2 0x24C JUMPI POP DUP3 SWAP2 DUP3 PUSH2 0x248 SWAP3 MSTORE DUP3 PUSH2 0x742 JUMP JUMPDEST PUSH1 0x3 DUP8 MSTORE SWAP2 SWAP3 POP DUP6 SWAP2 DUP4 PUSH32 0xC2575A0E9E593C00F959F8C92F12DB2869C3395A3B0502D05E2516446F71F85B JUMPDEST DUP4 DUP6 LT PUSH2 0x6FF JUMPI POP POP POP POP DUP4 ADD ADD CODESIZE DUP1 DUP1 PUSH2 0x216 JUMP JUMPDEST DUP1 SLOAD DUP9 DUP7 ADD DUP4 ADD MSTORE SWAP4 ADD SWAP3 DUP5 SWAP1 DUP3 ADD PUSH2 0x6E9 JUMP JUMPDEST SWAP2 PUSH1 0x7F AND SWAP2 PUSH2 0x66D JUMP JUMPDEST DUP5 SWAP1 CALLVALUE PUSH2 0x198 JUMPI DUP2 PUSH1 0x3 NOT CALLDATASIZE ADD SLT PUSH2 0x198 JUMPI PUSH1 0x6 SLOAD PUSH1 0x1 PUSH1 0x1 PUSH1 0xA0 SHL SUB AND DUP2 MSTORE PUSH1 0x20 SWAP1 RETURN JUMPDEST PUSH1 0x20 DUP1 DUP3 MSTORE DUP3 MLOAD DUP2 DUP4 ADD DUP2 SWAP1 MSTORE SWAP1 SWAP4 SWAP3 PUSH1 0x0 JUMPDEST DUP3 DUP2 LT PUSH2 0x777 JUMPI POP POP PUSH1 0x40 SWAP3 SWAP4 POP PUSH1 0x0 DUP4 DUP3 DUP5 ADD ADD MSTORE PUSH1 0x1F DUP1 NOT SWAP2 ADD AND ADD ADD SWAP1 JUMP JUMPDEST DUP2 DUP2 ADD DUP7 ADD MLOAD DUP5 DUP3 ADD PUSH1 0x40 ADD MSTORE DUP6 ADD PUSH2 0x755 JUMP JUMPDEST PUSH1 0x4 CALLDATALOAD SWAP1 PUSH1 0x1 PUSH1 0x1 PUSH1 0xA0 SHL SUB DUP3 AND DUP3 SUB PUSH2 0x7A1 JUMPI JUMP JUMPDEST PUSH1 0x0 DUP1 REVERT JUMPDEST PUSH1 0x24 CALLDATALOAD SWAP1 PUSH1 0x1 PUSH1 0x1 PUSH1 0xA0 SHL SUB DUP3 AND DUP3 SUB PUSH2 0x7A1 JUMPI JUMP JUMPDEST PUSH1 0x5 SLOAD PUSH1 0x1 PUSH1 0x1 PUSH1 0xA0 SHL SUB AND CALLER SUB PUSH2 0x7D0 JUMPI JUMP JUMPDEST PUSH1 0x40 MLOAD PUSH4 0x118CDAA7 PUSH1 0xE0 SHL DUP2 MSTORE CALLER PUSH1 0x4 DUP3 ADD MSTORE PUSH1 0x24 SWAP1 REVERT JUMPDEST SWAP2 PUSH1 0x1 PUSH1 0x1 PUSH1 0xA0 SHL SUB DUP1 DUP5 AND SWAP3 DUP4 ISZERO PUSH2 0x8AD JUMPI AND SWAP3 DUP4 ISZERO PUSH2 0x894 JUMPI PUSH1 0x0 SWAP1 DUP4 DUP3 MSTORE DUP2 PUSH1 0x20 MSTORE PUSH1 0x40 DUP3 KECCAK256 SLOAD SWAP1 DUP4 DUP3 LT PUSH2 0x862 JUMPI POP SWAP2 PUSH1 0x40 DUP3 DUP3 PUSH32 0xDDF252AD1BE2C89B69C2B068FC378DAA952BA7F163C4A11628F55A4DF523B3EF SWAP6 DUP8 PUSH1 0x20 SWAP7 MSTORE DUP3 DUP7 MSTORE SUB DUP3 DUP3 KECCAK256 SSTORE DUP7 DUP2 MSTORE KECCAK256 DUP2 DUP2 SLOAD ADD SWAP1 SSTORE PUSH1 0x40 MLOAD SWAP1 DUP2 MSTORE LOG3 JUMP JUMPDEST PUSH1 0x40 MLOAD PUSH4 0x391434E3 PUSH1 0xE2 SHL DUP2 MSTORE PUSH1 0x1 PUSH1 0x1 PUSH1 0xA0 SHL SUB SWAP2 SWAP1 SWAP2 AND PUSH1 0x4 DUP3 ADD MSTORE PUSH1 0x24 DUP2 ADD SWAP2 SWAP1 SWAP2 MSTORE PUSH1 0x44 DUP2 ADD DUP4 SWAP1 MSTORE PUSH1 0x64 SWAP1 REVERT JUMPDEST PUSH1 0x40 MLOAD PUSH4 0xEC442F05 PUSH1 0xE0 SHL DUP2 MSTORE PUSH1 0x0 PUSH1 0x4 DUP3 ADD MSTORE PUSH1 0x24 SWAP1 REVERT JUMPDEST PUSH1 0x40 MLOAD PUSH4 0x4B637E8F PUSH1 0xE1 SHL DUP2 MSTORE PUSH1 0x0 PUSH1 0x4 DUP3 ADD MSTORE PUSH1 0x24 SWAP1 REVERT INVALID LOG2 PUSH5 0x6970667358 0x22 SLT KECCAK256 BASEFEE 0xE2 0xCE PREVRANDAO PUSH7 0x3BE537347D4DCB JUMP SWAP16 0x25 PUSH21 0x3B804518AB05C5180C835C2E512F4CC864736F6C63 NUMBER STOP ADDMOD EQ STOP CALLER LOG2 PUSH5 0x6970667358 0x22 SLT KECCAK256 DUP8 0xC5 0x5C 0xE4 0xB1 0xE4 MSTORE 0xB5 CODECOPY 0xD4 COINBASE JUMPI STATICCALL KECCAK256 0xE2 DIV SGT 0xCA MLOAD EXTCODECOPY CALLDATALOAD SGT 0xCD REVERT 0x2B 0xB9 0xC1 0xE4 PUSH32 0xE0DE7E64736F6C63430008140033000000000000000000000000000000000000 "},"methodIdentifiers":{"DEPLOYMENT_FEE()":"a8f32251","MIN_INITIAL_BUY()":"59475e77","UPGRADE_FEE()":"a4b41c8a","allTokens(uint256)":"634282af","bondingCurve()":"eff1d50e","collectFee(address,uint256,string)":"9f3043c3","collectToken(address,address,uint256,string)":"b8d38253","createToken(string,string)":"2f2f2d56","creatorOf(address)":"dea5c2e0","feeWallet()":"f25f4b56","getAllTokens()":"2a5c792a","getTokensByCreator(address)":"d5c71275","isLinked(address)":"fb1afbd7","linkProtocol()":"39457b50","owner()":"8da5cb5b","renounceOwnership()":"715018a6","setBondingCurve(address)":"43ff1fb8","setFeeWallet(address)":"90d49b9d","setFees(uint256,uint256,uint256)":"cec10c11","tokensByCreator(address,uint256)":"d80d03a2","totalTokens()":"7e1c0c09","transferOwnership(address)":"f2fde38b","upgradeToken(address)":"6ee31a18"}}}}}