{
  "_format": "hh-sol-artifact-1",
  "contractName": "TokenTemplate",
  "sourceName": "contracts/TokenTemplate.flattened.sol",
  "abi": [
    {
      "inputs": [
        {
          "internalType": "string",
          "name": "name_",
          "type": "string"
        },
        {
          "internalType": "string",
          "name": "symbol_",
          "type": "string"
        },
        {
          "internalType": "uint8",
          "name": "decimals_",
          "type": "uint8"
        },
        {
          "internalType": "uint256",
          "name": "fixedSupply",
          "type": "uint256"
        },
        {
          "internalType": "address",
          "name": "_creator",
          "type": "address"
        },
        {
          "internalType": "address",
          "name": "bondingCurve_",
          "type": "address"
        },
        {
          "internalType": "address",
          "name": "feeWallet_",
          "type": "address"
        }
      ],
      "stateMutability": "payable",
      "type": "constructor"
    },
    {
      "inputs": [
        {
          "internalType": "address",
          "name": "spender",
          "type": "address"
        },
        {
          "internalType": "uint256",
          "name": "allowance",
          "type": "uint256"
        },
        {
          "internalType": "uint256",
          "name": "needed",
          "type": "uint256"
        }
      ],
      "name": "ERC20InsufficientAllowance",
      "type": "error"
    },
    {
      "inputs": [
        {
          "internalType": "address",
          "name": "sender",
          "type": "address"
        },
        {
          "internalType": "uint256",
          "name": "balance",
          "type": "uint256"
        },
        {
          "internalType": "uint256",
          "name": "needed",
          "type": "uint256"
        }
      ],
      "name": "ERC20InsufficientBalance",
      "type": "error"
    },
    {
      "inputs": [
        {
          "internalType": "address",
          "name": "approver",
          "type": "address"
        }
      ],
      "name": "ERC20InvalidApprover",
      "type": "error"
    },
    {
      "inputs": [
        {
          "internalType": "address",
          "name": "receiver",
          "type": "address"
        }
      ],
      "name": "ERC20InvalidReceiver",
      "type": "error"
    },
    {
      "inputs": [
        {
          "internalType": "address",
          "name": "sender",
          "type": "address"
        }
      ],
      "name": "ERC20InvalidSender",
      "type": "error"
    },
    {
      "inputs": [
        {
          "internalType": "address",
          "name": "spender",
          "type": "address"
        }
      ],
      "name": "ERC20InvalidSpender",
      "type": "error"
    },
    {
      "inputs": [
        {
          "internalType": "address",
          "name": "owner",
          "type": "address"
        }
      ],
      "name": "OwnableInvalidOwner",
      "type": "error"
    },
    {
      "inputs": [
        {
          "internalType": "address",
          "name": "account",
          "type": "address"
        }
      ],
      "name": "OwnableUnauthorizedAccount",
      "type": "error"
    },
    {
      "anonymous": false,
      "inputs": [
        {
          "indexed": true,
          "internalType": "address",
          "name": "owner",
          "type": "address"
        },
        {
          "indexed": true,
          "internalType": "address",
          "name": "spender",
          "type": "address"
        },
        {
          "indexed": false,
          "internalType": "uint256",
          "name": "value",
          "type": "uint256"
        }
      ],
      "name": "Approval",
      "type": "event"
    },
    {
      "anonymous": false,
      "inputs": [
        {
          "indexed": true,
          "internalType": "address",
          "name": "previousOwner",
          "type": "address"
        },
        {
          "indexed": true,
          "internalType": "address",
          "name": "newOwner",
          "type": "address"
        }
      ],
      "name": "OwnershipTransferred",
      "type": "event"
    },
    {
      "anonymous": false,
      "inputs": [
        {
          "indexed": false,
          "internalType": "string",
          "name": "name",
          "type": "string"
        },
        {
          "indexed": false,
          "internalType": "string",
          "name": "symbol",
          "type": "string"
        },
        {
          "indexed": false,
          "internalType": "uint256",
          "name": "supply",
          "type": "uint256"
        },
        {
          "indexed": false,
          "internalType": "uint8",
          "name": "decimals",
          "type": "uint8"
        },
        {
          "indexed": true,
          "internalType": "address",
          "name": "creator",
          "type": "address"
        },
        {
          "indexed": true,
          "internalType": "address",
          "name": "bondingCurve",
          "type": "address"
        }
      ],
      "name": "TokenDeployed",
      "type": "event"
    },
    {
      "anonymous": false,
      "inputs": [
        {
          "indexed": true,
          "internalType": "address",
          "name": "from",
          "type": "address"
        },
        {
          "indexed": true,
          "internalType": "address",
          "name": "to",
          "type": "address"
        },
        {
          "indexed": false,
          "internalType": "uint256",
          "name": "value",
          "type": "uint256"
        }
      ],
      "name": "Transfer",
      "type": "event"
    },
    {
      "inputs": [
        {
          "internalType": "address",
          "name": "owner",
          "type": "address"
        },
        {
          "internalType": "address",
          "name": "spender",
          "type": "address"
        }
      ],
      "name": "allowance",
      "outputs": [
        {
          "internalType": "uint256",
          "name": "",
          "type": "uint256"
        }
      ],
      "stateMutability": "view",
      "type": "function"
    },
    {
      "inputs": [
        {
          "internalType": "address",
          "name": "spender",
          "type": "address"
        },
        {
          "internalType": "uint256",
          "name": "value",
          "type": "uint256"
        }
      ],
      "name": "approve",
      "outputs": [
        {
          "internalType": "bool",
          "name": "",
          "type": "bool"
        }
      ],
      "stateMutability": "nonpayable",
      "type": "function"
    },
    {
      "inputs": [
        {
          "internalType": "address",
          "name": "account",
          "type": "address"
        }
      ],
      "name": "balanceOf",
      "outputs": [
        {
          "internalType": "uint256",
          "name": "",
          "type": "uint256"
        }
      ],
      "stateMutability": "view",
      "type": "function"
    },
    {
      "inputs": [
        {
          "internalType": "uint256",
          "name": "amount",
          "type": "uint256"
        }
      ],
      "name": "burn",
      "outputs": [],
      "stateMutability": "nonpayable",
      "type": "function"
    },
    {
      "inputs": [],
      "name": "creator",
      "outputs": [
        {
          "internalType": "address",
          "name": "",
          "type": "address"
        }
      ],
      "stateMutability": "view",
      "type": "function"
    },
    {
      "inputs": [],
      "name": "decimals",
      "outputs": [
        {
          "internalType": "uint8",
          "name": "",
          "type": "uint8"
        }
      ],
      "stateMutability": "view",
      "type": "function"
    },
    {
      "inputs": [
        {
          "internalType": "address",
          "name": "to",
          "type": "address"
        },
        {
          "internalType": "uint256",
          "name": "amount",
          "type": "uint256"
        }
      ],
      "name": "mint",
      "outputs": [],
      "stateMutability": "nonpayable",
      "type": "function"
    },
    {
      "inputs": [],
      "name": "name",
      "outputs": [
        {
          "internalType": "string",
          "name": "",
          "type": "string"
        }
      ],
      "stateMutability": "view",
      "type": "function"
    },
    {
      "inputs": [],
      "name": "owner",
      "outputs": [
        {
          "internalType": "address",
          "name": "",
          "type": "address"
        }
      ],
      "stateMutability": "view",
      "type": "function"
    },
    {
      "inputs": [],
      "name": "renounceOwnership",
      "outputs": [],
      "stateMutability": "nonpayable",
      "type": "function"
    },
    {
      "inputs": [],
      "name": "symbol",
      "outputs": [
        {
          "internalType": "string",
          "name": "",
          "type": "string"
        }
      ],
      "stateMutability": "view",
      "type": "function"
    },
    {
      "inputs": [],
      "name": "totalSupply",
      "outputs": [
        {
          "internalType": "uint256",
          "name": "",
          "type": "uint256"
        }
      ],
      "stateMutability": "view",
      "type": "function"
    },
    {
      "inputs": [
        {
          "internalType": "address",
          "name": "to",
          "type": "address"
        },
        {
          "internalType": "uint256",
          "name": "value",
          "type": "uint256"
        }
      ],
      "name": "transfer",
      "outputs": [
        {
          "internalType": "bool",
          "name": "",
          "type": "bool"
        }
      ],
      "stateMutability": "nonpayable",
      "type": "function"
    },
    {
      "inputs": [
        {
          "internalType": "address",
          "name": "from",
          "type": "address"
        },
        {
          "internalType": "address",
          "name": "to",
          "type": "address"
        },
        {
          "internalType": "uint256",
          "name": "value",
          "type": "uint256"
        }
      ],
      "name": "transferFrom",
      "outputs": [
        {
          "internalType": "bool",
          "name": "",
          "type": "bool"
        }
      ],
      "stateMutability": "nonpayable",
      "type": "function"
    },
    {
      "inputs": [
        {
          "internalType": "address",
          "name": "newOwner",
          "type": "address"
        }
      ],
      "name": "transferOwnership",
      "outputs": [],
      "stateMutability": "nonpayable",
      "type": "function"
    }
  ],
  "bytecode": "0x60406080815262001128803803806200001881620005f1565b928339810160e082820312620005ec5781516001600160401b039290838111620005ec57826200004a91830162000658565b906020928382015190858211620005ec576200006891830162000658565b858201519360ff851691828603620005ec576060840151936200008e608082016200069a565b97620000ab60c0620000a360a085016200069a565b93016200069a565b918751828111620004ec576003928354936001928386811c96168015620005e1575b89871014620005cb57601f9586811162000580575b5080898782116001146200050e5760009162000502575b5060001982841b1c191690841b1781555b8651918211620004ec5760049485548481811c91168015620004e1575b8a821014620004cc5781811162000481575b50889083116001146200041757829383916000946200040b575b501b92600019911b1c19161782555b6001600160a01b038181169a9099908b15620003f457600580546001600160a01b031981168e179091558b91908d9083167f8be0079c531659141344cd1fd0a4f28419497f9722a3daafe3b4186f6b6457e0600080a316998a15620003bf5784169081156200038757600680546001600160a81b0319168c1760a09290921b60ff60a01b1691909117905534620002ff575b50604d8611620002ea5785600a0a92838802938885041488151715620002d557600a84049384810393818511620002c05750927fcfdd2334c592eec854e571de05695acf7ad2753c264d043eefdac143cb72adc099979592620002859592620002779a9895620002a0575b505050508a51968796608088526080880190620006af565b9186830390870152620006af565b918884015260608301520390a3516109bf9081620007698239f35b620002b693620002b091620006d6565b620006d6565b388080806200025f565b601190634e487b7160e01b6000525260246000fd5b601183634e487b7160e01b6000525260246000fd5b601182634e487b7160e01b6000525260246000fd5b60008080809334905af13d1562000381573d62000326620003208262000617565b620005f1565b9081526000873d92013e5b156200033e5738620001f4565b8a5162461bcd60e51b8152808301869052601360248201527f466565207472616e73666572206661696c6564000000000000000000000000006044820152606490fd5b62000331565b8c5162461bcd60e51b81528085018890526012602482015271125b9d985b1a5908199959481dd85b1b195d60721b6044820152606490fd5b8c5162461bcd60e51b8152808501889052600f60248201526e24b73b30b634b21031b932b0ba37b960891b6044820152606490fd5b8c51631e4fbdf760e01b8152600081860152602490fd5b89015193503862000153565b90601f1983169186600052838a6000209360005b8c888d8484106200046a5750505050106200044f575b505050811b01825562000162565b8801519060f884600019921b161c1916905538808062000441565b86015188559096019593840193879350016200042b565b86600052896000208280860160051c8201928c8710620004c2575b0160051c019085905b828110620004b557505062000139565b60008155018590620004a5565b925081926200049c565b602287634e487b7160e01b6000525260246000fd5b90607f169062000127565b634e487b7160e01b600052604160045260246000fd5b90508c015138620000f9565b60008481528b812087945091908f90601f198516908e5b8282106200055e575050841162000545575b505050811b0181556200010a565b015160001983861b60f8161c1916905538808e62000537565b929484849395979892960151815501940192018f909188959493928e62000525565b82600052896000208780840160051c8201928c8510620005c1575b0160051c019085905b828110620005b4575050620000e2565b60008155018590620005a4565b925081926200059b565b634e487b7160e01b600052602260045260246000fd5b95607f1695620000cd565b600080fd5b6040519190601f01601f191682016001600160401b03811183821017620004ec57604052565b6001600160401b038111620004ec57601f01601f191660200190565b60005b838110620006475750506000910152565b818101518382015260200162000636565b81601f82011215620005ec57805162000675620003208262000617565b9281845260208284010111620005ec5762000697916020808501910162000633565b90565b51906001600160a01b0382168203620005ec57565b90602091620006ca8151809281855285808601910162000633565b601f01601f1916010190565b6001600160a01b03169081156200074f5760025490808201809211620007395760207fddf252ad1be2c89b69c2b068fc378daa952ba7f163c4a11628f55a4df523b3ef9160009360025584845283825260408420818154019055604051908152a3565b634e487b7160e01b600052601160045260246000fd5b60405163ec442f0560e01b815260006004820152602490fdfe6080604081815260048036101561001557600080fd5b600092833560e01c90816302d05d3f146107e05750806306fdde0314610705578063095ea7b31461065c57806318160ddd1461063d57806323b872dd1461054a578063313ce5671461052557806340c10f191461047657806342966c68146103b857806370a0823114610381578063715018a6146103215780638da5cb5b146102f857806395d89b41146101d8578063a9059cbb146101a7578063dd62ed3e1461015a5763f2fde38b146100c857600080fd5b34610156576020366003190112610156576100e161084e565b906100ea61087f565b6001600160a01b03918216928315610140575050600554826bffffffffffffffffffffffff60a01b821617600555167f8be0079c531659141344cd1fd0a4f28419497f9722a3daafe3b4186f6b6457e08380a380f35b51631e4fbdf760e01b8152908101849052602490fd5b8280fd5b5050346101a357806003193601126101a3578060209261017861084e565b610180610869565b6001600160a01b0391821683526001865283832091168252845220549051908152f35b5080fd5b5050346101a357806003193601126101a3576020906101d16101c761084e565b60243590336108ab565b5160018152f35b509190346101a357816003193601126101a357805190828454600181811c908083169283156102ee575b60209384841081146102db578388529081156102bf575060011461026a575b505050829003601f01601f191682019267ffffffffffffffff8411838510176102575750829182610253925282610805565b0390f35b634e487b7160e01b815260418552602490fd5b8787529192508591837f8a35acfbc15ff81a39ae7d344fd709f28e8600b4aa8c65c6b64bfe7fe36bd19b5b8385106102ab5750505050830101388080610221565b805488860183015293019284908201610295565b60ff1916878501525050151560051b8401019050388080610221565b634e487b7160e01b895260228a52602489fd5b91607f1691610202565b5050346101a357816003193601126101a35760055490516001600160a01b039091168152602090f35b833461037e578060031936011261037e5761033a61087f565b600580546001600160a01b0319811690915581906001600160a01b03167f8be0079c531659141344cd1fd0a4f28419497f9722a3daafe3b4186f6b6457e08280a380f35b80fd5b5050346101a35760203660031901126101a35760209181906001600160a01b036103a961084e565b16815280845220549051908152f35b509190346101a35760203660031901126101a3578235906103d761087f565b33156104605733835282602052808320549382851061043557508183943385528460205203818420558160025403600255519081527fddf252ad1be2c89b69c2b068fc378daa952ba7f163c4a11628f55a4df523b3ef60203392a380f35b905163391434e360e21b81523391810191825260208201859052604082018390529081906060010390fd5b51634b637e8f60e11b8152808401839052602490fd5b50903461015657806003193601126101565761049061084e565b906024359161049d61087f565b6001600160a01b031692831561051057600254908382018092116104fd575084927fddf252ad1be2c89b69c2b068fc378daa952ba7f163c4a11628f55a4df523b3ef9260209260025585855284835280852082815401905551908152a380f35b634e487b7160e01b865260119052602485fd5b84602492519163ec442f0560e01b8352820152fd5b5050346101a357816003193601126101a35760209060ff60065460a01c169051908152f35b50823461037e57606036600319011261037e5761056561084e565b61056d610869565b916044359360018060a01b0383168083526001602052868320338452602052868320549160001983106105a9575b6020886101d18989896108ab565b8683106106115781156105fa5733156105e3575082526001602090815286832033845281529186902090859003905582906101d18761059b565b8751634a1406b160e11b8152908101849052602490fd5b875163e602df0560e01b8152908101849052602490fd5b8751637dc7a0d960e11b8152339181019182526020820193909352604081018790528291506060010390fd5b5050346101a357816003193601126101a3576020906002549051908152f35b503461015657816003193601126101565761067561084e565b6024359033156106ee576001600160a01b03169182156106d757508083602095338152600187528181208582528752205582519081527f8c5be1e5ebec7d5bd14f71427d1e84f3dd0314c0f7b2291e5b200ac8c7c3b925843392a35160018152f35b8351634a1406b160e11b8152908101859052602490fd5b835163e602df0560e01b8152808401869052602490fd5b509190346101a357816003193601126101a35780519082600354600181811c908083169283156107d6575b60209384841081146102db578388529081156102bf575060011461078057505050829003601f01601f191682019267ffffffffffffffff8411838510176102575750829182610253925282610805565b600387529192508591837fc2575a0e9e593c00f959f8c92f12db2869c3395a3b0502d05e2516446f71f85b5b8385106107c25750505050830101388080610221565b8054888601830152930192849082016107ac565b91607f1691610730565b8490346101a357816003193601126101a3576006546001600160a01b03168152602090f35b6020808252825181830181905290939260005b82811061083a57505060409293506000838284010152601f8019910116010190565b818101860151848201604001528501610818565b600435906001600160a01b038216820361086457565b600080fd5b602435906001600160a01b038216820361086457565b6005546001600160a01b0316330361089357565b60405163118cdaa760e01b8152336004820152602490fd5b916001600160a01b0380841692831561097057169283156109575760009083825281602052604082205490838210610925575091604082827fddf252ad1be2c89b69c2b068fc378daa952ba7f163c4a11628f55a4df523b3ef958760209652828652038282205586815220818154019055604051908152a3565b60405163391434e360e21b81526001600160a01b03919091166004820152602481019190915260448101839052606490fd5b60405163ec442f0560e01b815260006004820152602490fd5b604051634b637e8f60e11b815260006004820152602490fdfea2646970667358221220730d005a2c05ce450e09e4713fd0de145a4881cb2386c8f99c8ec35e17f6d11264736f6c63430008140033",
  "linkReferences": {},
  "deployedLinkReferences": {}
}