{
  "_format": "hh-sol-artifact-1",
  "contractName": "BondingCurve",
  "sourceName": "contracts/BondingCurve.sol",
  "abi": [
    {
      "inputs": [
        {
          "internalType": "address",
          "name": "_owner",
          "type": "address"
        },
        {
          "internalType": "address",
          "name": "_feeWallet",
          "type": "address"
        }
      ],
      "stateMutability": "nonpayable",
      "type": "constructor"
    },
    {
      "inputs": [
        {
          "internalType": "address",
          "name": "owner",
          "type": "address"
        }
      ],
      "name": "OwnableInvalidOwner",
      "type": "error"
    },
    {
      "inputs": [
        {
          "internalType": "address",
          "name": "account",
          "type": "address"
        }
      ],
      "name": "OwnableUnauthorizedAccount",
      "type": "error"
    },
    {
      "inputs": [],
      "name": "ReentrancyGuardReentrantCall",
      "type": "error"
    },
    {
      "anonymous": false,
      "inputs": [
        {
          "indexed": true,
          "internalType": "address",
          "name": "token",
          "type": "address"
        },
        {
          "indexed": true,
          "internalType": "address",
          "name": "user",
          "type": "address"
        },
        {
          "indexed": false,
          "internalType": "uint256",
          "name": "bnbIn",
          "type": "uint256"
        },
        {
          "indexed": false,
          "internalType": "uint256",
          "name": "tokensOut",
          "type": "uint256"
        }
      ],
      "name": "Buy",
      "type": "event"
    },
    {
      "anonymous": false,
      "inputs": [
        {
          "indexed": true,
          "internalType": "address",
          "name": "factory",
          "type": "address"
        },
        {
          "indexed": false,
          "internalType": "bool",
          "name": "authorized",
          "type": "bool"
        }
      ],
      "name": "FactoryAuthorized",
      "type": "event"
    },
    {
      "anonymous": false,
      "inputs": [
        {
          "indexed": true,
          "internalType": "address",
          "name": "newFeeWallet",
          "type": "address"
        }
      ],
      "name": "FeeWalletSet",
      "type": "event"
    },
    {
      "anonymous": false,
      "inputs": [
        {
          "indexed": true,
          "internalType": "address",
          "name": "newManager",
          "type": "address"
        }
      ],
      "name": "LiquidityManagerSet",
      "type": "event"
    },
    {
      "anonymous": false,
      "inputs": [
        {
          "indexed": true,
          "internalType": "address",
          "name": "token",
          "type": "address"
        },
        {
          "indexed": false,
          "internalType": "uint256",
          "name": "bnbToLP",
          "type": "uint256"
        },
        {
          "indexed": false,
          "internalType": "uint256",
          "name": "tokensToLP",
          "type": "uint256"
        },
        {
          "indexed": false,
          "internalType": "uint256",
          "name": "bnbToFee",
          "type": "uint256"
        }
      ],
      "name": "Migrated",
      "type": "event"
    },
    {
      "anonymous": false,
      "inputs": [
        {
          "indexed": true,
          "internalType": "address",
          "name": "previousOwner",
          "type": "address"
        },
        {
          "indexed": true,
          "internalType": "address",
          "name": "newOwner",
          "type": "address"
        }
      ],
      "name": "OwnershipTransferred",
      "type": "event"
    },
    {
      "anonymous": false,
      "inputs": [
        {
          "indexed": true,
          "internalType": "address",
          "name": "token",
          "type": "address"
        },
        {
          "indexed": true,
          "internalType": "address",
          "name": "user",
          "type": "address"
        },
        {
          "indexed": false,
          "internalType": "uint256",
          "name": "tokensIn",
          "type": "uint256"
        },
        {
          "indexed": false,
          "internalType": "uint256",
          "name": "bnbOut",
          "type": "uint256"
        }
      ],
      "name": "Sell",
      "type": "event"
    },
    {
      "anonymous": false,
      "inputs": [
        {
          "indexed": true,
          "internalType": "address",
          "name": "token",
          "type": "address"
        },
        {
          "indexed": true,
          "internalType": "address",
          "name": "creator",
          "type": "address"
        }
      ],
      "name": "TokenLaunched",
      "type": "event"
    },
    {
      "inputs": [],
      "name": "INITIAL_PRICE",
      "outputs": [
        {
          "internalType": "uint256",
          "name": "",
          "type": "uint256"
        }
      ],
      "stateMutability": "view",
      "type": "function"
    },
    {
      "inputs": [],
      "name": "LIQUIDITY_RATIO_BPS",
      "outputs": [
        {
          "internalType": "uint256",
          "name": "",
          "type": "uint256"
        }
      ],
      "stateMutability": "view",
      "type": "function"
    },
    {
      "inputs": [],
      "name": "MAX_SUPPLY",
      "outputs": [
        {
          "internalType": "uint256",
          "name": "",
          "type": "uint256"
        }
      ],
      "stateMutability": "view",
      "type": "function"
    },
    {
      "inputs": [],
      "name": "MIGRATION_THRESHOLD",
      "outputs": [
        {
          "internalType": "uint256",
          "name": "",
          "type": "uint256"
        }
      ],
      "stateMutability": "view",
      "type": "function"
    },
    {
      "inputs": [],
      "name": "PROTOCOL_FEE_BPS",
      "outputs": [
        {
          "internalType": "uint256",
          "name": "",
          "type": "uint256"
        }
      ],
      "stateMutability": "view",
      "type": "function"
    },
    {
      "inputs": [
        {
          "internalType": "address",
          "name": "",
          "type": "address"
        }
      ],
      "name": "authorizedFactories",
      "outputs": [
        {
          "internalType": "bool",
          "name": "",
          "type": "bool"
        }
      ],
      "stateMutability": "view",
      "type": "function"
    },
    {
      "inputs": [
        {
          "internalType": "address",
          "name": "token",
          "type": "address"
        }
      ],
      "name": "buy",
      "outputs": [],
      "stateMutability": "payable",
      "type": "function"
    },
    {
      "inputs": [],
      "name": "feeWallet",
      "outputs": [
        {
          "internalType": "address",
          "name": "",
          "type": "address"
        }
      ],
      "stateMutability": "view",
      "type": "function"
    },
    {
      "inputs": [
        {
          "internalType": "address",
          "name": "token",
          "type": "address"
        },
        {
          "internalType": "address",
          "name": "creator",
          "type": "address"
        }
      ],
      "name": "launchToken",
      "outputs": [],
      "stateMutability": "nonpayable",
      "type": "function"
    },
    {
      "inputs": [],
      "name": "liquidityManager",
      "outputs": [
        {
          "internalType": "address",
          "name": "",
          "type": "address"
        }
      ],
      "stateMutability": "view",
      "type": "function"
    },
    {
      "inputs": [
        {
          "internalType": "address",
          "name": "",
          "type": "address"
        }
      ],
      "name": "markets",
      "outputs": [
        {
          "internalType": "address",
          "name": "token",
          "type": "address"
        },
        {
          "internalType": "address",
          "name": "creator",
          "type": "address"
        },
        {
          "internalType": "uint256",
          "name": "collateral",
          "type": "uint256"
        },
        {
          "internalType": "uint256",
          "name": "supply",
          "type": "uint256"
        },
        {
          "internalType": "bool",
          "name": "migrated",
          "type": "bool"
        }
      ],
      "stateMutability": "view",
      "type": "function"
    },
    {
      "inputs": [],
      "name": "owner",
      "outputs": [
        {
          "internalType": "address",
          "name": "",
          "type": "address"
        }
      ],
      "stateMutability": "view",
      "type": "function"
    },
    {
      "inputs": [],
      "name": "renounceOwnership",
      "outputs": [],
      "stateMutability": "nonpayable",
      "type": "function"
    },
    {
      "inputs": [
        {
          "internalType": "address",
          "name": "token",
          "type": "address"
        },
        {
          "internalType": "uint256",
          "name": "amount",
          "type": "uint256"
        }
      ],
      "name": "sell",
      "outputs": [],
      "stateMutability": "nonpayable",
      "type": "function"
    },
    {
      "inputs": [
        {
          "internalType": "address",
          "name": "factory",
          "type": "address"
        },
        {
          "internalType": "bool",
          "name": "authorized",
          "type": "bool"
        }
      ],
      "name": "setAuthorizedFactory",
      "outputs": [],
      "stateMutability": "nonpayable",
      "type": "function"
    },
    {
      "inputs": [
        {
          "internalType": "address",
          "name": "_feeWallet",
          "type": "address"
        }
      ],
      "name": "setFeeWallet",
      "outputs": [],
      "stateMutability": "nonpayable",
      "type": "function"
    },
    {
      "inputs": [
        {
          "internalType": "address",
          "name": "_liquidityManager",
          "type": "address"
        }
      ],
      "name": "setLiquidityManager",
      "outputs": [],
      "stateMutability": "nonpayable",
      "type": "function"
    },
    {
      "inputs": [
        {
          "internalType": "address",
          "name": "newOwner",
          "type": "address"
        }
      ],
      "name": "transferOwnership",
      "outputs": [],
      "stateMutability": "nonpayable",
      "type": "function"
    },
    {
      "stateMutability": "payable",
      "type": "receive"
    }
  ],
  "bytecode": "0x60803461013957601f61135a38819003918201601f19168301916001600160401b0383118484101761013e57808492604094855283398101031261013957610052602061004b83610154565b9201610154565b906001600160a01b03908116908115610120576000549260018060a01b03199280848616176000558260405195167f8be0079c531659141344cd1fd0a4f28419497f9722a3daafe3b4186f6b6457e0600080a360017f9b779b17422d0df92223018b32b4d1fa46e071723d6817e2486d003becc55f0055169182156100e9575060015416176001556040516111f190816101698239f35b62461bcd60e51b8152602060048201526012602482015271125b9d985b1a5908199959481dd85b1b195d60721b6044820152606490fd5b604051631e4fbdf760e01b815260006004820152602490fd5b600080fd5b634e487b7160e01b600052604160045260246000fd5b51906001600160a01b03821682036101395756fe60806040818152600480361015610021575b505050361561001f57600080fd5b005b600092833560e01c908163150ee88314610fde5750806332cb6b0c14610fb75780633382743814610f8e57806338a275d714610f715780633c1624d414610ec15780635c85c58814610e395780636c197ff514610b78578063715018a614610b1b5780637c5e279514610afb5780638da5cb5b14610ad35780638e8f294b14610a6557806390d49b9d146109c0578063962c165f14610806578063be378228146107ea578063ecd24a82146107ae578063f088d547146101a6578063f25f4b56146101795763f2fde38b03610011573461017557602036600319011261017557610109611001565b9061011261101c565b6001600160a01b0391821692831561015f57505082546001600160a01b0319811683178455167f8be0079c531659141344cd1fd0a4f28419497f9722a3daafe3b4186f6b6457e08380a380f35b51631e4fbdf760e01b8152908101849052602490fd5b8280fd5b5050346101a257816003193601126101a25760015490516001600160a01b039091168152602090f35b5080fd5b5090602090816003193601126107aa576101be611001565b906101c76110c8565b6001600160a01b039182168086526003845281862080549095908416156107745760ff81870154166107315734156106f55760643402933485046064036106e257612710809504966102198834611080565b90610229600199848b541661110a565b670de0b6b3a76400008083029083820414831517156106cf5764174876e8009004906003810180546b033b2e3c9fd0803ce800000061026885836110a3565b1161069757828695949392610291858f9461028a60028d9c9801998a546110a3565b89556110a3565b9055338e52868c52898e205460ff168e81610688575b501561067e57015416905b875163a9059cbb60e01b8082526001600160a01b03841696820196875260208701839052958b9082908f908290819060400103918c5af190811561061c578d91610661575b501561062657867f89f5adc174562e07c9c9b1cae7109bbecb21cf9d1b2847e550042b8653c54a0e89866802b5e3af16b188000096958e958351963488528701521693a354101561036a575b88887f9b779b17422d0df92223018b32b4d1fa46e071723d6817e2486d003becc55f005580f35b83895260038752848920838101805460ff19168a17905560028101805487516370a0823160e01b8152308188015298909492908a8a6024818b5afa998a1561061c578d9a6105e9575b50611f408087029087820414871517156105d65761041289948f928f8460037f6b60d326d3c4023c7cb9b6755fc31af3cfbccdeb07a7a8b4d79e201f732324ee986104056060998e96049e8f90611080565b978896550155541661110a565b8951908782528b8d8301528a820152a281600254161515806105cd575b806105c4575b156105355750600254855163095ea7b360e01b81529082166001600160a01b03168482019081526020810188905288908290819060400103818d895af1801561052b579160649391899695936104fe575b508060025416908a541687519889968795630370f26f60e31b8752860152602485015260448401525af19081156104f557506104cc575b50505b38808080808080610343565b813d83116104ee575b6104df8183611048565b810103126101a25738806104bd565b503d6104d5565b513d86823e3d90fd5b61051d90873d8911610524575b6105158183611048565b8101906110b0565b5038610486565b503d61050b565b86513d8c823e3d90fd5b9290939161054690858a541661110a565b888661055a575b50505050505050506104c0565b87948954169361058a8751988996879586948552840160209093929193604081019460018060a01b031681520152565b03925af19081156104f557506105a6575b80808080808861054d565b816105bc92903d10610524576105158183611048565b50388061059b565b50821515610435565b5086151561042f565b634e487b7160e01b8e526011885260248efd5b9099508a81813d8311610615575b6106018183611048565b81010312610611575198386103b3565b8c80fd5b503d6105f7565b89513d8f823e3d90fd5b875162461bcd60e51b81528087018b90526015602482015274151bdad95b881d1c985b9cd9995c8819985a5b1959605a1b6044820152606490fd5b61067891508b3d8d11610524576105158183611048565b386102f7565b50505033906102b2565b828401548516151591506102a7565b885162461bcd60e51b81528088018c9052601260248201527145786365656473206d617820737570706c7960701b6044820152606490fd5b634e487b7160e01b8b526011855260248bfd5b634e487b7160e01b885260118252602488fd5b825162461bcd60e51b8152908101859052601660248201527553656e6420424e4220746f2062757920746f6b656e7360501b6044820152606490fd5b825162461bcd60e51b8152908101859052601d60248201527f546f6b656e20616c7265616479206d6967726174656420746f204445580000006044820152606490fd5b825162461bcd60e51b8152908101859052601060248201526f13585c9ad95d081b9bdd08199bdd5b9960821b6044820152606490fd5b8380fd5b50346101755760203660031901126101755760209260ff918391906001600160a01b036107d9611001565b168252855220541690519015158152f35b5050346101a257816003193601126101a2576020905160648152f35b509190346101a257806003193601126101a257610821611001565b6001600160a01b036024358181169392908490036109bc5733855260209086825260ff848720541680156109b0575b15610974578216928386526003825282818720541661093e5780519260a0840184811067ffffffffffffffff82111761092b579282889261090496958b9552878652828601908982528083880193868552600360608a01968888528c60808c0199808b5252528c20975116906bffffffffffffffffffffffff60a01b9182895416178855600188019251169082541617905551600285015551600384015551151591019060ff801983541691151516179055565b7fab3e0ae7b7d4c37d3539a4f3e3ac856a540af410acce171c797bbf88c1853b2d8380a380f35b634e487b7160e01b885260418952602488fd5b5162461bcd60e51b815280870191909152601060248201526f105b1c9958591e481b185d5b98da195960821b6044820152606490fd5b835162461bcd60e51b815280880183905260166024820152754e6f7420617574686f72697a656420666163746f727960501b6044820152606490fd5b50828654163314610850565b8480fd5b5034610175576020366003190112610175576109da611001565b6109e261101c565b6001600160a01b0316918215610a2d575050600180546001600160a01b031916821790557f0439162378682c6392215882cf21e973f49063ed3530a31d763835a2e9f6d17e8280a280f35b906020606492519162461bcd60e51b83528201526012602482015271125b9d985b1a5908199959481dd85b1b195d60721b6044820152fd5b509190346101a25760203660031901126101a25760a0926001600160a01b0392829084610a90611001565b1681526003602052209083825416936001830154169260ff6002840154926003850154940154169381519586526020860152840152606083015215156080820152f35b5050346101a257816003193601126101a257905490516001600160a01b039091168152602090f35b5050346101a257816003193601126101a2576020905164174876e8008152f35b8334610b755780600319360112610b7557610b3461101c565b80546001600160a01b03198116825581906001600160a01b03167f8be0079c531659141344cd1fd0a4f28419497f9722a3daafe3b4186f6b6457e08280a380f35b80fd5b509190346101a257806003193601126101a257610b93611001565b92602491823592610ba26110c8565b60018060a01b0380961692838652602090600382528387209260ff8285015416610ddc578615610da75764174876e800870264174876e7ff1988820401610d9557670de0b6b3a76400009004936002810185815410610d535786516323b872dd60e01b815233858201523084820152604481018a905285816064818e8d5af1908115610d49578b91610d2c575b5015610cf6579081610c448760039454611080565b905501610c52888254611080565b9055606484029184830460641485151715610ce55750507fa082022e93cfcd9f1da5f9236718053910f7e840da080c789c7845698dc032ff94959697610cad612710610cb39304610ca38187611080565b926001541661110a565b3361110a565b82519586528501523393a360017f9b779b17422d0df92223018b32b4d1fa46e071723d6817e2486d003becc55f005580f35b634e487b7160e01b89526011905287fd5b865162461bcd60e51b815280850186905260118185015270151bdad95b881c1d5b1b0819985a5b1959607a1b6044820152606490fd5b610d439150863d8811610524576105158183611048565b38610c2f565b88513d8d823e3d90fd5b865162461bcd60e51b8152808501869052601f818501527f496e73756666696369656e74206c697175696469747920696e206375727665006044820152606490fd5b50634e487b7160e01b88526011825287fd5b60129060649386519362461bcd60e51b8552840152820152710416d6f756e74206d757374206265203e20360741b6044820152fd5b60349060849386519362461bcd60e51b85528401528201527f546f6b656e20616c7265616479206d6967726174656420746f20444558202d2060448201527307472616465206f6e2050616e63616b65537761760641b6064820152fd5b509034610175578060031936011261017557610e53611001565b906024359081151590818303610ebd57610eb56020937f6b489c12f59a99312ab950fddabe529a090208050382df653584944ea5f78b3595610e9361101c565b60018060a01b03169687895285528288209060ff801983541691151516179055565b51908152a280f35b8580fd5b503461017557602036600319011261017557610edb611001565b610ee361101c565b6001600160a01b0316918215610f2e575050600280546001600160a01b031916821790557fc783f916f4a84aafa6573e6ffd2cd7d99dbf370e160fbaa2d6c585ae7247737e8280a280f35b906020606492519162461bcd60e51b8352820152601960248201527f496e76616c6964206c6971756964697479206d616e61676572000000000000006044820152fd5b5050346101a257816003193601126101a25760209051611f408152f35b5050346101a257816003193601126101a25760025490516001600160a01b039091168152602090f35b5050346101a257816003193601126101a257602090516b033b2e3c9fd0803ce80000008152f35b8490346101a257816003193601126101a257806802b5e3af16b188000060209252f35b600435906001600160a01b038216820361101757565b600080fd5b6000546001600160a01b0316330361103057565b60405163118cdaa760e01b8152336004820152602490fd5b90601f8019910116810190811067ffffffffffffffff82111761106a57604052565b634e487b7160e01b600052604160045260246000fd5b9190820391821161108d57565b634e487b7160e01b600052601160045260246000fd5b9190820180921161108d57565b90816020910312611017575180151581036110175790565b7f9b779b17422d0df92223018b32b4d1fa46e071723d6817e2486d003becc55f0060028154146110f85760029055565b604051633ee5aeb560e01b8152600490fd5b81156111b757600080808094819460018060a01b03165af1903d156111b1573d9067ffffffffffffffff821161119d5760405191611152601f8201601f191660200184611048565b825260203d92013e5b1561116257565b60405162461bcd60e51b8152602060048201526013602482015272109390881d1c985b9cd9995c8819985a5b1959606a1b6044820152606490fd5b634e487b7160e01b81526041600452602490fd5b5061115b565b505056fea2646970667358221220b4187f2e12db8a64846fdba66d9dd5e43ce635847958545d5ff260c34ebfabfe64736f6c63430008140033",
  "linkReferences": {},
  "deployedLinkReferences": {}
}