{
  "_format": "hh-sol-artifact-1",
  "contractName": "BondingCurve",
  "sourceName": "contracts/BondingCurve.sol",
  "abi": [
    {
      "inputs": [
        {
          "internalType": "address",
          "name": "_owner",
          "type": "address"
        },
        {
          "internalType": "address",
          "name": "_feeWallet",
          "type": "address"
        },
        {
          "internalType": "address",
          "name": "_router",
          "type": "address"
        }
      ],
      "stateMutability": "nonpayable",
      "type": "constructor"
    },
    {
      "inputs": [
        {
          "internalType": "address",
          "name": "owner",
          "type": "address"
        }
      ],
      "name": "OwnableInvalidOwner",
      "type": "error"
    },
    {
      "inputs": [
        {
          "internalType": "address",
          "name": "account",
          "type": "address"
        }
      ],
      "name": "OwnableUnauthorizedAccount",
      "type": "error"
    },
    {
      "inputs": [],
      "name": "ReentrancyGuardReentrantCall",
      "type": "error"
    },
    {
      "anonymous": false,
      "inputs": [
        {
          "indexed": true,
          "internalType": "address",
          "name": "to",
          "type": "address"
        },
        {
          "indexed": false,
          "internalType": "uint256",
          "name": "amount",
          "type": "uint256"
        }
      ],
      "name": "BNBSwept",
      "type": "event"
    },
    {
      "anonymous": false,
      "inputs": [
        {
          "indexed": true,
          "internalType": "address",
          "name": "token",
          "type": "address"
        },
        {
          "indexed": true,
          "internalType": "address",
          "name": "user",
          "type": "address"
        },
        {
          "indexed": false,
          "internalType": "uint256",
          "name": "bnbIn",
          "type": "uint256"
        },
        {
          "indexed": false,
          "internalType": "uint256",
          "name": "tokensOut",
          "type": "uint256"
        }
      ],
      "name": "Buy",
      "type": "event"
    },
    {
      "anonymous": false,
      "inputs": [
        {
          "indexed": true,
          "internalType": "address",
          "name": "factory",
          "type": "address"
        },
        {
          "indexed": false,
          "internalType": "bool",
          "name": "authorized",
          "type": "bool"
        }
      ],
      "name": "FactoryAuthorized",
      "type": "event"
    },
    {
      "anonymous": false,
      "inputs": [
        {
          "indexed": true,
          "internalType": "address",
          "name": "newFeeWallet",
          "type": "address"
        }
      ],
      "name": "FeeWalletSet",
      "type": "event"
    },
    {
      "anonymous": false,
      "inputs": [
        {
          "indexed": true,
          "internalType": "address",
          "name": "token",
          "type": "address"
        },
        {
          "indexed": false,
          "internalType": "uint256",
          "name": "bnbAmount",
          "type": "uint256"
        }
      ],
      "name": "FirstTradeTriggered",
      "type": "event"
    },
    {
      "anonymous": false,
      "inputs": [
        {
          "indexed": true,
          "internalType": "address",
          "name": "token",
          "type": "address"
        },
        {
          "indexed": false,
          "internalType": "uint256",
          "name": "bnbAmount",
          "type": "uint256"
        },
        {
          "indexed": false,
          "internalType": "uint256",
          "name": "tokenAmount",
          "type": "uint256"
        }
      ],
      "name": "LPInitialized",
      "type": "event"
    },
    {
      "anonymous": false,
      "inputs": [
        {
          "indexed": true,
          "internalType": "address",
          "name": "previousOwner",
          "type": "address"
        },
        {
          "indexed": true,
          "internalType": "address",
          "name": "newOwner",
          "type": "address"
        }
      ],
      "name": "OwnershipTransferred",
      "type": "event"
    },
    {
      "anonymous": false,
      "inputs": [
        {
          "indexed": true,
          "internalType": "address",
          "name": "newRouter",
          "type": "address"
        }
      ],
      "name": "RouterSet",
      "type": "event"
    },
    {
      "anonymous": false,
      "inputs": [
        {
          "indexed": true,
          "internalType": "address",
          "name": "token",
          "type": "address"
        },
        {
          "indexed": true,
          "internalType": "address",
          "name": "user",
          "type": "address"
        },
        {
          "indexed": false,
          "internalType": "uint256",
          "name": "tokensIn",
          "type": "uint256"
        },
        {
          "indexed": false,
          "internalType": "uint256",
          "name": "bnbOut",
          "type": "uint256"
        }
      ],
      "name": "Sell",
      "type": "event"
    },
    {
      "anonymous": false,
      "inputs": [
        {
          "indexed": true,
          "internalType": "address",
          "name": "token",
          "type": "address"
        },
        {
          "indexed": true,
          "internalType": "address",
          "name": "creator",
          "type": "address"
        }
      ],
      "name": "TokenLaunched",
      "type": "event"
    },
    {
      "inputs": [],
      "name": "LP_INIT_THRESHOLD",
      "outputs": [
        {
          "internalType": "uint256",
          "name": "",
          "type": "uint256"
        }
      ],
      "stateMutability": "view",
      "type": "function"
    },
    {
      "inputs": [],
      "name": "MAX_SUPPLY",
      "outputs": [
        {
          "internalType": "uint256",
          "name": "",
          "type": "uint256"
        }
      ],
      "stateMutability": "view",
      "type": "function"
    },
    {
      "inputs": [],
      "name": "VIRTUAL_BNB",
      "outputs": [
        {
          "internalType": "uint256",
          "name": "",
          "type": "uint256"
        }
      ],
      "stateMutability": "view",
      "type": "function"
    },
    {
      "inputs": [
        {
          "internalType": "address",
          "name": "",
          "type": "address"
        }
      ],
      "name": "authorizedFactories",
      "outputs": [
        {
          "internalType": "bool",
          "name": "",
          "type": "bool"
        }
      ],
      "stateMutability": "view",
      "type": "function"
    },
    {
      "inputs": [
        {
          "internalType": "address",
          "name": "token",
          "type": "address"
        }
      ],
      "name": "buy",
      "outputs": [],
      "stateMutability": "payable",
      "type": "function"
    },
    {
      "inputs": [],
      "name": "feeWallet",
      "outputs": [
        {
          "internalType": "address",
          "name": "",
          "type": "address"
        }
      ],
      "stateMutability": "view",
      "type": "function"
    },
    {
      "inputs": [
        {
          "internalType": "address",
          "name": "token",
          "type": "address"
        },
        {
          "internalType": "address",
          "name": "creator",
          "type": "address"
        }
      ],
      "name": "launchToken",
      "outputs": [],
      "stateMutability": "nonpayable",
      "type": "function"
    },
    {
      "inputs": [
        {
          "internalType": "address",
          "name": "",
          "type": "address"
        }
      ],
      "name": "markets",
      "outputs": [
        {
          "internalType": "address",
          "name": "token",
          "type": "address"
        },
        {
          "internalType": "address",
          "name": "creator",
          "type": "address"
        },
        {
          "internalType": "uint256",
          "name": "bnbReserve",
          "type": "uint256"
        },
        {
          "internalType": "uint256",
          "name": "tokenReserve",
          "type": "uint256"
        },
        {
          "internalType": "bool",
          "name": "lpInitialized",
          "type": "bool"
        },
        {
          "internalType": "bool",
          "name": "migrated",
          "type": "bool"
        }
      ],
      "stateMutability": "view",
      "type": "function"
    },
    {
      "inputs": [],
      "name": "owner",
      "outputs": [
        {
          "internalType": "address",
          "name": "",
          "type": "address"
        }
      ],
      "stateMutability": "view",
      "type": "function"
    },
    {
      "inputs": [],
      "name": "pancakeRouter",
      "outputs": [
        {
          "internalType": "contract IPancakeRouter",
          "name": "",
          "type": "address"
        }
      ],
      "stateMutability": "view",
      "type": "function"
    },
    {
      "inputs": [],
      "name": "renounceOwnership",
      "outputs": [],
      "stateMutability": "nonpayable",
      "type": "function"
    },
    {
      "inputs": [
        {
          "internalType": "address",
          "name": "token",
          "type": "address"
        },
        {
          "internalType": "uint256",
          "name": "amount",
          "type": "uint256"
        }
      ],
      "name": "sell",
      "outputs": [],
      "stateMutability": "nonpayable",
      "type": "function"
    },
    {
      "inputs": [
        {
          "internalType": "address",
          "name": "factory",
          "type": "address"
        },
        {
          "internalType": "bool",
          "name": "authorized",
          "type": "bool"
        }
      ],
      "name": "setAuthorizedFactory",
      "outputs": [],
      "stateMutability": "nonpayable",
      "type": "function"
    },
    {
      "inputs": [
        {
          "internalType": "address",
          "name": "_feeWallet",
          "type": "address"
        }
      ],
      "name": "setFeeWallet",
      "outputs": [],
      "stateMutability": "nonpayable",
      "type": "function"
    },
    {
      "inputs": [
        {
          "internalType": "address",
          "name": "_router",
          "type": "address"
        }
      ],
      "name": "setPancakeRouter",
      "outputs": [],
      "stateMutability": "nonpayable",
      "type": "function"
    },
    {
      "inputs": [],
      "name": "sweepAllBNB",
      "outputs": [],
      "stateMutability": "nonpayable",
      "type": "function"
    },
    {
      "inputs": [
        {
          "internalType": "address",
          "name": "newOwner",
          "type": "address"
        }
      ],
      "name": "transferOwnership",
      "outputs": [],
      "stateMutability": "nonpayable",
      "type": "function"
    },
    {
      "stateMutability": "payable",
      "type": "receive"
    }
  ],
  "bytecode": "0x6080346200016d57601f6200170738819003918201601f19168301916001600160401b0383118484101762000172578084926060946040528339810103126200016d576200004d8162000188565b620000696040620000616020850162000188565b930162000188565b6001600160a01b039182169283156200015457826000549160018060a01b03199580878516176000558260405194167f8be0079c531659141344cd1fd0a4f28419497f9722a3daafe3b4186f6b6457e0600080a360017f9b779b17422d0df92223018b32b4d1fa46e071723d6817e2486d003becc55f0055169081156200011d57508360015416176001551690816200010d575b60405161156990816200019e8239f35b60025416176002553880620000fd565b62461bcd60e51b8152602060048201526012602482015271125b9d985b1a5908199959481dd85b1b195d60721b6044820152606490fd5b604051631e4fbdf760e01b815260006004820152602490fd5b600080fd5b634e487b7160e01b600052604160045260246000fd5b51906001600160a01b03821682036200016d5756fe6080604081815260049182361015610022575b505050361561002057600080fd5b005b600092833560e01c91826332cb6b0c14610e735750816343d47a5e14610e505781635c85c58814610dcb5781636c197ff514610b60578163715018a614610b035781638da5cb5b14610adb5781638e8f294b14610a5e57816390d49b9d146109b8578163962c165f1461077d578163c21ebd0714610754578163c535c7ed1461065a578163ecd24a821461061d578163f088d54714610268578163f25f4b561461023f578163f2fde38b146101b8578163f8316c9014610112575063fb7f9787146100ed5780610012565b3461010e578160031936011261010e5760209051670429d069189e00008152f35b5080fd5b9050346101b45760203660031901126101b45761012d610e99565b610135610eb4565b6001600160a01b0316918215610180575050600280546001600160a01b031916821790557fc6b438e6a8a59579ce6a4406cbd203b740e0d47b458aae6596339bcd40c40d158280a280f35b906020606492519162461bcd60e51b8352820152600e60248201526d24b73b30b634b2103937baba32b960911b6044820152fd5b8280fd5b9050346101b45760203660031901126101b4576101d3610e99565b906101dc610eb4565b6001600160a01b0391821692831561022957505082546001600160a01b0319811683178455167f8be0079c531659141344cd1fd0a4f28419497f9722a3daafe3b4186f6b6457e08380a380f35b51631e4fbdf760e01b8152908101849052602490fd5b50503461010e578160031936011261010e5760015490516001600160a01b039091168152602090f35b839150602036600319011261010e5761027f610e99565b9061028861100f565b60018060a01b0391828116928385526003602052858520926102ae828554161515610f18565b6102c160ff8286015460081c1615610f57565b34156105ef5781600154168033149081156105c1575b50156105965785935b6102ea8534610fdd565b60028201968754946706f05b59d3b2000086810180911161058357600385019661032a8854926103248761031e8682610f94565b92610fea565b90610fbd565b94851561054c57603c8b028b8104603c148c15171561053957906064879392049b8c61035591610fdd565b61035e91610fea565b61036791610fea565b8b5561037291610fdd565b8655338a5284602052848a8c858183205460ff1692602092846103d59561052a575b15610521578660018b0154169586915b5163a9059cbb60e01b81526001600160a01b0390921690820190815260208101939093529384928391829160400190565b0391885af1908115610517578c916104e8575b50156104b3578b60ff96959493927f89f5adc174562e07c9c9b1cae7109bbecb21cf9d1b2847e550042b8653c54a0e9282519534875260208701521693a30154168015806104a0575b15610457575050610442925061103f565b60016000805160206115148339815191525580f35b91929180610497575b61046e575b50505050610442565b61048e93610480610488925484610f94565b905490610fbd565b916110f4565b81808080610465565b50811515610460565b50670429d069189e000085541015610431565b8b5162461bcd60e51b8152602081880152600f60248201526e151c985b9cd9995c8819985a5b1959608a1b6044820152606490fd5b61050a915060203d602011610510575b6105028183610ee0565b810190610ff7565b8d6103e8565b503d6104f8565b8d513d8e823e3d90fd5b339586916103a4565b508660018b0154161515610394565b634e487b7160e01b8e526011895260248efd5b508c5162461bcd60e51b8152602081890152601060248201526f105b5bdd5b9d081d1bdbc81cdb585b1b60821b6044820152606490fd5b634e487b7160e01b8b526011865260248bfd5b600534023481046005036105ae5760649004936102e0565b634e487b7160e01b875260118252602487fd5b90503387528160205260ff888820541690816105df575b50886102d7565b90508260018601541614886105d8565b606490602088519162461bcd60e51b8352820152600860248201526729b2b7321021272160c11b6044820152fd5b9050346101b45760203660031901126101b45760209260ff918391906001600160a01b03610649610e99565b168252855220541690519015158152f35b9050346101b457826003193601126101b45761067461100f565b6001546001600160a01b039081163381148015610748575b1561071457479283156106e85750916020916106c9827fdbd1ea0ad8c379019b5744f70c9e46e13d61d8786de9583dd63d1732fa3b824f95611466565b600154169351908152a260016000805160206115148339815191525580f35b606490602086519162461bcd60e51b8352820152600660248201526527379021272160d11b6044820152fd5b835162461bcd60e51b8152602081850152600e60248201526d139bdd08105d5d1a1bdc9a5e995960921b6044820152606490fd5b5081855416331461068c565b50503461010e578160031936011261010e5760025490516001600160a01b039091168152602090f35b919050346101b457806003193601126101b457610798610e99565b6024356001600160a01b0381811694918590036109b45733865260209282845260ff858820541680156109a8575b1561096c57811693848752600384528181882054166109375780516370a0823160e01b81523084820152908482602481895afa91821561092d5788926108fa575b5080519260c0840184811067ffffffffffffffff8211176108e75791899593916108ab95938252888452878401908a82528083860193898552606087019586526003608088019b8b8d528d8c60a08b019d8e5252528d20955116906bffffffffffffffffffffffff60a01b918287541617865560018601925116908254161790555160028301555160038201550192511515839060ff801983541691151516179055565b51815461ff00191690151560081b61ff00161790557fab3e0ae7b7d4c37d3539a4f3e3ac856a540af410acce171c797bbf88c1853b2d8380a380f35b634e487b7160e01b8a526041865260248afd5b9091508481813d8311610926575b6109128183610ee0565b8101031261092257519038610807565b8780fd5b503d610908565b81513d8a823e3d90fd5b6064939150519162461bcd60e51b8352820152601060248201526f105b1c9958591e481b185d5b98da195960821b6044820152fd5b845162461bcd60e51b815280840185905260166024820152754e6f7420617574686f72697a656420666163746f727960501b6044820152606490fd5b508187541633146107c6565b8580fd5b9050346101b45760203660031901126101b4576109d3610e99565b6109db610eb4565b6001600160a01b0316918215610a26575050600180546001600160a01b031916821790557f0439162378682c6392215882cf21e973f49063ed3530a31d763835a2e9f6d17e8280a280f35b906020606492519162461bcd60e51b83528201526012602482015271125b9d985b1a5908199959481dd85b1b195d60721b6044820152fd5b9050346101b45760203660031901126101b45760c0926001600160a01b039260ff929091829085610a8d610e99565b168152600360205220908482541694600183015416926002830154916003840154930154938151968752602087015285015260608401528181161515608084015260081c16151560a0820152f35b50503461010e578160031936011261010e57905490516001600160a01b039091168152602090f35b8334610b5d5780600319360112610b5d57610b1c610eb4565b80546001600160a01b03198116825581906001600160a01b03167f8be0079c531659141344cd1fd0a4f28419497f9722a3daafe3b4186f6b6457e08280a380f35b80fd5b8391503461010e578260031936011261010e57610b7b610e99565b90602493843592610b8a61100f565b60018060a01b03809116928386526020906003825283872092610bb1818554161515610f18565b610bc460ff8386015460081c1615610f57565b8615610d995784516323b872dd60e01b81523383820152308a8201526044810188905283816064818c8b5af1908115610d8f578991610d72575b5015610d4157600284018054946706f05b59d3b20000868101809111610d2f57610c53916003610c2f8c9384610f94565b910193610c4c610c458654936103248686610fea565b809a610fdd565b9055610fea565b90556001541697338903610cd7575050610ca786977fa082022e93cfcd9f1da5f9236718053910f7e840da080c789c7845698dc032ff959697905b610c988286610fdd565b9180610cc7575b505033611466565b82519586528501523393a360016000805160206115148339815191525580f35b610cd091611466565b8980610c9f565b600584029184830460051485151715610d1e5750507fa082022e93cfcd9f1da5f9236718053910f7e840da080c789c7845698dc032ff949596976064610ca7920490610c8e565b634e487b7160e01b89526011905287fd5b634e487b7160e01b8b52601185528b8bfd5b50600d8860649386519362461bcd60e51b85528401528201526c151c985b9cd9995c8819985a5b609a1b6044820152fd5b610d899150843d8611610510576105028183610ee0565b8a610bfe565b86513d8b823e3d90fd5b50600e8860649386519362461bcd60e51b85528401528201526d125b9d985b1a5908185b5bdd5b9d60921b6044820152fd5b919050346101b457806003193601126101b457610de6610e99565b9060243590811515908183036109b457610e486020937f6b489c12f59a99312ab950fddabe529a090208050382df653584944ea5f78b3595610e26610eb4565b60018060a01b03169687895285528288209060ff801983541691151516179055565b51908152a280f35b50503461010e578160031936011261010e57602090516706f05b59d3b200008152f35b84903461010e578160031936011261010e57806b033b2e3c9fd0803ce800000060209252f35b600435906001600160a01b0382168203610eaf57565b600080fd5b6000546001600160a01b03163303610ec857565b60405163118cdaa760e01b8152336004820152602490fd5b90601f8019910116810190811067ffffffffffffffff821117610f0257604052565b634e487b7160e01b600052604160045260246000fd5b15610f1f57565b60405162461bcd60e51b815260206004820152601060248201526f13585c9ad95d081b9bdd08199bdd5b9960821b6044820152606490fd5b15610f5e57565b60405162461bcd60e51b815260206004820152600e60248201526d151bdad95b881b5a59dc985d195960921b6044820152606490fd5b81810292918115918404141715610fa757565b634e487b7160e01b600052601160045260246000fd5b8115610fc7570490565b634e487b7160e01b600052601260045260246000fd5b91908203918211610fa757565b91908201809211610fa757565b90816020910312610eaf57518015158103610eaf5790565b600080516020611514833981519152600281541461102d5760029055565b604051633ee5aeb560e01b8152600490fd5b6001600160a01b038116600081815260036020526040902060048101805460ff191660011790559280156110ee5760407fa05918f619b9fd8cc60e9c88369c0f4eb9a949f105763aaa10a638ffcbe36857918560036110e497016110b481549260026110ab8587610f94565b91015490610fbd565b918281106110e6575b826110c791610fdd565b90556110d48183886110f4565b82519182526020820152a261122c565b565b9150816110bd565b50505050565b6002546001600160a01b03939084169182158015611224575b801561121c575b6112155760405163095ea7b360e01b81526001600160a01b03939093166004840152602483018290528416916000919060208160448186885af1801561120a5790606092916111ec575b5060c486600254169486886001541696604051978895869463f305d71960e01b86526004860152602485015287604485015287606485015260848401524260a48401525af191826111c1575b50506111bd576110e49160015416611466565b5050565b606090813d81116111e5575b6111d78183610ee0565b81010312610b5d57806111aa565b503d6111cd565b6112039060203d8111610510576105028183610ee0565b503861115e565b6040513d85823e3d90fd5b5050505050565b508115611114565b50831561110d565b6002546001600160a01b0390811690811561146157662386f26fc100008047106110ee57604092835192606084019167ffffffffffffffff9285811084821117610f0257865260028552602094858101908736833787516315ab88c960e31b81528781600481875afa90811561145657600091611420575b5081511561140a57841682528051986001998a101561140a57841688820181905289548951637ff36ab560e01b815260006004820181905260806024830152935160848201819052929b909660a4880196889690958b95948316949193925b8d8383106113ed5750505050505090836000958193604483015242606483015203925af1918261136a575b505061133a5750505050565b7f54bdeb371131dfff66ad7d753cf798ce165aa0451a4ee488a7abd7646c4eb1409251908152a2388080806110ee565b3d806000843e61137a8184610ee0565b8201918581840312610eaf57805190828211610eaf570182601f82011215610eaf578051918211610f025785808360051b938951906113bb83870183610ee0565b81520192820101928311610eaf5785809101915b8383106113dd57505061132e565b82518152918101918691016113cf565b855182168b52998a01998b99508d97509094019390830190611303565b634e487b7160e01b600052603260045260246000fd5b8881813d831161144f575b6114358183610ee0565b8101031261010e5751908582168203610b5d5750386112a4565b503d61142b565b89513d6000823e3d90fd5b505050565b81156111bd57600080808094819460018060a01b03165af1903d1561150d573d9067ffffffffffffffff82116114f957604051916114ae601f8201601f191660200184610ee0565b825260203d92013e5b156114be57565b60405162461bcd60e51b8152602060048201526013602482015272109390881d1c985b9cd9995c8819985a5b1959606a1b6044820152606490fd5b634e487b7160e01b81526041600452602490fd5b506114b756fe9b779b17422d0df92223018b32b4d1fa46e071723d6817e2486d003becc55f00a2646970667358221220fe7279d2d587a3e6e675a1c44c0714f46186b59f75355c8c1bb516ef6ca7db4964736f6c63430008140033",
  "linkReferences": {},
  "deployedLinkReferences": {}
}