{
  "_format": "hh-sol-artifact-1",
  "contractName": "BondingCurve",
  "sourceName": "contracts/BondingCurve.sol",
  "abi": [
    {
      "inputs": [
        {
          "internalType": "address",
          "name": "_owner",
          "type": "address"
        },
        {
          "internalType": "address",
          "name": "_feeWallet",
          "type": "address"
        },
        {
          "internalType": "address",
          "name": "_router",
          "type": "address"
        }
      ],
      "stateMutability": "nonpayable",
      "type": "constructor"
    },
    {
      "inputs": [
        {
          "internalType": "address",
          "name": "owner",
          "type": "address"
        }
      ],
      "name": "OwnableInvalidOwner",
      "type": "error"
    },
    {
      "inputs": [
        {
          "internalType": "address",
          "name": "account",
          "type": "address"
        }
      ],
      "name": "OwnableUnauthorizedAccount",
      "type": "error"
    },
    {
      "inputs": [],
      "name": "ReentrancyGuardReentrantCall",
      "type": "error"
    },
    {
      "anonymous": false,
      "inputs": [
        {
          "indexed": true,
          "internalType": "address",
          "name": "to",
          "type": "address"
        },
        {
          "indexed": false,
          "internalType": "uint256",
          "name": "amount",
          "type": "uint256"
        }
      ],
      "name": "BNBSwept",
      "type": "event"
    },
    {
      "anonymous": false,
      "inputs": [
        {
          "indexed": true,
          "internalType": "address",
          "name": "token",
          "type": "address"
        },
        {
          "indexed": true,
          "internalType": "address",
          "name": "user",
          "type": "address"
        },
        {
          "indexed": false,
          "internalType": "uint256",
          "name": "bnbIn",
          "type": "uint256"
        },
        {
          "indexed": false,
          "internalType": "uint256",
          "name": "tokensOut",
          "type": "uint256"
        }
      ],
      "name": "Buy",
      "type": "event"
    },
    {
      "anonymous": false,
      "inputs": [
        {
          "indexed": true,
          "internalType": "address",
          "name": "factory",
          "type": "address"
        },
        {
          "indexed": false,
          "internalType": "bool",
          "name": "authorized",
          "type": "bool"
        }
      ],
      "name": "FactoryAuthorized",
      "type": "event"
    },
    {
      "anonymous": false,
      "inputs": [
        {
          "indexed": true,
          "internalType": "address",
          "name": "newFeeWallet",
          "type": "address"
        }
      ],
      "name": "FeeWalletSet",
      "type": "event"
    },
    {
      "anonymous": false,
      "inputs": [
        {
          "indexed": true,
          "internalType": "address",
          "name": "token",
          "type": "address"
        },
        {
          "indexed": false,
          "internalType": "uint256",
          "name": "bnbAmount",
          "type": "uint256"
        }
      ],
      "name": "FirstTradeTriggered",
      "type": "event"
    },
    {
      "anonymous": false,
      "inputs": [
        {
          "indexed": true,
          "internalType": "address",
          "name": "token",
          "type": "address"
        },
        {
          "indexed": false,
          "internalType": "uint256",
          "name": "bnbAmount",
          "type": "uint256"
        },
        {
          "indexed": false,
          "internalType": "uint256",
          "name": "tokenAmount",
          "type": "uint256"
        }
      ],
      "name": "LPInitialized",
      "type": "event"
    },
    {
      "anonymous": false,
      "inputs": [
        {
          "indexed": true,
          "internalType": "address",
          "name": "previousOwner",
          "type": "address"
        },
        {
          "indexed": true,
          "internalType": "address",
          "name": "newOwner",
          "type": "address"
        }
      ],
      "name": "OwnershipTransferred",
      "type": "event"
    },
    {
      "anonymous": false,
      "inputs": [
        {
          "indexed": true,
          "internalType": "address",
          "name": "newRouter",
          "type": "address"
        }
      ],
      "name": "RouterSet",
      "type": "event"
    },
    {
      "anonymous": false,
      "inputs": [
        {
          "indexed": true,
          "internalType": "address",
          "name": "token",
          "type": "address"
        },
        {
          "indexed": true,
          "internalType": "address",
          "name": "user",
          "type": "address"
        },
        {
          "indexed": false,
          "internalType": "uint256",
          "name": "tokensIn",
          "type": "uint256"
        },
        {
          "indexed": false,
          "internalType": "uint256",
          "name": "bnbOut",
          "type": "uint256"
        }
      ],
      "name": "Sell",
      "type": "event"
    },
    {
      "anonymous": false,
      "inputs": [
        {
          "indexed": true,
          "internalType": "address",
          "name": "token",
          "type": "address"
        },
        {
          "indexed": true,
          "internalType": "address",
          "name": "creator",
          "type": "address"
        }
      ],
      "name": "TokenLaunched",
      "type": "event"
    },
    {
      "inputs": [],
      "name": "LP_INIT_THRESHOLD",
      "outputs": [
        {
          "internalType": "uint256",
          "name": "",
          "type": "uint256"
        }
      ],
      "stateMutability": "view",
      "type": "function"
    },
    {
      "inputs": [],
      "name": "MAX_SUPPLY",
      "outputs": [
        {
          "internalType": "uint256",
          "name": "",
          "type": "uint256"
        }
      ],
      "stateMutability": "view",
      "type": "function"
    },
    {
      "inputs": [
        {
          "internalType": "address",
          "name": "",
          "type": "address"
        }
      ],
      "name": "authorizedFactories",
      "outputs": [
        {
          "internalType": "bool",
          "name": "",
          "type": "bool"
        }
      ],
      "stateMutability": "view",
      "type": "function"
    },
    {
      "inputs": [
        {
          "internalType": "address",
          "name": "token",
          "type": "address"
        }
      ],
      "name": "buy",
      "outputs": [],
      "stateMutability": "payable",
      "type": "function"
    },
    {
      "inputs": [],
      "name": "feeWallet",
      "outputs": [
        {
          "internalType": "address",
          "name": "",
          "type": "address"
        }
      ],
      "stateMutability": "view",
      "type": "function"
    },
    {
      "inputs": [
        {
          "internalType": "address",
          "name": "token",
          "type": "address"
        },
        {
          "internalType": "address",
          "name": "creator",
          "type": "address"
        },
        {
          "internalType": "uint256",
          "name": "_virtualBnb",
          "type": "uint256"
        }
      ],
      "name": "launchToken",
      "outputs": [],
      "stateMutability": "nonpayable",
      "type": "function"
    },
    {
      "inputs": [
        {
          "internalType": "address",
          "name": "",
          "type": "address"
        }
      ],
      "name": "markets",
      "outputs": [
        {
          "internalType": "address",
          "name": "token",
          "type": "address"
        },
        {
          "internalType": "address",
          "name": "creator",
          "type": "address"
        },
        {
          "internalType": "uint256",
          "name": "bnbReserve",
          "type": "uint256"
        },
        {
          "internalType": "uint256",
          "name": "tokenReserve",
          "type": "uint256"
        },
        {
          "internalType": "uint256",
          "name": "virtualBnb",
          "type": "uint256"
        },
        {
          "internalType": "bool",
          "name": "lpInitialized",
          "type": "bool"
        },
        {
          "internalType": "bool",
          "name": "migrated",
          "type": "bool"
        }
      ],
      "stateMutability": "view",
      "type": "function"
    },
    {
      "inputs": [],
      "name": "owner",
      "outputs": [
        {
          "internalType": "address",
          "name": "",
          "type": "address"
        }
      ],
      "stateMutability": "view",
      "type": "function"
    },
    {
      "inputs": [],
      "name": "pancakeRouter",
      "outputs": [
        {
          "internalType": "contract IPancakeRouter",
          "name": "",
          "type": "address"
        }
      ],
      "stateMutability": "view",
      "type": "function"
    },
    {
      "inputs": [],
      "name": "renounceOwnership",
      "outputs": [],
      "stateMutability": "nonpayable",
      "type": "function"
    },
    {
      "inputs": [
        {
          "internalType": "address",
          "name": "token",
          "type": "address"
        },
        {
          "internalType": "uint256",
          "name": "amount",
          "type": "uint256"
        }
      ],
      "name": "sell",
      "outputs": [],
      "stateMutability": "nonpayable",
      "type": "function"
    },
    {
      "inputs": [
        {
          "internalType": "address",
          "name": "factory",
          "type": "address"
        },
        {
          "internalType": "bool",
          "name": "authorized",
          "type": "bool"
        }
      ],
      "name": "setAuthorizedFactory",
      "outputs": [],
      "stateMutability": "nonpayable",
      "type": "function"
    },
    {
      "inputs": [
        {
          "internalType": "address",
          "name": "_feeWallet",
          "type": "address"
        }
      ],
      "name": "setFeeWallet",
      "outputs": [],
      "stateMutability": "nonpayable",
      "type": "function"
    },
    {
      "inputs": [
        {
          "internalType": "address",
          "name": "_router",
          "type": "address"
        }
      ],
      "name": "setPancakeRouter",
      "outputs": [],
      "stateMutability": "nonpayable",
      "type": "function"
    },
    {
      "inputs": [],
      "name": "sweepAllBNB",
      "outputs": [],
      "stateMutability": "nonpayable",
      "type": "function"
    },
    {
      "inputs": [
        {
          "internalType": "address",
          "name": "newOwner",
          "type": "address"
        }
      ],
      "name": "transferOwnership",
      "outputs": [],
      "stateMutability": "nonpayable",
      "type": "function"
    },
    {
      "stateMutability": "payable",
      "type": "receive"
    }
  ],
  "bytecode": "0x6080346200016d57601f620016dc38819003918201601f19168301916001600160401b0383118484101762000172578084926060946040528339810103126200016d576200004d8162000188565b620000696040620000616020850162000188565b930162000188565b6001600160a01b039182169283156200015457826000549160018060a01b03199580878516176000558260405194167f8be0079c531659141344cd1fd0a4f28419497f9722a3daafe3b4186f6b6457e0600080a360017f9b779b17422d0df92223018b32b4d1fa46e071723d6817e2486d003becc55f0055169081156200011d57508360015416176001551690816200010d575b60405161153e90816200019e8239f35b60025416176002553880620000fd565b62461bcd60e51b8152602060048201526012602482015271125b9d985b1a5908199959481dd85b1b195d60721b6044820152606490fd5b604051631e4fbdf760e01b815260006004820152602490fd5b600080fd5b634e487b7160e01b600052604160045260246000fd5b51906001600160a01b03821682036200016d5756fe6080604081815260049182361015610022575b505050361561002057600080fd5b005b600092833560e01c91826332cb6b0c14610e48575081635c85c58814610dbf5781636c197ff514610b6a578163715018a614610b0d578163751c5988146108a15781638da5cb5b146108795781638e8f294b146107f157816390d49b9d1461074b578163c21ebd0714610722578163c535c7ed14610628578163ecd24a82146105eb578163f088d5471461025c578163f25f4b5614610233578163f2fde38b146101ac578163f8316c9014610106575063fb7f9787146100e25780610012565b3461010257816003193601126101025760209051662386f26fc100008152f35b5080fd5b9050346101a85760203660031901126101a857610121610e6e565b610129610e89565b6001600160a01b0316918215610174575050600280546001600160a01b031916821790557fc6b438e6a8a59579ce6a4406cbd203b740e0d47b458aae6596339bcd40c40d158280a280f35b906020606492519162461bcd60e51b8352820152600e60248201526d24b73b30b634b2103937baba32b960911b6044820152fd5b8280fd5b9050346101a85760203660031901126101a8576101c7610e6e565b906101d0610e89565b6001600160a01b0391821692831561021d57505082546001600160a01b0319811683178455167f8be0079c531659141344cd1fd0a4f28419497f9722a3daafe3b4186f6b6457e08380a380f35b51631e4fbdf760e01b8152908101849052602490fd5b50503461010257816003193601126101025760015490516001600160a01b039091168152602090f35b91905060203660031901126101a857610273610e6e565b61027b610fe4565b6001600160a01b0381811680865260036020528386208054919490916102a49084161515610eed565b6102b860ff600584015460081c1615610f2c565b34156105be578260015416803314908115610590575b50156105655786945b6102e18634610fb2565b91878401549460028501986102f88a548098610fbf565b600387019761031d895492610317896103118682610f69565b92610fbf565b90610f92565b96871561052f57603c8c028c8104603c148d15171561051c57906064899392049c8d61034891610fb2565b61035191610fbf565b61035a91610fbf565b8c5561036591610fb2565b8755338b5280602052828b205460ff168061050d575b156105065781600187015416905b835163a9059cbb60e01b81526001600160a01b03831682820190815260208181018990529082908f908290819060400103918a5af19081156104fc578d916104cd575b501561049857508260ff9694927f89f5adc174562e07c9c9b1cae7109bbecb21cf9d1b2847e550042b8653c54a0e9260059795519534875260208701521693a3015416801580610486575b1561043d5750506104289250611014565b60016000805160206114e98339815191525580f35b9192918061047d575b610454575b50505050610428565b6104749361046661046e925484610f69565b905490610f92565b916110c9565b3880808061044b565b50811515610446565b50662386f26fc1000085541015610417565b606490602085519162461bcd60e51b8352820152600f60248201526e151c985b9cd9995c8819985a5b1959608a1b6044820152fd5b6104ef915060203d6020116104f5575b6104e78183610eb5565b810190610fcc565b386103cc565b503d6104dd565b85513d8f823e3d90fd5b3390610389565b5081600187015416151561037b565b634e487b7160e01b8f526011855260248ffd5b855162461bcd60e51b8152602081860152601060248201526f105b5bdd5b9d081d1bdbc81cdb585b1b60821b6044820152606490fd5b6005340234810460050361057d5760649004946102d7565b634e487b7160e01b885260118752602488fd5b90503388528660205260ff828920541690816105ae575b50386102ce565b90508360018401541614386105a7565b5162461bcd60e51b8152602081870152600860248201526729b2b7321021272160c11b6044820152606490fd5b9050346101a85760203660031901126101a85760209260ff918391906001600160a01b03610617610e6e565b168252855220541690519015158152f35b9050346101a857826003193601126101a857610642610fe4565b6001546001600160a01b039081163381148015610716575b156106e257479283156106b6575091602091610697827fdbd1ea0ad8c379019b5744f70c9e46e13d61d8786de9583dd63d1732fa3b824f9561143b565b600154169351908152a260016000805160206114e98339815191525580f35b606490602086519162461bcd60e51b8352820152600660248201526527379021272160d11b6044820152fd5b835162461bcd60e51b8152602081850152600e60248201526d139bdd08105d5d1a1bdc9a5e995960921b6044820152606490fd5b5081855416331461065a565b50503461010257816003193601126101025760025490516001600160a01b039091168152602090f35b9050346101a85760203660031901126101a857610766610e6e565b61076e610e89565b6001600160a01b03169182156107b9575050600180546001600160a01b031916821790557f0439162378682c6392215882cf21e973f49063ed3530a31d763835a2e9f6d17e8280a280f35b906020606492519162461bcd60e51b83528201526012602482015271125b9d985b1a5908199959481dd85b1b195d60721b6044820152fd5b9050346101a85760203660031901126101a85760e0926001600160a01b039260ff929091829085610820610e6e565b168152600360205220908482541694600183015416926002830154906005600385015493850154940154948151978852602088015286015260608501526080840152818116151560a084015260081c16151560c0820152f35b505034610102578160031936011261010257905490516001600160a01b039091168152602090f35b83915034610102576060366003190112610102576108bd610e6e565b6001600160a01b039360243585811693929190849003610b09576044359233865260209281845260ff83882054168015610afd575b15610ac25787169384875260038452878388205416610a8d5782516370a0823160e01b81523083820152908482602481895afa918215610a83578892610a50575b508015610a4057905b83519360e0850199858b1067ffffffffffffffff8c1117610a2d57899a829a9798999a52888652878601908a82528083880193898552606089019586526080890196875260a089019a8a8c528c60c08b019b808d5252600390528d20975116906bffffffffffffffffffffffff60a01b918289541617885560018801925116908254161790555160028501555160038401555190820155600501915115156109f090839060ff801983541691151516179055565b51151581549060081b61ff00169061ff0019161790557fab3e0ae7b7d4c37d3539a4f3e3ac856a540af410acce171c797bbf88c1853b2d8380a380f35b634e487b7160e01b8a526041855260248afd5b506706f05b59d3b200009061093c565b9091508481813d8311610a7c575b610a688183610eb5565b81010312610a7857519089610933565b8780fd5b503d610a5e565b84513d8a823e3d90fd5b5082606492519162461bcd60e51b8352820152601060248201526f105b1c9958591e481b185d5b98da195960821b6044820152fd5b5082606492519162461bcd60e51b835282015260166024820152754e6f7420617574686f72697a656420666163746f727960501b6044820152fd5b508787541633146108f2565b8480fd5b8334610b675780600319360112610b6757610b26610e89565b80546001600160a01b03198116825581906001600160a01b03167f8be0079c531659141344cd1fd0a4f28419497f9722a3daafe3b4186f6b6457e08280a380f35b80fd5b838334610102578060031936011261010257610b84610e6e565b60243591610b90610fe4565b60018060a01b038092169182855260206003815282862091610bb6818454161515610eed565b610bca60ff600585015460081c1615610f2c565b8515610d8b5783516323b872dd60e01b815233898201523060248201526044810187905282816064818b8a5af1908115610d81578891610d64575b5015610d31578783015492610c548760028301926003610c30610c2a8654809a610fbf565b84610f69565b910193610c4d610c468654936103178686610fbf565b8099610fb2565b9055610fbf565b90556001541696338803610cd75750610ca786977fa082022e93cfcd9f1da5f9236718053910f7e840da080c789c7845698dc032ff959697905b610c988286610fb2565b9180610cc7575b50503361143b565b82519586528501523393a360016000805160206114e98339815191525580f35b610cd09161143b565b8980610c9f565b966005830283810460051484151715610d1e577fa082022e93cfcd9f1da5f9236718053910f7e840da080c789c7845698dc032ff9596979850906064610ca7920490610c8e565b634e487b7160e01b885260118952602488fd5b835162461bcd60e51b8152808901839052600d60248201526c151c985b9cd9995c8819985a5b609a1b6044820152606490fd5b610d7b9150833d85116104f5576104e78183610eb5565b89610c05565b85513d8a823e3d90fd5b835162461bcd60e51b8152808901839052600e60248201526d125b9d985b1a5908185b5bdd5b9d60921b6044820152606490fd5b919050346101a857806003193601126101a857610dda610e6e565b906024359081151590818303610e4457610e3c6020937f6b489c12f59a99312ab950fddabe529a090208050382df653584944ea5f78b3595610e1a610e89565b60018060a01b03169687895285528288209060ff801983541691151516179055565b51908152a280f35b8580fd5b849034610102578160031936011261010257806b033b2e3c9fd0803ce800000060209252f35b600435906001600160a01b0382168203610e8457565b600080fd5b6000546001600160a01b03163303610e9d57565b60405163118cdaa760e01b8152336004820152602490fd5b90601f8019910116810190811067ffffffffffffffff821117610ed757604052565b634e487b7160e01b600052604160045260246000fd5b15610ef457565b60405162461bcd60e51b815260206004820152601060248201526f13585c9ad95d081b9bdd08199bdd5b9960821b6044820152606490fd5b15610f3357565b60405162461bcd60e51b815260206004820152600e60248201526d151bdad95b881b5a59dc985d195960921b6044820152606490fd5b81810292918115918404141715610f7c57565b634e487b7160e01b600052601160045260246000fd5b8115610f9c570490565b634e487b7160e01b600052601260045260246000fd5b91908203918211610f7c57565b91908201809211610f7c57565b90816020910312610e8457518015158103610e845790565b6000805160206114e983398151915260028154146110025760029055565b604051633ee5aeb560e01b8152600490fd5b6001600160a01b038116600081815260036020526040902060058101805460ff191660011790559280156110c35760407fa05918f619b9fd8cc60e9c88369c0f4eb9a949f105763aaa10a638ffcbe36857918560036110b9970161108981549260026110808587610f69565b91015490610f92565b918281106110bb575b8261109c91610fb2565b90556110a98183886110c9565b82519182526020820152a2611201565b565b915081611092565b50505050565b6002546001600160a01b039390841691821580156111f9575b80156111f1575b6111ea5760405163095ea7b360e01b81526001600160a01b03939093166004840152602483018290528416916000919060208160448186885af180156111df5790606092916111c1575b5060c486600254169486886001541696604051978895869463f305d71960e01b86526004860152602485015287604485015287606485015260848401524260a48401525af19182611196575b5050611192576110b9916001541661143b565b5050565b606090813d81116111ba575b6111ac8183610eb5565b81010312610b67578061117f565b503d6111a2565b6111d89060203d81116104f5576104e78183610eb5565b5038611133565b6040513d85823e3d90fd5b5050505050565b5081156110e9565b5083156110e2565b6002546001600160a01b0390811690811561143657662386f26fc100008047106110c357604092835192606084019167ffffffffffffffff9285811084821117610ed757865260028552602094858101908736833787516315ab88c960e31b81528781600481875afa90811561142b576000916113f5575b508151156113df57841682528051986001998a10156113df57841688820181905289548951637ff36ab560e01b815260006004820181905260806024830152935160848201819052929b909660a4880196889690958b95948316949193925b8d8383106113c25750505050505090836000958193604483015242606483015203925af1918261133f575b505061130f5750505050565b7f54bdeb371131dfff66ad7d753cf798ce165aa0451a4ee488a7abd7646c4eb1409251908152a2388080806110c3565b3d806000843e61134f8184610eb5565b8201918581840312610e8457805190828211610e84570182601f82011215610e84578051918211610ed75785808360051b9389519061139083870183610eb5565b81520192820101928311610e845785809101915b8383106113b2575050611303565b82518152918101918691016113a4565b855182168b52998a01998b99508d975090940193908301906112d8565b634e487b7160e01b600052603260045260246000fd5b8881813d8311611424575b61140a8183610eb5565b810103126101025751908582168203610b67575038611279565b503d611400565b89513d6000823e3d90fd5b505050565b811561119257600080808094819460018060a01b03165af1903d156114e2573d9067ffffffffffffffff82116114ce5760405191611483601f8201601f191660200184610eb5565b825260203d92013e5b1561149357565b60405162461bcd60e51b8152602060048201526013602482015272109390881d1c985b9cd9995c8819985a5b1959606a1b6044820152606490fd5b634e487b7160e01b81526041600452602490fd5b5061148c56fe9b779b17422d0df92223018b32b4d1fa46e071723d6817e2486d003becc55f00a264697066735822122000e0a9383fad636e5fe0e9f240d2b0c601aae1ae0022e1afe440b30eb9745e8264736f6c63430008140033",
  "linkReferences": {},
  "deployedLinkReferences": {}
}