{
  "_format": "hh-sol-artifact-1",
  "contractName": "BondingCurve",
  "sourceName": "contracts/BondingCurve.sol",
  "abi": [
    {
      "inputs": [
        {
          "internalType": "address",
          "name": "_owner",
          "type": "address"
        },
        {
          "internalType": "address",
          "name": "_feeWallet",
          "type": "address"
        },
        {
          "internalType": "address",
          "name": "_router",
          "type": "address"
        }
      ],
      "stateMutability": "nonpayable",
      "type": "constructor"
    },
    {
      "inputs": [
        {
          "internalType": "address",
          "name": "owner",
          "type": "address"
        }
      ],
      "name": "OwnableInvalidOwner",
      "type": "error"
    },
    {
      "inputs": [
        {
          "internalType": "address",
          "name": "account",
          "type": "address"
        }
      ],
      "name": "OwnableUnauthorizedAccount",
      "type": "error"
    },
    {
      "inputs": [],
      "name": "ReentrancyGuardReentrantCall",
      "type": "error"
    },
    {
      "anonymous": false,
      "inputs": [
        {
          "indexed": true,
          "internalType": "address",
          "name": "to",
          "type": "address"
        },
        {
          "indexed": false,
          "internalType": "uint256",
          "name": "amount",
          "type": "uint256"
        }
      ],
      "name": "BNBSwept",
      "type": "event"
    },
    {
      "anonymous": false,
      "inputs": [
        {
          "indexed": true,
          "internalType": "address",
          "name": "token",
          "type": "address"
        },
        {
          "indexed": true,
          "internalType": "address",
          "name": "user",
          "type": "address"
        },
        {
          "indexed": false,
          "internalType": "uint256",
          "name": "bnbIn",
          "type": "uint256"
        },
        {
          "indexed": false,
          "internalType": "uint256",
          "name": "tokensOut",
          "type": "uint256"
        }
      ],
      "name": "Buy",
      "type": "event"
    },
    {
      "anonymous": false,
      "inputs": [
        {
          "indexed": true,
          "internalType": "address",
          "name": "factory",
          "type": "address"
        },
        {
          "indexed": false,
          "internalType": "bool",
          "name": "authorized",
          "type": "bool"
        }
      ],
      "name": "FactoryAuthorized",
      "type": "event"
    },
    {
      "anonymous": false,
      "inputs": [
        {
          "indexed": true,
          "internalType": "address",
          "name": "newFeeWallet",
          "type": "address"
        }
      ],
      "name": "FeeWalletSet",
      "type": "event"
    },
    {
      "anonymous": false,
      "inputs": [
        {
          "indexed": true,
          "internalType": "address",
          "name": "token",
          "type": "address"
        },
        {
          "indexed": false,
          "internalType": "uint256",
          "name": "treasuryBnb",
          "type": "uint256"
        },
        {
          "indexed": false,
          "internalType": "uint256",
          "name": "pancakeBnb",
          "type": "uint256"
        },
        {
          "indexed": false,
          "internalType": "uint256",
          "name": "tokensToLP",
          "type": "uint256"
        }
      ],
      "name": "Migrated",
      "type": "event"
    },
    {
      "anonymous": false,
      "inputs": [
        {
          "indexed": true,
          "internalType": "address",
          "name": "previousOwner",
          "type": "address"
        },
        {
          "indexed": true,
          "internalType": "address",
          "name": "newOwner",
          "type": "address"
        }
      ],
      "name": "OwnershipTransferred",
      "type": "event"
    },
    {
      "anonymous": false,
      "inputs": [
        {
          "indexed": true,
          "internalType": "address",
          "name": "newRouter",
          "type": "address"
        }
      ],
      "name": "RouterSet",
      "type": "event"
    },
    {
      "anonymous": false,
      "inputs": [
        {
          "indexed": true,
          "internalType": "address",
          "name": "token",
          "type": "address"
        },
        {
          "indexed": true,
          "internalType": "address",
          "name": "user",
          "type": "address"
        },
        {
          "indexed": false,
          "internalType": "uint256",
          "name": "tokensIn",
          "type": "uint256"
        },
        {
          "indexed": false,
          "internalType": "uint256",
          "name": "bnbOut",
          "type": "uint256"
        }
      ],
      "name": "Sell",
      "type": "event"
    },
    {
      "anonymous": false,
      "inputs": [
        {
          "indexed": false,
          "internalType": "uint256",
          "name": "newThreshold",
          "type": "uint256"
        },
        {
          "indexed": false,
          "internalType": "uint256",
          "name": "treasuryShare",
          "type": "uint256"
        },
        {
          "indexed": false,
          "internalType": "uint256",
          "name": "pancakeShare",
          "type": "uint256"
        }
      ],
      "name": "ThresholdUpdated",
      "type": "event"
    },
    {
      "anonymous": false,
      "inputs": [
        {
          "indexed": true,
          "internalType": "address",
          "name": "token",
          "type": "address"
        },
        {
          "indexed": true,
          "internalType": "address",
          "name": "creator",
          "type": "address"
        }
      ],
      "name": "TokenLaunched",
      "type": "event"
    },
    {
      "inputs": [],
      "name": "MAX_SUPPLY",
      "outputs": [
        {
          "internalType": "uint256",
          "name": "",
          "type": "uint256"
        }
      ],
      "stateMutability": "view",
      "type": "function"
    },
    {
      "inputs": [],
      "name": "MIGRATION_THRESHOLD",
      "outputs": [
        {
          "internalType": "uint256",
          "name": "",
          "type": "uint256"
        }
      ],
      "stateMutability": "view",
      "type": "function"
    },
    {
      "inputs": [],
      "name": "PANCAKE_LP_SHARE",
      "outputs": [
        {
          "internalType": "uint256",
          "name": "",
          "type": "uint256"
        }
      ],
      "stateMutability": "view",
      "type": "function"
    },
    {
      "inputs": [],
      "name": "TREASURY_SHARE",
      "outputs": [
        {
          "internalType": "uint256",
          "name": "",
          "type": "uint256"
        }
      ],
      "stateMutability": "view",
      "type": "function"
    },
    {
      "inputs": [
        {
          "internalType": "address",
          "name": "",
          "type": "address"
        }
      ],
      "name": "authorizedFactories",
      "outputs": [
        {
          "internalType": "bool",
          "name": "",
          "type": "bool"
        }
      ],
      "stateMutability": "view",
      "type": "function"
    },
    {
      "inputs": [
        {
          "internalType": "address",
          "name": "token",
          "type": "address"
        }
      ],
      "name": "buy",
      "outputs": [],
      "stateMutability": "payable",
      "type": "function"
    },
    {
      "inputs": [],
      "name": "feeWallet",
      "outputs": [
        {
          "internalType": "address",
          "name": "",
          "type": "address"
        }
      ],
      "stateMutability": "view",
      "type": "function"
    },
    {
      "inputs": [
        {
          "internalType": "address",
          "name": "token",
          "type": "address"
        }
      ],
      "name": "getMigrationProgress",
      "outputs": [
        {
          "internalType": "uint256",
          "name": "currentReserve",
          "type": "uint256"
        },
        {
          "internalType": "uint256",
          "name": "threshold",
          "type": "uint256"
        },
        {
          "internalType": "uint256",
          "name": "percentFilled",
          "type": "uint256"
        },
        {
          "internalType": "bool",
          "name": "migrated",
          "type": "bool"
        }
      ],
      "stateMutability": "view",
      "type": "function"
    },
    {
      "inputs": [
        {
          "internalType": "address",
          "name": "token",
          "type": "address"
        },
        {
          "internalType": "address",
          "name": "creator",
          "type": "address"
        },
        {
          "internalType": "uint256",
          "name": "_virtualBnb",
          "type": "uint256"
        }
      ],
      "name": "launchToken",
      "outputs": [],
      "stateMutability": "nonpayable",
      "type": "function"
    },
    {
      "inputs": [
        {
          "internalType": "address",
          "name": "",
          "type": "address"
        }
      ],
      "name": "markets",
      "outputs": [
        {
          "internalType": "address",
          "name": "token",
          "type": "address"
        },
        {
          "internalType": "address",
          "name": "creator",
          "type": "address"
        },
        {
          "internalType": "uint256",
          "name": "bnbReserve",
          "type": "uint256"
        },
        {
          "internalType": "uint256",
          "name": "tokenReserve",
          "type": "uint256"
        },
        {
          "internalType": "uint256",
          "name": "virtualBnb",
          "type": "uint256"
        },
        {
          "internalType": "bool",
          "name": "migrated",
          "type": "bool"
        }
      ],
      "stateMutability": "view",
      "type": "function"
    },
    {
      "inputs": [
        {
          "internalType": "address",
          "name": "token",
          "type": "address"
        }
      ],
      "name": "migrateToken",
      "outputs": [],
      "stateMutability": "nonpayable",
      "type": "function"
    },
    {
      "inputs": [],
      "name": "owner",
      "outputs": [
        {
          "internalType": "address",
          "name": "",
          "type": "address"
        }
      ],
      "stateMutability": "view",
      "type": "function"
    },
    {
      "inputs": [],
      "name": "pancakeRouter",
      "outputs": [
        {
          "internalType": "contract IPancakeRouter",
          "name": "",
          "type": "address"
        }
      ],
      "stateMutability": "view",
      "type": "function"
    },
    {
      "inputs": [],
      "name": "renounceOwnership",
      "outputs": [],
      "stateMutability": "nonpayable",
      "type": "function"
    },
    {
      "inputs": [
        {
          "internalType": "address",
          "name": "token",
          "type": "address"
        },
        {
          "internalType": "uint256",
          "name": "amount",
          "type": "uint256"
        }
      ],
      "name": "sell",
      "outputs": [],
      "stateMutability": "nonpayable",
      "type": "function"
    },
    {
      "inputs": [
        {
          "internalType": "address",
          "name": "factory",
          "type": "address"
        },
        {
          "internalType": "bool",
          "name": "authorized",
          "type": "bool"
        }
      ],
      "name": "setAuthorizedFactory",
      "outputs": [],
      "stateMutability": "nonpayable",
      "type": "function"
    },
    {
      "inputs": [
        {
          "internalType": "address",
          "name": "_feeWallet",
          "type": "address"
        }
      ],
      "name": "setFeeWallet",
      "outputs": [],
      "stateMutability": "nonpayable",
      "type": "function"
    },
    {
      "inputs": [
        {
          "internalType": "uint256",
          "name": "_threshold",
          "type": "uint256"
        },
        {
          "internalType": "uint256",
          "name": "_treasuryShare",
          "type": "uint256"
        },
        {
          "internalType": "uint256",
          "name": "_pancakeShare",
          "type": "uint256"
        }
      ],
      "name": "setMigrationThreshold",
      "outputs": [],
      "stateMutability": "nonpayable",
      "type": "function"
    },
    {
      "inputs": [
        {
          "internalType": "address",
          "name": "_router",
          "type": "address"
        }
      ],
      "name": "setPancakeRouter",
      "outputs": [],
      "stateMutability": "nonpayable",
      "type": "function"
    },
    {
      "inputs": [],
      "name": "sweepAllBNB",
      "outputs": [],
      "stateMutability": "nonpayable",
      "type": "function"
    },
    {
      "inputs": [
        {
          "internalType": "address",
          "name": "newOwner",
          "type": "address"
        }
      ],
      "name": "transferOwnership",
      "outputs": [],
      "stateMutability": "nonpayable",
      "type": "function"
    },
    {
      "stateMutability": "payable",
      "type": "receive"
    }
  ],
  "bytecode": "0x6080346200019157601f620017c338819003918201601f19168301916001600160401b03831184841017620001965780849260609460405283398101031262000191576200004d81620001ac565b6200006960406200006160208501620001ac565b9301620001ac565b6001600160a01b039182169283156200017857826000549160018060a01b03199580878516176000558260405194167f8be0079c531659141344cd1fd0a4f28419497f9722a3daafe3b4186f6b6457e0600080a360017f9b779b17422d0df92223018b32b4d1fa46e071723d6817e2486d003becc55f0055678ac7230489e80000600155677ce66c50e2840000600255670de0b6b3a76400006003551690811562000141575083600454161760045516908162000131575b6040516116019081620001c28239f35b6005541617600555388062000121565b62461bcd60e51b8152602060048201526012602482015271125b9d985b1a5908199959481dd85b1b195d60721b6044820152606490fd5b604051631e4fbdf760e01b815260006004820152602490fd5b600080fd5b634e487b7160e01b600052604160045260246000fd5b51906001600160a01b0382168203620001915756fe60806040818152600480361015610021575b505050361561001f57600080fd5b005b600092833560e01c908163150ee8831461106c57508063326961741461104d57806332cb6b0c146110265780635c85c58814610fa15780636c197ff514610d4f578063715018a614610cf5578063751c598814610aa65780638da5cb5b14610a7e5780638e8f294b14610a0557806390d49b9d14610963578063c21ebd071461093a578063c535c7ed14610843578063c8a1d06e1461079c578063d7b46c61146106ce578063ec9d23e7146106af578063ecd24a821461066d578063f088d54714610313578063f25f4b56146102ec578063f2fde38b14610266578063f8316c90146101c55763f96a60060361001157346101c15760203660031901126101c15761012a611088565b916101336110a3565b61013b611205565b6001600160a01b0383811685526006602052818520805460ff92600592916101659116151561112a565b01541661018b578361017684611235565b60016000805160206115ac8339815191525580f35b906020606492519162461bcd60e51b8352820152601060248201526f105b1c9958591e481b5a59dc985d195960821b6044820152fd5b8280fd5b50346101c15760203660031901126101c1576101df611088565b6101e76110a3565b6001600160a01b0316918215610232575050600580546001600160a01b031916821790557fc6b438e6a8a59579ce6a4406cbd203b740e0d47b458aae6596339bcd40c40d158280a280f35b906020606492519162461bcd60e51b8352820152600e60248201526d24b73b30b634b2103937baba32b960911b6044820152fd5b50346101c15760203660031901126101c157610280611088565b906102896110a3565b6001600160a01b039182169283156102d657505082546001600160a01b0319811683178455167f8be0079c531659141344cd1fd0a4f28419497f9722a3daafe3b4186f6b6457e08380a380f35b51631e4fbdf760e01b8152908101849052602490fd5b50346101c157826003193601126101c1575490516001600160a01b03909116815260209150f35b5082906020806003193601126101c15761032b611088565b91610334611205565b6001600160a01b038381168086526006845286862080549094929061035c908216151561112a565b600585019361036f60ff86541615611169565b341561063f5781815416803314908115610612575b50156105e857875b61039681346111e0565b91808801549760028101986103ad8a5480926110cf565b60038301916103d28354926103cc896103c686826111ad565b926110cf565b906111c0565b9586156105b257603c8102818104603c148215171561059e57928d61041761041e946104118b9561040b8f9b9a996064900480926111e0565b9d6110cf565b906110cf565b90556111e0565b9055338c526007885260ff8d8d2054168061058f575b15610586576001015416925b80610573575b508a5163a9059cbb60e01b81526001600160a01b0384168282019081526020810184905287908290819003604001818e8a5af1908115610569578b9161053c575b501561050757509189917f89f5adc174562e07c9c9b1cae7109bbecb21cf9d1b2847e550042b8653c54a0e9360ff98999a9b51963488528701521693a354161590816104f9575b506104ea575b5060016000805160206115ac8339815191525580f35b6104f390611235565b816104d4565b9050546001541115836104ce565b8a5162461bcd60e51b8152908101869052600f60248201526e151c985b9cd9995c8819985a5b1959608a1b6044820152606490fd5b61055c9150873d8911610562575b61055481836110f2565b8101906111ed565b8c610487565b503d61054a565b8c513d8d823e3d90fd5b61058090858354166114da565b8b610446565b50503392610440565b50816001820154161515610434565b50634e487b7160e01b8f526011865260248ffd5b8f5162461bcd60e51b81528087018c9052601060248201526f105b5bdd5b9d081d1bdbc81cdb585b1b60821b6044820152606490fd5b600534023481046005036105ff576064900461038c565b634e487b7160e01b895260118252602489fd5b338a52600786528a8a205460ff1691508161062f575b508a610384565b905082600188015416148a610628565b885162461bcd60e51b8152908101849052600860248201526729b2b7321021272160c11b6044820152606490fd5b5050346106ab5760203660031901126106ab5760209160ff9082906001600160a01b03610698611088565b1681526007855220541690519015158152f35b5080fd5b5050346106ab57816003193601126106ab576020906003549051908152f35b508290346106ab5760603660031901126106ab57803560243591604435906106f46110a3565b826106ff83866110cf565b036107595750610753907f57776b67dc318e1b02763e26fc5c0f75e1b429afc48e2a3aeec56c8fc87752dd949583600155846002558160035551938493846040919493926060820195825260208201520152565b0390a180f35b606490602087519162461bcd60e51b8352820152601b60248201527f536861726573206d75737420657175616c207468726573686f6c6400000000006044820152fd5b509134610840576020366003190112610840576001600160a01b036107bf611088565b168152600660205281812060028101546001549093909283156108315760648502908582046064148615171561081e57506080955060056108028560ff936111c0565b935b015416928151948552602085015283015215156060820152f35b634e487b7160e01b815260118752602490fd5b60809550600560ff9193610804565b80fd5b50346101c157826003193601126101c15761085c611205565b80546001600160a01b0390811691338314801561092e575b156108fa57479283156108ce579183916108b17fdbd1ea0ad8c379019b5744f70c9e46e13d61d8786de9583dd63d1732fa3b824f956020956114da565b54169351908152a260016000805160206115ac8339815191525580f35b845162461bcd60e51b8152602081840152600660248201526527379021272160d11b6044820152606490fd5b606490602085519162461bcd60e51b8352820152600e60248201526d139bdd08105d5d1a1bdc9a5e995960921b6044820152fd5b50818554163314610874565b5050346106ab57816003193601126106ab5760055490516001600160a01b039091168152602090f35b50346101c15760203660031901126101c15761097d611088565b6109856110a3565b6001600160a01b03169182156109cd575080546001600160a01b031916821790557f0439162378682c6392215882cf21e973f49063ed3530a31d763835a2e9f6d17e8280a280f35b906020606492519162461bcd60e51b83528201526012602482015271125b9d985b1a5908199959481dd85b1b195d60721b6044820152fd5b509190346106ab5760203660031901126106ab5760c0926001600160a01b0392829084610a30611088565b1681526006602052209083825416936001830154169260028301549060ff600560038601549486015495015416948151968752602087015285015260608401526080830152151560a0820152f35b5050346106ab57816003193601126106ab57905490516001600160a01b039091168152602090f35b509190346106ab5760603660031901126106ab57610ac2611088565b6024356001600160a01b0381811693909291849003610cf1576044353386526020926007845260ff83882054168015610ce5575b15610ca95784169384875260068452808388205416610c735782516370a0823160e01b81523089820152918483602481895afa928315610c69578893610c36575b508015610c2657925b80519460c0860186811067ffffffffffffffff821117610c135788848b9c95858b9c9d6006610bec9d9a978d9760059d9a528b885280880196875260a084890198848a52606081019a8b52608081019b8c52019b838d5283525220995116906bffffffffffffffffffffffff60a01b91828b5416178a5560018a0192511690825416179055516002870155516003860155519084015551151591019060ff801983541691151516179055565b7fab3e0ae7b7d4c37d3539a4f3e3ac856a540af410acce171c797bbf88c1853b2d8380a380f35b634e487b7160e01b8a5260418b5260248afd5b506706f05b59d3b2000092610b40565b9092508481813d8311610c62575b610c4e81836110f2565b81010312610c5e57519138610b37565b8780fd5b503d610c44565b84513d8a823e3d90fd5b825162461bcd60e51b8152808901859052601060248201526f105b1c9958591e481b185d5b98da195960821b6044820152606490fd5b825162461bcd60e51b815280890185905260166024820152754e6f7420617574686f72697a656420666163746f727960501b6044820152606490fd5b50848754163314610af6565b8480fd5b8334610840578060031936011261084057610d0e6110a3565b80546001600160a01b03198116825581906001600160a01b03167f8be0079c531659141344cd1fd0a4f28419497f9722a3daafe3b4186f6b6457e08280a380f35b509190346106ab57806003193601126106ab57610d6a611088565b60243591610d76611205565b60018060a01b038092169182855260206006815282862091610d9c81845416151561112a565b610dad60ff60058501541615611169565b8515610f6d5783516323b872dd60e01b815233898201523060248201526044810187905282816064818b8a5af1908115610f63578891610f46575b5015610f13578783015492610e378760028301926003610e13610e0d8654809a6110cf565b846111ad565b910193610e30610e298654936103cc86866110cf565b80996111e0565b90556110cf565b905587541696338803610eb95750610e8986977fa082022e93cfcd9f1da5f9236718053910f7e840da080c789c7845698dc032ff959697905b610e7a82866111e0565b9180610ea9575b5050336114da565b82519586528501523393a360016000805160206115ac8339815191525580f35b610eb2916114da565b3880610e81565b966005830283810460051484151715610f00577fa082022e93cfcd9f1da5f9236718053910f7e840da080c789c7845698dc032ff9596979850906064610e89920490610e70565b634e487b7160e01b885260118952602488fd5b835162461bcd60e51b8152808901839052600d60248201526c151c985b9cd9995c8819985a5b609a1b6044820152606490fd5b610f5d9150833d85116105625761055481836110f2565b38610de8565b85513d8a823e3d90fd5b835162461bcd60e51b8152808901839052600e60248201526d125b9d985b1a5908185b5bdd5b9d60921b6044820152606490fd5b5050346106ab57806003193601126106ab57610fbb611088565b9060243591821515808403610cf1577f6b489c12f59a99312ab950fddabe529a090208050382df653584944ea5f78b359261101e602093610ffa6110a3565b60018060a01b031695868852600785528288209060ff801983541691151516179055565b51908152a280f35b5050346106ab57816003193601126106ab57602090516b033b2e3c9fd0803ce80000008152f35b5050346106ab57816003193601126106ab576020906002549051908152f35b8490346106ab57816003193601126106ab576020906001548152f35b600435906001600160a01b038216820361109e57565b600080fd5b6000546001600160a01b031633036110b757565b60405163118cdaa760e01b8152336004820152602490fd5b919082018092116110dc57565b634e487b7160e01b600052601160045260246000fd5b90601f8019910116810190811067ffffffffffffffff82111761111457604052565b634e487b7160e01b600052604160045260246000fd5b1561113157565b60405162461bcd60e51b815260206004820152601060248201526f13585c9ad95d081b9bdd08199bdd5b9960821b6044820152606490fd5b1561117057565b60405162461bcd60e51b81526020600482015260156024820152740a8ded6cadc40dad2cee4c2e8cac840e8de40888ab605b1b6044820152606490fd5b818102929181159184041417156110dc57565b81156111ca570490565b634e487b7160e01b600052601260045260246000fd5b919082039182116110dc57565b9081602091031261109e5751801515810361109e5790565b6000805160206115ac83398151915260028154146112235760029055565b604051633ee5aeb560e01b8152600490fd5b60018060a01b0380911690600082815260066020526040908181209160058301600160ff1982541617905560025492600354946002820191825461127988886110cf565b811061149f575060039061128e8785546111e0565b84556004936112a088858754166114da565b6112ab8982546111e0565b9055018481549155848260055416151580611496575b8061148d575b1561146157600554855163095ea7b360e01b81529084166001600160a01b031685820190815260208082018590529082906040908290030181858e5af1801561145757611439575b5082600554169183855416926102584201804211611426578b8b6060949360c4938b51988996879563f305d71960e01b87528d8701526024860152886044860152886064860152608485015260a48401525af1909182826113e2575b50509160008051602061158c83398151915297969593916113c39593156000146113db575061139d87828454166114da565b4790816113c8575b50505051938493846040919493926060820195825260208201520152565b0390a2565b6113d39254166114da565b3880806113a5565b935061139d565b909192506060823d821161141e575b816113fe606093836110f2565b81010312610840575051908060008051602061158c83398151915261136b565b3d91506113f1565b634e487b7160e01b845260118752602484fd5b6114509060203d81116105625761055481836110f2565b503861130f565b86513d84823e3d90fd5b5050918183611488886113c39660008051602061158c8339815191529a99989654166114da565b61139d565b508715156112c7565b508115156112c1565b949392905060008051602061158c8339815191529650606095506114c8858593600454166114da565b558051928352816020840152820152a2565b811561158757600080808094819460018060a01b03165af1903d15611581573d9067ffffffffffffffff821161156d5760405191611522601f8201601f1916602001846110f2565b825260203d92013e5b1561153257565b60405162461bcd60e51b8152602060048201526013602482015272109390881d1c985b9cd9995c8819985a5b1959606a1b6044820152606490fd5b634e487b7160e01b81526041600452602490fd5b5061152b565b505056fe6b60d326d3c4023c7cb9b6755fc31af3cfbccdeb07a7a8b4d79e201f732324ee9b779b17422d0df92223018b32b4d1fa46e071723d6817e2486d003becc55f00a264697066735822122047c34920d16b5b2957b97b70b41489eced826e7a1f7faae94d38f5948a36e2bc64736f6c63430008140033",
  "linkReferences": {},
  "deployedLinkReferences": {}
}