{
  "_format": "hh-sol-artifact-1",
  "contractName": "TokenFactory",
  "sourceName": "contracts/TokenFactory.flattened.sol",
  "abi": [
    {
      "inputs": [
        {
          "internalType": "address",
          "name": "_bondingCurve",
          "type": "address"
        },
        {
          "internalType": "address",
          "name": "_feeWallet",
          "type": "address"
        },
        {
          "internalType": "address",
          "name": "_owner",
          "type": "address"
        }
      ],
      "stateMutability": "nonpayable",
      "type": "constructor"
    },
    {
      "inputs": [
        {
          "internalType": "address",
          "name": "owner",
          "type": "address"
        }
      ],
      "name": "OwnableInvalidOwner",
      "type": "error"
    },
    {
      "inputs": [
        {
          "internalType": "address",
          "name": "account",
          "type": "address"
        }
      ],
      "name": "OwnableUnauthorizedAccount",
      "type": "error"
    },
    {
      "anonymous": false,
      "inputs": [
        {
          "indexed": true,
          "internalType": "address",
          "name": "newBondingCurve",
          "type": "address"
        }
      ],
      "name": "BondingCurveUpdated",
      "type": "event"
    },
    {
      "anonymous": false,
      "inputs": [
        {
          "indexed": true,
          "internalType": "address",
          "name": "user",
          "type": "address"
        },
        {
          "indexed": false,
          "internalType": "uint256",
          "name": "amount",
          "type": "uint256"
        },
        {
          "indexed": false,
          "internalType": "string",
          "name": "reason",
          "type": "string"
        }
      ],
      "name": "FeeCollected",
      "type": "event"
    },
    {
      "anonymous": false,
      "inputs": [
        {
          "indexed": true,
          "internalType": "address",
          "name": "newFeeWallet",
          "type": "address"
        }
      ],
      "name": "FeeWalletUpdated",
      "type": "event"
    },
    {
      "anonymous": false,
      "inputs": [
        {
          "indexed": false,
          "internalType": "uint256",
          "name": "deploymentFee",
          "type": "uint256"
        },
        {
          "indexed": false,
          "internalType": "uint256",
          "name": "minInitialBuy",
          "type": "uint256"
        },
        {
          "indexed": false,
          "internalType": "uint256",
          "name": "upgradeFee",
          "type": "uint256"
        }
      ],
      "name": "FeesUpdated",
      "type": "event"
    },
    {
      "anonymous": false,
      "inputs": [
        {
          "indexed": true,
          "internalType": "address",
          "name": "previousOwner",
          "type": "address"
        },
        {
          "indexed": true,
          "internalType": "address",
          "name": "newOwner",
          "type": "address"
        }
      ],
      "name": "OwnershipTransferred",
      "type": "event"
    },
    {
      "anonymous": false,
      "inputs": [
        {
          "indexed": true,
          "internalType": "address",
          "name": "user",
          "type": "address"
        },
        {
          "indexed": false,
          "internalType": "bool",
          "name": "status",
          "type": "bool"
        }
      ],
      "name": "PermissionGranted",
      "type": "event"
    },
    {
      "anonymous": false,
      "inputs": [
        {
          "indexed": true,
          "internalType": "address",
          "name": "tokenAddress",
          "type": "address"
        },
        {
          "indexed": false,
          "internalType": "string",
          "name": "name",
          "type": "string"
        },
        {
          "indexed": false,
          "internalType": "string",
          "name": "symbol",
          "type": "string"
        },
        {
          "indexed": false,
          "internalType": "uint256",
          "name": "supply",
          "type": "uint256"
        },
        {
          "indexed": false,
          "internalType": "uint8",
          "name": "decimals",
          "type": "uint8"
        },
        {
          "indexed": true,
          "internalType": "address",
          "name": "creator",
          "type": "address"
        },
        {
          "indexed": false,
          "internalType": "uint256",
          "name": "feePaid",
          "type": "uint256"
        }
      ],
      "name": "StandardTokenCreated",
      "type": "event"
    },
    {
      "anonymous": false,
      "inputs": [
        {
          "indexed": true,
          "internalType": "address",
          "name": "tokenAddress",
          "type": "address"
        },
        {
          "indexed": false,
          "internalType": "string",
          "name": "name",
          "type": "string"
        },
        {
          "indexed": false,
          "internalType": "string",
          "name": "symbol",
          "type": "string"
        },
        {
          "indexed": false,
          "internalType": "uint256",
          "name": "supply",
          "type": "uint256"
        },
        {
          "indexed": true,
          "internalType": "address",
          "name": "creator",
          "type": "address"
        },
        {
          "indexed": false,
          "internalType": "uint256",
          "name": "deploymentFee",
          "type": "uint256"
        },
        {
          "indexed": false,
          "internalType": "uint256",
          "name": "initialBuyBnb",
          "type": "uint256"
        }
      ],
      "name": "TokenCreated",
      "type": "event"
    },
    {
      "anonymous": false,
      "inputs": [
        {
          "indexed": true,
          "internalType": "address",
          "name": "tokenAddress",
          "type": "address"
        },
        {
          "indexed": true,
          "internalType": "address",
          "name": "creator",
          "type": "address"
        },
        {
          "indexed": false,
          "internalType": "uint256",
          "name": "feePaid",
          "type": "uint256"
        }
      ],
      "name": "TokenUpgraded",
      "type": "event"
    },
    {
      "inputs": [],
      "name": "DEPLOYMENT_FEE",
      "outputs": [
        {
          "internalType": "uint256",
          "name": "",
          "type": "uint256"
        }
      ],
      "stateMutability": "view",
      "type": "function"
    },
    {
      "inputs": [],
      "name": "MIN_INITIAL_BUY",
      "outputs": [
        {
          "internalType": "uint256",
          "name": "",
          "type": "uint256"
        }
      ],
      "stateMutability": "view",
      "type": "function"
    },
    {
      "inputs": [],
      "name": "UPGRADE_FEE",
      "outputs": [
        {
          "internalType": "uint256",
          "name": "",
          "type": "uint256"
        }
      ],
      "stateMutability": "view",
      "type": "function"
    },
    {
      "inputs": [
        {
          "internalType": "uint256",
          "name": "",
          "type": "uint256"
        }
      ],
      "name": "allTokens",
      "outputs": [
        {
          "internalType": "address",
          "name": "",
          "type": "address"
        }
      ],
      "stateMutability": "view",
      "type": "function"
    },
    {
      "inputs": [],
      "name": "bondingCurve",
      "outputs": [
        {
          "internalType": "address",
          "name": "",
          "type": "address"
        }
      ],
      "stateMutability": "view",
      "type": "function"
    },
    {
      "inputs": [
        {
          "internalType": "address",
          "name": "user",
          "type": "address"
        },
        {
          "internalType": "uint256",
          "name": "amount",
          "type": "uint256"
        },
        {
          "internalType": "string",
          "name": "reason",
          "type": "string"
        }
      ],
      "name": "collectFee",
      "outputs": [],
      "stateMutability": "nonpayable",
      "type": "function"
    },
    {
      "inputs": [
        {
          "internalType": "address",
          "name": "token",
          "type": "address"
        },
        {
          "internalType": "address",
          "name": "user",
          "type": "address"
        },
        {
          "internalType": "uint256",
          "name": "amount",
          "type": "uint256"
        },
        {
          "internalType": "string",
          "name": "reason",
          "type": "string"
        }
      ],
      "name": "collectToken",
      "outputs": [],
      "stateMutability": "nonpayable",
      "type": "function"
    },
    {
      "inputs": [
        {
          "internalType": "string",
          "name": "name",
          "type": "string"
        },
        {
          "internalType": "string",
          "name": "symbol",
          "type": "string"
        },
        {
          "internalType": "uint256",
          "name": "virtualBnb",
          "type": "uint256"
        }
      ],
      "name": "createToken",
      "outputs": [
        {
          "internalType": "address",
          "name": "tokenAddress",
          "type": "address"
        }
      ],
      "stateMutability": "payable",
      "type": "function"
    },
    {
      "inputs": [
        {
          "internalType": "string",
          "name": "name",
          "type": "string"
        },
        {
          "internalType": "string",
          "name": "symbol",
          "type": "string"
        },
        {
          "internalType": "uint8",
          "name": "decimals",
          "type": "uint8"
        },
        {
          "internalType": "uint256",
          "name": "supply",
          "type": "uint256"
        }
      ],
      "name": "createTokenStandard",
      "outputs": [
        {
          "internalType": "address",
          "name": "tokenAddress",
          "type": "address"
        }
      ],
      "stateMutability": "payable",
      "type": "function"
    },
    {
      "inputs": [
        {
          "internalType": "address",
          "name": "",
          "type": "address"
        }
      ],
      "name": "creatorOf",
      "outputs": [
        {
          "internalType": "address",
          "name": "",
          "type": "address"
        }
      ],
      "stateMutability": "view",
      "type": "function"
    },
    {
      "inputs": [],
      "name": "feeWallet",
      "outputs": [
        {
          "internalType": "address",
          "name": "",
          "type": "address"
        }
      ],
      "stateMutability": "view",
      "type": "function"
    },
    {
      "inputs": [],
      "name": "getAllTokens",
      "outputs": [
        {
          "internalType": "address[]",
          "name": "",
          "type": "address[]"
        }
      ],
      "stateMutability": "view",
      "type": "function"
    },
    {
      "inputs": [
        {
          "internalType": "address",
          "name": "creator",
          "type": "address"
        }
      ],
      "name": "getTokensByCreator",
      "outputs": [
        {
          "internalType": "address[]",
          "name": "",
          "type": "address[]"
        }
      ],
      "stateMutability": "view",
      "type": "function"
    },
    {
      "inputs": [
        {
          "internalType": "address",
          "name": "",
          "type": "address"
        }
      ],
      "name": "isLinked",
      "outputs": [
        {
          "internalType": "bool",
          "name": "",
          "type": "bool"
        }
      ],
      "stateMutability": "view",
      "type": "function"
    },
    {
      "inputs": [],
      "name": "linkProtocol",
      "outputs": [],
      "stateMutability": "nonpayable",
      "type": "function"
    },
    {
      "inputs": [],
      "name": "owner",
      "outputs": [
        {
          "internalType": "address",
          "name": "",
          "type": "address"
        }
      ],
      "stateMutability": "view",
      "type": "function"
    },
    {
      "inputs": [],
      "name": "renounceOwnership",
      "outputs": [],
      "stateMutability": "nonpayable",
      "type": "function"
    },
    {
      "inputs": [
        {
          "internalType": "address",
          "name": "_bondingCurve",
          "type": "address"
        }
      ],
      "name": "setBondingCurve",
      "outputs": [],
      "stateMutability": "nonpayable",
      "type": "function"
    },
    {
      "inputs": [
        {
          "internalType": "address",
          "name": "_feeWallet",
          "type": "address"
        }
      ],
      "name": "setFeeWallet",
      "outputs": [],
      "stateMutability": "nonpayable",
      "type": "function"
    },
    {
      "inputs": [
        {
          "internalType": "uint256",
          "name": "_deploymentFee",
          "type": "uint256"
        },
        {
          "internalType": "uint256",
          "name": "_minInitialBuy",
          "type": "uint256"
        },
        {
          "internalType": "uint256",
          "name": "_upgradeFee",
          "type": "uint256"
        }
      ],
      "name": "setFees",
      "outputs": [],
      "stateMutability": "nonpayable",
      "type": "function"
    },
    {
      "inputs": [
        {
          "internalType": "address",
          "name": "",
          "type": "address"
        },
        {
          "internalType": "uint256",
          "name": "",
          "type": "uint256"
        }
      ],
      "name": "tokensByCreator",
      "outputs": [
        {
          "internalType": "address",
          "name": "",
          "type": "address"
        }
      ],
      "stateMutability": "view",
      "type": "function"
    },
    {
      "inputs": [],
      "name": "totalTokens",
      "outputs": [
        {
          "internalType": "uint256",
          "name": "",
          "type": "uint256"
        }
      ],
      "stateMutability": "view",
      "type": "function"
    },
    {
      "inputs": [
        {
          "internalType": "address",
          "name": "newOwner",
          "type": "address"
        }
      ],
      "name": "transferOwnership",
      "outputs": [],
      "stateMutability": "nonpayable",
      "type": "function"
    },
    {
      "inputs": [
        {
          "internalType": "address",
          "name": "tokenAddress",
          "type": "address"
        }
      ],
      "name": "upgradeToken",
      "outputs": [],
      "stateMutability": "payable",
      "type": "function"
    }
  ],
  "bytecode": "0x608034620001a857601f6200270b38819003918201601f191683019291906001600160401b03841183851017620001ad578160609284926040968752833981010312620001a8576200005181620001c3565b90826200006160208301620001c3565b916001600160a01b03918291620000799101620001c3565b169182156200019057816000549460018060a01b031994808688161760005582885197167f8be0079c531659141344cd1fd0a4f28419497f9722a3daafe3b4186f6b6457e0600080a3660aa87bee53800060015566b1a2bc2ec50000600255662386f26fc10000600355169384156200014e57501691821562000115578160045416176004556005541617600555516125329081620001d98239f35b835162461bcd60e51b8152602060048201526012602482015271125b9d985b1a5908199959481dd85b1b195d60721b6044820152606490fd5b62461bcd60e51b815260206004820152601560248201527f496e76616c696420626f6e64696e6720637572766500000000000000000000006044820152606490fd5b8451631e4fbdf760e01b815260006004820152602490fd5b600080fd5b634e487b7160e01b600052604160045260246000fd5b51906001600160a01b0382168203620001a85756fe60806040818152600491823610156200001757600080fd5b600092833560e01c9182632a5c792a1462000faa5750816339457b501462000f5257816343ff1fb81462000edb57816359475e771462000eba5781635b0605301462000b5a578163634282af1462000afc57816363d42edc14620008b05781636ee31a1814620007b2578163715018a614620007545781637e1c0c0914620007335781638da5cb5b146200070957816390d49b9d14620006925781639f3043c314620005d0578163a4b41c8a14620005af578163a8f32251146200058e578163b8d382531462000418578163cec10c1114620003ae578163d5c71275146200031d578163d80d03a214620002ba578163dea5c2e0146200027b578163eff1d50e1462000251578163f25f4b561462000226578163f2fde38b146200018a575063fb1afbd7146200014657600080fd5b3462000186576020366003190112620001865760209160ff9082906001600160a01b036200017362001076565b1681526009855220541690519015158152f35b5080fd5b905034620002225760203660031901126200022257620001a962001076565b90620001b4620010ed565b6001600160a01b039182169283156200020c575050600054826bffffffffffffffffffffffff60a01b821617600055167f8be0079c531659141344cd1fd0a4f28419497f9722a3daafe3b4186f6b6457e0600080a380f35b51631e4fbdf760e01b8152908101849052602490fd5b8280fd5b505034620001865781600319360112620001865760055490516001600160a01b039091168152602090f35b90503462000222578260031936011262000222575490516001600160a01b03909116815260209150f35b5050346200018657602036600319011262000186576020916001600160a01b0390829082620002a962001076565b168152600885522054169051908152f35b5050346200018657806003193601126200018657620002d862001076565b6001600160a01b0390811683526007602052818320805460243594908510156200031a57506020936200030b91620010be565b92905490519260031b1c168152f35b80fd5b50503462000186576020908160031936011262000222576001600160a01b0392836200034862001076565b16815260078352818120938251908194808754938481520196845280842093915b838310620003945762000390878762000385828c0383620012c5565b519182918262001030565b0390f35b845481168852968101966001948501949092019162000369565b9050346200022257606036600319011262000222577fcf8a1e1d5f09cf3c97dbb653cd9a4d7aace9292fbc1bb8211febf2d400febbdd91606091359060443590602435620003fb620010ed565b83600155806002558260035581519384526020840152820152a180f35b9050346200022257608036600319011262000222576200043762001076565b6001600160a01b036024358181169492939285820362000589578693604435936064359167ffffffffffffffff83116200056f576200047b8693369083016200108d565b98909562000488620010ed565b8a8952602098899460098652620004a560ff8984205416620012e8565b60055488516323b872dd60e01b81526001600160a01b03948516968101968752908216909316602086015260408501969096529094859384900360600192849291165af180156200057f5762000539575b50907fbde344b6f67c3bf7e0ecbbf22b04267d5d3ae0aa1909c0000b812f6b14ce45b99482806200053394519687968752860152840191620011d5565b0390a280f35b8481819493943d831162000577575b620005548183620012c5565b81010312620005735751801515036200056f579038620004f6565b8680fd5b8780fd5b503d62000548565b82513d8a823e3d90fd5b600080fd5b50503462000186578160031936011262000186576020906001549051908152f35b50503462000186578160031936011262000186576020906003549051908152f35b905034620002225760603660031901126200022257620005ef62001076565b916024356044359267ffffffffffffffff84116200068e576200063b62000533917fbde344b6f67c3bf7e0ecbbf22b04267d5d3ae0aa1909c0000b812f6b14ce45b9953691016200108d565b62000645620010ed565b620006788460018060a01b0380991698898b5260096020526200066e60ff898d205416620012e8565b6005541662001327565b84519485948552806020860152840191620011d5565b8580fd5b83346200031a5760203660031901126200031a57620006b062001076565b620006ba620010ed565b6001600160a01b0316620006d08115156200111a565b600580546001600160a01b031916821790557f29acee77dafcfa0143d74a7ea236018f3a6e1fa71e27fc59bbfbc6b8ca8edccd8280a280f35b5050346200018657816003193601126200018657905490516001600160a01b039091168152602090f35b50503462000186578160031936011262000186576020906006549051908152f35b83346200031a57806003193601126200031a5762000771620010ed565b600080546001600160a01b0319811682556001600160a01b03167f8be0079c531659141344cd1fd0a4f28419497f9722a3daafe3b4186f6b6457e08280a380f35b91905060203660031901126200022257620007cc62001076565b60035434106200086d576001600160a01b039081168085526008602052828520549093908216156200083857506200080a9034906005541662001327565b51903482527f89e75c42f7cca6a6e4ad53c63f1b4a422ba2cc998dd8b5a3234dfcd95cc163c960203393a380f35b606490602084519162461bcd60e51b8352820152600f60248201526e151bdad95b881b9bdd08199bdd5b99608a1b6044820152fd5b815162461bcd60e51b8152602081850152601860248201527f496e73756666696369656e7420757067726164652066656500000000000000006044820152606490fd5b90506080366003190112620002225767ffffffffffffffff813581811162000af857620008e190369084016200108d565b91906024358281116200056f57620008fd90369086016200108d565b6044359260ff841680940362000af457600554606435976001600160a01b039182169633880362000aea578b975b88341062000ab457620009408a151562001159565b6200094d86151562001196565b3462000aa0575b508260055416908b519261112890818501928584109084111762000a8d57509160c08d928a620009aa6200099a8f8998620013d58a3960e0855260e08501908c620011d5565b83810360208501528b8d620011d5565b948201528d60608201523360808201523360a0820152015203908bf0801562000a83579360209a969362000a5a7f8b8813e4675d01d004959145e77b7aba8b176cf3ccae9f8cf1ce0900fb3f5048979462000a68948d9c9b98169c8d9a62000a128c620011f6565b3381528f6007905262000a288c83832062001272565b8b81528f6008905220336bffffffffffffffffffffffff60a01b8254161790558b519760a0895260a0890191620011d5565b918683038d880152620011d5565b9587840152606083015260808201528033940390a351908152f35b89513d8c823e3d90fd5b634e487b7160e01b8f526041905260248efd5b62000aad90349062001327565b3862000954565b8b5162461bcd60e51b8152602081850152601060248201526f496e73756666696369656e742066656560801b6044820152606490fd5b600154976200092b565b8880fd5b8480fd5b90503462000222576020366003190112620002225735600654811015620002225760066000527ff652222313e28459528d920b65115c16c04f3efc82aaedc97be59f3f377c0d3f015490516001600160a01b03909116815260209150f35b9190506060366003190112620002225767ffffffffffffffff823581811162000af85762000b8c90369085016200108d565b94906024918235848111620001865762000baa90369088016200108d565b909160018060a01b0397886005541695863314968760001462000eb05783975b1562000e8d57835b341062000e3a5762000be68c151562001159565b62000bf385151562001196565b878062000e27575b505089825416978a600554168a5191611128808401918483109083111762000e15579160c08f9260128f948c8c8f62000c4a9062000c59948c9b620013d58d3960e0885260e0880191620011d5565b918583036020870152620011d5565b94820152633b9aca009d8e606083015233608083015260a08201520152039084f0801562000e0b578a169962000c8f8b620011f6565b338452600760205262000ca58b8b862062001272565b8a8452600860205289842080546001600160a01b0319163317905582548116803b1562000af8578a51630ea38b3160e31b81526001600160a01b038d1685820190815233602082015260443560408201529091869183919082908490829060600103925af1801562000e015762000deb575b508734039734891162000dd957340362000d77575b50505050927fa1fdd9d625a3d9910d1d8f8431da95fb346446dc9687e2f12468dd20cc4691a39262000a6860209993899662000a5a600154948b519760a0895260a0890191620011d5565b82541691823b1562000dd55783918b91898c51958694859363f088d54760e01b85528401525af1801562000dcb5762000db3575b808062000d2c565b62000dbf8291620012b0565b6200031a578062000dab565b88513d84823e3d90fd5b8380fd5b634e487b7160e01b8552601184528285fd5b62000df990949194620012b0565b923862000d17565b8b513d87823e3d90fd5b89513d85823e3d90fd5b634e487b7160e01b8752604186528487fd5b62000e329162001327565b388762000bfb565b895162461bcd60e51b81526020818501526028818401527f496e73756666696369656e7420424e423a206e65656420666565202b20696e696044820152677469616c2062757960c01b6064820152608490fd5b60015460025481018091111562000bd257634e487b7160e01b8552601184528285fd5b6001549762000bca565b50503462000186578160031936011262000186576020906002549051908152f35b83903462000186576020366003190112620001865762000efa62001076565b62000f04620010ed565b6001600160a01b03169062000f1b8215156200111a565b80546001600160a01b031916821790557fc4fda5d836a9aaafabd3088c5f5dcabfe179c3b392b09dbac0e8727667f3c7768280a280f35b50503462000186578160031936011262000186573382526009602052808220600160ff1982541617905551600181527f9896b4eed33ea0bcc03386bf8d03b92659362f6180a8671a40cfe4ed5159e2dd60203392a280f35b849084346200022257826003193601126200022257600680548084529084526020808401947ff652222313e28459528d920b65115c16c04f3efc82aaedc97be59f3f377c0d3f92915b8282106200100f5762000390868662000385828b0383620012c5565b83546001600160a01b03168752958601956001938401939091019062000ff3565b6020908160408183019282815285518094520193019160005b82811062001058575050505090565b83516001600160a01b03168552938101939281019260010162001049565b600435906001600160a01b03821682036200058957565b9181601f84011215620005895782359167ffffffffffffffff83116200058957602083818601950101116200058957565b8054821015620010d75760005260206000200190600090565b634e487b7160e01b600052603260045260246000fd5b6000546001600160a01b031633036200110257565b60405163118cdaa760e01b8152336004820152602490fd5b156200112257565b60405162461bcd60e51b815260206004820152600f60248201526e496e76616c6964206164647265737360881b6044820152606490fd5b156200116157565b60405162461bcd60e51b815260206004820152600d60248201526c13985b59481c995c5d5a5c9959609a1b6044820152606490fd5b156200119e57565b60405162461bcd60e51b815260206004820152600f60248201526e14de5b589bdb081c995c5d5a5c9959608a1b6044820152606490fd5b908060209392818452848401376000828201840152601f01601f1916010190565b600654600160401b8110156200125c576001810180600655811015620010d75760066000527ff652222313e28459528d920b65115c16c04f3efc82aaedc97be59f3f377c0d3f0180546001600160a01b0319166001600160a01b03909216919091179055565b634e487b7160e01b600052604160045260246000fd5b8054600160401b8110156200125c576200129291600182018155620010be565b819291549060031b9160018060a01b03809116831b921b1916179055565b67ffffffffffffffff81116200125c57604052565b90601f8019910116810190811067ffffffffffffffff8211176200125c57604052565b15620012f057565b60405162461bcd60e51b815260206004820152600f60248201526e155cd95c881b9bdd081b1a5b9ad959608a1b6044820152606490fd5b600080808094819460018060a01b03165af1903d15620013cd573d9067ffffffffffffffff8211620013b957604051916200136d601f8201601f191660200184620012c5565b825260203d92013e5b156200137e57565b60405162461bcd60e51b8152602060048201526013602482015272109390881d1c985b9cd9995c8819985a5b1959606a1b6044820152606490fd5b634e487b7160e01b81526041600452602490fd5b506200137656fe60406080815262001128803803806200001881620005f1565b928339810160e082820312620005ec5781516001600160401b039290838111620005ec57826200004a91830162000658565b906020928382015190858211620005ec576200006891830162000658565b858201519360ff851691828603620005ec576060840151936200008e608082016200069a565b97620000ab60c0620000a360a085016200069a565b93016200069a565b918751828111620004ec576003928354936001928386811c96168015620005e1575b89871014620005cb57601f9586811162000580575b5080898782116001146200050e5760009162000502575b5060001982841b1c191690841b1781555b8651918211620004ec5760049485548481811c91168015620004e1575b8a821014620004cc5781811162000481575b50889083116001146200041757829383916000946200040b575b501b92600019911b1c19161782555b6001600160a01b038181169a9099908b15620003f457600580546001600160a01b031981168e179091558b91908d9083167f8be0079c531659141344cd1fd0a4f28419497f9722a3daafe3b4186f6b6457e0600080a316998a15620003bf5784169081156200038757600680546001600160a81b0319168c1760a09290921b60ff60a01b1691909117905534620002ff575b50604d8611620002ea5785600a0a92838802938885041488151715620002d557600a84049384810393818511620002c05750927fcfdd2334c592eec854e571de05695acf7ad2753c264d043eefdac143cb72adc099979592620002859592620002779a9895620002a0575b505050508a51968796608088526080880190620006af565b9186830390870152620006af565b918884015260608301520390a3516109bf9081620007698239f35b620002b693620002b091620006d6565b620006d6565b388080806200025f565b601190634e487b7160e01b6000525260246000fd5b601183634e487b7160e01b6000525260246000fd5b601182634e487b7160e01b6000525260246000fd5b60008080809334905af13d1562000381573d62000326620003208262000617565b620005f1565b9081526000873d92013e5b156200033e5738620001f4565b8a5162461bcd60e51b8152808301869052601360248201527f466565207472616e73666572206661696c6564000000000000000000000000006044820152606490fd5b62000331565b8c5162461bcd60e51b81528085018890526012602482015271125b9d985b1a5908199959481dd85b1b195d60721b6044820152606490fd5b8c5162461bcd60e51b8152808501889052600f60248201526e24b73b30b634b21031b932b0ba37b960891b6044820152606490fd5b8c51631e4fbdf760e01b8152600081860152602490fd5b89015193503862000153565b90601f1983169186600052838a6000209360005b8c888d8484106200046a5750505050106200044f575b505050811b01825562000162565b8801519060f884600019921b161c1916905538808062000441565b86015188559096019593840193879350016200042b565b86600052896000208280860160051c8201928c8710620004c2575b0160051c019085905b828110620004b557505062000139565b60008155018590620004a5565b925081926200049c565b602287634e487b7160e01b6000525260246000fd5b90607f169062000127565b634e487b7160e01b600052604160045260246000fd5b90508c015138620000f9565b60008481528b812087945091908f90601f198516908e5b8282106200055e575050841162000545575b505050811b0181556200010a565b015160001983861b60f8161c1916905538808e62000537565b929484849395979892960151815501940192018f909188959493928e62000525565b82600052896000208780840160051c8201928c8510620005c1575b0160051c019085905b828110620005b4575050620000e2565b60008155018590620005a4565b925081926200059b565b634e487b7160e01b600052602260045260246000fd5b95607f1695620000cd565b600080fd5b6040519190601f01601f191682016001600160401b03811183821017620004ec57604052565b6001600160401b038111620004ec57601f01601f191660200190565b60005b838110620006475750506000910152565b818101518382015260200162000636565b81601f82011215620005ec57805162000675620003208262000617565b9281845260208284010111620005ec5762000697916020808501910162000633565b90565b51906001600160a01b0382168203620005ec57565b90602091620006ca8151809281855285808601910162000633565b601f01601f1916010190565b6001600160a01b03169081156200074f5760025490808201809211620007395760207fddf252ad1be2c89b69c2b068fc378daa952ba7f163c4a11628f55a4df523b3ef9160009360025584845283825260408420818154019055604051908152a3565b634e487b7160e01b600052601160045260246000fd5b60405163ec442f0560e01b815260006004820152602490fdfe6080604081815260048036101561001557600080fd5b600092833560e01c90816302d05d3f146107e05750806306fdde0314610705578063095ea7b31461065c57806318160ddd1461063d57806323b872dd1461054a578063313ce5671461052557806340c10f191461047657806342966c68146103b857806370a0823114610381578063715018a6146103215780638da5cb5b146102f857806395d89b41146101d8578063a9059cbb146101a7578063dd62ed3e1461015a5763f2fde38b146100c857600080fd5b34610156576020366003190112610156576100e161084e565b906100ea61087f565b6001600160a01b03918216928315610140575050600554826bffffffffffffffffffffffff60a01b821617600555167f8be0079c531659141344cd1fd0a4f28419497f9722a3daafe3b4186f6b6457e08380a380f35b51631e4fbdf760e01b8152908101849052602490fd5b8280fd5b5050346101a357806003193601126101a3578060209261017861084e565b610180610869565b6001600160a01b0391821683526001865283832091168252845220549051908152f35b5080fd5b5050346101a357806003193601126101a3576020906101d16101c761084e565b60243590336108ab565b5160018152f35b509190346101a357816003193601126101a357805190828454600181811c908083169283156102ee575b60209384841081146102db578388529081156102bf575060011461026a575b505050829003601f01601f191682019267ffffffffffffffff8411838510176102575750829182610253925282610805565b0390f35b634e487b7160e01b815260418552602490fd5b8787529192508591837f8a35acfbc15ff81a39ae7d344fd709f28e8600b4aa8c65c6b64bfe7fe36bd19b5b8385106102ab5750505050830101388080610221565b805488860183015293019284908201610295565b60ff1916878501525050151560051b8401019050388080610221565b634e487b7160e01b895260228a52602489fd5b91607f1691610202565b5050346101a357816003193601126101a35760055490516001600160a01b039091168152602090f35b833461037e578060031936011261037e5761033a61087f565b600580546001600160a01b0319811690915581906001600160a01b03167f8be0079c531659141344cd1fd0a4f28419497f9722a3daafe3b4186f6b6457e08280a380f35b80fd5b5050346101a35760203660031901126101a35760209181906001600160a01b036103a961084e565b16815280845220549051908152f35b509190346101a35760203660031901126101a3578235906103d761087f565b33156104605733835282602052808320549382851061043557508183943385528460205203818420558160025403600255519081527fddf252ad1be2c89b69c2b068fc378daa952ba7f163c4a11628f55a4df523b3ef60203392a380f35b905163391434e360e21b81523391810191825260208201859052604082018390529081906060010390fd5b51634b637e8f60e11b8152808401839052602490fd5b50903461015657806003193601126101565761049061084e565b906024359161049d61087f565b6001600160a01b031692831561051057600254908382018092116104fd575084927fddf252ad1be2c89b69c2b068fc378daa952ba7f163c4a11628f55a4df523b3ef9260209260025585855284835280852082815401905551908152a380f35b634e487b7160e01b865260119052602485fd5b84602492519163ec442f0560e01b8352820152fd5b5050346101a357816003193601126101a35760209060ff60065460a01c169051908152f35b50823461037e57606036600319011261037e5761056561084e565b61056d610869565b916044359360018060a01b0383168083526001602052868320338452602052868320549160001983106105a9575b6020886101d18989896108ab565b8683106106115781156105fa5733156105e3575082526001602090815286832033845281529186902090859003905582906101d18761059b565b8751634a1406b160e11b8152908101849052602490fd5b875163e602df0560e01b8152908101849052602490fd5b8751637dc7a0d960e11b8152339181019182526020820193909352604081018790528291506060010390fd5b5050346101a357816003193601126101a3576020906002549051908152f35b503461015657816003193601126101565761067561084e565b6024359033156106ee576001600160a01b03169182156106d757508083602095338152600187528181208582528752205582519081527f8c5be1e5ebec7d5bd14f71427d1e84f3dd0314c0f7b2291e5b200ac8c7c3b925843392a35160018152f35b8351634a1406b160e11b8152908101859052602490fd5b835163e602df0560e01b8152808401869052602490fd5b509190346101a357816003193601126101a35780519082600354600181811c908083169283156107d6575b60209384841081146102db578388529081156102bf575060011461078057505050829003601f01601f191682019267ffffffffffffffff8411838510176102575750829182610253925282610805565b600387529192508591837fc2575a0e9e593c00f959f8c92f12db2869c3395a3b0502d05e2516446f71f85b5b8385106107c25750505050830101388080610221565b8054888601830152930192849082016107ac565b91607f1691610730565b8490346101a357816003193601126101a3576006546001600160a01b03168152602090f35b6020808252825181830181905290939260005b82811061083a57505060409293506000838284010152601f8019910116010190565b818101860151848201604001528501610818565b600435906001600160a01b038216820361086457565b600080fd5b602435906001600160a01b038216820361086457565b6005546001600160a01b0316330361089357565b60405163118cdaa760e01b8152336004820152602490fd5b916001600160a01b0380841692831561097057169283156109575760009083825281602052604082205490838210610925575091604082827fddf252ad1be2c89b69c2b068fc378daa952ba7f163c4a11628f55a4df523b3ef958760209652828652038282205586815220818154019055604051908152a3565b60405163391434e360e21b81526001600160a01b03919091166004820152602481019190915260448101839052606490fd5b60405163ec442f0560e01b815260006004820152602490fd5b604051634b637e8f60e11b815260006004820152602490fdfea2646970667358221220d721e864a871c3d3371ea3b0c68b0e492cacff9fe92e8cf847259f530ca4be8564736f6c63430008140033a2646970667358221220cbee76c40a86ecd5c263afbbbcc649931673dd735748339d4a88428e9c0e199864736f6c63430008140033",
  "linkReferences": {},
  "deployedLinkReferences": {}
}