{
  "_format": "hh-sol-artifact-1",
  "contractName": "DirectDexLaunchFactory",
  "sourceName": "contracts/DirectDexLaunchFactory.flattened.sol",
  "abi": [
    {
      "inputs": [
        {
          "internalType": "address",
          "name": "_feeWallet",
          "type": "address"
        },
        {
          "internalType": "address",
          "name": "_router",
          "type": "address"
        },
        {
          "internalType": "address",
          "name": "_owner",
          "type": "address"
        }
      ],
      "stateMutability": "nonpayable",
      "type": "constructor"
    },
    {
      "inputs": [
        {
          "internalType": "address",
          "name": "owner",
          "type": "address"
        }
      ],
      "name": "OwnableInvalidOwner",
      "type": "error"
    },
    {
      "inputs": [
        {
          "internalType": "address",
          "name": "account",
          "type": "address"
        }
      ],
      "name": "OwnableUnauthorizedAccount",
      "type": "error"
    },
    {
      "anonymous": false,
      "inputs": [
        {
          "indexed": true,
          "internalType": "address",
          "name": "tokenAddress",
          "type": "address"
        },
        {
          "indexed": true,
          "internalType": "address",
          "name": "caller",
          "type": "address"
        },
        {
          "indexed": false,
          "internalType": "uint256",
          "name": "tokenAmount",
          "type": "uint256"
        },
        {
          "indexed": false,
          "internalType": "uint256",
          "name": "bnbAdded",
          "type": "uint256"
        }
      ],
      "name": "LiquidityAdded",
      "type": "event"
    },
    {
      "anonymous": false,
      "inputs": [
        {
          "indexed": true,
          "internalType": "address",
          "name": "previousOwner",
          "type": "address"
        },
        {
          "indexed": true,
          "internalType": "address",
          "name": "newOwner",
          "type": "address"
        }
      ],
      "name": "OwnershipTransferred",
      "type": "event"
    },
    {
      "anonymous": false,
      "inputs": [
        {
          "indexed": true,
          "internalType": "address",
          "name": "tokenAddress",
          "type": "address"
        },
        {
          "indexed": false,
          "internalType": "string",
          "name": "name",
          "type": "string"
        },
        {
          "indexed": false,
          "internalType": "string",
          "name": "symbol",
          "type": "string"
        },
        {
          "indexed": false,
          "internalType": "uint256",
          "name": "supply",
          "type": "uint256"
        },
        {
          "indexed": true,
          "internalType": "address",
          "name": "creator",
          "type": "address"
        },
        {
          "indexed": false,
          "internalType": "uint256",
          "name": "deploymentFee",
          "type": "uint256"
        },
        {
          "indexed": false,
          "internalType": "uint256",
          "name": "liquidityBnb",
          "type": "uint256"
        }
      ],
      "name": "TokenCreatedDirect",
      "type": "event"
    },
    {
      "inputs": [],
      "name": "DEPLOYMENT_FEE",
      "outputs": [
        {
          "internalType": "uint256",
          "name": "",
          "type": "uint256"
        }
      ],
      "stateMutability": "view",
      "type": "function"
    },
    {
      "inputs": [],
      "name": "MIN_INITIAL_LIQUIDITY",
      "outputs": [
        {
          "internalType": "uint256",
          "name": "",
          "type": "uint256"
        }
      ],
      "stateMutability": "view",
      "type": "function"
    },
    {
      "inputs": [],
      "name": "RELEASE_SERVICE_FEE",
      "outputs": [
        {
          "internalType": "uint256",
          "name": "",
          "type": "uint256"
        }
      ],
      "stateMutability": "view",
      "type": "function"
    },
    {
      "inputs": [
        {
          "internalType": "address",
          "name": "tokenAddress",
          "type": "address"
        },
        {
          "internalType": "uint256",
          "name": "tokenAmount",
          "type": "uint256"
        }
      ],
      "name": "addLiquidityForToken",
      "outputs": [],
      "stateMutability": "payable",
      "type": "function"
    },
    {
      "inputs": [
        {
          "internalType": "address",
          "name": "token",
          "type": "address"
        },
        {
          "internalType": "address",
          "name": "user",
          "type": "address"
        },
        {
          "internalType": "uint256",
          "name": "amount",
          "type": "uint256"
        },
        {
          "internalType": "string",
          "name": "reason",
          "type": "string"
        }
      ],
      "name": "collectToken",
      "outputs": [],
      "stateMutability": "nonpayable",
      "type": "function"
    },
    {
      "inputs": [
        {
          "internalType": "string",
          "name": "name",
          "type": "string"
        },
        {
          "internalType": "string",
          "name": "symbol",
          "type": "string"
        },
        {
          "internalType": "uint256",
          "name": "tokensToLiquidate",
          "type": "uint256"
        }
      ],
      "name": "createTokenDirect",
      "outputs": [
        {
          "internalType": "address",
          "name": "tokenAddress",
          "type": "address"
        }
      ],
      "stateMutability": "payable",
      "type": "function"
    },
    {
      "inputs": [],
      "name": "dexRouter",
      "outputs": [
        {
          "internalType": "contract IDexRouter",
          "name": "",
          "type": "address"
        }
      ],
      "stateMutability": "view",
      "type": "function"
    },
    {
      "inputs": [],
      "name": "feeWallet",
      "outputs": [
        {
          "internalType": "address",
          "name": "",
          "type": "address"
        }
      ],
      "stateMutability": "view",
      "type": "function"
    },
    {
      "inputs": [],
      "name": "owner",
      "outputs": [
        {
          "internalType": "address",
          "name": "",
          "type": "address"
        }
      ],
      "stateMutability": "view",
      "type": "function"
    },
    {
      "inputs": [],
      "name": "renounceOwnership",
      "outputs": [],
      "stateMutability": "nonpayable",
      "type": "function"
    },
    {
      "inputs": [
        {
          "internalType": "address",
          "name": "_feeWallet",
          "type": "address"
        }
      ],
      "name": "setFeeWallet",
      "outputs": [],
      "stateMutability": "nonpayable",
      "type": "function"
    },
    {
      "inputs": [
        {
          "internalType": "uint256",
          "name": "_deploymentFee",
          "type": "uint256"
        },
        {
          "internalType": "uint256",
          "name": "_minLiquidity",
          "type": "uint256"
        }
      ],
      "name": "setFees",
      "outputs": [],
      "stateMutability": "nonpayable",
      "type": "function"
    },
    {
      "inputs": [
        {
          "internalType": "uint256",
          "name": "_fee",
          "type": "uint256"
        }
      ],
      "name": "setReleaseFee",
      "outputs": [],
      "stateMutability": "nonpayable",
      "type": "function"
    },
    {
      "inputs": [
        {
          "internalType": "address",
          "name": "",
          "type": "address"
        }
      ],
      "name": "tokenCreator",
      "outputs": [
        {
          "internalType": "address",
          "name": "",
          "type": "address"
        }
      ],
      "stateMutability": "view",
      "type": "function"
    },
    {
      "inputs": [
        {
          "internalType": "address",
          "name": "",
          "type": "address"
        }
      ],
      "name": "tokensLocked",
      "outputs": [
        {
          "internalType": "uint256",
          "name": "",
          "type": "uint256"
        }
      ],
      "stateMutability": "view",
      "type": "function"
    },
    {
      "inputs": [
        {
          "internalType": "address",
          "name": "newOwner",
          "type": "address"
        }
      ],
      "name": "transferOwnership",
      "outputs": [],
      "stateMutability": "nonpayable",
      "type": "function"
    },
    {
      "inputs": [
        {
          "internalType": "address",
          "name": "token",
          "type": "address"
        },
        {
          "internalType": "uint256",
          "name": "amount",
          "type": "uint256"
        },
        {
          "internalType": "address",
          "name": "to",
          "type": "address"
        }
      ],
      "name": "withdrawToken",
      "outputs": [],
      "stateMutability": "nonpayable",
      "type": "function"
    },
    {
      "stateMutability": "payable",
      "type": "receive"
    }
  ],
  "bytecode": "0x6080346200019257601f620026d838819003918201601f191683019291906001600160401b038411838510176200019757816060928492604096875283398101031262000192576200005181620001ad565b90826200006160208301620001ad565b916001600160a01b03918291620000799101620001ad565b169182156200017a57816000549460018060a01b031994808688161760005582885197167f8be0079c531659141344cd1fd0a4f28419497f9722a3daafe3b4186f6b6457e0600080a3660aa87bee53800080600155662386f26fc1000060025560075516938415620001435750169182156200010e578160035416176003556004541617600455516125159081620001c38239f35b835162461bcd60e51b815260206004820152600e60248201526d24b73b30b634b2103937baba32b960911b6044820152606490fd5b62461bcd60e51b8152602060048201526012602482015271125b9d985b1a5908199959481dd85b1b195d60721b6044820152606490fd5b8451631e4fbdf760e01b815260006004820152602490fd5b600080fd5b634e487b7160e01b600052604160045260246000fd5b51906001600160a01b0382168203620001925756fe60808060405260043610156200001f575b5036156200001d57600080fd5b005b600090813560e01c90816301a598a614620011c3575080630758d92414620011985780630b78f9c0146200116b57806323774af2146200112b578063355943d6146200110b5780633ccdbb281462001008578063715018a61462000faa578063728780fa1462000f8a5780638bfa25da1462000f635780638da5cb5b1462000f3a57806390d49b9d1462000ee1578063a8f322511462000ec1578063b8d382531462000dfb578063c8fe3ab51462000aa9578063ef11d9ca14620001b8578063f25f4b56146200018d5763f2fde38b036200001057346200018a5760203660031901126200018a5762000111620011fd565b6200011b62001245565b6001600160a01b039081169081156200017157600054826bffffffffffffffffffffffff60a01b821617600055167f8be0079c531659141344cd1fd0a4f28419497f9722a3daafe3b4186f6b6457e0600080a380f35b604051631e4fbdf760e01b815260048101849052602490fd5b80fd5b50346200018a57806003193601126200018a576003546040516001600160a01b039091168152602090f35b5060603660031901126200018a5760043567ffffffffffffffff81116200091057620001e990369060040162001214565b919060243567ffffffffffffffff811162000aa5576200020e90369060040162001214565b6003546001600160a01b031692338414929190831562000a9b5785945b841562000a8c5786945b1562000a6057865b341062000a05578715620009d05782156200099957869086806200093c575b505060035460405191506001600160a01b031667ffffffffffffffff61112883019081119083111762000928578190611128620013b8833960e0611128830152620002cc620002b460e06111288501018c8762001352565b61112884018103602061112886010152868862001352565b601261112884016040810191909152633b9aca0060608201523360808201523060a082015260c00191909152039087f080156200091d576001600160a01b031680875260056020908152604080892080546001600160a01b03191633179055516370a0823160e01b815230600482015291979190816024818b5afa9081156200053b578291620008e1575b5060443515159081620008d3575b501562000883576004805460405163095ea7b360e01b81526001600160a01b03909116918101919091526000196024820152602081604481858c5af180156200053b576200084d575b508094620003c666ffffffffffffff821688620012b1565b341162000824575b8562000752575b66ffffffffffffff811662000546575b506040516370a0823160e01b81523060048201526020816024818b5afa9081156200053b578291620004fe575b508782526006602052604082205547806200049f575b5050926200047c7f05f54c7fcd7e0d07c8d765788e6ea1b851012bd80863d3c969b5233d4fbdedb293602098936200046e89976040519660a0885260a088019162001352565b918583038b87015262001352565b94633b9aca006040840152606083015260808201528033940390a3604051908152f35b818080929a959697949a335af1620004b66200130e565b5015620004c95792919095388062000428565b60405162461bcd60e51b815260206004820152600d60248201526c1499599d5b990819985a5b1959609a1b6044820152606490fd5b90506020813d60201162000532575b816200051c60209383620012d5565b810103126200052d57513862000412565b600080fd5b3d91506200050d565b6040513d84823e3d90fd5b6040519081606081011067ffffffffffffffff6060840111176200073e576060820160405260028252604036602084013760018060a01b03600454166040516315ab88c960e31b8152602081600481855afa90811562000733578591620006e6575b50835115620006d2576001600160a01b03166020840152825160011015620006be5789604084015261025842014211620006aa57803b15620006a65791839160405193849263b6f9de9560e01b845260848401856004860152608060248601528151809152602060a48601920190865b81811062000680575050509066ffffffffffffff84809333604483015261025842016064830152039316905af180156200053b5715620003e55767ffffffffffffffff81116200066c5760405238620003e5565b634e487b7160e01b82526041600452602482fd5b82516001600160a01b031684528997508896506020938401939092019160010162000618565b8380fd5b634e487b7160e01b84526011600452602484fd5b634e487b7160e01b84526032600452602484fd5b634e487b7160e01b85526032600452602485fd5b90506020813d6020116200072a575b816200070460209383620012d5565b810103126200072657516001600160a01b0381168103620007265738620005a8565b8480fd5b3d9150620006f5565b6040513d87823e3d90fd5b634e487b7160e01b83526041600452602483fd5b6004546001600160a01b031642610258810110620008105760405163f305d71960e01b81526001600160a01b038a16600482015260448035602483015260009082018190526064820152336084820152610258420160a482015290606090829060c49082908b905af180156200080557620007cf575b50620003d5565b620007f59060603d606011620007fd575b620007ec8183620012d5565b8101906200139b565b5050620007c8565b503d620007e0565b6040513d85823e3d90fd5b634e487b7160e01b83526011600452602483fd5b94506200084666ffffffffffffff86166200084088346200138d565b6200138d565b94620003ce565b620008739060203d6020116200087b575b6200086a8183620012d5565b81019062001373565b5038620003ae565b503d6200085e565b60405162461bcd60e51b815260206004820152602260248201527f496e76616c696420746f6b656e7320746f206c697175696461746520616d6f756044820152611b9d60f21b6064820152608490fd5b905060443511153862000365565b90506020813d60201162000914575b81620008ff60209383620012d5565b810103126200091057513862000357565b5080fd5b3d9150620008f0565b6040513d88823e3d90fd5b634e487b7160e01b88526041600452602488fd5b8280929181925af16200094e6200130e565b50156200095e578538866200025c565b60405162461bcd60e51b8152602060048201526013602482015272119959481d1c985b9cd9995c8819985a5b1959606a1b6044820152606490fd5b60405162461bcd60e51b815260206004820152600f60248201526e14de5b589bdb081c995c5d5a5c9959608a1b6044820152606490fd5b60405162461bcd60e51b815260206004820152600d60248201526c13985b59481c995c5d5a5c9959609a1b6044820152606490fd5b60405162461bcd60e51b815260206004820152602d60248201527f496e73756666696369656e7420424e423a206e65656420666565202b204c502060448201526c2b20666972737420747261646560981b6064820152608490fd5b62000a8660015462000a8066ffffffffffffff88169160025490620012b1565b620012b1565b6200023d565b66071afd498d00009462000235565b600154946200022b565b8280fd5b5060403660031901126200018a5762000ac1620011fd565b6001600160a01b03808216808452600560209081526040852054602480359593949390918416330362000dbf57851562000d7b57848752600683528560408820541062000d37576007548034111562000ce557878080809388600354165af162000b2a6200130e565b501562000ca1576004805460405163095ea7b360e01b81529086166001600160a01b0316918101919091526024810187905283816044818b8a5af1801562000c965762000c74575b5062000b81600754346200138d565b93600454169061025842019283421162000c62575060405163f305d71960e01b81526001600160a01b0391909116600482015260248101879052600060448201819052606482015233608482015260a4810192909252606090829060c490829087905af180156200091d5762000c3f575b50828552600681526040852062000c0b8582546200138d565b90556040519384528301527f36f3b2e1a21c19137dd82ec243b0708a1d26b3d1fa1dc49c44c4c366a587813860403393a380f35b62000c5a9060603d8111620007fd57620007ec8183620012d5565b505062000bf2565b634e487b7160e01b8952601160045288fd5b62000c8e90843d86116200087b576200086a8183620012d5565b503862000b72565b6040513d8a823e3d90fd5b60405162461bcd60e51b815260048101849052601b818401527f5365727669636520666565207472616e73666572206661696c656400000000006044820152606490fd5b60405162461bcd60e51b8152600481018590526025818501527f4d7573742073656e64207365727669636520666565202b206c697175696469746044820152643c9021272160d91b6064820152608490fd5b60405162461bcd60e51b815260048101849052601c818401527f496e73756666696369656e7420746f6b656e7320696e207661756c74000000006044820152606490fd5b60405162461bcd60e51b8152600481018490526018818401527f546f6b656e20616d6f756e74206d757374206265203e203000000000000000006044820152606490fd5b60405162461bcd60e51b815260048101849052601581840152742737ba103a3432903a37b5b2b71031b932b0ba37b960591b6044820152606490fd5b50346200018a5760803660031901126200018a5762000e19620011fd565b6024356001600160a01b0381811691829003620006a65760643567ffffffffffffffff8111620007265760209262000e58606492369060040162001214565b505062000e6462001245565b8583600354169360405196879586946323b872dd60e01b8652600486015260248501526044356044850152165af180156200053b5762000ea2575080f35b62000ebd9060203d81116200087b576200086a8183620012d5565b5080f35b50346200018a57806003193601126200018a576020600154604051908152f35b50346200018a5760203660031901126200018a5762000eff620011fd565b62000f0962001245565b6001600160a01b031662000f1f81151562001272565b6bffffffffffffffffffffffff60a01b600354161760035580f35b50346200018a57806003193601126200018a57546040516001600160a01b039091168152602090f35b50346200018a5760203660031901126200018a5762000f8162001245565b60043560075580f35b50346200018a57806003193601126200018a576020600254604051908152f35b50346200018a57806003193601126200018a5762000fc762001245565b80546001600160a01b03198116825581906001600160a01b03167f8be0079c531659141344cd1fd0a4f28419497f9722a3daafe3b4186f6b6457e08280a380f35b50346200018a5760603660031901126200018a5762001026620011fd565b60243590604435906001600160a01b0390818316808403620011075762001095926020926200106287936200105a62001245565b151562001272565b60405163a9059cbb60e01b81526001600160a01b0390961660048701526024860192909252169291829081906044820190565b038187865af18015620010fc57620010d9575b5082526006602052604082209081549080821015620010c5578380f35b620010d0916200138d565b90553880808380f35b620010f49060203d81116200087b576200086a8183620012d5565b5038620010a8565b6040513d86823e3d90fd5b8580fd5b50346200018a57806003193601126200018a576020600754604051908152f35b50346200018a5760203660031901126200018a576020906001600160a01b03906040908262001159620011fd565b16815260058452205416604051908152f35b50346200018a5760403660031901126200018a576200118962001245565b60043560015560243560025580f35b50346200018a57806003193601126200018a576004546040516001600160a01b039091168152602090f35b9050346200091057602036600319011262000910576020916040906001600160a01b03620011f0620011fd565b1681526006845220548152f35b600435906001600160a01b03821682036200052d57565b9181601f840112156200052d5782359167ffffffffffffffff83116200052d57602083818601950101116200052d57565b6000546001600160a01b031633036200125a57565b60405163118cdaa760e01b8152336004820152602490fd5b156200127a57565b60405162461bcd60e51b815260206004820152600f60248201526e496e76616c6964206164647265737360881b6044820152606490fd5b91908201809211620012bf57565b634e487b7160e01b600052601160045260246000fd5b90601f8019910116810190811067ffffffffffffffff821117620012f857604052565b634e487b7160e01b600052604160045260246000fd5b3d156200134d573d9067ffffffffffffffff8211620012f8576040519162001341601f8201601f191660200184620012d5565b82523d6000602084013e565b606090565b908060209392818452848401376000828201840152601f01601f1916010190565b908160209103126200052d575180151581036200052d5790565b91908203918211620012bf57565b908160609103126200052d57805191604060208301519201519056fe60406080815262001128803803806200001881620005f1565b928339810160e082820312620005ec5781516001600160401b039290838111620005ec57826200004a91830162000658565b906020928382015190858211620005ec576200006891830162000658565b858201519360ff851691828603620005ec576060840151936200008e608082016200069a565b97620000ab60c0620000a360a085016200069a565b93016200069a565b918751828111620004ec576003928354936001928386811c96168015620005e1575b89871014620005cb57601f9586811162000580575b5080898782116001146200050e5760009162000502575b5060001982841b1c191690841b1781555b8651918211620004ec5760049485548481811c91168015620004e1575b8a821014620004cc5781811162000481575b50889083116001146200041757829383916000946200040b575b501b92600019911b1c19161782555b6001600160a01b038181169a9099908b15620003f457600580546001600160a01b031981168e179091558b91908d9083167f8be0079c531659141344cd1fd0a4f28419497f9722a3daafe3b4186f6b6457e0600080a316998a15620003bf5784169081156200038757600680546001600160a81b0319168c1760a09290921b60ff60a01b1691909117905534620002ff575b50604d8611620002ea5785600a0a92838802938885041488151715620002d557600a84049384810393818511620002c05750927fcfdd2334c592eec854e571de05695acf7ad2753c264d043eefdac143cb72adc099979592620002859592620002779a9895620002a0575b505050508a51968796608088526080880190620006af565b9186830390870152620006af565b918884015260608301520390a3516109bf9081620007698239f35b620002b693620002b091620006d6565b620006d6565b388080806200025f565b601190634e487b7160e01b6000525260246000fd5b601183634e487b7160e01b6000525260246000fd5b601182634e487b7160e01b6000525260246000fd5b60008080809334905af13d1562000381573d62000326620003208262000617565b620005f1565b9081526000873d92013e5b156200033e5738620001f4565b8a5162461bcd60e51b8152808301869052601360248201527f466565207472616e73666572206661696c6564000000000000000000000000006044820152606490fd5b62000331565b8c5162461bcd60e51b81528085018890526012602482015271125b9d985b1a5908199959481dd85b1b195d60721b6044820152606490fd5b8c5162461bcd60e51b8152808501889052600f60248201526e24b73b30b634b21031b932b0ba37b960891b6044820152606490fd5b8c51631e4fbdf760e01b8152600081860152602490fd5b89015193503862000153565b90601f1983169186600052838a6000209360005b8c888d8484106200046a5750505050106200044f575b505050811b01825562000162565b8801519060f884600019921b161c1916905538808062000441565b86015188559096019593840193879350016200042b565b86600052896000208280860160051c8201928c8710620004c2575b0160051c019085905b828110620004b557505062000139565b60008155018590620004a5565b925081926200049c565b602287634e487b7160e01b6000525260246000fd5b90607f169062000127565b634e487b7160e01b600052604160045260246000fd5b90508c015138620000f9565b60008481528b812087945091908f90601f198516908e5b8282106200055e575050841162000545575b505050811b0181556200010a565b015160001983861b60f8161c1916905538808e62000537565b929484849395979892960151815501940192018f909188959493928e62000525565b82600052896000208780840160051c8201928c8510620005c1575b0160051c019085905b828110620005b4575050620000e2565b60008155018590620005a4565b925081926200059b565b634e487b7160e01b600052602260045260246000fd5b95607f1695620000cd565b600080fd5b6040519190601f01601f191682016001600160401b03811183821017620004ec57604052565b6001600160401b038111620004ec57601f01601f191660200190565b60005b838110620006475750506000910152565b818101518382015260200162000636565b81601f82011215620005ec57805162000675620003208262000617565b9281845260208284010111620005ec5762000697916020808501910162000633565b90565b51906001600160a01b0382168203620005ec57565b90602091620006ca8151809281855285808601910162000633565b601f01601f1916010190565b6001600160a01b03169081156200074f5760025490808201809211620007395760207fddf252ad1be2c89b69c2b068fc378daa952ba7f163c4a11628f55a4df523b3ef9160009360025584845283825260408420818154019055604051908152a3565b634e487b7160e01b600052601160045260246000fd5b60405163ec442f0560e01b815260006004820152602490fdfe6080604081815260048036101561001557600080fd5b600092833560e01c90816302d05d3f146107e05750806306fdde0314610705578063095ea7b31461065c57806318160ddd1461063d57806323b872dd1461054a578063313ce5671461052557806340c10f191461047657806342966c68146103b857806370a0823114610381578063715018a6146103215780638da5cb5b146102f857806395d89b41146101d8578063a9059cbb146101a7578063dd62ed3e1461015a5763f2fde38b146100c857600080fd5b34610156576020366003190112610156576100e161084e565b906100ea61087f565b6001600160a01b03918216928315610140575050600554826bffffffffffffffffffffffff60a01b821617600555167f8be0079c531659141344cd1fd0a4f28419497f9722a3daafe3b4186f6b6457e08380a380f35b51631e4fbdf760e01b8152908101849052602490fd5b8280fd5b5050346101a357806003193601126101a3578060209261017861084e565b610180610869565b6001600160a01b0391821683526001865283832091168252845220549051908152f35b5080fd5b5050346101a357806003193601126101a3576020906101d16101c761084e565b60243590336108ab565b5160018152f35b509190346101a357816003193601126101a357805190828454600181811c908083169283156102ee575b60209384841081146102db578388529081156102bf575060011461026a575b505050829003601f01601f191682019267ffffffffffffffff8411838510176102575750829182610253925282610805565b0390f35b634e487b7160e01b815260418552602490fd5b8787529192508591837f8a35acfbc15ff81a39ae7d344fd709f28e8600b4aa8c65c6b64bfe7fe36bd19b5b8385106102ab5750505050830101388080610221565b805488860183015293019284908201610295565b60ff1916878501525050151560051b8401019050388080610221565b634e487b7160e01b895260228a52602489fd5b91607f1691610202565b5050346101a357816003193601126101a35760055490516001600160a01b039091168152602090f35b833461037e578060031936011261037e5761033a61087f565b600580546001600160a01b0319811690915581906001600160a01b03167f8be0079c531659141344cd1fd0a4f28419497f9722a3daafe3b4186f6b6457e08280a380f35b80fd5b5050346101a35760203660031901126101a35760209181906001600160a01b036103a961084e565b16815280845220549051908152f35b509190346101a35760203660031901126101a3578235906103d761087f565b33156104605733835282602052808320549382851061043557508183943385528460205203818420558160025403600255519081527fddf252ad1be2c89b69c2b068fc378daa952ba7f163c4a11628f55a4df523b3ef60203392a380f35b905163391434e360e21b81523391810191825260208201859052604082018390529081906060010390fd5b51634b637e8f60e11b8152808401839052602490fd5b50903461015657806003193601126101565761049061084e565b906024359161049d61087f565b6001600160a01b031692831561051057600254908382018092116104fd575084927fddf252ad1be2c89b69c2b068fc378daa952ba7f163c4a11628f55a4df523b3ef9260209260025585855284835280852082815401905551908152a380f35b634e487b7160e01b865260119052602485fd5b84602492519163ec442f0560e01b8352820152fd5b5050346101a357816003193601126101a35760209060ff60065460a01c169051908152f35b50823461037e57606036600319011261037e5761056561084e565b61056d610869565b916044359360018060a01b0383168083526001602052868320338452602052868320549160001983106105a9575b6020886101d18989896108ab565b8683106106115781156105fa5733156105e3575082526001602090815286832033845281529186902090859003905582906101d18761059b565b8751634a1406b160e11b8152908101849052602490fd5b875163e602df0560e01b8152908101849052602490fd5b8751637dc7a0d960e11b8152339181019182526020820193909352604081018790528291506060010390fd5b5050346101a357816003193601126101a3576020906002549051908152f35b503461015657816003193601126101565761067561084e565b6024359033156106ee576001600160a01b03169182156106d757508083602095338152600187528181208582528752205582519081527f8c5be1e5ebec7d5bd14f71427d1e84f3dd0314c0f7b2291e5b200ac8c7c3b925843392a35160018152f35b8351634a1406b160e11b8152908101859052602490fd5b835163e602df0560e01b8152808401869052602490fd5b509190346101a357816003193601126101a35780519082600354600181811c908083169283156107d6575b60209384841081146102db578388529081156102bf575060011461078057505050829003601f01601f191682019267ffffffffffffffff8411838510176102575750829182610253925282610805565b600387529192508591837fc2575a0e9e593c00f959f8c92f12db2869c3395a3b0502d05e2516446f71f85b5b8385106107c25750505050830101388080610221565b8054888601830152930192849082016107ac565b91607f1691610730565b8490346101a357816003193601126101a3576006546001600160a01b03168152602090f35b6020808252825181830181905290939260005b82811061083a57505060409293506000838284010152601f8019910116010190565b818101860151848201604001528501610818565b600435906001600160a01b038216820361086457565b600080fd5b602435906001600160a01b038216820361086457565b6005546001600160a01b0316330361089357565b60405163118cdaa760e01b8152336004820152602490fd5b916001600160a01b0380841692831561097057169283156109575760009083825281602052604082205490838210610925575091604082827fddf252ad1be2c89b69c2b068fc378daa952ba7f163c4a11628f55a4df523b3ef958760209652828652038282205586815220818154019055604051908152a3565b60405163391434e360e21b81526001600160a01b03919091166004820152602481019190915260448101839052606490fd5b60405163ec442f0560e01b815260006004820152602490fd5b604051634b637e8f60e11b815260006004820152602490fdfea2646970667358221220ed1ff8da73a59397ab7f58bfad94deac76d9dadd1b640a760eedb8b4693a7fde64736f6c63430008140033a2646970667358221220a27929139eb00b0c5b600fbdd7cb1750aca68c48279f9e991bca9830a7722cf964736f6c63430008140033",
  "linkReferences": {},
  "deployedLinkReferences": {}
}